:020000040000FA
:100000000C9473020C943D420C9412420C94E74100
:100010000C94BC410C9491410C9466410C943B416E
:100020000C9410410C94A4020C94A4020C94A4020D
:100030000C94A4020C94A4020C94A4020C94A402A8
:100040000C94A4020C94A4020C94A4020C94A40298
:100050000C94A4020C94A4020C94A4020C94C64028
:100060000C94A4020C9490400C9466400C94A4024E
:100070000C94A4020C94A4020C94A4020C94A40268
:100080000C94A4020C94A4020C94A4020C94A40258
:100090000C94A4020C94A4020C94A4020C94684244
:1000A0000C94A4020C94A4020C94A4020C94A40238
:1000B0000C94A4020C94A4020C94A4020C94A40228
:1000C0000C94A4020C94A4020C94A4020C94A40218
:1000D0000C94A4020C94A4020C94A4020C94A40208
:1000E0000C94A4020C94A6030C946D150C947D043E
:1000F0000C947B160C94C5230C94C2060C946E06CB
:100100000C944A230C9451260C946B260C9477047F
:100110000C9427220C9427260C94F1050C94CB1EEA
:100120000C9405060C94A2040C94E6020C94A6050B
:100130000C9408260C9482050C94E3060C94DD05BF
:100140000C9450150C94F3070C9417150C94F62787
:100150000C9421280C94BA050C949E050C946B0504
:100160000C941C070C94BA180C9489160C94100368
:100170000C94D3050C94580A0C947F160C94A30489
:100180000C94AC070C944A270C94DD020C94620486
:100190000C94BF070C94AA230C947A270C94A91EE4
:1001A0000C94E7050C9496050C94082B0C94F3031F
:1001B0000C948B040C9420150C9460030C94300761
:1001C0000C9440150C94621E0C944C030C94E202A7
:1001D0000C949D070C94C4050C948E160C94A415D5
:1001E0000C94D8060C94D9240C9481040C94C60762
:1001F0000C9430250C940A210C94A4120C94200722
:100200000C9419210C949A150C9496160C949D0438
:100210000C948C430C94AA140C9478050C942C2701
:100220000C94A0310C94B0050C9499040C94AC0679
:100230000C948B160C9473050C943D030C947D1E4A
:100240000C9405180C94494F0C94A7040C94FB05CE
:100250000C944C280C9487040C9474040C94700433
:100260000C94062C0C9468040C9495040C94E702EE
:100270000C9435230C94041F0C94E1020C946C0430
:100280000C9418070C94FA020C948C050C948F04AF
:100290000C946E030C947B2B4E414E494E4954599D
:1002A000494E46CDCCCC3D0AD7233C17B7D1387741
:1002B000CC2B329595E6241FB14F0A000020410057
:1002C00000C84200401C4620BCBE4CCA1B0E5AAEA1
:1002D000C59D7427206E616D653D2770726F6772D2
:1002E000616D5F6C6F6164273E3C2F666F726D3E7F
:1002F000003C2F6C6162656C3E3C696E70757420C9
:10030000636C6173733D2768696464656E2720744C
:100310007970653D2774657874272076616C756502
:100320003D27003C2F6C6162656C3E3C6C616265F0
:100330006C3E003C666F726D3E3C696E7075742059
:10034000747970653D277375626D697427207661D5
:100350006C75653D274C6F6164273E3C696E707516
:100360007420747970653D27627574746F6E2720F0
:1003700076616C75653D2744656C65746527206FF3
:100380006E636C69636B3D2764656C6574655F7053
:10039000726F6772616D28746869732E706172651F
:1003A0006E744E6F64652927273E3C6C6162656CF4
:1003B0003E007C3C3E5E2B3D3F2F5B5D3B2C2A226A
:1003C0005C0000002100240027002A002D003000DE
:1003D000330001010000040107010A0100002000B0
:1003E0002300260029002C002F003200000100000D
:1003F00003010601090100000A0B02090C0D0E0899
:1004000007030401000000000000000000000000DD
:1004100000000000000000000000000000000000DC
:100420000000121110000000000000000000000099
:100430000000000000000000000000000102102089
:10044000200808102040102040800201020108040A
:10045000020101020408102040808040201008049E
:1004600002018004020180402010080402010804F7
:10047000020101020408102040800102040810203B
:10048000408000002200250028002B002E003100B3
:10049000340002010000050108010B0105050505F6
:1004A000070508080808020202020A0A08080404EC
:1004B000040401010101010101010303030303031A
:1004C0000303040707070C0C0C0C0C0C0C0C0202A9
:1004D000020206060606060606060B0B0B0B0B0BA6
:1004E0000B0B8C43494F11241FBECFEFD1E2DEBF6F
:1004F000CDBF00E00CBF1EE0A0E0B2E0E0EBF2EB0D
:1005000000E00BBF02C007900D92AA34B107D9F7E3
:100510002AE1AAE4BEE001C01D92A53EB207E1F7C0
:1005200012E0C2E7D2E000E006C021970109802F67
:10053000FE010E94F057C137D10780E00807A9F7F4
:100540000E9493440C9446590C940000CF93DF937F
:10055000FC01828193819093AF1A8093AE1A8481BB
:100560009581A681B7818093B01A9093B11AA09318
:10057000B21AB093B31A80859185A285B385809312
:10058000B41A9093B51AA093B61AB093B71ADF01B4
:100590001C96CF014996C8EBDAE12D912993A81753
:1005A000B907D9F7818D928D9093C61A8093C51A99
:1005B0008CEA9AE1DF91CF910895FC01818D928DB3
:1005C0000895089581E0809310170895089508957F
:1005D000FC01248135816217730720F480819181A9
:1005E000009729F41092B41684EB96E10895860FD3
:1005F000971F08950895DC01ED91FC910190F08121
:10060000E02D1994DB0114964D915C9115976D9135
:100610007C91DC01ED91FC910280F381E02D199435
:10062000AF92BF92CF92DF92EF92FF920F931F9300
:10063000CF93DF936C017B018B01040F151FEB013E
:100640005E01AE18BF08C017D10759F06991D601F5
:10065000ED91FC910190F081E02DC6011995892B57
:1006600079F7C501DF91CF911F910F91FF90EF9026
:10067000DF90CF90BF90AF900895FC01538D448DD3
:10068000252F30E0842F90E0821B930B541710F03D
:10069000CF96089501970895FC01918D828D98174A
:1006A00061F0A28DAE0FBF2FB11D5D968C91928D22
:1006B0009F5F9F73928F90E008958FEF9FEF089553
:1006C000FC01918D828D981731F0828DE80FF11D1C
:1006D000858D90E008958FEF9FEF0895FC01918D37
:1006E000228D892F90E0805C9F4F821B91098F7330
:1006F0009927089581E699E10E946E0321E0892BF4
:1007000009F420E0822F0895FC01A48DA80FB92FD1
:10071000B11DA35ABF4F2C91848D90E001968F7329
:100720009927848FA689B7892C93A089B1898C9148
:10073000837080648C93938D848D981306C0028897
:10074000F389E02D80818F7D80830895EF92FF9261
:100750000F931F93CF93DF93EC0181E0888F9B8DE4
:100760008C8D98131AC0E889F989808185FF15C09E
:100770009FB7F894EE89FF896083E889F9898081C1
:100780008370806480839FBF81E090E0DF91CF9190
:100790001F910F91FF90EF900895F62E0B8D10E0B2
:1007A0000F5F1F4F0F731127E02E8C8D8E110CC021
:1007B0000FB607FCFACFE889F989808185FFF5CF6C
:1007C000CE010E948403F1CFEB8DEC0FFD2FF11DC4
:1007D000E35AFF4FF0829FB7F8940B8FEA89FB89A9
:1007E00080818062CFCFCF93DF93EC01888D882307
:1007F000B9F0AA89BB89E889F9898C9185FD03C084
:10080000808186FD0DC00FB607FCF7CF8C9185FF68
:10081000F2CF808185FFEDCFCE010E948403E9CF26
:10082000DF91CF91089580E090E0892B29F00E941C
:100830007A0381110E94000080E090E0892B49F04A
:1008400080E090E0892B29F00E94000081110E9435
:10085000000080E090E0892B49F080E090E0892B57
:1008600029F00E94000081110E94000080E090E0C9
:10087000892B49F080E090E0892B29F00E9400004C
:1008800081110C94000008958150823108F05AC003
:10089000E82FF0E08827E05BFB4F8F4F0C94F05778
:1008A00070047404620468046C04A20477047D0478
:1008B000810487048B048F0495049904A2049D0489
:1008C000A304A704809180008F778093800008950F
:1008D000809180008F7DF9CF80918000877FF5CF58
:1008E00084B58F7784BD089584B58F7DFBCF8091CB
:1008F000B0008F778093B00008958091B0008F7D15
:10090000F9CF809190008F77809390000895809127
:1009100090008F7DF9CF80919000877FF5CF8091F7
:10092000A0008F778093A00008958091A0008F7D14
:10093000F9CF8091A000877FF5CF809120018F773C
:10094000809320010895809120018F7DF9CF8091BF
:100950002001877FF5CFCF93DF93282F30E0F90177
:10096000EA50FC4F8491F901E45CFB4FD491F9010A
:10097000E456FB4FC491CC23A1F081110E944404A2
:10098000EC2FF0E0EE0FFF1FE452FC4FA591B49165
:10099000EC91ED2381E090E009F480E0DF91CF91CC
:1009A000089580E090E0FACF1F93CF93DF93282F34
:1009B00030E0F901EA50FC4F8491F901E45CFB4F0F
:1009C000D491F901E456FB4FC491CC23A9F0162F22
:1009D00081110E944404EC2FF0E0EE0FFF1FEE5750
:1009E000FB4FA591B4918FB7F894EC91111108C009
:1009F000D095DE23DC938FBFDF91CF911F910895B7
:100A0000DE2BF8CFCF93DF9390E0FC01E45CFB4F4B
:100A1000249184569B4FFC0184918823D1F090E06F
:100A2000880F991FFC01EE53FC4FA591B491FC0176
:100A3000EE57FB4FC591D49161110EC09FB7F8944A
:100A40008C91E22FE0958E238C932881E223E8831A
:100A50009FBFDF91CF9108958FB7F894EC91E22B6F
:100A6000EC938FBFF6CF1F93CF93DF93182FEB013B
:100A700061E00E940205209739F460E0812FDF9148
:100A8000CF911F910C94D404CF3FD10511F461E0B4
:100A9000F5CFE12FF0E0EA50FC4FE491E150E23174
:100AA00008F0B3C0F0E08827E75AFA4F8F4F0C9454
:100AB000F0576B057305780582058C0505069605CC
:100AC0009E05A605B005BA05C405D305DD050506D6
:100AD000E705F105FB0584B5806884BDC7BDDF91DE
:100AE000CF911F91089584B5806284BDC8BDF7CFB2
:100AF00080918000806880938000D0938900C093AB
:100B00008800EDCF80918000806280938000D09338
:100B10008B00C0938A00E3CF80918000886080932F
:100B20008000D0938D00C0938C00D9CF8091B0000D
:100B300080688093B000C093B300D1CF8091B000A3
:100B400080628093B000C093B400C9CF80919000C0
:100B5000806880939000D0939900C0939800BFCF95
:100B600080919000806280939000D0939B00C0930E
:100B70009A00B5CF80919000886080939000D093C8
:100B80009D00C0939C00ABCF8091A00080688093B3
:100B9000A0008091A0008F7B8093A000D093A9003B
:100BA000C093A8009CCF8091A00080628093A00099
:100BB000D093AB00C093AA0092CF8091A000886030
:100BC0008093A000D093AD00C093AC0088CF8091FB
:100BD0002001806880932001D0932901C0932801CF
:100BE0007ECF80912001806280932001D0932B01E1
:100BF000C0932A0174CF80912001886080932001E6
:100C0000D0932D01C0932C016ACFC038D1050CF0D0
:100C10003ECF33CF3FB7F8948091B0169091B11684
:100C2000A091B216B091B31626B5A89B05C02F3F70
:100C300019F00196A11DB11D3FBFBA2FA92F982F02
:100C40008827BC01CD01620F711D811D911D42E0FD
:100C5000660F771F881F991F4A95D1F708958F92C5
:100C60009F92AF92BF92CF92DF92EF92FF926B0171
:100C70007C010E940A064B015C01C114D104E1040D
:100C8000F104B9F00E940A06681979098A099B09DA
:100C9000683E73408105910580F321E0C21AD108B6
:100CA000E108F10888EE880E83E0981EA11CB11CB3
:100CB000E4CFFF90EF90DF90CF90BF90AF909F90E8
:100CC0008F9008952FB7F8946091AC167091AD167F
:100CD0008091AE169091AF162FBF08950895FC0134
:100CE00020812EBD9B012150310941F051810DB46D
:100CF00007FEFDCF4EB55EBD4193F5CF6150710942
:100D0000860F971F0DB407FEFDCF2EB5FC01208383
:100D10000895E0915C17F0915D17808190915B17C9
:100D2000892B80830895E0915C17F0915D17908185
:100D300080915B17809589238083089590E02091AE
:100D40005E17233339F40C96982F990F990F990F4A
:100D500080E008954896F8CFCF93DF931F92CDB7E8
:100D6000DEB76983DC01ED91FC910280F381E02D17
:100D700041E050E0BE016F5F7F4F19950F90DF910A
:100D8000CF910895CF93DF931F92CDB7DEB76983DC
:100D9000DC01ED91FC910280F381E02D41E050E017
:100DA000BE016F5F7F4F19950F90DF91CF9108952E
:100DB000FC019485FB018485981303C081E0983081
:100DC00008F080E00895CF93DF931F92CDB7DEB790
:100DD0006983DC01ED91FC910280F381E02D41E01B
:100DE00050E0BE016F5F7F4F19950F90DF91CF915B
:100DF0000895EF92FF920F931F93CF93DF938C018F
:100E00007B01D0E0C0E0F701EC0FFD1F6491662389
:100E100039F0C8010E94E306892B11F02196F3CF27
:100E2000CE01DF91CF911F910F91FF90EF90089528
:100E3000FC01848595850895FC0184899589089530
:100E400024EF33E0FC0131832083FB014089518989
:100E500062897389FC014283538364837583089597
:100E6000DC01ED91FC91048CF58DE02D199420911D
:100E70003A16260F3327331F21323105ECF4209127
:100E80008316FC0190E080E0243069F082E0089550
:100E9000A0913A162191AC01465E594EA40FB52F90
:100EA000B11D2C930196861798F380913A16680F1E
:100EB00060933A1680E0089581E0089510928316B9
:100EC00081E08093821610925D1661E084E10E94B9
:100ED000D40461E085E10E94D404E9EBF0E0808174
:100EE0008E7F808380818D7F808388E48093B800AB
:100EF00085E48093BC000895CF93DF9391E09093B5
:100F000019168823B9F0C091B800D091BA00809129
:100F1000BC008A7B8093BC0060E084E10E94D40422
:100F200060E085E10E94D4040E945E07D093BA007D
:100F3000C093B800DF91CF910895E091BC168091E5
:100F4000BB16E81730F4F0E0E750FA4E808190E0ED
:100F500008958FEF9FEF08959091BC168091BB1676
:100F60002FEF3FEF981748F4E92FF0E0E750FA4EE3
:100F7000208130E09F5F9093BC16C9010895809155
:100F8000BB169091BC16891B990B0895CF92DF92E6
:100F9000EF92FF920F931F93CF93DF937C01CB01CE
:100FA0008A0120918916222389F0EB016B01C40E7E
:100FB000D51ECC15DD0569F06991D701ED91FC9145
:100FC0000190F081E02DC7011995F3CF642F0E94A5
:100FD0003707C801DF91CF911F910F91FF90EF90DC
:100FE000DF90CF900895CF93DF931F92CDB7DEB7F8
:100FF0006983209189162223F9F02091B9162032B5
:1010000058F021E030E0FC013383228390E080E05F
:101010000F90DF91CF9108958091BA16E82FF0E0FC
:10102000E657F94E998190838F5F8093BA1680932B
:10103000B91681E090E0ECCF61E0CE0101960E940C
:101040003707F7CFCF92DF92EF92FF920F931F9364
:10105000CF93DF93FC01C48121E020938916C093D4
:10106000AA161092BA161092B9168385682B84E3DB
:101070009AE10E94F307D091B916D13208F092C0DC
:101080000E940A066B017C0180918316811165C064
:1010900082E08093831681E0809382168FEF8093A5
:1010A000811610928016D0937F16AAE8B6E1EFE57C
:1010B000F6E180E0D81385C010925E1680915E162E
:1010C000CC0FC82BC0935E1680915D16813009F05D
:1010D0007CC010925D160E940A066B017C01809113
:1010E0005E168093BB008091851690918616A09124
:1010F0008716B0918816892B8A2B8B2B99F00E942A
:101100000A06009185161091861620918716309157
:1011100088166C197D098E099F090617170728077D
:101120003907E0F18091BC0083FDD9CF85EC809335
:10113000BC000E940A066B017C01809183168230FC
:1011400009F445C0809181168F3F61F1809181162D
:10115000803241F18091811625C080918516909151
:101160008616A0918716B0918816892B8A2B8B2B17
:1011700009F48ACF0E940A060091851610918616FE
:1011800020918716309188166C197D098E099F0968
:10119000061717072807390708F076CF80918416BD
:1011A0000E947C071092BA161092B91610928916F6
:1011B000DF91CF911F910F91FF90EF90DF90CF9033
:1011C00008959D9191938F5F75CF85EEB0CF8091FB
:1011D000851690918616A0918716B0918816892B56
:1011E0008A2B8B2B09F4A9CF0E940A060091851641
:1011F0001091861620918716309188166C197D09FA
:101200008E099F09061717072807390708F095CF99
:10121000C5CF089561E0FC0184810E94D4048091CF
:10122000F31581111092F31508958EBD00000DB4D1
:1012300007FEFDCF8EB50895AF92BF92CF92DF9299
:10124000EF92FF920F931F93CF93DF9300D000D0C4
:101250001F921F92CDB7DEB78C017B016A0180918E
:101260005E178333E1F45801A40EB51EA016B10633
:1012700009F46FC00E94930680EF0E941509812F28
:101280000E941509802F0E9415090F5F1F4FF7015B
:1012900081917F010E9415090E948906E7CF5B01B9
:1012A000A40EB51E8433C1F40E94930619830A83E9
:1012B0008D2D80688B83CC8264E070E0CE01019636
:1012C0000E946F06AE14BF0409F441C0F70181917A
:1012D0007F010E941509F6CF0E9493060F3F11056A
:1012E00009F028F419820A8384E08B830CC017FD6F
:1012F00017C019820A8333E0169507953A95E1F7EE
:10130000007E0C600B8386E0C816D104A0F5F701BF
:10131000DE011496EA15FB0599F081918D93FACFC1
:10132000C80126E0969587952A95E1F7807E198376
:101330000A830115104C10F48461D7CF8C61D5CF8E
:10134000B6016D5F7F4FCE0101960E946F060E942D
:101350008906C60128960FB6F894DEBF0FBECDBF32
:10136000DF91CF911F910F91FF90EF90DF90CF9081
:10137000BF90AF90089563E070E0CE0101960E94A7
:101380006F06F70181917F010E941509AE14BF0419
:10139000C1F7DDCFCF93DF931F92CDB7DEB789833F
:1013A00041E050E0BE016F5F7F4F90E080E00E941F
:1013B0001C090F90DF91CF910895DA01E0915F173A
:1013C000F0E0FE2FEE27E60FF71F90E0982F88271A
:1013D000A901BD018E0F9F1F0C941C09CF93DF93B1
:1013E0001F921F92CDB7DEB779836A8322E030E087
:1013F000AE014F5F5F4F60E170E00E94DD090F902A
:101400000F90DF91CF910895CF93DF931F921F929A
:10141000CDB7DEB779836A8322E030E0AE014F5F5B
:101420005F4F64E070E00E94DD090F900F90DF9144
:10143000CF910895CF93DF931F92CDB7DEB7209160
:101440005F1730E0322F2227260F371F90E0982FAA
:101450008827498341E050E0BE016F5F7F4F820FD4
:10146000931F0E941C090F90DF91CF9108958FEF79
:101470000C9415090F931F93CF93DF93EC010E94F7
:1014800062068B010E94370A8F3F69F00E94620654
:10149000601B710B6C177D07A8F380E0DF91CF9183
:1014A0001F910F91089581E0F9CF8CBD9DBD0895E6
:1014B000FF920F931F93CF93DF93EB01FC01178AE9
:1014C000168A2A81211109C02B81211106C02C8185
:1014D000211103C02D81222301F141155105E9F0AD
:1014E0008A01FC01F08C80E591E00E94550AAE0172
:1014F0004E5F5F4F24E030E06CE070E08F2D0E9483
:10150000DD09B8018F2D0E94EE0981E090E0DF91A6
:10151000CF911F910F91FF90089580E0F7CFCF9367
:10152000DF93EC018091F315811109C081E0809374
:10153000F3158091401A9091411A0E94550A60E07B
:101540008C81DF91CF910C94D4048F929F92AF92B3
:10155000BF92FF920F931F93CF93DF93EC01F62E70
:1015600049015A018E81882389F08F8198859C01D9
:101570002F5F3F4F38872F838230924018F40E94AC
:10158000370AF3CFCE010E940A091E82CE010E94C3
:101590008F0A8CE291E00E943A0A8F2D80640E94AB
:1015A000150908E110E0D501C401002E04C0B6956C
:1015B000A795979587950A94D2F70E941509085028
:1015C0001109083F8FEF180771F785E9FF2021F017
:1015D00028E087E8F2128FEF0E94150910E00E94C0
:1015E000370A8A8787FF04C01F3F11F01F5FF7CFBC
:1015F000DF91CF911F910F91FF90BF90AF909F907F
:101600008F900895AF92BF92CF92DF92EF92FF92A8
:101610000F931F93CF93DF93EC016901C801820FF1
:10162000931F8130924050F58E81882379F0888114
:101630009981AA81BB8184179507A607B70731F462
:101640008F819885C816D90608F042C0488359830F
:101650006A837B838B85833039F089E0440F551F83
:10166000661F771F8A95D1F79A01AB0161E1CE0120
:101670000E94A50A882389F083E08D83CE010E9411
:101680000A0980E0DF91CF911F910F91FF90EF90B9
:10169000DF90CF90BF90AF9008950E9462065B01EB
:1016A0000E94370A8A878F3F69F40E9462066A198E
:1016B0007B096D327140A0F38FE08D83CE010E94D3
:1016C0000A09DCCF8E3F89F418861F8281E08E8361
:1016D0008F8198858C159D0550F40E94370A8F8163
:1016E0009885019698878F83F3CF8DE0E6CF6701C9
:1016F000E00EF11E0E94370AF60181936F01EE158C
:10170000FF05C1F78F819885080F191F18870F8370
:101710008985882319F001151240A0F08E81882355
:1017200089F08F8198859C012F5F3F4F38872F83E9
:101730008230924018F40E94370AF3CFCE010E9403
:101740000A091E8281E09ECFCF92DF92EF92FF9234
:101750000F93CF93DF93EC01690182E141155105AD
:101760006105710599F08B85833039F089E0440F6C
:10177000551F661F771F8A95D1F79A01AB0168E163
:10178000CE010E94A50A882319F084E08D832DC024
:101790008EEF0E94150976018EEFD81AF70181911C
:1017A0007F010E941509EC14FD04C1F78FEF0E9420
:1017B00015098FEF0E9415090E94370A8A878F71D9
:1017C000853071F4011116C0CE010E940A0981E032
:1017D000DF91CF910F91FF90EF90DF90CF90089520
:1017E00081E18D83CE010E940A09CE010E940A097F
:1017F00080E0EECF88E592E00E943A0A811102C0B3
:1018000085E1C4CF20E030E0A9016DE0CE010E9467
:10181000A50A882311F084E1B9CF0E94370A81110B
:10182000FACFD2CF0F934091F5155091F6156091F4
:10183000F7157091F815411551056105710599F07D
:10184000082F21E637E18091591790915A170E948D
:10185000A40B882349F01092F5151092F6151092FA
:10186000F7151092F81581E00F9108950F93CF931B
:10187000C82F8091F415811105C0C1E08C2FCF9144
:101880000F91089540916502509166026091670240
:10189000709168020C2F21E637E1809159179091E1
:1018A0005A170E94A40B811102C0C0E0E7CFCC23DD
:1018B00021F381E00E94120C8823B9F31092F415F1
:1018C000DDCF8F929F92AF92BF92EF92FF920F93D4
:1018D0001F93CF934B015C01C42F809165029091BF
:1018E0006602A0916702B091680288159905AA0561
:1018F000BB0551F181E00E94360C81110BC080E0E4
:10190000CF911F910F91FF90EF90BF90AF909F905C
:101910008F90089581E6E82E87E1F82E00E012E02E
:1019200030E020E0B501A4018091591790915A1739
:101930000E94020B882319F380926502909266023E
:10194000A0926702B09268024091F4154C2B40932C
:10195000F41581E0D5CFCF93DF93EC016E857F85C1
:101960008889998941E00E94610C882351F08A8915
:1019700020E2829FC00111248F59984EDF91CF91B0
:10198000089590E080E0FACF8F929F92AF92BF923D
:10199000CF92DF92EF92FF92CF9322E43AE130931D
:1019A0005A1720935917882309F46DC040E060E06E
:1019B00070E0CB010E94610C81110BC080E0CF91DF
:1019C000FF90EF90DF90CF90BF90AF909F908F905F
:1019D000089580911F198F7789F780912B19909125
:1019E0002C19A0912D19B0912E1984369105A105BD
:1019F000B10520F3C0902719D0902819E09029193B
:101A0000F0902A19C114D104E104F104B9F240E0C4
:101A1000C701B6010E94610C882381F280916C1786
:101A200090916D178115924049F6A0917117AA23E4
:101A300029F260916F17709170176115710509F4A3
:101A4000BDCF20916E17222309F4B8CFA093601A5E
:101A50002093521A90E080E030E0E1E0F0E0C82FFF
:101A6000AF01082E02C0440F551F0A94E2F7241755
:101A7000350769F041E0480F01968930910579F703
:101A800040935B1A9BCFC12CD12C7601C0CF8093A1
:101A90005B1A209177173091781750E040E02115BC
:101AA000310541F4209185173091861740918717B1
:101AB000509188172093531A3093541A4093551A13
:101AC0005093561A46015701860E971EA11CB11C51
:101AD0008092611A9092621AA092631AB092641A6C
:101AE000E0917217F0917317F093671AE093661AFA
:101AF000B0E00E949456DC01CB01880D991DAA1D0F
:101B0000BB1D8093681A9093691AA0936A1AB093C8
:101B10006B1A25E0EE0FFF1F2A95E1F7E150FE4F0B
:101B2000EF2FFF27E6958E0F9F1FA11DB11D8093FC
:101B30005C1A90935D1AA0935E1AB0935F1A80901E
:101B4000741790907517B12CA12C8114910441F455
:101B50008090811790908217A0908317B09084177F
:101B6000C81AD90AEA0AFB0AC80CD91CEA1CFB1CD1
:101B700004C0F694E794D794C794CA95D2F7C0925C
:101B8000571AD092581AE092591AF0925A1A85EFC1
:101B9000C8168FE0D806E104F10428F48CE08093A5
:101BA000651A81E00CCF80E125EFC2162FEFD20637
:101BB000E104F104A0F380918D1790918E17A0910C
:101BC0008F17B09190178093681A9093691AA09319
:101BD0006A1AB0936B1A80E2E2CF4F925F926F92D3
:101BE0007F928F929F92AF92BF92CF92DF92EF92AD
:101BF000FF920F931F93CF93DF93EC014230510577
:101C00006105710590F480E0DF91CF911F910F91F4
:101C1000FF90EF90DF90CF90BF90AF909F908F900C
:101C20007F906F905F904F90089589859A85AB85DE
:101C3000BC850196A11DB11D84179507A607B7079E
:101C400010F3CB88DC88ED88FE888F89803109F01D
:101C500042C0BB27A72F962F852F480159012A0183
:101C60003B01C80ED91EEA1EFB1E809165029091B1
:101C70006602A0916702B0916802C816D906EA060A
:101C8000FB0699F58F898031C1F5B301A201552773
:101C900066277727440F551F4F59584EFA019182F6
:101CA00080828091F41581608093F4158A89823056
:101CB00080F08D819E81AF81B8858C0D9D1DAE1DFC
:101CC000BF1D8093F5159093F615A093F715B0936B
:101CD000F81581E099CFDB01CA01E7E0B695A79539
:101CE00097958795EA95D1F7B8CF40E0C701B6013F
:101CF0000E94610C8111C6CF86CFB301A2014F773C
:101D0000552766277727440F551F440F551F4F59F6
:101D1000584EFA0180829182A282B382C2CF8F9202
:101D20009F92AF92BF92CF92DF92EF92FF920F936A
:101D30001F93CF93DF93FC0181859285A385B485A2
:101D40000196A11DB11D84179507A607B70770F46A
:101D500080E0DF91CF911F910F91FF90EF90DF9086
:101D6000CF90BF90AF909F908F9008958388948874
:101D7000A588B6888789803189F5BB27A72F962F3C
:101D8000852FE9016A017B018F01BC01CD01680D3E
:101D9000791D8A1D9B1D8090650290906602A0901F
:101DA0006702B090680286169706A806B90601F584
:101DB000F8018789803111F5DD24EE24FF24F60136
:101DC000EE0FFF1FEF59F84E80819181B0E0A0E047
:101DD00088839983AA83BB8381E0BBCFDB01CA01DF
:101DE000C7E0B695A79597958795CA95D1F7C9CFBE
:101DF00040E00E94610C8111DBCFAACFE894C7F8C4
:101E0000DD24EE24FF24F601EE0FFF1FEE0FFF1F6F
:101E1000EF59F84E80819181A281B381BF70D8CFF4
:101E20004F925F926F927F92AF92BF92CF92DF926A
:101E3000EF92FF920F931F93CF93DF9300D01F92E7
:101E4000CDB7DEB78C0149835A836B837C835901FC
:101E5000C12CD12C7601412C82E0582E612C712CA2
:101E600049815A816B817C819E012F5F3F4FC80160
:101E70000E948F0E882339F1F8018585A301920114
:101E800004C0220F331F441F551F8A95D2F7DA0171
:101E9000C901C80ED91EEA1EFB1E49815A816B81F9
:101EA0007C818789803111F188EF9FEFAFEFBFE030
:101EB000481759076A077B0798F2F501C082D1825B
:101EC000E282F38281E00F900F900F900F90DF91EC
:101ED000CF911F910F91FF90EF90DF90CF90BF9027
:101EE000AF907F906F905F904F90089588EF9FEF35
:101EF000A0E0B0E0DDCFCF93DF93FC01258122236A
:101F000021F080E0DF91CF910895EC018091651A76
:101F1000803159F582E08583178A108E118E128EDA
:101F20008091661A9091671AB0E0A0E025E0880FD2
:101F3000991FAA1FBB1F2A95D1F7838B948BA58B62
:101F4000B68B8EE49AE19C8F8B8F81E08C831E820E
:101F50001F82188619861A861B861C861D861E8679
:101F60001F86188A198A1A8ACDCF803251F683E0EB
:101F700085834091681A5091691A60916A1A70912C
:101F80006B1A478B508F618F728F9F012D5E3F4F71
:101F90008EE49AE10E94100F8111D3CFB2CF8F92BD
:101FA0009F92AF92BF92CF92DF92EF92FF920F93E8
:101FB0001F93CF93DF93EC018D8181110EC080E0E0
:101FC000DF91CF911F910F91FF90EF90DF90CF9015
:101FD000BF90AF909F908F9008950B891C892D8999
:101FE0003E89041715072607370748F34A015B01A6
:101FF000823031F48A869B86AC86BD8681E0E0CF54
:1020000081149104A104B10449F41E821F82188630
:1020100019861A861B861C861D86F0CF0A851B85AD
:102020002C853D85EB8DFC8D858590E00996B90169
:10203000A8014150510961097109082E04C0769523
:102040006795579547950A94D2F775016401E1E0C9
:10205000CE1AD108E108F10804C0F694E794D794A9
:10206000C7948A95D2F7C416D506E606F70620F07F
:10207000012B022B032B11F58F89988DA98DBA8D19
:102080008E839F83A887B9878E010A5F1F4FC11473
:10209000D104E104F10409F4ADCF4E815F8168857C
:1020A000798598018B8D9C8D0E948F0E91E0C91AC5
:1020B000D108E108F1088111EACF81CFC41AD50A0D
:1020C000E60AF70AE1CF3F924F925F926F927F92BA
:1020D0008F929F92AF92BF92CF92DF92EF92FF9238
:1020E0000F931F93CF93DF93CDB7DEB72C970FB627
:1020F000F894DEBF0FBECDBF5C01DC015B968D9016
:102100009C905C9716964D905D906D907C90199781
:10211000411451046104710409F468C0BFEF4B1A03
:102120005B0A6B0A7B0A312CF40181859285A385B9
:10213000B4859C01AD012F5F3F4F4F4F5F4F298703
:102140003A874B875C87730162011D821E821F8262
:102150001886F40181859285A385B4852D813E8101
:102160004F815885281739074A075B0708F056C082
:1021700089859A85AB85BC858C159D05AE05BF0507
:1021800050F482E0C82ED12CE12CF12C92E0492EA3
:10219000512C612C712C9E012F5F3F4FB701A6017E
:1021A000C4010E948F0E8823C9F189819A81AB8175
:1021B000BC81892B8A2B8B2B09F1260137019FEFDC
:1021C000491A590A690A790A2D813E814F81588539
:1021D0002F5F3F4F4F4F5F4F2D833E834F83588775
:1021E0003FEFC31AD30AE30AF30AB3CFF4014080E6
:1021F0005180628073803324339496CFC414D50405
:10220000E604F70409F70FEF1FEF2FEF3FE0B701E8
:10221000A601C4010E94ED0D811119C080E02C9629
:102220000FB6F894DEBF0FBECDBFDF91CF911F91E7
:102230000F91FF90EF90DF90CF90BF90AF909F9065
:102240008F907F906F905F904F903F900895D50151
:1022500016964D915D916D917C911997411551059F
:102260006105710539F097018601C4010E94ED0DE9
:102270008823A1F2D5011696CD92DD92ED92FC92C3
:102280001997332051F0D701C6010196A11DB11D48
:10229000F40180839183A283B383F5018789908DB4
:1022A000A18DB28D892B8A2B8B2B39F48481C78A1F
:1022B000D08EE18EF28E80688483F5018481806205
:1022C000848381E0ACCF2F923F924F925F926F92C6
:1022D0007F928F929F92AF92BF92CF92DF92EF92B6
:1022E000FF920F931F93CF93DF93EC015B012A01C1
:1022F0008D81811115C08FEF9FEFDF91CF911F91DD
:102300000F91FF90EF90DF90CF90BF90AF909F9094
:102310008F907F906F905F904F903F902F90089597
:102320008C8180FFE8CF0B891C892D893E894A85E5
:102330005B856C857D85C201B0E0A0E06801790114
:10234000C41AD50AE60AF70AC816D906EA06FB0631
:1023500018F42801441A550A42011E0126E0220EF3
:10236000311C8114910409F4B3C04A855B856C85E6
:102370007D856A0181E0D8228B8D9C8D8A019B012D
:10238000E9E03695279517950795EA95D1F7ED8100
:10239000E230E1F5FC01628D738D848D958D600FC7
:1023A000711F821F931F612C22E0722E6C187D0812
:1023B0008614970408F434012C8126FD04C06114AE
:1023C000F2E07F0671F4009165021091660220919F
:1023D000670230916802061717072807390709F0C6
:1023E00053C040E00E94610C882309F484CFC601E9
:1023F0008F59984ED5019C01260D371DFC012E17D3
:102400003F0709F460C041914D93F9CFFC017480FE
:102410007A947022C114D10471F471100CC0452B50
:10242000462B472B39F58F89988DA98DBA8D8E83D0
:102430009F83A887B987EB8DFC8D6E817F8188850E
:1024400099856250710981099109258504C0660F3B
:10245000771F881F991F2A95D2F70685178520892F
:102460003189600F711F821F931F670D711D811DC0
:10247000911D99CF4E815F816885798591010E9478
:102480008F0E8111D8CF37CF750183019601AB0133
:10249000BC018091591790915A170E94020B882312
:1024A00009F429CFA60CB71C8A859B85AC85BD8510
:1024B000860D971DA11DB11D8A879B87AC87BD879F
:1024C000861897084ECF281B390BA20EB31EECCFEF
:1024D000C20113CF1F93CF93DF93FC0125812223E9
:1024E00071F1162FEC01848187FF1EC0CF010E947D
:1024F000AB0CFC01892B19F18D81823040F48B8962
:102500009C89AD89BE89848F958FA68FB78F8F895F
:10251000988D938F828F8F89988DA98DBA8DB58B69
:10252000A48B8C818F778C83111103C08C818F7E5B
:102530008C83812FDF91CF911F910C94360C80E01A
:10254000DF91CF911F910895FF920F931F93CF9327
:10255000DF93EC018D81813041F090E080E0DF91EC
:10256000CF911F910F91FF9008958C8181FFF5CF3E
:1025700082FD1BC00091591710915A17C8010E9483
:102580008F0A0E94370AF82EC8010E940A098FEFAD
:10259000F812E3CF8C8185FF1BC060E0CE010E9462
:1025A0006A128C818F7D8C83D8CF4B895C896D8931
:1025B0007E898A859B85AC85BD8584179507A6078E
:1025C000B707C1F2CE010E94CF0F8111D3CFC5CF83
:1025D0004091F5155091F6156091F7157091F81529
:1025E000452B462B472B21F080E00E94120CB5CFE3
:1025F00080618C832A853B85317080E092E0821B6C
:10260000930BADCFCF93DF93EC0161E00E946A1290
:10261000882311F01D8281E0DF91CF9108952F92E0
:102620003F924F925F926F927F928F929F92AF9262
:10263000BF92CF92DF92EF92FF920F931F93CF93AF
:10264000DF9300D01F921F92CDB7DEB77C015B01F4
:10265000342E5D83DC0115968C911597813009F03D
:10266000CEC014962C9021FECAC022FCB4C0C32C4C
:10267000DD8022947FE027222094B22DB1702B2E92
:10268000D7011A964D915D916D917C911D97C11462
:10269000D10409F428C15B968D919C915C97FC0153
:1026A00074807A948A019B0169E036952795179585
:1026B00007956A95D1F770228A011170711020C0B8
:1026C00001151105E9F416964D915D916D917C917E
:1026D0001997411551056105710509F099C0579683
:1026E0008D919D910D90BC91A02D0097A105B105F4
:1026F00009F0B0C0C7010E946310882309F47FC0AD
:1027000080E092E0801B910B46018C159D0508F43A
:102710004C01D7015B964D915C915C9716968D911B
:102720009D910D90BC91A02D0297A109B109FA01CC
:10273000258504C0880F991FAA1FBB1F2A95D2F7B1
:102740004685578560897189840F951FA61FB71F1D
:102750009C01AD01270D311D411D511D29013A017B
:10276000811432E0930609F07BC08091650290915C
:102770006602A0916702B091680284159505A605CE
:10278000B70559F48FEF9FEFDC01809365029093BA
:102790006602A0936702B0936802022D9501B3010F
:1027A000A2018091591790915A170E94A40B882377
:1027B00031F19EEFB91AC818D908F70182859385BF
:1027C000A485B585880D991DA11DB11D82879387AC
:1027D000A487B58755CFF7014389548965897689E0
:1027E00082859385A485B585481759076A077B07B5
:1027F00009F43DCFC7010E94CF0F811138CF81E08E
:1028000090E0D70113969C938E93129780E007C0B7
:102810009E012F5F3F4F0E948F0E811102C090E0FA
:1028200079C089819A81AB81BC81F701238D348D78
:10283000F901278948EF5FEF60E070E0203121F077
:1028400048EF5FEF6FEF7FE084179507A607B707A4
:1028500008F050CFF70186839783A087B18750CFC8
:102860000115110599F5D7011A964D915D916D915C
:102870007C911D9753968D919D910D90BC91A02DAB
:10288000481759076A077B0708F181E00E94360C58
:10289000882309F4B4CF4092650250926602609298
:1028A0006702709268028091F41581608093F4153C
:1028B000C8018F59984ED5019C01280D391DFC0186
:1028C0002E173F0759F04D914193FACF41E0C301D4
:1028D000B2010E94610C8111EBCF91CF281B390B03
:1028E000A20EB31E68CFF70183899489A589B689A2
:1028F00084179507A607B70738F48481438B548B58
:10290000658B768B80688483F701848183FD1AC090
:10291000832D9D810F900F900F900F900F90DF915E
:10292000CF911F910F91FF90EF90DF90CF90BF90CC
:10293000AF909F908F907F906F905F904F903F905F
:102940002F90089561E0C7010E946A12882309F45C
:1029500056CFDECFCF93DF931F92CDB7DEB769831B
:1029600041E050E0BE016F5F7F4F0E940F130F9058
:10297000DF91CF910895FC01DB0112968D919C911E
:102980001397938382838CE993E0918380831496D9
:102990008C911497848315968C9115978583169640
:1029A0004D915D916D917C91199746835783608716
:1029B00071871A964D915D916D917C911D9742871B
:1029C0005387648775871E964D915D916D917C91BB
:1029D000519746875787608B718B52968C9152978F
:1029E000828B53964D915D916D917C915697438B5F
:1029F000548B658B768B57964D915D916D917C9143
:102A00005A97478B508F618F728F5B968D919C91F7
:102A1000948F838F0895DC015996ED91FC91309746
:102A200021F081E09581911101C080E00895FC01C1
:102A3000818D928D009719F061E00C946A120895CF
:102A4000DC015996ED91FC913097B9F08389948916
:102A5000A589B6894285538564857585841B950B48
:102A6000A60BB70B811520E89207A105B10538F038
:102A70008FEF9FE7A0E0B0E0089590E080E0089538
:102A8000DC0159968D919C91009739F0DC01ED9114
:102A9000FC910480F581E02D199490E080E0089588
:102AA000CF93DF93EC01E98DFA8D309749F481E003
:102AB00090E09B838A8390E080E0DF91CF9108953E
:102AC00013821282898D9A8D0E940F13E98DFA8DDF
:102AD00022813381232B59F7F0CFCF93DF931F92BD
:102AE000CDB7DEB76983DC01ED91FC910280F38103
:102AF000E02D41E050E0BE016F5F7F4F19950F90D0
:102B0000DF91CF910895CF93DF931F92CDB7DEB7BA
:102B100041E050E0BE016F5F7F4F0E94631101975B
:102B200031F4898190E00F90DF91CF9108958FEF7C
:102B30009FEFF9CFFC01818D928D009711F00C94DD
:102B400083158FEF9FEF08950F931F93CF93DF931C
:102B5000EC01898D9A8D10E000E0009799F00E94B9
:102B600083158C010F3F100769F0898D9A8DFC0148
:102B70004285538564857585415051096109710904
:102B80000E94CF0FC801DF91CF911F910F9108953F
:102B9000CF93CFB7F8948091F215811127C0E1ED62
:102BA000F4E08491E1E7F4E09491E82FF0E0EE0F97
:102BB000FF1FEE53FC4FA591B491EC91E92321F452
:102BC00061E085E30E94D40461E085E30E94020590
:102BD0008CB580618CBD8CB580648CBD61E084E374
:102BE0000E94020561E083E30E9402058091F215D4
:102BF0008F5F8093F215CFBFCF910895CF93DF936E
:102C0000CCE3D3E08881229660E00E94D40483E084
:102C1000CC34D807B9F7CCE4D3E08881229670E0B1
:102C200060E00E94330583E0C036D807B1F760E06A
:102C30008FE10E94D40460E084E2DF91CF910C9494
:102C4000D404CF93DF938AE10E94AB04892BE9F48B
:102C500088E10E94AB04892BD9F486E10E94AB0481
:102C6000892BC9F48CE10E94AB04892BB9F48EE165
:102C70000E94AB04892B29F060E070E0CB010E9438
:102C80002F06CE01DF91CF910895D0E0C0E0F9CFBB
:102C9000C1E0D0E0F6CFC2E0D0E0F3CFC3E0D0E0B7
:102CA000F0CFFC01DB0112968D919C9113979383D9
:102CB000828314964D915D916D917C911797448319
:102CC00055836683778318964D915D916D917C91C4
:102CD0001B97408751876287738788EA93E09183C7
:102CE00080831C968C911C9784871D968D919C9156
:102CF000968785870895FC01768765870895DC01AE
:102D0000ED91FC91068CF78DE02D199591E08927C6
:102D10000895862F089581E08627089521E0FC011B
:102D20008485883008F020E0822F089590E080E0CC
:102D300008958F929F92AF92BF92CF92DF92EF92BF
:102D4000FF920F931F93CF93DF9300D01F92CDB7C5
:102D5000DEB7FC018581813091F080E00F900F900B
:102D60000F900F90DF91CF911F910F91FF90EF90F7
:102D7000DF90CF90BF90AF909F908F900895848107
:102D800081FFEBCF83899489A589B689892B8A2B0A
:102D90008B2B09F45FC07F0140E050E0BA01CF0106
:102DA0000E94CF0F8823C9F2F701C38CD48C878887
:102DB000908CA18CB28C82E090E0A0E0B0E0F601B3
:102DC00080839183A283B3839E012F5F3F4FB50120
:102DD000A401C6010E948F0E882309F4BECF00E033
:102DE00010E09801B501A401C6010E94ED0D8823F1
:102DF00009F4B3CF89809A80AB80BC80F6018789C3
:102E0000803119F188EF9FEFAFEFBFE08816990688
:102E1000AA06BB06C8F2F701178A108E118E128E11
:102E2000138A148A158A168A84818068848361E0F3
:102E3000C7010E946A12882309F48FCF40E050E056
:102E4000BA01C7010E94CF0F89CF88EF9FEFA0E0A2
:102E5000B0E0DCCF81E082CFCF92DF92EF92FF92A1
:102E60001F93CF93DF93EC0180E2689FF001112460
:102E7000EF59F84E9385917161F0842F827449F077
:102E800080E0DF91CF911F91FF90EF90DF90CF9086
:102E90000895142F6A8B8091650290916602A0912B
:102EA0006702B09168028E879F87A88BB98BC48810
:102EB000D588F12CE12C7601DD24CC24CF8AD88E64
:102EC000E98EFA8E828D938DB0E0A0E0AC01BD0159
:102ED0004C295D296E297F294F8B588F698F7A8FF6
:102EE00083858871B1F4848D958DA68DB78D8B8B7C
:102EF0009C8BAD8BBE8B81E08D831F701C831E82EB
:102F00001F82188619861A861B861C861D8681E0FC
:102F1000B8CF803109F0B4CF9E012D5E3F4F8B8D2D
:102F20009C8D0E94100F882309F4AACF84E0E4CF7F
:102F30000F931F93CF938C01C62F0E9422086C2FF2
:102F40006460C8010E9422086C2F6B7FC8010E9438
:102F5000220883EC90E00197F1F7CF911F910F9138
:102F600008950F931F93CF93DF938C01D62FC42F17
:102F7000607F642B0E94981780E1D89FB0011124D4
:102F80006C2BC801DF91CF911F910F910C94981772
:102F9000CF93DF9300D000D01F921F92CDB7DEB742
:102FA00098E0E0E9F2E0DE01119601900D929A9529
:102FB000E1F79091CF1A961710F46FEF690F262F53
:102FC00030E0220F331F41E050E04C0F5D1F240F13
:102FD000351FF9016081680F606840E087EC9AE175
:102FE00028960FB6F894DEBF0FBECDBFDF91CF910C
:102FF0000C94B11740E061E087EC9AE10E94B117B0
:103000008BE39FE10197F1F7089541E00E94B1172A
:1030100081E090E00895CF93DF932091AA1A309138
:10302000AB1A232B89F0FC01C091A61AD091A71AE4
:1030300060817181CE010E942C59009729F08C1B70
:103040009D0BDF91CF9108958FEF9FEFFACF0E94F4
:10305000E058FB0101900020E9F73197AF01461BD2
:10306000570BDC01ED91FC910280F381E02D199466
:103070008F929F92AF92BF92EF92FF920F931F9306
:10308000CF93DF93CDB7DEB7A1970FB6F894DEBF2D
:103090000FBECDBF7C01FA01CB0119A2223008F48A
:1030A0002AE08E010F5D1F4F822E912CB12CA12C96
:1030B000BF01A50194010E94A756F901CA016A3017
:1030C0000CF5605DD8016E938D01232B242B252BED
:1030D00079F790E080E0109721F0BD01C7010E94D0
:1030E0002918A1960FB6F894DEBF0FBECDBFDF91B1
:1030F000CF911F910F91FF90EF90BF90AF909F9055
:103100008F900895695CDECFCF92DF92EF92FF92AD
:103110000F931F93CF93DF936B01770FEE08FF0898
:10312000F7FE1BC0EC016DE20E94FB028C014427FC
:103130005527BA014C195D096E097F092AE0CE01B5
:103140000E943818800F911FDF91CF911F910F912E
:10315000FF90EF90DF90CF9008952AE0B701A6018D
:10316000DF91CF911F910F91FF90EF90DF90CF9063
:103170000C9438188F929F92AF92BF92CF92DF92A9
:10318000EF92FF920F931F93CF93DF937C018B01FC
:103190006C0182E0C80ED11C4701E5E08E0E911C47
:1031A000D0E0C0E0F60141916F0150E070E060E0D6
:1031B0002AE0C8010E9438185C016EE2C8010E9432
:1031C000FB028A0D9B1DC80FD91FC814D90451F7E3
:1031D000F701458150E070E060E02AE0C8010E94FC
:1031E00038188C0F9D1FDF91CF911F910F91FF9089
:1031F000EF90DF90CF90BF90AF909F908F90089509
:1032000066E074E00C942918CF93DF93BC0181E64B
:1032100099E10E940203EC0181E699E10E94001904
:103220008C0F9D1FDF91CF910895CF93DF93BC0149
:1032300081E699E10E948418EC0181E699E10E94FF
:1032400000198C0F9D1FDF91CF910895CF93DF93CD
:10325000AB01BC012AE081E699E10E943818EC013B
:1032600081E699E10E9400198C0F9D1FDF91CF919B
:1032700008950F931F93CF93DF93EC010E942918B9
:103280008C01CE010E940019800F911FDF91CF9118
:103290001F910F9108950C942918CF93DF931F92DB
:1032A0001F92CDB7DEB769E074E081E699E10E9434
:1032B0004B192091DF1A3091E01ACE0101962115A9
:1032C000310569F4855E9A419A83898389819A815F
:1032D0000E9415190F900F90DF91CF910895821BD6
:1032E000930BE091E11AF091E21A30E020E0309780
:1032F00051F02E5F3F4F40815181240F351F0280D6
:10330000F381E02DF4CF820F931FDECF8091F5166D
:1033100063E0882349F080E00E94C81768E174E008
:1033200087EC9AE10C944B1980E00E94C81760E288
:1033300074E0F6CF4F925F926F927F928F929F923E
:10334000AF92BF92CF92DF92EF92FF920E948619C6
:103350000E9462064B015C0161E084E20E94D40499
:103360000E946206681979098A099B0960367A4EBB
:103370008105910528F486E20E94AB04019781F350
:103380000E9462066B017C010E9462062B013C01D7
:10339000481859086A087B0860E084E20E94D40457
:1033A00080E648168AEE58066104710400F162E076
:1033B00080E00E94C81768E274E087EC9AE10E94FE
:1033C0004B1962E080E00E94C8176DE374E087EC5F
:1033D0009AE1FF90EF90DF90CF90BF90AF909F90D9
:1033E0008F907F906F905F904F900C944B19C818FE
:1033F000D908EA08FB0862E080E00E94C81769E487
:1034000074E087EC9AE10E944B1962E089E00E9427
:10341000C8172AE0B701A601F7FE0DC06DE287ECE0
:103420009AE10E94FB0244275527BA014C195D0915
:103430006E097F092AE087EC9AE10E94381860EF54
:1034400074E0C5CF0E94FA176EE574E087EC9AE14C
:103450000E944B198091DD1660E0882349F081E1DC
:103460000E94C81769E674E087EC9AE10C944B1946
:1034700082E10E94C8176DE674E0F6CFCF93DF9328
:10348000EC01662341F00E94FA1760E774E087ECD4
:103490009AE10E944B1961E080E00E94C817BE01CA
:1034A00087EC9AE10E948418C83ED34044F46BE351
:1034B00074E087EC9AE1DF91CF910C944B19DF9186
:1034C000CF910895CF93DF93EC010E94FA1763E840
:1034D00074E087EC9AE10E944B1961E080E00E9461
:1034E000C817BE0187EC9AE1DF91CF910C94841844
:1034F000CF93DF93EC010E94FA1766EC74E087EC3F
:103500009AE10E944B19209751F460E083E10E94F8
:10351000C81762E974E087EC9AE10E944B1961E0F8
:1035200080E00E94C8176BE075E087EC9AE10E948A
:103530004B19C130D10551F461E083E10E94C817F5
:1035400062E974E087EC9AE10E944B1962E080E046
:103550000E94C81768E175E087EC9AE10E944B1958
:10356000C230D10551F462E083E10E94C81762E9DC
:1035700074E087EC9AE10E944B1963E080E00E94BE
:10358000C8176CE375E087EC9AE10E944B1923970A
:1035900061F463E083E10E94C81762E974E087EC9C
:1035A0009AE1DF91CF910C944B19DF91CF9108955F
:1035B000CF93DF93EC010E94FA1764E974E087EC83
:1035C0009AE10E944B19209751F460E083E10E9438
:1035D000C81762E974E087EC9AE10E944B19809168
:1035E0000E1790910F17892B09F046C061E080E01B
:1035F0000E94C81760EA74E087EC9AE10E944B19B8
:10360000C130D10551F461E083E10E94C81762E93D
:1036100074E087EC9AE10E944B1962E080E00E941E
:10362000C81760E774E087EC9AE10E944B19C2303A
:10363000D10551F462E083E10E94C81762E974E0A9
:1036400087EC9AE10E944B1963E080E00E94C81762
:103650006FEA74E087EC9AE10E944B19239761F4BA
:1036600063E083E10E94C81762E974E087EC9AE1A5
:10367000DF91CF910C944B19DF91CF9108958091F8
:103680000E1790910F178130910509F480C01CF43A
:10369000892B49F008958230910509F47DC0039784
:1036A00009F48EC008950E94FA1769EB74E087EC64
:1036B0009AE10E944B1961E080E00E94C8176EEC0D
:1036C00074E087EC9AE10E944B198091D316909197
:1036D000D4160A9734F46BE374E087EC9AE10E9405
:1036E0004B196091D3167091D41687EC9AE10E9421
:1036F000841862E080E00E94C81761EE74E087ECF5
:103700009AE10E944B198091790290917A02A091DE
:103710007B02B0917C02883E9340A105B10530F454
:103720006BE374E087EC9AE10E944B1940917902B7
:1037300050917A0260917B0270917C022AE087ECC2
:103740009AE10E9438186FEE74E087EC9AE10E94CB
:103750004B1963E080E00E94C81763EF74E087ECC8
:103760009AE10E944B198091DD1663E0882349F0AD
:1037700081E10E94C81769E674E087EC9AE10C9435
:103780004B1982E10E94C81762E075E0F6CF0E94F3
:10379000FA1765E075E0F1CF0E94FA1762E175E073
:1037A00087EC9AE10E944B1961E080E00E94C81703
:1037B00067E275E087EC9AE10E944B190C94861938
:1037C0000E94FA1766E375E0EBCFFC0180819181DE
:1037D000009711F00C94205360E070E0CB01089545
:1037E0000F931F93CF93DF938C01EB01FC0180813A
:1037F00091810097E1F06881798161157105A9F0E7
:10380000428153812C813D814217530770F00E9401
:1038100016598C819D81F801958384831D821C82B9
:10382000DF91CF911F910F9108950E94ED4F8881F4
:103830009981F801918380838A819B81938382831C
:103840008C819D8195838483198218821B821A82C0
:10385000E5CFCF93DF93EC0188819981009711F038
:103860000E94ED4F198218821D821C821B821A82CF
:10387000DF91CF910895FC0180819181009711F033
:103880000C94ED4F0895CF93DF93EC01898D9A8DC1
:10389000009741F00E940213898D9A8D0E94ED4F8E
:1038A0001A8E198EDF91CF9108950F931F93CF93A6
:1038B000DF93EC0188819981009759F02A813B813F
:1038C0002617370730F081E0DF91CF911F910F91DC
:1038D00008958B016F5F7F4F0E94FF57009759F04B
:1038E000998388831B830A832C813D81232B59F77D
:1038F000FC011082E8CF80E0E7CFEF92FF920F93B8
:103900001F93CF93DF93FB0101900020E9F73197DC
:10391000E61BF70BE1F07B018C01DC011496CD91E5
:10392000DC91CE0FDF1FBE010E94551C882381F061
:10393000F8012081318184819581B701820F931F25
:103940000E941659D8011596DC93CE93149781E006
:10395000DF91CF911F910F91FF90EF900895EF921B
:10396000FF920F931F93CF93DF931F921F92CDB7B8
:10397000DEB78C0169831A82FC01E480F580FFEFD9
:10398000EF1AFF0AB7010E94551C882381F0F80145
:103990002081318184819581BE016F5F7F4F820FCD
:1039A000931F0E941659F801F582E48281E00F907E
:1039B0000F90DF91CF911F910F91FF90EF9008959D
:1039C000EF92FF920F931F93CF93DF93EC017B0154
:1039D0008A01BA010E94551C81110BC0CE010E94C0
:1039E000291CCE01DF91CF911F910F91FF90EF9095
:1039F00008951D830C83B701888199810E9416590F
:103A0000F0CFFB0101900020E9F73197AF01461B91
:103A1000570B0C94E01C0F931F93CF93DF93CDB7FC
:103A2000DEB762970FB6F894DEBF0FBECDBF8C0134
:103A3000CB01F80111821082138212821582148246
:103A40004AE0BE016F5F7F4F0E944753BE016F5F28
:103A50007F4FC8010E94011D62960FB6F894DEBF29
:103A60000FBECDBFDF91CF911F910F910895FC0143
:103A7000118210821382128215821482FB0101903E
:103A80000020E9F73197AF01461B570B0C94E01C5F
:103A9000CF92DF92EF92FF920F931F93CF93DF931A
:103AA0006C017B018A014617570720F48F2D7A019C
:103AB000062F182F68E074E0C6010E94371DC091E0
:103AC000AA1AD091AB1AEC16FD06F8F40C171D07D4
:103AD00008F4E801E091A61AF091A71AEC0FFD1F77
:103AE000108110826091A61A7091A71A6E0D7F1D29
:103AF000C6016115710599F00E94011D8091A61AF9
:103B00009091A71AC80FD91F1883C601DF91CF91D2
:103B10001F910F91FF90EF90DF90CF9008950E943A
:103B2000291CECCFAF92BF92CF92DF92EF92FF921F
:103B30000F931F93CF93DF9300D01F92CDB7DEB7C3
:103B40008C016B017A0180915E178333E9F45B018C
:103B50006801C40ED51EC016D106A9F10E949306B5
:103B60008FE00E941509812F0E941509802F0E9465
:103B700015090F5F1F4F80E00E941509F501819321
:103B80005F010E948906E7CF843369F50E9493069E
:103B900019830A838F2D8F778B83EC8264E070E02A
:103BA000CE0101960E946F06A70170E060E0C60199
:103BB0000E94FB58E114F10421F0B701C6010E94F4
:103BC0006F060E948906C7010F900F900F900F900B
:103BD000DF91CF911F910F91FF90EF90DF90CF90E9
:103BE000BF90AF9008950E9493060F3F110509F012
:103BF00030F419820A831B8263E070E0D1CF17FD95
:103C00000BC019820A8333E0169507953A95E1F7C0
:103C1000007E08600B83F0CFC80126E0969587955B
:103C20002A95E1F7807E19830A830115104C18F458
:103C300080618B83E1CF8861FCCFCF93DF931F92AC
:103C4000CDB7DEB720915F1730E0322F2227260F45
:103C5000371F90E0982F882741E050E0BE016F5F4A
:103C60007F4F820F931F0E94921D89810F90DF91D9
:103C7000CF910895CF93C82F462F61E070E00E9446
:103C80001A0A61E070E08C2F0E941D1E8111F9CF8D
:103C9000CF910895CF93C82F80E591E00E94550AF7
:103CA00068E070E08C2FCF910C943A1ECF93C82F10
:103CB00080E591E00E94550A60E170E08C2FCF9181
:103CC0000C943A1ECF93DF93EC01888D883020F45A
:103CD0000E94561E88E0888FDF91CF91089563E09F
:103CE00070E00C941D1ECF93C82F80E591E00E94D8
:103CF000550A8C2FCF910C946F1EEF92FF920F9369
:103D00001F93CF93DF937C0180915E17D4E08333C0
:103D100009F0D8E009E417E1C0E0F8012191319100
:103D20008F01F701848195812817390729F0CF5F2A
:103D3000DC13F3CF80E006C08C2F0E94731E843109
:103D4000B1F781E0DF91CF911F910F91FF90EF903C
:103D50000895CF93DF93EC018C858830D0F40E94D6
:103D6000731E843189F0882379F0883169F021E06D
:103D70008C3159F4E881F9810084F185E02DCE0180
:103D8000199521E0892B09F420E0822FDF91CF9152
:103D9000089580E0FBCFCF92DF92EF92FF92CF9316
:103DA000DF93EC018C85883068F40E944A1E0E94E3
:103DB00062066B017C018C850E94731E811109C013
:103DC00088E08C87DF91CF91FF90EF90DF90CF90CC
:103DD000089561E070E080E090E00E942F060E946C
:103DE0006206AB01BC014C195D096E097F098D8526
:103DF0009E85B0E0A0E0481759076A077B07D8F214
:103E00008C850E94561EDCCFCF93FC01C08D80E5CF
:103E100091E00E94550A60E270E08C2F0E943A1EE9
:103E200062E070E08C2F0E941D1E84FD16C062E0CF
:103E300070E08C2F0E941D1E83FF0AC048E162E0E3
:103E400070E08C2F0E941A0A80E090E0CF910895D4
:103E500080E591E00E94550AE3CF40E162E070E026
:103E60008C2F0E941A0A81E0F0CFCF93DF931F922C
:103E7000CDB7DEB741E050E0BE016F5F7F4F90E00D
:103E800080E00E94921D89810F90DF91CF9108956B
:103E9000CF93DF93C4E1D0E00E94351F882361F007
:103EA00061E070E080E090E00E942F062197A1F78A
:103EB00080E0DF91CF91089581E0FBCFCF92DF9238
:103EC000EF92FF921F93CF93DF93CDB7DEB7C45429
:103ED000D1090FB6F894DEBF0FBECDBFFC01428101
:103EE00053816481758123964CAF5DAF6EAF7FAF18
:103EF000239781E023968FAF23972396CCACDDAC3C
:103F0000EEACFFAC2397CBAADCAAEDAAFEAA4DA784
:103F10005EA76FA778AB88ABCDA4DEA4EFA4F8A80A
:103F2000CFA2D8A6E9A6FAA68EABCBA8DCA8EDA8AE
:103F3000FEA8C9A2DAA2EBA2FCA224EF33E03C8BDC
:103F40002B8B9FEF9D8B9E8B9F8B188E3E872D8793
:103F50008AA7CFA0D8A4E9A4FAA4CF86D88AE98AF0
:103F6000FA8A8CA389A19AA1ABA1BCA189879A875F
:103F7000AB87BC873A8329834B835C836D837E83C5
:103F80008091601781116CC060E372E080E090E086
:103F90000E942F060E94C815E6EAF4E0E491F0E0E2
:103FA000EE0FFF1FEE57FB4F8591949190935D1795
:103FB00080935C17E6E4F4E0E491E0935B1761E042
:103FC0008AE00E9402050E94890680E591E00E9435
:103FD000550A84E380935E1780E80E94CA090E9414
:103FE000481F882309F472C088E00E94CA090E9411
:103FF000351F883009F06AC080E10E94CA090E941A
:10400000351F803109F062C080E00E94CA090E9419
:10401000351F182F81115AC041E050E0BE016D5B81
:104020007F4F8FE190E00E94921D24968FAD2497E0
:10403000833009F04BC080E480935F1742E06EE16B
:1040400070E0812F0E941A0A42E06FE170E0812F38
:104050000E941A0A1F5F183089F781E08093601769
:1040600080E591E00E94550A46E050E060E872E089
:1040700089E090E00E941C0944E050E0BE016D5FC1
:104080007F4F8FE090E00E941C0944E050E0BE01A9
:10409000615F7F4F81E090E00E941C0944E050E0A6
:1040A000BE016B5E7F4F85E090E00E941C0981E0BD
:1040B0008C8789859A85AB85BC8580931E1A9093E1
:1040C0001F1AA093201AB093211A6FC087E3809320
:1040D0005E1780E80E94CA090E94481F882339F1B0
:1040E00088E00E94CA090E94351F883001F580E1EE
:1040F0000E94CA090E94351F182F8031C1F480E048
:104100000E94CA090E94351F811111C041E050E090
:10411000BE016D5B7F4F89E390E00E94921D249663
:104120008FAD2497843019F410935F1796CF83E3F3
:1041300080935E1780E80E94CA090E94481F882366
:1041400091F180E10E94CA090E94351F803159F522
:1041500082E10E94CA090E94351F823121F580E068
:104160000E94CA090E94351F81111DC084E08093FE
:104170005F1715E525961FAF259741E050E0BE017A
:104180006C5B7F4F8BE190E00E941C0924961FAF6F
:10419000249741E050E0BE016D5B7F4F8AE190E0E3
:1041A0000E941C095ACF10925E17CC5BDF4F0FB6EE
:1041B000F894DEBF0FBECDBFDF91CF911F91FF906E
:1041C000EF90DF90CF9008951F93CF93DF931F92CE
:1041D000CDB7DEB7182F80E591E00E94550A812FF8
:1041E0000E949E0627E0129FF0011124EF5EF84E18
:1041F00022813381377041E050E0BE016F5F7F4F15
:10420000820F931F0E94921D89810F90DF91CF91A1
:104210001F910895FC01808D883040F4218D328DEE
:10422000232B21F00E94E42090E008958FEF9FEF70
:104230000895CF93DF93FC012485283028F08FEF79
:104240009FEFDF91CF910895EC010190F081E02D77
:104250000084F185E02D1995892B89F38C850E94C6
:10426000E42090E0EECFDA01E0915F17F0E0FE2F5E
:10427000EE27E60FF71F90E0982F8827A901BD01D0
:104280008E0F9F1F0C94921D8F929F92AF92BF92A0
:10429000CF92DF92EF92FF920F931F93CF93DF9312
:1042A000CDB7DEB760970FB6F894DEBF0FBECDBFB7
:1042B0007C0190915E17911115C018E0812F6096D6
:1042C0000FB6F894DEBF0FBECDBFDF91CF911F9127
:1042D0000F91FF90EF90DF90CF90BF90AF909F90A5
:1042E0008F90089508E0933309F404E06B0180E5B2
:1042F00091E00E94550A9E012F5F3F4F59014901ED
:1043000010E0812F0E946F1EF40181934F018823DA
:10431000C1F01F5F0113F5CF00E0F50181915F014E
:104320008D3149F0883139F08A51823020F00F5FA9
:104330001013F3CFC2CF60E170E0802F0E943A1ECD
:10434000102FA12EB12CF501EE0FFF1FE75BF84EE9
:104350001182108283EE93E00197F1F742E870E05A
:1043600060E0812F0E941A0A4FEF62E070E0812F17
:104370000E941A0AB601C114D10491F480917E0200
:1043800090917F0201968115F0EC9F0708F45CC0C4
:1043900090937F0280937E0260917E0270917F02F3
:1043A000812F0E94040A86E0E8E9F2E0DE01199616
:1043B00001900D928A95E1F7F70183818F778C87C1
:1043C00084818D8785818E87A7014E5F5F4F24E0B2
:1043D00030E06CE070E0812F0E94DD09B601812F92
:1043E0000E94EE0926E030E0AE01475F5F4F66E0D5
:1043F00070E0812F0E94DD0961E070E0812F0E9452
:104400003A1E27E02A9DC0012B9D900D11249C018E
:104410002F5E384E7901F9011182108222E030E0DE
:10442000AE01415F5F4F68E270E0812F0E9433214F
:104430008F859889982789279827F7019383828306
:104440001682158214823ACF80E090ECA1CFCF92F1
:10445000DF92EF92FF920F931F93CF93DF9300D0E1
:1044600000D0CDB7DEB78C016B017A01FC01808DE5
:10447000883010F40E94561E84EF93E09A8389835B
:10448000F60182819381A481B5818B839C83AD8366
:10449000BE83B701CE0101960E944421F801808FAE
:1044A0008830A0F4F586E486128E118E81E026967F
:1044B0000FB6F894DEBF0FBECDBFDF91CF911F9135
:1044C0000F91FF90EF90DF90CF90089580E0EFCFB5
:1044D0007F928F929F92AF92BF92CF92DF92EF9294
:1044E000FF920F931F93CF93DF931F921F92CDB72D
:1044F000DEB7782E8B014A01590122E030E0AE018F
:104500004F5F5F4F64E270E00E943321E980FA80E0
:10451000FE24EF24FE24E00EF11E97013770409137
:104520005E17072D10E0433309F042C0085F1F4FAC
:10453000102F0027110F110F110FC901800F911FAC
:104540004733C9F1A9014A0D5B1D4130584098F12C
:1045500060E078E06B01C21AD30AA601B4010E94A0
:104560001C09A5014C195D09B4016C0D7D1DC80124
:104570000E941C09EA0CFB1CF982EA8222E030E06E
:10458000AE014F5F5F4F64E270E0872D0E94DD094E
:104590000F900F90DF91CF911F910F91FF90EF90AF
:1045A000DF90CF90BF90AF909F908F907F900895B5
:1045B000005F1F4FBDCFA501B401DACFEF92FF928C
:1045C0001F93CF93DF931F921F92CDB7DEB7182FA3
:1045D00022E030E0AE014F5F5F4F60E270E00E948A
:1045E0003321E980FA80FE24EF24FE2422E030E02B
:1045F000AE014F5F5F4F60E270E0812F0E94332178
:1046000089819A81982789279827E816F90689F4DD
:1046100087E0189FF0011124EF5EF84EF582E482E6
:10462000C7010F900F90DF91CF911F91FF90EF90F6
:1046300008957C01DBCF1F93CF93DF93182F80E584
:1046400091E00E94550A812F0E94DE22EC01812F09
:104650000E946F1E873121F08C3111F0D0E0C0E054
:10466000CE01DF91CF911F910895CF93DF93EC019D
:104670008C85883060F40E94731E873111F08C3174
:1046800031F48C850E941B238115984088F3DF91BB
:10469000CF910895FC018485883010F40C941B237D
:1046A00090E080E00895CF92DF92EF92FF921F9307
:1046B000CF93DF93182F7B01EA014130584010F06F
:1046C000C0E0D8E080E591E00E94550A812F0E9469
:1046D000DE226C01812F0E946F1E873111F08C3118
:1046E00021F5CC16DD0670F380E591E00E94550AB5
:1046F0009E01A70170E060E0812F0E94682260E2C5
:1047000070E0812F0E943A1E62E070E0812F0E94CB
:104710001D1E84FD0DC0812F0E946F1E8823B9F0DD
:1047200080E591E00E94550AEFCFD0E0C0E0DCCFF9
:1047300040E162E070E0812F0E941A0ACE01DF9111
:10474000CF911F91FF90EF90DF90CF900895D0E030
:10475000C0E0F4CF0F931F93CF93DF938C01EA0156
:10476000FC018485883048F40E945323892B39F456
:1047700081E090E0F80193838283D0E0C0E0CE0135
:10478000DF91CF911F910F9108959F92AF92BF92A9
:10479000CF92DF92EF92FF920F931F93CF93DF930D
:1047A0008C015B01942EE52EFC01C688D788F08C25
:1047B00080E591E00E94550A8F2D0E94DE22C92DCE
:1047C000DE2D8C179D0708F4EC019E01A501B601B2
:1047D0008F2D0E946822F801868997898C0F9D1F72
:1047E000978B868BCE01DF91CF911F910F91FF9018
:1047F000EF90DF90CF90BF90AF909F900895FF9281
:104800000F931F93CF93DF931F921F92CDB7DEB705
:10481000F82E22E030E0AE014F5F5F4F66E270E0BD
:104820000E94332109811A8110270127102722E0D5
:1048300030E0AE014F5F5F4F66E270E08F2D0E9467
:10484000332189819A819827892798270817190782
:1048500049F4C8010F900F90DF91CF911F910F91F4
:10486000FF9008958C01E3CF1F93CF93DF93182F10
:1048700087E0189FE0011124CF5ED84E888199818E
:10488000009761F480E591E00E94550A812F0E9413
:10489000FF232E81821B910999838883DF91CF9119
:1048A0001F9108959F92AF92BF92CF92DF92EF92A5
:1048B000FF920F931F93CF93DF93EC017B018091C5
:1048C0005E17811121C01B821A8288EE93E0A0E05E
:1048D000B0E08C839D83AE83BF8388EA93E09983A5
:1048E000888388E08C8788EE93E09E878D87CE0151
:1048F000DF91CF911F910F91FF90EF90DF90CF90BC
:10490000BF90AF909F90089534E0932E833311F0C1
:1049100028E0922E89E4C82E87E1D82E10E098E096
:10492000B92EA12CD6012D913D916D01F701848105
:1049300095812817390791F4812F0E94731E082F43
:10494000873111F08C3139F5812F0E943424892B65
:1049500059F50C3119F4812F0E944A1E1F5F9112E4
:10496000E1CFA11008C0D701ED91FC910084F18541
:10497000E02DC70119951B821A8288EE93E0A0E012
:10498000B0E08C839D83AE83BF8388EA93E09983F4
:104990008883BC86A8CF843149F08111DFCFF6012E
:1049A000329711821082DACFB12ED8CFAA24A394E5
:1049B000D5CF8F929F92AF92BF92CF92DF92EF921C
:1049C000FF920F931F93CF93DF93CDB7DEB72F974F
:1049D0000FB6F894DEBF0FBECDBF5C014B017A016C
:1049E00080915E178823C9F104E0833309F008E061
:1049F000B501CE0101960E94522489E4C82E87E1B8
:104A0000D82E10E0F601219131916F01F5018481DA
:104A100095812817390751F4812F0E94731E873121
:104A200029F4A701B401812F0E9453231F5F0113B2
:104A3000E9CFC7012F960FB6F894DEBF0FBECDBFEA
:104A4000DF91CF911F910F91FF90EF90DF90CF906A
:104A5000BF90AF909F908F900895F12CE12CE9CFFB
:104A6000FC018485883010F40C94342490E080E0BC
:104A700008954F925F927F928F929F92AF92BF92D2
:104A8000CF92DF92EF92FF920F931F93CF93DF931A
:104A90001F921F92CDB7DEB7782E6B014A01A82E68
:104AA000B12C27E0829FC0011124FC01EF5EF84E7B
:104AB0007F010081118180E591E00E94550A08156F
:104AC000190554F4872D0E94FF23F70126818C01DC
:104AD000021B1109118300830115110519F5872D9A
:104AE0000E946F1E843159F0882349F001E010E0E4
:104AF0008C3111F410E000E0119501951109C80105
:104B00000F900F90DF91CF911F910F91FF90EF9039
:104B1000DF90CF90BF90AF909F908F907F905F90ED
:104B20004F900895801691060CF4840187E08A9DC9
:104B3000F0018B9DF00D1124EF5EF84EE280F380C2
:104B4000C114D10451F12701F7E05F22872D0E94A3
:104B50009E06840D951D20915E17273309F453C0DE
:104B60009801240D351D2130384008F44CC020E058
:104B700038E0490184189508A401B6010E94921DED
:104B80002601480C591C6801C818D908872D0E94B5
:104B90009E06A601B2010E94921DE00EF11E87E062
:104BA0008A9DF0018B9DF00D1124EF5EF84EF3828B
:104BB000E28220813181201B310B31832083868169
:104BC000800F912F911D8A3F910510F4232BF1F452
:104BD00087E08A9DF0018B9DF00D1124EF5EF84E69
:104BE0001682F982EA8222E030E0AE014F5F5F4F29
:104BF00068E270E0872D0E94DD0960E470E0872D97
:104C00000E943A1E7CCFA801B601C5CF868377CF1C
:104C1000CF93DF93FC01218D328D2115310529F4CD
:104C20008FEF9FEFDF91CF910895EC01808D4217B8
:104C3000530708F0A9010E9439251816190684F7B0
:104C4000298D3A8D281B390B3A8F298FEBCF0F9383
:104C50001F93CF93DF931F92CDB7DEB7FC01218D59
:104C6000328D232B41F48FEF9FEF0F90DF91CF9187
:104C70001F910F9108958C0141E050E0BE016F5FDC
:104C80007F4FFC01808D0E943925181619065CF7AC
:104C9000F801818D928D0197928F818F898190E0AB
:104CA000E4CFCF93DF931F92CDB7DEB741E050E062
:104CB000BE016F5F7F4FFC0184850E943925181665
:104CC000190634F4898190E00F90DF91CF91089517
:104CD0008FEF9FEFF9CFFC018485883010F40C949E
:104CE000392590E080E008958F929F92AF92BF9215
:104CF000CF92DF92EF92FF920F931F93CF93DF93A8
:104D000000D000D000D01F92CDB7DEB790915E17D3
:104D1000911115C018E0812F2A960FB6F894DEBFC6
:104D20000FBECDBFDF91CF911F910F91FF90EF90FC
:104D3000DF90CF90BF90AF909F908F90089528E024
:104D4000F22E933311F494E0F92E6B01082F80E5D5
:104D500091E00E94550A9E012F5F3F4F5901490182
:104D600010E0812F0E946F1EF40181934F01882370
:104D7000C1F01F5FF112F5CFF12CF50191915F01A8
:104D80009D3149F0983139F09A51923020F0F394E6
:104D90001F11F3CFBFCF60E170E08F2D0E943A1E4C
:104DA0001F2DE12EF12CF701EE0FFF1FE75BF84EF0
:104DB0001182108283EE93E00197F1F7402F70E0AB
:104DC00060E0812F0E941A0A4FEF62E070E0812FAD
:104DD0000E941A0AB601CD2889F480917E02909132
:104DE0007F0201968115F0EC9F0798F190937F0266
:104DF00080937E0260917E0270917F02812F0E94DB
:104E0000040A61E070E0812F0E943A1E27E02E9D87
:104E1000C0012F9D900D11249C012F5E384E790109
:104E2000F9011182108222E030E0AE01475F5F4F4E
:104E300068E270E0812F0E94332189859A85982746
:104E400089279827F701938382831682158214821B
:104E500062CF80E090ECCACF0F931F93CF93DF9384
:104E6000EC018B01888D883010F40E94561EB80129
:104E700082E00E947426888F883050F41D870C874A
:104E80001A8E198E81E0DF91CF911F910F910895B5
:104E900080E0F9CF0F931F93CF938C01FC016481C5
:104EA000758181E20E947426C82F8830F8F480E56D
:104EB00091E00E94550A8C2F0E946F1E833131F0C1
:104EC0008C2FCF911F910F910C944A1E62E070E0DD
:104ED0008C2F0E943A1EF80184819581EC2FF0E01E
:104EE000EE0FFF1FE75BF84E91838083CF911F91F8
:104EF0000F910895CF92DF92EF92FF921F93CF937D
:104F0000DF93EC017B016A018C85883048F40E94B4
:104F1000731E882319F08C850E944A1E88E08C87B6
:104F2000F70182819381A481B5810097A105B10524
:104F300051F490E080E0DF91CF911F91FF90EF90CE
:104F4000DF90CF9008958F3F9F4FAF4FBF4F89F3B2
:104F500070E060E081E20E947426182F8C87883010
:104F600040F780E591E00E94550AA7014E5F5F4F30
:104F700024E030E06CE070E0812F0E94DD09B60192
:104F8000812F0E94EE0964E070E0812F0E943A1E9A
:104F90000E9462066B017C018C850E94731E873122
:104FA00011F18C3101F1882321F20E946206AB01DC
:104FB000BC014C195D096E097F098D859E85B0E0A5
:104FC000A0E084179507A607B70738F061E070E006
:104FD00080E090E00E942F06DFCF8C850E94561E55
:104FE00088E08C87A6CF81E090E0A5CF0F931F9338
:104FF000CF93DF931F921F92CDB7DEB7FC012485BC
:105000002830E0F48C0180E591E00E94550A22E00E
:1050100030E0AE014F5F5F4F60E170E0F8018485E2
:105020000E94332189819A819827892798270F9098
:105030000F90DF91CF911F910F91089590E080E044
:10504000F6CF0F931F93CF93DF931F921F92CDB78D
:10505000DEB7FC0124852830E0F48C0180E591E086
:105060000E94550A22E030E0AE014F5F5F4F64E0DE
:1050700070E0F80184850E94332189819A81982704
:10508000892798270F900F90DF91CF911F910F9153
:10509000089590E080E0F6CF0F931F93CF93DF93B6
:1050A00000D000D01F921F92CDB7DEB78C01D8017F
:1050B00059964D915C915A974115510551F0ED91DA
:1050C000FC91048CF58DE02D70E060E0C80119952D
:1050D000EECFF801808D0E943424892BB1F148E095
:1050E00050E0BE016F5F7F4FD80158968C910E94AF
:1050F000392518161906F4F4D801509684E0FE01FB
:10510000319601900D928A95E1F78D8190E0982F6C
:1051100088272E81820F911DF801958B848B8F81BA
:10512000282F30E0322F22278885820F932F911D60
:10513000928F818F28960FB6F894DEBF0FBECDBF39
:10514000DF91CF911F910F91089590E080E0F2CF11
:105150004F925F926F927F928F929F92AF92BF9287
:10516000CF92DF92EF92FF920F931F93CF93DF9333
:10517000CDB7DEB763970FB6F894DEBF0FBECDBFD5
:105180007C016B013A01FB0120E090E080E06AE0E5
:105190003191332309F461C040ED430F4A3008F0E8
:1051A0004DC0689FA001699F500D1124CA01C0978E
:1051B000830F911D37FD9A958F3F910549F340F379
:1051C000F701428153816481758180912A1A9091FF
:1051D0002B1AA0912C1AB0912D1A481759076A075B
:1051E0007B0709F40DC28701085F1F4F0E9462060A
:1051F0006F7077277C5FC8010E942C27813009F0EF
:1052000004C284EF93E09A838983F70182819381BA
:10521000A481B5818B839C83AD83BE8345E350E03D
:10522000BE016F5F7F4FC8010E94580A892BA9F504
:10523000D12CC12CC8010E94621E17C03E3209F059
:10524000BFCF233009F4BCCFD301A20FB11D1296FA
:105250008C932F5F90E080E09BCF233009F0B0CF9C
:10526000F3018583CC24C394D12CC60163960FB679
:10527000F894DEBF0FBECDBFDF91CF911F910F918C
:10528000FF90EF90DF90CF90BF90AF909F908F9066
:105290007F906F905F904F9008950E946206F70193
:1052A0007783668342E050E0B7016A5F7F4FC801B1
:1052B0000E94C52381E090E09A83898342E050E018
:1052C000BE016F5F7F4FC8010E94C52380E091E05F
:1052D0009A83898342E050E0BE016F5F7F4FC8012F
:1052E0000E94C5231A82198242E050E0BE016F5F1E
:1052F0007F4FC8010E94C52342E050E0BE016F5FAE
:105300007F4FC8010E94C52342E050E0BE016F5F9D
:105310007F4FC8010E94C5235601F6018081882372
:1053200001F16501F60181912F01882311F08E3280
:10533000B1F446018A189B081814190474F48D8678
:1053400041E050E0BE01635F7F4FC8010E94C5236A
:10535000A401B501C8010E94C5235201DECF62013C
:10536000E1CF1D8641E050E0BE01635F7F4FC80181
:105370000E94C523C12CDD24D394DA82C98242E085
:1053800050E0BE016F5F7F4FC8010E94C523DA82E3
:10539000C98242E050E0BE016F5F7F4FC8010E94AA
:1053A000C523C8010E94041F892B09F441CFF3E0F3
:1053B000AF2EB12C230122E0420E511CD4C0F701C4
:1053C0004281538164817581808D918DA28DB38DD1
:1053D000481759076A077B0709F008C1848D958D26
:1053E000C59709F003C181A192A15DEFC52EDD240F
:1053F000DA940C970CF4ADC04CE050E0BE016F5F46
:105400007F4FC8010E9408268B819C81982789279D
:1054100098279A8B898BF7014681578129813A8198
:105420004217530709F0E7C097FFE5C08F709270ED
:105430003BEFC32EDD24DA94892B09F08AC06F80FC
:1054400078847624672476242AEFC22EDD24DA9429
:105450006114710409F47DC0D12CC12C8D819E8111
:10546000982789279827C816D906F8F441E050E014
:10547000BE01635F7F4FC8010E9408264D8544230B
:1054800031F050E070E060E0C8010E9408268D8590
:105490008111ECCF44E050E070E060E0C8010E9470
:1054A0000826FFEFCF1ADF0AD9CF912C812C41E0DB
:1054B00050E0BE016D5E7F4FC8010E9408264B89F7
:1054C000842F807C09F06CC0442331F050E070E000
:1054D00060E0C8010E9408268B898111E8CF42E074
:1054E00050E0BE01615F7F4FC8010E94082642E084
:1054F00050E0BE01635F7F4FC8010E94082644E070
:1055000050E070E060E0C8010E94082642E050E0F0
:10551000BE016F5E7F4FC8010E9408268F85988963
:1055200049895A898115914009F043C0CD84DE84B0
:10553000DC24CD24DC2481E0C816D104D1F541154A
:10554000544009F04AC044E050E0B201C8010E9452
:10555000082621E0A21AB10809F46CCEFFEFCF169D
:10556000DF0609F067CE0E9462063B014C01C801CC
:105570000E944C28181619060CF421CF0E946206CE
:105580006619770988099909693873418105910578
:1055900048F562E370E080E090E00E942F06E7CFDC
:1055A00041E050E070E060E0C8010E9408261B8ADC
:1055B00093CF54274527542770E060E0C8010E942C
:1055C0000826FFEF8F1A9F0A6814790409F06FCF3D
:1055D00096EFC92EDD24DA94BCCFE7EFCE2EDD2482
:1055E000DA94B7CFCC24CA94DC2CB3CF6EEFC62E9E
:1055F000DD24DA94AECF4CEFC42EDD24DA94A9CFAB
:105600008EEFC82EDD24DA9430CED12CC12C2DCED5
:10561000CF92DF92EF92FF920F931F93CF93DF937E
:10562000CDB7DEB7AF970FB6F894DEBF0FBECDBFD4
:105630007C016A0104EF13E01A8309831C861B8630
:1056400088EE93E0A0E0B0E08D879E87AF87B88BAF
:105650008DED92E09A878987188F0F8B198E1A8E9D
:105660001B8E1C8E88E089A31BA70AA71CA61DA65B
:105670001EA61FA680911E1A90911F1AA091201A93
:10568000B091211A8EA39FA3A8A7B9A78B839C834F
:10569000AD83BE8318861F82AE01465D5F4FCE018B
:1056A00001960E94A82881309105B1F4D701ED91AF
:1056B000FC910488F589E02D1DA30CA38CA59DA564
:1056C000AEA5BFA58EA39FA3A8A7B9A7A601BE019B
:1056D0006C5D7F4FC7011995AF960FB6F894DEBF8A
:1056E0000FBECDBFDF91CF911F910F91FF90EF9033
:1056F000DF90CF900895CF92DF92EF92FF920F93B9
:105700001F93CF93DF93CDB7DEB7AF970FB6F89463
:10571000DEBF0FBECDBF8C016B017A0184EF93E039
:105720009A8389831B821C821D821E821C861B8693
:1057300048EE53E060E070E04D875E876F87788BBE
:105740002DED32E03A872987988F8F8B198E1A8E2C
:105750001B8E1C8E28E029A39BA78AA71CA61DA62A
:105760001EA61FA6D8011C968C91883060F40E945A
:10577000731E882321F0F80184850E944A1E88E068
:10578000D8011C968C9380911E1A90911F1AA0919B
:10579000201AB091211A8EA39FA3A8A7B9A78B8323
:1057A0009C83AD83BE8318861F82AE01465D5F4F2A
:1057B000B601CE0101960E94A8280097C1F0D80139
:1057C000ED91FC910684F785E02D84EF93E09DA395
:1057D0008CA38CA59DA5AEA5BFA58EA39FA3A8A7AE
:1057E000B9A7A701BE016C5D7F4FC8011995AF969F
:1057F0000FB6F894DEBF0FBECDBFDF91CF911F91E2
:105800000F91FF90EF90DF90CF900895EF92FF926D
:105810000F931F93CF93DF9300D01F92CDB7DEB7C6
:105820008C017B01FB0184858830A8F084EF93E034
:10583000F801918380831282138214821582C80139
:105840000F900F900F900F90DF91CF911F910F91BC
:10585000FF90EF90089580E591E00E94550A24E0C2
:1058600030E0AE014F5F5F4F6CE070E0F701848580
:105870000E94332184EF93E0F80191838083898132
:105880009A81AB81BC8182839383A483B583D7CF74
:1058900085ED8093BC008091851690918616A0912D
:1058A0008716B09188160796A11DB11D23E0B69505
:1058B000A795979587952A95D1F72091BC0024FD4F
:1058C00003C0109283160895409185165091861654
:1058D0006091871670918816452B462B472B69F3EC
:1058E0000097A105B10541F025E32A95F1F70000E5
:1058F0000197A109B109E1CF809184160C947C072E
:105900003F924F925F926F927F928F929F92AF924F
:10591000BF92CF92DF92EF92FF920F931F93CF939C
:10592000DF9300D000D000D01F921F92CDB7DEB71A
:105930007C01DC0115968C91811115C0FE01319618
:10594000CE010C966F0130E23193E817F907E1F7C9
:10595000DA0130E087E09D91B92E992329F19E323A
:1059600039F48A3011F480E0DAC038E08AE0F3CF0D
:10597000E2EBF3E04491442321F031969413FACF03
:10598000F2CF831780F34FED490F4E3560F74FE9A3
:10599000490F4A3118F440EEB42EB90EF601E30F68
:1059A000F11DB0823F5FD7CF89818032E1F2322E84
:1059B0008B01FB01838D948DD7015C969C938E9314
:1059C0005B971682178210861186128613861486BC
:1059D0001586F80182859385A485B5854389548908
:1059E0006589768984179507A607B70708F04DC023
:1059F00025E0B695A795979587952A95D1F7F82F25
:105A0000FF70AF2ED80115968C91823008F4ABCF81
:105A1000C8010E94831597FDA6CFF8018285938562
:105A2000A485B5854F96A11DB11D82879387A48754
:105A3000B587F0E2AF9EB00111246F59784E611521
:105A4000710509F490CFDB018C91882341F0853EEC
:105A500009F058C0BB2029F0BB24B394BACFB110D1
:105A60000EC0F701A28A8091650290916602A09112
:105A70006702B091680286879787A08BB18BDB01A4
:105A80008C918111E9CFBB24B394832D8271823133
:105A900009F069CFBB2009F45AC0C7010E94AB0CC2
:105AA000009709F460CF20E2FC0111922A95E9F7F2
:105AB0002BE0F601DC0101900D922A95E1F721E23D
:105AC00038E2DC0151963C932E93509740E058E029
:105AD0001F965C934E931E9753963C932E9352972A
