:020000040000FA
:100000000C94E4010C940F2F0C94E42E0C94B92E54
:100010000C948E2E0C94632E0C94382E0C940D2E72
:100020000C94E22D0C9415020C9415020C941502FC
:100030000C9415020C9415020C9415020C941502E4
:100040000C9415020C9415020C9415020C941502D4
:100050000C9415020C9415020C9415020C94982D16
:100060000C9415020C94622D0C94382D0C941502EE
:100070000C9415020C9415020C9415020C941502A4
:100080000C9415020C9415020C9415020C94150294
:100090000C9415020C9415020C9415020C943A2F32
:1000A0000C9415020C9415020C9415020C94150274
:1000B0000C9415020C9415020C9415020C94150264
:1000C0000C9415020C9415020C9415020C94150254
:1000D0000C9415020C9415020C9415020C94150244
:1000E0000C9415020C945E050C94A21C0C94212A0D
:1000F0000C942E1F0C94E1060C9460060C94F619D7
:100100000C943F170C94041F0C94FE200C9486153D
:100110000C9464130C9409050C9401050C940A07C3
:100120000C94D0140C94DB040C9457200C94E4032E
:100130000C94E9220C94D6040C9490150C940604AB
:100140000C94E0030C940D1E0C944E020C94570278
:100150000C940A040C94F2030C94E1170C940920FB
:100160000C9496290C9482150C943B130C94272024
:100170000C94A0020C94D1020C94121C0C94EA036F
:100180000C94E51E0C94CE040C9425060C94740675
:100190000C94871C0C9491130C9437070C94EF0467
:1001A0000C94C3020C949C090C9440050C94E50437
:1001B0000C94F9040C9403070C9444130C945A17F0
:1001C0000C94643D0C9427050C9446060C94672609
:1001D0000C9452020C94D1050C943B060C94E71934
:1001E0000C94DA030C9423290C94C6140C94CB03BE
:1001F0000C9458020C945C060C945E300C94481FCE
:100200000C94EE030C946B020C94C5030C94271C05
:100210000C941D050C9400040C94D3200C946805D8
:100220000C94CF030C9469160C94041B0C94AF022D
:100230000C94B61D0C94F8030C94F0060C9436053F
:100240000C9456030C9492150C9474130C9405049E
:100250000C9454050C940F060C94FC030C94861714
:100260000C94A8170C9453020C944A050C9409039F
:100270000C949D150C94DA120C94D7030C94D303B0
:100280000C9495150C94D4100C9464060C94730281
:100290000C94130500002100240027002A002D00E3
:1002A0003000330001010000040107010A010000D1
:1002B00020002300260029002C002F00320000011E
:1002C000000003010601090100000A0B02090C0DE0
:1002D0000E080703040100000000000000000000F9
:1002E000000000000000000000000000000000000E
:1002F00000000000121110000000000000000000CB
:1003000000000000000000000000000000000102EA
:100310001020200808102040102040800201020117
:1003200008040201010204081020408080402010CF
:100330000804020180040201804020100804020128
:100340000804020101020408102040800102040890
:100350001020408000002200250028002B002E00E5
:100360003100340002010000050108010B01050500
:100370000505070508080808020202020A0A08081B
:100380000404040401010101010101010303030349
:1003900003030303040707070C0C0C0C0C0C0C0CD8
:1003A0000202020206060606060606060B0B0B0BE9
:1003B0000B0B0B0B7C3C3E5E2B3D3F2F5B5D3B2CC8
:1003C0002A225C005E30643D11241FBECFEFD1E2D3
:1003D000DEBFCDBF00E00CBF18E0A0E0B2E0E4E17A
:1003E000F3E800E00BBF02C007900D92A632B10700
:1003F000D9F72FE0A6E2B8E001C01D92AC3EB207EB
:10040000E1F711E0C3EED1E000E006C02197010959
:10041000802FFE010E94063FC23ED10780E0080700
:10042000A9F70E9443310C9478410C940000CF93BB
:10043000DF93FC01828193819093BE0F8093BD0F67
:1004400084819581A681B7818093BF0F9093C00F5F
:10045000A093C10FB093C20F80859185A285B3850B
:100460008093C30F9093C40FA093C50FB093C60F92
:10047000DF011C96CF014996C7ECDFE02D9129934F
:10048000A817B907D9F7818D928D9093D50F8093D6
:10049000D40F8BEB9FE0DF91CF910895FC01818D0C
:1004A000928D0895089581E080932D0C089508950C
:1004B0000895FC01248135816217730720F480813F
:1004C0009181009729F41092DF0B8FED9BE0089546
:1004D000860F971F08950895DC01ED91FC9101901E
:1004E000F081E02D1994AF92BF92CF92DF92EF92FC
:1004F000FF920F931F93CF93DF936C017B018B01CE
:10050000040F151FEB015E01AE18BF08C017D1071D
:1005100059F06991D601ED91FC910190F081E02DA7
:10052000C6011995892B79F7C501DF91CF911F91EC
:100530000F91FF90EF90DF90CF90BF90AF90089514
:10054000FC01538D448D252F30E0842F90E0821BD9
:10055000930B541710F0CF96089501970895FC015E
:10056000918D828D981761F0A28DAE0FBF2FB11DB6
:100570005D968C91928D9F5F9F73928F90E008950E
:100580008FEF9FEF0895FC01918D828D981731F0C8
:10059000828DE80FF11D858D90E008958FEF9FEF1C
:1005A0000895FC01918D228D892F90E0805C9F4FF2
:1005B000821B91098F73992708958FE79EE00E940F
:1005C000D10221E0892B09F420E0822F0895FC015B
:1005D000A48DA80FB92FB11DA35ABF4F2C91848DA4
:1005E00090E001968F739927848FA689B7892C9301
:1005F000A089B1898C91837080648C93938D848D54
:10060000981306C00288F389E02D80818F7D808356
:100610000895EF92FF920F931F93CF93DF93EC0116
:1006200081E0888F9B8D8C8D98131AC0E889F98999
:10063000808185FF15C09FB7F894EE89FF8960839C
:10064000E889F98980818370806480839FBF81E01D
:1006500090E0DF91CF911F910F91FF90EF9008955F
:10066000F62E0B8D10E00F5F1F4F0F731127E02E3A
:100670008C8D8E110CC00FB607FCFACFE889F98972
:10068000808185FFF5CFCE010E94E702F1CFEB8D8F
:10069000EC0FFD2FF11DE35AFF4FF0829FB7F89446
:1006A0000B8FEA89FB8980818062CFCFCF93DF9364
:1006B000EC01888D8823B9F0AA89BB89E889F9897A
:1006C0008C9185FD03C0808186FD0DC00FB607FCAF
:1006D000F7CF8C9185FFF2CF808185FFEDCFCE01E2
:1006E0000E94E702E9CFDF91CF91089580E090E08A
:1006F000892B29F00E94DD0281110E94000080E018
:1007000090E0892B49F080E090E0892B29F00E944D
:10071000000081110E94000080E090E0892B49F0E8
:1007200080E090E0892B29F00E94000081110E9456
:10073000000080E090E0892B49F080E090E0892B78
:1007400029F00E94000081110C940000089581504E
:10075000823108F05AC0E82FF0E08827ED54FC4FB2
:100760008F4F0C94063FD303D703C503CB03CF03AE
:100770000504DA03E003E403EA03EE03F203F803FB
:10078000FC030504000406040A04809180008F77AE
:10079000809380000895809180008F7DF9CF8091B3
:1007A0008000877FF5CF84B58F7784BD089584B5A9
:1007B0008F7DFBCF8091B0008F778093B00008953C
:1007C0008091B0008F7DF9CF809190008F778093DA
:1007D00090000895809190008F7DF9CF80919000D6
:1007E000877FF5CF8091A0008F778093A000089538
:1007F0008091A0008F7DF9CF8091A000877FF5CFF9
:10080000809120018F7780932001089580912001AD
:100810008F7DF9CF80912001877FF5CFCF93DF9334
:10082000282F30E0F901E853FD4F8491F901E25F90
:10083000FC4FD491F901E259FC4FC491CC23A1F0B3
:1008400081110E94A703EC2FF0E0EE0FFF1FE2558D
:10085000FD4FA591B491EC91ED2381E090E009F476
:1008600080E0DF91CF91089580E090E0FACF1F9370
:10087000CF93DF93282F30E0F901E853FD4F8491A7
:10088000F901E25FFC4FD491F901E259FC4FC491A8
:10089000CC23A9F0162F81110E94A703EC2FF0E0C2
:1008A000EE0FFF1FEC5AFC4FA591B4918FB7F8944F
:1008B000EC91111108C0D095DE23DC938FBFDF913E
:1008C000CF911F910895DE2BF8CFCF93DF9390E067
:1008D000FC01E25FFC4F249182599C4FFC01849102
:1008E0008823D1F090E0880F991FFC01EC56FD4F52
:1008F000A591B491FC01EC5AFC4FC591D4916111C2
:100900000EC09FB7F8948C91E22FE0958E238C93C4
:100910002881E223E8839FBFDF91CF9108958FB7AD
:10092000F894EC91E22BEC938FBFF6CF1F93CF930B
:10093000DF93182FEB0161E00E946504209739F4E2
:1009400060E0812FDF91CF911F910C943704CF3F4E
:10095000D10511F461E0F5CFE12FF0E0E853FD4F50
:10096000E491E150E23108F0B3C0F0E08827E454AC
:10097000FB4F8F4F0C94063FCE04D604DB04E504F6
:10098000EF046805F9040105090513051D05270590
:100990003605400568054A0554055E0584B580683E
:1009A00084BDC7BDDF91CF911F91089584B580624A
:1009B00084BDC8BDF7CF809180008068809380009F
:1009C000D0938900C0938800EDCF80918000806231
:1009D00080938000D0938B00C0938A00E3CF8091F6
:1009E0008000886080938000D0938D00C0938C003D
:1009F000D9CF8091B00080688093B000C093B300DD
:100A0000D1CF8091B00080628093B000C093B400D9
:100A1000C9CF80919000806880939000D093990016
:100A2000C0939800BFCF8091900080628093900027
:100A3000D0939B00C0939A00B5CF809190008860BE
:100A400080939000D0939D00C0939C00ABCF809189
:100A5000A00080688093A0008091A0008F7B80938D
:100A6000A000D093A900C093A8009CCF8091A000C3
:100A700080628093A000D093AB00C093AA0092CF75
:100A80008091A00088608093A000D093AD00C093B7
:100A9000AC0088CF80912001806880932001D093A2
:100AA0002901C09328017ECF80912001806280932C
:100AB0002001D0932B01C0932A0174CF8091200193
:100AC000886080932001D0932D01C0932C016ACFC0
:100AD000C038D1050CF03ECF33CF3FB7F8948091AA
:100AE000DB0B9091DC0BA091DD0BB091DE0B26B5FA
:100AF000A89B05C02F3F19F00196A11DB11D3FBF56
:100B0000BA2FA92F982F8827BC01CD01620F711D24
:100B1000811D911D42E0660F771F881F991F4A951E
:100B2000D1F708958F929F92AF92BF92CF92DF92AA
:100B3000EF92FF926B017C010E946D054B015C01FD
:100B4000C114D104E104F104B9F00E946D056819E3
:100B500079098A099B09683E73408105910580F3F4
:100B600021E0C21AD108E108F10888EE880E83E07E
:100B7000981EA11CB11CE4CFFF90EF90DF90CF90A6
:100B8000BF90AF909F908F9008952FB7F894609189
:100B9000D70B7091D80B8091D90B9091DA0B2FBFA6
:100BA00008950895FC0120812EBD9B01215031093B
:100BB00041F051810DB407FEFDCF4EB55EBD4193AE
:100BC000F5CF61507109860F971F0DB407FEFDCF59
:100BD0002EB5FC0120830895E091790CF0917A0CF8
:100BE00080819091780C892B80830895E091790C15
:100BF000F0917A0C90818091780C80958923808384
:100C0000089590E020917B0C233339F40C96982FB3
:100C1000990F990F990F80E008954896F8CFCF93D8
:100C2000DF931F92CDB7DEB76983DC01ED91FC91B4
:100C30000280F381E02D41E050E0BE016F5F7F4F05
:100C400019950F90DF91CF910895CF93DF931F9265
:100C5000CDB7DEB76983DC01ED91FC910280F381B1
:100C6000E02D41E050E0BE016F5F7F4F19950F907E
:100C7000DF91CF910895FC019485FB018485981341
:100C800003C081E0983008F080E00895CF93DF93AF
:100C90001F92CDB7DEB76983DC01ED91FC91028034
:100CA000F381E02D41E050E0BE016F5F7F4F199569
:100CB0000F90DF91CF910895FC018485958508956B
:100CC000FC0184899589089526E533E0FC01318390
:100CD0002083FB014089518962897389FC01428329
:100CE0005383648375830895DC01ED91FC91048C3A
:100CF000F58DE02D19942091650B260F3327331FB6
:100D000021323105ECF42091AE0BFC0190E080E043
:100D1000243069F082E00895A091650B2191AC0127
:100D20004B5B544FA40FB52FB11D2C930196861722
:100D300098F38091650B680F6093650B80E00895D0
:100D400081E008951092AE0B81E08093AD0B10927C
:100D5000880B61E084E10E94370461E085E10E9434
:100D60003704E9EBF0E080818E7F808380818D7F86
:100D7000808388E48093B80085E48093BC00089564
:100D8000CF93DF9391E09093440B8823B9F0C09107
:100D9000B800D091BA008091BC008A7B8093BC00DF
:100DA00060E084E10E94370460E085E10E9437043E
:100DB0000E94A206D093BA00C093B800DF91CF91F1
:100DC0000895E091E70B8091E60BE81730F4F0E02E
:100DD000EC5DF44F808190E008958FEF9FEF0895D0
:100DE0009091E70B8091E60B2FEF3FEF981748F4B7
:100DF000E92FF0E0EC5DF44F208130E09F5F9093AD
:100E0000E70BC90108958091E60B9091E70B891BD0
:100E1000990B0895CF92DF92EF92FF920F931F9359
:100E2000CF93DF937C01CB018A012091B40B222365
:100E300089F0EB016B01C40ED51ECC15DD0569F000
:100E40006991D701ED91FC910190F081E02DC701EE
:100E50001995F3CF642F0E947B06C801DF91CF91D3
:100E60001F910F91FF90EF90DF90CF900895CF9357
:100E7000DF931F92CDB7DEB769832091B40B222395
:100E8000F9F02091E40B203258F021E030E0FC0131
:100E90003383228390E080E00F90DF91CF9108951B
:100EA0008091E50BE82FF0E0EB54F44F99819083AB
:100EB0008F5F8093E50B8093E40B81E090E0ECCFB3
:100EC00061E0CE0101960E947B06F7CFCF92DF92C0
:100ED000EF92FF920F931F93CF93DF93FC01C48196
:100EE00021E02093B40BC093D50B1092E50B109228
:100EF000E40B8385682B82E59FE00E943707D09141
:100F0000E40BD13208F092C00E946D056B017C01A8
:100F10008091AE0B811165C082E08093AE0B81E0C1
:100F20008093AD0B8FEF8093AC0B1092AB0BD093F3
:100F3000AA0BA5EBBBE0EAE8FBE080E0D81385C094
:100F40001092890B8091890BCC0FC82BC093890B11
:100F50008091880B813009F07CC01092880B0E9430
:100F60006D056B017C018091890B8093BB008091A2
:100F7000B00B9091B10BA091B20BB091B30B892B38
:100F80008A2B8B2B99F00E946D050091B00B10916C
:100F9000B10B2091B20B3091B30B6C197D098E0906
:100FA0009F090617170728073907E0F18091BC0051
:100FB00083FDD9CF85EC8093BC000E946D056B0149
:100FC0007C018091AE0B823009F445C08091AC0B5E
:100FD0008F3F61F18091AC0B803241F18091AC0B7D
:100FE00025C08091B00B9091B10BA091B20BB09144
:100FF000B30B892B8A2B8B2B09F48ACF0E946D05AA
:101000000091B00B1091B10B2091B20B3091B30B4A
:101010006C197D098E099F090617170728073907DC
:1010200008F076CF8091AF0B0E94C0061092E50BBE
:101030001092E40B1092B40BDF91CF911F910F919E
:10104000FF90EF90DF90CF9008959D9191938F5FE7
:1010500075CF85EEB0CF8091B00B9091B10BA09180
:10106000B20BB091B30B892B8A2B8B2B09F4A9CF30
:101070000E946D050091B00B1091B10B2091B20B45
:101080003091B30B6C197D098E099F09061717075C
:101090002807390708F095CFC5CF089561E0FC0116
:1010A00084810E94370480911F0B811110921F0BC5
:1010B00008958EBD00000DB407FEFDCF8EB50895D6
:1010C000AF92BF92CF92DF92EF92FF920F931F9356
:1010D000CF93DF9300D000D01F921F92CDB7DEB721
:1010E0008C017B016A0180917B0C8333E1F4580110
:1010F000A40EB51EA016B10609F46FC00E94F60535
:1011000080EF0E945908812F0E945908802F0E9469
:1011100059080F5F1F4FF70181917F010E94590805
:101120000E94EC05E7CF5B01A40EB51E8433C1F429
:101130000E94F60519830A838D2D80688B83CC82EB
:1011400064E070E0CE0101960E94D205AE14BF04A7
:1011500009F441C0F70181917F010E945908F6CF3F
:101160000E94F6050F3F110509F028F419820A8341
:1011700084E08B830CC017FD17C019820A8333E00B
:10118000169507953A95E1F7007E0C600B8386E093
:10119000C816D104A0F5F701DE011496EA15FB0587
:1011A00099F081918D93FACFC80126E096958795A5
:1011B0002A95E1F7807E19830A830115104C10F4FB
:1011C0008461D7CF8C61D5CFB6016D5F7F4FCE01E3
:1011D00001960E94D2050E94EC05C60128960FB622
:1011E000F894DEBF0FBECDBFDF91CF911F910F915D
:1011F000FF90EF90DF90CF90BF90AF90089563E0A5
:1012000070E0CE0101960E94D205F70181917F0125
:101210000E945908AE14BF04C1F7DDCFCF93DF930E
:101220001F92CDB7DEB7898341E050E0BE016F5F0A
:101230007F4F90E080E00E9460080F90DF91CF9197
:101240000895DA01E0917C0CF0E0FE2FEE27E60F26
:10125000F71F90E0982F8827A901BD018E0F9F1FCF
:101260000C946008CF93DF931F921F92CDB7DEB727
:1012700079836A8322E030E0AE014F5F5F4F60E127
:1012800070E00E9421090F900F90DF91CF91089597
:10129000CF93DF931F921F92CDB7DEB779836A8316
:1012A00022E030E0AE014F5F5F4F64E070E00E94EB
:1012B00021090F900F90DF91CF910895CF93DF9385
:1012C0001F92CDB7DEB720917C0C30E0322F222761
:1012D000260F371F90E0982F8827498341E050E080
:1012E000BE016F5F7F4F820F931F0E9460080F90B7
:1012F000DF91CF9108958FEF0C9459080F931F93AE
:10130000CF93DF93EC010E94C5058B010E947B09FE
:101310008F3F69F00E94C505601B710B6C177D073C
:10132000A8F380E0DF91CF911F910F91089581E0A4
:10133000F9CF8CBD9DBD0895FF920F931F93CF935E
:10134000DF93EB01FC01178A168A2A81211109C05B
:101350002B81211106C02C81211103C02D81222354
:1013600001F141155105E9F08A01FC01F08C80E59D
:1013700091E00E949909AE014E5F5F4F24E030E09A
:101380006CE070E08F2D0E942109B8018F2D0E9422
:10139000320981E090E0DF91CF911F910F91FF9092
:1013A000089580E0F7CFCF93DF93EC0180911F0B7E
:1013B000811109C081E080931F0B80915E0F909195
:1013C0005F0F0E94990960E08C81DF91CF910C94AE
:1013D00037048F929F92AF92BF92FF920F931F9309
:1013E000CF93DF93EC01F62E49015A018E818823B9
:1013F00089F08F8198859C012F5F3F4F38872F831D
:101400008230924018F40E947B09F3CFCE010E94F3
:101410004E081E82CE010E94D3098CE291E00E9408
:101420007E098F2D80640E94590808E110E0D501E3
:10143000C401002E04C0B695A795979587950A9488
:10144000D2F70E94590808501109083F8FEF18077A
:1014500071F785E9FF2021F028E087E8F2128FEF8D
:101460000E94590810E00E947B098A8787FF04C008
:101470001F3F11F01F5FF7CFDF91CF911F910F91A9
:10148000FF90BF90AF909F908F900895AF92BF92C2
:10149000CF92DF92EF92FF920F931F93CF93DF9340
:1014A000EC016901C801820F931F8130924050F511
:1014B0008E81882379F088819981AA81BB818417E4
:1014C0009507A607B70731F48F819885C816D90606
:1014D00008F042C0488359836A837B838B858330BD
:1014E00039F089E0440F551F661F771F8A95D1F7A1
:1014F0009A01AB0161E1CE010E94E909882389F0DC
:1015000083E08D83CE010E944E0880E0DF91CF9171
:101510001F910F91FF90EF90DF90CF90BF90AF9011
:1015200008950E94C5055B010E947B098A878F3F51
:1015300069F40E94C5056A197B096D327140A0F3F8
:101540008FE08D83CE010E944E08DCCF8E3F89F460
:1015500018861F8281E08E838F8198858C159D056A
:1015600050F40E947B098F819885019698878F831C
:10157000F3CF8DE0E6CF6701E00EF11E0E947B09FC
:10158000F60181936F01EE15FF05C1F78F819885F4
:10159000080F191F18870F838985882319F00115F3
:1015A0001240A0F08E81882389F08F8198859C015C
:1015B0002F5F3F4F38872F838230924018F40E946C
:1015C0007B09F3CFCE010E944E081E8281E09ECFA0
:1015D000CF92DF92EF92FF920F93CF93DF93EC01C4
:1015E000690182E1411551056105710599F08B850D
:1015F000833039F089E0440F551F661F771F8A95A5
:10160000D1F79A01AB0168E1CE010E94E909882374
:1016100019F084E08D832DC08EEF0E945908760169
:101620008EEFD81AF70181917F010E945908EC14BE
:10163000FD04C1F78FEF0E9459088FEF0E945908EF
:101640000E947B098A878F71853071F4011116C061
:10165000CE010E944E0881E0DF91CF910F91FF9063
:10166000EF90DF90CF90089581E18D83CE010E94AD
:101670004E08CE010E944E0880E0EECF88E592E051
:101680000E947E09811102C085E1C4CF20E030E0D4
:10169000A9016DE0CE010E94E909882311F084E1DF
:1016A000B9CF0E947B098111FACFD2CF0F9340911D
:1016B000200B5091210B6091220B7091230B41154F
:1016C00051056105710599F0082F2FE73CE08091E5
:1016D000760C9091770C0E94E80A882349F01092CA
:1016E000200B1092210B1092220B1092230B81E001
:1016F0000F9108950F93CF93C82F80917E0C811185
:1017000005C0C1E08C2FCF910F91089540911C022C
:1017100050911D0260911E0270911F020C2F2FE745
:101720003CE08091760C9091770C0E94E80A811140
:1017300002C0C0E0E7CFCC2321F381E00E94560B2A
:101740008823B9F310927E0CDDCF8F929F92AF92D7
:10175000BF92EF92FF920F931F93CF934B015C01C7
:10176000C42F80911C0290911D02A0911E02B09185
:101770001F0288159905AA05BB0551F181E00E9459
:101780007A0B81110BC080E0CF911F910F91FF90D8
:10179000EF90BF90AF909F908F9008958FE7E82EC5
:1017A0008CE0F82E00E012E030E020E0B501A4016A
:1017B0008091760C9091770C0E94460A882319F349
:1017C00080921C0290921D02A0921E02B0921F02F3
:1017D00040917E0C4C2B40937E0C81E0D5CF8F92B4
:1017E0009F92AF92BF92CF92DF92EF92FF92CF93F0
:1017F00020E63FE03093770C2093760C882309F4A1
:101800006DC040E060E070E0CB010E94A50B81114B
:101810000BC080E0CF91FF90EF90DF90CF90BF9012
:10182000AF909F908F90089580913D0E8F7789F7AC
:101830008091490E90914A0EA0914B0EB0914C0EA2
:1018400084369105A105B10520F3C090450ED090D6
:10185000460EE090470EF090480EC114D104E1040A
:10186000F104B9F240E0C701B6010E94A50B88233C
:1018700081F280918A0C90918B0C8115924049F6EF
:10188000A0918F0CAA2329F260918D0C70918E0C7F
:101890006115710509F4BDCF20918C0C222309F448
:1018A000B8CFA0937E0F2093700F90E080E030E0DF
:1018B000E1E0F0E0C82FAF01082E02C0440F551F31
:1018C0000A94E2F72417350769F041E0480F0196C2
:1018D0008930910579F74093790F9BCFC12CD12C9A
:1018E0007601C0CF8093790F2091950C3091960CA2
:1018F00050E040E02115310541F42091A30C3091D6
:10190000A40C4091A50C5091A60C2093710F30931C
:10191000720F4093730F5093740F46015701860E58
:10192000971EA11CB11C80927F0F9092800FA092F5
:10193000810FB092820FE091900CF091910CF09396
:10194000850FE093840FB0E00E94C23EDC01CB0122
:10195000880D991DAA1DBB1D8093860F9093870F3C
:10196000A093880FB093890F25E0EE0FFF1F2A95F3
:10197000E1F7E150FE4FEF2FFF27E6958E0F9F1FF7
:10198000A11DB11D80937A0F90937B0FA0937C0FC4
:10199000B0937D0F8090920C9090930CB12CA12C61
:1019A0008114910441F480909F0C9090A00CA09021
:1019B000A10CB090A20CC81AD90AEA0AFB0AC80CFA
:1019C000D91CEA1CFB1C04C0F694E794D794C79476
:1019D000CA95D2F7C092750FD092760FE092770F2A
:1019E000F092780F85EFC8168FE0D806E104F10475
:1019F00028F48CE08093830F81E00CCF80E125EF09
:101A0000C2162FEFD206E104F104A0F38091AB0CD3
:101A10009091AC0CA091AD0CB091AE0C8093860F60
:101A20009093870FA093880FB093890F80E2E2CF45
:101A30004F925F926F927F928F929F92AF92BF92DE
:101A4000CF92DF92EF92FF920F931F93CF93DF938A
:101A5000EC01423051056105710590F480E0DF91A1
:101A6000CF911F910F91FF90EF90DF90CF90BF909B
:101A7000AF909F908F907F906F905F904F90089560
:101A800089859A85AB85BC850196A11DB11D8417FA
:101A90009507A607B70710F3CB88DC88ED88FE888A
:101AA0008F89803109F042C0BB27A72F962F852F41
:101AB000480159012A013B01C80ED91EEA1EFB1E2E
:101AC00080911C0290911D02A0911E02B0911F02F4
:101AD000C816D906EA06FB0699F58F898031C1F54B
:101AE000B301A201552766277727440F551F415898
:101AF000534FFA019182808280917E0C81608093A5
:101B00007E0C8A89823080F08D819E81AF81B8857C
:101B10008C0D9D1DAE1DBF1D8093200B9093210B3E
:101B2000A093220BB093230B81E099CFDB01CA0174
:101B3000E7E0B695A79597958795EA95D1F7B8CF41
:101B400040E0C701B6010E94A50B8111C6CF86CF28
:101B5000B301A2014F77552766277727440F551FFA
:101B6000440F551F4158534FFA0180829182A2823F
:101B7000B382C2CF8F929F92AF92BF92CF92DF92E9
:101B8000EF92FF920F931F93CF93DF93FC01818518
:101B90009285A385B4850196A11DB11D8417950773
:101BA000A607B70770F480E0DF91CF911F910F91E6
:101BB000FF90EF90DF90CF90BF90AF909F908F906D
:101BC000089583889488A588B6888789803189F5A7
:101BD000BB27A72F962F852FE9016A017B018F0173
:101BE000BC01CD01680D791D8A1D9B1D80901C02D2
:101BF00090901D02A0901E02B0901F0286169706BC
:101C0000A806B90601F5F8018789803111F5DD24B0
:101C1000EE24FF24F601EE0FFF1FE158F34F808101
:101C20009181B0E0A0E088839983AA83BB8381E09F
:101C3000BBCFDB01CA01C7E0B695A79597958795FD
:101C4000CA95D1F7C9CF40E00E94A50B8111DBCF27
:101C5000AACFE894C7F8DD24EE24FF24F601EE0FA6
:101C6000FF1FEE0FFF1FE158F34F80819181A2818A
:101C7000B381BF70D8CF4F925F926F927F92AF9235
:101C8000BF92CF92DF92EF92FF920F931F93CF9369
:101C9000DF9300D01F92CDB7DEB78C0149835A8302
:101CA0006B837C835901C12CD12C7601412C82E0BD
:101CB000582E612C712C49815A816B817C819E0147
:101CC0002F5F3F4FC8010E94BA0D882339F1F801F8
:101CD0008585A301920104C0220F331F441F551FA5
:101CE0008A95D2F7DA01C901C80ED91EEA1EFB1E79
:101CF00049815A816B817C818789803111F188EF1C
:101D00009FEFAFEFBFE0481759076A077B0798F2CC
:101D1000F501C082D182E282F38281E00F900F90C0
:101D20000F900F90DF91CF911F910F91FF90EF9047
:101D3000DF90CF90BF90AF907F906F905F904F906B
:101D4000089588EF9FEFA0E0B0E0DDCFCF93DF9361
:101D5000FC012581222321F080E0DF91CF910895BD
:101D6000EC018091830F803159F582E08583178AD9
:101D7000108E118E128E8091840F9091850FB0E09D
:101D8000A0E025E0880F991FAA1FBB1F2A95D1F755
:101D9000838B948BA58BB68B8CE69FE09C8F8B8F6F
:101DA00081E08C831E821F82188619861A861B8604
:101DB0001C861D861E861F86188A198A1A8ACDCF10
:101DC000803251F683E085834091860F5091870FD2
:101DD0006091880F7091890F478B508F618F728F40
:101DE0009F012D5E3F4F8CE69FE00E943B0E8111CC
:101DF000D3CFB2CF8F929F92AF92BF92CF92DF920A
:101E0000EF92FF920F931F93CF93DF93EC018D819D
:101E100081110EC080E0DF91CF911F910F91FF9053
:101E2000EF90DF90CF90BF90AF909F908F900895EC
:101E30000B891C892D893E8904171507260737074A
:101E400048F34A015B01823031F48A869B86AC8676
:101E5000BD8681E0E0CF81149104A104B10449F46E
:101E60001E821F82188619861A861B861C861D866E
:101E7000F0CF0A851B852C853D85EB8DFC8D8585F6
:101E800090E00996B901A801415051096109710911
:101E9000082E04C076956795579547950A94D2F712
:101EA00075016401E1E0CE1AD108E108F10804C02F
:101EB000F694E794D794C7948A95D2F7C416D506BA
:101EC000E606F70620F0012B022B032B11F58F8974
:101ED000988DA98DBA8D8E839F83A887B9878E012F
:101EE0000A5F1F4FC114D104E104F10409F4ADCF1E
:101EF0004E815F816885798598018B8D9C8D0E94CC
:101F0000BA0D91E0C91AD108E108F1088111EACFB0
:101F100081CFC41AD50AE60AF70AE1CF3F924F9261
:101F20005F926F927F928F929F92AF92BF92CF9269
:101F3000DF92EF92FF920F931F93CF93DF93CDB772
:101F4000DEB72C970FB6F894DEBF0FBECDBF5C0195
:101F5000DC015B968D909C905C9716964D905D9001
:101F60006D907C901997411451046104710409F437
:101F700068C0BFEF4B1A5B0A6B0A7B0A312CF40175
:101F800081859285A385B4859C01AD012F5F3F4F6C
:101F90004F4F5F4F29873A874B875C8773016201F8
:101FA0001D821E821F821886F40181859285A38579
:101FB000B4852D813E814F815885281739074A07FE
:101FC0005B0708F056C089859A85AB85BC858C1562
:101FD0009D05AE05BF0550F482E0C82ED12CE12C42
:101FE000F12C92E0492E512C612C712C9E012F5F17
:101FF0003F4FB701A601C4010E94BA0D8823C9F161
:1020000089819A81AB81BC81892B8A2B8B2B09F129
:10201000260137019FEF491A590A690A790A2D8169
:102020003E814F8158852F5F3F4F4F4F5F4F2D832C
:102030003E834F8358873FEFC31AD30AE30AF30A5C
:10204000B3CFF40140805180628073803324339495
:1020500096CFC414D504E604F70409F70FEF1FEF79
:102060002FEF3FE0B701A601C4010E94180D8111B6
:1020700019C080E02C960FB6F894DEBF0FBECDBF1E
:10208000DF91CF911F910F91FF90EF90DF90CF9054
:10209000BF90AF909F908F907F906F905F904F9088
:1020A0003F900895D50116964D915D916D917C916B
:1020B0001997411551056105710539F097018601A0
:1020C000C4010E94180D8823A1F2D5011696CD9265
:1020D000DD92ED92FC921997332051F0D701C601A1
:1020E0000196A11DB11DF40180839183A283B38366
:1020F000F5018789908DA18DB28D892B8A2B8B2B31
:1021000039F48481C78AD08EE18EF28E8068848310
:10211000F50184818062848381E0ACCF1F93CF93EB
:10212000DF93FC0125812223D1F1162FEC0184815C
:1021300087FF2AC0668577858089918941E00E9462
:10214000A50B882361F1EA8980E2E89FF001112460
:10215000E158F34F309719F18D81823040F48B892B
:102160009C89AD89BE89848F958FA68FB78F8F8903
:10217000988D938F828F8F89988DA98DBA8DB58B0D
:10218000A48B8C818F778C83111103C08C818F7EFF
:102190008C83812FDF91CF911F910C947A0B80E07B
:1021A000DF91CF911F910895FF920F931F93CF93CB
:1021B000DF93EC018D81813041F090E080E0DF9190
:1021C000CF911F910F91FF9008958C8181FFF5CFE2
:1021D00082FD1BC00091760C1091770CC8010E9403
:1021E000D3090E947B09F82EC8010E944E088FEF88
:1021F000F812E3CF8C8185FF1BC060E0CE010E9406
:102200008E108C818F7D8C83D8CF4B895C896D89B2
:102210007E898A859B85AC85BD8584179507A60731
:10222000B707C1F2CE010E94FA0E8111D3CFC5CFFC
:102230004091200B5091210B6091220B7091230B48
:10224000452B462B472B21F080E00E94560BB5CF43
:1022500080618C832A853B85317080E092E0821B0F
:10226000930BADCFCF93DF93EC0161E00E948E1012
:10227000882311F01D8281E0DF91CF9108952F9284
:102280003F924F925F926F927F928F929F92AF9206
:10229000BF92CF92DF92EF92FF920F931F93CF9353
:1022A000DF9300D01F921F92CDB7DEB77C015B0198
:1022B000342E5D83DC0115968C911597813009F0E1
:1022C000CEC014962C9021FECAC022FCB4C0C32CF0
:1022D000DD8022947FE027222094B22DB1702B2E36
:1022E000D7011A964D915D916D917C911D97C11406
:1022F000D10409F428C15B968D919C915C97FC01F7
:1023000074807A948A019B0169E036952795179528
:1023100007956A95D1F770228A011170711020C05B
:1023200001151105E9F416964D915D916D917C9121
:102330001997411551056105710509F099C0579626
:102340008D919D910D90BC91A02D0097A105B10597
:1023500009F0B0C0C7010E948E0F882309F47FC026
:1023600080E092E0801B910B46018C159D0508F4DE
:102370004C01D7015B964D915C915C9716968D91BF
:102380009D910D90BC91A02D0297A109B109FA0170
:10239000258504C0880F991FAA1FBB1F2A95D2F755
:1023A0004685578560897189840F951FA61FB71FC1
:1023B0009C01AD01270D311D411D511D29013A011F
:1023C000811432E0930609F07BC080911C02909149
:1023D0001D02A0911E02B0911F0284159505A6054D
:1023E000B70559F48FEF9FEFDC0180931C029093A7
:1023F0001D02A0931E02B0931F02022D9501B3018E
:10240000A2018091760C9091770C0E94E80A8823B3
:1024100031F19EEFB91AC818D908F7018285938562
:10242000A485B585880D991DA11DB11D828793874F
:10243000A487B58755CFF701438954896589768983
:1024400082859385A485B585481759076A077B0758
:1024500009F43DCFC7010E94FA0E811138CF81E007
:1024600090E0D70113969C938E93129780E007C05B
:102470009E012F5F3F4F0E94BA0D811102C090E074
:1024800079C089819A81AB81BC81F701238D348D1C
:10249000F901278948EF5FEF60E070E0203121F01B
:1024A00048EF5FEF6FEF7FE084179507A607B70748
:1024B00008F050CFF70186839783A087B18750CF6C
:1024C0000115110599F5D7011A964D915D916D9100
:1024D0007C911D9753968D919D910D90BC91A02D4F
:1024E000481759076A077B0708F181E00E947A0BB9
:1024F000882309F4B4CF40921C0250921D026092CE
:102500001E0270921F0280917E0C816080937E0C6F
:10251000C8018158934FD5019C01280D391DFC013C
:102520002E173F0759F04D914193FACF41E0C30177
:10253000B2010E94A50B8111EBCF91CF281B390B63
:10254000A20EB31E68CFF70183899489A589B68945
:1025500084179507A607B70738F48481438B548BFB
:10256000658B768B80688483F701848183FD1AC034
:10257000832D9D810F900F900F900F900F90DF9102
:10258000CF911F910F91FF90EF90DF90CF90BF9070
:10259000AF909F908F907F906F905F904F903F9003
:1025A0002F90089561E0C7010E948E10882309F4DE
:1025B00056CFDECFCF93DF931F92CDB7DEB76983BF
:1025C00041E050E0BE016F5F7F4F0E943F110F90CE
:1025D000DF91CF910895FC01DB0112968D919C91C2
:1025E0001397938382838CE293E091838083149684
:1025F0008C911497848315968C91159785831696E4
:102600004D915D916D917C911997468357836087B9
:1026100071871A964D915D916D917C911D974287BE
:102620005387648775871E964D915D916D917C915E
:10263000519746875787608B718B52968C91529732
:10264000828B53964D915D916D917C915697438B02
:10265000548B658B768B57964D915D916D917C91E6
:102660005A97478B508F618F728F5B968D919C919B
:10267000948F838F0895FC01818D928D009719F0BE
:1026800061E00C948E100895DC015996ED91FC9157
:102690003097B9F083899489A589B6894285538595
:1026A00064857585841B950BA60BB70B811520E8F7
:1026B0009207A105B10538F08FEF9FE7A0E0B0E0E9
:1026C000089590E080E00895DC0159968D919C91E9
:1026D000009739F0DC01ED91FC910480F581E02D4B
:1026E000199490E080E00895CF93DF93EC01E98D99
:1026F000FA8D309749F481E090E09B838A8390E0E3
:1027000080E0DF91CF91089513821282898D9A8D96
:102710000E943F11E98DFA8D22813381232B59F7D5
:10272000F0CFCF93DF931F92CDB7DEB76983DC0183
:10273000ED91FC910280F381E02D41E050E0BE017B
:102740006F5F7F4F19950F90DF91CF9108952F9272
:102750003F924F925F926F927F928F929F92AF9231
:10276000BF92CF92DF92EF92FF920F931F93CF937E
:10277000DF9300D0CDB7DEB7FC018581811118C091
:102780008FEF9FEF0F900F900F90DF91CF911F91E0
:102790000F91FF90EF90DF90CF90BF90AF909F9000
:1027A0008F907F906F905F904F903F902F90089503
:1027B000848180FFE5CF4389548965897689828544
:1027C0009385A485B585312C212C481759076A07B4
:1027D0007B0719F022242394312C6F012101CE01B3
:1027E00001963C01DF011696BB83AA834114510474
:1027F00009F4C5C0F60142855385648575854A0193
:10280000F1E09F22D6015B968D919C915C978A01A5
:102810009B01E9E03695279517950795EA95D1F73D
:102820001596EC91E230E9F5FC01628D738D848D93
:10283000958D600F711F821F931FA12C22E0B22E75
:10284000A818B9084A145B0408F45201F60124815F
:1028500026FD04C0A114F2E0BF0671F400911C0231
:1028600010911D0220911E0230911F0206171707BA
:102870002807390709F05EC040E00E94A50B8823B5
:1028800009F47ECFC4018158934FD3019C012A0DD6
:102890003B1DFC012E173F0709F46CC041914D937D
:1028A000F9CFDC011496BC90BA94B0228114910443
:1028B00079F4B1100DC0452B462B472B69F5F60175
:1028C0008789908DA18DB28D86839783A087B187EC
:1028D000D6015B96ED91FC915C9716966D917D917A
:1028E0008D919C91199762507109810991092585F3
:1028F00004C0660F771F881F991F2A95D2F7068597
:10290000178520893189600F711F821F931F6B0DFE
:10291000711D811D911D91CFD60116964D915D912E
:102920006D917C9119972A813B810E94BA0D81118A
:10293000CFCF26CF730185019401AB01BC018091FB
:10294000760C9091770C0E94460A882309F418CFE0
:102950006A0C7B1CF60182859385A485B5858A0D5A
:102960009B1DA11DB11D82879387A487B5874A1837
:102970005B083CCF281B390B620E731EEBCF2A94E9
:10298000232809F0FDCE898190E0FCCEFC01818DE9
:10299000928D009711F00C94A7138FEF9FEF08957D
:1029A0000F931F93CF93DF93EC01898D9A8D10E0E5
:1029B00000E0009799F00E94A7138C010F3F1007C9
:1029C00069F0898D9A8DFC014285538564857585F2
:1029D00041505109610971090E94FA0EC801DF9145
:1029E000CF911F910F910895CF93CFB7F894809115
:1029F0001E0B811127C0E3EAF3E08491E3E4F3E0E6
:102A00009491E82FF0E0EE0FFF1FEC56FD4FA591DB
:102A1000B491EC91E92321F461E085E30E9437044D
:102A200061E085E30E9465048CB580618CBD8CB546
:102A300080648CBD61E084E30E94650461E083E30F
:102A40000E94650480911E0B8F5F80931E0BCFBF89
:102A5000CF910895CF93DF93C6E7D2E08881229685
:102A600060E00E94370482E0C638D807B9F7C6E8AC
:102A7000D2E08881229670E060E00E94960482E0B5
:102A8000CA39D807B1F760E08FE1DF91CF910C949C
:102A900037048AE10E940E04892B49F06CE271E050
:102AA00080E090E00E94920590E080E0089588E147
:102AB0000E940E04892B49F06CE271E080E090E006
:102AC0000E94920581E090E0089586E10E940E0444
:102AD000892B49F06CE271E080E090E00E94920561
:102AE00082E090E008958CE10E940E04892B49F069
:102AF0006CE271E080E090E00E94920583E090E05B
:102B000008950895FC01768765870895DC01ED91AD
:102B1000FC91068CF78DE02D199591E08927089599
:102B2000862F089581E08627089521E0FC018485A1
:102B3000883008F020E0822F089590E080E008952A
:102B40000F931F93CF93DF93EC0180E2689FF00116
:102B50001124E158F34F6A8B80911C0290911D0261
:102B6000A0911E02B0911F028E879F87A88BB98B00
:102B70000489158930E020E09801112700270F8B88
:102B8000188F298F3A8F828D938DB0E0A0E0AC0131
:102B9000BD01402B512B622B732B4F8B588F698FAC
:102BA0007A8F83858871A9F4848D958DA68DB78DD4
:102BB0008B8B9C8BAD8BBE8B81E08D8381E08C8376
:102BC0001E821F82188619861A861B861C861D8601
:102BD00003C0803131F080E0DF91CF911F910F91E0
:102BE00008959E012D5E3F4F8B8D9C8D0E943B0E64
:102BF000882389F384E0E1CF0F931F93CF938C0157
:102C0000C62F0E9466076C2F6460C8010E94660789
:102C10006C2F6B7FC8010E94660783EC90E00197E0
:102C2000F1F7CF911F910F9108950F931F93CF93B9
:102C3000DF938C01D62FC42F607F642B0E94FC157C
:102C400080E1D89FB00111246C2BC801DF91CF9196
:102C50001F910F910C94FC15CF93DF9300D000D0FF
:102C60001F921F92CDB7DEB798E0EAE2F2E0DE01F4
:102C7000119601900D929A95E1F79091DE0F9617BB
:102C800010F46FEF690F262F30E0220F331F41E061
:102C900050E04C0F5D1F240F351FF9016081680F54
:102CA000606840E086ED9FE028960FB6F894DEBF9E
:102CB0000FBECDBFDF91CF910C94151640E061E0BF
:102CC00086ED9FE00E9415168BE39FE10197F1F7D7
:102CD000089541E00E94151681E090E00895AF92BA
:102CE000BF92CF92DF92EF92FF920F931F93CF93F9
:102CF000DF9300D01F92CDB7DEB78C016B017A0154
:102D000080917B0C8333E9F45B016801C40ED51E0E
:102D1000C016D106A9F10E94F6058FE00E9459085D
:102D2000812F0E945908802F0E9459080F5F1F4F62
:102D300080E00E945908F50181935F010E94EC0533
:102D4000E7CF843369F50E94F60519830A838F2D36
:102D50008F778B83EC8264E070E0CE0101960E9455
:102D6000D205A70170E060E0C6010E943641E1147F
:102D7000F10421F0B701C6010E94D2050E94EC05C2
:102D8000C7010F900F900F900F90DF91CF911F917F
:102D90000F91FF90EF90DF90CF90BF90AF9008958C
:102DA0000E94F6050F3F110509F030F419820A83DD
:102DB0001B8263E070E0D1CF17FD0BC019820A833C
:102DC00033E0169507953A95E1F7007E08600B838E
:102DD000F0CFC80126E0969587952A95E1F7807E89
:102DE00019830A830115104C18F480618B83E1CF9D
:102DF0008861FCCFCF93DF931F92CDB7DEB72091D0
:102E00007C0C30E0322F2227260F371F90E0982FBE
:102E1000882741E050E0BE016F5F7F4F820F931F14
:102E20000E946F1689810F90DF91CF910895CF9303
:102E3000C82F462F61E070E00E945E0961E070E0FB
:102E40008C2F0E94FA168111F9CFCF910895CF935C
:102E5000C82F80E591E00E94990968E070E08C2F0E
:102E6000CF910C941717CF93C82F80E591E00E9463
:102E7000990960E170E08C2FCF910C941717CF93D4
:102E8000DF93EC01888D883020F40E94331788E0AE
:102E9000888FDF91CF91089563E070E00C94FA166B
:102EA000CF93C82F80E591E00E9499098C2FCF9194
:102EB0000C944C17EF92FF920F931F93CF93DF93D5
:102EC0007C0180917B0CD4E0833309F0D8E006E6E6
:102ED0001CE0C0E0F801219131918F01F70184815C
:102EE00095812817390729F0CF5FDC13F3CF80E0F5
:102EF00006C08C2F0E9450178431B1F781E0DF911A
:102F0000CF911F910F91FF90EF900895CF93DF9392
:102F1000EC018C858830D0F40E945017843189F000
:102F2000882379F0883169F021E08C3159F4E88107
:102F3000F9810084F185E02DCE01199521E0892BDE
:102F400009F420E0822FDF91CF91089580E0FBCF3C
:102F5000CF92DF92EF92FF92CF93DF93EC018C85BB
:102F6000883068F40E9427170E94C5056B017C0118
:102F70008C850E945017811109C088E08C87DF91F1
:102F8000CF91FF90EF90DF90CF90089561E070E0D7
:102F900080E090E00E9492050E94C505AB01BC0153
:102FA0004C195D096E097F098D859E85B0E0A0E012
:102FB000481759076A077B07D8F28C850E94331798
:102FC000DCCFCF93FC01C08D80E591E00E94990990
:102FD00060E270E08C2F0E94171762E070E08C2F87
:102FE0000E94FA1684FD16C062E070E08C2F0E94E9
:102FF000FA1683FF0AC048E162E070E08C2F0E945D
:103000005E0980E090E0CF91089580E591E00E9414
:103010009909E3CF40E162E070E08C2F0E945E09E5
:1030200081E0F0CFCF93DF931F92CDB7DEB741E0C1
:1030300050E0BE016F5F7F4F90E080E00E946F160E
:1030400089810F90DF91CF910895CF93DF93C4E1F1
:10305000D0E00E941218882361F061E070E080E007
:1030600090E00E9492052197A1F780E0DF91CF9137
:10307000089581E0FBCFCF92DF92EF92FF921F93F2
:10308000CF93DF93CDB7DEB7C454D1090FB6F89410
:10309000DEBF0FBECDBFFC014281538164817581CB
:1030A00023964CAF5DAF6EAF7FAF239781E0239641
:1030B0008FAF23972396CCACDDACEEACFFAC23975F
:1030C000CBAADCAAEDAAFEAA4DA75EA76FA778AB94
:1030D00088ABCDA4DEA4EFA4F8A8CFA2D8A6E9A619
:1030E000FAA68EABCBA8DCA8EDA8FEA8C9A2DAA2EE
:1030F000EBA2FCA226E533E03C8B2B8B9FEF9D8B54
:103100009E8B9F8B188E3E872D878AA7CFA0D8A431
:10311000E9A4FAA4CF86D88AE98AFA8A8CA389A17D
:103120009AA1ABA1BCA189879A87AB87BC873A8358
:1031300029834B835C836D837E8380917D0C811119
:103140006CC060E372E080E090E00E9492050E9413
:10315000F414E8E7F3E0E491F0E0EE0FFF1FEC5A1F
:10316000FC4F8591949190937A0C8093790CE8E1CF
:10317000F3E0E491E093780C61E08AE00E9465045A
:103180000E94EC0580E591E00E94990984E3809318
:103190007B0C80E80E940E090E942518882309F400
:1031A00072C088E00E940E090E941218883009F04F
:1031B0006AC080E10E940E090E941218803109F055
:1031C00062C080E00E940E090E941218182F81111F
:1031D0005AC041E050E0BE016D5B7F4F8FE190E04F
:1031E0000E946F1624968FAD2497833009F04BC050
:1031F00080E480937C0C42E06EE170E0812F0E94BD
:103200005E0942E06FE170E0812F0E945E091F5F5E
:10321000183089F781E080937D0C80E591E00E9471
:10322000990946E050E066E172E089E090E00E9492
:10323000600844E050E0BE016D5F7F4F8FE090E09A
:103240000E94600844E050E0BE01615F7F4F81E072
:1032500090E00E94600844E050E0BE016B5E7F4F4A
:1032600085E090E00E94600881E08C8789859A85DE
:10327000AB85BC8580933C0F90933D0FA0933E0F90
:10328000B0933F0F6FC087E380937B0C80E80E9470
:103290000E090E942518882339F188E00E940E0942
:1032A0000E941218883001F580E10E940E090E94E8
:1032B0001218182F8031C1F480E00E940E090E947C
:1032C0001218811111C041E050E0BE016D5B7F4FCB
:1032D00089E390E00E946F1624968FAD2497843086
:1032E00019F410937C0C96CF83E380937B0C80E8D9
:1032F0000E940E090E942518882391F180E10E9406
:103300000E090E941218803159F582E10E940E09BF
:103310000E941218823121F580E00E940E090E945D
:10332000121881111DC084E080937C0C15E5259650
:103330001FAF259741E050E0BE016C5B7F4F8BE1F2
:1033400090E00E94600824961FAF249741E050E06F
:10335000BE016D5B7F4F8AE190E00E9460085ACF0A
:1033600010927B0CCC5BDF4F0FB6F894DEBF0FBE24
:10337000CDBFDF91CF911F91FF90EF90DF90CF9065
:1033800008951F93CF93DF931F92CDB7DEB7182F09
:1033900080E591E00E949909812F0E94010627E0B3
:1033A000129FF0011124E25DF34F228133813770C7
:1033B00041E050E0BE016F5F7F4F820F931F0E947C
:1033C0006F1689810F90DF91CF911F910895FC01B5
:1033D000808D883040F4218D328D232B21F00E9486
:1033E000C11990E008958FEF9FEF0895CF93DF9379
:1033F000FC012485283028F08FEF9FEFDF91CF91DB
:103400000895EC010190F081E02D0084F185E02D1C
:103410001995892B89F38C850E94C11990E0EECF14
:10342000DA01E0917C0CF0E0FE2FEE27E60FF71FAB
:1034300090E0982F8827A901BD018E0F9F1F0C9443
:103440006F168F929F92AF92BF92CF92DF92EF92C0
:10345000FF920F931F93CF93DF93CDB7DEB76097A3
:103460000FB6F894DEBF0FBECDBF7C0190917B0CF0
:10347000911115C018E0812F60960FB6F894DEBF49
:103480000FBECDBFDF91CF911F910F91FF90EF90B5
:10349000DF90CF90BF90AF909F908F90089508E0FD
:1034A000933309F404E06B0180E591E00E949909EF
:1034B0009E012F5F3F4F5901490110E0812F0E946B
:1034C0004C17F40181934F018823C1F01F5F011352
:1034D000F5CF00E0F50181915F018D3149F0883130
:1034E00039F08A51823020F00F5F1013F3CFC2CF32
:1034F00060E170E0802F0E941717102FA12EB12CD1
:10350000F501EE0FFF1FEA59F34F1182108283EE8F
:1035100093E00197F1F742E870E060E0812F0E94AC
:103520005E094FEF62E070E0812F0E945E09B601F4
:10353000C114D10491F48091140290911502019666
:103540008115F0EC9F0708F45CC0909315028093FE
:1035500014026091140270911502812F0E94480993
:1035600086E0E2E3F2E0DE01199601900D928A9581
:10357000E1F7F70183818F778C8784818D8785813F
:103580008E87A7014E5F5F4F24E030E06CE070E073
:10359000812F0E942109B601812F0E94320926E065
:1035A00030E0AE01475F5F4F66E070E0812F0E9420
:1035B000210961E070E0812F0E94171727E02A9D02
:1035C000C0012B9D900D11249C01225D334F790188
:1035D000F9011182108222E030E0AE01415F5F4FBD
:1035E00068E270E0812F0E94101A8F8598899827D1
:1035F00089279827F7019383828316821582148284
:103600003ACF80E090ECA1CFCF92DF92EF92FF9281
:103610000F931F93CF93DF9300D000D0CDB7DEB7C9
:103620008C016B017A01FC01808D883010F40E94BE
:10363000331786E593E09A838983F601828193812B
:10364000A481B5818B839C83AD83BE83B701CE01FA
:1036500001960E94211AF801808F8830A0F4F58627
:10366000E486128E118E81E026960FB6F894DEBFA6
:103670000FBECDBFDF91CF911F910F91FF90EF90C3
:10368000DF90CF90089580E0EFCF7F928F929F924E
:10369000AF92BF92CF92DF92EF92FF920F931F9360
:1036A000CF93DF931F921F92CDB7DEB7782E8B0199
:1036B0004A01590122E030E0AE014F5F5F4F64E202
:1036C00070E00E94101AE980FA80FE24EF24FE24A4
:1036D000E00EF11E9701377040917B0C072D10E032
:1036E000433309F042C0085F1F4F102F0027110F0E
:1036F000110F110FC901800F911F4733C9F1A901A3
:103700004A0D5B1D4130584098F160E078E06B0154
:10371000C21AD30AA601B4010E946008A5014C197F
:103720005D09B4016C0D7D1DC8010E946008EA0CA2
:10373000FB1CF982EA8222E030E0AE014F5F5F4F6E
:1037400064E270E0872D0E9421090F900F90DF91B5
:10375000CF911F910F91FF90EF90DF90CF90BF908E
:10376000AF909F908F907F900895005F1F4FBDCFC7
:10377000A501B401DACFEF92FF921F93CF93DF93AD
:103780001F921F92CDB7DEB7182F22E030E0AE01B6
:103790004F5F5F4F60E270E00E94101AE980FA808C
:1037A000FE24EF24FE2422E030E0AE014F5F5F4FA5
:1037B00060E270E0812F0E94101A89819A81982717
:1037C00089279827E816F90689F487E0189FF00101
:1037D0001124E25DF34FF582E482C7010F900F9050
:1037E000DF91CF911F91FF90EF9008957C01DBCF87
:1037F0001F93CF93DF93182F80E591E00E949909E2
:10380000812F0E94BB1BEC01812F0E944C17873136
:1038100021F08C3111F0D0E0C0E0CE01DF91CF91EA
:103820001F910895CF93DF93EC018C85883060F46D
:103830000E945017873111F08C3131F48C850E9431
:10384000F81B8115984088F3DF91CF910895FC0112
:103850008485883010F40C94F81B90E080E0089583
:10386000CF92DF92EF92FF921F93CF93DF93182FA7
:103870007B01EA014130584010F0C0E0D8E080E51B
:1038800091E00E949909812F0E94BB1B6C01812F3E
:103890000E944C17873111F08C3121F5CC16DD06D2
:1038A00070F380E591E00E9499099E01A70170E004
:1038B00060E0812F0E94451B60E270E0812F0E9432
:1038C000171762E070E0812F0E94FA1684FD0DC088
:1038D000812F0E944C178823B9F080E591E00E9467
:1038E0009909EFCFD0E0C0E0DCCF40E162E070E0CA
:1038F000812F0E945E09CE01DF91CF911F91FF9031
:10390000EF90DF90CF900895D0E0C0E0F4CF0F9318
:103910001F93CF93DF938C01EA01FC0184858830EB
:1039200048F40E94301C892B39F481E090E0F801C2
:1039300093838283D0E0C0E0CE01DF91CF911F91CD
:103940000F9108959F92AF92BF92CF92DF92EF9224
:10395000FF920F931F93CF93DF938C015B01942E03
:10396000E52EFC01C688D788F08C80E591E00E94A6
:1039700099098F2D0E94BB1BC92DDE2D8C179D0729
:1039800008F4EC019E01A501B6018F2D0E94451B94
:10399000F801868997898C0F9D1F978B868BCE01A6
:1039A000DF91CF911F910F91FF90EF90DF90CF901B
:1039B000BF90AF909F900895FF920F931F93CF9366
:1039C000DF931F921F92CDB7DEB7F82E22E030E0D2
:1039D000AE014F5F5F4F66E270E00E94101A0981EE
:1039E0001A8110270127102722E030E0AE014F5F37
:1039F0005F4F66E270E08F2D0E94101A89819A81D4
:103A00009827892798270817190749F4C8010F90A4
:103A10000F90DF91CF911F910F91FF9008958C012E
:103A2000E3CF1F93CF93DF93182F87E0189FE00118
:103A30001124C25DD34F88819981009761F480E59C
:103A400091E00E949909812F0E94DC1C2E81821B2B
:103A5000910999838883DF91CF911F9108959F9257
:103A6000AF92BF92CF92DF92EF92FF920F931F938C
:103A7000CF93DF93EC017B0180917B0C811121C0FE
:103A80001B821A8288EE93E0A0E0B0E08C839D83D5
:103A9000AE83BF8382EB92E09983888388E08C8732
:103AA00088EE93E09E878D87CE01DF91CF911F91A5
:103AB0000F91FF90EF90DF90CF90BF90AF909F90CD
:103AC000089534E0932E833311F028E0922E86E699
:103AD000C82E8CE0D82E10E098E0B92EA12CD6018B
:103AE0002D913D916D01F70184819581281739074A
:103AF00091F4812F0E945017082F873111F08C31DB
:103B000039F5812F0E94111D892B59F50C3119F4BB
:103B1000812F0E9427171F5F9112E1CFA11008C0CB
:103B2000D701ED91FC910084F185E02DC701199535
:103B30001B821A8288EE93E0A0E0B0E08C839D8324
:103B4000AE83BF8382EB92E099838883BC86A8CF43
:103B5000843149F08111DFCFF60132971182108252
:103B6000DACFB12ED8CFAA24A394D5CF8F929F922B
:103B7000AF92BF92CF92DF92EF92FF920F931F937B
:103B8000CF93DF93CDB7DEB72F970FB6F894DEBF94
:103B90000FBECDBF5C014B017A0180917B0C882365
:103BA000C9F104E0833309F008E0B501CE010196C4
:103BB0000E942F1D86E6C82E8CE0D82E10E0F6015C
:103BC000219131916F01F501848195812817390781
:103BD00051F4812F0E945017873129F4A701B401B5
:103BE000812F0E94301C1F5F0113E9CFC7012F9660
:103BF0000FB6F894DEBF0FBECDBFDF91CF911F91FE
:103C00000F91FF90EF90DF90CF90BF90AF909F907B
:103C10008F900895F12CE12CE9CFFC018485883048
:103C200010F40C94111D90E080E008954F925F9283
:103C30007F928F929F92AF92BF92CF92DF92EF923C
:103C4000FF920F931F93CF93DF931F921F92CDB7D5
:103C5000DEB7782E6B014A01A82EB12C27E0829F97
:103C6000C0011124FC01E25DF34F7F01008111814D
:103C700080E591E00E9499090815190554F4872DF3
:103C80000E94DC1CF70126818C01021B11091183A3
:103C900000830115110519F5872D0E944C178431F9
:103CA00059F0882349F001E010E08C3111F410E064
:103CB00000E0119501951109C8010F900F90DF9157
:103CC000CF911F910F91FF90EF90DF90CF90BF9019
:103CD000AF909F908F907F905F904F900895801647
:103CE00091060CF4840187E08A9DF0018B9DF00D14
:103CF0001124E25DF34FE280F380C114D10451F14D
:103D00002701F7E05F22872D0E940106840D951D93
:103D100020917B0C273309F453C09801240D351DE5
:103D20002130384008F44CC020E038E049018418C4
:103D30009508A401B6010E946F162601480C591C73
:103D40006801C818D908872D0E940106A601B20192
:103D50000E946F16E00EF11E87E08A9DF0018B9D98
:103D6000F00D1124E25DF34FF382E2822081318174
:103D7000201B310B318320838681800F912F911D71
:103D80008A3F910510F4232BF1F487E08A9DF0011E
:103D90008B9DF00D1124E25DF34F1682F982EA82C9
:103DA00022E030E0AE014F5F5F4F68E270E0872DA8
:103DB0000E94210960E470E0872D0E9417177CCFD4
:103DC000A801B601C5CF868377CFCF93DF93FC01DF
:103DD000218D328D2115310529F48FEF9FEFDF9171
:103DE000CF910895EC01808D4217530708F0A90187
:103DF0000E94161E1816190684F7298D3A8D281B65
:103E0000390B3A8F298FEBCF0F931F93CF93DF930B
:103E10001F92CDB7DEB7FC01218D328D232B41F4EB
:103E20008FEF9FEF0F90DF91CF911F910F9108952A
:103E30008C0141E050E0BE016F5F7F4FFC01808D3F
:103E40000E94161E181619065CF7F801818D928DD6
:103E50000197928F818F898190E0E4CFCF93DF9398
:103E60001F92CDB7DEB741E050E0BE016F5F7F4FDC
:103E7000FC0184850E94161E1816190634F48981E7
:103E800090E00F90DF91CF9108958FEF9FEFF9CFE2
:103E9000FC018485883010F40C94161E90E080E0BC
:103EA00008958F929F92AF92BF92CF92DF92EF923E
:103EB000FF920F931F93CF93DF9300D000D000D0D9
:103EC0001F92CDB7DEB790917B0C911115C018E011
:103ED000812F2A960FB6F894DEBF0FBECDBFDF91BB
:103EE000CF911F910F91FF90EF90DF90CF90BF90F7
:103EF000AF909F908F90089528E0F22E933311F4A5
:103F000094E0F92E6B01082F80E591E00E94990959
:103F10009E012F5F3F4F5901490110E0812F0E9400
:103F20004C17F40181934F018823C1F01F5FF112F8
:103F3000F5CFF12CF50191915F019D3149F0983158
:103F400039F09A51923020F0F3941F11F3CFBFCF84
:103F500060E170E08F2D0E9417171F2DE12EF12CCC
:103F6000F701EE0FFF1FEA59F34F1182108283EE23
:103F700093E00197F1F7402F70E060E0812F0E94FD
:103F80005E094FEF62E070E0812F0E945E09B6018A
:103F9000CD2889F480911402909115020196811523
:103FA000F0EC9F0798F190931502809314026091B2
:103FB000140270911502812F0E94480961E070E09F
:103FC000812F0E94171727E02E9DC0012F9D900D75
:103FD00011249C01225D334F7901F9011182108275
:103FE00022E030E0AE01475F5F4F68E270E0812F72
:103FF0000E94101A89859A85982789279827F701A2
:104000009383828316821582148262CF80E090ECC3
:10401000CACF0F931F93CF93DF93EC018B01888D51
:10402000883010F40E943317B80182E00E94511FBB
:10403000888F883050F41D870C871A8E198E81E086
:10404000DF91CF911F910F91089580E0F9CF0F93E9
:104050001F93CF938C01FC016481758181E20E94E2
:10406000511FC82F8830F8F480E591E00E9499092B
:104070008C2F0E944C17833131F08C2FCF911F91E0
:104080000F910C94271762E070E08C2F0E94171795
:10409000F80184819581EC2FF0E0EE0FFF1FEA59C3
:1040A000F34F91838083CF911F910F910895CF9209
:1040B000DF92EF92FF921F93CF93DF93EC017B018E
:1040C0006A018C85883048F40E945017882319F0C3
:1040D0008C850E94271788E08C87F7018281938165
:1040E000A481B5810097A105B10551F490E080E06D
:1040F000DF91CF911F91FF90EF90DF90CF900895C7
:104100008F3F9F4FAF4FBF4F89F370E060E081E278
:104110000E94511F182F8C87883040F780E591E06E
:104120000E949909A7014E5F5F4F24E030E06CE0E8
:1041300070E0812F0E942109B601812F0E9432096F
:1041400064E070E0812F0E9417170E94C5056B0183
:104150007C018C850E945017873111F18C3101F15F
:10416000882321F20E94C505AB01BC014C195D09F1
:104170006E097F098D859E85B0E0A0E084179507C4
:10418000A607B70738F061E070E080E090E00E9499
:104190009205DFCF8C850E94331788E08C87A6CFED
:1041A00081E090E0A5CF0F931F93CF93DF931F92F1
:1041B0001F92CDB7DEB7FC0124852830E0F48C01D6
:1041C00080E591E00E94990922E030E0AE014F5F66
:1041D0005F4F60E170E0F80184850E94101A8981C8
:1041E0009A819827892798270F900F90DF91CF9178
:1041F0001F910F91089590E080E0F6CF0F931F93E9
:10420000CF93DF931F921F92CDB7DEB7FC012485B9
:104210002830E0F48C0180E591E00E94990922E0C9
:1042200030E0AE014F5F5F4F64E070E0F8018485DD
:104230000E94101A89819A819827892798270F90C0
:104240000F90DF91CF911F910F91089590E080E042
:10425000F6CFAF92BF92CF92DF92EF92FF920F9381
:104260001F93CF93DF9300D000D000D01F921F92F6
:10427000CDB7DEB76C01FE013196CE010C967F0101
:1042800020E22193E817F907E1F7DA0120E037E0AF
:104290009D91B92E9923A9F19E32B9F43A3091F447
:1042A00080E02B960FB6F894DEBF0FBECDBFDF9136
:1042B000CF911F910F91FF90EF90DF90CF90BF9023
:1042C000AF90089528E03AE0E3CFE4EBF3E0849187
:1042D000882321F031969813FACFE2CF321700F3FA
:1042E0008FED890F8E35E0F68FE9890F8A3118F44A
:1042F00040EEB42EB90EF701E20FF11DB0822F5F30
:10430000C7CF8981803261F28B01FB01838D948D4F
:10431000F601948F838FFB01168217821086118617
:104320001286138614861586F80182859385A485E6
:10433000B585438954896589768984179507A607C9
:10434000B70708F0ADCF25E0B695A7959795879567
:104350002A95D1F7F82FFF70AF2EF80185818230B2
:1043600008F49ECFC8010E94A71397FD99CFF801CA
:1043700082859385A485B5854F96A11DB11D828741
:104380009387A487B587F0E2AF9EB00111246158EE
:10439000734F6115710509F483CFFB018081882378
:1043A00009F1853E19F4B11032C01EC04BE050E057
:1043B000C7010E942041892B09F0B6CF6A2DC601A2
:1043C0002B960FB6F894DEBF0FBECDBFDF91CF9115
:1043D0001F910F91FF90EF90DF90CF90BF90AF9023
:1043E0000C94A015B1105CCFF601A28A80911C023A
:1043F00090911D02A0911E02B0911F02868797879F
:10440000A08BB18BFB018081882309F449CFBB24A9
:10441000B3948ACFFC0180819181009711F00C94B4
:10442000B13F0895CF93DF932091B90F3091BA0F28
:10443000232B89F0FC01C091B50FD091B60F60819C
:104440007181CE010E945E41009729F08C1B9D0B6B
:10445000DF91CF9108958FEF9FEFFACF0E941B411C
:10446000FB0101900020E9F73197AF01461B570B84
:10447000DC01ED91FC910280F381E02D19948F9283
:104480009F92AF92BF92EF92FF920F931F93CF93A1
:10449000DF93CDB7DEB7A1970FB6F894DEBF0FBE9E
:1044A000CDBF7C01FA01CB0119A2223008F42AE029
:1044B0008E010F5D1F4F822E912CB12CA12CBF01BC
:1044C000A50194010E94D53EF901CA016A300CF59C
:1044D000605DD8016E938D01232B242B252B79F75A
:1044E00090E080E0109721F0BD01C7010E943022CA
:1044F000A1960FB6F894DEBF0FBECDBFDF91CF916E
:104500001F910F91FF90EF90BF90AF909F908F9071
:104510000895695CDECFCF92DF92EF92FF920F9306
:104520001F93CF93DF936B01770FEE08FF08F7FE21
:104530001BC0EC016DE20E946C028C0144275527E0
:10454000BA014C195D096E097F092AE0CE010E946B
:104550003F22800F911FDF91CF911F910F91FF900C
:10456000EF90DF90CF9008952AE0B701A601DF9188
:10457000CF911F910F91FF90EF90DF90CF900C940F
:104580003F22CF93DF93BC018FE79EE00E948B22F6
:10459000EC0168E673E08FE79EE00E9430228C0F0A
:1045A0009D1FDF91CF910895CF93DF93AB01BC01A5
:1045B0002AE08FE79EE00E943F22EC0168E673E06C
:1045C0008FE79EE00E9430228C0F9D1FDF91CF91DC
:1045D00008958F929F92AF92BF92CF92DF92EF9207
:1045E000FF920F931F93CF93DF937C018B016C019C
:1045F00082E0C80ED11C4701E5E08E0E911CD0E090
:10460000C0E0F60141916F0150E070E060E02AE007
:10461000C8010E943F225C016EE2C8010E946C0248
:104620008A0D9B1DC80FD91FC814D90451F7F70173
:10463000458150E070E060E02AE0C8010E943F221E
:104640008C0F9D1FDF91CF911F910F91FF90EF90E5
:10465000DF90CF90BF90AF909F908F9008950F9371
:104660001F93CF93DF93EC010E9430228C0168E608
:1046700073E0CE010E943022800F911FDF91CF9115
:104680001F910F9108950C94302280910E0C63E0DD
:10469000882349F080E00E942C166BE673E086EDDB
:1046A0009FE00C94432380E00E942C1663E773E0A4
:1046B000F6CF4F925F926F927F928F929F92AF92BE
:1046C000BF92CF92DF92EF92FF920E9445230E9409
:1046D000C5054B015C0161E084E20E9437040E9441
:1046E000C505681979098A099B09683E73408105E7
:1046F000910528F486E20E940E04019781F30E943E
:10470000C5056B017C010E94C5052B013C014818C1
:1047100059086A087B0860E084E20E94370488EE4A
:10472000481683E058066104710400F162E080E0FD
:104730000E942C166BE773E086ED9FE00E944323F6
:1047400062E080E00E942C1660E973E086ED9FE055
:10475000FF90EF90DF90CF90BF90AF909F908F90A1
:104760007F906F905F904F900C944323C818D908A6
:10477000EA08FB0862E080E00E942C166CE973E016
:1047800086ED9FE00E94432362E089E00E942C16A0
:104790002AE0B701A601F7FE0DC06DE286ED9FE0AD
:1047A0000E946C0244275527BA014C195D096E0915
:1047B0007F092AE086ED9FE00E943F2263E474E0D7
:1047C000C5CF0E945E1661EB73E086ED9FE00E940C
:1047D00043238091060C60E0882349F081E10E9428
:1047E0002C166CEB73E086ED9FE00C94432382E182
:1047F0000E942C1660EC73E0F6CFCF93DF93EC01B0
:10480000662341F00E945E1663EC73E086ED9FE044
:104810000E94432361E080E00E942C16BE0186EDD9
:104820009FE00E948B22C83ED34044F46EE873E0C0
:1048300086ED9FE0DF91CF910C944323DF91CF91E0
:104840000895CF93DF93EC010E945E1666ED73E04E
:1048500086ED9FE00E94432361E080E00E942C16D9
:10486000BE0186ED9FE0DF91CF910C948B22CF9318
:10487000DF93EC010E945E1669E174E086ED9FE033
:104880000E944323209751F460E083E10E942C169C
:1048900065EE73E086ED9FE00E94432361E080E0D7
:1048A0000E942C166EE574E086ED9FE00E94432383
:1048B000C130D10551F461E083E10E942C1665EE10
:1048C00073E086ED9FE00E94432362E080E00E9457
:1048D0002C166BE674E086ED9FE00E944323C23005
:1048E000D10551F462E083E10E942C1665EE73E07D
:1048F00086ED9FE00E94432363E080E00E942C1637
:104900006FE874E086ED9FE00E944323239761F4F3
:1049100063E083E10E942C1665EE73E086ED9FE074
:10492000DF91CF910C944323DF91CF910895CF93E2
:10493000DF93EC010E945E1667EE73E086ED9FE068
:104940000E944323209751F460E083E10E942C16DB
:1049500065EE73E086ED9FE00E94432380912B0C6F
:1049600090912C0C892B09F046C061E080E00E94F8
:104970002C1663EF73E086ED9FE00E944323C13065
:10498000D10551F461E083E10E942C1665EE73E0DD
:1049900086ED9FE00E94432362E080E00E942C1697
:1049A00063EC73E086ED9FE00E944323C230D105A3
:1049B00051F462E083E10E942C1665EE73E086ED0F
:1049C0009FE00E94432363E080E00E942C1662E097
:1049D00074E086ED9FE00E944323239761F463E037
:1049E00083E10E942C1665EE73E086ED9FE0DF9177
:1049F000CF910C944323DF91CF91089580912B0C9C
:104A000090912C0C8130910509F480C01CF4892B05
:104A100049F008958230910509F47DC0039709F4A7
:104A20008EC008950E945E166CE074E086ED9FE0F3
:104A30000E94432361E080E00E942C1661E274E052
:104A400086ED9FE00E9443238091290C90912A0CCF
:104A50000A9734F46EE873E086ED9FE00E944323EA
:104A60006091290C70912A0C86ED9FE00E948B22A8
:104A700062E080E00E942C1664E374E086ED9FE023
:104A80000E9443238091100290911102A091120282
:104A9000B0911302883E9340A105B10530F46EE851
:104AA00073E086ED9FE00E944323409110025091F5
:104AB000110260911202709113022AE086ED9FE0CC
:104AC0000E943F2262E474E086ED9FE00E9443234F
:104AD00063E080E00E942C1666E474E086ED9FE0BF
:104AE0000E9443238091060C63E0882349F081E112
:104AF0000E942C166CEB73E086ED9FE00C94432330
:104B000082E10E942C1665E574E0F6CF0E945E16E5
:104B100068E574E0F1CF0E945E1665E674E086ED0C
:104B20009FE00E94432361E080E00E942C166AE728
:104B300074E086ED9FE00E9443230C9445230E947D
:104B40005E1669E874E0EBCF0F931F93CF93DF936A
:104B5000EC0188819981009759F02A813B812617C1
:104B6000370730F081E0DF91CF911F910F910895C9
:104B70008B016F5F7F4F0E943A40009759F09983F5
:104B800088831B830A832C813D81232B59F7FC01E9
:104B90001082E8CF80E0E7CFEF92FF920F931F9350
:104BA000CF93DF93EC017B018A01BA010E94A42517
:104BB00028813981811114C02115310519F0C901ED
:104BC0000E94B13F198218821D821C821B821A82A8
:104BD000CE01DF91CF911F910F91FF90EF9008953B
:104BE0001D830C83B701C9010E944841F1CFFB012D
:104BF00001900020E9F73197AF01461B570B0C9449
:104C0000CC25FC011182108213821282158214823B
:104C1000FB0101900020E9F73197AF01461B570BCC
:104C20000C94CC25CF92DF92EF92FF920F931F93BB
:104C3000CF93DF93EC016B017A014617570720F4FD
:104C40008D2D6A01E62EF82E6AE673E0CE010E94F1
:104C500001260091B90F1091BA0FC016D10600F5C8
:104C6000E016F10608F48701E091B50FF091B60F58
:104C7000E00FF11FF08010826091B50F7091B60FB8
:104C80006C0D7D1D61157105A9F0CE010E94F725FF
:104C90008091B50F9091B60F080F191FF801F0829F
:104CA000CE01DF91CF911F910F91FF90EF90DF9098
:104CB000CF90089588819981009711F00E94B13FAB
:104CC000198218821D821C821B821A82E1CF0F93E7
:104CD0001F93CF93DF9300D000D01F921F92CDB7C8
:104CE000DEB78C01D80159964D915C915A974115C8
:104CF000510551F0ED91FC91048CF58DE02D70E0A3
:104D000060E0C8011995EECFF801808D0E94111D59
:104D1000892BB1F148E050E0BE016F5F7F4FD801B1
:104D200058968C910E94161E18161906F4F4D80194
:104D3000509684E0FE01319601900D928A95E1F73C
:104D40008D8190E0982F88272E81820F911DF80188
:104D5000958B848B8F81282F30E0322F22278885F6
:104D6000820F932F911D928F818F28960FB6F89402
:104D7000DEBF0FBECDBFDF91CF911F910F91089580
:104D800090E080E0F2CF4F925F926F927F928F928D
:104D90009F92AF92BF92CF92DF92EF92FF920F93CA
:104DA0001F93CF93DF93CDB7DEB763970FB6F89419
:104DB000DEBF0FBECDBF7C016B013A01FB0120E0DD
:104DC00090E080E06AE03191332309F461C040ED66
:104DD000430F4A3008F04DC0689FA001699F500DF5
:104DE0001124CA01C097830F911D37FD9A958F3FFB
:104DF000910549F340F3F701428153816481758144
:104E00008091480F9091490FA0914A0FB0914B0F9C
:104E1000481759076A077B0709F40DC28701085F25
:104E20001F4F0E94C5056F7077277C5FC8010E94E5
:104E30000920813009F004C286E593E09A838983D2
:104E4000F70182819381A481B5818B839C83AD839B
:104E5000BE8345E350E0BE016F5F7F4FC8010E94F3
:104E60009C09892BA9F5D12CC12CC8010E943F17A0
:104E700017C03E3209F0BFCF233009F4BCCFD301B5
:104E8000A20FB11D12968C932F5F90E080E09BCF14
:104E9000233009F0B0CFF3018583CC24C394D12C07
:104EA000C60163960FB6F894DEBF0FBECDBFDF918B
:104EB000CF911F910F91FF90EF90DF90CF90BF9017
:104EC000AF909F908F907F906F905F904F900895DC
:104ED0000E94C505F7017783668342E050E0B70181
:104EE0006A5F7F4FC8010E94A21C81E090E09A8314
:104EF000898342E050E0BE016F5F7F4FC8010E948E
:104F0000A21C80E091E09A83898342E050E0BE01D8
:104F10006F5F7F4FC8010E94A21C1A82198242E073
:104F200050E0BE016F5F7F4FC8010E94A21C42E0AB
:104F300050E0BE016F5F7F4FC8010E94A21C42E09B
:104F400050E0BE016F5F7F4FC8010E94A21C560156
:104F5000F6018081882301F16501F60181912F011D
:104F6000882311F08E32B1F446018A189B08181478
:104F7000190474F48D8641E050E0BE01635F7F4FF9
:104F8000C8010E94A21CA401B501C8010E94A21C74
:104F90005201DECF6201E1CF1D8641E050E0BE014B
:104FA000635F7F4FC8010E94A21CC12CDD24D394F3
:104FB000DA82C98242E050E0BE016F5F7F4FC801D4
:104FC0000E94A21CDA82C98242E050E0BE016F5FFB
:104FD0007F4FC8010E94A21CC8010E94E117892BC3
:104FE00009F441CFF3E0AF2EB12C230122E0420EB1
:104FF000511CD4C0F7014281538164817581808D39
:10500000918DA28DB38D481759076A077B0709F068
:1050100008C1848D958DC59709F003C181A192A126
:105020005DEFC52EDD24DA940C970CF4ADC04CE096
:1050300050E0BE016F5F7F4FC8010E94E51E8B816B
:105040009C819827892798279A8B898BF70146811D
:10505000578129813A814217530709F0E7C097FF2A
:10506000E5C08F7092703BEFC32EDD24DA94892B5C
:1050700009F08AC06F8078847624672476242AEF2A
:10508000C22EDD24DA946114710409F47DC0D12CA0
:10509000C12C8D819E81982789279827C816D9060B
:1050A000F8F441E050E0BE01635F7F4FC8010E9409
:1050B000E51E4D85442331F050E070E060E0C8010A
:1050C0000E94E51E8D858111ECCF44E050E070E038
:1050D00060E0C8010E94E51EFFEFCF1ADF0AD9CFBA
:1050E000912C812C41E050E0BE016D5E7F4FC801E4
:1050F0000E94E51E4B89842F807C09F06CC04423FC
:1051000031F050E070E060E0C8010E94E51E8B893C
:105110008111E8CF42E050E0BE01615F7F4FC801DE
:105120000E94E51E42E050E0BE01635F7F4FC80170
:105130000E94E51E44E050E070E060E0C8010E947B
:10514000E51E42E050E0BE016F5E7F4FC8010E9445
:10515000E51E8F85988949895A898115914009F002
:1051600043C0CD84DE84DC24CD24DC2481E0C81659
:10517000D104D1F54115544009F04AC044E050E053
:10518000B201C8010E94E51E21E0A21AB10809F48B
:105190006CCEFFEFCF16DF0609F067CE0E94C50583
:1051A0003B014C01C8010E946726181619060CF431
:1051B00021CF0E94C50566197709880999096938C0
:1051C00073418105910548F562E370E080E090E06D
:1051D0000E949205E7CF41E050E070E060E0C80136
:1051E0000E94E51E1B8A93CF54274527542770E061
:1051F00060E0C8010E94E51EFFEF8F1A9F0A681445
:10520000790409F06FCF96EFC92EDD24DA94BCCF74
:10521000E7EFCE2EDD24DA94B7CFCC24CA94DC2C71
:10522000B3CF6EEFC62EDD24DA94AECF4CEFC42E92
:10523000DD24DA94A9CF8EEFC82EDD24DA9430CEA7
:10524000D12CC12C2DCECF92DF92EF92FF920F93F3
:105250001F93CF93DF93CDB7DEB7AF970FB6F89418
:10526000DEBF0FBECDBF7C016A0106E513E01A83E5
:1052700009831C861B8688EE93E0A0E0B0E08D8752
:105280009E87AF87B88B8FE392E09A878987188FC4
:105290000F8B198E1A8E1B8E1C8E88E089A31BA77C
:1052A0000AA71CA61DA61EA61FA680913C0F9091C2
:1052B0003D0FA0913E0FB0913F0F8EA39FA3A8A7D3
:1052C000B9A78B839C83AD83BE8318861F82AE01F2
:1052D000465D5F4FCE0101960E94C3268130910545
:1052E000B1F4D701ED91FC910488F589E02D1DA35F
:1052F0000CA38CA59DA5AEA5BFA58EA39FA3A8A713
:10530000B9A7A601BE016C5D7F4FC7011995AF9685
:105310000FB6F894DEBF0FBECDBFDF91CF911F91C6
:105320000F91FF90EF90DF90CF900895CF92DF9292
:10533000EF92FF920F931F93CF93DF93CDB7DEB71A
:10534000AF970FB6F894DEBF0FBECDBF8C016B01D7
:105350007A0186E593E09A8389831B821C821D82F1
:105360001E821C861B8648EE53E060E070E04D878D
:105370005E876F87788B2FE332E03A872987988F93
:105380008F8B198E1A8E1B8E1C8E28E029A39BA74B
:105390008AA71CA61DA61EA61FA6D8011C968C9126
:1053A000883060F40E945017882321F0F80184852A
:1053B0000E94271788E0D8011C968C9380913C0F9F
:1053C00090913D0FA0913E0FB0913F0F8EA39FA3F0
:1053D000A8A7B9A78B839C83AD83BE8318861F8241
:1053E000AE01465D5F4FB601CE0101960E94C32615
:1053F0000097C1F0D801ED91FC910684F785E02D6E
:1054000086E593E09DA38CA38CA59DA5AEA5BFA525
:105410008EA39FA3A8A7B9A7A701BE016C5D7F4F6C
:10542000C8011995AF960FB6F894DEBF0FBECDBF79
:10543000DF91CF911F910F91FF90EF90DF90CF9070
:105440000895EF92FF920F931F93CF93DF9300D0B5
:105450001F92CDB7DEB78C017B01FB0184858830BC
:10546000A8F086E593E0F80191838083128213828D
:1054700014821582C8010F900F900F900F90DF914A
:10548000CF911F910F91FF90EF90089580E591E0EB
:105490000E94990924E030E0AE014F5F5F4F6CE05D
:1054A00070E0F70184850E94101A86E593E0F80108
:1054B0009183808389819A81AB81BC81828393832C
:1054C000A483B583D7CF85ED8093BC008091B00BCA
:1054D0009091B10BA091B20BB091B30B0796A11DA7
:1054E000B11D23E0B695A795979587952A95D1F795
:1054F0002091BC0024FD03C01092AE0B0895409192
:10550000B00B5091B10B6091B20B7091B30B452B66
:10551000462B472B69F30097A105B10541F025E320
:105520002A95F1F700000197A109B109E1CF809117
:10553000AF0B0C94C006EF92FF920F931F93CF9383
:10554000DF93EC017B018A011B821A8288EE93E0D3
:10555000A0E0B0E08C839D83AE83BF8388E393E0BB
:10556000998388838DE190E00E94153F9A8F898FFF
:10557000009779F02DE1F701DC0101900D922A9559
:10558000E1F74CE050E0B801CE010C960E944F418B
:10559000188EDF91CF911F910F91FF90EF9008959A
:1055A0002F923F924F925F926F927F928F929F9233
:1055B000AF92BF92CF92DF92EF92FF920F931F9321
:1055C000CF93DF93CDB7DEB7C656D1090FB6F894A7
:1055D000DEBF0FBECDBF6C015B0119A218A28CE229
:1055E00093E09F8F8E8F1BA21C821B829A838983DC
:1055F0001E824E018EE1880E911CC4010E94A60EEF
:1056000075018E010F5F1F4F240118016FE270E0DA
:10561000C7010E943D41009709F45CC0F701208159
:105620002F3271F4FFEFEF1AFF0A902F812F8201C2
:10563000492E582E942D852D2801092F182FE6CF9D
:105640008E198D3008F08CE0682E712CA301B70103
:10565000CE01885A9F4F0E944F41E8E5F0E0EC0FE1
:10566000FD1FE60DF71D1082C8010E943211F801DE
:105670008581882301F11EAE1DAE8CE293E09CAFC4
:105680008BAF21961FAE2197A796EEADFFADA797E2
:10569000AE0EBF1EF5018081811129C0BE01655C7F
:1056A0007F4FC1010E94EB124CE954E0B101C601E9
:1056B0000E949B2A3AC0AE01485A5F4FB201C8010E
:1056C0000E9429218823B9F2E60CF71CC2010E942E
:1056D0003211B0CFC7018A199B09A7969FAF8EAF31
:1056E000A797B201CE01CB960E94EB12CDCF19A2A3
:1056F00018A28CE293E09F8F8E8F1BA221968FAD14
:10570000219781112DC0F6011382128288EE93E059
:10571000A0E0B0E084839583A683B78388E393E019
:1057200091838083128E118E1486C601CA59DF4F71
:105730000FB6F894DEBF0FBECDBFDF91CF911F91A2
:105740000F91FF90EF90DF90CF90BF90AF909F9020
:105750008F907F906F905F904F903F902F90089523
:10576000A501BE01655C7F4FC4010E9429218823E9
:1057700051F2CE01CB960E943211B401C1010E94B8
:10578000EB12A50193CFEF92FF920F931F93CF934C
:10579000DF93CDB7DEB7AE970FB6F894DEBF0FBE7E
:1057A000CDBF8C0187E0EDECF4E0DE015C9601906A
:1057B0000D928A95E1F76AE673E0CE0189960E9420
:1057C00001261CA21BA21EA21DA218A61FA24AE00F
:1057D000BE016F5F7F4FC8010E94513EBE016F5FE7
:1057E0007F4FCE0183960E94F72589A59AA5009741
:1057F00009F477C06BA17CA16115710509F46FC034
:105800004BA55CA52FA138A54217530708F467C024
:105810000E9448418FA198A59EA78DA718A61FA2F8
:10582000CE0183960E940A2270E060E0CE01899644
:105830000A3011050CF066C00E945902FC018081FB
:105840008D8FBE01645E7F4F8FE79EE00E942F2305
:10585000BE01645E7F4FCE0101960E94D02ACE0128
:1058600001960E941702E091D40FF091D50F309766
:1058700009F4EFC08581882309F4EBC01092280C4D
:105880001092270C1CA21BA219821A821B821C8256
:1058900010E000E0F12CE12C8BEB9FE00E94441320
:1058A000892B09F4A5C08BEB9FE00E94C6148A30B7
:1058B00009F440C0A8014F5F5F4FE3E2F0E0E1145C
:1058C000F10431F0F1E0EF16F10431F5E1E0F0E040
:1058D000EC0FFD1FE00FF11F80838A01DDCF0E94D6
:1058E000B13F8BA19CA19AA789A78DA19EA19CA73E
:1058F0008BA78FA198A59EA78DA71CA21BA21EA255
:105900001DA28CCF0E945902FC0180818C8F61E026
:1059100070E0CE01899690CFE091270CF091280C91
:10592000EE0FFF1FE452FD4F20813181020F131F44
:10593000F801D2CFB7018FE79EE00E948B226DE87D
:1059400073E08FE79EE00E944323E114F10481F4A9
:10595000CE0183960E940C3E90932A0C8093290CD2
:105960000E94C1228FEFE81AF80A50E040E0B5CF5C
:1059700010E000E0F1E0EF16F10499F4CE01019699
:105980000E940C3EBC01990F880B990B609310028A
:105990007093110280931202909313020E94D422FA
:1059A000E1CFE091270CF091280CEE0FFF1FE4529D
:1059B000FD4F0190F081E02DE00FF11F60818FE736
:1059C0009EE00E946C020F5F1F4F0632110549F7DF
:1059D0006EE873E08FE79EE00E942F238091270CF2
:1059E0009091280C01969093280C8093270CBACFA5
:1059F0008091D40F9091D50F009761F00E943211E1
:105A00008091D40F9091D50F0E94B13F1092D50F85
:105A10001092D40F6EE974E08FE79EE00E9443235A
:105A20008091270C9091280C0E94C1220E94FE2494
:105A3000CE0189960E940A22AE960FB6F894DEBF78
:105A40000FBECDBFDF91CF911F910F91FF90EF90CF
:105A500008950E945E166BEB74E086ED9FE00E9455
:105A6000432368E873E180E090E00E949205DECF76
:105A70001F920F920FB60F9211240BB60F922F9315
:105A80003F934F935F936F937F938F939F93AF93C6
:105A9000BF93EF93FF938FE79EE00E94E702FF9191
:105AA000EF91BF91AF919F918F917F916F915F9196
:105AB0004F913F912F910F900BBE0F900FBE0F9003
:105AC0001F9018951F920F920FB60F9211240BB6CC
:105AD0000F922F938F939F93EF93FF93E0918F0EED
