:020000040000FA
:100000000C948B010C94591E0C942E1E0C94031E00
:100010000C94D81D0C94AD1D0C94821D0C94571D8E
:100020000C942C1D0C94BC010C94BC010C94BC01D0
:100030000C94BC010C94BC010C94BC010C94BC014C
:100040000C94BC010C94BC010C94BC010C94BC013C
:100050000C94BC010C94BC010C94BC010C94E21CEB
:100060000C94BC010C94AC1C0C94821C0C94BC0130
:100070000C94BC010C94BC010C94BC010C94BC010C
:100080000C94BC010C94BC010C94BC010C94BC01FC
:100090000C94BC010C94BC010C94BC010C94841E07
:1000A0000C94BC010C94BC010C94BC010C94BC01DC
:1000B0000C94BC010C94BC010C94BC010C94BC01CC
:1000C0000C94BC010C94BC010C94BC010C94BC01BC
:1000D0000C94BC010C94BC010C94BC010C94BC01AC
:1000E0000C94BC010C943F020C94F2050C94E610A5
:1000F0000C94E6020C945F030C94A81F0C94610509
:100100000C94C8050C948C030C94A3040C949902D1
:100110000C9475040C9455030C94D8050C9485101C
:100120000C941F110C9488030C9474030C94030218
:100130000C9496030C94C6040C945B030C94F90184
:100140000C94AD040C943C110C947B120C947F0E17
:100150000C94C9050C9471120C94EF100C94890442
:100160000C940F110C94F5010C9499040C945E04FA
:100170000C9463030C9495030C947E030C94E40498
:100180000C9435070C9467030C9463140C94660468
:100190000C94DA040C94EB050C947F040C94FB0192
:1001A0000C946A030C9490030C946B040C949A03C3
:1001B0000C9482030C94D0040C947A030C941F06C4
:1001C0000C94F8040C9470030C9430020C945302B9
:1001D0000C94B7040C9491040C9461020C94EE04FA
:1001E0000C94FA017C3C3E5E2B3D3F2F5B5D3B2C2B
:1001F0002A225C0000002200250028002B002E008F
:100200003100340002010000050108010B0100006B
:1002100020002300260029002C002F0032000001BE
:10022000000003010601090100000A0B02090C0D80
:100230000E08070304010000000000000000000099
:1002400000000000000000000000000000000000AE
:10025000000000001211100000000000000000006B
:10026000000000000000000000000000000000008E
:100270002100240027002A002D0030003300010156
:100280000000040107010A010102102020080810E3
:1002900020401020408002010201080402010102F6
:1002A00004081020408080402010080402018004CF
:1002B000020180402010080402010804020101022A
:1002C0000408102040800102040810204080050529
:1002D0000505070508080808020202020A0A0808BC
:1002E00004040404010101010101010103030303EA
:1002F00003030303040707070C0C0C0C0C0C0C0C79
:100300000202020206060606060606060B0B0B0B89
:100310000B0B0B0BA81F11241FBECFEFD1E2DEBFCA
:10032000CDBF00E00CBF17E0A0E0B2E0E2E7FBE5E4
:1003300000E00BBF02C007900D92A833B107D9F7B8
:100340002EE0A8E3B7E001C01D92A336B207E1F7A3
:1003500011E0CBE8D1E000E006C021970109802F31
:10036000FE010E946B2BCA38D10780E00807A9F76D
:100370000E941A200C94B72D0C940000CF93DF93A9
:10038000FC018281938190933B0E80933A0E84818D
:100390009581A681B78180933C0E90933D0EA093EA
:1003A0003E0EB0933F0E80859185A285B3858093E4
:1003B000400E9093410EA093420EB093430EDF0186
:1003C0001C96CF014996C4E4DEE02D912993A8172D
:1003D000B907D9F7818D928D9093520E8093510E6B
:1003E00088E39EE0DF91CF91089581E08093410BF7
:1003F0000895089508950895DC01ED91FC91019010
:10040000F081E02D1994AF92BF92CF92DF92EF92DC
:10041000FF920F931F93CF93DF936C017B018B01AE
:10042000040F151FEB015E01AE18BF08C017D107FE
:1004300059F06991D601ED91FC910190F081E02D88
:10044000C6011995892B79F7C501DF91CF911F91CD
:100450000F91FF90EF90DF90CF90BF90AF900895F5
:10046000FC01538D448D252F30E0842F90E0821BBA
:10047000930B541710F0CF96089501970895FC013F
:10048000918D828D981761F0A28DAE0FBF2FB11D97
:100490005D968C91928D9F5F9F73928F90E00895EF
:1004A0008FEF9FEF0895FC01918D828D981731F0A9
:1004B000828DE80FF11D858D90E008958FEF9FEFFD
:1004C0000895FC01918D228D892F90E0805C9F4FD3
:1004D000821B91098F739927089584E49DE00E94FF
:1004E000610221E0892B09F420E0822F0895FC01AC
:1004F000A48DA80FB92FB11DA35ABF4F2C91848D85
:1005000090E001968F739927848FA689B7892C93E1
:10051000A089B1898C91837080648C93938D848D34
:10052000981306C00288F389E02D80818F7D808337
:100530000895EF92FF920F931F93CF93DF93EC01F7
:1005400081E0888F9B8D8C8D98131AC0E889F9897A
:10055000808185FF15C09FB7F894EE89FF8960837D
:10056000E889F98980818370806480839FBF81E0FE
:1005700090E0DF91CF911F910F91FF90EF90089540
:10058000F62E0B8D10E00F5F1F4F0F731127E02E1B
:100590008C8D8E110CC00FB607FCFACFE889F98953
:1005A000808185FFF5CFCE010E947702F1CFEB8DE0
:1005B000EC0FFD2FF11DE35AFF4FF0829FB7F89427
:1005C0000B8FEA89FB8980818062CFCFCF93DF9345
:1005D000EC01888D8823B9F0AA89BB89E889F9895B
:1005E0008C9185FD03C0808186FD0DC00FB607FC90
:1005F000F7CF8C9185FFF2CF808185FFEDCFCE01C3
:100600000E947702E9CFDF91CF91089580E090E0DA
:10061000892B29F00E946D0281110E94000080E068
:1006200090E0892B49F080E090E0892B29F00E942E
:10063000000081110E94000080E090E0892B49F0C9
:1006400080E090E0892B29F00E94000081110E9437
:10065000000080E090E0892B49F080E090E0892B59
:1006600029F00E94000081110C940000089581502F
:10067000823108F05AC0E82FF0E08827ED5BFC4F8C
:100680008F4F0C946B2B6303670355035B035F036E
:1006900095036A03700374037A037E03820388035D
:1006A0008C039503900396039A03809180008F77C3
:1006B000809380000895809180008F7DF9CF809194
:1006C0008000877FF5CF84B58F7784BD089584B58A
:1006D0008F7DFBCF8091B0008F778093B00008951D
:1006E0008091B0008F7DF9CF809190008F778093BB
:1006F00090000895809190008F7DF9CF80919000B7
:10070000877FF5CF8091A0008F778093A000089518
:100710008091A0008F7DF9CF8091A000877FF5CFD9
:10072000809120018F77809320010895809120018E
:100730008F7DF9CF80912001877FF5CFCF93DF9315
:10074000282F30E0F901E85DFD4F8491F901E85769
:10075000FD4FD491F901E253FD4FC491CC23A1F098
:1007600081110E943703EC2FF0E0EE0FFF1FE25FD4
:10077000FD4FA591B491EC91ED2381E090E009F457
:1007800080E0DF91CF91089580E090E0FACF1F9351
:10079000CF93DF93282F30E0F901E85DFD4F84917E
:1007A000F901E857FD4FD491F901E253FD4FC4918F
:1007B000CC23A9F0162F81110E943703EC2FF0E013
:1007C000EE0FFF1FEC50FE4FA591B4918FB7F89438
:1007D000EC91111108C0D095DE23DC938FBFDF911F
:1007E000CF911F910895DE2BF8CFCF93DF9390E048
:1007F000FC01E857FD4F249182539D4FFC018491E9
:100800008823D1F090E0880F991FFC01E259FD4F39
:10081000A591B491FC01EC50FE4FC591D4916111AA
:100820000EC09FB7F8948C91E22FE0958E238C93A5
:100830002881E223E8839FBFDF91CF9108958FB78E
:10084000F894EC91E22BEC938FBFF6CF1F93CF93EC
:10085000DF93182FEB0161E00E94F503209739F434
:1008600060E0812FDF91CF911F910C94C703CF3FA0
:10087000D10511F461E0F5CFE12FF0E0E85DFD4F27
:10088000E491E150E23108F0B3C0F0E08827E45B86
:10089000FB4F8F4F0C946B2B5E0466046B04750446
:1008A0007F04F804890491049904A304AD04B704F7
:1008B000C604D004F804DA04E404EE0484B58068C5
:1008C00084BDC7BDDF91CF911F91089584B580622B
:1008D00084BDC8BDF7CF8091800080688093800080
:1008E000D0938900C0938800EDCF80918000806212
:1008F00080938000D0938B00C0938A00E3CF8091D7
:100900008000886080938000D0938D00C0938C001D
:10091000D9CF8091B00080688093B000C093B300BD
:10092000D1CF8091B00080628093B000C093B400BA
:10093000C9CF80919000806880939000D0939900F7
:10094000C0939800BFCF8091900080628093900008
:10095000D0939B00C0939A00B5CF8091900088609F
:1009600080939000D0939D00C0939C00ABCF80916A
:10097000A00080688093A0008091A0008F7B80936E
:10098000A000D093A900C093A8009CCF8091A000A4
:1009900080628093A000D093AB00C093AA0092CF56
:1009A0008091A00088608093A000D093AD00C09398
:1009B000AC0088CF80912001806880932001D09383
:1009C0002901C09328017ECF80912001806280930D
:1009D0002001D0932B01C0932A0174CF8091200174
:1009E000886080932001D0932D01C0932C016ACFA1
:1009F000C038D1050CF03ECF33CF3FB7F89480918B
:100A0000EF0A9091F00AA091F10AB091F20A26B58E
:100A1000A89B05C02F3F19F00196A11DB11D3FBF36
:100A2000BA2FA92F982F8827BC01CD01620F711D05
:100A3000811D911D42E0660F771F881F991F4A95FF
:100A4000D1F708958F929F92AF92BF92CF92DF928B
:100A5000EF92FF926B017C010E94FD044B015C014F
:100A6000C114D104E104F104B9F00E94FD04681935
:100A700079098A099B09683E73408105910580F3D5
:100A800021E0C21AD108E108F10888EE880E83E05F
:100A9000981EA11CB11CE4CFFF90EF90DF90CF9087
:100AA000BF90AF909F908F9008952FB7F89460916A
:100AB000EB0A7091EC0A8091ED0A9091EE0A2FBF3B
:100AC000089508952091790A260F3327331F213284
:100AD0003105ECF42091C20AFC0190E080E0243062
:100AE00069F082E00895A091790A2191AC01475AFA
:100AF000554FA40FB52FB11D2C930196861798F36F
:100B00008091790A680F6093790A80E0089581E006
:100B100008951092C20A81E08093C10A10929C0A43
:100B200061E084E10E94C70361E085E10E94C703A0
:100B3000E9EBF0E080818E7F808380818D7F8083F0
:100B400088E48093B80085E48093BC000895CF9337
:100B5000DF9391E09093580A8823B9F0C091B800D0
:100B6000D091BA008091BC008A7B8093BC0060E089
:100B700084E10E94C70360E085E10E94C7030E94F0
:100B80008905D093BA00C093B800DF91CF91089542
:100B90000895E091FA0A8091F90AE81730F4F0E03C
:100BA000E85CF54F808190E008958FEF9FEF089506
:100BB0009091FA0A8091F90A2FEF3FEF981748F4C5
:100BC000E92FF0E0E85CF54F208130E09F5F9093E3
:100BD000FA0AC90108958091F90A9091FA0A891BCD
:100BE000990B0895CF92DF92EF92FF920F931F938C
:100BF000CF93DF937C01CB018A012091C80A222385
:100C000089F0EB016B01C40ED51ECC15DD0569F032
:100C10006991D701ED91FC910190F081E02DC70120
:100C20001995F3CF642F0E946205C801DF91CF911F
:100C30001F910F91FF90EF90DF90CF900895CF9389
:100C4000DF931F92CDB7DEB769832091C80A2223B4
:100C5000F9F02091F70A203258F021E030E0FC0151
:100C60003383228390E080E00F90DF91CF9108954D
:100C70008091F80AE82FF0E0E753F54F99819083CF
:100C80008F5F8093F80A8093F70A81E090E0ECCFC1
:100C900061E0CE0101960E946205F7CFCF92DF920C
:100CA000EF92FF920F931F93CF93DF93FC01C481C8
:100CB00021E02093C80AC093E90A1092F80A109222
:100CC000F70A8385682B81EE9DE00E941F06D09174
:100CD000F70AD13208F092C00E94FD046B017C013A
:100CE0008091C20A811165C082E08093C20A81E0CE
:100CF0008093C10A8FEF8093C00A1092BF0AD093ED
:100D0000BE0AA9ECBAE0EEE9FAE080E0D81385C0AB
:100D100010929D0A80919D0ACC0FC82BC0939D0A0A
:100D200080919C0A813009F07CC010929C0A0E943C
:100D3000FD046B017C0180919D0A8093BB00809132
:100D4000C40A9091C50AA091C60AB091C70A892B1E
:100D50008A2B8B2B99F00E94FD040091C40A1091FC
:100D6000C50A2091C60A3091C70A6C197D098E09FF
:100D70009F090617170728073907E0F18091BC0083
:100D800083FDD9CF85EC8093BC000E94FD046B01EC
:100D90007C018091C20A823009F445C08091C00A6A
:100DA0008F3F61F18091C00A803241F18091C00A89
:100DB00025C08091C40A9091C50AA091C60AB0913D
:100DC000C70A892B8A2B8B2B09F48ACF0E94FD043A
:100DD0000091C40A1091C50A2091C60A3091C70A31
:100DE0006C197D098E099F0906171707280739070F
:100DF00008F076CF8091C30A0E94A7051092F80AE6
:100E00001092F70A1092C80ADF91CF911F910F91AB
:100E1000FF90EF90DF90CF9008959D9191938F5F19
:100E200075CF85EEB0CF8091C40A9091C50AA0918C
:100E3000C60AB091C70A892B8A2B8B2B09F4A9CF3C
:100E40000E94FD040091C40A1091C50A2091C60AAF
:100E50003091C70A6C197D098E099F09061717077B
:100E60002807390708F095CFC5CF90E080E00895B6
:100E70008FB7F8948091320A8FBF089561E0FC012A
:100E800084810E94C7038091310A81111092310A36
:100E900008958EBD00000DB407FEFDCF8EB50895F8
:100EA0008FEF0C9449070F931F93CF93DF93EC01BF
:100EB0000E9455058B010E9450078F3F69F00E94E8
:100EC0005505601B710B6C177D07A8F380E0DF915F
:100ED000CF911F910F91089581E0F9CF8CBD9DBDF9
:100EE0000895CF93DF93EC018091310A811109C0FD
:100EF00081E08093310A8091ED0D9091EE0D0E947A
:100F00006E0760E08C81DF91CF910C94C7038F92C4
:100F10009F92AF92BF92FF920F931F93CF93DF9355
:100F2000EC01F62E49015A018E81882389F08F81C8
:100F300098859C012F5F3F4F38872F8382309240E6
:100F400018F40E945007F3CFCE010E943E071E8284
:100F5000CE010E9471078CE291E00E9453078F2D11
:100F600080640E94490708E110E0D501C401002E09
:100F700004C0B695A795979587950A94D2F70E94D5
:100F8000490708501109083F8FEF180771F785E9E5
:100F9000FF2021F028E087E8F2128FEF0E94490736
:100FA00010E00E9450078A8787FF04C01F3F11F09E
:100FB0001F5FF7CFDF91CF911F910F91FF90BF90EF
:100FC000AF909F908F900895AF92BF92CF92DF9293
:100FD000EF92FF920F931F93CF93DF93EC01690180
:100FE000C801820F931F8130924050F58E81882373
:100FF00079F088819981AA81BB8184179507A6071A
:10100000B70731F48F819885C816D90608F042C019
:10101000488359836A837B838B85833039F089E0E9
:10102000440F551F661F771F8A95D1F79A01AB01B0
:1010300061E1CE010E948707882389F083E08D83D8
:10104000CE010E943E0780E0DF91CF911F910F916A
:10105000FF90EF90DF90CF90BF90AF9008950E94E7
:1010600055055B010E9450078A878F3F69F40E94F3
:1010700055056A197B096D327140A0F38FE08D83AD
:10108000CE010E943E07DCCF8E3F89F418861F8276
:1010900081E08E838F8198858C159D0550F40E9488
:1010A00050078F819885019698878F83F3CF8DE0C5
:1010B000E6CF6701E00EF11E0E945007F601819312
:1010C0006F01EE15FF05C1F78F819885080F191F75
:1010D00018870F838985882319F001151240A0F025
:1010E0008E81882389F08F8198859C012F5F3F4FE7
:1010F00038872F838230924018F40E945007F3CF34
:10110000CE010E943E071E8281E09ECFCF92DF92E9
:10111000EF92FF920F93CF93DF93EC01690182E18D
:10112000411551056105710599F08B85833039F0C2
:1011300089E0440F551F661F771F8A95D1F79A01E2
:10114000AB0168E1CE010E948707882319F084E093
:101150008D832DC08EEF0E94490776018EEFD81A3D
:10116000F70181917F010E944907EC14FD04C1F74A
:101170008FEF0E9449078FEF0E9449070E94500796
:101180008A878F71853071F4011116C0CE010E94DB
:101190003E0781E0DF91CF910F91FF90EF90DF90BC
:1011A000CF90089581E18D83CE010E943E07CE014C
:1011B0000E943E0780E0EECF88E592E00E94530750
:1011C000811102C085E1C4CF20E030E0A9016DE0CB
:1011D000CE010E948707882311F084E1B9CF0E94D5
:1011E00050078111FACFD2CF0F934091340A50911A
:1011F000350A6091360A7091370A4115510561052B
:10120000710599F0082F24E43BE08091420B909106
:10121000430B0E948608882349F01092340A1092EA
:10122000350A1092360A1092370A81E00F9108951C
:101230000F93CF93C82F8091330A811105C0C1E06D
:101240008C2FCF910F91089540910002509101028F
:1012500060910202709103020C2F24E43BE0809124
:10126000420B9091430B0E948608811102C0C0E09E
:10127000E7CFCC2321F381E00E94F4088823B9F35F
:101280001092330ADDCF8F929F92AF92BF92EF926E
:10129000FF920F931F93CF934B015C01C42F80915A
:1012A000000290910102A0910202B0910302881500
:1012B0009905AA05BB0551F181E00E941809811129
:1012C0000BC080E0CF911F910F91FF90EF90BF90E6
:1012D000AF909F908F90089584E4E82E8BE0F82ED5
:1012E00000E012E030E020E0B501A4018091420B63
:1012F0009091430B0E94E407882319F38092000227
:1013000090920102A0920202B09203024091330A2D
:101310004C2B4093330A81E0D5CFCF93DF93EC0180
:101320006E857F858889998941E00E9443098823D9
:1013300051F08A8920E2829FC00111248C5B944F76
:10134000DF91CF91089590E080E0FACF8F929F9245
:10135000AF92BF92CF92DF92EF92FF92CF932FEE98
:101360003DE03093430B2093420B882309F46DC07A
:1013700040E060E070E0CB010E94430981110BC0A6
:1013800080E0CF91FF90EF90DF90CF90BF90AF9033
:101390009F908F9008958091020D8F7789F78091AB
:1013A0000E0D90910F0DA091100DB091110D84367E
:1013B0009105A105B10520F3C0900A0DD0900B0D49
:1013C000E0900C0DF0900D0DC114D104E104F10476
:1013D000B9F240E0C701B6010E944309882381F2B7
:1013E00080914F0B9091500B8115924049F6A0913E
:1013F000540BAA2329F26091520B7091530B611583
:10140000710509F4BDCF2091510B222309F4B8CF07
:10141000A0930D0E2093FF0D90E080E030E0E1E01E
:10142000F0E0C82FAF01082E02C0440F551F0A94E8
:10143000E2F72417350769F041E0480F019689303B
:10144000910579F74093080E9BCFC12CD12C7601E2
:10145000C0CF8093080E20915A0B30915B0B50E067
:1014600040E02115310541F42091680B3091690B62
:1014700040916A0B50916B0B2093000E3093010E3C
:101480004093020E5093030E46015701860E971E9D
:10149000A11CB11C80920E0E90920F0EA092100E05
:1014A000B092110EE091550BF091560BF093140E83
:1014B000E093130EB0E00E94272BDC01CB01880DD6
:1014C000991DAA1DBB1D8093150E9093160EA09317
:1014D000170EB093180E25E0EE0FFF1F2A95E1F7C7
:1014E000E150FE4FEF2FFF27E6958E0F9F1FA11DA6
:1014F000B11D8093090E90930A0EA0930B0EB0932A
:101500000C0E8090570B9090580BB12CA12C81148D
:10151000910441F48090640B9090650BA090660B51
:10152000B090670BC81AD90AEA0AFB0AC80CD91C82
:10153000EA1CFB1C04C0F694E794D794C794CA95A0
:10154000D2F7C092040ED092050EE092060EF092F1
:10155000070E85EFC8168FE0D806E104F10428F4E1
:101560008CE08093120E81E00CCF80E125EFC21653
:101570002FEFD206E104F104A0F38091700B90915B
:10158000710BA091720BB091730B8093150E909319
:10159000160EA093170EB093180E80E2E2CF4F9272
:1015A0005F926F927F928F929F92AF92BF92CF92F3
:1015B000DF92EF92FF920F931F93CF93DF93EC0193
:1015C000423051056105710590F480E0DF91CF91C3
:1015D0001F910F91FF90EF90DF90CF90BF90AF9051
:1015E0009F908F907F906F905F904F900895898526
:1015F0009A85AB85BC850196A11DB11D8417950701
:10160000A607B70710F3CB88DC88ED88FE888F89A2
:10161000803109F042C0BB27A72F962F852F4801A4
:1016200059012A013B01C80ED91EEA1EFB1E8091FA
:10163000000290910102A0910202B0910302C8162B
:10164000D906EA06FB0699F58F898031C1F5B30109
:10165000A201552766277727440F551F4C5B544F2F
:10166000FA01918280828091330A81608093330AEB
:101670008A89823080F08D819E81AF81B8858C0D02
:101680009D1DAE1DBF1D8093340A9093350AA09313
:10169000360AB093370A81E099CFDB01CA01E7E04F
:1016A000B695A79597958795EA95D1F7B8CF40E07D
:1016B000C701B6010E9443098111C6CF86CFB3018D
:1016C000A2014F77552766277727440F551F440FF0
:1016D000551F4C5B544FFA0180829182A282B382E3
:1016E000C2CF8F929F92AF92BF92CF92DF92EF9232
:1016F000FF920F931F93CF93DF93FC018185928517
:10170000A385B4850196A11DB11D84179507A60771
:10171000B70770F480E0DF91CF911F910F91FF9098
:10172000EF90DF90CF90BF90AF909F908F900895F3
:1017300083889488A588B6888789803189F5BB27F6
:10174000A72F962F852FE9016A017B018F01BC012C
:10175000CD01680D791D8A1D9B1D8090000290901F
:101760000102A0900202B090030286169706A80616
:10177000B90601F5F8018789803111F5DD24EE24E1
:10178000FF24F601EE0FFF1FEC5BF44F8081918187
:10179000B0E0A0E088839983AA83BB8381E0BBCFBC
:1017A000DB01CA01C7E0B695A79597958795CA95BD
:1017B000D1F7C9CF40E00E9443098111DBCFAACF06
:1017C000E894C7F8DD24EE24FF24F601EE0FFF1F96
:1017D000EE0FFF1FEC5BF44F80819181A281B381FA
:1017E000BF70D8CF4F925F926F927F92AF92BF92AD
:1017F000CF92DF92EF92FF920F931F93CF93DF93DD
:1018000000D01F92CDB7DEB78C0149835A836B831A
:101810007C835901C12CD12C7601412C82E0582EB9
:10182000612C712C49815A816B817C819E012F5FD3
:101830003F4FC8010E94710B882339F1F80185855B
:10184000A301920104C0220F331F441F551F8A9524
:10185000D2F7DA01C901C80ED91EEA1EFB1E498162
:101860005A816B817C818789803111F188EF9FEFEC
:10187000AFEFBFE0481759076A077B0798F2F501F9
:10188000C082D182E282F38281E00F900F900F90AC
:101890000F90DF91CF911F910F91FF90EF90DF900C
:1018A000CF90BF90AF907F906F905F904F900895D2
:1018B00088EF9FEFA0E0B0E0DDCFCF93DF93FC0196
:1018C0002581222321F080E0DF91CF910895EC0162
:1018D0008091120E803159F582E08583178A108E2F
:1018E000118E128E8091130E9091140EB0E0A0E034
:1018F00025E0880F991FAA1FBB1F2A95D1F7838B5C
:10190000948BA58BB68B8BEF9DE09C8F8B8F81E0AA
:101910008C831E821F82188619861A861B861C8657
:101920001D861E861F86188A198A1A8ACDCF803294
:1019300051F683E085834091150E5091160E60910B
:10194000170E7091180E478B508F618F728F9F0109
:101950002D5E3F4F8BEF9DE00E94F20B8111D3CFA4
:10196000B2CF8F929F92AF92BF92CF92DF92EF92BF
:10197000FF920F931F93CF93DF93EC018D81811121
:101980000EC080E0DF91CF911F910F91FF90EF90FB
:10199000DF90CF90BF90AF909F908F9008950B896C
:1019A0001C892D893E89041715072607370748F338
:1019B0004A015B01823031F48A869B86AC86BD8603
:1019C00081E0E0CF81149104A104B10449F41E82A6
:1019D0001F82188619861A861B861C861D86F0CFE4
:1019E0000A851B852C853D85EB8DFC8D858590E0DA
:1019F0000996B901A8014150510961097109082EE0
:101A000004C076956795579547950A94D2F7750166
:101A10006401E1E0CE1AD108E108F10804C0F694AF
:101A2000E794D794C7948A95D2F7C416D506E606EC
:101A3000F70620F0012B022B032B11F58F89988DCF
:101A4000A98DBA8D8E839F83A887B9878E010A5F7F
:101A50001F4FC114D104E104F10409F4ADCF4E814C
:101A60005F816885798598018B8D9C8D0E94710BB3
:101A700091E0C91AD108E108F1088111EACF81CFBC
:101A8000C41AD50AE60AF70AE1CF3F924F925F9255
:101A90006F927F928F929F92AF92BF92CF92DF927E
:101AA000EF92FF920F931F93CF93DF93CDB7DEB7E3
:101AB0002C970FB6F894DEBF0FBECDBF5C01DC01E2
:101AC0005B968D909C905C9716964D905D906D9076
:101AD0007C901997411451046104710409F468C0A1
:101AE000BFEF4B1A5B0A6B0A7B0A312CF40181852C
:101AF0009285A385B4859C01AD012F5F3F4F4F4F69
:101B00005F4F29873A874B875C87730162011D828B
:101B10001E821F821886F40181859285A385B48573
:101B20002D813E814F815885281739074A075B0769
:101B300008F056C089859A85AB85BC858C159D05B6
:101B4000AE05BF0550F482E0C82ED12CE12CF12C5B
:101B500092E0492E512C612C712C9E012F5F3F4F3A
:101B6000B701A601C4010E94710B8823C9F18981C4
:101B70009A81AB81BC81892B8A2B8B2B09F12601A1
:101B800037019FEF491A590A690A790A2D813E8166
:101B90004F8158852F5F3F4F4F4F5F4F2D833E83BF
:101BA0004F8358873FEFC31AD30AE30AF30AB3CF30
:101BB000F40140805180628073803324339496CF47
:101BC000C414D504E604F70409F70FEF1FEF2FEF55
:101BD0003FE0B701A601C4010E94CF0A811119C0DC
:101BE00080E02C960FB6F894DEBF0FBECDBFDF911C
:101BF000CF911F910F91FF90EF90DF90CF90BF900A
:101C0000AF909F908F907F906F905F904F903F909C
:101C10000895D50116964D915D916D917C9119971E
:101C2000411551056105710539F097018601C4011F
:101C30000E94CF0A8823A1F2D5011696CD92DD929B
:101C4000ED92FC921997332051F0D701C60101960D
:101C5000A11DB11DF40180839183A283B383F5019B
:101C60008789908DA18DB28D892B8A2B8B2B39F48E
:101C70008481C78AD08EE18EF28E80688483F501DC
:101C800084818062848381E0ACCF1F93CF93DF9304
:101C9000FC012581222371F1162FEC01848187FF3D
:101CA0001EC0CF010E948D09FC01892B19F18D8185
:101CB000823040F48B899C89AD89BE89848F958F51
:101CC000A68FB78F8F89988D938F828F8F89988DEC
:101CD000A98DBA8DB58BA48B8C818F778C831111D4
:101CE00003C08C818F7E8C83812FDF91CF911F91D8
:101CF0000C94180980E0DF91CF911F910895FF9215
:101D00000F931F93CF93DF93EC018D81813041F0CE
:101D100090E080E0DF91CF911F910F91FF900895A7
:101D20008C8181FFF5CF82FD1BC00091420B109189
:101D3000430BC8010E9471070E945007F82EC8018A
:101D40000E943E078FEFF812E3CF8C8185FF1BC006
:101D500060E0CE010E94450E8C818F7D8C83D8CFB0
:101D60004B895C896D897E898A859B85AC85BD851B
:101D700084179507A607B707C1F2CE010E94B10CE0
:101D80008111D3CFC5CF4091340A5091350A60916B
:101D9000360A7091370A452B462B472B21F080E0FD
:101DA0000E94F408B5CF80618C832A853B85317011
:101DB00080E092E0821B930BADCFCF93DF93EC01D9
:101DC00061E00E94450E882311F01D8281E0DF91C1
:101DD000CF9108952F923F924F925F926F927F9290
:101DE0008F929F92AF92BF92CF92DF92EF92FF922B
:101DF0000F931F93CF93DF9300D01F921F92CDB705
:101E0000DEB77C015B01342E5D83DC0115968C917D
:101E10001597813009F0CEC014962C9021FECAC0CF
:101E200022FCB4C0C32CDD8022947FE027222094C2
:101E3000B22DB1702B2ED7011A964D915D916D91F7
:101E40007C911D97C114D10409F428C15B968D9132
:101E50009C915C97FC0174807A948A019B0169E0F3
:101E600036952795179507956A95D1F770228A01BF
:101E70001170711020C001151105E9F416964D91ED
:101E80005D916D917C911997411551056105710521
:101E900009F099C057968D919D910D90BC91A02D00
:101EA0000097A105B10509F0B0C0C7010E94450D1A
:101EB000882309F47FC080E092E0801B910B4601EB
:101EC0008C159D0508F44C01D7015B964D915C91F2
:101ED0005C9716968D919D910D90BC91A02D0297C7
:101EE000A109B109FA01258504C0880F991FAA1F0D
:101EF000BB1F2A95D2F74685578560897189840F63
:101F0000951FA61FB71F9C01AD01270D311D411D57
:101F1000511D29013A01811432E0930609F07BC07A
:101F20008091000290910102A0910202B0910302FF
:101F300084159505A605B70559F48FEF9FEFDC01D1
:101F40008093000290930102A0930202B0930302D7
:101F5000022D9501B301A2018091420B9091430B98
:101F60000E948608882331F19EEFB91AC818D90853
:101F7000F70182859385A485B585880D991DA11DDE
:101F8000B11D82879387A487B58755CFF701438911
:101F900054896589768982859385A485B585481796
:101FA00059076A077B0709F43DCFC7010E94B10CAE
:101FB000811138CF81E090E0D70113969C938E93E6
:101FC000129780E007C09E012F5F3F4F0E94710B68
:101FD000811102C090E079C089819A81AB81BC8176
:101FE000F701238D348DF901278948EF5FEF60E019
:101FF00070E0203121F048EF5FEF6FEF7FE0841752
:102000009507A607B70708F050CFF7018683978397
:10201000A087B18750CF0115110599F5D7011A9600
:102020004D915D916D917C911D9753968D919D91F0
:102030000D90BC91A02D481759076A077B0708F13E
:1020400081E00E941809882309F4B4CF409200026D
:102050005092010260920202709203028091330A50
:1020600081608093330AC8018C5B944FD5019C0139
:10207000280D391DFC012E173F0759F04D91419352
:10208000FACF41E0C301B2010E9443098111EBCFB5
:1020900091CF281B390BA20EB31E68CFF70183899D
:1020A0009489A589B68984179507A607B70738F4D8
:1020B0008481438B548B658B768B80688483F70196
:1020C000848183FD1AC0832D9D810F900F900F9006
:1020D0000F900F90DF91CF911F910F91FF90EF9094
:1020E000DF90CF90BF90AF909F908F907F906F9038
:1020F0005F904F903F902F90089561E0C7010E943C
:10210000450E882309F456CFDECFCF93DF931F927D
:10211000CDB7DEB7698341E050E0BE016F5F7F4F0E
:102120000E94EA0E0F90DF91CF910895FC01DB0130
:1021300012968D919C9113979383828381EC92E008
:102140009183808314968C911497848315968C9137
:102150001597858316964D915D916D917C91199798
:1021600046835783608771871A964D915D916D9173
:102170007C911D9742875387648775871E964D9182
:102180005D916D917C91519746875787608B718BDC
:1021900052968C915297828B53964D915D916D9191
:1021A0007C915697438B548B658B768B57964D91CC
:1021B0005D916D917C915A97478B508F618F728F93
:1021C0005B968D919C91948F838F0895FC01818DF6
:1021D000928D009719F061E00C94450E0895DC0192
:1021E0005996ED91FC913097B9F083899489A5892E
:1021F000B6894285538564857585841B950BA60B2E
:10220000B70B811520E89207A105B10538F08FEFD3
:102210009FE7A0E0B0E0089590E080E00895DC0141
:1022200059968D919C91009739F0DC01ED91FC91CC
:102230000480F581E02D199490E080E00895CF931B
:10224000DF93EC01E98DFA8D309749F481E090E05D
:102250009B838A8390E080E0DF91CF910895138281
:102260001282898D9A8D0E94EA0EE98DFA8D228163
:102270003381232B59F7F0CFCF93DF931F92CDB744
:10228000DEB76983DC01ED91FC910280F381E02DE2
:1022900041E050E0BE016F5F7F4F19950F90DF91D5
:1022A000CF9108952F923F924F925F926F927F92BB
:1022B0008F929F92AF92BF92CF92DF92EF92FF9256
:1022C0000F931F93CF93DF9300D0CDB7DEB7FC0100
:1022D0008581811118C08FEF9FEF0F900F900F90A5
:1022E000DF91CF911F910F91FF90EF90DF90CF90F2
:1022F000BF90AF909F908F907F906F905F904F9026
:102300003F902F900895848180FFE5CF43895489C1
:102310006589768982859385A485B585312C212CA4
:10232000481759076A077B0719F022242394312C98
:102330006F012101CE0101963C01DF011696BB839E
:10234000AA834114510409F4C5C0F601428553859E
:10235000648575854A01F1E09F22D6015B968D91D7
:102360009C915C978A019B01E9E03695279517952A
:102370000795EA95D1F71596EC91E230E9F5FC0165
:10238000628D738D848D958D600F711F821F931FD9
:10239000A12C22E0B22EA818B9084A145B0408F454
:1023A0005201F601248126FD04C0A114F2E0BF060B
:1023B00071F400910002109101022091020230910B
:1023C0000302061717072807390709F05EC040E027
:1023D0000E944309882309F47ECFC4018C5B944F8B
:1023E000D3019C012A0D3B1DFC012E173F0709F468
:1023F0006CC041914D93F9CFDC011496BC90BA9416
:10240000B0228114910479F4B1100DC0452B462BF4
:10241000472B69F5F6018789908DA18DB28D868352
:102420009783A087B187D6015B96ED91FC915C976D
:1024300016966D917D918D919C91199762507109BD
:1024400081099109258504C0660F771F881F991F90
:102450002A95D2F70685178520893189600F711F6B
:10246000821F931F6B0D711D811D911D91CFD60190
:1024700016964D915D916D917C9119972A813B81C2
:102480000E94710B8111CFCF26CF7301850194017A
:10249000AB01BC018091420B9091430B0E94E40779
:1024A000882309F418CF6A0C7B1CF601828593857A
:1024B000A485B5858A0D9B1DA11DB11D82879387BB
:1024C000A487B5874A185B083CCF281B390B620EDE
:1024D000731EEBCF2A94232809F0FDCE898190E06A
:1024E000FCCEFC01818D928D009711F00C9452115D
:1024F0008FEF9FEF08950F931F93CF93DF93EC011E
:10250000898D9A8D10E000E0009799F00E94521199
:102510008C010F3F100769F0898D9A8DFC0142856F
:1025200053856485758541505109610971090E947F
:10253000B10CC801DF91CF911F910F910895CF93F6
:10254000DF93C1E6D2E08881229660E00E94C70353
:1025500082E0C137D807B9F7C1E7D2E08881229677
:1025600070E060E00E94260482E0C538D807B1F729
:1025700060E08FE1DF91CF910C94C7038AE10E9464
:102580009E03892B49F06CE271E080E090E00E94AC
:10259000220590E080E0089588E10E949E03892B47
:1025A00049F06CE271E080E090E00E94220581E059
:1025B00090E0089586E10E949E03892B49F06CE229
:1025C00071E080E090E00E94220582E090E00895B2
:1025D0008CE10E949E03892B49F06CE271E080E05F
:1025E00090E00E94220583E090E0089508958F9284
:1025F0009F92AF92BF92CF92DF92EF92FF920F9392
:102600001F93CF93DF9300D01F92CDB7DEB7FC01AD
:102610008581813091F080E00F900F900F900F90A6
:10262000DF91CF911F910F91FF90EF90DF90CF90AE
:10263000BF90AF909F908F900895848181FFEBCFE2
:1026400083899489A589B689892B8A2B8B2B09F4D8
:102650005FC07F0140E050E0BA01CF010E94B10CA1
:102660008823C9F2F701C38CD48C8788908CA18C05
:10267000B28C82E090E0A0E0B0E0F601808391832C
:10268000A283B3839E012F5F3F4FB501A401C60112
:102690000E94710B882309F4BECF00E010E098017E
:1026A000B501A401C6010E94CF0A882309F4B3CF63
:1026B00089809A80AB80BC80F6018789803119F1CE
:1026C00088EF9FEFAFEFBFE088169906AA06BB061A
:1026D000C8F2F701178A108E118E128E138A148A8F
:1026E000158A168A84818068848361E0C7010E940C
:1026F000450E882309F48FCF40E050E0BA01C701AE
:102700000E94B10C89CF88EF9FEFA0E0B0E0DCCF52
:1027100081E082CFCF92DF92EF92FF921F93CF930F
:10272000DF93EC0180E2689FF0011124EC5BF44F31
:102730009385917161F0842F827449F080E0DF917C
:10274000CF911F91FF90EF90DF90CF900895142FBD
:102750006A8B8091000290910102A0910202B091D7
:1027600003028E879F87A88BB98BC488D588F12CEC
:10277000E12C7601DD24CC24CF8AD88EE98EFA8E26
:10278000828D938DB0E0A0E0AC01BD014C295D29A4
:102790006E297F294F8B588F698F7A8F8385887137
:1027A000B1F4848D958DA68DB78D8B8B9C8BAD8B65
:1027B000BE8B81E08D831F701C831E821F82188652
:1027C00019861A861B861C861D8681E0B8CF80314B
:1027D00009F0B4CF9E012D5E3F4F8B8D9C8D0E94E2
:1027E000F20B882309F4AACF84E0E4CF0F931F9360
:1027F000CF938C01C62F0E944E066C2F6460C801D7
:102800000E944E066C2F6B7FC8010E944E0683EC1F
:1028100090E00197F1F7CF911F910F9108950F93D9
:102820001F93CF93DF938C01D62FC42F607F642B2F
:102830000E94F61380E1D89FB00111246C2BC801CF
:10284000DF91CF911F910F910C94F613CF93DF93EB
:1028500000D000D01F921F92CDB7DEB798E0E2E221
:10286000F2E0DE01119601900D929A95E1F79091B8
:102870005B0E961710F46FEF690F262F30E0220FD2
:10288000331F41E050E04C0F5D1F240F351FF9014D
:102890006081680F606840E083E59EE028960FB68F
:1028A000F894DEBF0FBECDBFDF91CF910C940F1413
:1028B00040E061E083E59EE00E940F148BE39FE11E
:1028C0000197F1F7089541E00E940F1481E090E034
:1028D00008958091510E9091520E009761F00E94E0
:1028E000DD0E8091510E9091520E0E94162C109286
:1028F000520E1092510E0895EF92FF920F931F9374
:10290000CF93DF93EC017B018A0188819981009745
:1029100029F02A813B812417350788F4B8016F5FBD
:102920007F4F0E949F2C009791F0998388831B838F
:102930000A832C813D81232B11F4FC0110821D831D
:102940000C83B701888199810E94A12D0CC08881D8
:102950009981009711F00E94162C198218821D820D
:102960001C821B821A82CE01DF91CF911F910F91A1
:10297000FF90EF900895FB0101900020E9F7319757
:10298000AF01461B570BDC01ED91FC910280F381F6
:10299000E02D19948F929F92AF92BF92EF92FF9287
:1029A0000F931F93CF93DF93CDB7DEB7A1970FB6E9
:1029B000F894DEBF0FBECDBF7C01FA01CB0119A296
:1029C000223008F42AE08E010F5D1F4F822E912CD9
:1029D000B12CA12CBF01A50194010E943A2BF90151
:1029E000CA016A300CF5605DD8016E938D01232B0E
:1029F000242B252B79F790E080E0109721F0BD0182
:102A0000C7010E94BB14A1960FB6F894DEBF0FBE9B
:102A1000CDBFDF91CF911F910F91FF90EF90BF90AD
:102A2000AF909F908F900895695CDECFCF92DF9238
:102A3000EF92FF920F931F93CF93DF936B01770F6A
:102A4000EE08FF08F7FE1BC0EC016DE20E94FC01DE
:102A50008C0144275527BA014C195D096E097F097D
:102A60002AE0CE010E94CA14800F911FDF91CF91FE
:102A70001F910F91FF90EF90DF90CF9008952AE083
:102A8000B701A601DF91CF911F910F91FF90EF90B9
:102A9000DF90CF900C94CA14CF93DF93BC0184E4F1
:102AA0009DE00E941615EC0167EE72E084E49DE063
:102AB0000E94BB148C0F9D1FDF91CF910895CF937F
:102AC000DF93AB01BC012AE084E49DE00E94CA14BC
:102AD000EC0167EE72E084E49DE00E94BB148C0F71
:102AE0009D1FDF91CF910895CF93DF93BC0184E4C4
:102AF0009DE00E94BB14EC0167EE72E084E49DE06F
:102B00000E94BB148C0F9D1FDF91CF9108950C94F0
:102B1000BB148091260B63E0882349F080E00E947B
:102B200026146AEE72E083E59EE00C94871580E03F
:102B30000E94261462EF72E0F6CF4F925F926F927E
:102B40007F928F929F92AF92BF92CF92DF92EF923D
:102B5000FF920E9489150E9455054B015C0161E0BE
:102B600084E20E94C7030E945505681979098A0901
:102B70009B09683E73408105910528F486E20E9416
:102B80009E03019781F30E9455056B017C010E9411
:102B900055052B013C01481859086A087B0860E07C
:102BA00084E20E94C70388EE481683E05806610459
:102BB000710400F162E080E00E9426146AEF72E086
:102BC00083E59EE00E94871562E080E00E94261463
:102BD0006FE073E083E59EE0FF90EF90DF90CF9091
:102BE000BF90AF909F908F907F906F905F904F902D
:102BF0000C948715C818D908EA08FB0862E080E041
:102C00000E9426146BE173E083E59EE00E94871525
:102C100062E089E00E9426142AE0B701A601F7FECF
:102C20000DC06DE283E59EE00E94FC01442755271C
:102C3000BA014C195D096E097F092AE083E59EE01F
:102C40000E94CA1462EC73E0C5CF0E94581460E37E
:102C500073E083E59EE00E94871580911C0B60E085
:102C6000882349F081E10E9426146BE373E083E539
:102C70009EE00C94871582E10E9426146FE373E0B6
:102C8000F6CFCF93DF93EC01662341F00E945814F6
:102C900062E473E083E59EE00E94871561E080E0D6
:102CA0000E942614BE0183E59EE00E941615C83ED0
:102CB000D34044F46DE073E083E59EE0DF91CF9173
:102CC0000C948715DF91CF910895CF93DF93EC019A
:102CD0000E94581465E573E083E59EE00E94871525
:102CE00061E080E00E942614BE0183E59EE0DF9152
:102CF000CF910C941615CF93DF93EC010E945814DA
:102D000068E973E083E59EE00E948715209751F4FF
:102D100060E083E10E94261464E673E083E59EE0B0
:102D20000E94871561E080E00E9426146DED73E03B
:102D300083E59EE00E948715C130D10551F461E022
:102D400083E10E94261464E673E083E59EE00E941E
:102D5000871562E080E00E9426146AEE73E083E546
:102D60009EE00E948715C230D10551F462E083E1F4
:102D70000E94261464E673E083E59EE00E948715B6
:102D800063E080E00E9426146EE074E083E59EE03C
:102D90000E948715239761F463E083E10E94261463
:102DA00064E673E083E59EE0DF91CF910C94871594
:102DB000DF91CF910895CF93DF93EC010E945814D7
:102DC00066E673E083E59EE00E948715209751F444
:102DD00060E083E10E94261464E673E083E59EE0F0
:102DE0000E94871580913F0B9091400B892B09F031
:102DF00046C061E080E00E94261462E773E083E54C
:102E00009EE00E948715C130D10551F461E083E155
:102E10000E94261464E673E083E59EE00E94871515
:102E200062E080E00E94261462E473E083E59EE0A5
:102E30000E948715C230D10551F462E083E10E94FF
:102E4000261464E673E083E59EE00E94871563E044
:102E500080E00E94261461E873E083E59EE00E9412
:102E60008715239761F463E083E10E94261464E6EA
:102E700073E083E59EE0DF91CF910C948715DF919D
:102E8000CF91089580913F0B9091400B8130910537
:102E900009F480C01CF4892B49F008958230910513
:102EA00009F47DC0039709F48EC008950E94581458
:102EB0006BE873E083E59EE00E94871561E080E0A7
:102EC0000E94261460EA73E083E59EE00E94871565
:102ED0008091120B9091130B0A9734F46DE073E01C
:102EE00083E59EE00E9487156091120B7091130B91
:102EF00083E59EE00E94161562E080E00E942614A1
:102F000063EB73E083E59EE00E94871580911402D5
:102F100090911502A0911602B0911702883E93403D
:102F2000A105B10530F46DE073E083E59EE00E94F9
:102F3000871540911402509115026091160270910C
:102F400017022AE083E59EE00E94CA1461EC73E058
:102F500083E59EE00E94871563E080E00E942614CE
:102F600065EC73E083E59EE00E94871580911C0B61
:102F700063E0882349F081E10E9426146BE373E04B
:102F800083E59EE00C94871582E10E94261464ED8F
:102F900073E0F6CF0E94581467ED73E0F1CF0E9402
:102FA000581464EE73E083E59EE00E94871561E0AB
:102FB00080E00E94261469EF73E083E59EE00E94A2
:102FC00087150C9489150E94581468E074E0EBCFC3
:102FD00085ED8093BC008091C40A9091C50AA091B0
:102FE000C60AB091C70A0796A11DB11D23E0B69588
:102FF000A795979587952A95D1F72091BC0024FD38
:1030000003C01092C20A08954091C40A5091C50AA3
:103010006091C60A7091C70A452B462B472B69F36E
:103020000097A105B10541F025E32A95F1F70000CD
:103030000197A109B109E1CF8091C30A0C94A705BA
:103040003F924F925F926F927F928F929F92AF9238
:10305000BF92CF92DF92EF92FF920F931F93CF9385
:10306000DF9300D000D000D01F921F92CDB7DEB703
:103070007C01FE013196CE010C966F0130E2319356
:103080008E179F07E1F7DA0130E087E09D91B92EB6
:10309000992309F43CC09E32F1F48A30C9F480E0EF
:1030A0002B960FB6F894DEBF0FBECDBFDF91CF9148
:1030B0001F910F91FF90EF90DF90CF90BF90AF9056
:1030C0009F908F907F906F905F904F903F9008956A
:1030D00038E08AE0DBCFE4EEF1E04491442321F0D4
:1030E00031969413FACFDBCF8317C8F24FED490F17
:1030F0004E35A8F64FE9490F4A3118F440EEB42E88
:10310000B90EF601E30FF11DB0823F5FBFCF898199
:10311000803229F2322E8B01DB015B968D919C91DE
:103120005C97F701948F838F16961D921D921D92C6
:103130001C921997FB011286138614861586F801D6
:1031400082859385A485B585438954896589768967
:1031500084179507A607B70708F04DC025E0B69578
:10316000A795979587952A95D1F7F82FFF70AF2EE1
:10317000D80115968C91823008F491CFC8010E9435
:10318000521197FD8CCFF80182859385A485B58572
:103190004F96A11DB11D82879387A487B587F0E262
:1031A000AF9EB00111246C5B744F6115710509F479
:1031B00076CFDB018C91882341F0853E09F058C021
:1031C000BB2029F0BB24B394BACFB1100EC0F701D5
:1031D000A28A8091000290910102A0910202B09116
:1031E000030286879787A08BB18BDB018C918111BD
:1031F000E9CFBB24B394832D8271823109F04FCF84
:10320000BB2009F443C0C7010E948D09009709F44F
:1032100046CF20E2FC0111922A95E9F72BE0F60156
:10322000DC0101900D922A95E1F721E238E2DC0100
:1032300051963C932E93509740E058E01F965C9334
:103240004E931E9753963C932E93529759963C93C8
:103250002E93589757965C934E93569781E00E9411
:103260001809882309F41BCF432DF70162890AC08E
:103270004BE050E0C6010E94802D892B09F05FCF02
:10328000432D6A2DC7010E948A130ACFF801858158
:10329000823009F404CFC8010E94450D882309F447
:1032A000FECED8015B96ED91FC915C9716968D90C1
:1032B0009D90AD90BC901997B2E08B1A9108A1082F
:1032C000B108858504C0880C991CAA1CBB1C8A9572
:1032D000D2F786859785A089B189880E991EAA1E86
:1032E000BB1E848124013501480E511C611C711CD8
:1032F000481459046A047B0409F1E1E04E1A5108AC
:103300006108710881E00E941809882309F4C7CE7A
:10331000E4E4FBE0119284E49DE08E179F07D1F76F
:1033200040920002509201026092020270920302E7
:103330008091330A81608093330ADACFD8015B969B
:10334000ED91FC91258580E092E0A0E0B0E004C022
:10335000880F991FAA1FBB1F2A95D2F7F80143892E
:10336000548965897689840F951FA61FB71F838BA3
:10337000948BA58BB68BD70152961C9284E49BE06C
:1033800048CFEF92FF920F931F93CF93DF93EC01FF
:103390007B018A011B821A8288EE93E0A0E0B0E0F4
:1033A0008C839D83AE83BF838DEC92E09983888369
:1033B0008DE190E00E947A2B9A8F898F009779F0A7
:1033C0002DE1F701DC0101900D922A95E1F74CE027
:1033D00050E0B801CE010C960E94A82D188EDF9106
:1033E000CF911F910F91FF90EF9008952F923F92F0
:1033F0004F925F926F927F928F929F92AF92BF9205
:10340000CF92DF92EF92FF920F931F93CF93DF93B0
:10341000CDB7DEB7C756D1090FB6F894DEBF0FBEE1
:10342000CDBF6C015B01A6964FAFA69719A218A25B
:1034300081EC92E09F8F8E8F1BA21C821B829A834D
:1034400089831E824E018EE1880E911CC4010E9468
:103450005D0C75018E010F5F1F4F240118016FE293
:1034600070E0C7010E94962D009709F45DC0F70136
:1034700020812F3271F4FFEFEF1AFF0A902F812F76
:103480008201492E582E942D852D2801092F182FA1
:10349000E6CF8E198D3008F08CE0682E712CA301D8
:1034A000B701CE01885A9F4F0E94A82DE8E5F0E0B1
:1034B000EC0FFD1FE60DF71D1082C8010E94DD0E06
:1034C000F8018581882301F11EAE1DAE81EC92E0EA
:1034D0009CAF8BAF21961FAE2197A896EEADFFADA6
:1034E000A897AE0EBF1EF501808181112AC0BE01D2
:1034F000655C7F4FC1010E9496104BE154E0B10121
:10350000C6010E94C1193BC021E0AE01485A5F4F7D
:10351000B201C8010E9420188823B1F2E60CF71C02
:10352000C2010E94DD0EAFCFC7018A199B09A89680
:103530009FAF8EAFA897B201CE01CB960E94961096
:10354000CCCF19A218A281EC92E09F8F8E8F1BA284
:1035500021968FAD219781112DC0F6011382128221
:1035600088EE93E0A0E0B0E084839583A683B783E0
:103570008DEC92E091838083128E118E1486C601A9
:10358000C959DF4F0FB6F894DEBF0FBECDBFDF9134
:10359000CF911F910F91FF90EF90DF90CF90BF9050
:1035A000AF909F908F907F906F905F904F903F90E3
:1035B0002F900895A6962FADA697A501BE01655C34
:1035C0007F4FC4010E942018882339F2CE01CB9688
:1035D0000E94DD0EA6968FADA6978670863039F4D0
:1035E00049A95AA96BA97CA9C4010E94B10CB401D4
:1035F000C1010E949610A50182CFCF92DF92EF9277
:10360000FF920F931F93CF93DF93CDB7DEB7AE97A3
:103610000FB6F894DEBF0FBECDBF8C0187E0ECE49F
:10362000F4E0DE015C9601900D928A95E1F71AA60E
:1036300019A61CA61BA61EA61DA650E040E069EE1A
:1036400072E0CE0189960E947C141CA21BA21EA2CD
:103650001DA218A61FA24AE0CE0101967C01BC0162
:10366000C8010E94CB2AF70101900020E9F73197A9
:10367000AF014E195F09B701CE0183960E947C14F9
:1036800089A59AA5009709F479C06BA17CA1611561
:10369000710509F471C04BA55CA52FA138A542178F
:1036A000530708F469C00E94A12D8FA198A59EA779
:1036B0008DA718A61FA28BA19CA1009711F00E94B4
:1036C000162C8DA59EA50A3011050CF068C0892B1B
:1036D00021F0E9A5FAA5309721F41092300AE0E331
:1036E000FAE080818D8FCE014C960E94741541E0E6
:1036F000BE01645E7F4FC7010E94F619C7010E9498
:10370000BE01E091510EF091520E309709F4EBC0DA
:103710008581882309F4E7C010921E0B10921D0BBF
:103720001CA21BA219821A821B821C8210E000E0DC
:10373000D12CC12C88E39EE00E94EF10892B09F464
:10374000ADC088E39EE00E9471128A3009F44BC03C
:10375000A8014F5F5F4FE3E2F0E0EC0FFD1FC114E3
:10376000D10429F091E0C916D10479F5F701E00FF1
:10377000F11F80838A01DECF0E94162C8BA19CA1B1
:103780009AA789A78DA19EA19CA78BA78FA198A579
:103790009EA78DA71CA21BA21EA21DA28ACF0097C6
:1037A00021F0E9A5FAA5309721F41092300AE0E360
:1037B000FAE020812C8F029708F48FCFE9A5FAA5B3
:1037C000309709F48ACF31968CCFE0911D0BF091A0
:1037D0001E0BEE0FFF1FE75CFD4F20813181020FB2
:1037E000131FF801C6CFB60184E49DE00E941615B0
:1037F0006CE073E084E49DE00E948715C114D1045D
:1038000081F4CE0183960E94AD2A9093130B80938E
:10381000120B0E944C158FEFC81AD80A50E040E0F6
:10382000A9CF10E000E0F1E0CF16D10491F4C70178
:103830000E94AD2ABC01990F880B990B609314026A
:103840007093150280931602909317020E945F15E1
:10385000E2CFE0911D0BF0911E0BEE0FFF1FE75C16
:10386000FD4F0190F081E02DE00FF11F608184E4B5
:103870009DE00E94FC010F5F1F4F0632110549F7C2
:103880008DE093E00E94741580911D0B90911E0BAA
:10389000019690931E0B80931D0BBDCF0E9469145F
:1038A0006DE174E084E49DE00E94871580911D0B1A
:1038B00090911E0B0E944C150E94421789A59AA553
:1038C000009711F00E94162CAE960FB6F894DEBF4A
:1038D0000FBECDBFDF91CF911F910F91FF90EF9061
:1038E000DF90CF9008950E9458146AE374E083E556
:1038F0009EE00E94871568E873E180E090E00E94F6
:103900002205DACF1F920F920FB60F9211240BB639
:103910000F922F933F934F935F936F937F938F9368
:103920009F93AF93BF93EF93FF9384E49DE00E9436
:103930007702FF91EF91BF91AF919F918F917F910E
:103940006F915F914F913F912F910F900BBE0F9010
:103950000FBE0F901F9018951F920F920FB60F92E7
:1039600011240BB60F922F938F939F93EF93FF9396
:10397000E091540DF091550D8081E0915A0DF09138
:103980005B0D82FD1DC0908180915D0D8F5F8F73F7
:1039900020915E0D821741F0E0915D0DF0E0EC5B4F
:1039A000F24F958F80935D0DFF91EF919F918F91D5
:1039B0002F910F900BBE0F900FBE0F901F90189578
:1039C0008081F2CF1F920F920FB60F9211242F9386
:1039D0003F938F939F93AF93BF938091EB0A909106
:1039E000EC0AA091ED0AB091EE0A3091EA0A23E0C8
:1039F000230F2D3758F50196A11DB11D2093EA0A1A
:103A00008093EB0A9093EC0AA093ED0AB093EE0A30
:103A10008091EF0A9091F00AA091F10AB091F20A18
:103A20000196A11DB11D8093EF0A9093F00AA09317
:103A3000F10AB093F20ABF91AF919F918F913F919C
:103A40002F910F900FBE0F901F90189526E8230F0F
:103A50000296A11DB11DD2CF1F920F920FB60F92E9
:103A600011240BB60F922F933F934F935F936F9355
:103A70007F938F939F93AF93BF93EF93FF93E091C7
:103A80001202F09113021995FF91EF91BF91AF913E
:103A90009F918F917F916F915F914F913F912F9166
:103AA0000F900BBE0F900FBE0F901F9018951F9296
:103AB0000F920FB60F9211240BB60F922F933F93D4
:103AC0004F935F936F937F938F939F93AF93BF9326
:103AD000EF93FF93E0911002F09111021995FF917D
:103AE000EF91BF91AF919F918F917F916F915F9176
:103AF0004F913F912F910F900BBE0F900FBE0F90E3
:103B00001F9018951F920F920FB60F9211240BB6AB
:103B10000F922F933F934F935F936F937F938F9366
:103B20009F93AF93BF93EF93FF93E0910602F091C1
:103B300007021995FF91EF91BF91AF919F918F91DE
:103B40007F916F915F914F913F912F910F900BBE9D
:103B50000F900FBE0F901F9018951F920F920FB6E7
:103B60000F9211240BB60F922F933F934F935F93B5
:103B70006F937F938F939F93AF93BF93EF93FF9335
:103B8000E0910402F09105021995FF91EF91BF9128
:103B9000AF919F918F917F916F915F914F913F91E5
:103BA0002F910F900BBE0F900FBE0F901F90189586
:103BB0001F920F920FB60F9211240BB60F922F93F4
:103BC0003F934F935F936F937F938F939F93AF93A5
:103BD000BF93EF93FF93E0910E02F0910F021995BE
:103BE000FF91EF91BF91AF919F918F917F916F91D5
:103BF0005F914F913F912F910F900BBE0F900FBE91
:103C00000F901F9018951F920F920FB60F921124CC
:103C10000BB60F922F933F934F935F936F937F93C6
:103C20008F939F93AF93BF93EF93FF93E0910C0219
:103C3000F0910D021995FF91EF91BF91AF919F9176
:103C40008F917F916F915F914F913F912F910F9045
:103C50000BBE0F900FBE0F901F9018951F920F92E2
:103C60000FB60F9211240BB60F922F933F934F93E1
:103C70005F936F937F938F939F93AF93BF93EF93D4
:103C8000FF93E0910A02F0910B021995FF91EF91D9
:103C9000BF91AF919F918F917F916F915F914F9164
:103CA0003F912F910F900BBE0F900FBE0F901F9062
:103CB00018951F920F920FB60F9211240BB60F9208
:103CC0002F933F934F935F936F937F938F939F9324
:103CD000AF93BF93EF93FF93E0910802F091090235
:103CE0001995FF91EF91BF91AF919F918F917F9126
:103CF0006F915F914F913F912F910F900BBE0F905D
:103D00000FBE0F901F9018951F920F920FB60F9233
:103D100011240BB60F922F933F934F935F936F93A2
:103D20007F938F939F93AF93BF93EF93FF93809174
:103D3000B900887F803609F44DC008F040C0883251
:103D400009F4A9C028F5803109F49DC0C8F488237E
:103D500009F4FBC0883009F496C0FF91EF91BF9140
:103D6000AF919F918F917F916F915F914F913F9113
:103D70002F910F900BBE0F900FBE0F901F901895B4
:103D8000883109F488C0803241F78093C00A14C09A
:103D9000803409F49DC040F48033B9F38833E9F6E8
:103DA0008093C00A85ECB0C0803509F485C08835A1
:103DB00009F496C0883489F60E94E817CECF883976
:103DC00009F48CC038F5883729F050F4883611F0A2
:103DD000803719F683E08093C20A10929B0A57C07D
:103DE000883809F47BC0803919F0803809F0B5CFE4
:103DF00080919B0A803208F071C0E0919B0A81E0BB
:103E00008E0F80939B0A8091BB00F0E0E558F54F40
:103E100080833DC0803B39F0E0F4803A09F479C0FA
:103E2000883A09F09ACF84E08093C20A10927A0A05
:103E30001092790AE091F50AF091F60A19958091AD
:103E4000790A81110FC081E08093790A1092590A92
:103E500009C0803C09F4A6CF883C09F4A3CF883B75
:103E600009F07BCFE0917A0A81E08E0F80937A0A85
:103E7000F0E0E75AF54F80818093BB0090917A0A79
:103E80008091790A29C080919D0A8093BB0085ECBE
:103E90008093BC0062CF9091BF0A8091BE0A9817B0
:103EA00058F5E091BF0A81E08E0F8093BF0AF0E0E1
:103EB000E256F54F8081E9CFE091BF0A81E08E0F95
:103EC0008093BF0A8091BB00F0E0E256F54F8083FB
:103ED0009091BF0A8091BE0A9817C8F285E8D8CFA2
:103EE000E091BF0A81E08E0F8093BF0A8091BB00F2
:103EF000F0E0E256F54F80838091C10A81115CCFDA
:103F000081E080939C0A84EA8093BC001092C20AEC
:103F100024CF85EC8093BC001092C20A80919B0A4A
:103F2000803230F4E0919B0AF0E0E558F54F1082C2
:103F300060919B0A70E0E091F30AF091F40A8BE73C
:103F40009AE0199510929B0A08CF1092C00A34CFBC
:103F5000E4E4FDE01382128288EE93E0A0E0B0E09A
:103F600084839583A683B7832DE932E03183208350
:103F700025EC30E03587248724EC30E0378726872E
:103F800020EC30E0318B208B21EC30E0338B228B26
:103F900022EC30E0358B248B26EC30E0378B268BFF
:103FA000118E128E138E148EE1EEFDE013821282BA
:103FB00084839583A683B7832FEA32E031832083FD
:103FC000EDEEFDE020E520831182EFEEFDE01582AD
:103FD00016821186138642E050E060E070E044876C
:103FE00055876687778713A215A614A621EC32E0C1
:103FF00033A722A717A6E3E5FEE0138212822FED76
:1040000032E0318320832FE3248324E1218724E0DD
:1040100022871386E8E3FEE013821282848395836D
:10402000A683B7838DEC92E091838083128E118EEC
:1040300014860895CF93DF93CDB7DEB7C656D10966
:104040000FB6F894DEBF0FBECDBF789484B5826002
:1040500084BD84B5816084BD85B5826085BD85B52C
:10406000816085BD80916E00816080936E001092AA
:104070008100809181008260809381008091810025
:1040800081608093810080918000816080938000B6
:104090008091B10084608093B1008091B000816014
:1040A0008093B00080919100826080939100809114
:1040B0009100816080939100809190008160809355
:1040C00090008091A10082608093A1008091A10066
:1040D00081608093A1008091A00081608093A00006
:1040E0008091210182608093210180912101816072
:1040F0008093210180912001816080932001809133
:104100007A00846080937A0080917A008260809344
:104110007A0080917A00816080937A0080917A00A1
:10412000806880937A001092C100E091540DF09164
:10413000550D82E08083E091500DF091510D108279
:10414000E091520DF091530D8FEC808310925C0D35
:10415000E091580DF091590D86E08083E091560D65
:10416000F091570D808180618083E091560DF09130
:10417000570D808188608083E091560DF091570D36
:10418000808180688083E091560DF091570D808189
:104190008F7D808364EF71E080E090E00E942205D3
:1041A0001092FA0A1092F90A1092F80A1092F70A7D
:1041B0000E94890589EF91E09093F60A8093F50AB1
:1041C0008AEF91E09093F40A8093F30A1092580ECC
:1041D00080915D0E823018F098E09093580E809395
:1041E0005B0E62E370E080E090E00E942205609147
:1041F0005E0E83E59EE00E944E0668EE73E080E06E
:1042000090E00E94220560E383E59EE00E94F613A1
:104210000BE416E4C8010197F1F760E383E59EE043
:104220000E94F613C8010197F1F760E383E59EE071
:104230000E94F61383E592E00197F1F760E283E5CF
:104240009EE00E94F6136091580E606240E083E5A4
:104250009EE00E940F1484E08093590E40E06CE0D1
:1042600083E59EE00E940F140E94581482E0809320
:104270005A0E40E066E083E59EE00E940F1440E0A5
:1042800062E083E59EE00E940F148BE39FE10197BB
:10429000F1F788E080935E0E60E083E59EE00E9487
:1042A0004E0661E080E20E94C70361E082E20E9464
:1042B000C70360E08FE10E94C70360E084E20E94D0
:1042C000C70380911E0E882321F089E19EE00E94A1
:1042D000DD0E1092FA0D1092F80D1092F50D10925D
:1042E000F40D84E08093F30D0E9455058B0161E08D
:1042F0008091F30D0E94F50361E08091F30D0E941F
:10430000C703FFB6F8948091FB0A811127C0E3E050
:10431000F3E08491EDEBF2E09491E82FF0E0EE0F02
:10432000FF1FE259FD4FA591B491EC91E92321F4CF
:1043300061E085E30E94C70361E085E30E94F50325
:104340008CB580618CBD8CB580648CBD61E084E3EC
:104350000E94F50361E083E30E94F5038091FB0A6C
:104360008F5F8093FB0AFFBE82E58093ED0D109274
:10437000EE0D8091ED0D9091EE0D0E946E078AE09A
:10438000F82E8FEF0E944907FA94F110FACF8FEEC2
:104390009DE00E94710720E030E0A90160E08FEE0F
:1043A0009DE00E948707F82E8093F90D21E0821787
:1043B00019F10E945505601B710B613D774058F360
:1043C00081E08093F40D8FEE9DE00E943E0763E54F
:1043D00074E083E59EE00E94871561E080E00E9422
:1043E000261465E674E083E59EE00E94871588E761
:1043F00094E00E947415FFCF2AEA31E040E050E0DB
:1044000068E08FEE9DE00E94870782FF2AC0F0924D
:10441000FA0D8091FA0DC12CD12CE12CA0E4FA2EDA
:10442000823019F0C12CD12C760120E030E0A901B6
:1044300067E38FEE9DE00E948707A701960169E27E
:104440008FEE9DE00E9487078093F90D8823D1F0BD
:104450000E945505601B710B613D774030F388E089
:10446000B0CFB4E0FB2E0E9450078093F90DFA9470
:10447000F110F9CF8A3A11F082E0A3CF82E0809365
:10448000FA0DC7CF8091FA0D8230D1F420E030E0F0
:10449000A9016AE38FEE9DE00E948707882311F04F
:1044A00086E08FCF0E945007807C803C19F483E027
:1044B0008093FA0D0E9450070E9450070E945007F7
:1044C0008FEE9DE00E943E0780E58093ED0D1092F7
:1044D000EE0D81E00E94A609882309F47CC089E1E1
:1044E0009EE00E945D0C882309F471CF90E080E08B
:1044F0000E94FD1A1EAE1DAE81EC92E09CAF8BAF08
:1045000021961FAE219719A218A29F8F8E8F1BA2F2
:10451000C12CB12C7E01EBE3EE0EF11C09E11EE093
:104520008C2D9B2DFC01EE57FB4F20812F3209F47F
:104530000196DC01AE57BB4FFE01E85AFF4F30E059
:1045400020E0AF016D916F3249F0662339F001969A
:104550002F5F3F4F61932C303105A1F7240F351F9A
:10456000F9011082FC01EE57FB4F20812F3209F434
:104570000196C82EB92E8E579B4FFC018081811168
:10458000FBC51C821B8281EC92E09A8389831E8288
:1045900022E0B801CE0101960E9420188823A9F0DC
:1045A000CE0101960E94F712882379F0CE01019680
:1045B0000E948D09009749F025EEFC0120831E82A0
:1045C00081E00E9418098111CFC5FEE009311F0763
:1045D00009F4E6C5CDC580E00E94A609882309F448
:1045E000F6CE7DCF89E196E00E947415DFC60E9469
:1045F00069140E944217F5E8EF2EF2E0FF2E01E663
:1046000012E0E016F106B1F40DE212E0E9E3EE2E5D
:10461000E2E0FE2EE016F106A9F0F80180810E5FBF
:104620001F4F60E00E94F503F5CF8DE296E00E94F7
:104630007415DFCFF80180810E5F1F4F61E00E948B
:10464000F503DFCF61E08FE10E94F5030E949F1226
:1046500085EF91E090930F0280930E0280916900A4
:10466000806C80936900EB9A78E8272E73E1372EEF
:10467000412C512C60902A0270902B0280902C02C9
:10468000CE010496A7969FAF8EAFA797F090410BEF
:10469000FF2009F443C08091140B81110BC080915D
:1046A000120B9091130B9093110B8093100B81E0E0
:1046B0008093140B8091080B81110BC08091140220
:1046C000909115029093070B8093060B81E08093E5
:1046D000080B8EE10E949E038C01892B09F4F9C01E
:1046E00080913F0B9091400B8230910509F4E4C01A
:1046F0008330910509F4E4C0892B71F481E496E0DC
:104700000E9474158091250B91E089278093250BD9
:10471000811102C00E949F121092410B00913F0B29
:104720001091400B0115110509F037C48091250B3C
:10473000882309F4B4C00E945505C090210BD09085
:10474000220BE090230BF090240B6C197D098E094D
:104750009F09C0901402D0901502E0901602F090CC
:1047600017026C157D058E059F0508F498C06982B7
:104770007A828B8261E6E62E62E0F62EE0911F0BD4
:10478000F091200BEE0FFF1FE75CFD4F0190F081D1
:10479000E02DE00FF11F80818B83CE0101960E94F6
:1047A000AD2AD82E682F792F84E49DE00E9416153B
:1047B0006DE073E084E49DE00E948715F70180813D
:1047C000F2E0EF0EF11C6D2D0E94C7030F5F1F4F2B
:1047D0000830110599F689EE92E00E94741531E7D0
:1047E000C32E32E0D32E48E0E42EF12C00911F0BB3
:1047F0001091200BF801EE0FFF1FE75CFD4F0190B9
:10480000F081E02DEE0DFF1DDE01119681918D935B
:10481000A7968EAD9FADA7978A179B07B9F7CE01D4
:1048200001960E94AD2ABC01F6018081F2E0CF0E14
:10483000D11C0E94260423E0E20EF11C86E2E81659
:10484000F104A1F60F5F1F4F1093200B00931F0B75
:1048500080911D0B90911E0B08171907B1F410924F
:10486000200B10921F0B80911C0B81110EC0109217
:10487000250B60911402709115028091160290919F
:1048800017020E9422050E949F120E945505609304
:10489000210B7093220B8093230B9093240B84E4C1
:1048A0009DE00E946102892B21F081E297E00E9445
:1048B00074150E940603EACE81E08093260B2CCF6C
:1048C0008091260B91E089278093260B0E94891501
:1048D00023CF8091040B9091050B8130910571F1EC
:1048E0008230910509F4F2C0892B09F015CFE1E07F
:1048F000F0E0F093050BE093040B86E693E00E9452
:1049000074151092030B1092020B1092010B10926F
:10491000000B8091120B9091130B9093110B8093CD
:10492000100B80911402909115029093070B8093C5
:10493000060B90E080E00E94DB16EECE0E94BE12D5
:104940008130910509F448C0B4F4892B09F0E4CE14
:104950001092050B1092040B66E576E084E49DE06E
:104960000E94871580913F0B9091400B0E944C153F
:104970000E944217D1CE8230910509F44AC00397B4
:1049800009F0CACE82E090E09093050B8093040B6F
:104990008091020B9091030B8130910509F477C04F
:1049A0000CF055C0892B09F0B7CE00913F0B109148
:1049B000400B0115110509F053C081EA96E00E94F1
:1049C00074151092010B1092000B8091000B9091C6
:1049D000010B0E947B16A0CE8091020B9091030BDD
:1049E000181619063CF420913F0B3091400B0197AB
:1049F000232BE9F08091020B9091030B0097E1F4D7
:104A000081E796E00E9474158091020B9091030B50
:104A100092CF8091020B9091030B8330910554F754
:104A200020913F0B3091400B232B21F7019690935F
:104A3000030B8093020BDECF8130910519F48DE7D3
:104A400096E0E0CF029701F78CE896E0DBCF82306A
:104A5000910551F1039709F05FCE0E9425165CCEB7
:104A60008EEA96E00130110559F08AEB96E00230AB
:104A7000110531F00330110509F0A7CF8EEC96E057
:104A80000E9474151093010B0093000B9ECF809130
:104A9000120B9091130B0E944C158091100B90916A
:104AA000110B0E94651638CE6091140270911502A8
:104AB00080911602909117020E945F1561E080912B
:104AC000060B9091070B0E94411626CE0E94BE1243
:104AD00081309105E1F114F5892B09F01DCEE1E05B
:104AE000F0E0F093050BE093040B8091020B9091A2
:104AF000030B892B21F481E796E00E9474158091C5
:104B00003F0B9091400B892B09F07ECF8091020BD7
:104B10009091030B019709F097CF91CF82309105C7
:104B200009F4FFC0039709F0F7CD8091020B909133
:104B3000030B8130910509F4FAC10CF0B6C1892B41
:104B400009F4BDC11092050B1092040BE5CD8091C4
:104B5000020B9091030B8130910509F44DC004F5CF
:104B6000892B09F0D9CD8091000B9091010B18167B
:104B700019062CF401979093010B8093000B009180
:104B8000000B1091010B0130110581F1BCF4012BD8
:104B900021F18091000B9091010B0E944C1515CFD3
:104BA00082309105D1F1039709F0B6CD80911C0BAD
:104BB000811153CF81E080931C0B4FCF0230110540
:104BC000C1F08EEC96E00330110519F70E947415C0
:104BD0001093010B0093000BDCCF81EA96E00E945A
:104BE00074151092010B1092000BD3CF8EEA96E051
:104BF000EDCF8AEB96E0EACF8091100B9091110BEC
:104C0000833691052CF401969093110B8093100B31
:104C10008091100B9091110B3ECF0E94550560932F
:104C2000FC0A7093FD0A8093FE0A9093FF0AE12C20
:104C300088E10E949E03892B09F462C0A090FC0ABF
:104C4000B090FD0AC090FE0AD090FF0A0531110510
:104C5000CCF40E9455056A197B098C099D096436BC
:104C600071058105910520F38091060B9091070B4A
:104C70008F30F7E29F07ECF401969093070B809337
:104C8000060B17C0053F21E0120744F50E945505A9
:104C90006A197B098C099D096A30710581059105A6
:104CA00038F28091060B9091070B8F30E7E29E0758
:104CB0001CF30E9455056093FC0A7093FD0A8093D3
:104CC000FE0A9093FF0A60E08091060B9091070B1B
:104CD0000E9441160F5F1F4FEF2CAACF0E9455056F
:104CE0006A157B058C059D0509F4A2CF8091060B02
:104CF0009091070B8F30F7E29F07DCF60A96BDCF45
:104D0000E1100ACD8091060B9091070B8F3027E2BE
:104D100092072CF401969093070B8093060B60E0AA
:104D2000CECE8091020B9091030B81309105E9F179
:104D3000FCF4892B09F0F0CC8091000B9091010BD1
:104D4000833091052CF401969093010B8093000B16
:104D50008091000B9091010B8130910501F1B4F429
:104D6000892B09F032CE81EA96E00E9474152DCE8F
:104D70008230910521F1039709F0CECC80911C0B74
:104D8000882309F46ACE10921C0B67CE82309105FD
:104D900049F0039709F019CE8EEC96E0E6CF8EEA43
:104DA00096E0E3CF8AEB96E0E0CF8091100B9091F4
:104DB000110B181619060CF02BCF019725CF0E9466
:104DC00055056093FC0A7093FD0A8093FE0A909348
:104DD000FF0AE12C86E10E949E03892B09F459C049
:104DE000A090FC0AB090FD0AC090FE0AD090FF0A85
:104DF0000531110564F50E9455056A197B098C0976
:104E00009D09643671058105910520F38091060B9B
:104E10009091070B181619062CF401979093070B25
:104E20008093060B0E9455056093FC0A7093FD0A5F
:104E30008093FE0A9093FF0A60E08091060B9091A8
:104E4000070B0E9441160F5F1F4FEF2CC3CF053F8A
:104E500081E018076CF40E9455056A197B098C09DA
:104E60009D096A3071058105910508F4B3CFCECF55
:104E70000E945505A616B706C806D90609F4AACF9A
:104E80008091060B9091070B181619065CF60A978D
:104E9000C5CFE11041CC8091060B9091070B1816FD
:104EA00019060CF03CCF019736CF8230910509F4FA
:104EB00053C0039709F046CE0E94421743CE80911B
:104EC000000B9091010B9093400B80933F0B65EE8C
:104ED00076E084E49DE00E94871580913F0B9091DD
:104EE000400B0E944C150E94421780913F0B9091FD
:104EF000400B009759F40E949F121092250B80914D
:104F0000120B9091130B0E94FD1A1CCE813091055B
:104F100039F40E949F1261E08FE10E94C70312CE14
:104F20000297029708F00ECE0E949F120BCE80913E
:104F3000100B9091110B9093130B8093120B60E068
:104F400077E084E49DE00E9487158091120B909198
:104F5000130B0E944C15B0CF8091060B9091070B5C
:104F6000092E000CAA0BBB0B809314029093150220
:104F7000A0931602B093170261E177E084E49DE00C
:104F80000E9487156091140270911502809116029B
:104F9000909117020E945F158FCF0130110509F023
:104FA00068C00E945505643671058105910508F4B5
:104FB00076CC85E8C82E82E0D82E91E7A92E92E023
:104FC000B92EF12CE12CF6018081F2E0CF0ED11C3C
:104FD000863308F0865320917B00982F9870277FA6
:104FE000922B90937B008770806480937C008091EB
:104FF0007A00806480937A0080917A0086FDFCCFED
:1050000080917800A0917900BA2FA82F2CED30E084
:105010000E94732B2FEF33E040E050E00E94082BFA
:1050200089019A010D5D1F4F2F4F3F4F0A32110525
:10503000ECF0033F110514F002EF10E0F501808160
:10504000F2E0AF0EB11CB8010E94260428E0E2167F
:10505000F10419F4C8010E944C158FEFE81AF80A00
:105060009AE0E916F10409F0AECF19CC10E000E0A7
:10507000E5CF0230110561F48091260B882309F4F5
:105080000ECC0E949D151092260B0E94891507CC0C
:105090000330110509F003CC8091370B811111C049
:1050A0000E94552AA20191010E94082B6093330BA4
:1050B0007093340B8093350B9093360B81E0809383
:1050C000370B80912B0B81110DC00E945505609309
:1050D000270B7093280B8093290B90932A0B81E068
:1050E00080932B0B8091260B882309F4D8CB0E9448
:1050F00055050091270B1091280B2091290B309119
:105100002A0BAB01BC01401B510B620B730B80914E
:10511000330B9091340BA091350BB091360B88571F
:105120009C4EAF4FBF4F84179507A607B70708F0EF
:10513000B6CB0E949D150E94552AA20191010E94A2
:10514000082B6093330B7093340B8093350B909343
:10515000360B0E9455056093270B7093280B8093A4
:10516000290B90932A0B9BCBEEE009311E07C1F06F
:10517000C8010E94DD0E14C0F7018581811125CA86
:1051800021E0B801C7010E942018D82E2EE0093175
:10519000120709F432C1C8010E94DD0ED11033C1DB
:1051A00047E162E874E0CE0101960E94F619CE0153
:1051B00001960E94BE01E091510EF091520E30977F
:1051C00009F410CA8581882309F40CCA6BE874E0DD
:1051D00088E39EE00E9487156AE088E39EE00E94D3
:1051E000FC0162E974E088E39EE00E9487156AE0B2
:1051F00088E39EE00E94FC0169E974E088E39EE098
:105200000E9487156AE088E39EE00E94FC0161EA43
:1052100074E088E39EE00E9487156AE088E39EE0E0
:105220000E94FC0166EA74E088E39EE00E94871514
:105230006AE088E39EE00E94FC016AEB74E088E388
:105240009EE00E9487156AE088E39EE00E94FC01D0
:105250006CEB74E088E39EE00E9487156AE088E3C7
:105260009EE00E94FC0160EC74E088E39EE00E94F6
:1052700087156AE088E39EE00E94FC016AEB74E017
:1052800088E39EE00E9487156CEC74E088E39EE062
:105290000E94871565ED74E088E39EE00E94871503
:1052A0006AE088E39EE00E94FC0167E075E088E325
:1052B0009EE00E9487156AE088E39EE00E94FC0160
:1052C00062E575E088E39EE00E9487156AE088E366
:1052D0009EE00E94FC0160E775E088E39EE00E948A
:1052E00087156AE088E39EE00E94FC0168E775E0AC
:1052F00088E39EE00E9487156AE088E39EE00E94B2
:10530000FC016FE775E088E39EE00E9487156AE084
:1053100088E39EE00E94FC0167E975E088E39EE077
:105320000E9487156AE088E39EE00E94FC016FEA14
:1053300075E088E39EE00E9487156AE088E39EE0BE
:105340000E94FC016DEB75E088E39EE00E948715EA
:105350006AE088E39EE00E94FC016DEC75E088E362
:105360009EE00E9487156AE088E39EE00E94FC01AF
:1053700062E076E088E39EE00E9487156AE088E3B9
:105380009EE00E94FC0169E076E088E39EE00E94D6
:1053900087156AE088E39EE00E94FC0161E176E007
:1053A00088E39EE00E9487150E94691441E062E84C
:1053B00074E0CE0101960E94F619CE0101960E947A
:1053C000BE01E091510EF091520E309709F42DC9B3
:1053D0008581882309F429C988E39EE00E94EF10A3
:1053E000892B09F404C988E39EE00E947112682F9A
:1053F00084E49DE00E94FC01EFCF882309F4D0CE25
:105400008E01025E1F4F902F812F8701E92EF82E0B
:1054100087C88F929F92AF92BF92CF92DF92EF9206
:10542000FF92CF93DF93EC01688179818A819B8120
:10543000611571058105910521F464E279ED8BE533
:1054400097E02DE133EF41E050E00E94082B490145
:105450005A019B01AC01A7EAB1E40E94272B6B0122
:105460007C01ACEEB4EFA50194010E94352BC60E71
:10547000D71EE81EF91EF7FE06C081E0C81AD10843
:10548000E10880E8F80AC882D982EA82FB82C70173
:10549000B6019F77DF91CF91FF90EF90DF90CF9093
:1054A000BF90AF909F908F9008958F929F92AF92F0
:1054B000BF92CF92DF92EF92FF92609118027091AB
:1054C000190280911A0290911B02611571058105E4
:1054D000910521F464E279ED8BE597E02DE133EF5E
:1054E00041E050E00E94082B49015A019B01AC01A8
:1054F000A7EAB1E40E94272B6B017C01ACEEB4EF6C
:10550000A50194010E94352BC60ED71EE81EF91E78
:10551000F7FE06C081E0C81AD108E10880E8F80A61
:10552000C0921802D0921902E0921A02F0921B0265
:10553000C701B6019F77FF90EF90DF90CF90BF90AB
:10554000AF909F908F900895609318027093190206
:1055500080931A0290931B020895FC0188279927D3
:10556000E89421912032E9F3293010F02E30C8F36D
:105570002B3241F02D3239F4689404C00E94D62AAF
:10558000820F911D219120532A30C0F31EF4909573
:1055900081959F4F0895BB274A3031F4992322F417
:1055A000BDE2909581959F4F0C94DF2A7AE0979FFA
:1055B000902D879F802D910D11240895BB27FB010D
:1055C0005527AA27880F991FAA1FA41710F0A41BFC
:1055D00083955051B9F7A05DAA3308F0A95DA19356
:1055E000009779F7B111B1931192CB010C94F82A7D
:1055F000DC01FC01672F71917723E1F7329704C03A
:105600007C916D9370836291AE17BF07C8F30895C4
:10561000052E97FB1EF400940E941F2B57FD07D008
:105620000E943A2B07FC03D04EF40C941F2B50958C
:105630004095309521953F4F4F4F5F4F089590957E
:105640008095709561957F4F8F4F9F4F08950E9471
:105650005C2BA59F900DB49F900DA49F800D911D74
:1056600011240895B7FF0C94272B0E94272B821B2F
:10567000930B0895A1E21A2EAA1BBB1BFD010DC0BE
:10568000AA1FBB1FEE1FFF1FA217B307E407F507F2
:1056900020F0A21BB30BE40BF50B661F771F881FCE
:1056A000991F1A9469F760957095809590959B0164
:1056B000AC01BD01CF010895A29FB001B39FC0010D
:1056C000A39F700D811D1124911DB29F700D811D2E
:1056D0001124911D0895EE0FFF1F881F8BBF0790A7
:1056E000F691E02D19940E945C2BB7FF0895821B60
:1056F000930B08950F931F93CF93DF9382309105FF
:1057000010F482E090E0E091610EF091620E30E0E2
:1057100020E0B0E0A0E0309799F42115310509F4BC
:105720004AC0281B390B24303105D8F58A819B816A
:105730006115710589F1FB0193838283FE0111C01C
:10574000408151810281138148175907E0F04817C1
:10575000590799F4109761F012960C9312971396CB
:105760001C933296CF01DF91CF911F910F91089535
:105770000093610E1093620EF4CF2115310551F0A4
:105780004217530738F0A901DB019A01BD01DF017F
:10579000F801C1CFEF01F9CF9093620E8093610EB3
:1057A000CDCFFE01E20FF31F819391932250310977
:1057B00039832883D7CF20915F0E3091600E232B41
:1057C00041F420911E0230911F023093600E20930D
:1057D0005F0E20911C0230911D022115310541F40C
:1057E0002DB73EB74091200250912102241B350B6A
:1057F000E0915F0EF091600EE217F307A0F42E1B0C
:105800003F0B2817390778F0AC014E5F5F4F241724
:10581000350748F04E0F5F1F5093600E40935F0EA8
:10582000819391939FCFF0E0E0E09CCFCF93DF9303
:105830000097E9F0FC01329713821282A091610E69
:10584000B091620EED0130E020E01097A1F42081CC
:105850003181820F931F20915F0E3091600E2817C7
:10586000390709F061C0F093600EE0935F0EDF919D
:10587000CF910895EA01CE17DF07E8F54A815B81F1
:105880009E0141155105B1F7E901FB83EA83499176
:105890005991C40FD51FEC17FD0761F480819181E8
:1058A0000296840F951FE9019983888382819381F1
:1058B0009B838A83F0E0E0E012968D919C91139790
:1058C0000097B9F52D913C911197CD010296820F69
:1058D000931F20915F0E3091600E2817390739F61B
:1058E000309751F51092620E1092610EB093600ED7
:1058F000A0935F0EBCCFD383C28340815181840FBC
:10590000951FC817D90761F44E5F5F4F8881998151
:10591000480F591F518340838A819B8193838283DF
:105920002115310509F0B0CFF093620EE093610EBE
:105930009ECFFD01DC01C0CF13821282D7CF4F92E0
:105940005F926F927F928F929F92AF92BF92CF920F
:10595000DF92EF92FF920F931F93CF93DF938C010F
:10596000009799F4CB01DF91CF911F910F91FF9098
:10597000EF90DF90CF90BF90AF909F908F907F90EF
:105980006F905F904F900C947A2BFC01E60FF71FFD
:105990009C0122503109E217F30708F4AEC0D90187
:1059A000CD91DC911197C617D70720F1C530D105ED
:1059B00078F0CE0104978617970750F0C61BD70BD7
:1059C0002297C193D1936D937C93CF010E94162CA3
:1059D000C801DF91CF911F910F91FF90EF90DF9061
:1059E000CF90BF90AF909F908F907F906F905F907F
:1059F0004F9008955B01AC1ABD0A4C018C0E9D1EA0
:105A0000A091610EB091620E512C412CF12CE12C31
:105A1000109731F580915F0E9091600E8815990571
:105A200009F05CC04616570608F058C080911C0269
:105A300090911D02009741F48DB79EB740912002CE
:105A400050912102841B950BE817F90708F055C007
:105A5000F093600EE0935F0EF90171836083B8CF1D
:105A60008D919C91119712966C90129713967C9041
:105A70001397A815B90559F56C0142E0C40ED11C65
:105A8000CA14DB0420F1AC014A195B09DA01129651
:105A9000159780F06282738251834083D9016D93A0
:105AA0007C93E114F10471F0D7011396FC93EE930B
:105AB00012978ECF22968C0F9D1FF90191838083C0
:105AC000F301EFCFF093620EE093610E81CF4816A1
:105AD000590608F42C017D01D3019ACFCB010E9415
