:020000040000FA
:100000000C947F030C9415410C94EA400C94BF406F
:100010000C9494400C9469400C943E400C94134012
:100020000C94E83F0C94B0030C94B0030C94B00310
:100030000C94B0030C94B0030C94B0030C94B00374
:100040000C94B0030C94B0030C94B0030C94B00364
:100050000C94B0030C94B0030C94B0030C949E3F2A
:100060000C94B0030C94683F0C943E3F0C94B00386
:100070000C94B0030C94B0030C94B0030C94B00334
:100080000C94B0030C94B0030C94B0030C94B00324
:100090000C94B0030C94B0030C94B0030C94404146
:1000A0000C94B0030C94B0030C94B0030C94B00304
:1000B0000C94B0030C94B0030C94B0030C94B003F4
:1000C0000C94B0030C94B0030C94B0030C94B003E4
:1000D0000C94B0030C94B0030C94B0030C94B003D4
:1000E0000C94B0030C94E9030C94C31D0C94882168
:1000F0000C94D6040C9471160C94FB310C947C0473
:100100000C946D040C94B2250C94C9050C94210731
:100110000C94AD270C94BD080C948D430C94692568
:100120000C948D260C9455150C9491240C94E41881
:100130000C9438150C9473160C9496220C94D008D9
:100140000C9406040C9431080C9413080C949E072C
:100150000C94F4060C9467160C9403070C94692A0B
:100160000C948C120C94F3030C9492050C94EE03F3
:100170000C94D3050C94B7050C94BC060C947A200F
:100180000C94672B0C9440040C94AB260C94690BD4
:100190000C949E040C94A8060C9482150C944108AF
:1001A0000C94A7050C9423050C9482270C943A24F4
:1001B0000C94BB050C94C5050C9463160C94341A6E
:1001C0000C948C150C9404090C940B230C94D205FC
:1001D0000C94ED030C94884E0C94BF050C94CE0641
:1001E0000C94AB220C9492140C940A1E0C94C60628
:1001F0000C94F2070C94E0060C94D6060C94980527
:100200000C947E160C942B070C94DB260C94EA06B7
:100210000C94A4050C94DC070C94AD050C942815E3
:100220000C946B200C949B060C9476160C94D705BA
:100230000C94F2030C94AE080C94D7080C94170796
:100240000C94B2060C942D080C9408080C940D071D
:100250000C9426230C949C050C94CC250C94DC2A3D
:100260000C94651E0C9435070C9488250C94CD05D0
:100270000C94A3060C94FF140C942C1E0C94A00553
:100280000C9429080C94DE1D0C94B1050C9457278E
:100290000C9408150C9490044E414E494E49545903
:1002A000494E46CDCCCC3D0AD7233C17B7D1387741
:1002B000CC2B329595E6241FB14F0A000020410057
:1002C00000C84200401C4620BCBE4CCA1B0E5AAEA1
:1002D000C59D744144414D203630353020444F2077
:1002E00030004D6F64653A204C4154454E435920CF
:1002F0004155544F004144414D2036303530204463
:100300004F2030004D6F64653A204C4154454E43B8
:1003100059204D414E55414C004D6F64653A204D7A
:10032000414E55414C004E6F00594553004C6F6F84
:1003300070204D6F64653A2020202000206D7300EE
:100340002000496E74657276616C3A20202020008E
:1003500050726F6772616D20233A20202020202088
:100360002020004D6F64653A20202020202020208E
:1003700050524F4752414D002A004C6F6F70204D34
:100380006F6465002A00456469742050726F67725B
:10039000616D205370656564002A004368616E6773
:1003A000652050726F6772616D002A004368616E4C
:1003B0006765204D6F6465002A004C4154454E43EB
:1003C00059204155544F002A004C4154454E435941
:1003D000204D414E55414C002A004D414E55414C57
:1003E000002A0050524F4752414D002E2E2E0043FE
:1003F000686F6F73652050726F6772616D002000C7
:10040000456469742050726F6772616D2053706526
:10041000656400594553004E4F004C6F6F70204D7E
:100420006F64653A004E4F20524553504F4E53452E
:1004300000202020202020202020202020202020DC
:100440002020202020006D73004C6174656E63795C
:100450003A2020202020202020202020200052553B
:100460004E4E494E4700504155534544200050726E
:100470006F6772616D204E6F7420466F756E6400F9
:100480004E4F54204245204D4F4449464945440073
:1004900050524F4752414D20302043414E002720BB
:1004A0006E616D653D2770726F6772616D5F6C6F15
:1004B0006164273E3C2F666F726D3E003C2F6C617D
:1004C00062656C3E3C696E70757420636C61737319
:1004D0003D2768696464656E2720747970653D27DF
:1004E00074657874272076616C75653D27003C2F14
:1004F0006C6162656C3E3C6C6162656C3E003C66A2
:100500006F726D206D6574686F643D27706F7374D2
:100510002720616374696F6E3D272F27273E3C6952
:100520006E70757420747970653D277375626D699E
:1005300074272076616C75653D274C6F6164273E9A
:100540003C696E70757420747970653D27627574AE
:10055000746F6E272076616C75653D2744656C6508
:10056000746527206F6E636C69636B3D2764656CEF
:100570006574655F70726F6772616D287468697306
:100580002E706172656E744E6F64652927273E3C3C
:100590006C6162656C3E007C3C3E5E2B3D3F2F5B98
:1005A0005D3B2C2A225C0000002100240027002A49
:1005B000002D003000330001010000040107010A92
:1005C00001000020002300260029002C002F00320B
:1005D000000001000003010601090100000A0B02EE
:1005E000090C0D0E080703040100000000000000C4
:1005F00000000000000000000000000000000000FB
:1006000000000000000000121110000000000000B7
:1006100000000000000000000000000000000000DA
:10062000001A00180016001C001E00260046616912
:100630006C65642E20547279205265626F6F74006D
:10064000534420496E697469616C697A6174696F99
:100650006E00200001021020200808102040102009
:100660004080020102010804020101020408102076
:100670004080804020100804020180040201804074
:1006800020100804020108040201010204081020DD
:100690004080010204081020408000002200250054
:1006A00028002B002E00310034000201000005015B
:1006B00008010B01050505050705080808080202E1
:1006C00002020A0A080804040404010101010101EC
:1006D00001010303030303030303040707070C0CCF
:1006E0000C0C0C0C0C0C0202020206060606060696
:1006F00006060B0B0B0B0B0B0B0B8D43884E1124BB
:100700001FBECFEFD1E2DEBFCDBF00E00CBF17E0D0
:10071000A0E0B2E0EEE2F1EB00E00BBF02C0079018
:100720000D92A837B107D9F722E1A8E7B7E001C0D9
:100730001D92AF31B207E1F713E0CEE7D3E000E05E
:1007400006C021970109802FFE010E940A56CD376D
:10075000D10780E00807A9F70E9494440C948558BB
:100760000C940000CF93DF93FC01828193819093DE
:10077000E9118093E81184819581A681B7818093E6
:10078000EA119093EB11A093EC11B093ED118085D9
:100790009185A285B3858093EE119093EF11A0937C
:1007A000F011B093F111DF011C96CF014996C2EF11
:1007B000D1E12D912993A817B907D9F7818D928D91
:1007C000909300128093FF1186EE91E1DF91CF911B
:1007D0000895FC01818D928D0895089581E08093A4
:1007E0004A0E089508950895FC0124813581621709
:1007F000730720F480819181009729F41092EE0D07
:100800008EEE9DE00895860F971F08950895DC01F0
:10081000ED91FC910190F081E02D1994DB0114968B
:100820004D915C9115976D917C91DC01ED91FC915E
:100830000280F381E02D1994EF92FF920F931F93A2
:10084000CF93DF938C017B01D0E0C0E0F701EC0F88
:10085000FD1F6491662361F0D801ED91FC91019038
:10086000F081E02DC8011995892B11F02196EECF6A
:10087000CE01DF91CF911F910F91FF90EF900895DE
:10088000AF92BF92CF92DF92EF92FF920F931F939E
:10089000CF93DF936C017B018B01040F151FEB01DC
:1008A0005E01AE18BF08C017D10759F06991D60193
:1008B000ED91FC910190F081E02DC6011995892BF5
:1008C00079F7C501DF91CF911F910F91FF90EF90C4
:1008D000DF90CF90BF90AF900895FC01538D448D71
:1008E000252F30E0842F90E0821B930B541710F0DB
:1008F000CF96089501970895FC01918D828D9817E8
:1009000061F0A28DAE0FBF2FB11D5D968C91928DBF
:100910009F5F9F73928F90E008958FEF9FEF0895F0
:10092000FC01918D828D981731F0828DE80FF11DB9
:10093000858D90E008958FEF9FEF0895FC01918DD4
:10094000228D892F90E0805C9F4F821B91098F73CD
:10095000992708958BE990E10E949E0421E0892B5C
:1009600009F420E0822F0895FC01A48DA80FB92F6F
:10097000B11DA35ABF4F2C91848D90E001968F73C7
:100980009927848FA689B7892C93A089B1898C91E6
:10099000837080648C93938D848D981306C0028835
:1009A000F389E02D80818F7D80830895EF92FF92FF
:1009B0000F931F93CF93DF93EC0181E0888F9B8D82
:1009C0008C8D98131AC0E889F989808185FF15C03C
:1009D0009FB7F894EE89FF896083E889F98980815F
:1009E0008370806480839FBF81E090E0DF91CF912E
:1009F0001F910F91FF90EF900895F62E0B8D10E050
:100A00000F5F1F4F0F731127E02E8C8D8E110CC0BE
:100A10000FB607FCFACFE889F989808185FFF5CF09
:100A2000CE010E94B404F1CFEB8DEC0FFD2FF11D30
:100A3000E35AFF4FF0829FB7F8940B8FEA89FB8946
:100A400080818062CFCFCF93DF93EC01888D8823A4
:100A5000B9F0AA89BB89E889F9898C9185FD03C021
:100A6000808186FD0DC00FB607FCF7CF8C9185FF06
:100A7000F2CF808185FFEDCFCE010E94B404E9CF93
:100A8000DF91CF91089580E090E0892B29F00E94BA
:100A9000AA0481110E94000080E090E0892B49F0B7
:100AA00080E090E0892B29F00E94000081110E94D3
:100AB000000080E090E0892B49F080E090E0892BF5
:100AC00029F00E94000081110E94000080E090E067
:100AD000892B49F080E090E0892B29F00E940000EA
:100AE00081110C94000008958150823108F05AC0A1
:100AF000E82FF0E08827E058FA4F8F4F0C940A5601
:100B0000A005A405920598059C05D205A705AD058D
:100B1000B105B705BB05BF05C505C905D205CD059E
:100B2000D305D705809180008F778093800008954A
:100B3000809180008F7DF9CF80918000877FF5CFF5
:100B400084B58F7784BD089584B58F7DFBCF809168
:100B5000B0008F778093B00008958091B0008F7DB2
:100B6000F9CF809190008F778093900008958091C5
:100B700090008F7DF9CF80919000877FF5CF809195
:100B8000A0008F778093A00008958091A0008F7DB2
:100B9000F9CF8091A000877FF5CF809120018F77DA
:100BA000809320010895809120018F7DF9CF80915D
:100BB0002001877FF5CFCF93DF93282F30E0F90115
:100BC000E552FA4F8491F901EC5AF94FD491F901A9
:100BD000EC54F94FC491CC23A1F081110E9474050B
:100BE000EC2FF0E0EE0FFF1FEF53FA4FA591B491F9
:100BF000EC91ED2381E090E009F480E0DF91CF916A
:100C0000089580E090E0FACF1F93CF93DF93282FD1
:100C100030E0F901E552FA4F8491F901EC5AF94FAD
:100C2000D491F901EC54F94FC491CC23A9F0162FBB
:100C300081110E947405EC2FF0E0EE0FFF1FE656C5
:100C4000F94FA591B4918FB7F894EC91111108C0A8
:100C5000D095DE23DC938FBFDF91CF911F91089554
:100C6000DE2BF8CFCF93DF9390E0FC01EC5AF94FE5
:100C700024918C54994FFC0184918823D1F090E009
:100C8000880F991FFC01E955FA4FA591B491FC0119
:100C9000E656F94FC591D49161110EC09FB7F894F3
:100CA0008C91E22FE0958E238C932881E223E883B8
:100CB0009FBFDF91CF9108958FB7F894EC91E22B0D
:100CC000EC938FBFF6CF1F93CF93DF93182FEB01D9
:100CD00061E00E943206209739F460E0812FDF91B5
:100CE000CF911F910C940406CF3FD10511F461E020
:100CF000F5CFE12FF0E0E552FA4FE491E150E23117
:100D000008F0B3C0F0E08827E757F94F8F4F0C94F5
:100D10000A569B06A306A806B206BC063507C606F9
:100D2000CE06D606E006EA06F40603070D073507E9
:100D3000170721072B0784B5806884BDC7BDDF91E5
:100D4000CF911F91089584B5806284BDC8BDF7CF4F
:100D500080918000806880938000D0938900C09348
:100D60008800EDCF80918000806280938000D093D6
:100D70008B00C0938A00E3CF8091800088608093CD
:100D80008000D0938D00C0938C00D9CF8091B000AB
:100D900080688093B000C093B300D1CF8091B00041
:100DA00080628093B000C093B400C9CF809190005E
:100DB000806880939000D0939900C0939800BFCF33
:100DC00080919000806280939000D0939B00C093AC
:100DD0009A00B5CF80919000886080939000D09366
:100DE0009D00C0939C00ABCF8091A0008068809351
:100DF000A0008091A0008F7B8093A000D093A900D9
:100E0000C093A8009CCF8091A00080628093A00036
:100E1000D093AB00C093AA0092CF8091A0008860CD
:100E20008093A000D093AD00C093AC0088CF809198
:100E30002001806880932001D0932901C09328016C
:100E40007ECF80912001806280932001D0932B017E
:100E5000C0932A0174CF8091200188608093200183
:100E6000D0932D01C0932C016ACFC038D1050CF06E
:100E70003ECF33CF3FB7F8948091EA0D9091EB0DC0
:100E8000A091EC0DB091ED0D26B5A89B05C02F3FAC
:100E900019F00196A11DB11D3FBFBA2FA92F982FA0
:100EA0008827BC01CD01620F711D811D911D42E09B
:100EB000660F771F881F991F4A95D1F708958F9263
:100EC0009F92AF92BF92CF92DF92EF92FF926B010F
:100ED0007C010E943A074B015C01C114D104E1047A
:100EE000F104B9F00E943A07681979098A099B0947
:100EF000683E73408105910580F321E0C21AD10854
:100F0000E108F10888EE880E83E0981EA11CB11C50
:100F1000E4CFFF90EF90DF90CF90BF90AF909F9085
:100F20008F9008952FB7F8946091E60D7091E70DBA
:100F30008091E80D9091E90D2FBF08950895FC016F
:100F400020812EBD9B012150310941F051810DB40A
:100F500007FEFDCF4EB55EBD4193F5CF61507109DF
:100F6000860F971F0DB407FEFDCF2EB5FC01208321
:100F70000895E091940EF091950E80819091930EDA
:100F8000892B80830895E091940EF091950E9081C5
:100F90008091930E809589238083089590E020911D
:100FA000960E233339F40C96982F990F990F990FB9
:100FB00080E008954896F8CFCF93DF931F92CDB786
:100FC000DEB76983DC01ED91FC910280F381E02DB5
:100FD00041E050E0BE016F5F7F4F19950F90DF91A8
:100FE000CF910895CF93DF931F92CDB7DEB769837A
:100FF000DC01ED91FC910280F381E02D41E050E0B5
:10100000BE016F5F7F4F19950F90DF91CF910895CB
:10101000FC019485FB018485981303C081E098301E
:1010200008F080E00895CF93DF931F92CDB7DEB72D
:101030006983DC01ED91FC910280F381E02D41E0B8
:1010400050E0BE016F5F7F4F19950F90DF91CF91F8
:101050000895FC01848595850895FC01848995890E
:10106000089528EE33E0FC0131832083FB014089A1
:10107000518962897389FC01428353836483758338
:101080000895DC01ED91FC91048CF58DE02D19940F
:101090002091740D260F3327331F21323105ECF4D4
:1010A0002091BD0DFC0190E080E0243069F082E0E9
:1010B0000895A091740D2191AC014C5A524FA40F88
:1010C000B52FB11D2C930196861798F38091740D5E
:1010D000680F6093740D80E0089581E00895109288
:1010E000BD0D81E08093BC0D1092970D61E084E10D
:1010F0000E94040661E085E10E940406E9EBF0E04D
:1011000080818E7F808380818D7F808388E480933F
:10111000B80085E48093BC000895CF93DF9391E0FD
:101120009093530D8823B9F0C091B800D091BA00C4
:101130008091BC008A7B8093BC0060E084E10E94C7
:10114000040660E085E10E9404060E946F08D093C7
:10115000BA00C093B800DF91CF910895E091F60DE9
:101160008091F50DE81730F4F0E0ED5CF24F8081EE
:1011700090E008958FEF9FEF08959091F60D809184
:10118000F50D2FEF3FEF981748F4E92FF0E0ED5CF5
:10119000F24F208130E09F5F9093F60DC9010895D2
:1011A0008091F50D9091F60D891B990B0895CF92C2
:1011B000DF92EF92FF920F931F93CF93DF937C0107
:1011C000CB018A012091C30D222389F0EB016B0131
:1011D000C40ED51ECC15DD0569F06991D701ED91DE
:1011E000FC910190F081E02DC7011995F3CF642F98
:1011F0000E944808C801DF91CF911F910F91FF9085
:10120000EF90DF90CF900895CF93DF931F92CDB7EB
:10121000DEB769832091C30D2223F9F02091F30DED
:10122000203258F021E030E0FC013383228390E04B
:1012300080E00F90DF91CF9108958091F40DE82F19
:10124000F0E0EC53F24F998190838F5F8093F40D1F
:101250008093F30D81E090E0ECCF61E0CE01019648
:101260000E944808F7CFCF92DF92EF92FF920F9340
:101270001F93CF93DF93FC01C48121E02093C30D22
:10128000C093E40D1092F40D1092F30D8385682B3A
:101290008EE691E10E940409D091F30DD13208F05D
:1012A00092C00E943A076B017C018091BD0D8111B3
:1012B00065C082E08093BD0D81E08093BC0D8FEF0F
:1012C0008093BB0D1092BA0DD093B90DA4ECBDE084
:1012D000E9E9FDE080E0D81385C01092980D809177
:1012E000980DCC0FC82BC093980D8091970D81302D
:1012F00009F07CC01092970D0E943A076B017C01A7
:101300008091980D8093BB008091BF0D9091C00D8E
:10131000A091C10DB091C20D892B8A2B8B2B99F016
:101320000E943A070091BF0D1091C00D2091C10D90
:101330003091C20D6C197D098E099F090617170798
:1013400028073907E0F18091BC0083FDD9CF85ECF7
:101350008093BC000E943A076B017C018091BD0D17
:10136000823009F445C08091BB0D8F3F61F18091BF
:10137000BB0D803241F18091BB0D25C08091BF0D26
:101380009091C00DA091C10DB091C20D892B8A2BF7
:101390008B2B09F48ACF0E943A070091BF0D109160
:1013A000C00D2091C10D3091C20D6C197D098E09BF
:1013B0009F09061717072807390708F076CF80918D
:1013C000BE0D0E948D081092F40D1092F30D109234
:1013D000C30DDF91CF911F910F91FF90EF90DF90A0
:1013E000CF9008959D9191938F5F75CF85EEB0CF8B
:1013F0008091BF0D9091C00DA091C10DB091C20D13
:10140000892B8A2B8B2B09F4A9CF0E943A070091D4
:10141000BF0D1091C00D2091C10D3091C20D6C19FE
:101420007D098E099F09061717072807390708F055
:1014300095CFC5CF089561E0FC0184810E94040628
:1014400080912D0D811110922D0D08958EBD0000FB
:101450000DB407FEFDCF8EB50895AF92BF92CF9227
:10146000DF92EF92FF920F931F93CF93DF9300D001
:1014700000D01F921F92CDB7DEB78C017B016A01AD
:101480008091960E8333E1F45801A40EB51EA01688
:10149000B10609F46FC00E94C30780EF0E94260ABC
:1014A000812F0E94260A802F0E94260A0F5F1F4F5D
:1014B000F70181917F010E94260A0E94B907E7CFB8
:1014C0005B01A40EB51E8433C1F40E94C3071983C7
:1014D0000A838D2D80688B83CC8264E070E0CE011E
:1014E00001960E949F07AE14BF0409F441C0F701A2
:1014F00081917F010E94260AF6CF0E94C3070F3F09
:10150000110509F028F419820A8384E08B830CC04A
:1015100017FD17C019820A8333E0169507953A958F
:10152000E1F7007E0C600B8386E0C816D104A0F5BD
:10153000F701DE011496EA15FB0599F081918D9370
:10154000FACFC80126E0969587952A95E1F7807E27
:1015500019830A830115104C10F48461D7CF8C6174
:10156000D5CFB6016D5F7F4FCE0101960E949F07D8
:101570000E94B907C60128960FB6F894DEBF0FBEC9
:10158000CDBFDF91CF911F910F91FF90EF90DF9032
:10159000CF90BF90AF90089563E070E0CE010196C8
:1015A0000E949F07F70181917F010E94260AAE14D5
:1015B000BF04C1F7DDCFCF93DF931F92CDB7DEB766
:1015C000898341E050E0BE016F5F7F4F90E080E093
:1015D0000E942D0A0F90DF91CF910895DA01E091DA
:1015E000970EF0E0FE2FEE27E60FF71F90E0982F02
:1015F0008827A901BD018E0F9F1F0C942D0ACF9340
:10160000DF931F921F92CDB7DEB779836A8322E002
:1016100030E0AE014F5F5F4F60E170E00E94EE0A84
:101620000F900F90DF91CF910895CF93DF931F928A
:101630001F92CDB7DEB779836A8322E030E0AE0136
:101640004F5F5F4F64E070E00E94EE0A0F900F90D2
:10165000DF91CF910895CF93DF931F92CDB7DEB77F
:101660002091970E30E0322F2227260F371F90E06F
:10167000982F8827498341E050E0BE016F5F7F4F7C
:10168000820F931F0E942D0A0F90DF91CF91089532
:101690008FEF0C94260A0F931F93CF93DF93EC01E7
:1016A0000E9492078B010E94480B8F3F69F00E94B5
:1016B0009207601B710B6C177D07A8F380E0DF9128
:1016C000CF911F910F91089581E0F9CF8CBD9DBD01
:1016D0000895FF920F931F93CF93DF93EB01FC01CB
:1016E000178A168A2A81211109C02B81211106C06F
:1016F0002C81211103C02D81222301F141155105B7
:10170000E9F08A01FC01F08C80E591E00E94660B13
:10171000AE014E5F5F4F24E030E06CE070E08F2D53
:101720000E94EE0AB8018F2D0E94FF0A81E090E02E
:10173000DF91CF911F910F91FF90089580E0F7CF37
:10174000CF93DF93EC0180912D0D811109C081E0D1
:1017500080932D0D80917A1190917B110E94660BE0
:1017600060E08C81DF91CF910C9404068F929F9260
:10177000AF92BF92FF920F931F93CF93DF93EC0131
:10178000F62E49015A018E81882389F08F81988530
:101790009C012F5F3F4F38872F838230924018F48F
:1017A0000E94480BF3CFCE010E941B0A1E82CE017D
:1017B0000E94A00B8CE291E00E944B0B8F2D806465
:1017C0000E94260A08E110E0D501C401002E04C0E1
:1017D000B695A795979587950A94D2F70E94260A01
:1017E00008501109083F8FEF180771F785E9FF20AE
:1017F00021F028E087E8F2128FEF0E94260A10E01D
:101800000E94480B8A8787FF04C01F3F11F01F5FAB
:10181000F7CFDF91CF911F910F91FF90BF90AF90C5
:101820009F908F900895AF92BF92CF92DF92EF92E8
:10183000FF920F931F93CF93DF93EC016901C801CF
:10184000820F931F8130924050F58E81882379F06A
:1018500088819981AA81BB8184179507A607B7075C
:1018600031F48F819885C816D90608F042C04883A4
:1018700059836A837B838B85833039F089E0440FF9
:10188000551F661F771F8A95D1F79A01AB0161E159
:10189000CE010E94B60B882389F083E08D83CE01B0
:1018A0000E941B0A80E0DF91CF911F910F91FF9062
:1018B000EF90DF90CF90BF90AF9008950E94920775
:1018C0005B010E94480B8A878F3F69F40E94920750
:1018D0006A197B096D327140A0F38FE08D83CE01D0
:1018E0000E941B0ADCCF8E3F89F418861F8281E09C
:1018F0008E838F8198858C159D0550F40E94480B2E
:101900008F819885019698878F83F3CF8DE0E6CFFE
:101910006701E00EF11E0E94480BF60181936F01F2
:10192000EE15FF05C1F78F819885080F191F1887DD
:101930000F838985882319F001151240A0F08E814C
:10194000882389F08F8198859C012F5F3F4F3887CE
:101950002F838230924018F40E94480BF3CFCE01BF
:101960000E941B0A1E8281E09ECFCF92DF92EF92EF
:10197000FF920F93CF93DF93EC01690182E1411550
:1019800051056105710599F08B85833039F089E047
:10199000440F551F661F771F8A95D1F79A01AB0137
:1019A00068E1CE010E94B60B882319F084E08D8394
:1019B0002DC08EEF0E94260A76018EEFD81AF7010D
:1019C00081917F010E94260AEC14FD04C1F78FEF7C
:1019D0000E94260A8FEF0E94260A0E94480B8A87DF
:1019E0008F71853071F4011116C0CE010E941B0A5F
:1019F00081E0DF91CF910F91FF90EF90DF90CF903A
:101A0000089581E18D83CE010E941B0ACE010E94C0
:101A10001B0A80E0EECF88E592E00E944B0B81111B
:101A200002C085E1C4CF20E030E0A9016DE0CE0125
:101A30000E94B60B882311F084E1B9CF0E94480BB5
:101A40008111FACFD2CF0F9340912F0D5091300DCD
:101A50006091310D7091320D41155105610571058F
:101A600099F0082F2BE93EE08091990E90919A0E03
:101A70000E94B50C882349F010922F0D1092300D62
:101A80001092310D1092320D81E00F9108950F9355
:101A9000CF93C82F80912E0D811105C0C1E08C2FEE
:101AA000CF910F9108954091650250916602609127
:101AB0006702709168020C2F2BE93EE08091990E2D
:101AC00090919A0E0E94B50C811102C0C0E0E7CF40
:101AD000CC2321F381E00E94230D8823B9F31092D7
:101AE0002E0DDDCF8F929F92AF92BF92EF92FF9219
:101AF0000F931F93CF934B015C01C42F809165021C
:101B000090916602A0916702B091680288159905CC
:101B1000AA05BB0551F181E00E94470D81110BC060
:101B200080E0CF911F910F91FF90EF90BF90AF9009
:101B30009F908F9008958BE9E82E8EE0F82E00E0BC
:101B400012E030E020E0B501A4018091990E90915F
:101B50009A0E0E94130C882319F3809265029092CA
:101B60006602A0926702B092680240912E0D4C2B43
:101B700040932E0D81E0D5CFCF93DF93EC016E859E
:101B80007F858889998941E00E94720D882351F0F0
:101B90008A8920E2829FC00111248556914FDF91EE
:101BA000CF91089590E080E0FACF4F925F926F92CC
:101BB0007F928F929F92AF92BF92CF92DF92EF92DD
:101BC000FF920F931F93CF93DF93EC0142305105A7
:101BD0006105710590F480E0DF91CF911F910F9125
:101BE000FF90EF90DF90CF90BF90AF909F908F903D
:101BF0007F906F905F904F90089589859A85AB850F
:101C0000BC850196A11DB11D84179507A607B707CE
:101C100010F3CB88DC88ED88FE888F89803109F04D
:101C200042C0BB27A72F962F852F480159012A01B3
:101C30003B01C80ED91EEA1EFB1E809165029091E1
:101C40006602A0916702B0916802C816D906EA063A
:101C5000FB0699F58F898031C1F5B301A2015527A3
:101C600066277727440F551F4556514FFA01918239
:101C7000808280912E0D816080932E0D8A89823022
:101C800080F08D819E81AF81B8858C0D9D1DAE1D2C
:101C9000BF1D80932F0D9093300DA093310DB09305
:101CA000320D81E099CFDB01CA01E7E0B695A79537
:101CB00097958795EA95D1F7B8CF40E0C701B6016F
:101CC0000E94720D8111C6CF86CFB301A2014F775A
:101CD000552766277727440F551F440F551F455634
:101CE000514FFA0180829182A282B382C2CF8F9239
:101CF0009F92AF92BF92CF92DF92EF92FF920F939B
:101D00001F93CF93DF93FC0181859285A385B485D2
:101D10000196A11DB11D84179507A607B70770F49A
:101D200080E0DF91CF911F910F91FF90EF90DF90B6
:101D3000CF90BF90AF909F908F90089583889488A4
:101D4000A588B6888789803189F5BB27A72F962F6C
:101D5000852FE9016A017B018F01BC01CD01680D6E
:101D6000791D8A1D9B1D8090650290906602A0904F
:101D70006702B090680286169706A806B90601F5B4
:101D8000F8018789803111F5DD24EE24FF24F60166
:101D9000EE0FFF1FE556F14F80819181B0E0A0E08A
:101DA00088839983AA83BB8381E0BBCFDB01CA010F
:101DB000C7E0B695A79597958795CA95D1F7C9CFEE
:101DC00040E00E94720D8111DBCFAACFE894C7F8E2
:101DD000DD24EE24FF24F601EE0FFF1FEE0FFF1FA0
:101DE000E556F14F80819181A281B381BF70D8CF38
:101DF0004F925F926F927F92AF92BF92CF92DF929B
:101E0000EF92FF920F931F93CF93DF9300D01F9217
:101E1000CDB7DEB78C0149835A836B837C8359012C
:101E2000C12CD12C7601412C82E0582E612C712CD2
:101E300049815A816B817C819E012F5F3F4FC80190
:101E40000E94770E882339F1F8018585A30192015C
:101E500004C0220F331F441F551F8A95D2F7DA01A1
:101E6000C901C80ED91EEA1EFB1E49815A816B8129
:101E70007C818789803111F188EF9FEFAFEFBFE060
:101E8000481759076A077B0798F2F501C082D1828B
:101E9000E282F38281E00F900F900F900F90DF911C
:101EA000CF911F910F91FF90EF90DF90CF90BF9057
:101EB000AF907F906F905F904F90089588EF9FEF65
:101EC000A0E0B0E0DDCFCF93DF93FC01258122239A
:101ED00021F080E0DF91CF910895EC0180919F1176
:101EE000803159F582E08583178A108E118E128E0B
:101EF0008091A0119091A111B0E0A0E025E0880FA1
:101F0000991FAA1FBB1F2A95D1F7838B948BA58B92
:101F1000B68B88E891E19C8F8B8F81E08C831E8249
:101F20001F82188619861A861B861C861D861E86A9
:101F30001F86188A198A1A8ACDCF803251F683E01B
:101F400085834091A2115091A3116091A4117091C9
:101F5000A511478B508F618F728F9F012D5E3F4F70
:101F600088E891E10E94F80E8111D3CFB2CF8F9211
:101F70009F92AF92BF92CF92DF92EF92FF920F9318
:101F80001F93CF93DF93EC018D8181110EC080E010
:101F9000DF91CF911F910F91FF90EF90DF90CF9045
:101FA000BF90AF909F908F9008950B891C892D89C9
:101FB0003E89041715072607370748F34A015B01D6
:101FC000823031F48A869B86AC86BD8681E0E0CF84
:101FD00081149104A104B10449F41E821F82188661
:101FE00019861A861B861C861D86F0CF0A851B85DE
:101FF0002C853D85EB8DFC8D858590E00996B9019A
:10200000A8014150510961097109082E04C0769553
:102010006795579547950A94D2F775016401E1E0F9
:10202000CE1AD108E108F10804C0F694E794D794D9
:10203000C7948A95D2F7C416D506E606F70620F0AF
:10204000012B022B032B11F58F89988DA98DBA8D49
:102050008E839F83A887B9878E010A5F1F4FC114A3
:10206000D104E104F10409F4ADCF4E815F816885AC
:10207000798598018B8D9C8D0E94770E91E0C91A0D
:10208000D108E108F1088111EACF81CFC41AD50A3D
:10209000E60AF70AE1CF3F924F925F926F927F92EA
:1020A0008F929F92AF92BF92CF92DF92EF92FF9268
:1020B0000F931F93CF93DF93CDB7DEB72C970FB657
:1020C000F894DEBF0FBECDBF5C01DC015B968D9046
:1020D0009C905C9716964D905D906D907C901997B2
:1020E000411451046104710409F468C0BFEF4B1A34
:1020F0005B0A6B0A7B0A312CF40181859285A385EA
:10210000B4859C01AD012F5F3F4F4F4F5F4F298733
:102110003A874B875C87730162011D821E821F8292
:102120001886F40181859285A385B4852D813E8131
:102130004F815885281739074A075B0708F056C0B2
:1021400089859A85AB85BC858C159D05AE05BF0537
:1021500050F482E0C82ED12CE12CF12C92E0492ED3
:10216000512C612C712C9E012F5F3F4FB701A601AE
:10217000C4010E94770E8823C9F189819A81AB81BD
:10218000BC81892B8A2B8B2B09F1260137019FEF0C
:10219000491A590A690A790A2D813E814F81588569
:1021A0002F5F3F4F4F4F5F4F2D833E834F835887A5
:1021B0003FEFC31AD30AE30AF30AB3CFF401408016
:1021C0005180628073803324339496CFC414D50435
:1021D000E604F70409F70FEF1FEF2FEF3FE0B70119
:1021E000A601C4010E94D50D811119C080E02C9672
:1021F0000FB6F894DEBF0FBECDBFDF91CF911F9118
:102200000F91FF90EF90DF90CF90BF90AF909F9095
:102210008F907F906F905F904F903F900895D50181
:1022200016964D915D916D917C91199741155105CF
:102230006105710539F097018601C4010E94D50D31
:102240008823A1F2D5011696CD92DD92ED92FC92F3
:102250001997332051F0D701C6010196A11DB11D78
:10226000F40180839183A283B383F5018789908DE4
:10227000A18DB28D892B8A2B8B2B39F48481C78A4F
:10228000D08EE18EF28E80688483F5018481806235
:10229000848381E0ACCF2F923F924F925F926F92F6
:1022A0007F928F929F92AF92BF92CF92DF92EF92E6
:1022B000FF920F931F93CF93DF93EC015B012A01F1
:1022C0008D81811115C08FEF9FEFDF91CF911F910D
:1022D0000F91FF90EF90DF90CF90BF90AF909F90C5
:1022E0008F907F906F905F904F903F902F900895C8
:1022F0008C8180FFE8CF0B891C892D893E894A8516
:102300005B856C857D85C201B0E0A0E06801790144
:10231000C41AD50AE60AF70AC816D906EA06FB0661
:1023200018F42801441A550A42011E0126E0220E23
:10233000311C8114910409F4B3C04A855B856C8516
:102340007D856A0181E0D8228B8D9C8D8A019B015D
:10235000E9E03695279517950795EA95D1F7ED8130
:10236000E230E1F5FC01628D738D848D958D600FF7
:10237000711F821F931F612C22E0722E6C187D0842
:102380008614970408F434012C8126FD04C06114DE
:10239000F2E07F0671F400916502109166022091CF
:1023A000670230916802061717072807390709F0F6
:1023B00053C040E00E94720D882309F484CFC60107
:1023C0008556914FD5019C01260D371DFC012E1716
:1023D0003F0709F460C041914D93F9CFFC0174802F
:1023E0007A947022C114D10471F471100CC0452B81
:1023F000462B472B39F58F89988DA98DBA8D8E8301
:102400009F83A887B987EB8DFC8D6E817F8188853E
:1024100099856250710981099109258504C0660F6B
:10242000771F881F991F2A95D2F70685178520895F
:102430003189600F711F821F931F670D711D811DF0
:10244000911D99CF4E815F816885798591010E94A8
:10245000770E8111D8CF37CF750183019601AB017B
:10246000BC018091990E90919A0E0E94130C8823C2
:1024700009F429CFA60CB71C8A859B85AC85BD8540
:10248000860D971DA11DB11D8A879B87AC87BD87CF
:10249000861897084ECF281B390BA20EB31EECCF1F
:1024A000C20113CF1F93CF93DF93FC012581222319
:1024B00071F1162FEC01848187FF1EC0CF010E94AD
:1024C000BC0DFC01892B19F18D81823040F48B8980
:1024D0009C89AD89BE89848F958FA68FB78F8F8990
:1024E000988D938F828F8F89988DA98DBA8DB58B9A
:1024F000A48B8C818F778C83111103C08C818F7E8C
:102500008C83812FDF91CF911F910C94470D80E038
:10251000DF91CF911F910895FF920F931F93CF9357
:10252000DF93EC018D81813041F090E080E0DF911C
:10253000CF911F910F91FF9008958C8181FFF5CF6E
:1025400082FD1BC00091990E10919A0EC8010E9445
:10255000A00B0E94480BF82EC8010E941B0A8FEFA7
:10256000F812E3CF8C8185FF1BC060E0CE010E9492
:1025700052128C818F7D8C83D8CF4B895C896D8979
:102580007E898A859B85AC85BD8584179507A607BE
:10259000B707C1F2CE010E94B70F8111D3CFC5CFCB
:1025A00040912F0D5091300D6091310D7091320D91
:1025B000452B462B472B21F080E00E94230DB5CF01
:1025C00080618C832A853B85317080E092E0821B9C
:1025D000930BADCFCF93DF93EC0161E00E945212D9
:1025E000882311F01D8281E0DF91CF9108952F9211
:1025F0003F924F925F926F927F928F929F92AF9293
:10260000BF92CF92DF92EF92FF920F931F93CF93DF
:10261000DF9300D01F921F92CDB7DEB77C015B0124
:10262000342E5D83DC0115968C911597813009F06D
:10263000CEC014962C9021FECAC022FCB4C0C32C7C
:10264000DD8022947FE027222094B22DB1702B2EC2
:10265000D7011A964D915D916D917C911D97C11492
:10266000D10409F428C15B968D919C915C97FC0183
:1026700074807A948A019B0169E0369527951795B5
:1026800007956A95D1F770228A011170711020C0E8
:1026900001151105E9F416964D915D916D917C91AE
:1026A0001997411551056105710509F099C05796B3
:1026B0008D919D910D90BC91A02D0097A105B10524
:1026C00009F0B0C0C7010E944B10882309F47FC0F5
:1026D00080E092E0801B910B46018C159D0508F46B
:1026E0004C01D7015B964D915C915C9716968D914C
:1026F0009D910D90BC91A02D0297A109B109FA01FD
:10270000258504C0880F991FAA1FBB1F2A95D2F7E1
:102710004685578560897189840F951FA61FB71F4D
:102720009C01AD01270D311D411D511D29013A01AB
:10273000811432E0930609F07BC08091650290918C
:102740006602A0916702B091680284159505A605FE
:10275000B70559F48FEF9FEFDC01809365029093EA
:102760006602A0936702B0936802022D9501B3013F
:10277000A2018091990E90919A0E0E94B50C882327
:1027800031F19EEFB91AC818D908F70182859385EF
:10279000A485B585880D991DA11DB11D82879387DC
:1027A000A487B58755CFF701438954896589768910
:1027B00082859385A485B585481759076A077B07E5
:1027C00009F43DCFC7010E94B70F811138CF81E0D6
:1027D00090E0D70113969C938E93129780E007C0E8
:1027E0009E012F5F3F4F0E94770E811102C090E043
:1027F00079C089819A81AB81BC81F701238D348DA9
:10280000F901278948EF5FEF60E070E0203121F0A7
:1028100048EF5FEF6FEF7FE084179507A607B707D4
:1028200008F050CFF70186839783A087B18750CFF8
:102830000115110599F5D7011A964D915D916D918C
:102840007C911D9753968D919D910D90BC91A02DDB
:10285000481759076A077B0708F181E00E94470D76
:10286000882309F4B4CF40926502509266026092C8
:1028700067027092680280912E0D816080932E0D08
:10288000C8018556914FD5019C01280D391DFC01C9
:102890002E173F0759F04D914193FACF41E0C30104
:1028A000B2010E94720D8111EBCF91CF281B390B21
:1028B000A20EB31E68CFF70183899489A589B689D2
:1028C00084179507A607B70738F48481438B548B88
:1028D000658B768B80688483F701848183FD1AC0C1
:1028E000832D9D810F900F900F900F900F90DF918F
:1028F000CF911F910F91FF90EF90DF90CF90BF90FD
:10290000AF909F908F907F906F905F904F903F908F
:102910002F90089561E0C7010E945212882309F4A4
:1029200056CFDECFCF93DF931F92CDB7DEB769834B
:1029300041E050E0BE016F5F7F4F0E94F7120F90A1
:10294000DF91CF910895FC01DB0112968D919C914E
:1029500013979383828380E993E091838083149615
:102960008C911497848315968C9115978583169670
:102970004D915D916D917C91199746835783608746
:1029800071871A964D915D916D917C911D9742874B
:102990005387648775871E964D915D916D917C91EB
:1029A000519746875787608B718B52968C915297BF
:1029B000828B53964D915D916D917C915697438B8F
:1029C000548B658B768B57964D915D916D917C9173
:1029D0005A97478B508F618F728F5B968D919C9128
:1029E000948F838F0895DC015996ED91FC91309777
:1029F00021F081E09581911101C080E00895FC01F2
:102A0000818D928D009719F061E00C945212089517
:102A1000DC015996ED91FC913097B9F08389948946
:102A2000A589B6894285538564857585841B950B78
:102A3000A60BB70B811520E89207A105B10538F068
:102A40008FEF9FE7A0E0B0E0089590E080E0089568
:102A5000DC0159968D919C91009739F0DC01ED9144
:102A6000FC910480F581E02D199490E080E00895B8
:102A7000CF93DF93EC01E98DFA8D309749F481E033
:102A800090E09B838A8390E080E0DF91CF9108956E
:102A900013821282898D9A8D0E94F712E98DFA8D28
:102AA00022813381232B59F7F0CFCF93DF931F92ED
:102AB000CDB7DEB76983DC01ED91FC910280F38133
:102AC000E02D41E050E0BE016F5F7F4F19950F9000
:102AD000DF91CF910895CF93DF931F92CDB7DEB7EB
:102AE00041E050E0BE016F5F7F4F0E944B110197A4
:102AF00031F4898190E00F90DF91CF9108958FEFAD
:102B00009FEFF9CFFC01818D928D009711F00C940D
:102B10006B158FEF9FEF08950F931F93CF93DF9364
:102B2000EC01898D9A8D10E000E0009799F00E94E9
:102B30006B158C010F3F100769F0898D9A8DFC0190
:102B40004285538564857585415051096109710934
:102B50000E94B70FC801DF91CF911F910F91089587
:102B6000CF93CFB7F89480912C0D811127C0E9EE57
:102B7000F6E08491E9E8F6E09491E82FF0E0EE0FBA
:102B8000FF1FE955FA4FA591B491EC91E92321F487
:102B900061E085E30E94040661E085E30E9432065D
:102BA0008CB580618CBD8CB580648CBD61E084E3A4
:102BB0000E94320661E083E30E94320680912C0D70
:102BC0008F5F80932C0DCFBFCF910895CF93DF936C
:102BD000C0E3D3E08881229660E00E94040683E08F
:102BE000C034D807B9F7C0E4D3E08881229670E0FA
:102BF00060E00E94630683E0C435D807B1F760E067
:102C00008FE10E94040660E084E2DF91CF910C9492
:102C10000406CF93DF938AE10E94DB05892BE9F458
:102C200088E10E94DB05892BD9F486E10E94DB054F
:102C3000892BC9F48CE10E94DB05892BB9F48EE164
:102C40000E94DB05892B29F060E070E0CB010E9437
:102C50005F07CE01DF91CF910895D0E0C0E0F9CFBA
:102C6000C1E0D0E0F6CFC2E0D0E0F3CFC3E0D0E0E7
:102C7000F0CFFC01DB0112968D919C911397938309
:102C8000828314964D915D916D917C911797448349
:102C900055836683778318964D915D916D917C91F4
:102CA0001B9740875187628773878CE993E09183F4
:102CB00080831C968C911C9784871D968D919C9186
:102CC000968785870895FC01768765870895DC01DE
:102CD000ED91FC91068CF78DE02D199591E08927F7
:102CE0000895862F089581E08627089521E0FC014C
:102CF0008485883008F020E0822F089590E080E0FD
:102D000008958F929F92AF92BF92CF92DF92EF92EF
:102D1000FF920F931F93CF93DF9300D01F92CDB7F5
:102D2000DEB7FC018581813091F080E00F900F903B
:102D30000F900F90DF91CF911F910F91FF90EF9027
:102D4000DF90CF90BF90AF909F908F900895848137
:102D500081FFEBCF83899489A589B689892B8A2B3A
:102D60008B2B09F45FC07F0140E050E0BA01CF0136
:102D70000E94B70F8823C9F2F701C38CD48C8788CF
:102D8000908CA18CB28C82E090E0A0E0B0E0F601E3
:102D900080839183A283B3839E012F5F3F4FB50150
:102DA000A401C6010E94770E882309F4BECF00E07B
:102DB00010E09801B501A401C6010E94D50D882339
:102DC00009F4B3CF89809A80AB80BC80F6018789F3
:102DD000803119F188EF9FEFAFEFBFE088169906B9
:102DE000AA06BB06C8F2F701178A108E118E128E42
:102DF000138A148A158A168A84818068848361E024
:102E0000C7010E945212882309F48FCF40E050E09E
:102E1000BA01C7010E94B70F89CF88EF9FEFA0E0EA
:102E2000B0E0DCCF81E082CFCF92DF92EF92FF92D1
:102E30001F93CF93DF93EC0180E2689FF001112490
:102E4000E556F14F9385917161F0842F827449F0BA
:102E500080E0DF91CF911F91FF90EF90DF90CF90B6
:102E60000895142F6A8B8091650290916602A0915B
:102E70006702B09168028E879F87A88BB98BC48840
:102E8000D588F12CE12C7601DD24CC24CF8AD88E94
:102E9000E98EFA8E828D938DB0E0A0E0AC01BD0189
:102EA0004C295D296E297F294F8B588F698F7A8F26
:102EB00083858871B1F4848D958DA68DB78D8B8BAC
:102EC0009C8BAD8BBE8B81E08D831F701C831E821B
:102ED0001F82188619861A861B861C861D8681E02D
:102EE000B8CF803109F0B4CF9E012D5E3F4F8B8D5E
:102EF0009C8D0E94F80E882309F4AACF84E0E4CFC9
:102F00000F931F93CF938C01C62F0E9433096C2F10
:102F10006460C8010E9433096C2F6B7FC8010E9456
:102F2000330983EC90E00197F1F7CF911F910F9156
:102F300008950F931F93CF93DF938C01D62FC42F47
:102F4000607F642B0E94801780E1D89FB00111241C
:102F50006C2BC801DF91CF911F910F910C948017BA
:102F6000CF93DF9300D000D01F921F92CDB7DEB772
:102F700098E0E0E9F2E0DE01119601900D929A9559
:102F8000E1F790910912961710F46FEF690F262F51
:102F900030E0220F331F41E050E04C0F5D1F240F43
:102FA000351FF9016081680F606840E081E092E1BF
:102FB00028960FB6F894DEBF0FBECDBFDF91CF913C
:102FC0000C94991780912F0E63E0882349F080E0DC
:102FD0000E94B0176EE574E081E092E10C941C044D
:102FE00080E00E94B01766E674E0F6CF40E061E052
:102FF00081E092E10E9499178BE39FE10197F1F73D
:1030000008950E94F6176AE174E081E092E10E945F
:103010001C048091170E60E0882349F081E10E9432
:10302000B01763E174E081E092E10C941C0482E14A
:103030000E94B01767E174E0F6CFCF93DF93EC0105
:103040000E94F61763EE73E081E092E10E941C0497
:10305000209751F460E083E10E94B01761EE73E0C5
:1030600081E092E10E941C0461E080E00E94B017C0
:103070006AED73E081E092E10E941C04C130D10549
:1030800051F461E083E10E94B01768ED73E081E0E4
:1030900092E10E941C0462E080E00E94B01769EC9B
:1030A00073E081E092E10E941C04C230D10551F42A
:1030B00062E083E10E94B01767EC73E081E092E187
:1030C0000E941C0463E080E00E94B0176AEB73E08A
:1030D00081E092E10E941C04239761F463E083E1A4
:1030E0000E94B01768EB73E081E092E1DF91CF912D
:1030F0000C941C04DF91CF910895CF93DF93EC01E2
:103100000E94F6176CEA73E081E092E10E941C04D1
:10311000209751F460E083E10E94B0176AEA73E0FF
:1031200081E092E10E941C048091480E9091490E2A
:10313000892B09F046C061E080E00E94B0176BE97E
:1031400073E081E092E10E941C04C130D10551F48A
:1031500061E083E10E94B01769E973E081E092E1E8
:103160000E941C0462E080E00E94B01766E873E0F1
:1031700081E092E10E941C04C230D10551F462E06A
:1031800083E10E94B01764E873E081E092E10E945D
:103190001C0463E080E00E94B0176AE773E081E0FE
:1031A00092E10E941C04239761F463E083E10E9492
:1031B000B01768E773E081E092E1DF91CF910C9462
:1031C0001C04DF91CF91089541E00E94991781E09E
:1031D00090E00895CF93DF932091E4113091E511B1
:1031E000232B89F0FC01C091E011D091E1116081A5
:1031F0007181CE010E946B58009729F08C1B9D0BAA
:10320000DF91CF9108958FEF9FEFFACF0E941F5863
:10321000FB0101900020E9F73197AF01461B570BE6
:10322000DC01ED91FC910280F381E02D19948F92E5
:103230009F92AF92BF92EF92FF920F931F93CF9303
:10324000DF93CDB7DEB7A1970FB6F894DEBF0FBE00
:10325000CDBF7C01FA01CB0119A2223008F42AE08B
:103260008E010F5D1F4F822E912CB12CA12CBF011E
:10327000A50194010E94C154F901CA016A300CF5FC
:10328000605DD8016E938D01232B242B252B79F7BC
:1032900090E080E0109721F0BD01C7010E9408195D
:1032A000A1960FB6F894DEBF0FBECDBFDF91CF91D0
:1032B0001F910F91FF90EF90BF90AF909F908F90D4
:1032C0000895695CDECFCF92DF92EF92FF920F9369
:1032D0001F93CF93DF9377FF1DC06A017B01EC0141
:1032E0006DE20E9407048C0144275527BA014C194E
:1032F0005D096E097F092AE0CE010E941719800F2F
:10330000911FDF91CF911F910F91FF90EF90DF9070
:10331000CF9008952AE0DF91CF911F910F91FF90F8
:10332000EF90DF90CF900C9417194F925F926F92AD
:103330007F928F929F92AF92BF92CF92DF92EF9245
:10334000FF920E94E2170E9492074B015C0161E02C
:1033500084E20E9404060E949207681979098A098A
:103360009B0960367A4E8105910528F486E20E9419
:10337000DB05019781F30E9492076B017C010E949B
:1033800092072B013C01481859086A087B0860E045
:1033900084E20E94040662E080E648168AEE58063F
:1033A00061047104F8F080E00E94B01761E374E0FA
:1033B00081E092E10E941C0462E080E00E94B0176C
:1033C00065E274E081E092E1FF90EF90DF90CF90B2
:1033D000BF90AF909F908F907F906F905F904F9035
:1033E0000C941C0480E00E94B01769E474E081E052
:1033F00092E10E941C0462E089E00E94B017B701CC
:10340000A601481959096A097B0981E092E10E94E5
:10341000631966E474E0D6CFCF93DF93EC016623A3
:1034200041F00E94F61760E074E081E092E10E94B2
:103430001C0461E080E00E94B017AE010D2E000C6C
:10344000660B770B81E092E10E946319C83ED3407E
:1034500044F46EEF73E081E092E1DF91CF910C9440
:103460001C04DF91CF9108958F929F92AF92BF92EB
:10347000CF92DF92EF92FF920F931F93CF93DF9340
:103480007C018B016C0182E0C80ED11C4701E5E094
:103490008E0E911CD0E0C0E0F60141916F0150E02A
:1034A00070E060E02AE0C8010E9417195C016EE23A
:1034B000C8010E9407048A0D9B1DC80FD91FC8149C
:1034C000D90451F7F701458150E070E060E02AE04F
:1034D000C8010E9417198C0F9D1FDF91CF911F917A
:1034E0000F91FF90EF90DF90CF90BF90AF909F90A3
:1034F0008F9008950F931F93CF93DF93EC010E9459
:1035000008198C016AEF73E0CE010E940819800F40
:10351000911FDF91CF911F910F9108950C9408197D
:103520008091480E9091490E8130910509F484C034
:103530001CF4892B49F008958230910509F481C06B
:10354000039709F492C008950E94F61763E673E0AA
:1035500081E092E10E941C0461E080E00E94B017CB
:1035600060E573E081E092E10E941C0480910D0E01
:1035700090910E0E0A9734F467E974E081E092E1CD
:103580000E948E1A40910D0E50910E0E052E000CC9
:10359000660B770B81E092E10E94631962E080E0A4
:1035A0000E94B01762E473E081E092E10E941C0483
:1035B0008091790290917A02A0917B02B0917C0275
:1035C000883E9340A105B10530F460E473E081E0EA
:1035D00092E10E941C044091790250917A0260911C
:1035E0007B0270917C022AE081E092E10E9417192F
:1035F0006CE373E081E092E10E941C0463E080E0F0
:103600000E94B0176DE273E081E092E10E941C0419
:103610008091170E63E0882349F081E10E94B01782
:1036200069E273E081E092E10C941C0482E10E9463
:10363000B01766E273E0F6CF0E94F61769E173E017
:10364000F1CF0E94F61764E073E081E092E10E94FE
:103650001C0461E080E00E94B01765EF72E081E039
:1036600092E10E941C040C94E2170E94F61762EE8D
:1036700072E081E092E10E941C0461E080E00E941F
:10368000B01763ED72E0EBCFFC0180819181009770
:1036900011F00C943A5160E070E0CB0108950F9363
:1036A0001F93CF93DF938C01EB01FC01808191810B
:1036B0000097E1F06881798161157105A9F0428177
:1036C00053812C813D814217530770F00E94555859
:1036D0008C819D81F801958384831D821C82DF91FA
:1036E000CF911F910F9108950E94B55688819981BD
:1036F000F801918380838A819B81938382838C816B
:103700009D8195838483198218821B821A82E5CF5A
:10371000CF93DF93EC0188819981009711F00E948B
:10372000B556198218821D821C821B821A82DF9173
:10373000CF910895FC0180819181009711F00C9444
:10374000B5560895CF93DF93EC01898D9A8D00973C
:1037500041F00E94EA12898D9A8D0E94B5561A8E08
:10376000198EDF91CF9108950F931F93CF93DF931D
:10377000EC0188819981009759F02A813B812617B5
:10378000370730F081E0DF91CF911F910F910895BD
:103790008B016F5F7F4F0E943E57009759F09983CE
:1037A00088831B830A832C813D81232B59F7FC01DD
:1037B0001082E8CF80E0E7CFEF92FF920F931F9344
:1037C000CF93DF93FB0101900020E9F73197E61BCF
:1037D000F70BE1F07B018C01DC011496CD91DC91BB
:1037E000CE0FDF1FBE010E94B41B882381F0F801B9
:1037F0002081318184819581B701820F931F0E94BE
:103800005558D8011596DC93CE93149781E0DF913B
:10381000CF911F910F91FF90EF900895EF92FF923B
:103820000F931F93CF93DF931F921F92CDB7DEB7F5
:103830008C0169831A82FC01E480F580FFEFEF1AA6
:10384000FF0AB7010E94B41B882381F0F801208190
:10385000318184819581BE016F5F7F4F820F931FFD
:103860000E945558F801F582E48281E00F900F9094
:10387000DF91CF911F910F91FF90EF900895EF92FC
:10388000FF920F931F93CF93DF93EC017B018A018B
:10389000BA010E94B41B81110BC0CE010E94881B8B
:1038A000CE01DF91CF911F910F91FF90EF9008957E
:1038B0001D830C83B701888199810E945558F0CFF0
:1038C000FB0101900020E9F73197AF01461B570B30
:1038D0000C943F1C0F931F93CF93DF93CDB7DEB7AC
:1038E00062970FB6F894DEBF0FBECDBF8C01CB013F
:1038F000F8011182108213821282158214824AE02A
:10390000BE016F5F7F4F0E946151BE016F5F7F4FAD
:10391000C8010E94601C62960FB6F894DEBF0FBE0D
:10392000CDBFDF91CF911F910F910895FC011182BE
:1039300010821382128215821482FB0101900020F2
:10394000E9F73197AF01461B570B0C943F1CAF9220
:10395000BF92CF92DF92EF92FF920F931F93CF937C
:10396000DF936C015B017A0189012417350720F48C
:103970008F2D7901042F182F6CEF73E0C6010E9480
:10398000961CD5011496CD91DC91EC16FD06E0F461
:103990000C171D0708F4E801D501ED91FC91119772
:1039A000EC0FFD1F108110826D917C916E0D7F1DBB
:1039B000C60161157105A1F00E94601CF5018081AE
:1039C0009181C80FD91F1883C601DF91CF911F9134
:1039D0000F91FF90EF90DF90CF90BF90AF90089540
:1039E0000E94881BEBCFAF92BF92CF92DF92EF92F3
:1039F000FF920F931F93CF93DF9300D01F92CDB709
:103A0000DEB78C016B017A018091960E8333E9F465
:103A10005B016801C40ED51EC016D106A9F10E9433
:103A2000C3078FE00E94260A812F0E94260A802F5A
:103A30000E94260A0F5F1F4F80E00E94260AF501B0
:103A400081935F010E94B907E7CF843369F50E9433
:103A5000C30719830A838F2D8F778B83EC8264E0F1
:103A600070E0CE0101960E949F07A70170E060E020
:103A7000C6010E943A58E114F10421F0B701C601D1
:103A80000E949F070E94B907C7010F900F900F90E7
:103A90000F90DF91CF911F910F91FF90EF90DF90EA
:103AA000CF90BF90AF9008950E94C3070F3F1105BC
:103AB00009F030F419820A831B8263E070E0D1CFF1
:103AC00017FD0BC019820A8333E0169507953A95C6
:103AD000E1F7007E08600B83F0CFC80126E09695E1
:103AE00087952A95E1F7807E19830A830115104C8A
:103AF00018F480618B83E1CF8861FCCFCF93DF9393
:103B00001F92CDB7DEB72091970E30E0322F2227DB
:103B1000260F371F90E0982F882741E050E0BE0124
:103B20006F5F7F4F820F931F0E94F31C89810F905C
:103B3000DF91CF910895CF93C82F462F61E070E0B9
:103B40000E942B0B61E070E08C2F0E947E1D811182
:103B5000F9CFCF910895CF93C82F80E591E00E94CF
:103B6000660B68E070E08C2FCF910C949B1DCF9377
:103B7000C82F80E591E00E94660B60E170E08C2F19
:103B8000CF910C949B1DCF93DF93EC01888D8830EF
:103B900020F40E94B71D88E0888FDF91CF910895AF
:103BA00063E070E00C947E1DCF93C82F80E591E018
:103BB0000E94660B8C2FCF910C94D01DEF92FF9238
:103BC0000F931F93CF93DF937C018091960ED4E0E7
:103BD000833309F0D8E003E81EE0C0E0F80121914A
:103BE00031918F01F701848195812817390729F0D8
:103BF000CF5FDC13F3CF80E006C08C2F0E94D41D72
:103C00008431B1F781E0DF91CF911F910F91FF9047
:103C1000EF900895CF93DF93EC018C858830D0F43A
:103C20000E94D41D843189F0882379F0883169F0AD
:103C300021E08C3159F4E881F9810084F185E02D8F
:103C4000CE01199521E0892B09F420E0822FDF9124
:103C5000CF91089580E0FBCFCF92DF92EF92FF9259
:103C6000CF93DF93EC018C85883068F40E94AB1D04
:103C70000E9492076B017C018C850E94D41D8111EA
:103C800009C088E08C87DF91CF91FF90EF90DF90A3
:103C9000CF90089561E070E080E090E00E945F07BF
:103CA0000E949207AB01BC014C195D096E097F09A6
:103CB0008D859E85B0E0A0E0481759076A077B070D
:103CC000D8F28C850E94B71DDCCFCF93FC01C08D4C
:103CD00080E591E00E94660B60E270E08C2F0E940C
:103CE0009B1D62E070E08C2F0E947E1D84FD16C03B
:103CF00062E070E08C2F0E947E1D83FF0AC048E1C5
:103D000062E070E08C2F0E942B0B80E090E0CF915E
:103D1000089580E591E00E94660BE3CF40E162E008
:103D200070E08C2F0E942B0B81E0F0CFCF93DF93BC
:103D30001F92CDB7DEB741E050E0BE016F5F7F4F0D
:103D400090E080E00E94F31C89810F90DF91CF9179
:103D50000895CF93DF93C4E1D0E00E94961E88239C
:103D600061F061E070E080E090E00E945F072197E1
:103D7000A1F780E0DF91CF91089581E0FBCFCF9252
:103D8000DF92EF92FF921F93CF93DF93CDB7DEB711
:103D9000C454D1090FB6F894DEBF0FBECDBFFC01ED
:103DA000428153816481758123964CAF5DAF6EAFC4
:103DB0007FAF239781E023968FAF23972396CCACD8
:103DC000DDACEEACFFAC2397CBAADCAAEDAAFEAA31
:103DD0004DA75EA76FA778AB88ABCDA4DEA4EFA4F8
:103DE000F8A8CFA2D8A6E9A6FAA68EABCBA8DCA8E5
:103DF000EDA8FEA8C9A2DAA2EBA2FCA228EE33E04D
:103E00003C8B2B8B9FEF9D8B9E8B9F8B188E3E87C1
:103E10002D878AA7CFA0D8A4E9A4FAA4CF86D88AF0
:103E2000E98AFA8A8CA389A19AA1ABA1BCA189874E
:103E30009A87AB87BC873A8329834B835C836D83E6
:103E40007E838091980E81116CC060E372E080E007
:103E500090E00E945F070E94B015EEEBF6E0E4915F
:103E6000F0E0EE0FFF1FE656F94F85919491909385
:103E7000950E8093940EEEE5F6E0E491E093930EB8
:103E800061E08AE00E9432060E94B90780E591E075
:103E90000E94660B84E38093960E80E80E94DB0A02
:103EA0000E94A91E882309F472C088E00E94DB0AE0
:103EB0000E94961E883009F06AC080E10E94DB0AE9
:103EC0000E94961E803109F062C080E00E94DB0AE9
:103ED0000E94961E182F81115AC041E050E0BE0189
:103EE0006D5B7F4F8FE190E00E94F31C24968FADB5
:103EF0002497833009F04BC080E48093970E42E012
:103F00006EE170E0812F0E942B0B42E06FE170E0C8
:103F1000812F0E942B0B1F5F183089F781E080935F
:103F2000980E80E591E00E94660B46E050E060E864
:103F300072E089E090E00E942D0A44E050E0BE016A
:103F40006D5F7F4F8FE090E00E942D0A44E050E0CB
:103F5000BE01615F7F4F81E090E00E942D0A44E046
:103F600050E0BE016B5E7F4F85E090E00E942D0A1D
:103F700081E08C8789859A85AB85BC8580935811B3
:103F800090935911A0935A11B0935B116FC087E3BE
:103F90008093960E80E80E94DB0A0E94A91E882367
:103FA00039F188E00E94DB0A0E94961E883001F5F4
:103FB00080E10E94DB0A0E94961E182F8031C1F416
:103FC00080E00E94DB0A0E94961E811111C041E030
:103FD00050E0BE016D5B7F4F89E390E00E94F31CCF
:103FE00024968FAD2497843019F41093970E96CFB2
:103FF00083E38093960E80E80E94DB0A0E94A91E4C
:10400000882391F180E10E94DB0A0E94961E803194
:1040100059F582E10E94DB0A0E94961E823121F549
:1040200080E00E94DB0A0E94961E81111DC084E080
:104030008093970E15E525961FAF259741E050E038
:10404000BE016C5B7F4F8BE190E00E942D0A2496AD
:104050001FAF249741E050E0BE016D5B7F4F8AE1C6
:1040600090E00E942D0A5ACF1092960ECC5BDF4F43
:104070000FB6F894DEBF0FBECDBFDF91CF911F9179
:10408000FF90EF90DF90CF9008951F93CF93DF9331
:104090001F92CDB7DEB7182F80E591E00E94660B26
:1040A000812F0E94CE0727E0129FF0011124E55BCB
:1040B000F14F22813381377041E050E0BE016F5FE4
:1040C0007F4F820F931F0E94F31C89810F90DF9115
:1040D000CF911F910895FC01808D883040F4218D8F
:1040E000328D232B21F00E94452090E008958FEF20
:1040F0009FEF0895CF93DF93FC012485283028F0AB
:104100008FEF9FEFDF91CF910895EC010190F08147
:10411000E02D0084F185E02D1995892B89F38C859C
:104120000E94452090E0EECFDA01E091970EF0E09A
:10413000FE2FEE27E60FF71F90E0982F8827A901A2
:10414000BD018E0F9F1F0C94F31C8F929F92AF9214
:10415000BF92CF92DF92EF92FF920F931F93CF9374
:10416000DF93CDB7DEB760970FB6F894DEBF0FBE12
:10417000CDBF7C019091960E911115C018E0812F52
:1041800060960FB6F894DEBF0FBECDBFDF91CF9122
:104190001F910F91FF90EF90DF90CF90BF90AF9065
:1041A0009F908F90089508E0933309F404E06B0129
:1041B00080E591E00E94660B9E012F5F3F4F590101
:1041C000490110E0812F0E94D01DF40181934F011D
:1041D0008823C1F01F5F0113F5CF00E0F501819145
:1041E0005F018D3149F0883139F08A51823020F0F9
:1041F0000F5F1013F3CFC2CF60E170E0802F0E94F9
:104200009B1D102FA12EB12CF501EE0FFF1FED57B6
:10421000F14F1182108283EE93E00197F1F742E8AB
:1042200070E060E0812F0E942B0B4FEF62E070E0A6
:10423000812F0E942B0BB601C114D10491F48091FF
:104240007E0290917F0201968115F0EC9F0708F4A1
:104250005CC090937F0280937E0260917E02709199
:104260007F02812F0E94150B86E0E8E9F2E0DE0173
:10427000199601900D928A95E1F7F70183818F7766
:104280008C8784818D8785818E87A7014E5F5F4FE4
:1042900024E030E06CE070E0812F0E94EE0AB6016D
:1042A000812F0E94FF0A26E030E0AE01475F5F4F9A
:1042B00066E070E0812F0E94EE0A61E070E0812FDD
:1042C0000E949B1D27E02A9DC0012B9D900D11246B
:1042D0009C01255B314F7901F9011182108222E0A6
:1042E00030E0AE01415F5F4F68E270E0812F0E94D5
:1042F00094208F859889982789279827F701938399
:1043000082831682158214823ACF80E090ECA1CF8E
:10431000CF92DF92EF92FF920F931F93CF93DF9391
:1043200000D000D0CDB7DEB78C016B017A01FC0163
:10433000808D883010F40E94B71D88EE93E09A8338
:104340008983F60182819381A481B5818B839C83CB
:10435000AD83BE83B701CE0101960E94A520F8016E
:10436000808F8830A0F4F586E486128E118E81E06D
:1043700026960FB6F894DEBF0FBECDBFDF91CF916A
:104380001F910F91FF90EF90DF90CF90089580E004
:10439000EFCF7F928F929F92AF92BF92CF92DF9298
:1043A000EF92FF920F931F93CF93DF931F921F9271
:1043B000CDB7DEB7782E8B014A01590122E030E0FB
:1043C000AE014F5F5F4F64E270E00E949420E9808D
:1043D000FA80FE24EF24FE24E00EF11E97013770D0
:1043E0004091960E072D10E0433309F042C0085F5C
:1043F0001F4F102F0027110F110F110FC901800F30
:10440000911F4733C9F1A9014A0D5B1D4130584046
:1044100098F160E078E06B01C21AD30AA601B401FA
:104420000E942D0AA5014C195D09B4016C0D7D1D7A
:10443000C8010E942D0AEA0CFB1CF982EA8222E0E4
:1044400030E0AE014F5F5F4F64E270E0872D0E9465
:10445000EE0A0F900F90DF91CF911F910F91FF9077
:10446000EF90DF90CF90BF90AF909F908F907F9014
:104470000895005F1F4FBDCFA501B401DACFEF92C1
:10448000FF921F93CF93DF931F921F92CDB7DEB79A
:10449000182F22E030E0AE014F5F5F4F60E270E026
:1044A0000E949420E980FA80FE24EF24FE2422E07A
:1044B00030E0AE014F5F5F4F60E270E0812F0E94FD
:1044C000942089819A81982789279827E816F906E8
:1044D00089F487E0189FF0011124E55BF14FF58224
:1044E000E482C7010F900F90DF91CF911F91FF9051
:1044F000EF9008957C01DBCF1F93CF93DF93182FAC
:1045000080E591E00E94660B812F0E943F22EC0122
:10451000812F0E94D01D873121F08C3111F0D0E025
:10452000C0E0CE01DF91CF911F910895CF93DF932B
:10453000EC018C85883060F40E94D41D873111F025
:104540008C3131F48C850E947C228115984088F34F
:10455000DF91CF910895FC018485883010F40C948C
:104560007C2290E080E00895CF92DF92EF92FF925C
:104570001F93CF93DF93182F7B01EA0141305840FE
:1045800010F0C0E0D8E080E591E00E94660B812F3A
:104590000E943F226C01812F0E94D01D873111F0B3
:1045A0008C3121F5CC16DD0670F380E591E00E9498
:1045B000660B9E01A70170E060E0812F0E94C92177
:1045C00060E270E0812F0E949B1D62E070E0812F0D
:1045D0000E947E1D84FD0DC0812F0E94D01D882366
:1045E000B9F080E591E00E94660BEFCFD0E0C0E02B
:1045F000DCCF40E162E070E0812F0E942B0BCE0106
:10460000DF91CF911F91FF90EF90DF90CF900895B1
:10461000D0E0C0E0F4CF0F931F93CF93DF938C01D2
:10462000EA01FC018485883048F40E94B422892B79
:1046300039F481E090E0F80193838283D0E0C0E018
:10464000CE01DF91CF911F910F9108959F92AF926C
:10465000BF92CF92DF92EF92FF920F931F93CF936F
:10466000DF938C015B01942EE52EFC01C688D78870
:10467000F08C80E591E00E94660B8F2D0E943F2216
:10468000C92DDE2D8C179D0708F4EC019E01A501B4
:10469000B6018F2D0E94C921F801868997898C0F58
:1046A0009D1F978B868BCE01DF91CF911F910F912C
:1046B000FF90EF90DF90CF90BF90AF909F900895C4
:1046C000FF920F931F93CF93DF931F921F92CDB74B
:1046D000DEB7F82E22E030E0AE014F5F5F4F66E2BA
:1046E00070E00E94942009811A8110270127102769
:1046F00022E030E0AE014F5F5F4F66E270E08F2D49
:104700000E94942089819A819827892798270817E1
:10471000190749F4C8010F900F90DF91CF911F91B5
:104720000F91FF9008958C01E3CF1F93CF93DF93F8
:10473000182F87E0189FE0011124C55BD14F8881B5
:104740009981009761F480E591E00E94660B812FCA
:104750000E9460232E81821B910999838883DF91B7
:10476000CF911F9108959F92AF92BF92CF92DF9207
:10477000EF92FF920F931F93CF93DF93EC017B0196
:104780008091960E811121C01B821A8288EE93E0DF
:10479000A0E0B0E08C839D83AE83BF838CE993E07F
:1047A0009983888388E08C8788EE93E09E878D8745
:1047B000CE01DF91CF911F910F91FF90EF90DF908D
:1047C000CF90BF90AF909F90089534E0932E8333A5
:1047D00011F028E0922E83E8C82E8EE0D82E10E04B
:1047E00098E0B92EA12CD6012D913D916D01F701D4
:1047F000848195812817390791F4812F0E94D41D57
:10480000082F873111F08C3139F5812F0E949523C3
:10481000892B59F50C3119F4812F0E94AB1D1F5FB4
:104820009112E1CFA11008C0D701ED91FC91008455
:10483000F185E02DC70119951B821A8288EE93E05D
:10484000A0E0B0E08C839D83AE83BF838CE993E0CE
:1048500099838883BC86A8CF843149F08111DFCF4A
:10486000F601329711821082DACFB12ED8CFAA2466
:10487000A394D5CF8F929F92AF92BF92CF92DF92A7
:10488000EF92FF920F931F93CF93DF93CDB7DEB7D5
:104890002F970FB6F894DEBF0FBECDBF5C014B0162
:1048A0007A018091960E8823C9F104E0833309F0E0
:1048B00008E0B501CE0101960E94B32383E8C82E1B
:1048C0008EE0D82E10E0F601219131916F01F501B3
:1048D000848195812817390751F4812F0E94D41DB6
:1048E000873129F4A701B401812F0E94B4221F5FF0
:1048F0000113E9CFC7012F960FB6F894DEBF0FBEA4
:10490000CDBFDF91CF911F910F91FF90EF90DF907E
:10491000CF90BF90AF909F908F900895F12CE12C95
:10492000E9CFFC018485883010F40C94952390E045
:1049300080E008954F925F927F928F929F92AF9204
:10494000BF92CF92DF92EF92FF920F931F93CF937C
:10495000DF931F921F92CDB7DEB7782E6B014A010D
:10496000A82EB12C27E0829FC0011124FC01E55B39
:10497000F14F7F010081118180E591E00E94660B7B
:104980000815190554F4872D0E946023F70126812C
:104990008C01021B1109118300830115110519F502
:1049A000872D0E94D01D843159F0882349F001E001
:1049B00010E08C3111F410E000E01195019511091F
:1049C000C8010F900F90DF91CF911F910F91FF9031
:1049D000EF90DF90CF90BF90AF909F908F907F909F
:1049E0005F904F900895801691060CF4840187E043
:1049F0008A9DF0018B9DF00D1124E55BF14FE28063
:104A0000F380C114D10451F12701F7E05F22872D13
:104A10000E94CE07840D951D2091960E273309F430
:104A200053C09801240D351D2130384008F44CC086
:104A300020E038E0490184189508A401B6010E94DD
:104A4000F31C2601480C591C6801C818D908872D89
:104A50000E94CE07A601B2010E94F31CE00EF11ED7
:104A600087E08A9DF0018B9DF00D1124E55BF14FED
:104A7000F382E28220813181201B310B318320833C
:104A80008681800F912F911D8A3F910510F4232B71
:104A9000F1F487E08A9DF0018B9DF00D1124E55B18
:104AA000F14F1682F982EA8222E030E0AE014F5FD8
:104AB0005F4F68E270E0872D0E94EE0A60E470E0CC
:104AC000872D0E949B1D7CCFA801B601C5CF868390
:104AD00077CFCF93DF93FC01218D328D21153105E6
:104AE00029F48FEF9FEFDF91CF910895EC01808D36
:104AF0004217530708F0A9010E949A2418161906B4
:104B000084F7298D3A8D281B390B3A8F298FEBCFEB
:104B10000F931F93CF93DF931F92CDB7DEB7FC01A6
:104B2000218D328D232B41F48FEF9FEF0F90DF917A
:104B3000CF911F910F9108958C0141E050E0BE018B
:104B40006F5F7F4FFC01808D0E949A241816190612
:104B50005CF7F801818D928D0197928F818F898109
:104B600090E0E4CFCF93DF931F92CDB7DEB741E063
:104B700050E0BE016F5F7F4FFC0184850E949A2444
:104B80001816190634F4898190E00F90DF91CF91C7
:104B900008958FEF9FEFF9CFFC018485883010F4E2
:104BA0000C949A2490E080E008958F929F92AF92A7
:104BB000BF92CF92DF92EF92FF920F931F93CF930A
:104BC000DF9300D000D000D01F92CDB7DEB7909118
:104BD000960E911115C018E0812F2A960FB6F89401
:104BE000DEBF0FBECDBFDF91CF911F910F91FF9020
:104BF000EF90DF90CF90BF90AF909F908F900895EF
:104C000028E0F22E933311F494E0F92E6B01082F73
:104C100080E591E00E94660B9E012F5F3F4F590196
:104C2000490110E0812F0E94D01DF40181934F01B2
:104C30008823C1F01F5FF112F5CFF12CF50191919E
:104C40005F019D3149F0983139F09A51923020F04E
:104C5000F3941F11F3CFBFCF60E170E08F2D0E945E
:104C60009B1D1F2DE12EF12CF701EE0FFF1FED57BD
:104C7000F14F1182108283EE93E00197F1F7402FFC
:104C800070E060E0812F0E942B0B4FEF62E070E03C
:104C9000812F0E942B0BB601CD2889F480917E02D2
:104CA00090917F0201968115F0EC9F0798F1909307
:104CB0007F0280937E0260917E0270917F02812F3D
:104CC0000E94150B61E070E0812F0E949B1D27E080
:104CD0002E9DC0012F9D900D11249C01255B314F0D
:104CE0007901F9011182108222E030E0AE01475FC4
:104CF0005F4F68E270E0812F0E94942089859A8539
:104D0000982789279827F701938382831682158233
:104D1000148262CF80E090ECCACF0F931F93CF93A1
:104D2000DF93EC018B01888D883010F40E94B71D51
:104D3000B80182E00E94D525888F883050F41D8705
:104D40000C871A8E198E81E0DF91CF911F910F9100
:104D5000089580E0F9CF0F931F93CF938C01FC014E
:104D60006481758181E20E94D525C82F8830F8F4CE
:104D700080E591E00E94660B8C2F0E94D01D83314C
:104D800031F08C2FCF911F910F910C94AB1D62E0ED
:104D900070E08C2F0E949B1DF80184819581EC2F7F
:104DA000F0E0EE0FFF1FED57F14F91838083CF911D
:104DB0001F910F910895CF92DF92EF92FF921F9370
:104DC000CF93DF93EC017B016A018C85883048F436
:104DD0000E94D41D882319F08C850E94AB1D88E0A9
:104DE0008C87F70182819381A481B5810097A10509
:104DF000B10551F490E080E0DF91CF911F91FF90D9
:104E0000EF90DF90CF9008958F3F9F4FAF4FBF4FF0
:104E100089F370E060E081E20E94D525182F8C872D
:104E2000883040F780E591E00E94660BA7014E5F55
:104E30005F4F24E030E06CE070E0812F0E94EE0ACA
:104E4000B601812F0E94FF0A64E070E0812F0E946A
:104E50009B1D0E9492076B017C018C850E94D41DD2
:104E6000873111F18C3101F1882321F20E949207E0
:104E7000AB01BC014C195D096E097F098D859E85CA
:104E8000B0E0A0E084179507A607B70738F061E007
:104E900070E080E090E00E945F07DFCF8C850E9489
:104EA000B71D88E08C87A6CF81E090E0A5CF0F9357
:104EB0001F93CF93DF931F921F92CDB7DEB7FC01F4
:104EC00024852830E0F48C0180E591E00E94660B97
:104ED00022E030E0AE014F5F5F4F60E170E0F8012B
:104EE00084850E94942089819A8198278927982710
:104EF0000F900F90DF91CF911F910F91089590E047
:104F000080E0F6CF0F931F93CF93DF931F921F92F2
:104F1000CDB7DEB7FC0124852830E0F48C0180E5B4
:104F200091E00E94660B22E030E0AE014F5F5F4FE0
:104F300064E070E0F80184850E94942089819A8160
:104F40009827892798270F900F90DF91CF911F9175
:104F50000F91089590E080E0F6CF0F931F93CF93C9
:104F6000DF9300D000D01F921F92CDB7DEB78C0127
:104F7000D80159964D915C915A974115510551F0C0
:104F8000ED91FC91048CF58DE02D70E060E0C8019E
:104F90001995EECFF801808D0E949523892BB1F1F0
:104FA00048E050E0BE016F5F7F4FD80158968C916A
:104FB0000E949A2418161906F4F4D801509684E039
:104FC000FE01319601900D928A95E1F78D8190E076
:104FD000982F88272E81820F911DF801958B848B45
:104FE0008F81282F30E0322F22278885820F932F40
:104FF000911D928F818F28960FB6F894DEBF0FBE59
:10500000CDBFDF91CF911F910F91089590E080E087
:10501000F2CF4F925F926F927F928F929F92AF9258
:10502000BF92CF92DF92EF92FF920F931F93CF9395
:10503000DF93CDB7DEB763970FB6F894DEBF0FBE30
:10504000CDBF7C016B013A01FB0120E090E080E0E4
:105050006AE03191332309F461C040ED430F4A30D7
:1050600008F04DC0689FA001699F500D1124CA012E
:10507000C097830F911D37FD9A958F3F910549F396
:1050800040F3F701428153816481758180916411FD
:1050900090916511A0916611B09167114817590759
:1050A0006A077B0709F40DC28701085F1F4F0E9442
:1050B00092076F7077277C5FC8010E948D26813030
:1050C00009F004C288EE93E09A838983F701828114
:1050D0009381A481B5818B839C83AD83BE8345E39B
:1050E00050E0BE016F5F7F4FC8010E94690B892BA2
:1050F000A9F5D12CC12CC8010E94C31D17C03E3296
:1051000009F0BFCF233009F4BCCFD301A20FB11DEA
:1051100012968C932F5F90E080E09BCF233009F0B4
:10512000B0CFF3018583CC24C394D12CC601639600
:105130000FB6F894DEBF0FBECDBFDF91CF911F91A8
:105140000F91FF90EF90DF90CF90BF90AF909F9026
:105150008F907F906F905F904F9008950E9492077C
:10516000F7017783668342E050E0B7016A5F7F4FC3
:10517000C8010E94262381E090E09A83898342E05F
:1051800050E0BE016F5F7F4FC8010E94262380E080
:1051900091E09A83898342E050E0BE016F5F7F4FC8
:1051A000C8010E9426231A82198242E050E0BE0103
:1051B0006F5F7F4FC8010E94262342E050E0BE018E
:1051C0006F5F7F4FC8010E94262342E050E0BE017E
:1051D0006F5F7F4FC8010E9426235601F601808130
:1051E000882301F16501F60181912F01882311F0D7
:1051F0008E32B1F446018A189B081814190474F40D
:105200008D8641E050E0BE01635F7F4FC8010E9480
:105210002623A401B501C8010E9426235201DECF36
:105220006201E1CF1D8641E050E0BE01635F7F4F28
:10523000C8010E942623C12CDD24D394DA82C982BE
:1052400042E050E0BE016F5F7F4FC8010E942623FD
:10525000DA82C98242E050E0BE016F5F7F4FC80131
:105260000E942623C8010E94651E892B09F441CFA4
:10527000F3E0AF2EB12C230122E0420E511CD4C02A
:10528000F7014281538164817581808D918DA28D5A
:10529000B38D481759076A077B0709F008C1848D49
:1052A000958DC59709F003C181A192A15DEFC52E2F
:1052B000DD24DA940C970CF4ADC04CE050E0BE0154
:1052C0006F5F7F4FC8010E9469258B819C81982761
:1052D000892798279A8B898BF701468157812981E5
:1052E0003A814217530709F0E7C097FFE5C08F7076
:1052F00092703BEFC32EDD24DA94892B09F08AC02B
:105300006F8078847624672476242AEFC22EDD24E9
:10531000DA946114710409F47DC0D12CC12C8D8103
:105320009E81982789279827C816D906F8F441E066
:1053300050E0BE01635F7F4FC8010E9469254D8523
:10534000442331F050E070E060E0C8010E9469251C
:105350008D858111ECCF44E050E070E060E0C80141
:105360000E946925FFEFCF1ADF0AD9CF912C812C3B
:1053700041E050E0BE016D5E7F4FC8010E9469258B
:105380004B89842F807C09F06CC0442331F050E0BD
:1053900070E060E0C8010E9469258B898111E8CF27
:1053A00042E050E0BE01615F7F4FC8010E94692565
:1053B00042E050E0BE01635F7F4FC8010E94692553
:1053C00044E050E070E060E0C8010E94692542E0DE
:1053D00050E0BE016F5E7F4FC8010E9469258F8536
:1053E000988949895A898115914009F043C0CD8433
:1053F000DE84DC24CD24DC2481E0C816D104D1F580
:105400004115544009F04AC044E050E0B201C801DF
:105410000E94692521E0A21AB10809F46CCEFFEFC1
:10542000CF16DF0609F067CE0E9492073B014C01C0
:10543000C8010E94AD27181619060CF421CF0E944E
:1054400092076619770988099909693873418105B6
:10545000910548F562E370E080E090E00E945F070C
:10546000E7CF41E050E070E060E0C8010E946925AC
:105470001B8A93CF54274527542770E060E0C8016A
:105480000E946925FFEF8F1A9F0A6814790409F0BA
:105490006FCF96EFC92EDD24DA94BCCFE7EFCE2E86
:1054A000DD24DA94B7CFCC24CA94DC2CB3CF6EEFD2
:1054B000C62EDD24DA94AECF4CEFC42EDD24DA9470
:1054C000A9CF8EEFC82EDD24DA9430CED12CC12C9A
:1054D0002DCECF92DF92EF92FF920F931F93CF9337
:1054E000DF93CDB7DEB7AF970FB6F894DEBF0FBE30
:1054F000CDBF7C016A0108EE13E01A8309831C8684
:105500001B8688EE93E0A0E0B0E08D879E87AF8792
:10551000B88B8DED92E09A878987188F0F8B198E43
:105520001A8E1B8E1C8E88E089A31BA70AA71CA6B7
:105530001DA61EA61FA68091581190915911A091E9
:105540005A11B0915B118EA39FA3A8A7B9A78B8313
:105550009C83AD83BE8318861F82AE01465D5F4F7C
:10556000CE0101960E94092881309105B1F4D7013E
:10557000ED91FC910488F589E02D1DA30CA38CA569
:105580009DA5AEA5BFA58EA39FA3A8A7B9A7A60159
:10559000BE016C5D7F4FC7011995AF960FB6F894A9
:1055A000DEBF0FBECDBFDF91CF911F910F91FF9056
:1055B000EF90DF90CF900895CF92DF92EF92FF921D
:1055C0000F931F93CF93DF93CDB7DEB7AF970FB68F
:1055D000F894DEBF0FBECDBF8C016B017A0188EE5F
:1055E00093E09A8389831B821C821D821E821C8603
:1055F0001B8648EE53E060E070E04D875E876F8762
:10560000788B2DED32E03A872987988F8F8B198E12
:105610001A8E1B8E1C8E28E029A39BA78AA71CA686
:105620001DA61EA61FA6D8011C968C91883060F47A
:105630000E94D41D882321F0F80184850E94AB1DAF
:1056400088E0D8011C968C93809158119091591143
:10565000A0915A11B0915B118EA39FA3A8A7B9A7DF
:105660008B839C83AD83BE8318861F82AE01465D0B
:105670005F4FB601CE0101960E9409280097C1F044
:10568000D801ED91FC910684F785E02D88EE93E03A
:105690009DA38CA38CA59DA5AEA5BFA58EA39FA3FE
:1056A000A8A7B9A7A701BE016C5D7F4FC8011995D6
:1056B000AF960FB6F894DEBF0FBECDBFDF91CF918E
:1056C0001F910F91FF90EF90DF90CF900895EF9290
:1056D000FF920F931F93CF93DF9300D01F92CDB70C
:1056E000DEB78C017B01FB0184858830A8F088EE51
:1056F00093E0F801918380831282138214821582D1
:10570000C8010F900F900F900F90DF91CF911F91D4
:105710000F91FF90EF90089580E591E00E94660B55
:1057200024E030E0AE014F5F5F4F6CE070E0F701C6
:1057300084850E94942088EE93E0F8019183808311
:1057400089819A81AB81BC8182839383A483B58351
:10575000D7CF85ED8093BC008091BF0D9091C00D97
:10576000A091C10DB091C20D0796A11DB11D23E0FE
:10577000B695A795979587952A95D1F72091BC0066
:1057800024FD03C01092BD0D08954091BF0D5091AE
:10579000C00D6091C10D7091C20D452B462B472B5A
:1057A00069F30097A105B10541F025E32A95F1F7CA
:1057B00000000197A109B109E1CF8091BE0D0C94C1
:1057C0008D083F924F925F926F927F928F929F923D
:1057D000AF92BF92CF92DF92EF92FF920F931F93FF
:1057E000CF93DF9300D000D000D01F921F92CDB78F
:1057F000DEB77C01DC0115968C91811115C0FE018C
:105800003196CE010C966F0130E23193E817F9071B
:10581000E1F7DA0130E087E09D91B92E992329F173
:105820009E3239F48A3011F480E0DAC038E08AE040
:10583000F3CFE7E9F5E04491442321F03196941346
:10584000FACFF2CF831780F34FED490F4E3560F753
:105850004FE9490F4A3118F440EEB42EB90EF60163
:10586000E30FF11DB0823F5FD7CF89818032E1F233
:10587000322E8B01FB01838D948DD7015C969C9316
:105880008E935B9716821782108611861286138676
:1058900014861586F80182859385A485B58543898C
:1058A00054896589768984179507A607B70708F094
:1058B0004DC025E0B695A795979587952A95D1F780
:1058C000F82FFF70AF2ED80115968C91823008F416
:1058D000ABCFC8010E946B1597FDA6CFF80182855A
:1058E0009385A485B5854F96A11DB11D82879387A9
:1058F000A487B587F0E2AF9EB00111246556714FC1
:105900006115710509F490CFDB018C91882341F07A
:10591000853E09F058C0BB2029F0BB24B394BACF10
:10592000B1100EC0F701A28A8091650290916602C3
:10593000A0916702B091680286879787A08BB18B90
:10594000DB018C918111E9CFBB24B394832D82714B
:10595000823109F069CFBB2009F45AC0C7010E9407
:10596000BC0D009709F460CF20E2FC0111922A954A
:10597000E9F72BE0F601DC0101900D922A95E1F7A1
:1059800021E238E2DC0151963C932E93509740E09F
:1059900058E01F965C934E931E9753963C932E931C
:1059A000529759963C932E93589757965C934E93E3
:1059B000569781E00E94470D882309F435CF432D87
:1059C000F70162890AC04BE050E0C6010E942458EA
:1059D000892B09F05FCF432D6A2DC7010E94141750
:1059E0002B960FB6F894DEBF0FBECDBFDF91CF91DF
:1059F0001F910F91FF90EF90DF90CF90BF90AF90ED
:105A00009F908F907F906F905F904F903F90089500
:105A1000F8018581823009F407CFC8010E944B103C
:105A2000882309F401CFD8015B96ED91FC915C9736
:105A300016968D909D90AD90BC901997B2E08B1A00
:105A40009108A108B108858504C0880C991CAA1C7E
:105A5000BB1C8A95D2F786859785A089B189880E67
:105A6000991EAA1EBB1E848124013501480E511CBB
:105A7000611C711C84149504A604B70409F1E1E0CB
:105A80004E1A51086108710881E00E94470D882371
:105A900009F4CACEEBE9FEE011928BE990E18E1792
:105AA0009F07D1F7409265025092660260926702AA
:105AB0007092680280912E0D816080932E0DDACF56
:105AC000D8015B96ED91FC91258580E092E0A0E005
:105AD000B0E004C0880F991FAA1FBB1F2A95D2F7F8
