:020000040000FA
:100000000C9418020C9427410C94FC400C94D140A1
:100010000C94A6400C947B400C9450400C942540CA
:100020000C94FA3F0C9449020C9449020C94490236
:100030000C9449020C9449020C9449020C94490214
:100040000C9449020C9449020C9449020C94490204
:100050000C9449020C9449020C9449020C94B03F50
:100060000C9449020C947A3F0C94503F0C94490232
:100070000C9449020C9449020C9449020C944902D4
:100080000C9449020C9449020C9449020C944902C4
:100090000C9449020C9449020C9449020C9452416C
:1000A0000C9449020C9449020C9449020C944902A4
:1000B0000C9449020C9449020C9449020C94490294
:1000C0000C9449020C9449020C9449020C94490284
:1000D0000C9449020C9449020C9449020C94490274
:1000E0000C9449020C941C040C94F5140C94C02636
:1000F0000C94BC140C9427050C948B020C94D5061C
:100100000C9418050C943E040C9451070C94C514DF
:100110000C9449150C94B5020C9448160C94491291
:100120000C944C040C9467060C94BF170C94C022DA
:100130000C9496050C947E250C9482050C94340442
:100140000C9464070C9455050C9498030C94351684
:100150000C9497270C9430040C944F140C947A1E32
:100160000C9420230C946B070C9488060C94C50601
:100170000C9422040C9413030C94E1250C94860235
:100180000C9480200C949D250C940D040C94430534
:100190000C943B230C94F31D0C94F12A0C94AA05A7
:1001A0000C946C270C94C7250C9448040C944704B9
:1001B0000C9442070C9478050C94E2020C94741889
:1001C0000C941F1E0C942C040C9445160C94501681
:1001D0000C94D81D0C9412150C9439160C94E5143B
:1001E0000C9476420C9498070C94C1060C945F050D
:1001F0000C9469050C9413060C9442040C94260488
:100200000C94A0050C948C050C947D060C94F102C2
:100210000C94AB220C94024C0C949D210C94411E26
:100220000C9410050C947E2A0C948F200C94870259
:100230000C9482020C943F150C94A2260C947C2BF7
:100240000C9415040C949F020C9451060C944316C4
:100250000C948C020C94F0260C943A040C943B05FC
:100260000C9431050C944B030C944B050C94C22751
:100270000C94BD060C9405030C9407040C944F24B5
:100280000C9419040C94FD090C94A6240C941D05DF
:100290000C9411044E414E494E495459494E46CD95
:1002A000CCCC3D0AD7233C17B7D13877CC2B32952D
:1002B00095E6241FB14F0A000020410000C842000B
:1002C000401C4620BCBE4CCA1B0E5AAEC59D743C99
:1002D0002F6C6162656C3E3C2F6469763E003C2F5A
:1002E0006C6162656C3E3C6C6162656C3E003C64B6
:1002F00069763E3C6C6162656C3E007C3C3E5E2BE8
:100300003D3F2F5B5D3B2C2A225C00000021002436
:100310000027002A002D00300033000101000004F6
:100320000107010A01000020002300260029002CFB
:10033000002F003200000100000301060109010046
:10034000000A0B02090C0D0E08070304010000004F
:10035000000000000000000000000000000000009D
:10036000000000000000000000000012111000005A
:10037000000000000000000000000000000000007D
:10038000000000000001021020200808102040108A
:100390002040800201020108040201010204081049
:1003A0002040808040201008040201800402018067
:1003B0004020100804020108040201010204081090
:1003C0002040800102040810204080000022002507
:1003D0000028002B002E003100340002010000052F
:1003E0000108010B010505050507050808080802B5
:1003F0000202020A0A0808040404040101010101BE
:100400000101010303030303030303040707070CAC
:100410000C0C0C0C0C0C0C02020202060606060662
:100420000606060B0B0B0B0B0B0B0B007642024C5C
:1004300011241FBECFEFD1E2DEBFCDBF00E00CBF65
:100440001DE0A0E0B2E0EAE4F7EA00E00BBF02C082
:1004500007900D92AA35B107D9F725E1AAE5BDE0CD
:1004600001C01D92A733B207E1F712E0C7E1D2E065
:1004700000E006C021970109802FFE010E94215152
:10048000C631D10780E00807A9F70E947D430C948C
:1004900093530C940000CF93DF93FC0182819381EE
:1004A000909301158093001584819581A681B78171
:1004B0008093021590930315A0930415B09305152E
:1004C00080859185A285B385809306159093071545
:1004D000A0930815B0930915DF011C96CF0149962A
:1004E000CAE0D5E12D912993A817B907D9F7818DD5
:1004F000928D90931815809317158EEF94E1DF91EC
:10050000CF910895FC01818D928D0895089581E029
:1005100080936211089508950895FC012481358126
:100520006217730720F480819181009729F410925B
:10053000141184E191E10895860F971F089508959D
:10054000DC01ED91FC910190F081E02D1994DB012B
:1005500014964D915C9115976D917C91DC01ED9114
:10056000FC910280F381E02D1994AF92BF92CF925B
:10057000DF92EF92FF920F931F93CF93DF936C0163
:100580007B018B01040F151FEB015E01AE18BF0844
:10059000C017D10759F06991D601ED91FC910190F6
:1005A000F081E02DC6011995892B79F7C501DF91FE
:1005B000CF911F910F91FF90EF90DF90CF90BF9060
:1005C000AF900895FC01538D448D252F30E0842F8A
:1005D00090E0821B930B541710F0CF96089501976B
:1005E0000895FC01918D828D981761F0A28DAE0F58
:1005F000BF2FB11D5D968C91928D9F5F9F73928FDF
:1006000090E008958FEF9FEF0895FC01918D828D0A
:10061000981731F0828DE80FF11D858D90E00895D7
:100620008FEF9FEF0895FC01918D228D892F90E02F
:10063000805C9F4F821B91098F739927089583EBEC
:1006400093E10E94130321E0892B09F420E0822F1B
:100650000895FC01A48DA80FB92FB11DA35ABF4F57
:100660002C91848D90E001968F739927848FA689B1
:10067000B7892C93A089B1898C91837080648C9305
:10068000938D848D981306C00288F389E02D8081B4
:100690008F7D80830895EF92FF920F931F93CF93E6
:1006A000DF93EC0181E0888F9B8D8C8D98131AC0AD
:1006B000E889F989808185FF15C09FB7F894EE8994
:1006C000FF896083E889F9898081837080648083F1
:1006D0009FBF81E090E0DF91CF911F910F91FF903C
:1006E000EF900895F62E0B8D10E00F5F1F4F0F73E4
:1006F0001127E02E8C8D8E110CC00FB607FCFACF9F
:10070000E889F989808185FFF5CFCE010E94290310
:10071000F1CFEB8DEC0FFD2FF11DE35AFF4FF0826F
:100720009FB7F8940B8FEA89FB8980818062CFCFD5
:10073000CF93DF93EC01888D8823B9F0AA89BB8918
:10074000E889F9898C9185FD03C0808186FD0DC003
:100750000FB607FCF7CF8C9185FFF2CF808185FF24
:10076000EDCFCE010E942903E9CFDF91CF9108950B
:1007700080E090E0892B29F00E941F0381110E94E4
:10078000000080E090E0892B49F080E090E0892B28
:1007900029F00E94000081110E94000080E090E09A
:1007A000892B49F080E090E0892B29F00E9400001D
:1007B00081110E94000080E090E0892B49F080E0E8
:1007C00090E0892B29F00E94000081110C94000018
:1007D00008958150823108F05AC0E82FF0E0882750
:1007E000EB50FC4F8F4F0C94215115041904070452
:1007F0000D04110447041C04220426042C043004B4
:1008000034043A043E044704420448044C048091F2
:1008100080008F77809380000895809180008F7D85
:10082000F9CF80918000877FF5CF84B58F7784BD25
:10083000089584B58F7DFBCF8091B0008F77809332
:10084000B00008958091B0008F7DF9CF8091900025
:100850008F77809390000895809190008F7DF9CFDD
:1008600080919000877FF5CF8091A0008F77809353
:10087000A00008958091A0008F7DF9CF8091A00005
:10088000877FF5CF809120018F7780932001089595
:10089000809120018F7DF9CF80912001877FF5CF56
:1008A000CF93DF93282F30E0F901E15CFC4F849176
:1008B000F901EB57FC4FD491F901EB51FC4FC49176
:1008C000CC23A1F081110E94E903EC2FF0E0EE0FA0
:1008D000FF1FEB5DFC4FA591B491EC91ED2381E0FE
:1008E00090E009F480E0DF91CF91089580E090E0FE
:1008F000FACF1F93CF93DF93282F30E0F901E15C0B
:10090000FC4F8491F901EB57FC4FD491F901EB5165
:10091000FC4FC491CC23A9F0162F81110E94E9034A
:10092000EC2FF0E0EE0FFF1FE553FC4FA591B491C3
:100930008FB7F894EC91111108C0D095DE23DC93A9
:100940008FBFDF91CF911F910895DE2BF8CFCF930A
:10095000DF9390E0FC01EB57FC4F24918B519C4FAF
:10096000FC0184918823D1F090E0880F991FFC014D
:10097000E55FFC4FA591B491FC01E553FC4FC59197
:10098000D49161110EC09FB7F8948C91E22FE0953D
:100990008E238C932881E223E8839FBFDF91CF9140
:1009A00008958FB7F894EC91E22BEC938FBFF6CFBC
:1009B0001F93CF93DF93182FEB0161E00E94A704F0
:1009C000209739F460E0812FDF91CF911F910C9433
:1009D0007904CF3FD10511F461E0F5CFE12FF0E0CC
:1009E000E15CFC4FE491E150E23108F0B3C0F0E08B
:1009F0008827E250FB4F8F4F0C94215110051805AA
:100A00001D0527053105AA053B0543054B05550581
:100A10005F05690578058205AA058C059605A00580
:100A200084B5806884BDC7BDDF91CF911F910895C3
:100A300084B5806284BDC8BDF7CF80918000806896
:100A400080938000D0938900C0938800EDCF80917F
:100A50008000806280938000D0938B00C0938A00D6
:100A6000E3CF80918000886080938000D0938D00D8
:100A7000C0938C00D9CF8091B00080688093B00083
:100A8000C093B300D1CF8091B00080628093B0005A
:100A9000C093B400C9CF809190008068809390008B
:100AA000D0939900C0939800BFCF8091900080624E
:100AB00080939000D0939B00C0939A00B5CF809113
:100AC0009000886080939000D0939D00C0939C001C
:100AD000ABCF8091A00080688093A0008091A0009F
:100AE0008F7B8093A000D093A900C093A8009CCFD7
:100AF0008091A00080628093A000D093AB00C0934F
:100B0000AA0092CF8091A00088608093A000D0932B
:100B1000AD00C093AC0088CF8091200180688093A5
:100B20002001D0932901C09328017ECF809120011C
:100B3000806280932001D0932B01C0932A0174CF4F
:100B400080912001886080932001D0932D01C09373
:100B50002C016ACFC038D1050CF03ECF33CF3FB760
:100B6000F8948091101190911111A0911211B091EF
:100B7000131126B5A89B05C02F3F19F00196A11DA2
:100B8000B11D3FBFBA2FA92F982F8827BC01CD01D7
:100B9000620F711D811D911D42E0660F771F881F36
:100BA000991F4A95D1F708958F929F92AF92BF9265
:100BB000CF92DF92EF92FF926B017C010E94AF0512
:100BC0004B015C01C114D104E104F104B9F00E94AD
:100BD000AF05681979098A099B09683E7340810548
:100BE000910580F321E0C21AD108E108F10888EEEE
:100BF000880E83E0981EA11CB11CE4CFFF90EF90FB
:100C0000DF90CF90BF90AF909F908F9008952FB7B7
:100C1000F89460910C1170910D1180910E119091CA
:100C20000F112FBF08950895FC0120812EBD9B0157
:100C30002150310941F051810DB407FEFDCF4EB571
:100C40005EBD4193F5CF61507109860F971F0DB4BA
:100C500007FEFDCF2EB5FC0120830895E091AE1173
:100C6000F091AF1180819091AD11892B808308950F
:100C7000E091AE11F091AF1190818091AD1180950E
:100C800089238083089590E02091B011233339F4B3
:100C90000C96982F990F990F990F80E00895489618
:100CA000F8CFCF93DF931F92CDB7DEB76983DC0116
:100CB000ED91FC910280F381E02D41E050E0BE0116
:100CC0006F5F7F4F19950F90DF91CF910895CF936C
:100CD000DF931F92CDB7DEB76983DC01ED91FC9104
:100CE0000280F381E02D41E050E0BE016F5F7F4F55
:100CF00019950F90DF91CF910895FC019485FB0128
:100D00008485981303C081E0983008F080E008954E
:100D1000CF93DF931F92CDB7DEB76983DC01ED91EE
:100D2000FC910280F381E02D41E050E0BE016F5F55
:100D30007F4F19950F90DF91CF910895EF92FF9219
:100D40000F931F93CF93DF938C017B01D0E0C0E022
:100D5000F701EC0FFD1F6491662339F0C8010E9472
:100D60008806892B11F02196F3CFCE01DF91CF9128
:100D70001F910F91FF90EF900895FC018485958558
:100D80000895FC018489958908952BEB33E0FC01DB
:100D900031832083FB014089518962897389FC0179
:100DA00042835383648375830895DC01ED91FC9144
:100DB000048CF58DE02D199420919A10260F33277D
:100DC000331F21323105ECF42091E310FC0190E057
:100DD00080E0243069F082E00895A0919A1021917A
:100DE000AC0146585F4EA40FB52FB11D2C93019650
:100DF000861798F380919A10680F60939A1080E09C
:100E0000089581E008951092E31081E08093E2104C
:100E10001092BD1061E084E10E94790461E085E1F7
:100E20000E947904E9EBF0E080818E7F80838081ED
:100E30008D7F808388E48093B80085E48093BC0034
:100E40000895CF93DF9391E0909379108823B9F0C0
:100E5000C091B800D091BA008091BC008A7B809389
:100E6000BC0060E084E10E94790460E085E10E94BA
:100E700079040E940307D093BA00C093B800DF91B1
:100E8000CF910895E0911C1180911B11E81730F467
:100E9000F0E0E75AFF4E808190E008958FEF9FEFDA
:100EA000089590911C1180911B112FEF3FEF98171F
:100EB00048F4E92FF0E0E75AFF4E208130E09F5FD1
:100EC00090931C11C901089580911B1190911C11E0
:100ED000891B990B0895CF92DF92EF92FF920F93A7
:100EE0001F93CF93DF937C01CB018A012091E910FE
:100EF000222389F0EB016B01C40ED51ECC15DD0554
:100F000069F06991D701ED91FC910190F081E02D9C
:100F1000C7011995F3CF642F0E94DC06C801DF9149
:100F2000CF911F910F91FF90EF90DF90CF90089598
:100F3000CF93DF931F92CDB7DEB769832091E9107D
:100F40002223F9F020911911203258F021E030E0ED
:100F5000FC013383228390E080E00F90DF91CF91FA
:100F6000089580911A11E82FF0E0E651FF4E998123
:100F700090838F5F80931A118093191181E090E024
:100F8000ECCF61E0CE0101960E94DC06F7CFCF9254
:100F9000DF92EF92FF920F931F93CF93DF93FC01A9
:100FA000C48121E02093E910C0930A1110921A1114
:100FB000109219118385682B86E894E10E949807A6
:100FC000D0911911D13208F092C00E94AF056B0187
:100FD0007C018091E310811165C082E08093E31071
:100FE00081E08093E2108FEF8093E1101092E01087
:100FF000D093DF10AAEEB0E1EFEBF0E180E0D81380
:1010000085C01092BE108091BE10CC0FC82BC0932B
:10101000BE108091BD10813009F07CC01092BD10CF
:101020000E94AF056B017C018091BE108093BB00D4
:101030008091E5109091E610A091E710B091E81032
:10104000892B8A2B8B2B99F00E94AF050091E5101C
:101050001091E6102091E7103091E8106C197D098D
:101060008E099F090617170728073907E0F18091B5
:10107000BC0083FDD9CF85EC8093BC000E94AF05F6
:101080006B017C018091E310823009F445C08091AE
:10109000E1108F3F61F18091E110803241F1809148
:1010A000E11025C08091E5109091E610A091E71025
:1010B000B091E810892B8A2B8B2B09F48ACF0E94E0
:1010C000AF050091E5101091E6102091E7103091E6
:1010D000E8106C197D098E099F0906171707280764
:1010E000390708F076CF8091E4100E942107109212
:1010F0001A11109219111092E910DF91CF911F91DE
:101100000F91FF90EF90DF90CF9008959D91919374
:101110008F5F75CF85EEB0CF8091E5109091E6108E
:10112000A091E710B091E810892B8A2B8B2B09F442
:10113000A9CF0E94AF050091E5101091E610209113
:10114000E7103091E8106C197D098E099F09061788
:1011500017072807390708F095CFC5CF089561E034
:10116000FC0184810E9479048091531081111092B6
:10117000531008958EBD00000DB407FEFDCF8EB54F
:101180000895AF92BF92CF92DF92EF92FF920F93AA
:101190001F93CF93DF9300D000D01F921F92CDB743
:1011A000DEB78C017B016A018091B0118333E1F4D9
:1011B0005801A40EB51EA016B10609F46FC00E9416
:1011C000380680EF0E94BA08812F0E94BA08802F4B
:1011D0000E94BA080F5F1F4FF70181917F010E94A3
:1011E000BA080E942E06E7CF5B01A40EB51E843319
:1011F000C1F40E94380619830A838D2D80688B8381
:10120000CC8264E070E0CE0101960E941406AE1418
:10121000BF0409F441C0F70181917F010E94BA081F
:10122000F6CF0E9438060F3F110509F028F4198205
:101230000A8384E08B830CC017FD17C019820A83D0
:1012400033E0169507953A95E1F7007E0C600B8325
:1012500086E0C816D104A0F5F701DE011496EA1560
:10126000FB0599F081918D93FACFC80126E0969500
:1012700087952A95E1F7807E19830A830115104C22
:1012800010F48461D7CF8C61D5CFB6016D5F7F4FED
:10129000CE0101960E9414060E942E06C6012896D1
:1012A0000FB6F894DEBF0FBECDBFDF91CF911F9177
:1012B0000F91FF90EF90DF90CF90BF90AF90089587
:1012C00063E070E0CE0101960E941406F70181915F
:1012D0007F010E94BA08AE14BF04C1F7DDCFCF93DF
:1012E000DF931F92CDB7DEB7898341E050E0BE01A6
:1012F0006F5F7F4F90E080E00E94C1080F90DF9108
:10130000CF910895DA01E091B111F0E0FE2FEE27C0
:10131000E60FF71F90E0982F8827A901BD018E0FD7
:101320009F1F0C94C108CF93DF931F921F92CDB7DC
:10133000DEB779836A8322E030E0AE014F5F5F4F12
:1013400060E170E00E9482090F900F90DF91CF91D1
:101350000895CF93DF931F921F92CDB7DEB77983A5
:101360006A8322E030E0AE014F5F5F4F64E070E0DF
:101370000E9482090F900F90DF91CF910895CF9333
:10138000DF931F92CDB7DEB72091B11130E0322F3D
:101390002227260F371F90E0982F8827498341E0A6
:1013A00050E0BE016F5F7F4F820F931F0E94C10804
:1013B0000F90DF91CF9108958FEF0C94BA080F939F
:1013C0001F93CF93DF93EC010E9407068B010E94CD
:1013D000DC098F3F69F00E940706601B710B6C17D8
:1013E0007D07A8F380E0DF91CF911F910F910895C1
:1013F00081E0F9CF8CBD9DBD0895FF920F931F939F
:10140000CF93DF93EB01FC01178A168A2A81211101
:1014100009C02B81211106C02C81211103C02D810F
:10142000222301F141155105E9F08A01FC01F08CFC
:1014300080E591E00E94FA09AE014E5F5F4F24E023
:1014400030E06CE070E08F2D0E948209B8018F2D92
:101450000E94930981E090E0DF91CF911F910F915D
:10146000FF90089580E0F7CFCF93DF93EC01809158
:101470005310811109C081E0809353108091921420
:10148000909193140E94FA0960E08C81DF91CF91D2
:101490000C9479048F929F92AF92BF92FF920F9318
:1014A0001F93CF93DF93EC01F62E49015A018E81F1
:1014B000882389F08F8198859C012F5F3F4F388763
:1014C0002F838230924018F40E94DC09F3CFCE01C2
:1014D0000E94AF081E82CE010E94340A8CE291E085
:1014E0000E94DF098F2D80640E94BA0808E110E095
:1014F000D501C401002E04C0B695A7959795879590
:101500000A94D2F70E94BA0808501109083F8FEFD9
:10151000180771F785E9FF2021F028E087E8F2122B
:101520008FEF0E94BA0810E00E94DC098A8787FFCB
:1015300004C01F3F11F01F5FF7CFDF91CF911F91C4
:101540000F91FF90BF90AF909F908F900895AF92B2
:10155000BF92CF92DF92EF92FF920F931F93CF93A0
:10156000DF93EC016901C801820F931F8130924023
:1015700050F58E81882379F088819981AA81BB8179
:1015800084179507A607B70731F48F819885C81689
:10159000D90608F042C0488359836A837B838B85D0
:1015A000833039F089E0440F551F661F771F8A95F5
:1015B000D1F79A01AB0161E1CE010E944A0A88236A
:1015C00089F083E08D83CE010E94AF0880E0DF9137
:1015D000CF911F910F91FF90EF90DF90CF90BF9030
:1015E000AF9008950E9407065B010E94DC098A877C
:1015F0008F3F69F40E9407066A197B096D327140BA
:10160000A0F38FE08D83CE010E94AF08DCCF8E3F28
:1016100089F418861F8281E08E838F8198858C15CE
:101620009D0550F40E94DC098F819885019698876A
:101630008F83F3CF8DE0E6CF6701E00EF11E0E94AD
:10164000DC09F60181936F01EE15FF05C1F78F816B
:101650009885080F191F18870F838985882319F02B
:1016600001151240A0F08E81882389F08F81988522
:101670009C012F5F3F4F38872F838230924018F4B0
:101680000E94DC09F3CFCE010E94AF081E8281E0E8
:101690009ECFCF92DF92EF92FF920F93CF93DF9383
:1016A000EC01690182E1411551056105710599F06F
:1016B0008B85833039F089E0440F551F661F771FF3
:1016C0008A95D1F79A01AB0168E1CE010E944A0ADE
:1016D000882319F084E08D832DC08EEF0E94BA0814
:1016E00076018EEFD81AF70181917F010E94BA0826
:1016F000EC14FD04C1F78FEF0E94BA088FEF0E942F
:10170000BA080E94DC098A878F71853071F4011153
:1017100016C0CE010E94AF0881E0DF91CF910F91FA
:10172000FF90EF90DF90CF90089581E18D83CE01FF
:101730000E94AF08CE010E94AF0880E0EECF88E59E
:1017400092E00E94DF09811102C085E1C4CF20E050
:1017500030E0A9016DE0CE010E944A0A882311F011
:1017600084E1B9CF0E94DC098111FACFD2CF0F9367
:10177000409155105091561060915710709158102B
:10178000411551056105710599F0082F23EB31E1F1
:101790008091AB119091AC110E94490B882349F0C4
:1017A0001092551010925610109257101092581017
:1017B00081E00F9108950F93CF93C82F809154101B
:1017C000811105C0C1E08C2FCF910F9108954091F8
:1017D00065025091660260916702709168020C2F59
:1017E00023EB31E18091AB119091AC110E94490B38
:1017F000811102C0C0E0E7CFCC2321F381E00E9439
:10180000B70B8823B9F310925410DDCF8F929F92BB
:10181000AF92BF92EF92FF920F931F93CF934B0122
:101820005C01C42F8091650290916602A0916702CD
:10183000B091680288159905AA05BB0551F181E0B0
:101840000E94DB0B81110BC080E0CF911F910F91A3
:10185000FF90EF90BF90AF909F908F90089583EB93
:10186000E82E81E1F82E00E012E030E020E0B50142
:10187000A4018091AB119091AC110E94A70A88231A
:1018800019F38092650290926602A0926702B0926C
:101890006802409154104C2B4093541081E0D5CFF6
:1018A000CF93DF93EC016E857F858889998941E02C
:1018B0000E94060C882351F08A8920E2829FC00191
:1018C00011248D549E4EDF91CF91089590E080E0D9
:1018D000FACF8F929F92AF92BF92CF92DF92EF9208
:1018E000FF92CF9324E934E13093AC112093AB11F4
:1018F000882309F46DC040E060E070E0CB010E94F5
:10190000060C81110BC080E0CF91FF90EF90DF902B
:10191000CF90BF90AF909F908F900895809171135A
:101920008F7789F780917D1390917E13A0917F131B
:10193000B091801384369105A105B10520F3C090C4
:101940007913D0907A13E0907B13F0907C13C1143C
:10195000D104E104F104B9F240E0C701B6010E94EC
:10196000060C882381F28091BE119091BF118115E0
:10197000924049F6A091C311AA2329F26091C111A6
:101980007091C2116115710509F4BDCF2091C0118C
:10199000222309F4B8CFA093B2142093A41490E0AA
:1019A00080E030E0E1E0F0E0C82FAF01082E02C097
:1019B000440F551F0A94E2F72417350769F041E0F8
:1019C000480F01968930910579F74093AD149BCF6C
:1019D000C12CD12C7601C0CF8093AD142091C911B8
:1019E0003091CA1150E040E02115310541F42091B9
:1019F000D7113091D8114091D9115091DA1120931B
:101A0000A5143093A6144093A7145093A81446012C
:101A10005701860E971EA11CB11C8092B3149092A0
:101A2000B414A092B514B092B614E091C411F09120
:101A3000C511F093B914E093B814B0E00E9430508F
:101A4000DC01CB01880D991DAA1DBB1D8093BA1422
:101A50009093BB14A093BC14B093BD1425E0EE0F7B
:101A6000FF1F2A95E1F7E150FE4FEF2FFF27E69584
:101A70008E0F9F1FA11DB11D8093AE149093AF14C4
:101A8000A093B014B093B1148090C6119090C71178
:101A9000B12CA12C8114910441F48090D311909029
:101AA000D411A090D511B090D611C81AD90AEA0A5B
:101AB000FB0AC80CD91CEA1CFB1C04C0F694E79472
:101AC000D794C794CA95D2F7C092A914D092AA14F9
:101AD000E092AB14F092AC1485EFC8168FE0D806F4
:101AE000E104F10428F48CE08093B71481E00CCF7A
:101AF00080E125EFC2162FEFD206E104F104A0F336
:101B00008091DF119091E011A091E111B091E2116B
:101B10008093BA149093BB14A093BC14B093BD14DB
:101B200080E2E2CF4F925F926F927F928F929F926C
:101B3000AF92BF92CF92DF92EF92FF920F931F93DB
:101B4000CF93DF93EC01423051056105710590F4AC
:101B500080E0DF91CF911F910F91FF90EF90DF9088
:101B6000CF90BF90AF909F908F907F906F905F903D
:101B70004F90089589859A85AB85BC850196A11DF6
:101B8000B11D84179507A607B70710F3CB88DC882B
:101B9000ED88FE888F89803109F042C0BB27A72FCE
:101BA000962F852F480159012A013B01C80ED91EE5
:101BB000EA1EFB1E8091650290916602A091670269
:101BC000B0916802C816D906EA06FB0699F58F8916
:101BD0008031C1F5B301A201552766277727440F4D
:101BE000551F4D545E4EFA019182808280915410AF
:101BF0008160809354108A89823080F08D819E812B
:101C0000AF81B8858C0D9D1DAE1DBF1D80935510F5
:101C100090935610A0935710B093581081E099CF2D
:101C2000DB01CA01E7E0B695A79597958795EA95F8
:101C3000D1F7B8CF40E0C701B6010E94060C811170
:101C4000C6CF86CFB301A2014F77552766277727E6
:101C5000440F551F440F551F4D545E4EFA018082AC
:101C60009182A282B382C2CF8F929F92AF92BF9293
:101C7000CF92DF92EF92FF920F931F93CF93DF9358
:101C8000FC0181859285A385B4850196A11DB11DB6
:101C900084179507A607B70770F480E0DF91CF910E
:101CA0001F910F91FF90EF90DF90CF90BF90AF907A
:101CB0009F908F90089583889488A588B688878997
:101CC000803189F5BB27A72F962F852FE9016A015F
:101CD0007B018F01BC01CD01680D791D8A1D9B1D03
:101CE0008090650290906602A0906702B0906802B2
:101CF00086169706A806B90601F5F801878980318E
:101D000011F5DD24EE24FF24F601EE0FFF1FED5444
:101D1000FE4E80819181B0E0A0E088839983AA8300
:101D2000BB8381E0BBCFDB01CA01C7E0B695A795B5
:101D300097958795CA95D1F7C9CF40E00E94060CC8
:101D40008111DBCFAACFE894C7F8DD24EE24FF246D
:101D5000F601EE0FFF1FEE0FFF1FED54FE4E8081C8
:101D60009181A281B381BF70D8CF4F925F926F9261
:101D70007F92AF92BF92CF92DF92EF92FF920F933A
:101D80001F93CF93DF9300D01F92CDB7DEB78C01A6
:101D900049835A836B837C835901C12CD12C7601F2
:101DA000412C82E0582E612C712C49815A816B8123
:101DB0007C819E012F5F3F4FC8010E94340E882313
:101DC00039F1F8018585A301920104C0220F331F68
:101DD000441F551F8A95D2F7DA01C901C80ED91ED2
:101DE000EA1EFB1E49815A816B817C818789803183
:101DF00011F188EF9FEFAFEFBFE0481759076A076F
:101E00007B0798F2F501C082D182E282F38281E001
:101E10000F900F900F900F90DF91CF911F910F9126
:101E2000FF90EF90DF90CF90BF90AF907F906F903A
:101E30005F904F90089588EF9FEFA0E0B0E0DDCF76
:101E4000CF93DF93FC012581222321F080E0DF91F5
:101E5000CF910895EC018091B714803159F582E05B
:101E60008583178A108E118E128E8091B8149091EE
:101E7000B914B0E0A0E025E0880F991FAA1FBB1F8E
:101E80002A95D1F7838B948BA58BB68B80EA94E14E
:101E90009C8F8B8F81E08C831E821F82188619860F
:101EA0001A861B861C861D861E861F86188A198A1E
:101EB0001A8ACDCF803251F683E085834091BA14DF
:101EC0005091BB146091BC147091BD14478B508F1E
:101ED000618F728F9F012D5E3F4F80EA94E10E94D7
:101EE000B50E8111D3CFB2CF8F929F92AF92BF9296
:101EF000CF92DF92EF92FF920F931F93CF93DF93D6
:101F0000EC018D8181110EC080E0DF91CF911F9196
:101F10000F91FF90EF90DF90CF90BF90AF909F9088
:101F20008F9008950B891C892D893E890417150708
:101F30002607370748F34A015B01823031F48A866D
:101F40009B86AC86BD8681E0E0CF81149104A1041C
:101F5000B10449F41E821F82188619861A861B86D0
:101F60001C861D86F0CF0A851B852C853D85EB8D53
:101F7000FC8D858590E00996B901A8014150510971
:101F800061097109082E04C07695679557954795A4
:101F90000A94D2F775016401E1E0CE1AD108E10894
:101FA000F10804C0F694E794D794C7948A95D2F7C1
:101FB000C416D506E606F70620F0012B022B032BEC
:101FC00011F58F89988DA98DBA8D8E839F83A887EF
:101FD000B9878E010A5F1F4FC114D104E104F104D7
:101FE00009F4ADCF4E815F816885798598018B8D2D
:101FF0009C8D0E94340E91E0C91AD108E108F108C5
:102000008111EACF81CFC41AD50AE60AF70AE1CFD7
:102010003F924F925F926F927F928F929F92AF9278
:10202000BF92CF92DF92EF92FF920F931F93CF93C5
:10203000DF93CDB7DEB72C970FB6F894DEBF0FBE97
:10204000CDBF5C01DC015B968D909C905C971696F1
:102050004D905D906D907C901997411451046104EE
:10206000710409F468C0BFEF4B1A5B0A6B0A7B0A64
:10207000312CF40181859285A385B4859C01AD0145
:102080002F5F3F4F4F4F5F4F29873A874B875C87C2
:10209000730162011D821E821F821886F4018185F0
:1020A0009285A385B4852D813E814F81588528175F
:1020B00039074A075B0708F056C089859A85AB85C2
:1020C000BC858C159D05AE05BF0550F482E0C82E79
:1020D000D12CE12CF12C92E0492E512C612C712C49
:1020E0009E012F5F3F4FB701A601C4010E94340E2D
:1020F0008823C9F189819A81AB81BC81892B8A2B84
:102100008B2B09F1260137019FEF491A590A690AF9
:10211000790A2D813E814F8158852F5F3F4F4F4F68
:102120005F4F2D833E834F8358873FEFC31AD30AF7
:10213000E30AF30AB3CFF4014080518062807380D8
:102140003324339496CFC414D504E604F70409F776
:102150000FEF1FEF2FEF3FE0B701A601C4010E9470
:10216000920D811119C080E02C960FB6F894DEBF55
:102170000FBECDBFDF91CF911F910F91FF90EF90D8
:10218000DF90CF90BF90AF909F908F907F906F9097
:102190005F904F903F900895D50116964D915D91B7
:1021A0006D917C911997411551056105710539F0C3
:1021B00097018601C4010E94920D8823A1F2D501E6
:1021C0001696CD92DD92ED92FC921997332051F044
:1021D000D701C6010196A11DB11DF4018083918331
:1021E000A283B383F5018789908DA18DB28D892B50
:1021F0008A2B8B2B39F48481C78AD08EE18EF28EA4
:1022000080688483F50184818062848381E0ACCF1F
:102210002F923F924F925F926F927F928F929F92F6
:10222000AF92BF92CF92DF92EF92FF920F931F93E4
:10223000CF93DF93EC015B012A018D81811115C0E1
:102240008FEF9FEFDF91CF911F910F91FF90EF9054
:10225000DF90CF90BF90AF909F908F907F906F90C6
:102260005F904F903F902F9008958C8180FFE8CF32
:102270000B891C892D893E894A855B856C857D8506
:10228000C201B0E0A0E068017901C41AD50AE60AEB
:10229000F70AC816D906EA06FB0618F42801441AFC
:1022A000550A42011E0126E0220E311C81149104C0
:1022B00009F4B3C04A855B856C857D856A0181E040
:1022C000D8228B8D9C8D8A019B01E9E0369527955C
:1022D00017950795EA95D1F7ED81E230E1F5FC011C
:1022E000628D738D848D958D600F711F821F931F7A
:1022F000612C22E0722E6C187D088614970408F475
:1023000034012C8126FD04C06114F2E07F0671F4D3
:102310000091650210916602209167023091680277
:10232000061717072807390709F053C040E00E9435
:10233000060C882309F484CFC6018D549E4ED50126
:102340009C01260D371DFC012E173F0709F460C0C4
:1023500041914D93F9CFFC0174807A947022C1149D
:10236000D10471F471100CC0452B462B472B39F565
:102370008F89988DA98DBA8D8E839F83A887B98701
:10238000EB8DFC8D6E817F81888599856250710906
:1023900081099109258504C0660F771F881F991F41
:1023A0002A95D2F70685178520893189600F711F1C
:1023B000821F931F670D711D811D911D99CF4E8145
:1023C0005F816885798591010E94340E8111D8CF93
:1023D00037CF750183019601AB01BC018091AB1130
:1023E0009091AC110E94A70A882309F429CFA60C6A
:1023F000B71C8A859B85AC85BD85860D971DA11D63
:10240000B11D8A879B87AC87BD87861897084ECFFA
:10241000281B390BA20EB31EECCFC20113CF1F93A2
:10242000CF93DF93FC012581222371F1162FEC015C
:10243000848187FF1EC0CF010E94500CFC01892BB4
:1024400019F18D81823040F48B899C89AD89BE89D8
:10245000848F958FA68FB78F8F89988D938F828F5A
:102460008F89988DA98DBA8DB58BA48B8C818F7730
:102470008C83111103C08C818F7E8C83812FDF911F
:10248000CF911F910C94DB0B80E0DF91CF911F91D6
:102490000895FF920F931F93CF93DF93EC018D81EB
:1024A000813041F090E080E0DF91CF911F910F915A
:1024B000FF9008958C8181FFF5CF82FD1BC00091B4
:1024C000AB111091AC11C8010E94340A0E94DC09C2
:1024D000F82EC8010E94AF088FEFF812E3CF8C816D
:1024E00085FF1BC060E0CE010E940F128C818F7DA2
:1024F0008C83D8CF4B895C896D897E898A859B8541
:10250000AC85BD8584179507A607B707C1F2CE0134
:102510000E94740F8111D3CFC5CF409155105091B7
:1025200056106091571070915810452B462B472B31
:1025300021F080E00E94B70BB5CF80618C832A85A3
:102540003B85317080E092E0821B930BADCFCF933F
:10255000DF93EC0161E00E940F12882311F01D82CD
:1025600081E0DF91CF9108952F923F924F925F9239
:102570006F927F928F929F92AF92BF92CF92DF9293
:10258000EF92FF920F931F93CF93DF9300D01F9290
:102590001F92CDB7DEB77C015B01342E5D83DC0179
:1025A00015968C911597813009F0CEC014962C9019
:1025B00021FECAC022FCB4C0C32CDD8022947FE07F
:1025C00027222094B22DB1702B2ED7011A964D914F
:1025D0005D916D917C911D97C114D10409F428C1BE
:1025E0005B968D919C915C97FC0174807A948A0132
:1025F0009B0169E036952795179507956A95D1F760
:1026000070228A011170711020C001151105E9F4C2
:1026100016964D915D916D917C91199741155105DB
:102620006105710509F099C057968D919D910D90A6
:10263000BC91A02D0097A105B10509F0B0C0C7015C
:102640000E940810882309F47FC080E092E0801B7C
:10265000910B46018C159D0508F44C01D7015B9642
:102660004D915C915C9716968D919D910D90BC91CA
:10267000A02D0297A109B109FA01258504C0880F90
:10268000991FAA1FBB1F2A95D2F7468557856089D7
:102690007189840F951FA61FB71F9C01AD01270DDF
:1026A000311D411D511D29013A01811432E093066B
:1026B00009F07BC08091650290916602A09167024B
:1026C000B091680284159505A605B70559F48FEFFA
:1026D0009FEFDC018093650290936602A0936702EE
:1026E000B0936802022D9501B301A2018091AB1154
:1026F0009091AC110E94490B882331F19EEFB91AD9
:10270000C818D908F70182859385A485B585880DF9
:10271000991DA11DB11D82879387A487B58755CFC9
:10272000F701438954896589768982859385A485D3
:10273000B585481759076A077B0709F43DCFC701DC
:102740000E94740F811138CF81E090E0D701139679
:102750009C938E93129780E007C09E012F5F3F4F9E
:102760000E94340E811102C090E079C089819A8163
:10277000AB81BC81F701238D348DF901278948EFA6
:102780005FEF60E070E0203121F048EF5FEF6FEF26
:102790007FE084179507A607B70708F050CFF70129
:1027A00086839783A087B18750CF0115110599F5CE
:1027B000D7011A964D915D916D917C911D9753961D
:1027C0008D919D910D90BC91A02D481759076A07D6
:1027D0007B0708F181E00E94DB0B882309F4B4CF6A
:1027E000409265025092660260926702709268029F
:1027F00080915410816080935410C8018D549E4E76
:10280000D5019C01280D391DFC012E173F0759F0F9
:102810004D914193FACF41E0C301B2010E94060CF1
:102820008111EBCF91CF281B390BA20EB31E68CFBD
:10283000F70183899489A589B68984179507A60726
:10284000B70738F48481438B548B658B768B806813
:102850008483F701848183FD1AC0832D9D810F90AD
:102860000F900F900F900F90DF91CF911F910F91CC
:10287000FF90EF90DF90CF90BF90AF909F908F90A0
:102880007F906F905F904F903F902F90089561E000
:10289000C7010E940F12882309F456CFDECFCF93D1
:1028A000DF931F92CDB7DEB7698341E050E0BE01F0
:1028B0006F5F7F4F0E94B4120F90DF91CF91089508
:1028C000FC01DB0112968D919C9113979383828377
:1028D00083E693E09183808314968C91149784838C
:1028E00015968C911597858316964D915D916D91F6
:1028F0007C91199746835783608771871A964D910B
:102900005D916D917C911D97428753876487758790
:102910001E964D915D916D917C9151974687578799
:10292000608B718B52968C915297828B53964D91FE
:102930005D916D917C915697438B548B658B768B13
:1029400057964D915D916D917C915A97478B508F21
:10295000618F728F5B968D919C91948F838F089578
:10296000DC015996ED91FC91309721F081E0958141
:10297000911101C080E00895FC01818D928D009736
:1029800019F061E00C940F120895DC015996ED9155
:10299000FC913097B9F083899489A589B6894285DD
:1029A000538564857585841B950BA60BB70B811524
:1029B00020E89207A105B10538F08FEF9FE7A0E06E
:1029C000B0E0089590E080E00895DC0159968D9183
:1029D0009C91009739F0DC01ED91FC910480F58128
:1029E000E02D199490E080E00895CF93DF93EC01FF
:1029F000E98DFA8D309749F481E090E09B838A83DA
:102A000090E080E0DF91CF91089513821282898D4A
:102A10009A8D0E94B412E98DFA8D22813381232B85
:102A200059F7F0CFCF93DF931F92CDB7DEB769830D
:102A3000DC01ED91FC910280F381E02D41E050E05A
:102A4000BE016F5F7F4F19950F90DF91CF91089571
:102A5000CF93DF931F92CDB7DEB741E050E0BE01C8
:102A60006F5F7F4F0E940811019731F4898190E0D8
:102A70000F90DF91CF9108958FEF9FEFF9CFFC0179
:102A8000818D928D009711F00C9428158FEF9FEF98
:102A900008950F931F93CF93DF93EC01898D9A8D47
:102AA00010E000E0009799F00E9428158C010F3F7C
:102AB000100769F0898D9A8DFC01428553856485E4
:102AC000758541505109610971090E94740FC8014F
:102AD000DF91CF911F910F910895CF93CFB7F894C5
:102AE00080915210811127C0EAE1F4E08491EAEB71
:102AF000F3E09491E82FF0E0EE0FFF1FE55FFC4F4D
:102B0000A591B491EC91E92321F461E085E30E9461
:102B1000790461E085E30E94A7048CB580618CBDD7
:102B20008CB580648CBD61E084E30E94A70461E001
:102B300083E30E94A704809152108F5F809352100C
:102B4000CFBFCF910895CF93DF93C3E0D3E08881C7
:102B5000229660E00E94790483E0C331D807B9F778
:102B6000C3E1D3E08881229670E060E00E94D8043F
:102B700083E0C732D807B1F760E08FE1DF91CF91F2
:102B80000C947904CF93DF938AE10E945004892B3F
:102B900061F06EE571E080E090E00E94D405D0E045
:102BA000C0E0CE01DF91CF91089588E10E945004EA
:102BB000892B49F06EE571E080E090E00E94D40539
:102BC000C1E0D0E0EECF86E10E945004892B49F0AD
:102BD0006EE571E080E090E00E94D405C2E0D0E0B4
:102BE000E0CF8CE10E945004892B49F06EE571E042
:102BF00080E090E00E94D405C3E0D0E0D2CF8EE127
:102C00000E945004892B69F26EE571E080E090E04B
:102C10000E94D405C6CFFC01DB0112968D919C91D8
:102C200013979383828314964D915D916D917C915E
:102C30001797448355836683778318964D915D91EA
:102C40006D917C911B9740875187628773878FE6D0
:102C500093E0918380831C968C911C9784871D96AA
:102C60008D919C91968785870895FC01768765876D
:102C70000895DC01ED91FC91068CF78DE02D1995FE
:102C800091E089270895862F089581E08627089589
:102C900021E0FC018485883008F020E0822F08952F
:102CA00090E080E008958F929F92AF92BF92CF9272
:102CB000DF92EF92FF920F931F93CF93DF9300D099
:102CC0001F92CDB7DEB7FC018581813091F080E0A5
:102CD0000F900F900F900F90DF91CF911F910F9158
:102CE000FF90EF90DF90CF90BF90AF909F908F902C
:102CF0000895848181FFEBCF83899489A589B68962
:102D0000892B8A2B8B2B09F45FC07F0140E050E0B8
:102D1000BA01CF010E94740F8823C9F2F701C38C56
:102D2000D48C8788908CA18CB28C82E090E0A0E05B
:102D3000B0E0F60180839183A283B3839E012F5F6D
:102D40003F4FB501A401C6010E94340E882309F447
:102D5000BECF00E010E09801B501A401C6010E94B9
:102D6000920D882309F4B3CF89809A80AB80BC8010
:102D7000F6018789803119F188EF9FEFAFEFBFE04F
:102D800088169906AA06BB06C8F2F701178A108EA4
:102D9000118E128E138A148A158A168A848180688D
:102DA000848361E0C7010E940F12882309F48FCF4A
:102DB00040E050E0BA01C7010E94740F89CF88EF4C
:102DC0009FEFA0E0B0E0DCCF81E082CFCF92DF9236
:102DD000EF92FF921F93CF93DF93EC0180E2689F05
:102DE000F0011124ED54FE4E9385917161F0842F12
:102DF000827449F080E0DF91CF911F91FF90EF90B6
:102E0000DF90CF900895142F6A8B80916502909186
:102E10006602A0916702B09168028E879F87A88B97
:102E2000B98BC488D588F12CE12C7601DD24CC2423
:102E3000CF8AD88EE98EFA8E828D938DB0E0A0E095
:102E4000AC01BD014C295D296E297F294F8B588F1C
:102E5000698F7A8F83858871B1F4848D958DA68D65
:102E6000B78D8B8B9C8BAD8BBE8B81E08D831F7060
:102E70001C831E821F82188619861A861B861C8652
:102E80001D8681E0B8CF803109F0B4CF9E012D5E60
:102E90003F4F8B8D9C8D0E94B50E882309F4AACFDD
:102EA00084E0E4CF0F931F93CF938C01C62F0E9431
:102EB000C7076C2F6460C8010E94C7076C2F6B7F27
:102EC000C8010E94C70783EC90E00197F1F7CF910A
:102ED0001F910F9108950F931F93CF93DF938C0150
:102EE000D62FC42F607F642B0E94521780E1D89F99
:102EF000B00111246C2BC801DF91CF911F910F916C
:102F00000C945217CF93DF9300D000D01F921F92E2
:102F1000CDB7DEB798E0EFE8F2E0DE011196019060
:102F20000D929A95E1F790912115961710F46FEF95
:102F3000690F262F30E0220F331F41E050E04C0F85
:102F40005D1F240F351FF9016081680F606840E044
:102F500089E195E128960FB6F894DEBF0FBECDBF8C
:102F6000DF91CF910C946B1740E061E089E195E12E
:102F70000E946B178BE39FE10197F1F7089541E001
:102F80000E946B1781E090E00895CF93DF9320912A
:102F9000FC143091FD14232B89F0FC01C091F8142E
:102FA000D091F91460817181CE010E94795300970C
:102FB00029F08C1B9D0BDF91CF9108958FEF9FEF30
:102FC000FACF0E943653FB0101900020E9F73197B8
:102FD000AF01461B570BDC01ED91FC910280F381A0
:102FE000E02D19948F929F92AF92BF92EF92FF9231
:102FF0000F931F93CF93DF93CDB7DEB7A1970FB693
:10300000F894DEBF0FBECDBF7C01FA01CB0119A23F
:10301000223008F42AE08E010F5D1F4F822E912C82
:10302000B12CA12CBF01A50194010E944350F901CC
:10303000CA016A300CF5605DD8016E938D01232BB7
:10304000242B252B79F790E080E0109721F0BD012B
:10305000C7010E94E317A1960FB6F894DEBF0FBE1A
:10306000CDBFDF91CF911F910F91FF90EF90BF9057
:10307000AF909F908F900895695CDECFCF92DF92E2
:10308000EF92FF920F931F93CF93DF936B01770F14
:10309000EE08FF08F7FE1BC0EC016DE20E94A002E3
:1030A0008C0144275527BA014C195D096E097F0927
:1030B0002AE0CE010E94F217800F911FDF91CF917D
:1030C0001F910F91FF90EF90DF90CF9008952AE02D
:1030D000B701A601DF91CF911F910F91FF90EF9063
:1030E000DF90CF900C94F2178F929F92AF92BF9285
:1030F000CF92DF92EF92FF920F931F93CF93DF93C4
:103100007C018B016C0182E0C80ED11C4701E5E017
:103110008E0E911CD0E0C0E0F60141916F0150E0AD
:1031200070E060E02AE0C8010E94F2175C016EE2E4
:10313000C8010E94A0028A0D9B1DC80FD91FC81488
:10314000D90451F7F701458150E070E060E02AE0D2
:10315000C8010E94F2178C0F9D1FDF91CF911F9124
:103160000F91FF90EF90DF90CF90BF90AF909F9026
:103170008F9008956DEC73E00C94E317CF93DF9379
:10318000BC0183EB93E10E94A702EC0183EB93E186
:103190000E94BA188C0F9D1FDF91CF910895CF9395
:1031A000DF93BC0183EB93E10E943E18EC0183EBBB
:1031B00093E10E94BA188C0F9D1FDF91CF91089563
:1031C000CF93DF93AB01BC012AE083EB93E10E9434
:1031D000F217EC0183EB93E10E94BA188C0F9D1F4C
:1031E000DF91CF9108950F931F93CF93DF93EC015D
:1031F0000E94E3178C01CE010E94BA18800F911F24
:10320000DF91CF911F910F9108950C94E317809156
:10321000471163E0882349F080E00E94821760ED47
:1032200073E089E195E10C94051980E00E94821712
:1032300068ED73E0F6CF4F925F926F927F928F921C
:103240009F92AF92BF92CF92DF92EF92FF920E9435
:1032500007190E9407064B015C0161E084E20E94AD
:1032600079040E940706681979098A099B09603662
:103270007A4E8105910528F486E20E945004019758
:1032800081F30E9407066B017C010E9407062B0157
:103290003C01481859086A087B0860E084E20E94F3
:1032A000790480E648168AEE58066104710400F13C
:1032B00062E080E00E94821760EE73E089E195E1B0
:1032C0000E94051962E080E00E94821765EF73E0BA
:1032D00089E195E1FF90EF90DF90CF90BF90AF90A4
:1032E0009F908F907F906F905F904F900C940519F6
:1032F000C818D908EA08FB0862E080E00E9482173B
:1033000061E074E089E195E10E94051962E089E0DD
:103310000E9482172AE0B701A601F7FE0DC06DE2F8
:1033200089E195E10E94A00244275527BA014C1972
:103330005D096E097F092AE089E195E10E94F21793
:1033400068EA74E0C5CF0E94B41766E174E089E1D1
:1033500095E10E94051980913D1160E0882349F0B4
:1033600081E10E94821761E274E089E195E10C94A9
:10337000051982E10E94821765E274E0F6CFCF93CF
:10338000DF93EC01662341F00E94B41768E274E019
:1033900089E195E10E94051961E080E00E948217B1
:1033A000BE0189E195E10E943E18C83ED34044F435
:1033B00063EF73E089E195E1DF91CF910C940519FA
:1033C000DF91CF910895CF93DF93EC010E94B41762
:1033D0006BE374E089E195E10E94051961E080E00A
:1033E0000E948217BE0189E195E1DF91CF910C9493
:1033F0003E18CF93DF93EC010E94B4176EE774E0A0
:1034000089E195E10E940519209751F460E083E17C
:103410000E9482176AE474E089E195E10E9405192F
:1034200061E080E00E94821763EC74E089E195E13D
:103430000E940519C130D10551F461E083E10E9479
:1034400082176AE474E089E195E10E94051962E05F
:1034500080E00E94821760ED74E089E195E10E94AE
:103460000519C230D10551F462E083E10E94821750
:103470006AE474E089E195E10E94051963E080E067
:103480000E94821764EF74E089E195E10E940519BA
:10349000239761F463E083E10E9482176AE474E099
:1034A00089E195E1DF91CF910C940519DF91CF91DE
:1034B0000895CF93DF93EC010E94B4176CE474E09D
:1034C00089E195E10E940519209751F460E083E1BC
:1034D0000E9482176AE474E089E195E10E9405196F
:1034E0008091601190916111892B09F046C061E0D3
:1034F00080E00E94821768E574E089E195E10E940E
:103500000519C130D10551F461E083E10E948217B1
:103510006AE474E089E195E10E94051962E080E0C7
:103520000E94821768E274E089E195E10E94051922
:10353000C230D10551F462E083E10E9482176AE44F
:1035400074E089E195E10E94051963E080E00E9442
:10355000821767E674E089E195E10E9405192397D7
:1035600061F463E083E10E9482176AE474E089E118
:1035700095E1DF91CF910C940519DF91CF910895DA
:1035800080916011909161118130910509F480C0A2
:103590001CF4892B49F008958230910509F47DC00F
:1035A000039709F48EC008950E94B41761E774E090
:1035B00089E195E10E94051961E080E00E9482178F
:1035C00066E874E089E195E10E9405198091331164
:1035D000909134110A9734F463EF73E089E195E137
:1035E0000E940519609133117091341189E195E1C0
:1035F0000E943E1862E080E00E94821769E974E050
:1036000089E195E10E9405198091790290917A02F1
:10361000A0917B02B0917C02883E9340A105B10548
:1036200030F463EF73E089E195E10E940519409160
:10363000790250917A0260917B0270917C022AE0BB
:1036400089E195E10E94F21767EA74E089E195E16A
:103650000E94051963E080E00E9482176BEA74E023
:1036600089E195E10E94051980913D1163E088236D
:1036700049F081E10E94821761E274E089E195E1FD
:103680000C94051982E10E9482176AEB74E0F6CF70
:103690000E94B4176DEB74E0F1CF0E94B4176AEC8E
:1036A00074E089E195E10E94051961E080E00E94E3
:1036B00082176FED74E089E195E10E9405190C9481
:1036C00007190E94B4176EEE74E0EBCF0F931F93AF
:1036D000CF93DF938C01EB01FC01808191810097F6
:1036E000E1F06881798161157105A9F0428153810A
:1036F0002C813D814217530770F00E9463538C81E7
:103700009D81F801958384831D821C82DF91CF9176
:103710001F910F9108950E94CC5188819981F801E1
:10372000918380838A819B81938382838C819D8115
:1037300095838483198218821B821A82E5CFCF93E6
:10374000DF93EC0188819981009711F00E94CC51A0
:10375000198218821D821C821B821A82DF91CF91EE
:103760000895FC0180819181009711F00C94CC5157
:103770000895CF93DF93EC01898D9A8D009741F0E6
:103780000E94A712898D9A8D0E94CC511A8E198E93
:10379000DF91CF9108950F931F93CF93DF93EC01A7
:1037A00088819981009759F02A813B812617370734
:1037B00030F081E0DF91CF911F910F9108958B013F
:1037C0006F5F7F4F0E945552009759F0998388830D
:1037D0001B830A832C813D81232B59F7FC01108226
:1037E000E8CF80E0E7CFEF92FF920F931F93CF9344
:1037F000DF93FB0101900020E9F73197E61BF70BFF
:10380000E1F07B018C01DC011496CD91DC91CE0FAF
:10381000DF1FBE010E94CB1B882381F0F8012081AD
:10382000318184819581B701820F931F0E94635378
:10383000D8011596DC93CE93149781E0DF91CF9158
:103840001F910F91FF90EF900895EF92FF920F93C9
:103850001F93CF93DF931F921F92CDB7DEB78C01DA
:1038600069831A82FC01E480F580FFEFEF1AFF0AFA
:10387000B7010E94CB1B882381F0F80120813181A0
:1038800084819581BE016F5F7F4F820F931F0E94DD
:103890006353F801F582E48281E00F900F90DF918D
:1038A000CF911F910F91FF90EF900895EF92FF92AB
:1038B0000F931F93CF93DF93EC017B018A01BA0131
:1038C0000E94CB1B81110BC0CE010E949F1BCE0119
:1038D000DF91CF911F910F91FF90EF9008951D837D
:1038E0000C83B701888199810E946353F0CFFB015B
:1038F00001900020E9F73197AF01461B570B0C945C
:10390000561C0F931F93CF93DF93CDB7DEB762970B
:103910000FB6F894DEBF0FBECDBF8C01CB01F8010E
:103920001182108213821282158214824AE0BE0133
:103930006F5F7F4F0E94F74CBE016F5F7F4FC801E2
:103940000E94771C62960FB6F894DEBF0FBECDBF03
:10395000DF91CF911F910F910895FC011182108288
:103960001382128215821482FB0101900020E9F774
:103970003197AF01461B570B0C94561CCF92DF9228
:10398000EF92FF920F931F93CF93DF936C017B0114
:103990008A014617570720F48F2D7A01062F182F1A
:1039A0006FEC73E0C6010E94AD1CC091FC14D09175
:1039B000FD14EC16FD06F8F40C171D0708F4E801D9
:1039C000E091F814F091F914EC0FFD1F10811082B2
:1039D0006091F8147091F9146E0D7F1DC601611588
:1039E000710599F00E94771C8091F8149091F91458
:1039F000C80FD91F1883C601DF91CF911F910F9176
:103A0000FF90EF90DF90CF9008950E949F1BECCF26
:103A1000AF92BF92CF92DF92EF92FF920F931F93DC
:103A2000CF93DF9300D01F92CDB7DEB78C016B012F
:103A30007A018091B0118333E9F45B016801C40E0F
:103A4000D51EC016D106A9F10E9438068FE00E944B
:103A5000BA08812F0E94BA08802F0E94BA080F5F0F
:103A60001F4F80E00E94BA08F50181935F010E9418
:103A70002E06E7CF843369F50E94380619830A833E
:103A80008F2D8F778B83EC8264E070E0CE010196FE
:103A90000E941406A70170E060E0C6010E94515325
:103AA000E114F10421F0B701C6010E9414060E943E
:103AB0002E06C7010F900F900F900F90DF91CF91BE
:103AC0001F910F91FF90EF90DF90CF90BF90AF903C
:103AD00008950E9438060F3F110509F030F419824D
:103AE0000A831B8263E070E0D1CF17FD0BC01982FF
:103AF0000A8333E0169507953A95E1F7007E086052
:103B00000B83F0CFC80126E0969587952A95E1F7BB
:103B1000807E19830A830115104C18F480618B8311
:103B2000E1CF8861FCCFCF93DF931F92CDB7DEB793
:103B30002091B11130E0322F2227260F371F90E05D
:103B4000982F882741E050E0BE016F5F7F4F820FC2
:103B5000931F0E94081D89810F90DF91CF910895D6
:103B6000CF93C82F462F61E070E00E94BF0961E04B
:103B700070E08C2F0E94931D8111F9CFCF91089591
:103B8000CF93C82F80E591E00E94FA0968E070E0C9
:103B90008C2FCF910C94B01DCF93C82F80E591E06E
:103BA0000E94FA0960E170E08C2FCF910C94B01D57
:103BB000CF93DF93EC01888D883020F40E94CC1DD8
:103BC00088E0888FDF91CF91089563E070E00C94D6
:103BD000931DCF93C82F80E591E00E94FA098C2FA6
:103BE000CF910C94E51DEF92FF920F931F93CF930B
:103BF000DF937C018091B011D4E0833309F0D8E0E9
:103C00000BE911E1C0E0F801219131918F01F70139
:103C1000848195812817390729F0CF5FDC13F3CF12
:103C200080E006C08C2F0E94E91D8431B1F781E04D
:103C3000DF91CF911F910F91FF90EF900895CF9357
:103C4000DF93EC018C858830D0F40E94E91D84312B
:103C500089F0882379F0883169F021E08C3159F4BA
:103C6000E881F9810084F185E02DCE01199521E0EC
:103C7000892B09F420E0822FDF91CF91089580E015
:103C8000FBCFCF92DF92EF92FF92CF93DF93EC01C5
:103C90008C85883068F40E94C01D0E9407066B0165
:103CA0007C018C850E94E91D811109C088E08C8708
:103CB000DF91CF91FF90EF90DF90CF90089561E07A
:103CC00070E080E090E00E94D4050E940706AB01FE
:103CD000BC014C195D096E097F098D859E85B0E098
:103CE000A0E0481759076A077B07D8F28C850E9425
:103CF000CC1DDCCFCF93FC01C08D80E591E00E940C
:103D0000FA0960E270E08C2F0E94B01D62E070E062
:103D10008C2F0E94931D84FD16C062E070E08C2FF2
:103D20000E94931D83FF0AC048E162E070E08C2F7F
:103D30000E94BF0980E090E0CF91089580E591E076
:103D40000E94FA09E3CF40E162E070E08C2F0E940C
:103D5000BF0981E0F0CFCF93DF931F92CDB7DEB7DD
:103D600041E050E0BE016F5F7F4F90E080E00E9435
:103D7000081D89810F90DF91CF910895CF93DF9334
:103D8000C4E1D0E00E94AB1E882361F061E070E0E6
:103D900080E090E00E94D4052197A1F780E0DF91B8
:103DA000CF91089581E0FBCFCF92DF92EF92FF9207
:103DB0001F93CF93DF93CDB7DEB7C454D1090FB6AD
:103DC000F894DEBF0FBECDBFFC01428153816481F8
:103DD000758123964CAF5DAF6EAF7FAF239781E0C7
:103DE00023968FAF23972396CCACDDACEEACFFAC23
:103DF0002397CBAADCAAEDAAFEAA4DA75EA76FA7C0
:103E000078AB88ABCDA4DEA4EFA4F8A8CFA2D8A647
:103E1000E9A6FAA68EABCBA8DCA8EDA8FEA8C9A29D
:103E2000DAA2EBA2FCA22BEB33E03C8B2B8B9FEFB7
:103E30009D8B9E8B9F8B188E3E872D878AA7CFA048
:103E4000D8A4E9A4FAA4CF86D88AE98AFA8A8CA3EE
:103E500089A19AA1ABA1BCA189879A87AB87BC87AE
:103E60003A8329834B835C836D837E838091B21177
:103E700081116CC060E372E080E090E00E94D405A4
:103E80000E946D15EFEEF3E0E491F0E0EE0FFF1FFE
:103E9000E553FC4F859194919093AF118093AE11AF
:103EA000EFE8F3E0E491E093AD1161E08AE00E9475
:103EB000A7040E942E0680E591E00E94FA0984E39F
:103EC0008093B01180E80E946F090E94BE1E882373
:103ED00009F472C088E00E946F090E94AB1E88300E
:103EE00009F06AC080E10E946F090E94AB1E803118
:103EF00009F062C080E00E946F090E94AB1E182F7B
:103F000081115AC041E050E0BE016D5B7F4F8FE1EF
:103F100090E00E94081D24968FAD2497833009F00D
:103F20004BC080E48093B11142E06EE170E0812FDC
:103F30000E94BF0942E06FE170E0812F0E94BF093B
:103F40001F5F183089F781E08093B21180E591E01E
:103F50000E94FA0946E050E06FE772E089E090E0E5
:103F60000E94C10844E050E0BE016D5F7F4F8FE0CA
:103F700090E00E94C10844E050E0BE01615F7F4FC5
:103F800081E090E00E94C10844E050E0BE016B5E19
:103F90007F4F85E090E00E94C10881E08C87898591
:103FA0009A85AB85BC858093701490937114A0930F
:103FB0007214B09373146FC087E38093B01180E8DC
:103FC0000E946F090E94BE1E882339F188E00E947A
:103FD0006F090E94AB1E883001F580E10E946F09D5
:103FE0000E94AB1E182F8031C1F480E00E946F093F
:103FF0000E94AB1E811111C041E050E0BE016D5B1B
:104000007F4F89E390E00E94081D24968FAD24978E
:10401000843019F41093B11196CF83E38093B011DB
:1040200080E80E946F090E94BE1E882391F180E102
:104030000E946F090E94AB1E803159F582E10E94F7
:104040006F090E94AB1E823121F580E00E946F094A
:104050000E94AB1E81111DC084E08093B11115E553
:1040600025961FAF259741E050E0BE016C5B7F4F66
:104070008BE190E00E94C10824961FAF249741E095
:1040800050E0BE016D5B7F4F8AE190E00E94C10865
:104090005ACF1092B011CC5BDF4F0FB6F894DEBF51
:1040A0000FBECDBFDF91CF911F91FF90EF90DF90BA
:1040B000CF9008951F93CF93DF931F92CDB7DEB7B4
:1040C000182F80E591E00E94FA09812F0E94430693
:1040D00027E0129FF0011124ED59FE4E2281338119
:1040E000377041E050E0BE016F5F7F4F820F931F3A
:1040F0000E94081D89810F90DF91CF911F91089533
:10410000FC01808D883040F4218D328D232B21F0ED
:104110000E945A2090E008958FEF9FEF0895CF936B
:10412000DF93FC012485283028F08FEF9FEFDF918B
:10413000CF910895EC010190F081E02D0084F1858C
:10414000E02D1995892B89F38C850E945A2090E0E7
:10415000EECFDA01E091B111F0E0FE2FEE27E60F8D
:10416000F71F90E0982F8827A901BD018E0F9F1F90
:104170000C94081D8F929F92AF92BF92CF92DF92C4
:10418000EF92FF920F931F93CF93DF93CDB7DEB7DC
:1041900060970FB6F894DEBF0FBECDBF7C01909143
:1041A000B011911115C018E0812F60960FB6F894E8
:1041B000DEBF0FBECDBFDF91CF911F910F91FF905A
:1041C000EF90DF90CF90BF90AF909F908F90089529
:1041D00008E0933309F404E06B0180E591E00E946C
:1041E000FA099E012F5F3F4F5901490110E0812FCD
:1041F0000E94E51DF40181934F018823C1F01F5FE8
:104200000113F5CF00E0F50181915F018D3149F097
:10421000883139F08A51823020F00F5F1013F3CFCC
:10422000C2CF60E170E0802F0E94B01D102FA12E40
:10423000B12CF501EE0FFF1FE556FE4E11821082E4
:1042400083EE93E00197F1F742E870E060E0812FA0
:104250000E94BF094FEF62E070E0812F0E94BF090A
:10426000B601C114D10491F480917D0290917E0237
:1042700001968115F0EC9F0708F45CC090937E02D4
:1042800080937D0260917D0270917E02812F0E9459
:10429000A90986E0E7E9F2E0DE01199601900D92A6
:1042A0008A95E1F7F70183818F778C8784818D87E9
:1042B00085818E87A7014E5F5F4F24E030E06CE080
:1042C00070E0812F0E948209B601812F0E9493091C
:1042D00026E030E0AE01475F5F4F66E070E0812F7F
:1042E0000E94820961E070E0812F0E94B01D27E0EA
:1042F0002A9DC0012B9D900D11249C012D593E4EED
:104300007901F9011182108222E030E0AE01415FB3
:104310005F4F68E270E0812F0E94A9208F85988905
:10432000982789279827F70193838283168215821D
:1043300014823ACF80E090ECA1CFCF92DF92EF923F
:10434000FF920F931F93CF93DF9300D000D0CDB790
:10435000DEB78C016B017A01FC01808D883010F48E
:104360000E94CC1D8BEB93E09A838983F6018281B6
:104370009381A481B5818B839C83AD83BE83B70178
:10438000CE0101960E94BA20F801808F8830A0F4F7
:10439000F586E486128E118E81E026960FB6F8948B
:1043A000DEBF0FBECDBFDF91CF911F910F91FF9068
:1043B000EF90DF90CF90089580E0EFCF7F928F92C3
:1043C0009F92AF92BF92CF92DF92EF92FF920F93A4
:1043D0001F93CF93DF931F921F92CDB7DEB7782E36
:1043E0008B014A01590122E030E0AE014F5F5F4F7F
:1043F00064E270E00E94A920E980FA80FE24EF24A4
:10440000FE24E00EF11E970137704091B011072D88
:1044100010E0433309F042C0085F1F4F102F002700
:10442000110F110F110FC901800F911F4733C9F1EF
:10443000A9014A0D5B1D4130584098F160E078E0D9
:104440006B01C21AD30AA601B4010E94C108A501DA
:104450004C195D09B4016C0D7D1DC8010E94C10895
:10446000EA0CFB1CF982EA8222E030E0AE014F5FE9
:104470005F4F64E270E0872D0E9482090F900F90D9
:10448000DF91CF911F910F91FF90EF90DF90CF9030
:10449000BF90AF909F908F907F900895005F1F4FC7
:1044A000BDCFA501B401DACFEF92FF921F93CF9356
:1044B000DF931F921F92CDB7DEB7182F22E030E0B6
:1044C000AE014F5F5F4F60E270E00E94A920E9807B
:1044D000FA80FE24EF24FE2422E030E0AE014F5F9C
:1044E0005F4F60E270E0812F0E94A92089819A814C
:1044F000982789279827E816F90689F487E0189FF6
:10450000F0011124ED59FE4EF582E482C7010F90AF
:104510000F90DF91CF911F91FF90EF9008957C0154
:10452000DBCF1F93CF93DF93182F80E591E00E949C
:10453000FA09812F0E945422EC01812F0E94E51D6F
:10454000873121F08C3111F0D0E0C0E0CE01DF9155
:10455000CF911F910895CF93DF93EC018C85883024
:1045600060F40E94E91D873111F08C3131F48C85A3
:104570000E9491228115984088F3DF91CF91089590
:10458000FC018485883010F40C94912290E080E046
:104590000895CF92DF92EF92FF921F93CF93DF9314
:1045A000182F7B01EA014130584010F0C0E0D8E0FC
:1045B00080E591E00E94FA09812F0E9454226C014B
:1045C000812F0E94E51D873111F08C3121F5CC1629
:1045D000DD0670F380E591E00E94FA099E01A701D3
:1045E00070E060E0812F0E94DE2160E270E0812FA8
:1045F0000E94B01D62E070E0812F0E94931D84FD37
:104600000DC0812F0E94E51D8823B9F080E591E05F
:104610000E94FA09EFCFD0E0C0E0DCCF40E162E0D9
:1046200070E0812F0E94BF09CE01DF91CF911F91D1
:10463000FF90EF90DF90CF900895D0E0C0E0F4CFEE
:104640000F931F93CF93DF938C01EA01FC018485C4
:10465000883048F40E94C922892B39F481E090E027
:10466000F80193838283D0E0C0E0CE01DF91CF9147
:104670001F910F9108959F92AF92BF92CF92DF92B8
:10468000EF92FF920F931F93CF93DF938C015B0107
:10469000942EE52EFC01C688D788F08C80E591E049
:1046A0000E94FA098F2D0E945422C92DDE2D8C17ED
:1046B0009D0708F4EC019E01A501B6018F2D0E9413
:1046C000DE21F801868997898C0F9D1F978B868B39
:1046D000CE01DF91CF911F910F91FF90EF90DF906E
:1046E000CF90BF90AF909F900895FF920F931F932C
:1046F000CF93DF931F921F92CDB7DEB7F82E22E043
:1047000030E0AE014F5F5F4F66E270E00E94A9208B
:1047100009811A8110270127102722E030E0AE011D
:104720004F5F5F4F66E270E08F2D0E94A920898164
:104730009A819827892798270817190749F4C801EB
:104740000F900F90DF91CF911F910F91FF900895DF
:104750008C01E3CF1F93CF93DF93182F87E0189F2F
:10476000E0011124CD59DE4E88819981009761F4D2
:1047700080E591E00E94FA09812F0E9475232E8125
:10478000821B910999838883DF91CF911F910895AE
:104790009F92AF92BF92CF92DF92EF92FF920F93D0
:1047A0001F93CF93DF93EC017B018091B0118111B6
:1047B00021C01B821A8288EE93E0A0E0B0E08C83D7
:1047C0009D83AE83BF838FE693E09983888388E0DF
:1047D0008C8788EE93E09E878D87CE01DF91CF9105
:1047E0001F910F91FF90EF90DF90CF90BF90AF900F
:1047F0009F90089534E0932E833311F028E0922E99
:104800008BE9C82E81E1D82E10E098E0B92EA12CBA
:10481000D6012D913D916D01F70184819581281775
:10482000390791F4812F0E94E91D082F873111F07B
:104830008C3139F5812F0E94AA23892B59F50C312F
:1048400019F4812F0E94C01D1F5F9112E1CFA110AA
:1048500008C0D701ED91FC910084F185E02DC701DE
:1048600019951B821A8288EE93E0A0E0B0E08C8359
:104870009D83AE83BF838FE693E099838883BC8654
:10488000A8CF843149F08111DFCFF6013297118230
:104890001082DACFB12ED8CFAA24A394D5CF8F928D
:1048A0009F92AF92BF92CF92DF92EF92FF920F93BF
:1048B0001F93CF93DF93CDB7DEB72F970FB6F89442
:1048C000DEBF0FBECDBF5C014B017A018091B011FC
:1048D0008823C9F104E0833309F008E0B501CE0173
:1048E00001960E94C8238BE9C82E81E1D82E10E0E2
:1048F000F601219131916F01F5018481958128178D
:10490000390751F4812F0E94E91D873129F4A7014D
:10491000B401812F0E94C9221F5F0113E9CFC70193
:104920002F960FB6F894DEBF0FBECDBFDF91CF91AB
:104930001F910F91FF90EF90DF90CF90BF90AF90BD
:104940009F908F900895F12CE12CE9CFFC01848594
:10495000883010F40C94AA2390E080E008954F92E0
:104960005F927F928F929F92AF92BF92CF92DF928F
:10497000EF92FF920F931F93CF93DF931F921F929B
:10498000CDB7DEB7782E6B014A01A82EB12C27E0F7
:10499000829FC0011124FC01ED59FE4E7F01008170
:1049A000118180E591E00E94FA090815190554F477
:1049B000872D0E947523F70126818C01021B1109A6
:1049C000118300830115110519F5872D0E94E51D3E
:1049D000843159F0882349F001E010E08C3111F462
:1049E00010E000E0119501951109C8010F900F909A
:1049F000DF91CF911F910F91FF90EF90DF90CF90BB
:104A0000BF90AF909F908F907F905F904F90089550
:104A1000801691060CF4840187E08A9DF0018B9D3D
:104A2000F00D1124ED59FE4EE280F380C114D10443
:104A300051F12701F7E05F22872D0E944306840D84
:104A4000951D2091B011273309F453C09801240D0E
:104A5000351D2130384008F44CC020E038E04901D1
:104A600084189508A401B6010E94081D2601480C6F
:104A7000591C6801C818D908872D0E944306A60151
:104A8000B2010E94081DE00EF11E87E08A9DF00130
:104A90008B9DF00D1124ED59FE4EF382E2822081B0
:104AA0003181201B310B318320838681800F912F30
:104AB000911D8A3F910510F4232BF1F487E08A9D24
:104AC000F0018B9DF00D1124ED59FE4E1682F982F6
:104AD000EA8222E030E0AE014F5F5F4F68E270E0B3
:104AE000872D0E94820960E470E0872D0E94B01D2E
:104AF0007CCFA801B601C5CF868377CFCF93DF9354
:104B0000FC01218D328D2115310529F48FEF9FEFA6
:104B1000DF91CF910895EC01808D4217530708F083
:104B2000A9010E94AF241816190684F7298D3A8D21
:104B3000281B390B3A8F298FEBCF0F931F93CF93FD
:104B4000DF931F92CDB7DEB7FC01218D328D232B71
:104B500041F48FEF9FEF0F90DF91CF911F910F9155
:104B600008958C0141E050E0BE016F5F7F4FFC0172
:104B7000808D0E94AF24181619065CF7F801818D0C
:104B8000928D0197928F818F898190E0E4CFCF93AE
:104B9000DF931F92CDB7DEB741E050E0BE016F5FFB
:104BA0007F4FFC0184850E94AF241816190634F447
:104BB000898190E00F90DF91CF9108958FEF9FEF63
:104BC000F9CFFC018485883010F40C94AF2490E078
:104BD00080E008958F929F92AF92BF92CF92DF9222
:104BE000EF92FF920F931F93CF93DF9300D000D0EB
:104BF00000D01F92CDB7DEB79091B011911115C0C2
:104C000018E0812F2A960FB6F894DEBF0FBECDBFF5
:104C1000DF91CF911F910F91FF90EF90DF90CF9098
:104C2000BF90AF909F908F90089528E0F22E93331D
:104C300011F494E0F92E6B01082F80E591E00E94B9
:104C4000FA099E012F5F3F4F5901490110E0812F62
:104C50000E94E51DF40181934F018823C1F01F5F7D
:104C6000F112F5CFF12CF50191915F019D3149F0E1
:104C7000983139F09A51923020F0F3941F11F3CF0C
:104C8000BFCF60E170E08F2D0E94B01D1F2DE12E7F
:104C9000F12CF701EE0FFF1FE556FE4E1182108238
:104CA00083EE93E00197F1F7402F70E060E0812FF1
:104CB0000E94BF094FEF62E070E0812F0E94BF09A0
:104CC000B601CD2889F480917D0290917E020196F3
:104CD0008115F0EC9F0798F190937E0280937D02FE
:104CE00060917D0270917E02812F0E94A90961E08E
:104CF00070E0812F0E94B01D27E02E9DC0012F9DE6
:104D0000900D11249C012D593E4E7901F90111821B
:104D1000108222E030E0AE01475F5F4F68E270E052
:104D2000812F0E94A92089859A859827892798270D
:104D3000F7019383828316821582148262CF80E00A
:104D400090ECCACF0F931F93CF93DF93EC018B01AD
:104D5000888D883010F40E94CC1DB80182E00E943A
:104D6000EA25888F883050F41D870C871A8E198E9B
:104D700081E0DF91CF911F910F91089580E0F9CFED
:104D80000F931F93CF938C01FC016481758181E2A5
:104D90000E94EA25C82F8830F8F480E591E00E944F
:104DA000FA098C2F0E94E51D833131F08C2FCF91B1
:104DB0001F910F910C94C01D62E070E08C2F0E9437
:104DC000B01DF80184819581EC2FF0E0EE0FFF1FFC
:104DD000E556FE4E91838083CF911F910F910895E8
:104DE000CF92DF92EF92FF921F93CF93DF93EC016C
:104DF0007B016A018C85883048F40E94E91D882374
:104E000019F08C850E94C01D88E08C87F701828193
:104E10009381A481B5810097A105B10551F490E07B
:104E200080E0DF91CF911F91FF90EF90DF90CF90C6
:104E300008958F3F9F4FAF4FBF4F89F370E060E001
:104E400081E20E94EA25182F8C87883040F780E5A0
:104E500091E00E94FA09A7014E5F5F4F24E030E025
:104E60006CE070E0812F0E948209B601812F0E94C0
:104E7000930964E070E0812F0E94B01D0E94070634
:104E80006B017C018C850E94E91D873111F18C3109
:104E900001F1882321F20E940706AB01BC014C19E5
:104EA0005D096E097F098D859E85B0E0A0E08417BD
:104EB0009507A607B70738F061E070E080E090E062
:104EC0000E94D405DFCF8C850E94CC1D88E08C87A2
:104ED000A6CF81E090E0A5CF0F931F93CF93DF93F0
:104EE0001F921F92CDB7DEB7FC0124852830E0F475
:104EF0008C0180E591E00E94FA0922E030E0AE01E9
:104F00004F5F5F4F60E170E0F80184850E94A92047
:104F100089819A819827892798270F900F90DF9190
:104F2000CF911F910F91089590E080E0F6CF0F93FD
:104F30001F93CF93DF931F921F92CDB7DEB7FC0173
:104F400024852830E0F48C0180E591E00E94FA0984
:104F500022E030E0AE014F5F5F4F64E070E0F801A7
:104F600084850E94A92089819A819827892798277A
:104F70000F900F90DF91CF911F910F91089590E0C6
:104F800080E0F6CF0F931F93CF93DF9300D000D034
:104F90001F921F92CDB7DEB78C01D80159964D9163
:104FA0005C915A974115510551F0ED91FC91048C9B
:104FB000F58DE02D70E060E0C8011995EECFF801A5
:104FC000808D0E94AA23892BB1F148E050E0BE01F8
:104FD0006F5F7F4FD80158968C910E94AF241816AE
:104FE0001906F4F4D801509684E0FE013196019040
:104FF0000D928A95E1F78D8190E0982F88272E8178
:10500000820F911DF801958B848B8F81282F30E0C2
:10501000322F22278885820F932F911D928F818FA7
:1050200028960FB6F894DEBF0FBECDBFDF91CF91AB
:105030001F910F91089590E080E0F2CF4F925F9220
:105040006F927F928F929F92AF92BF92CF92DF9298
:10505000EF92FF920F931F93CF93DF93CDB7DEB7FD
:1050600063970FB6F894DEBF0FBECDBF7C016B0116
:105070003A01FB0120E090E080E06AE031913323C7
:1050800009F461C040ED430F4A3008F04DC0689FFD
:10509000A001699F500D1124CA01C097830F911D73
:1050A00037FD9A958F3F910549F340F3F70142810F
:1050B00053816481758180917C1490917D14A091BD
:1050C0007E14B0917F14481759076A077B0709F4CB
:1050D0000DC28701085F1F4F0E9407066F70772778
:1050E0007C5FC8010E94A226813009F004C28BEBCC
:1050F00093E09A838983F70182819381A481B581AA
:105100008B839C83AD83BE8345E350E0BE016F5F1C
:105110007F4FC8010E94FD09892BA9F5D12CC12C14
:10512000C8010E94D81D17C03E3209F0BFCF2330FE
:1051300009F4BCCFD301A20FB11D12968C932F5F3F
:1051400090E080E09BCF233009F0B0CFF30185835E
:10515000CC24C394D12CC60163960FB6F894DEBF5D
:105160000FBECDBFDF91CF911F910F91FF90EF90B8
:10517000DF90CF90BF90AF909F908F907F906F9077
:105180005F904F9008950E940706F701778366832A
:1051900042E050E0B7016A5F7F4FC8010E943B23A5
:1051A00081E090E09A83898342E050E0BE016F5F26
:1051B0007F4FC8010E943B2380E091E09A8389835E
:1051C00042E050E0BE016F5F7F4FC8010E943B2369
:1051D0001A82198242E050E0BE016F5F7F4FC80122
:1051E0000E943B2342E050E0BE016F5F7F4FC80149
:1051F0000E943B2342E050E0BE016F5F7F4FC80139
:105200000E943B235601F6018081882301F165014C
:10521000F60181912F01882311F08E32B1F44601FD
:105220008A189B081814190474F48D8641E050E024
:10523000BE01635F7F4FC8010E943B23A401B501FB
:10524000C8010E943B235201DECF6201E1CF1D86DF
:1052500041E050E0BE01635F7F4FC8010E943B23E5
:10526000C12CDD24D394DA82C98242E050E0BE0131
:105270006F5F7F4FC8010E943B23DA82C98242E000
:1052800050E0BE016F5F7F4FC8010E943B23C80101
:105290000E947A1E892B09F441CFF3E0AF2EB12C86
:1052A000230122E0420E511CD4C0F70142815381F8
:1052B00064817581808D918DA28DB38D48175907BA
:1052C0006A077B0709F008C1848D958DC59709F0A1
:1052D00003C181A192A15DEFC52EDD24DA940C9764
:1052E0000CF4ADC04CE050E0BE016F5F7F4FC801D1
:1052F0000E947E258B819C819827892798279A8BED
:10530000898BF7014681578129813A8142175307DA
:1053100009F0E7C097FFE5C08F7092703BEFC32E96
:10532000DD24DA94892B09F08AC06F807884762492
:10533000672476242AEFC22EDD24DA9461147104E6
:1053400009F47DC0D12CC12C8D819E81982789279D
:105350009827C816D906F8F441E050E0BE01635F13
:105360007F4FC8010E947E254D85442331F050E0D7
:1053700070E060E0C8010E947E258D858111ECCF30
:1053800044E050E070E060E0C8010E947E25FFEF3D
:10539000CF1ADF0AD9CF912C812C41E050E0BE0119
:1053A0006D5E7F4FC8010E947E254B89842F807CD3
:1053B00009F06CC0442331F050E070E060E0C801B7
:1053C0000E947E258B898111E8CF42E050E0BE012A
:1053D000615F7F4FC8010E947E2542E050E0BE0120
:1053E000635F7F4FC8010E947E2544E050E070E07B
:1053F00060E0C8010E947E2542E050E0BE016F5E81
:105400007F4FC8010E947E258F85988949895A89D6
:105410008115914009F043C0CD84DE84DC24CD2485
:10542000DC2481E0C816D104D1F54115544009F0BF
:105430004AC044E050E0B201C8010E947E2521E04C
:10544000A21AB10809F46CCEFFEFCF16DF0609F0FF
:1054500067CE0E9407063B014C01C8010E94C2278B
:10546000181619060CF421CF0E9407066619770951
:1054700088099909693873418105910548F562E306
:1054800070E080E090E00E94D405E7CF41E050E07A
:1054900070E060E0C8010E947E251B8A93CF5427EC
:1054A0004527542770E060E0C8010E947E25FFEF89
:1054B0008F1A9F0A6814790409F06FCF96EFC92EEE
:1054C000DD24DA94BCCFE7EFCE2EDD24DA94B7CF1B
:1054D000CC24CA94DC2CB3CF6EEFC62EDD24DA9434
:1054E000AECF4CEFC42EDD24DA94A9CF8EEFC82EB8
:1054F000DD24DA9430CED12CC12C2DCECF92DF9288
:10550000EF92FF920F931F93CF93DF93CDB7DEB748
:10551000AF970FB6F894DEBF0FBECDBF7C016A0116
:105520000BEB13E01A8309831C861B8688EE93E03D
:10553000A0E0B0E08D879E87AF87B88B84EA92E0C9
:105540009A878987188F0F8B198E1A8E1B8E1C8E47
:1055500088E089A31BA70AA71CA61DA61EA61FA636
:105560008091701490917114A0917214B091731481
:105570008EA39FA3A8A7B9A78B839C83AD83BE836B
:1055800018861F82AE01465D5F4FCE0101960E94D4
:105590001E2881309105B1F4D701ED91FC9104886A
:1055A000F589E02D1DA30CA38CA59DA5AEA5BFA5D7
:1055B0008EA39FA3A8A7B9A7A601BE016C5D7F4FCC
:1055C000C7011995AF960FB6F894DEBF0FBECDBFD9
:1055D000DF91CF911F910F91FF90EF90DF90CF90CF
:1055E0000895CF92DF92EF92FF920F931F93CF9384
:1055F000DF93CDB7DEB7AF970FB6F894DEBF0FBE1F
:10560000CDBF8C016B017A018BEB93E09A83898388
:105610001B821C821D821E821C861B8648EE53E064
:1056200060E070E04D875E876F87788B24EA32E018
:105630003A872987988F8F8B198E1A8E1B8E1C8E16
:1056400028E029A39BA78AA71CA61DA61EA61FA605
:10565000D8011C968C91883060F40E94E91D882343
:1056600021F0F80184850E94C01D88E0D8011C96B5
:105670008C938091701490917114A0917214B091D8
:1056800073148EA39FA3A8A7B9A78B839C83AD8314
:10569000BE8318861F82AE01465D5F4FB601CE0104
:1056A00001960E941E280097C1F0D801ED91FC914F
:1056B0000684F785E02D8BEB93E09DA38CA38CA54E
:1056C0009DA5AEA5BFA58EA39FA3A8A7B9A7A70117
:1056D000BE016C5D7F4FC8011995AF960FB6F89467
:1056E000DEBF0FBECDBFDF91CF911F910F91FF9015
:1056F000EF90DF90CF900895EF92FF920F931F935A
:10570000CF93DF9300D01F92CDB7DEB78C017B0122
:10571000FB0184858830A8F08BEB93E0F80191833E
:1057200080831282138214821582C8010F900F9019
:105730000F900F90DF91CF911F910F91FF90EF90FD
:10574000089580E591E00E94FA0924E030E0AE017E
:105750004F5F5F4F6CE070E0F70184850E94A920E5
:105760008BEB93E0F8019183808389819A81AB81EF
:10577000BC8182839383A483B583D7CF85ED809347
:10578000BC008091E5109091E610A091E710B091D7
:10579000E8100796A11DB11D23E0B695A795979532
:1057A00087952A95D1F72091BC0024FD03C0109263
:1057B000E31008954091E5105091E6106091E710D4
:1057C0007091E810452B462B472B69F30097A105F4
:1057D000B10541F025E32A95F1F700000197A109F1
:1057E000B109E1CF8091E4100C9421073F924F92D0
:1057F0005F926F927F928F929F92AF92BF92CF9261
:10580000DF92EF92FF920F931F93CF93DF9300D01D
:1058100000D000D01F921F92CDB7DEB77C01DC0113
:1058200015968C91811115C0FE013196CE010C9612
:105830006F0130E23193E817F907E1F7DA0130E060
:1058400087E09D91B92E992329F19E3239F48A304F
:1058500011F480E0DAC038E08AE0F3CFEBEFF2E059
:105860004491442321F031969413FACFF2CF831759
:1058700080F34FED490F4E3560F74FE9490F4A313C
:1058800018F440EEB42EB90EF601E30FF11DB0820C
:105890003F5FD7CF89818032E1F2322E8B01FB014D
:1058A000838D948DD7015C969C938E935B97168223
:1058B0001782108611861286138614861586F801C3
:1058C00082859385A485B5854389548965897689C0
:1058D00084179507A607B70708F04DC025E0B695D1
:1058E000A795979587952A95D1F7F82FFF70AF2E3A
:1058F000D80115968C91823008F4ABCFC8010E9474
:10590000281597FDA6CFF80182859385A485B585D6
:105910004F96A11DB11D82879387A487B587F0E2BA
:10592000AF9EB00111246D547E4E6115710509F4CE
:1059300090CFDB018C91882341F0853E09F058C05F
:10594000BB2029F0BB24B394BACFB1100EC0F7012D
:10595000A28A8091650290916602A0916702B0913F
:10596000680286879787A08BB18BDB018C918111B0
:10597000E9CFBB24B394832D8271823109F069CFC2
:10598000BB2009F45AC0C7010E94500C009709F4CB
:1059900060CF20E2FC0111922A95E9F72BE0F60195
:1059A000DC0101900D922A95E1F721E238E2DC0159
:1059B00051963C932E93509740E058E01F965C938D
:1059C0004E931E9753963C932E93529759963C9321
:1059D0002E93589757965C934E93569781E00E946A
:1059E000DB0B882309F435CF432DF70162890AC008
:1059F0004BE050E0C6010E943B53892B09F05FCF7A
:105A0000432D6A2DC7010E94E6162B960FB6F89417
:105A1000DEBF0FBECDBFDF91CF911F910F91FF90E1
:105A2000EF90DF90CF90BF90AF909F908F907F903E
:105A30006F905F904F903F900895F801858182307C
:105A400009F407CFC8010E940810882309F401CF88
:105A5000D8015B96ED91FC915C9716968D909D9088
:105A6000AD90BC901997B2E08B1A9108A108B108CB
:105A7000858504C0880C991CAA1CBB1C8A95D2F78A
:105A800086859785A089B189880E991EAA1EBB1E9E
:105A9000848124013501480E511C611C711C841441
:105AA0009504A604B70409F1E1E04E1A5108610813
:105AB000710881E00E94DB0B882309F4CACEE3EB76
:105AC000F1E1119283EB93E18E179F07D1F740929A
:105AD000650250926602609267027092680280913D
