:100000000C948B010C941B1C0C94F01B0C94C51BC2
:100010000C949A1B0C946F1B0C94441B0C94191B8E
:100020000C94EE1A0C94BC010C94BC010C94BC0111
:100030000C94BC010C94BC010C94BC010C94BC014C
:100040000C94BC010C94BC010C94BC010C94BC013C
:100050000C94BC010C94BC010C94BC010C94A41A2B
:100060000C94BC010C946E1A0C94441A0C94BC01B0
:100070000C94BC010C94BC010C94BC010C94BC010C
:100080000C94BC010C94BC010C94BC010C94BC01FC
:100090000C94BC010C94BC010C94BC010C94461C47
:1000A0000C94BC010C94BC010C94BC010C94BC01DC
:1000B0000C94BC010C94BC010C94BC010C94BC01CC
:1000C0000C94BC010C94BC010C94BC010C94BC01BC
:1000D0000C94BC010C94BC010C94BC010C94BC01AC
:1000E0000C94BC010C94A6040C9475130C94880415
:1000F0000C9457030C946F040C94BA040C94B4053C
:100100000C948A050C9423050C94F7060C943A1071
:100110000C9423020C94C2010C9452030C94AD0570
:100120000C949A050C9417030C943C030C944E0306
:100130000C942D040C945C030C948B050C94A80275
:100140000C9458030C944A030C94C4100C941D0393
:100150000C9465040C9441040C9421030C94A41099
:100160000C9401020C94340E0C9429030C9440035B
:100170000C949B100C945B040C94BE010C945B02D9
:100180000C9437040C94B0040C94D4100C94F1101B
:100190000C9428040C9432030C94E1050C942C0369
:1001A0000C94C4010C949C040C9426120C94F2013F
:1001B0000C9444030C9479040C9492040C94200441
:1001C0000C944B040C9430120C9415020C943603CE
:1001D0000C946A1D0C9425030C94C5010C94C30166
:1001E0000C94530400002200250028002B002E0050
:1001F0003100340002010000050108010B0100007C
:1002000020002300260029002C002F0032000001CE
:10021000000003010601090100000A0B02090C0D90
:100220000E080703040100000000000000000000A9
:1002300000000000000000000000000000000000BE
:10024000000000001211100000000000000000007B
:10025000000000000000000000000000000000009E
:100260002100240027002A002D0030003300010166
:100270000000040107010A010102102020080810F3
:100280002040102040800201020108040201010206
:1002900004081020408080402010080402018004DF
:1002A000020180402010080402010804020101023A
:1002B0000408102040800102040810204080050539
:1002C0000505070508080808020202020A0A0808CC
:1002D00004040404010101010101010103030303FA
:1002E00003030303040707070C0C0C0C0C0C0C0C89
:1002F0000202020206060606060606060B0B0B0B9A
:100300000B0B0B0B7C3C3E5E2B3D3F2F5B5D3B2C78
:100310002A225C006A1D11241FBECFEFD1E2DEBF8E
:10032000CDBF00E00CBF15E0A0E0B2E0E6ECF0E5E8
:1003300000E00BBF02C007900D92A431B107D9F7BE
:100340002CE0A4E1B5E001C01D92A632B207E1F7AE
:1003500011E0CBE8D1E000E006C021970109802F31
:10036000FE010E941526CA38D10780E00807A9F7C8
:100370000E94DC1D0C9461280C94000081E08093A5
:1003800003090895089508950895AF92BF92CF92FA
:10039000DF92EF92FF920F931F93CF93DF936C0145
:1003A0007B018B01040F151FEB015E01AE18BF0826
:1003B000C017D10759F06991D601ED91FC910190D8
:1003C000F081E02DC6011995892B79F7C501DF91E0
:1003D000CF911F910F91FF90EF90DF90CF90BF9042
:1003E000AF900895FC01538D448D252F30E0842F6C
:1003F00090E0821B930B541710F0CF96089501974D
:100400000895FC01918D828D981761F0A28DAE0F39
:10041000BF2FB11D5D968C91928D9F5F9F73928FC0
:1004200090E008958FEF9FEF0895FC01918D828DEC
:10043000981731F0828DE80FF11D858D90E00895B9
:100440008FEF9FEF0895FC01918D228D892F90E011
:10045000805C9F4F821B91098F739927089587E0D5
:100460009BE00E94230221E0892B09F420E0822FE7
:100470000895FC01A48DA80FB92FB11DA35ABF4F39
:100480002C91848D90E001968F739927848FA68993
:10049000B7892C93A089B1898C91837080648C93E7
:1004A000938D848D981306C00288F389E02D808196
:1004B0008F7D80830895EF92FF920F931F93CF93C8
:1004C000DF93EC0181E0888F9B8D8C8D98131AC08F
:1004D000E889F989808185FF15C09FB7F894EE8976
:1004E000FF896083E889F9898081837080648083D3
:1004F0009FBF81E090E0DF91CF911F910F91FF901E
:10050000EF900895F62E0B8D10E00F5F1F4F0F73C5
:100510001127E02E8C8D8E110CC00FB607FCFACF80
:10052000E889F989808185FFF5CFCE010E943902E3
:10053000F1CFEB8DEC0FFD2FF11DE35AFF4FF08251
:100540009FB7F8940B8FEA89FB8980818062CFCFB7
:10055000CF93DF93EC01888D8823B9F0AA89BB89FA
:10056000E889F9898C9185FD03C0808186FD0DC0E5
:100570000FB607FCF7CF8C9185FFF2CF808185FF06
:10058000EDCFCE010E943902E9CFDF91CF910895DE
:1005900080E090E0892B29F00E942F0281110E94B7
:1005A000000080E090E0892B49F080E090E0892B0A
:1005B00029F00E94000081110E94000080E090E07C
:1005C000892B49F080E090E0892B29F00E940000FF
:1005D00081110E94000080E090E0892B49F080E0CA
:1005E00090E0892B29F00E94000081110C940000FA
:1005F00008958150823108F05AC0E82FF0E0882732
:10060000EB5FFC4F8F4F0C9415262503290317032E
:100610001D03210357032C03320336033C0340031D
:1006200044034A034E035703520358035C0380916B
:1006300080008F77809380000895809180008F7D67
:10064000F9CF80918000877FF5CF84B58F7784BD07
:10065000089584B58F7DFBCF8091B0008F77809314
:10066000B00008958091B0008F7DF9CF8091900007
:100670008F77809390000895809190008F7DF9CFBF
:1006800080919000877FF5CF8091A0008F77809335
:10069000A00008958091A0008F7DF9CF8091A000E7
:1006A000877FF5CF809120018F7780932001089577
:1006B000809120018F7DF9CF80912001877FF5CF38
:1006C000CF93DF93282F30E0F901E85EFD4F84914E
:1006D000F901E858FD4FD491F901E254FD4FC4915E
:1006E000CC23A1F081110E94F902EC2FF0E0EE0F73
:1006F000FF1FE250FE4FA591B491EC91ED2381E0F4
:1007000090E009F480E0DF91CF91089580E090E0DF
:10071000FACF1F93CF93DF93282F30E0F901E85EE3
:10072000FD4F8491F901E858FD4FD491F901E2544D
:10073000FD4FC491CC23A9F0162F81110E94F9021C
:10074000EC2FF0E0EE0FFF1FEC51FE4FA591B4919E
:100750008FB7F894EC91111108C0D095DE23DC938B
:100760008FBFDF91CF911F910895DE2BF8CFCF93EC
:10077000DF9390E0FC01E858FD4F249182549D4F97
:10078000FC0184918823D1F090E0880F991FFC012F
:10079000E25AFD4FA591B491FC01EC51FE4FC59179
:1007A000D49161110EC09FB7F8948C91E22FE0951F
:1007B0008E238C932881E223E8839FBFDF91CF9122
:1007C00008958FB7F894EC91E22BEC938FBFF6CF9E
:1007D0001F93CF93DF93182FEB0161E00E94B703C3
:1007E000209739F460E0812FDF91CF911F910C9415
:1007F0008903CF3FD10511F461E0F5CFE12FF0E09F
:10080000E85EFD4FE491E150E23108F0B3C0F0E062
:100810008827E25FFB4F8F4F0C9415262004280495
:100820002D0437044104BA044B0453045B046504EB
:100830006F04790488049204BA049C04A604B004EA
:1008400084B5806884BDC7BDDF91CF911F910895A5
:1008500084B5806284BDC8BDF7CF80918000806878
:1008600080938000D0938900C0938800EDCF809161
:100870008000806280938000D0938B00C0938A00B8
:10088000E3CF80918000886080938000D0938D00BA
:10089000C0938C00D9CF8091B00080688093B00065
:1008A000C093B300D1CF8091B00080628093B0003C
:1008B000C093B400C9CF809190008068809390006D
:1008C000D0939900C0939800BFCF80919000806230
:1008D00080939000D0939B00C0939A00B5CF8091F5
:1008E0009000886080939000D0939D00C0939C00FE
:1008F000ABCF8091A00080688093A0008091A00081
:100900008F7B8093A000D093A900C093A8009CCFB8
:100910008091A00080628093A000D093AB00C09330
:10092000AA0092CF8091A00088608093A000D0930D
:10093000AD00C093AC0088CF809120018068809387
:100940002001D0932901C09328017ECF80912001FE
:10095000806280932001D0932B01C0932A0174CF31
:1009600080912001886080932001D0932D01C09355
:100970002C016ACFC038D1050CF03ECF33CF3FB742
:10098000F8948091CA089091CB08A091CC08B091BE
:10099000CD0826B5A89B05C02F3F19F00196A11DD3
:1009A000B11D3FBFBA2FA92F982F8827BC01CD01B9
:1009B000620F711D811D911D42E0660F771F881F18
:1009C000991F4A95D1F708958F929F92AF92BF9247
:1009D000CF92DF92EF92FF926B017C010E94BF04E5
:1009E0004B015C01C114D104E104F104B9F00E948F
:1009F000BF04681979098A099B09683E734081051B
:100A0000910580F321E0C21AD108E108F10888EECF
:100A1000880E83E0981EA11CB11CE4CFFF90EF90DC
:100A2000DF90CF90BF90AF909F908F9008952FB799
:100A3000F8946091C6087091C7088091C808909199
:100A4000C9082FBF0895089520915408260F332711
:100A5000331F21323105ECF420919D08FC0190E018
:100A600080E0243069F082E00895A091540821913B
:100A7000AC014C5C574FA40FB52FB11D2C930196C0
:100A8000861798F380915408680F6093540880E0AB
:100A9000089581E0089510929D0881E080939C085C
:100AA0001092770861E084E10E94890361E085E1AA
:100AB0000E948903E9EBF0E080818E7F8083808152
:100AC0008D7F808388E48093B80085E48093BC00A8
:100AD0000895CF93DF9391E0909333088823B9F082
:100AE000C091B800D091BA008091BC008A7B8093FD
:100AF000BC0060E084E10E94890360E085E10E941F
:100B000089030E944B05D093BA00C093B800DF91CF
:100B1000CF9108950895E091D5088091D408E81701
:100B200030F4F0E0ED5EF74F808190E008958FEFB4
:100B30009FEF08959091D5088091D4082FEF3FEF53
:100B4000981748F4E92FF0E0ED5EF74F208130E090
:100B50009F5F9093D508C90108958091D408909122
:100B6000D508891B990B0895CF92DF92EF92FF92DF
:100B70000F931F93CF93DF937C01CB018A012091C8
:100B8000A308222389F0EB016B01C40ED51ECC15FE
:100B9000DD0569F06991D701ED91FC910190F0813B
:100BA000E02DC7011995F3CF642F0E942405C801D9
:100BB000DF91CF911F910F91FF90EF90DF90CF9039
:100BC0000895CF93DF931F92CDB7DEB7698320914D
:100BD000A3082223F9F02091D208203258F021E016
:100BE00030E0FC013383228390E080E00F90DF91BE
:100BF000CF9108958091D308E82FF0E0EC55F74F9E
:100C0000998190838F5F8093D3088093D20881E08D
:100C100090E0ECCF61E0CE0101960E942405F7CF71
:100C2000CF92DF92EF92FF920F931F93CF93DF93B8
:100C3000FC01C48121E02093A308C093C408109252
:100C4000D3081092D2088385682B84EA9BE00E9427
:100C5000E105D091D208D13208F092C00E94BF04C1
:100C60006B017C0180919D08811165C082E08093B9
:100C70009D0881E080939C088FEF80939B081092E1
:100C80009A08D0939908A4EAB8E0E9E7F8E080E090
:100C9000D81385C01092780880917808CC0FC82BA3
:100CA000C093780880917708813009F07CC0109259
:100CB00077080E94BF046B017C01809178088093C3
:100CC000BB0080919F089091A008A091A108B091CD
:100CD000A208892B8A2B8B2B99F00E94BF040091CC
:100CE0009F081091A0082091A1083091A2086C19CA
:100CF0007D098E099F090617170728073907E0F1B4
:100D00008091BC0083FDD9CF85EC8093BC000E940C
:100D1000BF046B017C0180919D08823009F445C0BD
:100D200080919B088F3F61F180919B08803241F157
:100D300080919B0825C080919F089091A008A09168
:100D4000A108B091A208892B8A2B8B2B09F48ACF9A
:100D50000E94BF0400919F081091A0082091A10853
:100D60003091A2086C197D098E099F090617170793
:100D70002807390708F076CF80919E080E94690500
:100D80001092D3081092D2081092A308DF91CF914D
:100D90001F910F91FF90EF90DF90CF9008959D915C
:100DA00091938F5F75CF85EEB0CF80919F08909122
:100DB000A008A091A108B091A208892B8A2B8B2BA7
:100DC00009F4A9CF0E94BF0400919F081091A008C8
:100DD0002091A1083091A2086C197D098E099F0904
:100DE000061717072807390708F095CFC5CF90E0F9
:100DF00080E008958FB7F89480910E088FBF089512
:100E000061E0FC0184810E94890380910D088111B9
:100E100010920D0808958EBD00000DB407FEFDCFA1
:100E20008EB508958FEF0C940B070F931F93CF93FC
:100E3000DF93EC010E9417058B010E9412078F3F80
:100E400069F00E941705601B710B6C177D07A8F3F2
:100E500080E0DF91CF911F910F91089581E0F9CF4C
:100E60008CBD9DBD0895CF93DF93EC0180910D085B
:100E7000811109C081E080930D088091B00B9091A1
:100E8000B10B0E94300760E08C81DF91CF910C9410
:100E900089038F929F92AF92BF92FF920F931F93FD
:100EA000CF93DF93EC01F62E49015A018E818823FE
:100EB00089F08F8198859C012F5F3F4F38872F8362
:100EC0008230924018F40E941207F3CFCE010E94A4
:100ED00000071E82CE010E9433078CE291E00E943F
:100EE00015078F2D80640E940B0708E110E0D501E3
:100EF000C401002E04C0B695A795979587950A94CE
:100F0000D2F70E940B0708501109083F8FEF18070E
:100F100071F785E9FF2021F028E087E8F2128FEFD2
:100F20000E940B0710E00E9412078A8787FF04C007
:100F30001F3F11F01F5FF7CFDF91CF911F910F91EE
:100F4000FF90BF90AF909F908F900895AF92BF9207
:100F5000CF92DF92EF92FF920F931F93CF93DF9385
:100F6000EC016901C801820F931F8130924050F556
:100F70008E81882379F088819981AA81BB81841729
:100F80009507A607B70731F48F819885C816D9064B
:100F900008F042C0488359836A837B838B85833002
:100FA00039F089E0440F551F661F771F8A95D1F7E6
:100FB0009A01AB0161E1CE010E944907882389F0C3
:100FC00083E08D83CE010E94000780E0DF91CF9106
:100FD0001F910F91FF90EF90DF90CF90BF90AF9057
:100FE00008950E9417055B010E9412078A878F3FB0
:100FF00069F40E9417056A197B096D327140A0F3EC
:101000008FE08D83CE010E940007DCCF8E3F89F4F4
:1010100018861F8281E08E838F8198858C159D05AF
:1010200050F40E9412078F819885019698878F83CC
:10103000F3CF8DE0E6CF6701E00EF11E0E941207AC
:10104000F60181936F01EE15FF05C1F78F81988539
:10105000080F191F18870F838985882319F0011538
:101060001240A0F08E81882389F08F8198859C01A1
:101070002F5F3F4F38872F838230924018F40E94B1
:101080001207F3CFCE010E9400071E8281E09ECF9F
:10109000CF92DF92EF92FF920F93CF93DF93EC0109
:1010A000690182E1411551056105710599F08B8552
:1010B000833039F089E0440F551F661F771F8A95EA
:1010C000D1F79A01AB0168E1CE010E94490788235C
:1010D00019F084E08D832DC08EEF0E940B077601FE
:1010E0008EEFD81AF70181917F010E940B07EC1453
:1010F000FD04C1F78FEF0E940B078FEF0E940B07D3
:101100000E9412078A878F71853071F4011116C011
:10111000CE010E94000781E0DF91CF910F91FF90F7
:10112000EF90DF90CF90089581E18D83CE010E94F2
:101130000007CE010E94000780E0EECF88E592E034
:101140000E941507811102C085E1C4CF20E030E084
:10115000A9016DE0CE010E944907882311F084E1C6
:10116000B9CF0E9412078111FACFD2CF0F934091CD
:101170000F085091100860911108709112084115E4
:1011800051056105710599F0082F27E039E080913C
:101190000409909105090E944808882349F010929B
:1011A0000F0810921008109211081092120881E096
:1011B0000F9108950F93CF93C82F80910609811145
:1011C00005C0C1E08C2FCF910F910895409114027A
:1011D0005091150260911602709117020C2F27E0B2
:1011E00039E080910409909105090E944808811115
:1011F00002C0C0E0E7CFCC2321F381E00E94B60813
:101200008823B9F310920609DDCF8F929F92AF9297
:10121000BF92EF92FF920F931F93CF934B015C010C
:10122000C42F8091140290911502A0911602B091E2
:10123000170288159905AA05BB0551F181E00E94A6
:10124000DA0881110BC080E0CF911F910F91FF90C0
:10125000EF90BF90AF909F908F90089587E0E82E19
:1012600089E0F82E00E012E030E020E0B501A401B2
:1012700080910409909105090E94A607882319F31B
:101280008092140290921502A0921602B092170258
:10129000409106094C2B4093060981E0D5CF8F92EF
:1012A0009F92AF92BF92CF92DF92EF92FF92CF9335
:1012B00022EB3BE03093050920930409882309F4CD
:1012C0006DC040E060E070E0CB010E940509811133
:1012D0000BC080E0CF91FF90EF90DF90CF90BF9058
:1012E000AF909F908F9008958091C50A8F7789F76E
:1012F0008091D10A9091D20AA091D30AB091D40AD8
:1013000084369105A105B10520F3C090CD0AD09097
:10131000CE0AE090CF0AF090D00AC114D104E104C3
:10132000F104B9F240E0C701B6010E940509882323
:1013300081F280911209909113098115924049F62A
:10134000A0911709AA2329F2609115097091160935
:101350006115710509F4BDCF20911409222309F408
:10136000B8CFA093D00B2093C20B90E080E030E088
:10137000E1E0F0E0C82FAF01082E02C0440F551F76
:101380000A94E2F72417350769F041E0480F019607
:101390008930910579F74093CB0B9BCFC12CD12C91
:1013A0007601C0CF8093CB0B20911D0930911E098F
:1013B00050E040E02115310541F420912B09309196
:1013C0002C0940912D0950912E092093C30B309385
:1013D000C40B4093C50B5093C60B46015701860EB4
:1013E000971EA11CB11C8092D10B9092D20BA0929F
:1013F000D30BB092D40BE0911809F0911909F09336
:10140000D70BE093D60BB0E00E94D925DC01CB01CD
:10141000880D991DAA1DBB1D8093D80B9093D90BE5
:10142000A093DA0BB093DB0B25E0EE0FFF1F2A959C
:10143000E1F7E150FE4FEF2FFF27E6958E0F9F1F3C
:10144000A11DB11D8093CC0B9093CD0BA093CE0B1F
:10145000B093CF0B80901A0990901B09B12CA12C4E
:101460008114910441F48090270990902809A0905C
:101470002909B0902A09C81AD90AEA0AFB0AC80C35
:10148000D91CEA1CFB1C04C0F694E794D794C794BB
:10149000CA95D2F7C092C70BD092C80BE092C90B85
:1014A000F092CA0B85EFC8168FE0D806E104F1046C
:1014B00028F48CE08093D50B81E00CCF80E125EF00
:1014C000C2162FEFD206E104F104A0F38091330994
:1014D00090913409A0913509B09136098093D80BC9
:1014E0009093D90BA093DA0BB093DB0B80E2E2CFA1
:1014F0004F925F926F927F928F929F92AF92BF9224
:10150000CF92DF92EF92FF920F931F93CF93DF93CF
:10151000EC01423051056105710590F480E0DF91E6
:10152000CF911F910F91FF90EF90DF90CF90BF90E0
:10153000AF909F908F907F906F905F904F900895A5
:1015400089859A85AB85BC850196A11DB11D84173F
:101550009507A607B70710F3CB88DC88ED88FE88CF
:101560008F89803109F042C0BB27A72F962F852F86
:10157000480159012A013B01C80ED91EEA1EFB1E73
:101580008091140290911502A0911602B091170259
:10159000C816D906EA06FB0699F58F898031C1F590
:1015A000B301A201552766277727440F551F495FCE
:1015B000564FFA0191828082809106098160809362
:1015C00006098A89823080F08D819E81AF81B8853D
:1015D0008C0D9D1DAE1DBF1D80930F0890931008AC
:1015E000A0931108B093120881E099CFDB01CA01E2
:1015F000E7E0B695A79597958795EA95D1F7B8CF87
:1016000040E0C701B6010E9405098111C6CF86CF0F
:10161000B301A2014F77552766277727440F551F3F
:10162000440F551F495F564FFA0180829182A28272
:10163000B382C2CF8F929F92AF92BF92CF92DF922E
:10164000EF92FF920F931F93CF93DF93FC0181855D
:101650009285A385B4850196A11DB11D84179507B8
:10166000A607B70770F480E0DF91CF911F910F912B
:10167000FF90EF90DF90CF90BF90AF909F908F90B2
:10168000089583889488A588B6888789803189F5EC
:10169000BB27A72F962F852FE9016A017B018F01B8
:1016A000BC01CD01680D791D8A1D9B1D809014021F
:1016B00090901502A0901602B09017028616970619
:1016C000A806B90601F5F8018789803111F5DD24F6
:1016D000EE24FF24F601EE0FFF1FE95FF64F808135
:1016E0009181B0E0A0E088839983AA83BB8381E0E5
:1016F000BBCFDB01CA01C7E0B695A7959795879543
:10170000CA95D1F7C9CF40E00E9405098111DBCF0E
:10171000AACFE894C7F8DD24EE24FF24F601EE0FEB
:10172000FF1FEE0FFF1FE95FF64F80819181A281BD
:10173000B381BF70D8CF4F925F926F927F92AF927A
:10174000BF92CF92DF92EF92FF920F931F93CF93AE
:10175000DF9300D01F92CDB7DEB78C0149835A8347
:101760006B837C835901C12CD12C7601412C82E002
:10177000582E612C712C49815A816B817C819E018C
:101780002F5F3F4FC8010E941A0B882339F1F801DF
:101790008585A301920104C0220F331F441F551FEA
:1017A0008A95D2F7DA01C901C80ED91EEA1EFB1EBE
:1017B00049815A816B817C818789803111F188EF61
:1017C0009FEFAFEFBFE0481759076A077B0798F212
:1017D000F501C082D182E282F38281E00F900F9006
:1017E0000F900F90DF91CF911F910F91FF90EF908D
:1017F000DF90CF90BF90AF907F906F905F904F90B1
:10180000089588EF9FEFA0E0B0E0DDCFCF93DF93A6
:10181000FC012581222321F080E0DF91CF91089502
:10182000EC018091D50B803159F582E08583178AD0
:10183000108E118E128E8091D60B9091D70BB0E046
:10184000A0E025E0880F991FAA1FBB1F2A95D1F79A
:10185000838B948BA58BB68B8EEB9BE09C8F8B8FB1
:1018600081E08C831E821F82188619861A861B8649
:101870001C861D861E861F86188A198A1A8ACDCF55
:10188000803251F683E085834091D80B5091D90B7B
:101890006091DA0B7091DB0B478B508F618F728FE9
:1018A0009F012D5E3F4F8EEB9BE00E949B0B8111B1
:1018B000D3CFB2CF8F929F92AF92BF92CF92DF924F
:1018C000EF92FF920F931F93CF93DF93EC018D81E3
:1018D00081110EC080E0DF91CF911F910F91FF9099
:1018E000EF90DF90CF90BF90AF909F908F90089532
:1018F0000B891C892D893E89041715072607370790
:1019000048F34A015B01823031F48A869B86AC86BB
:10191000BD8681E0E0CF81149104A104B10449F4B3
:101920001E821F82188619861A861B861C861D86B3
:10193000F0CF0A851B852C853D85EB8DFC8D85853B
:1019400090E00996B901A801415051096109710956
:10195000082E04C076956795579547950A94D2F757
:1019600075016401E1E0CE1AD108E108F10804C074
:10197000F694E794D794C7948A95D2F7C416D506FF
:10198000E606F70620F0012B022B032B11F58F89B9
:10199000988DA98DBA8D8E839F83A887B9878E0174
:1019A0000A5F1F4FC114D104E104F10409F4ADCF63
:1019B0004E815F816885798598018B8D9C8D0E9411
:1019C0001A0B91E0C91AD108E108F1088111EACF98
:1019D00081CFC41AD50AE60AF70AE1CF3F924F92A7
:1019E0005F926F927F928F929F92AF92BF92CF92AF
:1019F000DF92EF92FF920F931F93CF93DF93CDB7B8
:101A0000DEB72C970FB6F894DEBF0FBECDBF5C01DA
:101A1000DC015B968D909C905C9716964D905D9046
:101A20006D907C901997411451046104710409F47C
:101A300068C0BFEF4B1A5B0A6B0A7B0A312CF401BA
:101A400081859285A385B4859C01AD012F5F3F4FB1
:101A50004F4F5F4F29873A874B875C87730162013D
:101A60001D821E821F821886F40181859285A385BE
:101A7000B4852D813E814F815885281739074A0743
:101A80005B0708F056C089859A85AB85BC858C15A7
:101A90009D05AE05BF0550F482E0C82ED12CE12C87
:101AA000F12C92E0492E512C612C712C9E012F5F5C
:101AB0003F4FB701A601C4010E941A0B8823C9F148
:101AC00089819A81AB81BC81892B8A2B8B2B09F16F
:101AD000260137019FEF491A590A690A790A2D81AF
:101AE0003E814F8158852F5F3F4F4F4F5F4F2D8372
:101AF0003E834F8358873FEFC31AD30AE30AF30AA2
:101B0000B3CFF401408051806280738033243394DA
:101B100096CFC414D504E604F70409F70FEF1FEFBE
:101B20002FEF3FE0B701A601C4010E94780A81119E
:101B300019C080E02C960FB6F894DEBF0FBECDBF63
:101B4000DF91CF911F910F91FF90EF90DF90CF9099
:101B5000BF90AF909F908F907F906F905F904F90CD
:101B60003F900895D50116964D915D916D917C91B0
:101B70001997411551056105710539F097018601E5
:101B8000C4010E94780A8823A1F2D5011696CD924D
:101B9000DD92ED92FC921997332051F0D701C601E6
:101BA0000196A11DB11DF40180839183A283B383AB
:101BB000F5018789908DA18DB28D892B8A2B8B2B76
:101BC00039F48481C78AD08EE18EF28E8068848356
:101BD000F50184818062848381E0ACCF1F93CF9331
:101BE000DF93FC0125812223D1F1162FEC018481A2
:101BF00087FF2AC0668577858089918941E00E94A8
:101C00000509882361F1EA8980E2E89FF001112447
:101C1000E95FF64F309719F18D81823040F48B895E
:101C20009C89AD89BE89848F958FA68FB78F8F8948
:101C3000988D938F828F8F89988DA98DBA8DB58B52
:101C4000A48B8C818F778C83111103C08C818F7E44
:101C50008C83812FDF91CF911F910C94DA0880E063
:101C6000DF91CF911F910895FF920F931F93CF9310
:101C7000DF93EC018D81813041F090E080E0DF91D5
:101C8000CF911F910F91FF9008958C8181FFF5CF27
:101C900082FD1BC00091040910910509C8010E9432
:101CA00033070E941207F82EC8010E9400078FEF29
:101CB000F812E3CF8C8185FF1BC060E0CE010E944B
:101CC000EE0D8C818F7D8C83D8CF4B895C896D899B
:101CD0007E898A859B85AC85BD8584179507A60777
:101CE000B707C1F2CE010E945A0C8111D3CFC5CFE4
:101CF00040910F08509110086091110870911208DE
:101D0000452B462B472B21F080E00E94B608B5CF2B
:101D100080618C832A853B85317080E092E0821B54
:101D2000930BADCFCF93DF93EC0161E00E94EE0DFA
:101D3000882311F01D8281E0DF91CF9108952F92C9
:101D40003F924F925F926F927F928F929F92AF924B
:101D5000BF92CF92DF92EF92FF920F931F93CF9398
:101D6000DF9300D01F921F92CDB7DEB77C015B01DD
:101D7000342E5D83DC0115968C911597813009F026
:101D8000CEC014962C9021FECAC022FCB4C0C32C35
:101D9000DD8022947FE027222094B22DB1702B2E7B
:101DA000D7011A964D915D916D917C911D97C1144B
:101DB000D10409F428C15B968D919C915C97FC013C
:101DC00074807A948A019B0169E03695279517956E
:101DD00007956A95D1F770228A011170711020C0A1
:101DE00001151105E9F416964D915D916D917C9167
:101DF0001997411551056105710509F099C057966C
:101E00008D919D910D90BC91A02D0097A105B105DC
:101E100009F0B0C0C7010E94EE0C882309F47FC00E
:101E200080E092E0801B910B46018C159D0508F423
:101E30004C01D7015B964D915C915C9716968D9104
:101E40009D910D90BC91A02D0297A109B109FA01B5
:101E5000258504C0880F991FAA1FBB1F2A95D2F79A
:101E60004685578560897189840F951FA61FB71F06
:101E70009C01AD01270D311D411D511D29013A0164
:101E8000811432E0930609F07BC080911402909196
:101E90001502A0911602B091170284159505A605AA
:101EA000B70559F48FEF9FEFDC01809314029093F4
:101EB0001502A0931602B0931702022D9501B301EB
:101EC000A20180910409909105090E944808882385
:101ED00031F19EEFB91AC818D908F70182859385A8
:101EE000A485B585880D991DA11DB11D8287938795
:101EF000A487B58755CFF7014389548965897689C9
:101F000082859385A485B585481759076A077B079D
:101F100009F43DCFC7010E945A0C811138CF81E0EE
:101F200090E0D70113969C938E93129780E007C0A0
:101F30009E012F5F3F4F0E941A0B811102C090E05B
:101F400079C089819A81AB81BC81F701238D348D61
:101F5000F901278948EF5FEF60E070E0203121F060
:101F600048EF5FEF6FEF7FE084179507A607B7078D
:101F700008F050CFF70186839783A087B18750CFB1
:101F80000115110599F5D7011A964D915D916D9145
:101F90007C911D9753968D919D910D90BC91A02D94
:101FA000481759076A077B0708F181E00E94DA08A1
:101FB000882309F4B4CF4092140250921502609223
:101FC00016027092170280910609816080930609BB
:101FD000C801895F964FD5019C01280D391DFC0170
:101FE0002E173F0759F04D914193FACF41E0C301BD
:101FF000B2010E9405098111EBCF91CF281B390B4B
:10200000A20EB31E68CFF70183899489A589B6898A
:1020100084179507A607B70738F48481438B548B40
:10202000658B768B80688483F701848183FD1AC079
:10203000832D9D810F900F900F900F900F90DF9147
:10204000CF911F910F91FF90EF90DF90CF90BF90B5
:10205000AF909F908F907F906F905F904F903F9048
:102060002F90089561E0C7010E94EE0D882309F4C6
:1020700056CFDECFCF93DF931F92CDB7DEB7698304
:1020800041E050E0BE016F5F7F4F0E949F0E0F90B6
:10209000DF91CF910895FC01DB0112968D919C9107
:1020A0001397938382838BEB92E0918380831496C2
:1020B0008C911497848315968C9115978583169629
:1020C0004D915D916D917C911997468357836087FF
:1020D00071871A964D915D916D917C911D97428704
:1020E0005387648775871E964D915D916D917C91A4
:1020F000519746875787608B718B52968C91529778
:10210000828B53964D915D916D917C915697438B47
:10211000548B658B768B57964D915D916D917C912B
:102120005A97478B508F618F728F5B968D919C91E0
:10213000948F838F0895FC01818D928D009719F003
:1021400061E00C94EE0D0895DC015996ED91FC913F
:102150003097B9F083899489A589B68942855385DA
:1021600064857585841B950BA60BB70B811520E83C
:102170009207A105B10538F08FEF9FE7A0E0B0E02E
:10218000089590E080E00895DC0159968D919C912E
:10219000009739F0DC01ED91FC910480F581E02D90
:1021A000199490E080E00895CF93DF93EC01E98DDE
:1021B000FA8D309749F481E090E09B838A8390E028
:1021C00080E0DF91CF91089513821282898D9A8DDC
:1021D0000E949F0EE98DFA8D22813381232B59F7BE
:1021E000F0CFCF93DF931F92CDB7DEB76983DC01C9
:1021F000ED91FC910280F381E02D41E050E0BE01C1
:102200006F5F7F4F19950F90DF91CF9108952F92B7
:102210003F924F925F926F927F928F929F92AF9276
:10222000BF92CF92DF92EF92FF920F931F93CF93C3
:10223000DF9300D0CDB7DEB7FC018581811118C0D6
:102240008FEF9FEF0F900F900F90DF91CF911F9125
:102250000F91FF90EF90DF90CF90BF90AF909F9045
:102260008F907F906F905F904F903F902F90089548
:10227000848180FFE5CF4389548965897689828589
:102280009385A485B585312C212C481759076A07F9
:102290007B0719F022242394312C6F012101CE01F8
:1022A00001963C01DF011696BB83AA8341145104B9
:1022B00009F4C5C0F60142855385648575854A01D8
:1022C000F1E09F22D6015B968D919C915C978A01EB
:1022D0009B01E9E03695279517950795EA95D1F783
:1022E0001596EC91E230E9F5FC01628D738D848DD9
:1022F000958D600F711F821F931FA12C22E0B22EBB
:10230000A818B9084A145B0408F45201F6012481A4
:1023100026FD04C0A114F2E0BF0671F4009114027E
:102320001091150220911602309117020617170717
:102330002807390709F05EC040E00E94050988239C
:1023400009F47ECFC401895F964FD3019C012A0D09
:102350003B1DFC012E173F0709F46CC041914D93C2
:10236000F9CFDC011496BC90BA94B0228114910488
:1023700079F4B1100DC0452B462B472B69F5F601BA
:102380008789908DA18DB28D86839783A087B18731
:10239000D6015B96ED91FC915C9716966D917D91BF
:1023A0008D919C9119976250710981099109258538
:1023B00004C0660F771F881F991F2A95D2F70685DC
:1023C000178520893189600F711F821F931F6B0D44
:1023D000711D811D911D91CFD60116964D915D9174
:1023E0006D917C9119972A813B810E941A0B811172
:1023F000CFCF26CF730185019401AB01BC01809141
:102400000409909105090E94A607882309F418CFB2
:102410006A0C7B1CF60182859385A485B5858A0D9F
:102420009B1DA11DB11D82879387A487B5874A187C
:102430005B083CCF281B390B620E731EEBCF2A942E
:10244000232809F0FDCE898190E0FCCEFC01818D2E
:10245000928D009711F00C9407118FEF9FEF089564
:102460000F931F93CF93DF93EC01898D9A8D10E02A
:1024700000E0009799F00E9407118C010F3F1007B0
:1024800069F0898D9A8DFC01428553856485758537
:1024900041505109610971090E945A0CC801DF912C
:1024A000CF911F910F910895CF93DF93CBE5D2E0A9
:1024B0008881229660E00E94890382E0CB36D807AB
:1024C000B9F7CBE6D2E08881229670E060E00E9406
:1024D000E80382E0CF37D807B1F760E08FE1DF9102
:1024E000CF910C9489038AE10E946003892B49F003
:1024F0006CE271E080E090E00E94E40490E080E013
:10250000089588E10E946003892B49F06CE271E034
:1025100080E090E00E94E40481E090E0089586E18C
:102520000E946003892B49F06CE271E080E090E04A
:102530000E94E40482E090E008958CE10E94600330
:10254000892B49F06CE271E080E090E00E94E404A5
:1025500083E090E0089508950F931F93CF93DF9346
:10256000EC0180E2689FF0011124E95FF64F6A8B6D
:102570008091140290911502A0911602B091170259
:102580008E879F87A88BB98B0489158930E020E05E
:102590009801112700270F8B188F298F3A8F828D72
:1025A000938DB0E0A0E0AC01BD01402B512B622B1C
:1025B000732B4F8B588F698F7A8F83858871A9F41D
:1025C000848D958DA68DB78D8B8B9C8BAD8BBE8BA3
:1025D00081E08D8381E08C831E821F82188619869C
:1025E0001A861B861C861D8603C0803131F080E070
:1025F000DF91CF911F910F9108959E012D5E3F4F66
:102600008B8D9C8D0E949B0B882389F384E0E1CF06
:102610000F931F93CF938C01C62F0E9410066C2F2F
:102620006460C8010E9410066C2F6B7FC8010E9475
:10263000100683EC90E00197F1F7CF911F910F9175
:1026400008950F931F93CF93DF938C01D62FC42F40
:10265000607F642B0E94081380E1D89FB001112491
:102660006C2BC801DF91CF911F910F910C9408132F
:1026700040E061E086E19CE00E9421138BE39FE152
:102680000197F1F70895CF93DF9300D000D01F9208
:102690001F92CDB7DEB798E0EEE1F2E0DE011196D1
:1026A00001900D929A95E1F790911E0C961710F4F7
:1026B0006FEF690F262F30E0220F331F41E050E00B
:1026C0004C0F5D1F240F351FF9016081680F606892
:1026D00040E086E19CE028960FB6F894DEBF0FBE7E
:1026E000CDBFDF91CF910C94211341E00E942113C3
:1026F00081E090E00895AF92BF92CF92DF92EF9287
:10270000FF920F931F93CF93DF9300D000D000D0A0
:102710001F921F92CDB7DEB76C01FE013196CE013C
:102720000C967F0120E22193E817F907E1F7DA011F
:1027300020E037E09D91B92E9923A9F19E32B9F49A
:102740003A3091F480E02B960FB6F894DEBF0FBEBE
:10275000CDBFDF91CF911F910F91FF90EF90DF9050
:10276000CF90BF90AF90089528E03AE0E3CFE4E047
:10277000F3E08491882321F031969813FACFE2CFC9
:10278000321700F38FED890F8E35E0F68FE9890F50
:102790008A3118F440EEB42EB90EF701E20FF11DA4
:1027A000B0822F5FC7CF8981803261F28B01FB013C
:1027B000838D948DF601948F838FFB01168217828F
:1027C000108611861286138614861586F801828576
:1027D0009385A485B585438954896589768984174D
:1027E0009507A607B70708F0ADCF25E0B695A795E2
:1027F000979587952A95D1F7F82FFF70AF2EF8019E
:102800008581823008F49ECFC8010E94071197FD90
:1028100099CFF80182859385A485B5854F96A11D32
:10282000B11D82879387A487B587F0E2AF9EB00180
:102830001124695F764F6115710509F483CFFB019F
:102840008081882309F1853E19F4B11032C01EC081
:102850004BE050E0C7010E942A28892B09F0B6CF2F
:102860006A2DC6012B960FB6F894DEBF0FBECDBF02
:10287000DF91CF911F910F91FF90EF90DF90CF905C
:10288000BF90AF900C94AC12B1105CCFF601A28A4D
:102890008091140290911502A0911602B091170236
:1028A00086879787A08BB18BFB018081882309F4F1
:1028B00049CFBB24B3948ACFEF92FF920F931F931B
:1028C000CF93DF93EC017B018A0188819981009786
:1028D00029F02A813B812417350788F4B8016F5FFE
:1028E0007F4F0E944927009791F0998388831B832B
:1028F0000A832C813D81232B11F4FC0110821D835E
:102900000C83B701888199810E944B280CC0888173
:102910009981009711F00E94C026198218821D82A9
:102920001C821B821A82CE01DF91CF911F910F91E1
:10293000FF90EF900895FB0101900020E9F7319797
:10294000AF01461B570BDC01ED91FC910280F38136
:10295000E02D19948F929F92AF92BF92EF92FF92C7
:102960000F931F93CF93DF93CDB7DEB7A1970FB629
:10297000F894DEBF0FBECDBF7C01FA01CB0119A2D6
:10298000223008F42AE08E010F5D1F4F822E912C19
:10299000B12CA12CBF01A50194010E94E425F901ED
:1029A000CA016A300CF5605DD8016E938D01232B4E
:1029B000242B252B79F790E080E0109721F0BD01C2
:1029C000C7010E949B14A1960FB6F894DEBF0FBEFC
:1029D000CDBFDF91CF911F910F91FF90EF90BF90EE
:1029E000AF909F908F900895695CDECFCF92DF9279
:1029F000EF92FF920F931F93CF93DF936B01770FAB
:102A0000EE08FF08F7FE1FC0EC01E881F981019094
:102A1000F081E02D6DE219958C0144275527BA010C
:102A20004C195D096E097F092AE0CE010E94AA14A3
:102A3000800F911FDF91CF911F910F91FF90EF9029
:102A4000DF90CF9008952AE0B701A601DF91CF91E2
:102A50001F910F91FF90EF90DF90CF900C94AA14EC
:102A6000CF93DF93BC0187E09BE00E94F614EC015A
:102A700061EE72E087E09BE00E949B148C0F9D1F2B
:102A8000DF91CF910895CF93DF93AB01BC012AE092
:102A900087E09BE00E94AA14EC0161EE72E087E0FF
:102AA0009BE00E949B148C0F9D1FDF91CF91089596
:102AB000CF93DF93BC0187E09BE00E949B14EC0165
:102AC00061EE72E087E09BE00E949B148C0F9D1FDB
:102AD000DF91CF9108950C949B140E94381364EEFB
:102AE00072E086E19CE00E946B158091F70860E03F
:102AF000882349F081E10E9443136FEE72E086E182
:102B00009CE00C946B1582E10E94431363EF72E02A
:102B1000F6CFCF93DF93EC01662341F00E94381388
:102B200066EF72E086E19CE00E946B1561E080E058
:102B30000E944313BE0186E19CE00E94F614C83E49
:102B4000D34044F462E773E086E19CE0DF91CF91EB
:102B50000C946B15DF91CF910895CF93DF93EC0127
:102B60000E94381369E073E086E19CE00E946B15D7
:102B700061E080E00E944313BE0186E19CE0DF91AA
:102B8000CF910C94F614CF93DF93EC010E9438138D
:102B900069E573E086E19CE00E946B15209751F493
:102BA00060E083E10E94431368E173E086E19CE00A
:102BB0000E946B1561E080E00E9443136EE973E0B0
:102BC00086E19CE00E946B15C130D10551F461E0B3
:102BD00083E10E94431368E173E086E19CE00E9478
:102BE0006B1562E080E00E9443136BEA73E086E1BC
:102BF0009CE00E946B15C230D10551F462E083E184
:102C00000E94431368E173E086E19CE00E946B152B
:102C100063E080E00E9443136AE173E086E19CE098
:102C20000E946B15239761F463E083E10E944313D4
:102C300068E173E086E19CE0DF91CF910C946B1525
:102C4000DF91CF910895CF93DF93EC010E94381369
:102C500067E273E086E19CE00E946B15209751F4D7
:102C600060E083E10E94431368E173E086E19CE049
:102C70000E946B158091010990910209892B09F03E
:102C800046C061E080E00E94431363E373E086E1A5
:102C90009CE00E946B15C130D10551F461E083E1E5
:102CA0000E94431368E173E086E19CE00E946B158B
:102CB00062E080E00E94431366EF72E086E19CE0F0
:102CC0000E946B15C230D10551F462E083E10E948D
:102CD000431368E173E086E19CE00E946B1563E0BA
:102CE00080E00E94431362E473E086E19CE00E946E
:102CF0006B15239761F463E083E10E94431368E15D
:102D000073E086E19CE0DF91CF910C946B15DF912D
:102D1000CF91089580910109909102098130910528
:102D200009F480C01CF4892B49F008958230910584
:102D300009F47DC0039709F47FC008950E943813F9
:102D40006CE473E086E19CE00E946B1561E080E03A
:102D50000E94431361E673E086E19CE00E946B15DC
:102D60008091ED089091EE080A9734F462E773E0E1
:102D700086E19CE00E946B156091ED087091EE0871
:102D800086E19CE00E94F61462E080E00E9443131A
:102D900064E773E086E19CE00E946B15809110026D
:102DA00090911102A0911202B0911302883E9340BB
:102DB000A105B10530F462E773E086E19CE00E9472
:102DC0006B154091100250911102609112027091A6
:102DD00013022AE086E19CE00E94AA1462E873E0F4
:102DE00086E19CE00E946B1563E080E00E94431343
:102DF00066E873E086E19CE00E946B158091F7081D
:102E000063E0882349F081E10E9443136FEE72E092
:102E100086E19CE00C946B1582E10E94431365E906
:102E200073E0F6CF0E94381368E973E0F1CF0E9497
:102E3000381365EA73E0ECCF0E9438136AEB73E055
:102E4000E7CF85ED8093BC0080919F089091A0080A
:102E5000A091A108B091A2080796A11DB11D23E081
:102E6000B695A795979587952A95D1F72091BC009F
:102E700024FD03C010929D08089540919F08509131
:102E8000A0086091A1087091A208452B462B472B02
:102E900069F30097A105B10541F025E32A95F1F703
:102EA00000000197A109B109E1CF80919E080C941F
:102EB0006905EF92FF920F931F93CF93DF93EC017D
:102EC0007B018A011B821A8288EE93E0A0E0B0E0C9
:102ED0008C839D83AE83BF8387EC92E09983888344
:102EE0008DE190E00E9424269A8F898F009779F0D7
:102EF0002DE1F701DC0101900D922A95E1F74CE0FC
:102F000050E0B801CE010C960E945228188EDF9135
:102F1000CF911F910F91FF90EF9008952F923F92C4
:102F20004F925F926F927F928F929F92AF92BF92D9
:102F3000CF92DF92EF92FF920F931F93CF93DF9385
:102F4000CDB7DEB7CF57D1090FB6F894DEBF0FBEAD
:102F5000CDBF8C017E0183E7E80EF11C87E0EEEF28
:102F6000F3E0D70101900D928A95E1F7EC961FAE40
:102F70001EAEEC97EE961FAE1EAEEE97C258DF4F18
:102F800019821882CE57D04050E040E063EE72E0E4
:102F9000CE0186589F4F0E945C141F8E1E8E19A270
:102FA00018A21BA21AA24AE0FE0131966F01BF01CE
:102FB000C8010E947D25F60101900020E9F73197B4
:102FC000AF014C195D094E01FEE18F0E911CB60157
:102FD000C4010E945C14EC968EAD9FADEC970097F7
:102FE00009F46DC06E8D7F8D6115710509F465C0A2
:102FF000EE964EAD5FADEE972AA13BA14217530767
:1030000008F45BC00E944B288AA19BA1C258DF4FE5
:1030100099838883CE57D0401BA21AA28E8D9F8D94
:10302000009711F00E94C026C258DF4F8881998115
:10303000CE57D0400A3011050CF05AC0892B31F020
:10304000EC96EEADFFADEC97309721F410920C08A2
:10305000ECE0F8E08081F7018183C7010E945815F8
:1030600019A218A28BEB92E09F8F8E8F1BA21C825D
:103070001B829A8389831E82C4010E94060C8601EA
:10308000140157016FE270E0C5010E9440280097CB
:1030900009F491C0F50120812F3209F044C0FFEFFF
:1030A000AF1ABF0A902F812F8101292E382E922D21
:1030B000832D1801092F182FE5CF0E94C0268E8D71
:1030C0009F8DEC969FAF8EAFEC9788A199A1EE965D
:1030D0009FAF8EAFEE978AA19BA1C258DF4F998315
:1030E0008883CE57D0401F8E1E8E19A218A294CF6F
:1030F000009731F0EC96EEADFFADEC97309721F4F0
:1031000010920C08ECE0F8E02081F7012083029790
:1031100008F49CCFEC96EEADFFADEC97309709F438
:1031200095CF319697CF8A198D3008F08CE0682EB4
:10313000712CA301B501CE01885A9F4F0E945228DD
:10314000E8E5F0E0EC0FFD1FE60DF71D1082C80169
:103150000E94920EF80185818823F1F01EAE1DAE0B
:103160008BEB92E09CAF8BAF21961FAE2197E40CC6
:10317000F51CF7018081811127C0BE01655C7F4F7E
:10318000C6010E944B104DEC53E0B601CE01885AA7
:103190009F4F0E9459173FC0AE01485A5F4FB1017F
:1031A000C8010E947B138823C9F2A60CB71CC10179
:1031B0000E94920E7CCF25014E185F08B101CE010E
:1031C000CB960E944B10D3CF19A218A28BEB92E0A2
:1031D0009F8F8E8F1BA221968FAD2197811187C063
:1031E0006C961FAE1EAE6C9788EE93E0A0E0B0E048
:1031F000A0968CAF9DAFAEAFBFAFA09787EC92E02B
:103200006A969FAF8EAF6A97E3961FAE1EAEE397A6
:10321000A5961FAEA5976C968EAD9FAD6C979093BB
:10322000FE0B8093FD0BA0968CAD9DADAEADBFADFA
:10323000A0978093FF0B9093000CA093010CB09388
:10324000020CA4968CAD9DADAEADBFADA49780939E
:10325000030C9093040CA093050CB093060CA8E506
:10326000B0E0AC0FBD1F1C96E7E0FCE08D918193B0
:103270008CE0E431F807D1F7E396EEADFFADE397CC
:10328000F093150CE093140C309709F4EEC085818F
:10329000882309F4EAC01092F9081092F8081F8EEA
:1032A0001E8E19821A821B821C8210E000E0F12C13
:1032B000E12C8BEF9BE00E94A410892B09F493C0B2
:1032C0008BEF9BE00E9426128A3099F198012F5FC4
:1032D0003F4FF401E114F10429F091E0E916F10403
:1032E000D1F4F601E00FF11F80838901E2CFA7013D
:1032F000BE01655C7F4FC4010E947B13882309F4E3
:103300006FCFCE01CB960E94920EB401C6010E94EF
:103310004B10A7013ACFE091F808F091F908EE0FB1
:10332000FF1FED5CFD4F40815181040F151FF80117
:10333000DBCFB70187E09BE00E94F61461E773E002
:1033400087E09BE00E946B15E114F10479F4C4015D
:103350000E945F259093EE088093ED080E9430153F
:103360008FEFE81AF80A30E020E0BFCF10E000E06D
:10337000F1E0EF16F10491F4C6010E945F25BC0153
:10338000990F880B990B6093100270931102809330
:103390001202909313020E944315E2CFE091F808C5
:1033A000F091F908EE0FFF1FED5CFD4F0190F081E9
:1033B000E02DE00FF11F608187E09BE00E945B023F
:1033C0000F5F1F4F0632110549F782E793E00E9415
:1033D00058158091F8089091F90801969093F90892
:1033E0008093F808BDCF8091140C9091150C009734
:1033F00061F00E94920E8091140C9091150C0E9425
:10340000C0261092150C1092140C6FEC73E087E03C
:103410009BE00E946B158091F8089091F9080E943A
:1034200030150E948A16EC968EAD9FADEC970097F2
:1034300011F00E94C026C158DF4F0FB6F894DEBFCE
:103440000FBECDBFDF91CF911F910F91FF90EF90F5
:10345000DF90CF90BF90AF909F908F907F906F90B4
:103460005F904F903F902F9008950E9438136CEE1C
:1034700073E086E19CE00E946B1568E873E180E0F0
:1034800090E00E94E404CDCF1F920F920FB60F92EE
:1034900011240BB60F922F933F934F935F936F932B
:1034A0007F938F939F93AF93BF93EF93FF9387E0A7
:1034B0009BE00E943902FF91EF91BF91AF919F91E4
:1034C0008F917F916F915F914F913F912F910F90CD
:1034D0000BBE0F900FBE0F901F9018951F920F926A
:1034E0000FB60F9211240BB60F922F938F939F93C9
:1034F000EF93FF93E091170BF091180B8081E0910F
:103500001D0BF0911E0B82FD1DC090818091200B40
:103510008F5F8F732091210B821741F0E091200B78
:10352000F0E0E95FF44F958F8093200BFF91EF91CE
:103530009F918F912F910F900BBE0F900FBE0F9008
:103540001F9018958081F2CF1F920F920FB60F92A5
:1035500011242F933F938F939F93AF93BF938091A9
:10356000C6089091C708A091C808B091C9083091C9
:10357000C50823E0230F2D3758F50196A11DB11D75
:103580002093C5088093C6089093C708A093C808E5
:10359000B093C9088091CA089091CB08A091CC083B
:1035A000B091CD080196A11DB11D8093CA089093DA
:1035B000CB08A093CC08B093CD08BF91AF919F9159
:1035C0008F913F912F910F900FBE0F901F901895E4
:1035D00026E8230F0296A11DB11DD2CF1F920F9294
:1035E0000FB60F9211240BB60F922F933F934F9368
:1035F0005F936F937F938F939F93AF93BF93EF935B
:10360000FF93E0910E02F0910F021995FF91EF9157
:10361000BF91AF919F918F917F916F915F914F91EA
:103620003F912F910F900BBE0F900FBE0F901F90E8
:1036300018951F920F920FB60F9211240BB60F928E
:103640002F933F934F935F936F937F938F939F93AA
:10365000AF93BF93EF93FF93E0910C02F0910D02B3
:103660001995FF91EF91BF91AF919F918F917F91AC
:103670006F915F914F913F912F910F900BBE0F90E3
:103680000FBE0F901F9018951F920F920FB60F92BA
:1036900011240BB60F922F933F934F935F936F9329
:1036A0007F938F939F93AF93BF93EF93FF93E0919B
:1036B0000202F09103021995FF91EF91BF91AF9132
:1036C0009F918F917F916F915F914F913F912F913A
:1036D0000F900BBE0F900FBE0F901F9018951F926A
:1036E0000F920FB60F9211240BB60F922F933F93A8
:1036F0004F935F936F937F938F939F93AF93BF93FA
:10370000EF93FF93E0910002F09101021995FF9170
:10371000EF91BF91AF919F918F917F916F915F9149
:103720004F913F912F910F900BBE0F900FBE0F90B6
:103730001F9018951F920F920FB60F9211240BB67F
:103740000F922F933F934F935F936F937F938F933A
:103750009F93AF93BF93EF93FF93E0910A02F09191
:103760000B021995FF91EF91BF91AF919F918F91AE
:103770007F916F915F914F913F912F910F900BBE71
:103780000F900FBE0F901F9018951F920F920FB6BB
:103790000F9211240BB60F922F933F934F935F9389
:1037A0006F937F938F939F93AF93BF93EF93FF9309
:1037B000E0910802F09109021995FF91EF91BF91F4
:1037C000AF919F918F917F916F915F914F913F91B9
:1037D0002F910F900BBE0F900FBE0F901F9018955A
:1037E0001F920F920FB60F9211240BB60F922F93C8
:1037F0003F934F935F936F937F938F939F93AF9379
:10380000BF93EF93FF93E0910602F09107021995A1
:10381000FF91EF91BF91AF919F918F917F916F91A8
:103820005F914F913F912F910F900BBE0F900FBE64
:103830000F901F9018951F920F920FB60F921124A0
:103840000BB60F922F933F934F935F936F937F939A
:103850008F939F93AF93BF93EF93FF93E0910402F5
:10386000F09105021995FF91EF91BF91AF919F9152
:103870008F917F916F915F914F913F912F910F9019
:103880000BBE0F900FBE0F901F9018951F920F92B6
:103890000FB60F9211240BB60F922F933F934F93B5
:1038A0005F936F937F938F939F93AF93BF93EF93A8
:1038B000FF938091B900887F803609F44DC008F0ED
:1038C00040C0883209F4A9C028F5803109F49DC0B0
:1038D000C8F4882309F4FBC0883009F496C0FF912E
:1038E000EF91BF91AF919F918F917F916F915F9178
:1038F0004F913F912F910F900BBE0F900FBE0F90E5
:103900001F901895883109F488C0803241F7809360
:103910009B0814C0803409F49DC040F48033B9F38F
:103920008833E9F680939B0885ECB0C0803509F4B4
:1039300085C0883509F496C0883489F60E9421171D
:10394000CECF883909F48CC038F5883729F050F487
:10395000883611F0803719F683E080939D08109225
:10396000760857C0883809F47BC0803919F0803850
:1039700009F0B5CF80917608803208F071C0E091EF
:10398000760881E08E0F809376088091BB00F0E08E
:10399000EA5AF74F80833DC0803B39F0E0F4803A2B
:1039A00009F479C0883A09F09ACF84E080939D08A1
:1039B0001092550810925408E091D008F091D10867
:1039C00019958091540881110FC081E080935408AB
:1039D0001092340809C0803C09F4A6CF883C09F451
:1039E000A3CF883B09F07BCFE091550881E08E0F93
:1039F00080935508F0E0EC5CF74F80818093BB002A
:103A0000909155088091540829C08091780880933E
:103A1000BB0085EC8093BC0062CF90919A088091A6
:103A20009908981758F5E0919A0881E08E0F8093D5
:103A30009A08F0E0E758F74F8081E9CFE0919A08C3
:103A400081E08E0F80939A088091BB00F0E0E758E8
:103A5000F74F808390919A08809199089817C8F23F
:103A600085E8D8CFE0919A0881E08E0F80939A087C
:103A70008091BB00F0E0E758F74F808380919C086D
:103A800081115CCF81E08093770884EA8093BC0049
:103A900010929D0824CF85EC8093BC0010929D0865
:103AA00080917608803230F4E0917608F0E0EA5AAE
:103AB000F74F10826091760870E0E091CE08F091A7
:103AC000CF0886E598E019951092760808CF1092F5
:103AD0009B0834CFE7E0FBE01382128288EE93E08C
:103AE000A0E0B0E084839583A683B78327E932E022
:103AF0003183208325EC30E03587248724EC30E0C7
:103B00003787268720EC30E0318B208B21EC30E0AA
:103B1000338B228B22EC30E0358B248B26EC30E08B
:103B2000378B268B118E128E138E148EE4EAFBE0F7
:103B30001382128284839583A683B78329EA32E0B5
:103B400031832083E0EBFBE020E520831182E2EB70
:103B5000FBE0158216821186138642E050E060E099
:103B600070E0448755876687778713A215A614A649
:103B70002BEB32E033A722A717A6E6E1FCE0138285
:103B8000128229ED32E0318320832FE3248324E164
:103B9000218724E022871386EBEFFBE01382128259
:103BA00084839583A683B78387EC92E09183808397
:103BB000128E118E14860895CF93DF9300D01F923A
:103BC0001F92CDB7DEB7789484B5826084BD84B58A
:103BD000816084BD85B5826085BD85B5816085BD08
:103BE00080916E00816080936E00109281008091C0
:103BF0008100826080938100809181008160809348
:103C00008100809180008160809380008091B1006C
:103C100084608093B1008091B00081608093B00097
:103C200080919100826080939100809191008160E9
:103C300080939100809190008160809390008091AA
:103C4000A10082608093A1008091A1008160809397
:103C5000A1008091A00081608093A000809121014B
:103C600082608093210180912101816080932101F4
:103C70008091200181608093200180917A0084608E
:103C800080937A0080917A00826080937A0080919C
:103C90007A00816080937A0080917A0080688093B6
:103CA0007A001092C100E091170BF091180B82E09E
:103CB0008083E091130BF091140B1082E091150BAF
:103CC000F091160B8FEC808310921F0BE0911B0B71
:103CD000F0911C0B86E08083E091190BF0911A0B98
:103CE000808180618083E091190BF0911A0B8081B3
:103CF00088608083E091190BF0911A0B80818068B5
:103D00008083E091190BF0911A0B80818F7D808365
:103D100064EF71E080E090E00E94E4041092D50826
:103D20001092D4081092D3081092D2080E944B052A
:103D300082EC91E09093D1088093D00883EC91E0DD
:103D40009093CF088093CE0810921B0C8091200C8A
:103D5000823018F098E090931B0C80931E0C62E365
:103D600070E080E090E00E94E4046091210C86E124
:103D70009CE00E94100668EE73E080E090E00E94F4
:103D8000E40460E386E19CE00E9408130BE416E47F
:103D9000C8010197F1F760E386E19CE00E940813F7
:103DA000C8010197F1F760E386E19CE00E940813E7
:103DB00083E592E00197F1F760E286E19CE00E94E2
:103DC000081360911B0C606240E086E19CE00E9459
:103DD000211384E080931C0C40E06CE086E19CE0C1
:103DE0000E9421130E94381382E080931D0C40E052
:103DF00066E086E19CE00E94211340E062E086E1FB
:103E00009CE00E9421138BE39FE10197F1F788E08A
:103E10008093210C60E086E19CE00E94100661E046
:103E200080E20E94890361E082E20E94890360E0EF
:103E30008FE10E94890360E084E20E9489038091FF
:103E4000E10B882321F08CED9BE00E94920E1092F2
:103E5000BD0B1092BB0B1092B80B1092B70B84E005
:103E60008093B60B0E9417058B0161E08091B60B21
:103E70000E94B70361E08091B60B0E948903FFB6F0
:103E8000F8948091D608811127C0E3EFF2E0849185
:103E9000EDEAF2E09491E82FF0E0EE0FFF1FE25A16
:103EA000FD4FA591B491EC91E92321F461E085E304
:103EB0000E94890361E085E30E94B7038CB58061AD
:103EC0008CBD8CB580648CBD61E084E30E94B70337
:103ED00061E083E30E94B7038091D6088F5F8093EF
:103EE000D608FFBE82E58093B00B1092B10B809193
:103EF000B00B9091B10B0E943007BAE0FB2E8FEF10
:103F00000E940B07FA94F110FACF82EB9BE00E941B
:103F1000330720E030E0A90160E082EB9BE00E94E3
:103F20004907F82E8093BC0B21E0821719F10E94FB
:103F30001705601B710B613D774058F381E080935A
:103F4000B70B82EB9BE00E94000765E074E086E11E
:103F50009CE00E946B1561E080E00E94431367E1E2
:103F600074E086E19CE00E946B158AE294E00E9476
:103F70005815FFCF2AEA31E040E050E068E082EBDC
:103F80009BE00E94490782FF2AC0F092BD0B8091FE
:103F9000BD0BC12CD12CE12CF0E4FF2E823019F0A6
:103FA000C12CD12C760120E030E0A90167E382EB3F
:103FB0009BE00E944907A701960169E282EB9BE022
:103FC0000E9449078093BC0B8823D1F00E941705FB
:103FD000601B710B613D774030F388E0B0CFA4E007
:103FE000FA2E0E9412078093BC0BFA94F110F9CFBD
:103FF0008A3A11F082E0A3CF82E08093BD0BC7CF55
:104000008091BD0B8230D1F420E030E0A9016AE359
:1040100082EB9BE00E944907882311F086E08FCF56
:104020000E941207807C803C19F483E08093BD0BD2
:104030000E9412070E9412070E94120782EB9BE067
:104040000E94000780E58093B00B1092B10B81E0D5
:104050000E944F09882321F18CED9BE00E94060C01
:10406000882309F472CF90E080E00E948E170E94AE
:104070008A160BE512E0E2E00F371E07C1F409E2F1
:1040800012E0E3E3EE2EE2E0FE2EE016F106B9F0D8
:10409000F80180810E5F1F4F60E00E94B703F5CFEB
:1040A00080E00E944F09882309F44FCFD5CFF80153
:1040B00080810E5F1F4F61E00E94B703DCCF61E09B
:1040C0008FE10E94B7030E9454128EEB91E090930F
:1040D0000B0280930A0280916900806C80936900D2
:1040E000EB9A22242A9473E0372E412C512C6090B5
:1040F00026027090270280902802CE0104969D83AC
:104100008C83F0900309FF20D9F18091EF08811191
:104110000BC08091ED089091EE089093EC0880938D
:10412000EB0881E08093EF088091E30881110BC0D8
:1041300080911002909111029093E2088093E1081F
:1041400081E08093E3088EE10E9460038C01892B5B
:1041500009F4D8C08091010990910209892B71F46A
:1041600084E394E00E9458158091000991E089272A
:1041700080930009811102C00E9454121092030919
:1041800000910109109102090115110509F01EC4E1
:1041900080910009882309F4B2C00E941705C090DD
:1041A000FC08D090FD08E090FE08F090FF086C1924
:1041B0007D098E099F09C0901002D0901102E090F5
:1041C0001202F09013026C157D058E059F0508F410
:1041D00096C069827A828B826BE5E62E62E0F62ECB
:1041E000E091FA08F091FB08EE0FFF1FED5CFD4F28
:1041F0000190F081E02DE00FF11F80818B83CE01D3
:1042000001960E945F25D82E682F792F87E09BE0CA
:104210000E94F61462E773E087E09BE00E946B1552
:10422000F7018081F2E0EF0EF11C6D2D0E948903F1
:104230000F5F1F4F0830110599F683EE92E00E9440
:1042400058153BE6C32E32E0D32E48E0E42EF12C85
:104250000091FA081091FB08F801EE0FFF1FED5CCA
:10426000FD4F0190F081E02DEE0DFF1DDE01119656
:1042700081918D938C819D818A179B07C9F7CE010F
:1042800001960E945F25BC01F6018081F2E0CF0E0D
:10429000D11C0E94E80323E0E20EF11C86E2E8163E
:1042A000F104B1F60F5F1F4F1093FB080093FA085B
:1042B0008091F8089091F90808171907B1F4109245
:1042C000FB081092FA088091F70881110EC0109235
:1042D0000009609110027091110280911202909178
:1042E00013020E94E4040E9454120E941705609376
:1042F000FC087093FD088093FE089093FF080E94CD
:10430000C802FFCE8091DF089091E00881309105CE
:1043100071F18230910509F4F2C0892B09F02ECF9A
:10432000E1E0F0E0F093E008E093DF0887E293E05B
:104330000E9458151092DE081092DD081092DC08D9
:104340001092DB088091ED089091EE089093EC08B4
:104350008093EB0880911002909111029093E208F3
:104360008093E10890E080E00E94231607CF0E942E
:1043700073128130910509F448C0B4F4892B09F017
:10438000FDCE1092E0081092DF0869E474E087E047
:104390009BE00E946B1580910109909102090E9497
:1043A00030150E948A16EACE8230910509F44AC07F
:1043B000039709F0E3CE82E090E09093E0088093C9
:1043C000DF088091DD089091DE088130910509F4C5
:1043D00077C00CF055C0892B09F0D0CE00910109AF
:1043E000109102090115110509F053C084E994E008
:1043F0000E9458151092DC081092DB088091DB08AF
:104400009091DC080E94C315B9CE8091DD0890918F
:10441000DE08181619063CF42091010930910209B2
:104420000197232BE9F08091DD089091DE08009739
:10443000E1F484E694E00E9458158091DD089091A3
:10444000DE0892CF8091DD089091DE0883309105DF
:1044500054F72091010930910209232B21F701968D
:104460009093DE088093DD08DECF8130910519F44A
:1044700080E794E0E0CF029701F78FE794E0DBCF8D
:104480008230910551F1039709F078CE0E946D15A5
:1044900075CE81EA94E00130110559F08DEA94E07F
:1044A0000230110531F00330110509F0A7CF81EC7E
:1044B00094E00E9458151093DC080093DB089ECF0F
:1044C0008091ED089091EE080E9430158091EB08E4
:1044D0009091EC080E94AD1551CE60911002709140
:1044E000110280911202909113020E94431561E023
:1044F0008091E1089091E2080E9489153FCE0E94C8
:10450000731281309105E1F114F5892B09F036CE53
:10451000E1E0F0E0F093E008E093DF088091DD084F
:104520009091DE08892B21F484E694E00E945815CE
:104530008091010990910209892B09F07ECF809129
:10454000DD089091DE08019709F097CF91CF823076
:10455000910509F4FFC0039709F010CE8091DD08A2
:104560009091DE088130910509F4FAC10CF0B6C1D2
:10457000892B09F4BDC11092E0081092DF08FECD2E
:104580008091DD089091DE088130910509F44DC0DD
:1045900004F5892B09F0F2CD8091DB089091DC08BD
:1045A000181619062CF401979093DC088093DB0809
:1045B0000091DB081091DC080130110581F1BCF499
:1045C000012B21F18091DB089091DC080E943015CD
:1045D00015CF82309105D1F1039709F0CFCD8091AD
:1045E000F708811153CF81E08093F7084FCF023055
:1045F0001105C1F081EC94E00330110519F70E9418
:1046000058151093DC080093DB08DCCF84E994E0B4
:104610000E9458151092DC081092DB08D3CF81EA73
:1046200094E0EDCF8DEA94E0EACF8091EB08909191
:10463000EC08833691052CF401969093EC08809356
:10464000EB088091EB089091EC083ECF0E94170593
:104650006093D7087093D8088093D9089093DA08AC
:10466000E12C88E10E946003892B09F462C0A090CC
:10467000D708B090D808C090D908D090DA08053192
:104680001105CCF40E9417056A197B098C099D0954
:10469000643671058105910520F38091E1089091C0
:1046A000E2088F30F7E29F07ECF401969093E2085E
:1046B0008093E10817C0053F21E0120744F50E94EE
:1046C00017056A197B098C099D096A3071058105F6
:1046D000910538F28091E1089091E2088F30E7E28D
:1046E0009E071CF30E9417056093D7087093D808A3
:1046F0008093D9089093DA0860E08091E108909166
:10470000E2080E9489150F5F1F4FEF2CAACF0E946D
:1047100017056A157B058C059D0509F4A2CF8091CC
:10472000E1089091E2088F30F7E29F07DCF60A96E5
:10473000BDCFE11023CD8091E1089091E2088F3048
:1047400027E292072CF401969093E2088093E10807
:1047500060E0CECE8091DD089091DE088130910539
:10476000E9F1FCF4892B09F009CD8091DB089091E7
:10477000DC08833091052CF401969093DC0880933B
:10478000DB088091DB089091DC088130910501F114
:10479000B4F4892B09F032CE84E994E00E945815D4
:1047A0002DCE8230910521F1039709F0E7CC80915D
:1047B000F708882309F46ACE1092F70867CE823092
:1047C000910549F0039709F019CE81EC94E0E6CF0A
:1047D00081EA94E0E3CF8DEA94E0E0CF8091EB08AA
:1047E0009091EC08181619060CF02BCF019725CFE5
:1047F0000E9417056093D7087093D8088093D90852
:104800009093DA08E12C86E10E946003892B09F479
:1048100059C0A090D708B090D808C090D908D090BF
:10482000DA080531110564F50E9417056A197B093C
:104830008C099D09643671058105910520F38091ED
:10484000E1089091E208181619062CF4019790934C
:10485000E2088093E1080E9417056093D7087093DF
:10486000D8088093D9089093DA0860E08091E10835
:104870009091E2080E9489150F5F1F4FEF2CC3CF64
:10488000053F81E018076CF40E9417056A197B093F
:104890008C099D096A3071058105910508F4B3CF33
:1048A000CECF0E941705A616B706C806D90609F48A
:1048B000AACF8091E1089091E208181619065CF6DB
:1048C0000A97C5CFE1105ACC8091E1089091E20897
:1048D000181619060CF03CCF019736CF823091059F
:1048E00009F453C0039709F046CE0E948A1643CEBE
:1048F0008091DB089091DC08909302098093010974
:1049000068ED74E087E09BE00E946B1580910109DF
:10491000909102090E9430150E948A168091010927
:1049200090910209009759F40E94541210920009C4
:104930008091ED089091EE080E948E171CCE813078
:10494000910539F40E94541261E08FE10E948903BD
:1049500012CE0297029708F00ECE0E9454120BCE90
:104960008091EB089091EC089093EE088093ED080D
:1049700063EF74E087E09BE00E946B158091ED0887
:104980009091EE080E943015B0CF8091E10890918F
:10499000E208092E000CAA0BBB0B80931002909327
:1049A0001102A0931202B093130264E075E087E055
:1049B0009BE00E946B156091100270911102809132
:1049C0001202909113020E9443158FCF01301105FE
:1049D00009F066C00E9417056436710581059105CE
:1049E00008F48DCC8FE7C82E82E0D82E9BE6A92E46
:1049F00092E0B92EF12CE12CF6018081F2E0CF0E8D
:104A0000D11C863308F0865320917B00982F987034
:104A1000277F922B90937B008770806480937C002B
:104A200080917A00806480937A0080917A0086FD7C
:104A3000FCCF80917800A0917900BA2FA82F2CED9F
:104A400030E00E941D26A20191010E94BA25890131
:104A50009A010D5D1F4F2F4F3F4F0A321105ECF0A9
:104A6000033F110514F002EF10E0F5018081F2E040
:104A7000AF0EB11CB8010E94E80328E0E216F10471
:104A800019F4C8010E9430158FEFE81AF80A9AE06D
:104A9000E916F10409F0B0CF32CC10E000E0E5CF28
:104AA0000230110509F02BCC8EE10E94600361E019
:104AB000019709F060E084E20E94890320CCFC01A8
:104AC00088279927E89421912032E9F3293010F0C2
:104AD0002E30C8F32B3241F02D3239F4689404C0E3
:104AE0000E948825820F911D219120532A30C0F306
:104AF0001EF4909581959F4F0895BB274A3031F45D
:104B0000992322F4BDE2909581959F4F0C949125B5
:104B10007AE0979F902D879F802D910D1124089505
:104B2000BB27FB015527AA27880F991FAA1FA41787
:104B300010F0A41B83955051B9F7A05DAA3308F07B
:104B4000A95DA193009779F7B111B1931192CB01AF
:104B50000C94AA25DC01FC01672F71917723E1F702
:104B6000329704C07C916D9370836291AE17BF073A
:104B7000C8F30895052E97FB1EF400940E94D125DA
:104B800057FD07D00E94E42507FC03D04EF40C9497
:104B9000D12550954095309521953F4F4F4F5F4F10
:104BA000089590958095709561957F4F8F4F9F4F99
:104BB00008950E940626A59F900DB49F900DA49F76
:104BC000800D911D11240895A1E21A2EAA1BBB1B72
:104BD000FD010DC0AA1FBB1FEE1FFF1FA217B307C9
:104BE000E407F50720F0A21BB30BE40BF50B661FDF
:104BF000771F881F991F1A9469F7609570958095A3
:104C000090959B01AC01BD01CF010895A29FB00119
:104C1000B39FC001A39F700D811D1124911DB29FF0
:104C2000700D811D1124911D0895EE0FFF1F881F27
:104C30008BBF0790F691E02D19940E940626B7FFCE
:104C40000895821B930B08950F931F93CF93DF93C7
:104C50008230910510F482E090E0E091240CF09114
:104C6000250C30E020E0B0E0A0E0309799F4211569
:104C7000310509F44AC0281B390B24303105D8F519
:104C80008A819B816115710589F1FB019383828380
:104C9000FE0111C0408151810281138148175907DB
:104CA000E0F04817590799F4109761F012960C93A9
:104CB000129713961C933296CF01DF91CF911F91DB
:104CC0000F9108950093240C1093250CF4CF211517
:104CD000310551F04217530738F0A901DB019A0161
:104CE000BD01DF01F801C1CFEF01F9CF9093250C91
:104CF0008093240CCDCFFE01E20FF31F819391939B
:104D00002250310939832883D7CF2091220C30914A
:104D1000230C232B41F420911A0230911B02309373
:104D2000230C2093220C2091180230911902211596
:104D3000310541F42DB73EB740911C0250911D0240
:104D4000241B350BE091220CF091230CE217F307A2
:104D5000A0F42E1B3F0B2817390778F0AC014E5FEB
:104D60005F4F2417350748F04E0F5F1F5093230CF9
:104D70004093220C819391939FCFF0E0E0E09CCF91
:104D8000CF93DF930097E9F0FC01329713821282F0
:104D9000A091240CB091250CED0130E020E010979B
:104DA000A1F420813181820F931F2091220C309138
:104DB000230C2817390709F061C0F093230CE09306
:104DC000220CDF91CF910895EA01CE17DF07E8F5B5
:104DD0004A815B819E0141155105B1F7E901FB83D1
:104DE000EA8349915991C40FD51FEC17FD0761F46F
:104DF000808191810296840F951FE90199838883B0
:104E0000828193819B838A83F0E0E0E012968D910A
:104E10009C9113970097B9F52D913C911197CD0175
:104E20000296820F931F2091220C3091230C281799
:104E3000390739F6309751F51092250C1092240C51
:104E4000B093230CA093220CBCCFD383C2834081A8
:104E50005181840F951FC817D90761F44E5F5F4FCA
:104E600088819981480F591F518340838A819B8192
:104E7000938382832115310509F0B0CFF093250C7F
:104E8000E093240C9ECFFD01DC01C0CF138212827F
:104E9000D7CF4F925F926F927F928F929F92AF92F5
:104EA000BF92CF92DF92EF92FF920F931F93CF9317
:104EB000DF938C01009799F4CB01DF91CF911F9183
:104EC0000F91FF90EF90DF90CF90BF90AF909F90A9
:104ED0008F907F906F905F904F900C942426FC01F0
:104EE000E60FF71F9C0122503109E217F30708F47F
:104EF000AEC0D901CD91DC911197C617D70720F12B
:104F0000C530D10578F0CE0104978617970750F089
:104F1000C61BD70B2297C193D1936D937C93CF017E
:104F20000E94C026C801DF91CF911F910F91FF9081
:104F3000EF90DF90CF90BF90AF909F908F907F9039
:104F40006F905F904F9008955B01AC1ABD0A4C01C1
:104F50008C0E9D1EA091240CB091250C512C412C3F
:104F6000F12CE12C109731F58091220C9091230CBB
:104F70008815990509F05CC04616570608F058C018
:104F80008091180290911902009741F48DB79EB755
:104F900040911C0250911D02841B950BE817F907E4
:104FA00008F055C0F093230CE093220CF9017183B3
:104FB0006083B8CF8D919C91119712966C90129747
:104FC00013967C901397A815B90559F56C0142E02A
:104FD000C40ED11CCA14DB0420F1AC014A195B09D0
:104FE000DA011296159780F06282738251834083B2
:104FF000D9016D937C93E114F10471F0D7011396FC
:10500000FC93EE9312978ECF22968C0F9D1FF90181
:1050100091838083F301EFCFF093250CE093240C70
:1050200081CF4816590608F42C017D01D3019ACF8F
:10503000CB010E9424267C01009749F0AE01B80103
:105040000E943728C8010E94C02687016BCF10E05C
:1050500000E068CFFB01DC0104C08D910190801954
:1050600021F441505040C8F7881B990B0895FB016B
:10507000DC0102C001900D9241505040D8F70895D4
:10508000FC018191861721F08823D9F7992708958B
:105090003197CF010895FB01DC0101900D920020B2
:1050A000E1F70895FB01DC014150504048F00190C8
:1050B0000D920020C9F701C01D9241505040E0F709
:0650C0000895F894FFCFF3
:1050C600230523052305230523052305230523059A
:1050D600E8030000FFFFFFFF0000260C8000000031
:1050E6004000140054003030301A00180016001C1E
:1050F600001E00E607C0079A0774074E0728070236
:1051060007DC06B60690066A0644061E06F805D2B1
:1051160005AC05860560053A051405170019001B40
:10512600001D0021002300250027000200030005C2
:105136000006000700080009000B000C000D003EE9
:10514600003F004000410042004300440045003A51
:10515600003B00000000005B02C501F201A802232B
:10516600020102150200000000E105B405F7068AF7
:1051760005AD059A058B05000000003A10C50134FF
:105186000EC40100000000F110D410C4109B10A43E
:105196001026123012000000007513C501F706C470
:1051A600010D0A004C6F6F70204D6F64653A00590F
:1051B6004553004E4F00456469742050726F677204
:1051C600616D2053706565640043686F6F73652079
:1051D60050726F6772616D002A004C4154454E4310
:1051E60054204155544F004368616E6765204D6FEA
:1051F6006465004368616E67652050726F6772610F
:105206006D004C6F6F70204D6F6465004D6F646567
:105216003A202020202020202050524F4752414D36
:105226000050726F6772616D20233A202020202083
:1052360020202000496E74657276616C3A20202029
:105246002000206D73004C6F6F70204D6F64653ABF
:1052560020202020004E6F004D6F64653A204D419E
:105266004E55414C004D6F64653A204C4154454EB5
:105276004359204D414E55414C004D6F64653A20CF
:105286004C4154454E4359204155544F002F004E32
:10529600756D626572206F66207374657073206920
:1052A6006E2070726F6772616D3A200050726F6780
:1052B60072616D204E6F7420466F756E64003030DB
:1052C6002E74787400534420496E697469616C6960
:1052D6007A6174696F6E004661696C65642E20544C
:1052E6007279205265626F6F74005344206661695B
:1052F6006C6564005374617274202F2053746F7050
:105306002050726F6772616D004261636B20746F2B
:105316002072756E6E696E672055492C204D6F643C
:10532600653A20004348414E4745204D4F444500CD
:105336004348414E47452050524F4752414D004346
:1053460048414E47452050524F4752414D205350F9
:105356004545440050726F6772616D204D6F6465FC
:10536600004D616E75616C204D6F6465004C617413
:10537600656E6379204D6F6465204D616E75616C55
:10538600004C6174656E6379204D6F6465204175CC
:10539600746F6D61746963004261636B20746F2082
:1053A60072756E6E696E672055492C206D6F646547
:1053B6003A200050726F6772616D206E756D62657E
:1053C600723A200050726F6772616D207370656566
:0453D600643A200015
:00000001FF
