:100000000C948D010C94001D0C94D51C0C94AA1C0E
:100010000C947F1C0C94541C0C94291C0C94FE1BF7
:100020000C94D31B0C94BE010C94BE010C94BE0125
:100030000C94BE010C94BE010C94BE010C94BE0144
:100040000C94BE010C94BE010C94BE010C94BE0134
:100050000C94BE010C94BE010C94BE010C94891B3F
:100060000C94BE010C94531B0C94291B0C94BE01E0
:100070000C94BE010C94BE010C94BE010C94BE0104
:100080000C94BE010C94BE010C94BE010C94BE01F4
:100090000C94BE010C94BE010C94BE010C942B1D5B
:1000A0000C94BE010C94BE010C94BE010C94BE01D4
:1000B0000C94BE010C94BE010C94BE010C94BE01C4
:1000C0000C94BE010C94BE010C94BE010C94BE01B4
:1000D0000C94BE010C94BE010C94BE010C94BE01A4
:1000E0000C94BE010C9438030C94AA020C940302E5
:1000F0000C9423120C94C5010C945D020C947213A1
:100100000C945E030C944D040C9419030C948C0510
:100110000C944E150C9437100C94BC040C94590399
:100120000C9494040C942F040C941F030C94170249
:100130000C9425020C94F9060C9455040C94390483
:100140000C947B040C94C6010C948D050C9425052D
:100150000C9427030C949E040C94C1100C9422045C
:100160000C94B2040C9498100C942A040C942B0355
:100170000C949C050C94A1100C9471040C94C40173
:100180000C943E030C94EE100C9423030C945D0429
:100190000C94E3050C948A040C9446030C945403C9
:1001A0000C94A8040C9467040C94D1100C94B6051C
:1001B0000C945A030C9442030C9434030C944C0397
:1001C0000C94C7010C94AF050C94C0010C942E0341
:1001D0000C94F4010C9443040C942D120C94310EE5
:1001E0000C944F1E0C9450030000220025002800A0
:1001F0002B002E003100340002010000050108012F
:100200000B01000020002300260029002C002F00F5
:1002100032000001000003010601090100000A0B81
:1002200002090C0D0E080703040100000000000085
:1002300000000000000000000000000000000000BE
:10024000000000000000000012111000000000007B
:10025000000000000000000000000000000000009E
:10026000000000002100240027002A002D0030009B
:10027000330001010000040107010A0101021020FE
:1002800020080810204010204080020102010804CC
:100290000201010204081020408080402010080460
:1002A00002018004020180402010080402010804B9
:1002B00002010102040810204080010204081020FD
:1002C0004080050505050705080808080202020226
:1002D0000A0A0808040404040101010101010101E2
:1002E0000303030303030303040707070C0C0C0CAD
:1002F0000C0C0C0C02020202060606060606060696
:100300000B0B0B0B0B0B0B0B7C3C3E5E2B3D3F2F6B
:100310005B5D3B2C2A225C004F1E11241FBECFEFD9
:10032000D1E2DEBFCDBF00E00CBF15E0A0E0B2E03F
:10033000E6EBF5E500E00BBF02C007900D92AE378B
:10034000B107D9F72CE0AEE7B5E001C01D92A43E9D
:10035000B207E1F711E0CDE8D1E000E006C0219757
:100360000109802FFE010E948D28CC38D10780E042
:100370000807A9F70E94171F0C94D92A0C940000B3
:1003800081E0809385090895089508950895AF92B6
:10039000BF92CF92DF92EF92FF920F931F93CF9372
:1003A000DF936C017B018B01040F151FEB015E01D4
:1003B000AE18BF08C017D10759F06991D601ED9169
:1003C000FC910190F081E02DC6011995892B79F7F8
:1003D000C501DF91CF911F910F91FF90EF90DF90BA
:1003E000CF90BF90AF900895FC01538D448D252F81
:1003F00030E0842F90E0821B930B541710F0CF96BF
:10040000089501970895FC01918D828D981761F0F0
:10041000A28DAE0FBF2FB11D5D968C91928D9F5F07
:100420009F73928F90E008958FEF9FEF0895FC01E6
:10043000918D828D981731F0828DE80FF11D858D99
:1004400090E008958FEF9FEF0895FC01918D228D2C
:10045000892F90E0805C9F4F821B91098F739927B1
:10046000089589E89BE00E94250221E0892B09F488
:1004700020E0822F0895FC01A48DA80FB92FB11D93
:10048000A35ABF4F2C91848D90E001968F739927CA
:10049000848FA689B7892C93A089B1898C918370A8
:1004A00080648C93938D848D981306C00288F389A1
:1004B000E02D80818F7D80830895EF92FF920F93CE
:1004C0001F93CF93DF93EC0181E0888F9B8D8C8D00
:1004D00098131AC0E889F989808185FF15C09FB7F4
:1004E000F894EE89FF896083E889F98980818370B7
:1004F000806480839FBF81E090E0DF91CF911F9166
:100500000F91FF90EF900895F62E0B8D10E00F5F86
:100510001F4F0F731127E02E8C8D8E110CC00FB65C
:1005200007FCFACFE889F989808185FFF5CFCE01F4
:100530000E943B02F1CFEB8DEC0FFD2FF11DE35A32
:10054000FF4FF0829FB7F8940B8FEA89FB89808177
:100550008062CFCFCF93DF93EC01888D8823B9F0F1
:10056000AA89BB89E889F9898C9185FD03C08081BE
:1005700086FD0DC00FB607FCF7CF8C9185FFF2CF3B
:10058000808185FFEDCFCE010E943B02E9CFDF9154
:10059000CF91089580E090E0892B29F00E943102EC
:1005A00081110E94000080E090E0892B49F080E0FA
:1005B00090E0892B29F00E94000081110E94000028
:1005C00080E090E0892B49F080E090E0892B29F0D1
:1005D0000E94000081110E94000080E090E0892BC1
:1005E00049F080E090E0892B29F00E940000811101
:1005F0000C94000008958150823108F05AC0E82F11
:10060000F0E08827E95FFC4F8F4F0C948D2827037B
:100610002B0319031F03230359032E033403380349
:100620003E03420346034C035003590354035A0349
:100630005E03809180008F77809380000895809181
:1006400080008F7DF9CF80918000877FF5CF84B5C2
:100650008F7784BD089584B58F7DFBCF8091B000E6
:100660008F778093B00008958091B0008F7DF9CF8F
:10067000809190008F7780939000089580919000F2
:100680008F7DF9CF80919000877FF5CF8091A0007A
:100690008F778093A00008958091A0008F7DF9CF7F
:1006A0008091A000877FF5CF809120018F77809384
:1006B00020010895809120018F7DF9CF8091200144
:1006C000877FF5CFCF93DF93282F30E0F901E45EE9
:1006D000FD4F8491F901E458FD4FD491F901EE5397
:1006E000FD4FC491CC23A1F081110E94FB02EC2F9D
:1006F000F0E0EE0FFF1FEE5FFD4FA591B491EC917E
:10070000ED2381E090E009F480E0DF91CF9108953E
:1007100080E090E0FACF1F93CF93DF93282F30E053
:10072000F901E45EFD4F8491F901E458FD4FD49145
:10073000F901EE53FD4FC491CC23A9F0162F81117E
:100740000E94FB02EC2FF0E0EE0FFF1FE851FE4F7E
:10075000A591B4918FB7F894EC91111108C0D09580
:10076000DE23DC938FBFDF91CF911F910895DE2BA5
:10077000F8CFCF93DF9390E0FC01E458FD4F249134
:100780008E539D4FFC0184918823D1F090E0880F17
:10079000991FFC01EE59FD4FA591B491FC01E85160
:1007A000FE4FC591D49161110EC09FB7F8948C9102
:1007B000E22FE0958E238C932881E223E8839FBF6C
:1007C000DF91CF9108958FB7F894EC91E22BEC93E1
:1007D0008FBFF6CF1F93CF93DF93182FEB0161E00C
:1007E0000E94B903209739F460E0812FDF91CF9107
:1007F0001F910C948B03CF3FD10511F461E0F5CF2D
:10080000E12FF0E0E45EFD4FE491E150E23108F0C9
:10081000B3C0F0E08827E05FFB4F8F4F0C948D282A
:1008200022042A042F0439044304BC044D04550453
:100830005D04670471047B048A049404BC049E0470
:10084000A804B20484B5806884BDC7BDDF91CF9190
:100850001F91089584B5806284BDC8BDF7CF809193
:100860008000806880938000D0938900C0938800C6
:10087000EDCF80918000806280938000D0938B00C8
:10088000C0938A00E3CF80918000886080938000CD
:10089000D0938D00C0938C00D9CF8091B000806838
:1008A0008093B000C093B300D1CF8091B00080623C
:1008B0008093B000C093B400C9CF8091900080684D
:1008C00080939000D0939900C0939800BFCF8091FF
:1008D0009000806280939000D0939B00C0939A0018
:1008E000B5CF80919000886080939000D0939D0058
:1008F000C0939C00ABCF8091A00080688093A00043
:100900008091A0008F7B8093A000D093A900C0931A
:10091000A8009CCF8091A00080628093A000D0931B
:10092000AB00C093AA0092CF8091A0008860809312
:10093000A000D093AD00C093AC0088CF809120017F
:10094000806880932001D0932901C09328017ECF35
:1009500080912001806280932001D0932B01C0936D
:100960002A0174CF80912001886080932001D09368
:100970002D01C0932C016ACFC038D1050CF03ECFB9
:1009800033CF3FB7F8948091330990913409A09107
:100990003509B091360926B5A89B05C02F3F19F03F
:1009A0000196A11DB11D3FBFBA2FA92F982F8827EF
:1009B000BC01CD01620F711D811D911D42E0660FCA
:1009C000771F881F991F4A95D1F708958F929F929C
:1009D000AF92BF92CF92DF92EF92FF926B017C01B8
:1009E0000E94C1044B015C01C114D104E104F10473
:1009F000B9F00E94C104681979098A099B09683E07
:100A000073408105910580F321E0C21AD108E10805
:100A1000F10888EE880E83E0981EA11CB11CE4CF7B
:100A2000FF90EF90DF90CF90BF90AF909F908F900E
:100A300008952FB7F89460912F0970913009809133
:100A40003109909132092FBF089508952091BD0872
:100A5000260F3327331F21323105ECF4209106098C
:100A6000FC0190E080E0243069F082E00895A091DC
:100A7000BD082191AC014356574FA40FB52FB11DAE
:100A80002C930196861798F38091BD08680F6093A8
:100A9000BD0880E0089581E008951092060981E084
:100AA000809305091092E00861E084E10E948B03C5
:100AB00061E085E10E948B03E9EBF0E080818E7FAD
:100AC000808380818D7F808388E48093B80085E473
:100AD0008093BC000895CF93DF9391E090939C089E
:100AE0008823B9F0C091B800D091BA008091BC00C1
:100AF0008A7B8093BC0060E084E10E948B0360E00D
:100B000085E10E948B030E944D05D093BA00C093EB
:100B1000B800DF91CF9108950895E0913E0980914A
:100B20003D09E81730F4F0E0E458F74F808190E099
:100B300008958FEF9FEF089590913E0980913D09B0
:100B40002FEF3FEF981748F4E92FF0E0E458F74F04
:100B5000208130E09F5F90933E09C9010895809104
:100B60003D0990913E09891B990B0895CF92DF9220
:100B7000EF92FF920F931F93CF93DF937C01CB01F2
:100B80008A0120910C09222389F0EB016B01C40E2C
:100B9000D51ECC15DD0569F06991D701ED91FC9169
:100BA0000190F081E02DC7011995F3CF642F0E94C9
:100BB0002605C801DF91CF911F910F91FF90EF9013
:100BC000DF90CF900895CF93DF931F92CDB7DEB71C
:100BD000698320910C092223F9F020913B092032EE
:100BE00058F021E030E0FC013383228390E080E084
:100BF0000F90DF91CF91089580913C09E82FF0E0AC
:100C0000E35FF64F998190838F5F80933C098093D7
:100C10003B0981E090E0ECCF61E0CE0101960E94BB
:100C20002605F7CFCF92DF92EF92FF920F931F939B
:100C3000CF93DF93FC01C48121E020930C09C09382
:100C40002D0910923C0910923B098385682B8CE595
:100C50009CE00E94E305D0913B09D13208F092C09C
:100C60000E94C1046B017C0180910609811165C05D
:100C700082E08093060981E0809305098FEF8093DD
:100C8000040910920309D0930209ADE0B9E0E2EE45
:100C9000F8E080E0D81385C01092E1088091E10867
:100CA000CC0FC82BC093E1088091E008813009F097
:100CB0007CC01092E0080E94C1046B017C0180910D
:100CC000E1088093BB008091080990910909A091E7
:100CD0000A09B0910B09892B8A2B8B2B99F00E9462
:100CE000C104009108091091090920910A09309165
:100CF0000B096C197D098E099F090617170728072C
:100D00003907E0F18091BC0083FDD9CF85EC809359
:100D1000BC000E94C1046B017C01809106098230F5
:100D200009F445C0809104098F3F61F18091040965
:100D3000803241F18091040925C080910809909189
:100D40000909A0910A09B0910B09892B8A2B8B2BD9
:100D500009F48ACF0E94C104009108091091090981
:100D600020910A0930910B096C197D098E099F09A0
:100D7000061717072807390708F076CF809107096B
:100D80000E946B0510923C0910923B0910920C09CD
:100D9000DF91CF911F910F91FF90EF90DF90CF9057
:100DA00008959D9191938F5F75CF85EEB0CF80911F
:100DB000080990910909A0910A09B0910B09892BA2
:100DC0008A2B8B2B09F4A9CF0E94C104009108093A
:100DD0001091090920910A0930910B096C197D09BC
:100DE0008E099F09061717072807390708F095CFBE
:100DF000C5CF90E080E00895089561E0FC01848112
:100E00000E948B03809177088111109277080895D2
:100E10008EBD00000DB407FEFDCF8EB508958FEF97
:100E20000C9408070F931F93CF93DF93EC010E945C
:100E300019058B010E940F078F3F69F00E94190569
:100E4000601B710B6C177D07A8F380E0DF91CF91D9
:100E50001F910F91089581E0F9CF8CBD9DBD08953C
:100E6000CF93DF93EC0180917708811109C081E075
:100E7000809377088091680C9091690C0E942D07EF
:100E800060E08C81DF91CF910C948B038F929F92C5
:100E9000AF92BF92FF920F931F93CF93DF93EC011A
:100EA000F62E49015A018E81882389F08F81988519
:100EB0009C012F5F3F4F38872F838230924018F478
:100EC0000E940F07F3CFCE010E94FD061E82CE01C5
:100ED0000E9430078CE291E00E9412078F2D8064FF
:100EE0000E94080708E110E0D501C401002E04C0EB
:100EF000B695A795979587950A94D2F70E9408070B
:100F000008501109083F8FEF180771F785E9FF2096
:100F100021F028E087E8F2128FEF0E94080710E026
:100F20000E940F078A8787FF04C01F3F11F01F5FD1
:100F3000F7CFDF91CF911F910F91FF90BF90AF90AE
:100F40009F908F900895AF92BF92CF92DF92EF92D1
:100F5000FF920F931F93CF93DF93EC016901C801B8
:100F6000820F931F8130924050F58E81882379F053
:100F700088819981AA81BB8184179507A607B70745
:100F800031F48F819885C816D90608F042C048838D
:100F900059836A837B838B85833039F089E0440FE2
:100FA000551F661F771F8A95D1F79A01AB0161E142
:100FB000CE010E944607882389F083E08D83CE010D
:100FC0000E94FD0680E0DF91CF911F910F91FF906D
:100FD000EF90DF90CF90BF90AF9008950E941905D9
:100FE0005B010E940F078A878F3F69F40E941905F1
:100FF0006A197B096D327140A0F38FE08D83CE01B9
:101000000E94FD06DCCF8E3F89F418861F8281E0A6
:101010008E838F8198858C159D0550F40E940F0753
:101020008F819885019698878F83F3CF8DE0E6CFE7
:101030006701E00EF11E0E940F07F60181936F0118
:10104000EE15FF05C1F78F819885080F191F1887C6
:101050000F838985882319F001151240A0F08E8135
:10106000882389F08F8198859C012F5F3F4F3887B7
:101070002F838230924018F40E940F07F3CFCE01E5
:101080000E94FD061E8281E09ECFCF92DF92EF92FA
:10109000FF920F93CF93DF93EC01690182E1411539
:1010A00051056105710599F08B85833039F089E030
:1010B000440F551F661F771F8A95D1F79A01AB0120
:1010C00068E1CE010E944607882319F084E08D83F1
:1010D0002DC08EEF0E94080776018EEFD81AF70117
:1010E00081917F010E940807EC14FD04C1F78FEF86
:1010F0000E9408078FEF0E9408070E940F078A8747
:101100008F71853071F4011116C0CE010E94FD0669
:1011100081E0DF91CF910F91FF90EF90DF90CF9022
:10112000089581E18D83CE010E94FD06CE010E94CB
:10113000FD0680E0EECF88E592E00E941207811163
:1011400002C085E1C4CF20E030E0A9016DE0CE010E
:101150000E944607882311F084E1B9CF0E940F074F
:101160008111FACFD2CF0F9340917808509179082E
:1011700060917A0870917B084115510561057105F0
:1011800099F0082F29E839E0809186099091870924
:101190000E944508882349F0109278081092790837
:1011A00010927A0810927B0881E00F9108950F93B6
:1011B000CF93C82F80918809811105C0C1E08C2F81
:1011C000CF910F91089540911402509115026091B2
:1011D0001602709117020C2F29E839E080918609D8
:1011E000909187090E944508811102C0C0E0E7CFB5
:1011F000CC2321F381E00E94B3088823B9F3109235
:101200008809DDCF8F929F92AF92BF92EF92FF92AB
:101210000F931F93CF934B015C01C42F8091140255
:1012200090911502A0911602B091170288159905A8
:10123000AA05BB0551F181E00E94D70881110BC0BE
:1012400080E0CF911F910F91FF90EF90BF90AF90F2
:101250009F908F90089589E8E82E89E0F82E00E0AD
:1012600012E030E020E0B501A40180918609909160
:1012700087090E94A307882319F380921402909291
:101280001502A0921602B0921702409188094C2BC9
:101290004093880981E0D5CF8F929F92AF92BF9201
:1012A000CF92DF92EF92FF92CF932AE63CE0309309
:1012B000870920938609882309F46DC040E060E027
:1012C00070E0CB010E94020981110BC080E0CF9138
:1012D000FF90EF90DF90CF90BF90AF909F908F9056
:1012E00008958091470B8F7789F78091530B9091E8
:1012F000540BA091550BB091560B84369105A10566
:10130000B10520F3C0904F0BD090500BE090510BE3
:10131000F090520BC114D104E104F104B9F240E0A1
:10132000C701B6010E940209882381F280919409C5
:10133000909195098115924049F6A0919909AA23A7
:1013400029F260919709709198096115710509F466
:10135000BDCF20919609222309F4B8CFA093880C21
:1013600020937A0C90E080E030E0E1E0F0E0C82FDC
:10137000AF01082E02C0440F551F0A94E2F724174C
:10138000350769F041E0480F01968930910579F7FA
:101390004093830C9BCFC12CD12C7601C0CF80937E
:1013A000830C20919F093091A00950E040E0211565
:1013B000310541F42091AD093091AE094091AF095A
:1013C0005091B00920937B0C30937C0C40937D0CA2
:1013D00050937E0C46015701860E971EA11CB11C2E
:1013E0008092890C90928A0CA0928B0CB0928C0CFB
:1013F000E0919A09F0919B09F0938F0CE0938E0C89
:10140000B0E00E944928DC01CB01880D991DAA1D7E
:10141000BB1D8093900C9093910CA093920CB09371
:10142000930C25E0EE0FFF1F2A95E1F7E150FE4FE8
:10143000EF2FFF27E6958E0F9F1FA11DB11D8093F3
:10144000840C9093850CA093860CB093870C8090AD
:101450009C0990909D09B12CA12C8114910441F418
:101460008090A9099090AA09A090AB09B090AC090E
:10147000C81AD90AEA0AFB0AC80CD91CEA1CFB1CC8
:1014800004C0F694E794D794C794CA95D2F7C09253
:101490007F0CD092800CE092810CF092820C85EF50
:1014A000C8168FE0D806E104F10428F48CE080939C
:1014B0008D0C81E00CCF80E125EFC2162FEFD20614
:1014C000E104F104A0F38091B5099091B609A091CF
:1014D000B709B091B8098093900C9093910CA093A8
:1014E000920CB093930C80E2E2CF4F925F926F9296
:1014F0007F928F929F92AF92BF92CF92DF92EF92A4
:10150000FF920F931F93CF93DF93EC01423051056D
:101510006105710590F480E0DF91CF911F910F91EB
:10152000FF90EF90DF90CF90BF90AF909F908F9003
:101530007F906F905F904F90089589859A85AB85D5
:10154000BC850196A11DB11D84179507A607B70795
:1015500010F3CB88DC88ED88FE888F89803109F014
:1015600042C0BB27A72F962F852F480159012A017A
:101570003B01C80ED91EEA1EFB1E809114029091F9
:101580001502A0911602B0911702C816D906EA06F4
:10159000FB0699F58F898031C1F5B301A20155276A
:1015A00066277727440F551F4757564FFA019182F8
:1015B0008082809188098160809388098A8982303D
:1015C00080F08D819E81AF81B8858C0D9D1DAE1DF3
:1015D000BF1D8093780890937908A0937A08B09300
:1015E0007B0881E099CFDB01CA01E7E0B695A795BA
:1015F00097958795EA95D1F7B8CF40E0C701B60136
:101600000E9402098111C6CF86CFB301A2014F7794
:10161000552766277727440F551F440F551F4757F7
:10162000564FFA0180829182A282B382C2CF8F92FA
:101630009F92AF92BF92CF92DF92EF92FF920F9361
:101640001F93CF93DF93FC0181859285A385B48599
:101650000196A11DB11D84179507A607B70770F461
:1016600080E0DF91CF911F910F91FF90EF90DF907D
:10167000CF90BF90AF909F908F900895838894886B
:10168000A588B6888789803189F5BB27A72F962F33
:10169000852FE9016A017B018F01BC01CD01680D35
:1016A000791D8A1D9B1D8090140290901502A090B8
:1016B0001602B090170286169706A806B90601F51D
:1016C000F8018789803111F5DD24EE24FF24F6012D
:1016D000EE0FFF1FE757F64F80819181B0E0A0E049
:1016E00088839983AA83BB8381E0BBCFDB01CA01D6
:1016F000C7E0B695A79597958795CA95D1F7C9CFB5
:1017000040E00E9402098111DBCFAACFE894C7F81C
:10171000DD24EE24FF24F601EE0FFF1FEE0FFF1F66
:10172000E757F64F80819181A281B381BF70D8CFF6
:101730004F925F926F927F92AF92BF92CF92DF9261
:10174000EF92FF920F931F93CF93DF9300D01F92DE
:10175000CDB7DEB78C0149835A836B837C835901F3
:10176000C12CD12C7601412C82E0582E612C712C99
:1017700049815A816B817C819E012F5F3F4FC80157
:101780000E94170B882339F1F8018585A301920186
:1017900004C0220F331F441F551F8A95D2F7DA0168
:1017A000C901C80ED91EEA1EFB1E49815A816B81F0
:1017B0007C818789803111F188EF9FEFAFEFBFE027
:1017C000481759076A077B0798F2F501C082D18252
:1017D000E282F38281E00F900F900F900F90DF91E3
:1017E000CF911F910F91FF90EF90DF90CF90BF901E
:1017F000AF907F906F905F904F90089588EF9FEF2C
:10180000A0E0B0E0DDCFCF93DF93FC012581222360
:1018100021F080E0DF91CF910895EC0180918D0C53
:10182000803159F582E08583178A108E118E128ED1
:1018300080918E0C90918F0CB0E0A0E025E0880F95
:10184000991FAA1FBB1F2A95D1F7838B948BA58B59
:10185000B68B86E79CE09C8F8B8F81E08C831E8209
:101860001F82188619861A861B861C861D861E8670
:101870001F86188A198A1A8ACDCF803251F683E0E2
:1018800085834091900C5091910C6091920C7091D5
:10189000930C478B508F618F728F9F012D5E3F4F4E
:1018A00086E79CE00E94980B8111D3CFB2CF8F9234
:1018B0009F92AF92BF92CF92DF92EF92FF920F93DF
:1018C0001F93CF93DF93EC018D8181110EC080E0D7
:1018D000DF91CF911F910F91FF90EF90DF90CF900C
:1018E000BF90AF909F908F9008950B891C892D8990
:1018F0003E89041715072607370748F34A015B019D
:10190000823031F48A869B86AC86BD8681E0E0CF4A
:1019100081149104A104B10449F41E821F82188627
:1019200019861A861B861C861D86F0CF0A851B85A4
:101930002C853D85EB8DFC8D858590E00996B90160
:10194000A8014150510961097109082E04C076951A
:101950006795579547950A94D2F775016401E1E0C0
:10196000CE1AD108E108F10804C0F694E794D794A0
:10197000C7948A95D2F7C416D506E606F70620F076
:10198000012B022B032B11F58F89988DA98DBA8D10
:101990008E839F83A887B9878E010A5F1F4FC1146A
:1019A000D104E104F10409F4ADCF4E815F81688573
:1019B000798598018B8D9C8D0E94170B91E0C91A37
:1019C000D108E108F1088111EACF81CFC41AD50A04
:1019D000E60AF70AE1CF3F924F925F926F927F92B1
:1019E0008F929F92AF92BF92CF92DF92EF92FF922F
:1019F0000F931F93CF93DF93CDB7DEB72C970FB61E
:101A0000F894DEBF0FBECDBF5C01DC015B968D900C
:101A10009C905C9716964D905D906D907C90199778
:101A2000411451046104710409F468C0BFEF4B1AFA
:101A30005B0A6B0A7B0A312CF40181859285A385B0
:101A4000B4859C01AD012F5F3F4F4F4F5F4F2987FA
:101A50003A874B875C87730162011D821E821F8259
:101A60001886F40181859285A385B4852D813E81F8
:101A70004F815885281739074A075B0708F056C079
:101A800089859A85AB85BC858C159D05AE05BF05FE
:101A900050F482E0C82ED12CE12CF12C92E0492E9A
:101AA000512C612C712C9E012F5F3F4FB701A60175
:101AB000C4010E94170B8823C9F189819A81AB81E7
:101AC000BC81892B8A2B8B2B09F1260137019FEFD3
:101AD000491A590A690A790A2D813E814F81588530
:101AE0002F5F3F4F4F4F5F4F2D833E834F8358876C
:101AF0003FEFC31AD30AE30AF30AB3CFF4014080DD
:101B00005180628073803324339496CFC414D504FB
:101B1000E604F70409F70FEF1FEF2FEF3FE0B701DF
:101B2000A601C4010E94750A811119C080E02C969B
:101B30000FB6F894DEBF0FBECDBFDF91CF911F91DE
:101B40000F91FF90EF90DF90CF90BF90AF909F905C
:101B50008F907F906F905F904F903F900895D50148
:101B600016964D915D916D917C9119974115510596
:101B70006105710539F097018601C4010E94750A5B
:101B80008823A1F2D5011696CD92DD92ED92FC92BA
:101B90001997332051F0D701C6010196A11DB11D3F
:101BA000F40180839183A283B383F5018789908DAB
:101BB000A18DB28D892B8A2B8B2B39F48481C78A16
:101BC000D08EE18EF28E80688483F50184818062FC
:101BD000848381E0ACCF1F93CF93DF93FC012581F9
:101BE0002223D1F1162FEC01848187FF2AC066855C
:101BF00077858089918941E00E940209882361F1FB
:101C0000EA8980E2E89FF0011124E757F64F309708
:101C100019F18D81823040F48B899C89AD89BE8910
:101C2000848F958FA68FB78F8F89988D938F828F92
:101C30008F89988DA98DBA8DB58BA48B8C818F7768
:101C40008C83111103C08C818F7E8C83812FDF9157
:101C5000CF911F910C94D70880E0DF91CF911F9115
:101C60000895FF920F931F93CF93DF93EC018D8123
:101C7000813041F090E080E0DF91CF911F910F9192
:101C8000FF9008958C8181FFF5CF82FD1BC00091EC
:101C9000860910918709C8010E9430070E940F072A
:101CA000F82EC8010E94FD068FEFF812E3CF8C8159
:101CB00085FF1BC060E0CE010E94EB0D8C818F7D03
:101CC0008C83D8CF4B895C896D897E898A859B8579
:101CD000AC85BD8584179507A607B707C1F2CE016D
:101CE0000E94570C8111D3CFC5CF409178085091F5
:101CF000790860917A0870917B08452B462B472B19
:101D000021F080E00E94B308B5CF80618C832A85E2
:101D10003B85317080E092E0821B930BADCFCF9377
:101D2000DF93EC0161E00E94EB0D882311F01D822E
:101D300081E0DF91CF9108952F923F924F925F9271
:101D40006F927F928F929F92AF92BF92CF92DF92CB
:101D5000EF92FF920F931F93CF93DF9300D01F92C8
:101D60001F92CDB7DEB77C015B01342E5D83DC01B1
:101D700015968C911597813009F0CEC014962C9051
:101D800021FECAC022FCB4C0C32CDD8022947FE0B7
:101D900027222094B22DB1702B2ED7011A964D9187
:101DA0005D916D917C911D97C114D10409F428C1F6
:101DB0005B968D919C915C97FC0174807A948A016A
:101DC0009B0169E036952795179507956A95D1F798
:101DD00070228A011170711020C001151105E9F4FB
:101DE00016964D915D916D917C9119974115510514
:101DF0006105710509F099C057968D919D910D90DF
:101E0000BC91A02D0097A105B10509F0B0C0C70194
:101E10000E94EB0C882309F47FC080E092E0801BD5
:101E2000910B46018C159D0508F44C01D7015B967A
:101E30004D915C915C9716968D919D910D90BC9102
:101E4000A02D0297A109B109FA01258504C0880FC8
:101E5000991FAA1FBB1F2A95D2F74685578560890F
:101E60007189840F951FA61FB71F9C01AD01270D17
:101E7000311D411D511D29013A01811432E09306A3
:101E800009F07BC08091140290911502A091160276
:101E9000B091170284159505A605B70559F48FEF83
:101EA0009FEFDC018093140290931502A093160219
:101EB000B0931702022D9501B301A201809186090A
:101EC000909187090E944508882331F19EEFB91A45
:101ED000C818D908F70182859385A485B585880D32
:101EE000991DA11DB11D82879387A487B58755CF02
:101EF000F701438954896589768982859385A4850C
:101F0000B585481759076A077B0709F43DCFC70114
:101F10000E94570C811138CF81E090E0D7011396D1
:101F20009C938E93129780E007C09E012F5F3F4FD6
:101F30000E94170B811102C090E079C089819A81BB
:101F4000AB81BC81F701238D348DF901278948EFDE
:101F50005FEF60E070E0203121F048EF5FEF6FEF5E
:101F60007FE084179507A607B70708F050CFF70161
:101F700086839783A087B18750CF0115110599F506
:101F8000D7011A964D915D916D917C911D97539655
:101F90008D919D910D90BC91A02D481759076A070E
:101FA0007B0708F181E00E94D708882309F4B4CFA9
:101FB000409214025092150260921602709217021B
:101FC00080918809816080938809C8018757964F5E
:101FD000D5019C01280D391DFC012E173F0759F032
:101FE0004D914193FACF41E0C301B2010E94020931
:101FF0008111EBCF91CF281B390BA20EB31E68CFF6
:10200000F70183899489A589B68984179507A6075E
:10201000B70738F48481438B548B658B768B80684B
:102020008483F701848183FD1AC0832D9D810F90E5
:102030000F900F900F900F90DF91CF911F910F9104
:10204000FF90EF90DF90CF90BF90AF909F908F90D8
:102050007F906F905F904F903F902F90089561E038
:10206000C7010E94EB0D882309F456CFDECFCF9332
:10207000DF931F92CDB7DEB7698341E050E0BE0128
:102080006F5F7F4F0E949C0E0F90DF91CF9108955C
:10209000FC01DB0112968D919C91139793838283AF
:1020A00081EC92E09183808314968C9114978483C1
:1020B00015968C911597858316964D915D916D912E
:1020C0007C91199746835783608771871A964D9143
:1020D0005D916D917C911D974287538764877587C9
:1020E0001E964D915D916D917C91519746875787D2
:1020F000608B718B52968C915297828B53964D9137
:102100005D916D917C915697438B548B658B768B4B
:1021100057964D915D916D917C915A97478B508F59
:10212000618F728F5B968D919C91948F838F0895B0
:10213000FC01818D928D009719F061E00C94EB0DFC
:102140000895DC015996ED91FC913097B9F083899F
:102150009489A589B6894285538564857585841BD4
:10216000950BA60BB70B811520E89207A105B105C9
:1021700038F08FEF9FE7A0E0B0E0089590E080E0B6
:102180000895DC0159968D919C91009739F0DC01FE
:10219000ED91FC910480F581E02D199490E080E0B0
:1021A0000895CF93DF93EC01E98DFA8D309749F4D0
:1021B00081E090E09B838A8390E080E0DF91CF9183
:1021C000089513821282898D9A8D0E949C0EE98D4A
:1021D000FA8D22813381232B59F7F0CFCF93DF93F0
:1021E0001F92CDB7DEB76983DC01ED91FC910280CF
:1021F000F381E02D41E050E0BE016F5F7F4F199504
:102200000F90DF91CF9108952F923F924F925F925E
:102210006F927F928F929F92AF92BF92CF92DF92F6
:10222000EF92FF920F931F93CF93DF9300D0CDB720
:10223000DEB7FC018581811118C08FEF9FEF0F90F1
:102240000F900F90DF91CF911F910F91FF90EF9022
:10225000DF90CF90BF90AF909F908F907F906F90C6
:102260005F904F903F902F900895848180FFE5CF3D
:10227000438954896589768982859385A485B58546
:10228000312C212C481759076A077B0719F02224A3
:102290002394312C6F012101CE0101963C01DF0115
:1022A0001696BB83AA834114510409F4C5C0F601F4
:1022B00042855385648575854A01F1E09F22D601E8
:1022C0005B968D919C915C978A019B01E9E0369524
:1022D000279517950795EA95D1F71596EC91E23079
:1022E000E9F5FC01628D738D848D958D600F711FF2
:1022F000821F931FA12C22E0B22EA818B9084A14FD
:102300005B0408F45201F601248126FD04C0A114E7
:10231000F2E0BF0671F400911402109115022091B1
:10232000160230911702061717072807390709F018
:102330005EC040E00E940209882309F47ECFC401F8
:102340008757964FD3019C012A0D3B1DFC012E1788
:102350003F0709F46CC041914D93F9CFDC0114960D
:10236000BC90BA94B0228114910479F4B1100DC0DC
:10237000452B462B472B69F5F6018789908DA18D5A
:10238000B28D86839783A087B187D6015B96ED9146
:10239000FC915C9716966D917D918D919C9119970A
:1023A0006250710981099109258504C0660F771F64
:1023B000881F991F2A95D2F70685178520893189AC
:1023C000600F711F821F931F6B0D711D811D911D69
:1023D00091CFD60116964D915D916D917C91199793
:1023E0002A813B810E94170B8111CFCF26CF730129
:1023F00085019401AB01BC01809186099091870908
:102400000E94A307882309F418CF6A0C7B1CF601ED
:1024100082859385A485B5858A0D9B1DA11DB11D5F
:1024200082879387A487B5874A185B083CCF281B0F
:10243000390B620E731EEBCF2A94232809F0FDCED0
:10244000898190E0FCCEFC01818D928D009711F086
:102450000C9404118FEF9FEF08950F931F93CF9368
:10246000DF93EC01898D9A8D10E000E0009799F0E0
:102470000E9404118C010F3F100769F0898D9A8D1D
:10248000FC01428553856485758541505109610978
:1024900071090E94570CC801DF91CF911F910F91D4
:1024A0000895CF93DF93C1E6D2E08881229660E061
:1024B0000E948B0382E0C137D807B9F7C1E7D2E0A9
:1024C0008881229670E060E00E94EA0382E0C538CD
:1024D000D807B1F760E08FE1DF91CF910C948B03C7
:1024E0008AE10E946203892B49F06CE271E080E08E
:1024F00090E00E94E60490E080E0089588E10E9468
:102500006203892B49F06CE271E080E090E00E9468
:10251000E60481E090E0089586E10E946203892B41
:1025200049F06CE271E080E090E00E94E60482E015
:1025300090E008958CE10E946203892B49F06CE2DF
:1025400071E080E090E00E94E60483E090E008956E
:1025500008950F931F93CF93DF93EC0180E2689F60
:10256000F0011124E757F64F6A8B80911402909185
:102570001502A0911602B09117028E879F87A88B33
:10258000B98B0489158930E020E0980111270027D4
:102590000F8B188F298F3A8F828D938DB0E0A0E03A
:1025A000AC01BD01402B512B622B732B4F8B588FED
:1025B000698F7A8F83858871A9F4848D958DA68D16
:1025C000B78D8B8B9C8BAD8BBE8B81E08D8381E037
:1025D0008C831E821F82188619861A861B861C868B
:1025E0001D8603C0803131F080E0DF91CF911F91D3
:1025F0000F9108959E012D5E3F4F8B8D9C8D0E9403
:10260000980B882389F384E0E1CF0F931F93CF9336
:102610008C01C62F0E9412066C2F6460C8010E94B4
:1026200012066C2F6B7FC8010E94120683EC90E0AB
:102630000197F1F7CF911F910F9108950F931F9379
:10264000CF93DF938C01D62FC42F607F642B0E9421
:10265000051380E1D89FB00111246C2BC801DF91D4
:10266000CF911F910F910C940513CF93DF9300D05E
:1026700000D01F921F92CDB7DEB798E0E2E2F2E001
:10268000DE01119601900D929A95E1F79091D60C8A
:10269000961710F46FEF690F262F30E0220F331FCB
:1026A00041E050E04C0F5D1F240F351FF9016081A0
:1026B000680F606840E08EEC9CE028960FB6F894B6
:1026C000DEBF0FBECDBFDF91CF910C941E1340E053
:1026D00061E08EEC9CE00E941E138BE39FE101976A
:1026E000F1F7089541E00E941E1381E090E0089503
:1026F000AF92BF92CF92DF92EF92FF920F931F9310
:10270000CF93DF9300D000D000D01F921F92CDB79F
:10271000DEB76C01FE013196CE010C967F0120E2FE
:102720002193E817F907E1F7DA0120E037E09D91FE
:10273000B92E9923A9F19E32B9F43A3091F480E090
:102740002B960FB6F894DEBF0FBECDBFDF91CF91B1
:102750001F910F91FF90EF90DF90CF90BF90AF90BF
:10276000089528E03AE0E3CFE8E0F3E0849188239D
:1027700021F031969813FACFE2CF321700F38FEDA4
:10278000890F8E35E0F68FE9890F8A3118F440EE13
:10279000B42EB90EF701E20FF11DB0822F5FC7CF43
:1027A0008981803261F28B01FB01838D948DF6016A
:1027B000948F838FFB0116821782108611861286F2
:1027C000138614861586F80182859385A485B585C0
:1027D000438954896589768984179507A607B707C1
:1027E00008F0ADCF25E0B695A795979587952A95E2
:1027F000D1F7F82FFF70AF2EF8018581823008F4F1
:102800009ECFC8010E94041197FD99CFF8018285DF
:102810009385A485B5854F96A11DB11D82879387A9
:10282000A487B587F0E2AF9EB00111246757764FB9
:102830006115710509F483CFFB018081882309F1BB
:10284000853E19F4B11032C01EC04BE050E0C70104
:102850000E94A22A892B09F0B6CF6A2DC6012B96B9
:102860000FB6F894DEBF0FBECDBFDF91CF911F91A1
:102870000F91FF90EF90DF90CF90BF90AF900C94AE
:10288000A912B1105CCFF601A28A80911402909136
:102890001502A0911602B091170286879787A08B28
:1028A000B18BFB018081882309F449CFBB24B39409
:1028B0008ACFEF92FF920F931F93CF93DF93EC0198
:1028C0007B018A0188819981009729F02A813B81C7
:1028D0002417350788F4B8016F5F7F4F0E94C12924
:1028E000009791F0998388831B830A832C813D8113
:1028F000232B11F4FC0110821D830C83B701888106
:1029000099810E94C32A0CC088819981009711F097
:102910000E943829198218821D821C821B821A8209
:10292000CE01DF91CF911F910F91FF90EF9008950D
:10293000FB0101900020E9F73197AF01461B570BCF
:10294000DC01ED91FC910280F381E02D19948F92CE
:102950009F92AF92BF92EF92FF920F931F93CF93EC
:10296000DF93CDB7DEB7A1970FB6F894DEBF0FBEE9
:10297000CDBF7C01FA01CB0119A2223008F42AE074
:102980008E010F5D1F4F822E912CB12CA12CBF0107
:10299000A50194010E945C28F901CA016A300CF576
:1029A000605DD8016E938D01232B242B252B79F7A5
:1029B00090E080E0109721F0BD01C7010E949814BB
:1029C000A1960FB6F894DEBF0FBECDBFDF91CF91B9
:1029D0001F910F91FF90EF90BF90AF909F908F90BD
:1029E0000895695CDECFCF93DF93AB01BC012AE091
:1029F00089E89BE00E94A714EC016DEE72E089E883
:102A00009BE00E9498148C0F9D1FDF91CF91089539
:102A1000CF92DF92EF92FF920F931F93CF93DF93AA
:102A2000EC016A017B01E881F9810190F081E02DE0
:102A30006DE219958C0144275527BA014C195D099F
:102A40006E097F092AE0CE010E94A714800F911F12
:102A5000DF91CF911F910F91FF90EF90DF90CF907A
:102A60000895AB01770F660B770B77FD0C94081573
:102A70002AE00C94A714CF93DF93BC0189E89BE074
:102A80000E943115EC016DEE72E089E89BE00E9436
:102A900098148C0F9D1FDF91CF9108958F929F9274
:102AA000AF92BF92CF92DF92EF92FF920F931F935C
:102AB000CF93DF937C01EB016C0182E0C80ED11C47
:102AC0004701E5E08E0E911C10E000E0F601419117
:102AD0006F0150E070E060E02AE0CE010E94A71490
:102AE0005C01E881F9810190F081E02D6EE2CE0178
:102AF00019958A0D9B1D080F191FC814D90431F7A9
:102B0000F701458150E070E060E02AE0CE010E94CC
:102B1000A714800F911FDF91CF911F910F91FF900C
:102B2000EF90DF90CF90BF90AF909F908F900895DF
:102B3000CF93DF93BC0189E89BE00E949814EC01DD
:102B40006DEE72E089E89BE00E9498148C0F9D1F47
:102B5000DF91CF9108950C94981480916A0963E0F5
:102B6000882349F080E00E94351360EF72E08EEC1C
:102B70009CE00C94AB1580E00E94351368EF72E086
:102B8000F6CF4F925F926F927F928F929F92AF9209
:102B9000BF92CF92DF92EF92FF920E94AD150E94FA
:102BA00019054B015C0161E084E20E948B030E94E5
:102BB0001905681979098A099B09683E73408105DE
:102BC000910528F486E20E946203019781F30E9436
:102BD00019056B017C010E9419052B013C01481865
:102BE00059086A087B0860E084E20E948B0388EE43
:102BF000481683E058066104710400F162E080E049
:102C00000E94351360E073E08EEC9CE00E94AB15EF
:102C100062E080E00E94351365E173E08EEC9CE099
:102C2000FF90EF90DF90CF90BF90AF909F908F90EC
:102C30007F906F905F904F900C94AB15C818D90897
:102C4000EA08FB0862E080E00E94351361E273E06D
:102C50008EEC9CE00E94AB1562E089E00E94351387
:102C6000F7FE09C0B701A6018EEC9CE00E94081592
:102C700068EC73E0D3CF2AE0B701A6018EEC9CE0AC
:102C80000E94A714F5CF0E94671366E373E08EECF1
:102C90009CE00E94AB158091600960E0882349F0B8
:102CA00081E10E94351361E473E08EEC9CE00C94AA
:102CB000AB1582E10E94351365E473E0F6CFCF9344
:102CC000DF93EC01662341F00E94671368E473E030
:102CD0008EEC9CE00E94AB1561E080E00E94351311
:102CE000BE018EEC9CE00E943115C83ED34044F4F6
:102CF00063E173E08EEC9CE0DF91CF910C94AB1517
:102D0000DF91CF910895CF93DF93EC010E94671379
:102D10006BE573E08EEC9CE00E94AB1561E080E017
:102D20000E943513BE018EEC9CE0DF91CF910C9494
:102D30003115CF93DF93EC010E9467136EE973E0C6
:102D40008EEC9CE00E94AB15209751F460E083E18B
:102D50000E9435136AE673E08EEC9CE00E94AB158E
:102D600061E080E00E94351363EE73E08EEC9CE03E
:102D70000E94AB15C130D10551F461E083E10E949E
:102D800035136AE673E08EEC9CE00E94AB1562E0BE
:102D900080E00E94351360EF73E08EEC9CE00E94AF
:102DA000AB15C230D10551F462E083E10E943513C6
:102DB0006AE673E08EEC9CE00E94AB1563E080E075
:102DC0000E94351364E174E08EEC9CE00E94AB1528
:102DD000239761F463E083E10E9435136AE673E0B0
:102DE0008EEC9CE0DF91CF910C94AB15DF91CF91ED
:102DF0000895CF93DF93EC010E9467136CE673E0B4
:102E00008EEC9CE00E94AB15209751F460E083E1CA
:102E10000E9435136AE673E08EEC9CE00E94AB15CD
:102E20008091830990918409892B09F046C061E063
:102E300080E00E94351368E773E08EEC9CE00E940E
:102E4000AB15C130D10551F461E083E10E94351327
:102E50006AE673E08EEC9CE00E94AB1562E080E0D5
:102E60000E94351368E473E08EEC9CE00E94AB1581
:102E7000C230D10551F462E083E10E9435136AE665
:102E800073E08EEC9CE00E94AB1563E080E00E9452
:102E9000351367E873E08EEC9CE00E94AB15239736
:102EA00061F463E083E10E9435136AE673E08EEC1F
:102EB0009CE0DF91CF910C94AB15DF91CF910895F9
:102EC00080918309909184098130910509F480C033
:102ED0001CF4892B49F008958230910509F47DC0D6
:102EE000039709F48EC008950E94671361E973E0A7
:102EF0008EEC9CE00E94AB1561E080E00E943513EF
:102F000066EA73E08EEC9CE00E94AB158091560956
:102F1000909157090A9734F463E173E08EEC9CE0DA
:102F20000E94AB1560915609709157098EEC9CE098
:102F30000E94311562E080E00E94351369EB73E076
:102F40008EEC9CE00E94AB158091100290911102D2
:102F5000A0911202B0911302883E9340A105B105E1
:102F600030F463E173E08EEC9CE00E94AB1540917D
:102F700010025091110260911202709113022AE026
:102F80008EEC9CE00E94A71467EC73E08EEC9CE052
:102F90000E94AB1563E080E00E9435136BEC73E098
:102FA0008EEC9CE00E94AB158091600963E0882361
:102FB00049F081E10E94351361E473E08EEC9CE0FE
:102FC0000C94AB1582E10E9435136AED73E0F6CFE5
:102FD0000E9467136DED73E0F1CF0E9467136AEEF4
:102FE00073E08EEC9CE00E94AB1561E080E00E94F3
:102FF00035136FEF73E08EEC9CE00E94AB150C94E0
:10300000AD150E9467136EE074E0EBCF85ED809301
:10301000BC008091080990910909A0910A09B0911A
:103020000B090796A11DB11D23E0B695A7959795AD
:1030300087952A95D1F72091BC0024FD03C01092FA
:1030400006090895409108095091090960910A09FB
:1030500070910B09452B462B472B69F30097A1056F
:10306000B10541F025E32A95F1F700000197A10988
:10307000B109E1CF809107090C946B05EF92FF92A3
:103080000F931F93CF93DF93EC017B018A011B8287
:103090001A8288EE93E0A0E0B0E08C839D83AE833B
:1030A000BF838DEC92E0998388838DE190E00E944C
:1030B0009C289A8F898F009779F02DE1F701DC0128
:1030C00001900D922A95E1F74CE050E0B801CE0155
:1030D0000C960E94CA2A188EDF91CF911F910F91F2
:1030E000FF90EF9008952F923F924F925F926F92D0
:1030F0007F928F929F92AF92BF92CF92DF92EF9288
:10310000FF920F931F93CF93DF93CDB7DEB7CF57C7
:10311000D1090FB6F894DEBF0FBECDBF8C017E0182
:1031200083E7E80EF11C87E0E2E5F4E0D7010190C7
:103130000D928A95E1F7EC961FAE1EAEEC97EE96D7
:103140001FAE1EAEEE97C258DF4F19821882CE57BF
:10315000D04050E040E06FEE72E0CE0186589F4FC5
:103160000E9459141F8E1E8E19A218A21BA21AA209
:103170004AE0FE0131966F01BF01C8010E94ED27B0
:10318000F60101900020E9F73197AF014C195D0974
:103190004E01FEE18F0E911CB601C4010E9459142C
:1031A000EC968EAD9FADEC97009709F46DC06E8DD7
:1031B0007F8D6115710509F465C0EE964EAD5FAD6A
:1031C000EE972AA13BA14217530708F45BC00E9467
:1031D000C32A8AA19BA1C258DF4F99838883CE5707
:1031E000D0401BA21AA28E8D9F8D009711F00E94D5
:1031F0003829C258DF4F88819981CE57D0400A3094
:1032000011050CF05AC0892B31F0EC96EEADFFADF4
:10321000EC97309721F410927608E6E7F8E0808189
:10322000F7018183C7010E94981519A218A281ECA9
:1032300092E09F8F8E8F1BA21C821B829A838983B0
:103240001E82C4010E94030C8601140157016FE223
:1032500070E0C5010E94B82A009709F491C0F501F9
:1032600020812F3209F044C0FFEFAF1ABF0A902F20
:10327000812F8101292E382E922D832D1801092F9F
:10328000182FE5CF0E9438298E8D9F8DEC969FAF29
:103290008EAFEC9788A199A1EE969FAF8EAFEE9777
:1032A0008AA19BA1C258DF4F99838883CE57D04013
:1032B0001F8E1E8E19A218A294CF009731F0EC96A3
:1032C000EEADFFADEC97309721F410927608E6E76B
:1032D000F8E02081F7012083029708F49CCFEC9658
:1032E000EEADFFADEC97309709F495CF319697CFBF
:1032F0008A198D3008F08CE0682E712CA301B5017D
:10330000CE01885A9F4F0E94CA2AE8E5F0E0EC0FF0
:10331000FD1FE60DF71D1082C8010E948F0EF801F7
:1033200085818823F1F01EAE1DAE81EC92E09CAF4A
:103330008BAF21961FAE2197E40CF51CF70180811D
:10334000811127C0BE01655C7F4FC6010E944810F5
:1033500041E254E0B601CE01885A9F4F0E943E18C8
:103360003FC0AE01485A5F4FB101C8010E947813B7
:103370008823C9F2A60CB71CC1010E948F0E7CCF16
:1033800025014E185F08B101CE01CB960E9448106E
:10339000D3CF19A218A281EC92E09F8F8E8F1BA22F
:1033A00021968FAD2197811187C06C961FAE1EAEFE
:1033B0006C9788EE93E0A0E0B0E0A0968CAF9DAF54
:1033C000AEAFBFAFA0978DEC92E06A969FAF8EAF85
:1033D0006A97E3961FAE1EAEE397A5961FAEA5971C
:1033E0006C968EAD9FAD6C979093B60C8093B50C98
:1033F000A0968CAD9DADAEADBFADA0978093B70C40
:103400009093B80CA093B90CB093BA0CA4968CAD61
:103410009DADAEADBFADA4978093BB0C9093BC0C9B
:10342000A093BD0CB093BE0CA8E5B0E0AC0FBD1FDF
:103430001C96EFEBFCE08D9181938CE0EC3CF8075F
:10344000D1F7E396EEADFFADE397F093CD0CE093AB
:10345000CC0C309709F4EEC08581882309F4EAC0CA
:1034600010926209109261091F8E1E8E19821A82B3
:103470001B821C8210E000E0F12CE12C83EB9CE02D
:103480000E94A110892B09F493C083EB9CE00E9459
:1034900023128A3099F198012F5F3F4FF401E11414
:1034A000F10429F091E0E916F104D1F4F601E00FFE
:1034B000F11F80838901E2CFA701BE01655C7F4FC8
:1034C000C4010E947813882309F46FCFCE01CB96F4
:1034D0000E948F0EB401C6010E944810A7013ACF86
:1034E000E0916109F0916209EE0FFF1FE75CFD4F6B
:1034F00040815181040F151FF801DBCFB70189E826
:103500009BE00E94311562E173E089E89BE00E9434
:10351000AB15E114F10479F4C4010E94CF27909314
:103520005709809356090E943B158FEFE81AF80A55
:1035300030E020E0BFCF10E000E0F1E0EF16F10452
:1035400091F4C6010E94CF27BC01990F880B990BFB
:1035500060931002709311028093120290931302F1
:103560000E94F314E2CFE0916109F0916209EE0F3D
:10357000FF1FE75CFD4F0190F081E02DE00FF11F90
:10358000608189E89BE00E945D020F5F1F4F063259
:10359000110549F783E193E00E9498158091610934
:1035A0009091620901969093620980936109BDCF61
:1035B0008091CC0C9091CD0C009761F00E948F0E01
:1035C0008091CC0C9091CD0C0E9438291092CD0C9A
:1035D0001092CC0C63E274E089E89BE00E94AB158A
:1035E00080916109909162090E943B150E946017C9
:1035F000EC968EAD9FADEC97009711F00E943829A4
:10360000C158DF4F0FB6F894DEBF0FBECDBFDF91BC
:10361000CF911F910F91FF90EF90DF90CF90BF90CF
:10362000AF909F908F907F906F905F904F903F9062
:103630002F9008950E94671360E474E08EEC9CE084
:103640000E94AB1568E873E180E090E00E94E60418
:10365000CDCF1F920F920FB60F9211240BB60F927F
:103660002F933F934F935F936F937F938F939F938A
:10367000AF93BF93EF93FF9389E89BE00E943B02D7
:10368000FF91EF91BF91AF919F918F917F916F913A
:103690005F914F913F912F910F900BBE0F900FBEF6
:1036A0000F901F9018951F920F920FB60F92112432
:1036B0000BB60F922F938F939F93EF93FF93E0910D
:1036C000990BF0919A0B8081E0919F0BF091A00BE8
:1036D00082FD1DC090818091A20B8F5F8F7320911E
:1036E000A30B821741F0E091A20BF0E0E757F44FF3
:1036F000958F8093A20BFF91EF919F918F912F91C6
:103700000F900BBE0F900FBE0F901F9018958081E9
:10371000F2CF1F920F920FB60F9211242F933F9367
:103720008F939F93AF93BF9380912F09909130090E
:10373000A0913109B091320930912E0923E0230F75
:103740002D3758F50196A11DB11D20932E098093A8
:103750002F0990933009A0933109B09332098091D9
:10376000330990913409A0913509B0913609019639
:10377000A11DB11D8093330990933409A09335099D
:10378000B0933609BF91AF919F918F913F912F9147
:103790000F900FBE0F901F90189526E8230F0296EA
:1037A000A11DB11DD2CF1F920F920FB60F921124FF
:1037B0000BB60F922F933F934F935F936F937F932B
:1037C0008F939F93AF93BF93EF93FF93E0910E027C
:1037D000F0910F021995FF91EF91BF91AF919F91D9
:1037E0008F917F916F915F914F913F912F910F90AA
:1037F0000BBE0F900FBE0F901F9018951F920F9247
:103800000FB60F9211240BB60F922F933F934F9345
:103810005F936F937F938F939F93AF93BF93EF9338
:10382000FF93E0910C02F0910D021995FF91EF9139
:10383000BF91AF919F918F917F916F915F914F91C8
:103840003F912F910F900BBE0F900FBE0F901F90C6
:1038500018951F920F920FB60F9211240BB60F926C
:103860002F933F934F935F936F937F938F939F9388
:10387000AF93BF93EF93FF93E0910202F0910302A5
:103880001995FF91EF91BF91AF919F918F917F918A
:103890006F915F914F913F912F910F900BBE0F90C1
:1038A0000FBE0F901F9018951F920F920FB60F9298
:1038B00011240BB60F922F933F934F935F936F9307
:1038C0007F938F939F93AF93BF93EF93FF93E09179
:1038D0000002F09101021995FF91EF91BF91AF9114
:1038E0009F918F917F916F915F914F913F912F9118
:1038F0000F900BBE0F900FBE0F901F9018951F9248
:103900000F920FB60F9211240BB60F922F933F9385
:103910004F935F936F937F938F939F93AF93BF93D7
:10392000EF93FF93E0910A02F0910B021995FF913A
:10393000EF91BF91AF919F918F917F916F915F9127
:103940004F913F912F910F900BBE0F900FBE0F9094
:103950001F9018951F920F920FB60F9211240BB65D
:103960000F922F933F934F935F936F937F938F9318
:103970009F93AF93BF93EF93FF93E0910802F09171
:1039800009021995FF91EF91BF91AF919F918F918E
:103990007F916F915F914F913F912F910F900BBE4F
:1039A0000F900FBE0F901F9018951F920F920FB699
:1039B0000F9211240BB60F922F933F934F935F9367
:1039C0006F937F938F939F93AF93BF93EF93FF93E7
:1039D000E0910602F09107021995FF91EF91BF91D6
:1039E000AF919F918F917F916F915F914F913F9197
:1039F0002F910F900BBE0F900FBE0F901F90189538
:103A00001F920F920FB60F9211240BB60F922F93A5
:103A10003F934F935F936F937F938F939F93AF9356
:103A2000BF93EF93FF93E0910402F0910502199583
:103A3000FF91EF91BF91AF919F918F917F916F9186
:103A40005F914F913F912F910F900BBE0F900FBE42
:103A50000F901F9018951F920F920FB60F9211247E
:103A60000BB60F922F933F934F935F936F937F9378
:103A70008F939F93AF93BF93EF93FF938091B90080
:103A8000887F803609F44DC008F040C0883209F4C0
:103A9000A9C028F5803109F49DC0C8F4882309F431
:103AA000FBC0883009F496C0FF91EF91BF91AF91B0
:103AB0009F918F917F916F915F914F913F912F9146
:103AC0000F900BBE0F900FBE0F901F90189588316E
:103AD00009F488C0803241F78093040914C080340F
:103AE00009F49DC040F48033B9F38833E9F680933C
:103AF000040985ECB0C0803509F485C0883509F427
:103B000096C0883489F60E940618CECF883909F409
:103B10008CC038F5883729F050F4883611F080379A
:103B200019F683E0809306091092DF0857C08838A1
:103B300009F47BC0803919F0803809F0B5CF809145
:103B4000DF08803208F071C0E091DF0881E08E0F5D
:103B50008093DF088091BB00F0E0E154F74F808351
:103B60003DC0803B39F0E0F4803A09F479C0883AEE
:103B700009F09ACF84E0809306091092BE08109253
:103B8000BD08E0913909F0913A0919958091BD0875
:103B900081110FC081E08093BD0810929D0809C07B
:103BA000803C09F4A6CF883C09F4A3CF883B09F0F8
:103BB0007BCFE091BE0881E08E0F8093BE08F0E0DD
:103BC000E356F74F80818093BB009091BE088091AF
:103BD000BD0829C08091E1088093BB0085EC8093EB
:103BE000BC0062CF9091030980910209981758F5A3
:103BF000E091030981E08E0F80930309F0E0EE511C
:103C0000F74F8081E9CFE091030981E08E0F809327
:103C100003098091BB00F0E0EE51F74F8083909153
:103C20000309809102099817C8F285E8D8CFE0917E
:103C3000030981E08E0F809303098091BB00F0E0BF
:103C4000EE51F74F80838091050981115CCF81E0AF
:103C50008093E00884EA8093BC001092060924CF88
:103C600085EC8093BC00109206098091DF088032B9
:103C700030F4E091DF08F0E0E154F74F10826091FA
:103C8000DF0870E0E0913709F09138098FEB98E098
:103C900019951092DF0808CF1092040934CF0F93C2
:103CA0001F93E9E8FBE01382128248EE53E060E0E4
:103CB00070E044835583668377838DE992E0918336
:103CC000808385EC90E09587848784EC90E09787EB
:103CD000868780EC90E0918B808B81EC90E0938BD9
:103CE000828B82EC90E0958B848B86EC90E0978BB6
:103CF000868B118E128E138E148EE6E2FCE08BEE14
:103D000092E0918380831282138214821582ECE206
:103D1000FCE0918380831282138214821582E2E395
:103D2000FCE0918380831282138214821582E8E37F
:103D3000FCE0918380831282138214821582EEE369
:103D4000FCE0918380831282138214821582EAE45C
:103D5000FCE0918380831282138214821582E4E452
:103D6000FCE0918380831282138214821582E0E545
:103D7000FCE0918380831282138214821582E6E52F
:103D8000FCE0918380831282138214821582ECE519
:103D9000FCE01382128244835583668377832FEA83
:103DA00032E031832083E8E6FCE020E520831182C5
:103DB000EAE6FCE0158216821186138602E010E026
:103DC00020E030E0048715872687378713A215A6E1
:103DD00014A621EC32E033A722A717A6EAEDFCE0F7
:103DE000918380831282138214821582EEECFCE0B0
:103DF000138212828FED92E0918380838FE384831C
:103E000084E1818784E082871386E3EBFCE0138200
:103E1000128244835583668377838DEC92E091838D
:103E20008083128E118E14861F910F910895CF9367
:103E3000DF9300D01F921F92CDB7DEB7789484B580
:103E4000826084BD84B5816084BD85B5826085BD96
:103E500085B5816085BD80916E00816080936E0024
:103E60001092810080918100826080938100809116
:103E700081008160809381008091800081608093C7
:103E800080008091B10084608093B1008091B00087
:103E900081608093B0008091910082608093910056
:103EA0008091910081608093910080919000816069
:103EB000809390008091A10082608093A100809106
:103EC000A10081608093A1008091A0008160809317
:103ED000A0008091210182608093210180912101C5
:103EE0008160809321018091200181608093200175
:103EF00080917A00846080937A0080917A00826059
:103F000080937A0080917A00816080937A0080911A
:103F10007A00806880937A001092C100E091990B3A
:103F2000F0919A0B82E08083E091950BF091960BD3
:103F30001082E091970BF091980B8FEC8083109298
:103F4000A10BE0919D0BF0919E0B86E08083E091A8
:103F50009B0BF0919C0B808180618083E0919B0B97
:103F6000F0919C0B808188608083E0919B0BF091A5
:103F70009C0B808180688083E0919B0BF0919C0B6F
:103F800080818F7D808364EF71E080E090E00E940B
:103F9000E60410923E0910923D0910923C091092DD
:103FA0003B090E944D0584EC91E090933A0980937F
:103FB000390985EC91E09093380980933709109284
:103FC000D30C8091D80C823018F098E09093D30CE9
:103FD0008093D60C62E370E080E090E00E94E604FB
:103FE0006091D90C8EEC9CE00E94120668EE73E0A2
:103FF00080E090E00E94E60460E38EEC9CE00E948A
:1040000005130BE416E4C8010197F1F760E38EECA9
:104010009CE00E940513C8010197F1F760E38EEC64
:104020009CE00E94051383E592E00197F1F760E2BE
:104030008EEC9CE00E9405136091D30C606240E01E
:104040008EEC9CE00E941E1384E08093D40C40E030
:104050006CE08EEC9CE00E941E130E94671382E0CD
:104060008093D50C40E066E08EEC9CE00E941E132D
:1040700040E062E08EEC9CE00E941E138BE39FE127
:104080000197F1F788E08093D90C60E08EEC9CE01A
:104090000E94120661E080E20E948B0361E082E2EE
:1040A0000E948B0360E08FE10E948B0360E084E25A
:1040B0000E948B038091990C882321F084E99CE075
:1040C0000E948F0E1092750C1092730C1092700C4F
:1040D00010926F0C84E080936E0C0E9419058B0186
:1040E00061E080916E0C0E94B90361E080916E0CDA
:1040F0000E948B03FFB6F89480913F09811127C07D
:10410000E7EFF2E08491E1EBF2E09491E82FF0E048
:10411000EE0FFF1FEE59FD4FA591B491EC91E923ED
:1041200021F461E085E30E948B0361E085E30E9456
:10413000B9038CB580618CBD8CB580648CBD61E0A9
:1041400084E30E94B90361E083E30E94B903809194
:104150003F098F5F80933F09FFBE82E58093680C23
:104160001092690C8091680C9091690C0E942D0747
:104170008AE0F82E8FEF0E940807FA94F110FACF28
:104180008AE69CE00E94300720E030E0A90160E070
:104190008AE69CE00E944607F82E8093740C21E08A
:1041A000821719F10E941905601B710B613D774060
:1041B00058F381E080936F0C8AE69CE00E94FD0634
:1041C00069E574E08EEC9CE00E94AB1561E080E054
:1041D0000E9435136BE674E08EEC9CE00E94AB15F8
:1041E0008EE794E00E949815FFCF2AEA31E040E084
:1041F00050E068E08AE69CE00E94460782FF2AC001
:10420000F092750C8091750CC12CD12CE12CA0E49E
:10421000FA2E823019F0C12CD12C760120E030E04A
:10422000A90167E38AE69CE00E944607A701960180
:1042300069E28AE69CE00E9446078093740C88231A
:10424000D1F00E941905601B710B613D774030F37E
:1042500088E0B0CFB4E0FB2E0E940F078093740C6F
:10426000FA94F110F9CF8A3A11F082E0A3CF82E0FC
:104270008093750CC7CF8091750C8230D1F420E00B
:1042800030E0A9016AE38AE69CE00E9446078823A1
:1042900011F086E08FCF0E940F07807C803C19F4DC
:1042A00083E08093750C0E940F070E940F070E9405
:1042B0000F078AE69CE00E94FD0680E58093680C6B
:1042C0001092690C81E00E944C09882339F184E93D
:1042D0009CE00E94030C882309F472CF90E080E0F8
:1042E0000E9473180E946017F5E8EF2EF2E0FF2E8F
:1042F00001E612E0E016F106C1F40DE212E0E9E396
:10430000EE2EE2E0FE2EE016F106B9F0F801808113
:104310000E5F1F4F60E00E94B903F5CF80E00E945E
:104320004C09882309F44CCFD2CFF80180810E5F6D
:104330001F4F61E00E94B903DDCF61E08FE10E9471
:10434000B9030E94511280EC91E090930B0280938C
:104350000A0280916900806C80936900EB9A78E88A
:10436000272E73E1372E412C512C60902A02709039
:104370002B0280902C02CE0104969D838C83F090BA
:104380008509FF2009F443C08091580981110BC0B1
:10439000809156099091570990935509809354093B
:1043A00081E08093580980914C0981110BC0809164
:1043B00010029091110290934B0980934A0981E079
:1043C00080934C098EE10E9462038C01892B09F4D1
:1043D000F7C080918309909184098230910509F496
:1043E000E2C08330910509F4E2C0892B71F488E8BA
:1043F00094E00E9498158091690991E08927809343
:104400006909811102C00E94511210928509009120
:104410008309109184090115110509F035C48091B3
:104420006909882309F4B2C00E941905C090650982
:10443000D0906609E0906709F09068096C197D09D1
:104440008E099F09C0901002D0901102E0901202D4
:10445000F09013026C157D058E059F0508F496C03B
:1044600069827A828B8261E6E62E62E0F62EE09126
:104470006309F0916409EE0FFF1FE75CFD4F0190A7
:10448000F081E02DE00FF11F80818B83CE0101963A
:104490000E94CF27D82E682F792F89E89BE00E94B1
:1044A000311563E173E089E89BE00E94AB15F701E9
:1044B0008081F2E0EF0EF11C6D2D0E948B030F5FE7
:1044C0001F4F0830110599F68FEE92E00E94981563
:1044D00031E7C32E32E0D32E48E0E42EF12C0091D8
:1044E000630910916409F801EE0FFF1FE75CFD4FAF
:1044F0000190F081E02DEE0DFF1DDE0111968191FE
:104500008D938C819D818A179B07C9F7CE010196F7
:104510000E94CF27BC01F6018081F2E0CF0ED11CB2
:104520000E94EA0323E0E20EF11C86E2E816F104A1
:10453000B1F60F5F1F4F10936409009363098091D8
:1045400061099091620908171907B1F41092640982
:10455000109263098091600981110EC0109269095F
:1045600060911002709111028091120290911302D9
:104570000E94E6040E9451120E9419056093650989
:1045800070936609809367099093680989E89BE0B6
:104590000E942502892B21F088E695E00E9498155B
:1045A0000E94CA02ECCE81E080936A092ECF8091EE
:1045B0006A0991E0892780936A090E94AD1525CF89
:1045C00080914809909149098130910571F18230BB
:1045D000910509F4F2C0892B09F017CFE1E0F0E072
:1045E000F0934909E09348098CE693E00E949815FE
:1045F00010924709109246091092450910924409F9
:1046000080915609909157099093550980935409C8
:10461000809110029091110290934B0980934A0966
:1046200090E080E00E94F916F0CE0E947012813076
:10463000910509F448C0B4F4892B09F0E6CE109234
:104640004909109248096DE974E089E89BE00E94ED
:10465000AB1580918309909184090E943B150E94BB
:104660006017D3CE8230910509F44AC0039709F050
:10467000CCCE82E090E090934909809348098091E4
:104680004609909147098130910509F477C00CF0F3
:1046900055C0892B09F0B9CE009183091091840986
:1046A0000115110509F053C088EE94E00E94981599
:1046B000109245091092440980914409909145094E
:1046C0000E949916A2CE809146099091470918162A
:1046D00019063CF420918309309184090197232B1A
:1046E000E9F080914609909147090097E1F488EB41
:1046F00094E00E949815809146099091470992CFC5
:1047000080914609909147098330910554F7209193
:10471000830930918409232B21F70196909347094F
:1047200080934609DECF8130910519F484EC94E042
:10473000E0CF029701F783ED94E0DBCF8230910563
:1047400051F1039709F061CE0E9443165ECE85EFCA
:1047500094E00130110559F081E095E00230110537
:1047600031F00330110509F0A7CF85E195E00E94F3
:10477000981510934509009344099ECF80915609DE
:10478000909157090E943B158091540990915509C9
:104790000E9483163ACE60911002709111028091AE
:1047A0001202909113020E94F31461E080914A0971
:1047B00090914B090E945F1628CE0E9470128130A2
:1047C0009105E1F114F5892B09F01FCEE1E0F0E04D
:1047D000F0934909E093480980914609909147096F
:1047E000892B21F488EB94E00E949815809183092D
:1047F00090918409892B09F07ECF80914609909190
:104800004709019709F097CF91CF8230910509F4BC
:10481000FFC0039709F0F9CD8091460990914709AF
:104820008130910509F4FAC10CF0B6C1892B09F465
:10483000BDC11092490910924809E7CD80914609FF
:10484000909147098130910509F44DC004F5892BF9
:1048500009F0DBCD8091440990914509181619069D
:104860002CF40197909345098093440900914409E1
:10487000109145090130110581F1BCF4012B21F1A2
:1048800080914409909145090E943B1515CF8230D3
:104890009105D1F1039709F0B8CD8091600981119C
:1048A00053CF81E0809360094FCF02301105C1F0F2
:1048B00085E195E00330110519F70E9498151093D2
:1048C000450900934409DCCF88EE94E00E949815D6
:1048D0001092450910924409D3CF85EF94E0EDCFB3
:1048E00081E095E0EACF8091540990915509833693
:1048F00091052CF401969093550980935409809169
:104900005409909155093ECF0E94190560934009C2
:10491000709341098093420990934309E12C88E107
:104920000E946203892B09F462C0A0904009B090F4
:104930004109C0904209D090430905311105CCF4DA
:104940000E9419056A197B098C099D096436710555
:104950008105910520F380914A0990914B098F3090
:10496000F7E29F07ECF4019690934B0980934A0974
:1049700017C0053F21E0120744F50E9419056A1986
:104980007B098C099D096A3071058105910538F212
:1049900080914A0990914B098F30E7E29E071CF302
:1049A0000E94190560934009709341098093420960
:1049B0009093430960E080914A0990914B090E94CD
:1049C0005F160F5F1F4FEF2CAACF0E9419056A15C3
:1049D0007B058C059D0509F4A2CF80914A09909131
:1049E0004B098F30F7E29F07DCF60A96BDCFE11046
:1049F0000CCD80914A0990914B098F3027E29207A4
:104A00002CF4019690934B0980934A0960E0CECE36
:104A1000809146099091470981309105E9F1FCF4B4
:104A2000892B09F0F2CC809144099091450983309B
:104A300091052CF401969093450980934409809147
:104A40004409909145098130910501F1B4F4892B15
:104A500009F032CE88EE94E00E9498152DCE823077
:104A6000910521F1039709F0D0CC8091600988234A
:104A700009F46ACE1092600967CE8230910549F040
:104A8000039709F019CE85E195E0E6CF85EF94E034
:104A9000E3CF81E095E0E0CF8091540990915509F2
:104AA000181619060CF02BCF019725CF0E94190577
:104AB00060934009709341098093420990934309A0
:104AC000E12C86E10E946203892B09F459C0A09071
:104AD0004009B0904109C0904209D0904309053186
:104AE000110564F50E9419056A197B098C099D0955
:104AF000643671058105910520F380914A099091F2
:104B00004B09181619062CF4019790934B098093C2
:104B10004A090E94190560934009709341098093E6
:104B200042099093430960E080914A0990914B09B2
:104B30000E945F160F5F1F4FEF2CC3CF053F81E030
:104B400018076CF40E9419056A197B098C099D09E4
:104B50006A3071058105910508F4B3CFCECF0E946C
:104B600019056A157B058C059D0509F4AACF80916E
:104B70004A0990914B09181619065CF60A97C5CF99
:104B8000E11043CC80914A0990914B0918161906FF
:104B90000CF03CCF019736CF8230910509F453C019
:104BA000039709F046CE0E94601743CE80914409D6
:104BB0009091450990938409809383096CE275E094
:104BC00089E89BE00E94AB1580918309909184094C
:104BD0000E943B150E94601780918309909184097F
:104BE000009759F40E945112109269098091560958
:104BF000909157090E9473181CCE8130910539F4A9
:104C00000E94511261E08FE10E948B0312CE029745
:104C1000029708F00ECE0E9451120BCE80915409DB
:104C200090915509909357098093560967E475E070
:104C300089E89BE00E94AB15809156099091570935
:104C40000E943B15B0CF80914A0990914B09092EE3
:104C5000000CAA0BBB0B8093100290931102A0933F
:104C60001202B093130268E575E089E89BE00E94A8
:104C7000AB15609110027091110280911202909117
:104C800013020E94F3148FCF0130110509F068C0A0
:104C90000E941905643671058105910508F476CCEA
:104CA00085E8C82E82E0D82E91E7A92E92E0B92E91
:104CB000F12CE12CF6018081F2E0CF0ED11C86337D
:104CC00008F0865320917B00982F9870277F922BB5
:104CD00090937B008770806480937C0080917A0041
:104CE000806480937A0080917A0086FDFCCF809169
:104CF0007800A0917900BA2FA82F2CED30E00E9407
:104D000095282FEF33E040E050E00E942A288901E7
:104D10009A010D5D1F4F2F4F3F4F0A321105ECF0E6
:104D2000033F110514F002EF10E0F5018081F2E07D
:104D3000AF0EB11CB8010E94EA0328E0E216F104AC
:104D400019F4C8010E943B158FEFE81AF80A9AE09F
:104D5000E916F10409F0AECF19CC10E000E0E5CF80
:104D60000230110561F480916A09882309F40ECCA0
:104D70000E94C11510926A090E94AD1507CC03303C
:104D8000110509F003CC80917B09811111C00E94AB
:104D90007727A20191010E942A28609377097093D6
:104DA00078098093790990937A0981E080937B094F
:104DB00080916F0981110DC00E94190560936B09E4
:104DC00070936C0980936D0990936E0981E08093D4
:104DD0006F0980916A09882309F4D8CB0E941905CC
:104DE00000916B0910916C0920916D0930916E0949
:104DF000AB01BC01401B510B620B730B8091770917
:104E000090917809A0917909B0917A0988579C4EC0
:104E1000AF4FBF4F84179507A607B70708F0B6CB6B
:104E20000E94C1150E947727A20191010E942A28A1
:104E300060937709709378098093790990937A0940
:104E40000E94190560936B0970936C0980936D093A
:104E500090936E099BCB8F929F92AF92BF92CF920D
:104E6000DF92EF92FF92CF93DF93EC01688179811B
:104E70008A819B81611571058105910521F464E2A8
:104E800079ED8BE597E02DE133EF41E050E00E94B2
:104E90002A2849015A019B01AC01A7EAB1E40E940A
:104EA00049286B017C01ACEEB4EFA50194010E948E
:104EB0005728C60ED71EE81EF91EF7FE06C081E071
:104EC000C81AD108E10880E8F80AC882D982EA82C3
:104ED000FB82C701B6019F77DF91CF91FF90EF90E2
:104EE000DF90CF90BF90AF909F908F9008958F925A
:104EF0009F92AF92BF92CF92DF92EF92FF9260911A
:104F000018027091190280911A0290911B0261158A
:104F100071058105910521F464E279ED8BE597E057
:104F20002DE133EF41E050E00E942A2849015A0167
:104F30009B01AC01A7EAB1E40E9449286B017C0106
:104F4000ACEEB4EFA50194010E945728C60ED71EFF
:104F5000E81EF91EF7FE06C081E0C81AD108E10874
:104F600080E8F80AC0921802D0921902E0921A0260
:104F7000F0921B02C701B6019F77FF90EF90DF9080
:104F8000CF90BF90AF909F908F900895609318023C
:104F90007093190280931A0290931B020895FC01EA
:104FA00088279927E89421912032E9F3293010F0DD
:104FB0002E30C8F32B3241F02D3239F4689404C0FE
:104FC0000E94F827820F911D219120532A30C0F3AF
:104FD0001EF4909581959F4F0895BB274A3031F478
:104FE000992322F4BDE2909581959F4F0C9401285E
:104FF0007AE0979F902D879F802D910D1124089521
:10500000BB27FB015527AA27880F991FAA1FA417A2
:1050100010F0A41B83955051B9F7A05DAA3308F096
:10502000A95DA193009779F7B111B1931192CB01CA
:105030000C941A28DC01FC01672F71917723E1F7AA
:10504000329704C07C916D9370836291AE17BF0755
:10505000C8F30895052E97FB1EF400940E94412882
:1050600057FD07D00E945C2807FC03D04EF40C9437
:10507000412850954095309521953F4F4F4F5F4FB8
:10508000089590958095709561957F4F8F4F9F4FB4
:1050900008950E947E28A59F900DB49F900DA49F17
:1050A000800D911D11240895B7FF0C9449280E948A
:1050B0004928821B930B0895A1E21A2EAA1BBB1B41
:1050C000FD010DC0AA1FBB1FEE1FFF1FA217B307D4
:1050D000E407F50720F0A21BB30BE40BF50B661FEA
:1050E000771F881F991F1A9469F7609570958095AE
:1050F00090959B01AC01BD01CF010895A29FB00125
:10510000B39FC001A39F700D811D1124911DB29FFB
:10511000700D811D1124911D0895EE0FFF1F881F32
:105120008BBF0790F691E02D19940E947E28B7FF5F
:105130000895821B930B08950F931F93CF93DF93D2
:105140008230910510F482E090E0E091E20CF09161
:10515000E30C30E020E0B0E0A0E0309799F42115B6
:10516000310509F44AC0281B390B24303105D8F524
:105170008A819B816115710589F1FB01938382838B
:10518000FE0111C0408151810281138148175907E6
:10519000E0F04817590799F4109761F012960C93B4
:1051A000129713961C933296CF01DF91CF911F91E6
:1051B0000F9108950093E20C1093E30CF4CF2115A6
:1051C000310551F04217530738F0A901DB019A016C
:1051D000BD01DF01F801C1CFEF01F9CF9093E30CDE
:1051E0008093E20CCDCFFE01E20FF31F81939193E8
:1051F0002250310939832883D7CF2091E00C309198
:10520000E10C232B41F420911E0230911F023093B8
:10521000E10C2093E00C20911C0230911D0221151D
:10522000310541F42DB73EB7409120025091210243
:10523000241B350BE091E00CF091E10CE217F30731
:10524000A0F42E1B3F0B2817390778F0AC014E5FF6
:105250005F4F2417350748F04E0F5F1F5093E10C46
:105260004093E00C819391939FCFF0E0E0E09CCFDE
:10527000CF93DF930097E9F0FC01329713821282FB
:10528000A091E20CB091E30CED0130E020E010972A
:10529000A1F420813181820F931F2091E00C309185
:1052A000E10C2817390709F061C0F093E10CE09395
:1052B000E00CDF91CF910895EA01CE17DF07E8F502
:1052C0004A815B819E0141155105B1F7E901FB83DC
:1052D000EA8349915991C40FD51FEC17FD0761F47A
:1052E000808191810296840F951FE90199838883BB
:1052F000828193819B838A83F0E0E0E012968D9116
:105300009C9113970097B9F52D913C911197CD0180
:105310000296820F931F2091E00C3091E10C281728
:10532000390739F6309751F51092E30C1092E20CE0
:10533000B093E10CA093E00CBCCFD383C283408137
:105340005181840F951FC817D90761F44E5F5F4FD5
:1053500088819981480F591F518340838A819B819D
:10536000938382832115310509F0B0CFF093E30CCC
:10537000E093E20C9ECFFD01DC01C0CF13821282CC
:10538000D7CF4F925F926F927F928F929F92AF9200
:10539000BF92CF92DF92EF92FF920F931F93CF9322
:1053A000DF938C01009799F4CB01DF91CF911F918E
:1053B0000F91FF90EF90DF90CF90BF90AF909F90B4
:1053C0008F907F906F905F904F900C949C28FC0181
:1053D000E60FF71F9C0122503109E217F30708F48A
:1053E000AEC0D901CD91DC911197C617D70720F136
:1053F000C530D10578F0CE0104978617970750F095
:10540000C61BD70B2297C193D1936D937C93CF0189
:105410000E943829C801DF91CF911F910F91FF9011
:10542000EF90DF90CF90BF90AF909F908F907F9044
:105430006F905F904F9008955B01AC1ABD0A4C01CC
:105440008C0E9D1EA091E20CB091E30C512C412CCE
:10545000F12CE12C109731F58091E00C9091E10C4A
:105460008815990509F05CC04616570608F058C023
:1054700080911C0290911D02009741F48DB79EB758
:105480004091200250912102841B950BE817F907E7
:1054900008F055C0F093E10CE093E00CF901718342
:1054A0006083B8CF8D919C91119712966C90129752
:1054B00013967C901397A815B90559F56C0142E035
:1054C000C40ED11CCA14DB0420F1AC014A195B09DB
:1054D000DA011296159780F06282738251834083BD
:1054E000D9016D937C93E114F10471F0D701139607
:1054F000FC93EE9312978ECF22968C0F9D1FF9018D
:1055000091838083F301EFCFF093E30CE093E20CFF
:1055100081CF4816590608F42C017D01D3019ACF9A
:10552000CB010E949C287C01009749F0AE01B80194
:105530000E94AF2AC8010E94382987016BCF10E072
:1055400000E068CFFB01DC0104C08D91019080195F
:1055500021F441505040C8F7881B990B0895FB0176
:10556000DC0102C001900D9241505040D8F70895DF
:10557000FC018191861721F08823D9F79927089596
:105580003197CF010895FB01DC0101900D920020BD
:10559000E1F70895FB01DC014150504048F00190D3
:1055A0000D920020C9F701C01D9241505040E0F714
:0655B0000895F894FFCFFE
:1055B6002505250525052505250525052505250595
:1055C600E8030000FFFFFFFF010000000000E40CFD
:1055D600800000004000140054003030301A0018DB
:1055E6000016001C001E00260050082A080408DECB
:1055F60007B80792076C0746072007FA06D406AED7
:1056060006880662063C061606F005CA05A4057E4F
:1056160005170019001B001D002100230025002787
:105626000002000300050006000700080009000B41
:10563600000C000D003E003F0040004100420043C8
:1056460000440045003A003B00000000005D02C730
:1056560001F401AA0225020302170200000000E37A
:1056660005B605F9068C05AF059C058D05000000FD
:10567600003710C701310EC60100000000EE10D140
:1056860010C1109810A11023122D120000000072F4
:1056960013C701F906C601000000004E150D0A00E9
:1056A60052554E4E494E47005041555345442000F1
:1056B60020202020202020202020202020202020E4
:1056C60020202020004E4F20524553504F4E534528
:1056D600004C6174656E63793A20202020202020DA
:1056E6002020202020004C6F6F70204D6F64653A9B
:1056F60000594553004E4F00456469742050726F3F
:105706006772616D2053706565640043686F6F73DF
:10571600652050726F6772616D002A004368616E82
:105726006765204D6F6465004368616E676520504C
:10573600726F6772616D004C6F6F70204D6F64659C
:10574600004D6F64653A20202020202020205052F2
:105756004F4752414D0050726F6772616D20233A78
:10576600202020202020202000496E74657276615A
:105776006C3A2020202000206D73004C6F6F702043
:105786004D6F64653A20202020004E6F004D6F64F7
:10579600653A204D414E55414C004D6F64653A20A7
:1057A6004C4154454E4359204D414E55414C0041C4
:1057B60044414D203630353020444F2030004D6F67
:1057C60064653A204C4154454E4359204155544F47
:1057D600002F004E756D626572206F6620737465CA
:1057E600707320696E2070726F6772616D3A200067
:1057F60050726F6772616D204E6F7420466F756EC2
:10580600640030302E74787400534420496E6974F5
:1058160069616C697A6174696F6E004661696C656D
:10582600642E20547279205265626F6F740053445F
:10583600206661696C6564005374617274202F2060
:1058460053746F702050726F6772616D00426163AE
:105856006B20746F2072756E6E696E672055492CC9
:10586600204D6F64653A20004348414E4745204D20
:105876004F4445004348414E47452050524F4752FA
:10588600414D004348414E47452050524F475241F3
:105896004D2053504545440050726F6772616D202C
:1058A6004D6F6465004D616E75616C204D6F64656A
:1058B600004C6174656E6379204D6F6465204D619F
:1058C6006E75616C004C6174656E6379204D6F6412
:1058D60065204175746F6D61746963004261636B25
:1058E60020746F2072756E6E696E672055492C2084
:1058F6006D6F64653A200050726F6772616D206E3D
:10590600756D6265723A200050726F6772616D2024
:1059160073706565643A200073657269616C206412
:0E59260061746120617661696C61626C65007C
:00000001FF
