:020000040000FA
:100000000C9418020C94F83E0C94CD3E0C94A23E35
:100010000C94773E0C944C3E0C94213E0C94F63D8F
:100020000C94CB3D0C9449020C9449020C94490267
:100030000C9449020C9449020C9449020C94490214
:100040000C9449020C9449020C9449020C94490204
:100050000C9449020C9449020C9449020C94813D81
:100060000C9449020C944B3D0C94213D0C94490294
:100070000C9449020C9449020C9449020C944902D4
:100080000C9449020C9449020C9449020C944902C4
:100090000C9449020C9449020C9449020C94233F9D
:1000A0000C9449020C9449020C9449020C944902A4
:1000B0000C9449020C9449020C9449020C94490294
:1000C0000C9449020C9449020C9449020C94490284
:1000D0000C9449020C9449020C9449020C94490274
:1000E0000C9449020C941C040C94B2250C944F25DA
:1000F0000C94F5140C94BC140C9491260C942705C4
:100100000C948B020C94D5060C946E210C9418055B
:100110000C943E040C9451070C94C5140C9449158E
:100120000C94B5020C9448160C9449120C944C048F
:100130000C9467060C94BF170C9496050C948205DA
:100140000C9434040C944B1E0C9464070C945505C9
:100150000C9498030C9435160C9451200C94300494
:100160000C94121E0C944F140C940C230C946B07DB
:100170000C9488060C94C5060C9498250C942204C3
:100180000C9413030C9486020C944D2B0C940D04C8
:100190000C9443050C946E250C9477240C94F01D5C
:1001A0000C94AA050C943D270C9448040C949327B6
:1001B0000C9447040C9442070C9478050C94E202CA
:1001C0000C942C040C944F2A0C9445160C94501645
:1001D0000C9412150C9439160C94E5140C94732697
:1001E0000C9447400C9498070C94C41D0C948E18E2
:1001F0000C94C1060C945F050C9469050C94682757
:100200000C9460200C9413060C9442040C94260465
:100210000C94A0050C948C050C94A91D0C947D06DF
:100220000C94F1020C94CC490C94C1260C947C22C1
:100230000C9410050C9487020C9482020C943F15C8
:100240000C94F1220C9415040C949F020C9451060A
:100250000C9420240C9491220C9443160C948C0240
:100260000C943A040C943B050C9431050C944B030C
:100270000C944B050C94BD060C9405030C940704D8
:100280000C9419040C94C22A0C94FD090C941D05BD
:100290000C9411044E414E494E495459494E46CD95
:1002A000CCCC3D0AD7233C17B7D13877CC2B32952D
:1002B00095E6241FB14F0A000020410000C842000B
:1002C000401C4620BCBE4CCA1B0E5AAEC59D743C99
:1002D0002F6C6162656C3E3C2F6469763E003C2F5A
:1002E0006C6162656C3E3C6C6162656C3E003C64B6
:1002F00069763E3C6C6162656C3E007C3C3E5E2BE8
:100300003D3F2F5B5D3B2C2A225C00000021002436
:100310000027002A002D00300033000101000004F6
:100320000107010A01000020002300260029002CFB
:10033000002F003200000100000301060109010046
:10034000000A0B02090C0D0E08070304010000004F
:10035000000000000000000000000000000000009D
:10036000000000000000000000000012111000005A
:10037000000000000000000000000000000000007D
:10038000000000000001021020200808102040108A
:100390002040800201020108040201010204081049
:1003A0002040808040201008040201800402018067
:1003B0004020100804020108040201010204081090
:1003C0002040800102040810204080000022002507
:1003D0000028002B002E003100340002010000052F
:1003E0000108010B010505050507050808080802B5
:1003F0000202020A0A0808040404040101010101BE
:100400000101010303030303030303040707070CAC
:100410000C0C0C0C0C0C0C02020202060606060662
:100420000606060B0B0B0B0B0B0B0B004740CC49C6
:1004300011241FBECFEFD1E2DEBFCDBF00E00CBF65
:100440001CE0A0E0B2E0EAE9F2EA00E00BBF02C083
:1004500007900D92AC31B107D9F723E1ACE1BCE0D4
:1004600001C01D92A93FB207E1F712E0C7E1D2E057
:1004700000E006C021970109802FFE010E94C94EAD
:10048000C631D10780E00807A9F70E944E410C94BD
:100490003B510C940000CF93DF93FC018281938148
:1004A0009093C3138093C21384819581A681B781F1
:1004B0008093C4139093C513A093C613B093C7132E
:1004C00080859185A285B3858093C8139093C913C5
:1004D000A093CA13B093CB13DF011C96CF014996AA
:1004E000CCECD3E12D912993A817B907D9F7818DC9
:1004F000928D9093DA138093D91380EC93E1DF917E
:10050000CF910895FC01818D928D0895089581E029
:1005100080932410089508950895FC012481358165
:100520006217730720F480819181009729F410925B
:10053000D60F86ED9FE00895860F971F08950895C2
:10054000DC01ED91FC910190F081E02D1994DB012B
:1005500014964D915C9115976D917C91DC01ED9114
:10056000FC910280F381E02D1994AF92BF92CF925B
:10057000DF92EF92FF920F931F93CF93DF936C0163
:100580007B018B01040F151FEB015E01AE18BF0844
:10059000C017D10759F06991D601ED91FC910190F6
:1005A000F081E02DC6011995892B79F7C501DF91FE
:1005B000CF911F910F91FF90EF90DF90CF90BF9060
:1005C000AF900895FC01538D448D252F30E0842F8A
:1005D00090E0821B930B541710F0CF96089501976B
:1005E0000895FC01918D828D981761F0A28DAE0F58
:1005F000BF2FB11D5D968C91928D9F5F9F73928FDF
:1006000090E008958FEF9FEF0895FC01918D828D0A
:10061000981731F0828DE80FF11D858D90E00895D7
:100620008FEF9FEF0895FC01918D228D892F90E02F
:10063000805C9F4F821B91098F739927089585E7EE
:1006400092E10E94130321E0892B09F420E0822F1C
:100650000895FC01A48DA80FB92FB11DA35ABF4F57
:100660002C91848D90E001968F739927848FA689B1
:10067000B7892C93A089B1898C91837080648C9305
:10068000938D848D981306C00288F389E02D8081B4
:100690008F7D80830895EF92FF920F931F93CF93E6
:1006A000DF93EC0181E0888F9B8D8C8D98131AC0AD
:1006B000E889F989808185FF15C09FB7F894EE8994
:1006C000FF896083E889F9898081837080648083F1
:1006D0009FBF81E090E0DF91CF911F910F91FF903C
:1006E000EF900895F62E0B8D10E00F5F1F4F0F73E4
:1006F0001127E02E8C8D8E110CC00FB607FCFACF9F
:10070000E889F989808185FFF5CFCE010E94290310
:10071000F1CFEB8DEC0FFD2FF11DE35AFF4FF0826F
:100720009FB7F8940B8FEA89FB8980818062CFCFD5
:10073000CF93DF93EC01888D8823B9F0AA89BB8918
:10074000E889F9898C9185FD03C0808186FD0DC003
:100750000FB607FCF7CF8C9185FFF2CF808185FF24
:10076000EDCFCE010E942903E9CFDF91CF9108950B
:1007700080E090E0892B29F00E941F0381110E94E4
:10078000000080E090E0892B49F080E090E0892B28
:1007900029F00E94000081110E94000080E090E09A
:1007A000892B49F080E090E0892B29F00E9400001D
:1007B00081110E94000080E090E0892B49F080E0E8
:1007C00090E0892B29F00E94000081110C94000018
:1007D00008958150823108F05AC0E82FF0E0882750
:1007E000EB50FC4F8F4F0C94C94E150419040704AD
:1007F0000D04110447041C04220426042C043004B4
:1008000034043A043E044704420448044C048091F2
:1008100080008F77809380000895809180008F7D85
:10082000F9CF80918000877FF5CF84B58F7784BD25
:10083000089584B58F7DFBCF8091B0008F77809332
:10084000B00008958091B0008F7DF9CF8091900025
:100850008F77809390000895809190008F7DF9CFDD
:1008600080919000877FF5CF8091A0008F77809353
:10087000A00008958091A0008F7DF9CF8091A00005
:10088000877FF5CF809120018F7780932001089595
:10089000809120018F7DF9CF80912001877FF5CF56
:1008A000CF93DF93282F30E0F901E15CFC4F849176
:1008B000F901EB57FC4FD491F901EB51FC4FC49176
:1008C000CC23A1F081110E94E903EC2FF0E0EE0FA0
:1008D000FF1FEB5DFC4FA591B491EC91ED2381E0FE
:1008E00090E009F480E0DF91CF91089580E090E0FE
:1008F000FACF1F93CF93DF93282F30E0F901E15C0B
:10090000FC4F8491F901EB57FC4FD491F901EB5165
:10091000FC4FC491CC23A9F0162F81110E94E9034A
:10092000EC2FF0E0EE0FFF1FE553FC4FA591B491C3
:100930008FB7F894EC91111108C0D095DE23DC93A9
:100940008FBFDF91CF911F910895DE2BF8CFCF930A
:10095000DF9390E0FC01EB57FC4F24918B519C4FAF
:10096000FC0184918823D1F090E0880F991FFC014D
:10097000E55FFC4FA591B491FC01E553FC4FC59197
:10098000D49161110EC09FB7F8948C91E22FE0953D
:100990008E238C932881E223E8839FBFDF91CF9140
:1009A00008958FB7F894EC91E22BEC938FBFF6CFBC
:1009B0001F93CF93DF93182FEB0161E00E94A704F0
:1009C000209739F460E0812FDF91CF911F910C9433
:1009D0007904CF3FD10511F461E0F5CFE12FF0E0CC
:1009E000E15CFC4FE491E150E23108F0B3C0F0E08B
:1009F0008827E250FB4F8F4F0C94C94E1005180505
:100A00001D0527053105AA053B0543054B05550581
:100A10005F05690578058205AA058C059605A00580
:100A200084B5806884BDC7BDDF91CF911F910895C3
:100A300084B5806284BDC8BDF7CF80918000806896
:100A400080938000D0938900C0938800EDCF80917F
:100A50008000806280938000D0938B00C0938A00D6
:100A6000E3CF80918000886080938000D0938D00D8
:100A7000C0938C00D9CF8091B00080688093B00083
:100A8000C093B300D1CF8091B00080628093B0005A
:100A9000C093B400C9CF809190008068809390008B
:100AA000D0939900C0939800BFCF8091900080624E
:100AB00080939000D0939B00C0939A00B5CF809113
:100AC0009000886080939000D0939D00C0939C001C
:100AD000ABCF8091A00080688093A0008091A0009F
:100AE0008F7B8093A000D093A900C093A8009CCFD7
:100AF0008091A00080628093A000D093AB00C0934F
:100B0000AA0092CF8091A00088608093A000D0932B
:100B1000AD00C093AC0088CF8091200180688093A5
:100B20002001D0932901C09328017ECF809120011C
:100B3000806280932001D0932B01C0932A0174CF4F
:100B400080912001886080932001D0932D01C09373
:100B50002C016ACFC038D1050CF03ECF33CF3FB760
:100B6000F8948091D20F9091D30FA091D40FB091AF
:100B7000D50F26B5A89B05C02F3F19F00196A11DE2
:100B8000B11D3FBFBA2FA92F982F8827BC01CD01D7
:100B9000620F711D811D911D42E0660F771F881F36
:100BA000991F4A95D1F708958F929F92AF92BF9265
:100BB000CF92DF92EF92FF926B017C010E94AF0512
:100BC0004B015C01C114D104E104F104B9F00E94AD
:100BD000AF05681979098A099B09683E7340810548
:100BE000910580F321E0C21AD108E108F10888EEEE
:100BF000880E83E0981EA11CB11CE4CFFF90EF90FB
:100C0000DF90CF90BF90AF909F908F9008952FB7B7
:100C1000F8946091CE0F7091CF0F8091D00F90918A
:100C2000D10F2FBF08950895FC0120812EBD9B0197
:100C30002150310941F051810DB407FEFDCF4EB571
:100C40005EBD4193F5CF61507109860F971F0DB4BA
:100C500007FEFDCF2EB5FC0120830895E0917010B2
:100C6000F0917110808190916F10892B808308958D
:100C7000E0917010F0917110908180916F108095CB
:100C800089238083089590E020917210233339F4F2
:100C90000C96982F990F990F990F80E00895489618
:100CA000F8CFCF93DF931F92CDB7DEB76983DC0116
:100CB000ED91FC910280F381E02D41E050E0BE0116
:100CC0006F5F7F4F19950F90DF91CF910895CF936C
:100CD000DF931F92CDB7DEB76983DC01ED91FC9104
:100CE0000280F381E02D41E050E0BE016F5F7F4F55
:100CF00019950F90DF91CF910895FC019485FB0128
:100D00008485981303C081E0983008F080E008954E
:100D1000CF93DF931F92CDB7DEB76983DC01ED91EE
:100D2000FC910280F381E02D41E050E0BE016F5F55
:100D30007F4F19950F90DF91CF910895EF92FF9219
:100D40000F931F93CF93DF938C017B01D0E0C0E022
:100D5000F701EC0FFD1F6491662339F0C8010E9472
:100D60008806892B11F02196F3CFCE01DF91CF9128
:100D70001F910F91FF90EF900895FC018485958558
:100D80000895FC018489958908952BEB33E0FC01DB
:100D900031832083FB014089518962897389FC0179
:100DA00042835383648375830895DC01ED91FC9144
:100DB000048CF58DE02D199420915C0F260F3327BC
:100DC000331F21323105ECF42091A50FFC0190E096
:100DD00080E0243069F082E00895A0915C0F2191B9
:100DE000AC01445C504FA40FB52FB11D2C9301965C
:100DF000861798F380915C0F680F60935C0F80E01A
:100E0000089581E008951092A50F81E08093A40FCA
:100E100010927F0F61E084E10E94790461E085E136
:100E20000E947904E9EBF0E080818E7F80838081ED
:100E30008D7F808388E48093B80085E48093BC0034
:100E40000895CF93DF9391E090933B0F8823B9F0FF
:100E5000C091B800D091BA008091BC008A7B809389
:100E6000BC0060E084E10E94790460E085E10E94BA
:100E700079040E940307D093BA00C093B800DF91B1
:100E8000CF910895E091DE0F8091DD0FE81730F4E7
:100E9000F0E0E55EF04F808190E008958FEF9FEFE6
:100EA00008959091DE0F8091DD0F2FEF3FEF98179F
:100EB00048F4E92FF0E0E55EF04F208130E09F5FDD
:100EC0009093DE0FC90108958091DD0F9091DE0FA0
:100ED000891B990B0895CF92DF92EF92FF920F93A7
:100EE0001F93CF93DF937C01CB018A012091AB0F3D
:100EF000222389F0EB016B01C40ED51ECC15DD0554
:100F000069F06991D701ED91FC910190F081E02D9C
:100F1000C7011995F3CF642F0E94DC06C801DF9149
:100F2000CF911F910F91FF90EF90DF90CF90089598
:100F3000CF93DF931F92CDB7DEB769832091AB0FBC
:100F40002223F9F02091DB0F203258F021E030E02D
:100F5000FC013383228390E080E00F90DF91CF91FA
:100F600008958091DC0FE82FF0E0E455F04F99816F
:100F700090838F5F8093DC0F8093DB0F81E090E0A4
:100F8000ECCF61E0CE0101960E94DC06F7CFCF9254
:100F9000DF92EF92FF920F931F93CF93DF93FC01A9
:100FA000C48121E02093AB0FC093CC0F1092DC0FD3
:100FB0001092DB0F8385682B88E493E10E949807E9
:100FC000D091DB0FD13208F092C00E94AF056B01C7
:100FD0007C018091A50F811165C082E08093A50FEF
:100FE00081E08093A40F8FEF8093A30F1092A20F44
:100FF000D093A10FACEABFE0E1E8FFE080E0D813B6
:1010000085C01092800F8091800FCC0FC82BC093A9
:10101000800F80917F0F813009F07CC010927F0F8C
:101020000E94AF056B017C018091800F8093BB0013
:101030008091A70F9091A80FA091A90FB091AA0F2E
:10104000892B8A2B8B2B99F00E94AF050091A70F5B
:101050001091A80F2091A90F3091AA0F6C197D094A
:101060008E099F090617170728073907E0F18091B5
:10107000BC0083FDD9CF85EC8093BC000E94AF05F6
:101080006B017C018091A50F823009F445C08091ED
:10109000A30F8F3F61F18091A30F803241F18091C6
:1010A000A30F25C08091A70F9091A80FA091A90F21
:1010B000B091AA0F892B8A2B8B2B09F48ACF0E941F
:1010C000AF050091A70F1091A80F2091A90F3091A3
:1010D000AA0F6C197D098E099F09061717072807A3
:1010E000390708F076CF8091A60F0E942107109251
:1010F000DC0F1092DB0F1092AB0FDF91CF911F919D
:101100000F91FF90EF90DF90CF9008959D91919374
:101110008F5F75CF85EEB0CF8091A70F9091A80F0C
:10112000A091A90FB091AA0F892B8A2B8B2B09F4C0
:10113000A9CF0E94AF050091A70F1091A80F209191
:10114000A90F3091AA0F6C197D098E099F09061706
:1011500017072807390708F095CFC5CF089561E034
:10116000FC0184810E9479048091150F81111092F5
:10117000150F08958EBD00000DB407FEFDCF8EB58E
:101180000895AF92BF92CF92DF92EF92FF920F93AA
:101190001F93CF93DF9300D000D01F921F92CDB743
:1011A000DEB78C017B016A01809172108333E1F418
:1011B0005801A40EB51EA016B10609F46FC00E9416
:1011C000380680EF0E94BA08812F0E94BA08802F4B
:1011D0000E94BA080F5F1F4FF70181917F010E94A3
:1011E000BA080E942E06E7CF5B01A40EB51E843319
:1011F000C1F40E94380619830A838D2D80688B8381
:10120000CC8264E070E0CE0101960E941406AE1418
:10121000BF0409F441C0F70181917F010E94BA081F
:10122000F6CF0E9438060F3F110509F028F4198205
:101230000A8384E08B830CC017FD17C019820A83D0
:1012400033E0169507953A95E1F7007E0C600B8325
:1012500086E0C816D104A0F5F701DE011496EA1560
:10126000FB0599F081918D93FACFC80126E0969500
:1012700087952A95E1F7807E19830A830115104C22
:1012800010F48461D7CF8C61D5CFB6016D5F7F4FED
:10129000CE0101960E9414060E942E06C6012896D1
:1012A0000FB6F894DEBF0FBECDBFDF91CF911F9177
:1012B0000F91FF90EF90DF90CF90BF90AF90089587
:1012C00063E070E0CE0101960E941406F70181915F
:1012D0007F010E94BA08AE14BF04C1F7DDCFCF93DF
:1012E000DF931F92CDB7DEB7898341E050E0BE01A6
:1012F0006F5F7F4F90E080E00E94C1080F90DF9108
:10130000CF910895DA01E0917310F0E0FE2FEE27FF
:10131000E60FF71F90E0982F8827A901BD018E0FD7
:101320009F1F0C94C108CF93DF931F921F92CDB7DC
:10133000DEB779836A8322E030E0AE014F5F5F4F12
:1013400060E170E00E9482090F900F90DF91CF91D1
:101350000895CF93DF931F921F92CDB7DEB77983A5
:101360006A8322E030E0AE014F5F5F4F64E070E0DF
:101370000E9482090F900F90DF91CF910895CF9333
:10138000DF931F92CDB7DEB72091731030E0322F7C
:101390002227260F371F90E0982F8827498341E0A6
:1013A00050E0BE016F5F7F4F820F931F0E94C10804
:1013B0000F90DF91CF9108958FEF0C94BA080F939F
:1013C0001F93CF93DF93EC010E9407068B010E94CD
:1013D000DC098F3F69F00E940706601B710B6C17D8
:1013E0007D07A8F380E0DF91CF911F910F910895C1
:1013F00081E0F9CF8CBD9DBD0895FF920F931F939F
:10140000CF93DF93EB01FC01178A168A2A81211101
:1014100009C02B81211106C02C81211103C02D810F
:10142000222301F141155105E9F08A01FC01F08CFC
:1014300080E591E00E94FA09AE014E5F5F4F24E023
:1014400030E06CE070E08F2D0E948209B8018F2D92
:101450000E94930981E090E0DF91CF911F910F915D
:10146000FF90089580E0F7CFCF93DF93EC01809158
:10147000150F811109C081E08093150F80915413DD
:10148000909155130E94FA0960E08C81DF91CF9111
:101490000C9479048F929F92AF92BF92FF920F9318
:1014A0001F93CF93DF93EC01F62E49015A018E81F1
:1014B000882389F08F8198859C012F5F3F4F388763
:1014C0002F838230924018F40E94DC09F3CFCE01C2
:1014D0000E94AF081E82CE010E94340A8CE291E085
:1014E0000E94DF098F2D80640E94BA0808E110E095
:1014F000D501C401002E04C0B695A7959795879590
:101500000A94D2F70E94BA0808501109083F8FEFD9
:10151000180771F785E9FF2021F028E087E8F2122B
:101520008FEF0E94BA0810E00E94DC098A8787FFCB
:1015300004C01F3F11F01F5FF7CFDF91CF911F91C4
:101540000F91FF90BF90AF909F908F900895AF92B2
:10155000BF92CF92DF92EF92FF920F931F93CF93A0
:10156000DF93EC016901C801820F931F8130924023
:1015700050F58E81882379F088819981AA81BB8179
:1015800084179507A607B70731F48F819885C81689
:10159000D90608F042C0488359836A837B838B85D0
:1015A000833039F089E0440F551F661F771F8A95F5
:1015B000D1F79A01AB0161E1CE010E944A0A88236A
:1015C00089F083E08D83CE010E94AF0880E0DF9137
:1015D000CF911F910F91FF90EF90DF90CF90BF9030
:1015E000AF9008950E9407065B010E94DC098A877C
:1015F0008F3F69F40E9407066A197B096D327140BA
:10160000A0F38FE08D83CE010E94AF08DCCF8E3F28
:1016100089F418861F8281E08E838F8198858C15CE
:101620009D0550F40E94DC098F819885019698876A
:101630008F83F3CF8DE0E6CF6701E00EF11E0E94AD
:10164000DC09F60181936F01EE15FF05C1F78F816B
:101650009885080F191F18870F838985882319F02B
:1016600001151240A0F08E81882389F08F81988522
:101670009C012F5F3F4F38872F838230924018F4B0
:101680000E94DC09F3CFCE010E94AF081E8281E0E8
:101690009ECFCF92DF92EF92FF920F93CF93DF9383
:1016A000EC01690182E1411551056105710599F06F
:1016B0008B85833039F089E0440F551F661F771FF3
:1016C0008A95D1F79A01AB0168E1CE010E944A0ADE
:1016D000882319F084E08D832DC08EEF0E94BA0814
:1016E00076018EEFD81AF70181917F010E94BA0826
:1016F000EC14FD04C1F78FEF0E94BA088FEF0E942F
:10170000BA080E94DC098A878F71853071F4011153
:1017100016C0CE010E94AF0881E0DF91CF910F91FA
:10172000FF90EF90DF90CF90089581E18D83CE01FF
:101730000E94AF08CE010E94AF0880E0EECF88E59E
:1017400092E00E94DF09811102C085E1C4CF20E050
:1017500030E0A9016DE0CE010E944A0A882311F011
:1017600084E1B9CF0E94DC098111FACFD2CF0F9367
:101770004091170F5091180F6091190F70911A0F27
:10178000411551056105710599F0082F25E730E1F4
:1017900080916D1090916E100E94490B882349F042
:1017A0001092170F1092180F1092190F10921A0F13
:1017B00081E00F9108950F93CF93C82F8091160F5A
:1017C000811105C0C1E08C2FCF910F9108954091F8
:1017D00065025091660260916702709168020C2F59
:1017E00025E730E180916D1090916E100E94490BB9
:1017F000811102C0C0E0E7CFCC2321F381E00E9439
:10180000B70B8823B9F31092160FDDCF8F929F92FA
:10181000AF92BF92EF92FF920F931F93CF934B0122
:101820005C01C42F8091650290916602A0916702CD
:10183000B091680288159905AA05BB0551F181E0B0
:101840000E94DB0B81110BC080E0CF911F910F91A3
:10185000FF90EF90BF90AF909F908F90089585E795
:10186000E82E80E1F82E00E012E030E020E0B50143
:10187000A40180916D1090916E100E94A70A882398
:1018800019F38092650290926602A0926702B0926C
:1018900068024091160F4C2B4093160F81E0D5CF74
:1018A000CF93DF93EC016E857F858889998941E02C
:1018B0000E94060C882351F08A8920E2829FC00191
:1018C00011248B589F4EDF91CF91089590E080E0D6
:1018D000FACF8F929F92AF92BF92CF92DF92EF9208
:1018E000FF92CF9326E533E130936E1020936D1075
:1018F000882309F46DC040E060E070E0CB010E94F5
:10190000060C81110BC080E0CF91FF90EF90DF902B
:10191000CF90BF90AF909F908F9008958091331299
:101920008F7789F780913F1290914012A0914112D8
:10193000B091421284369105A105B10520F3C09003
:101940003B12D0903C12E0903D12F0903E12C11438
:10195000D104E104F104B9F240E0C701B6010E94EC
:10196000060C882381F2809180109091811081155E
:10197000924049F6A0918510AA2329F26091831024
:10198000709184106115710509F4BDCF209182100A
:10199000222309F4B8CFA09374132093661390E028
:1019A00080E030E0E1E0F0E0C82FAF01082E02C097
:1019B000440F551F0A94E2F72417350769F041E0F8
:1019C000480F01968930910579F740936F139BCFAB
:1019D000C12CD12C7601C0CF80936F1320918B1036
:1019E00030918C1050E040E02115310541F42091F8
:1019F000991030919A1040919B1050919C10209317
:101A00006713309368134093691350936A13460128
:101A10005701860E971EA11CB11C809275139092DF
:101A20007613A0927713B0927813E0918610F0911C
:101A30008710F0937B13E0937A13B0E00E94D84DA7
:101A4000DC01CB01880D991DAA1DBB1D80937C1361
:101A500090937D13A0937E13B0937F1325E0EE0F38
:101A6000FF1F2A95E1F7E150FE4FEF2FFF27E69584
:101A70008E0F9F1FA11DB11D809370139093711342
:101A8000A0937213B0937313809088109090891074
:101A9000B12CA12C8114910441F480909510909068
:101AA0009610A0909710B0909810C81AD90AEA0A18
:101AB000FB0AC80CD91CEA1CFB1C04C0F694E79472
:101AC000D794C794CA95D2F7C0926B13D0926C1377
:101AD000E0926D13F0926E1385EFC8168FE0D80672
:101AE000E104F10428F48CE08093791381E00CCFB9
:101AF00080E125EFC2162FEFD206E104F104A0F336
:101B00008091A1109091A210A091A310B091A41067
:101B100080937C1390937D13A0937E13B0937F13D7
:101B200080E2E2CF4F925F926F927F928F929F926C
:101B3000AF92BF92CF92DF92EF92FF920F931F93DB
:101B4000CF93DF93EC01423051056105710590F4AC
:101B500080E0DF91CF911F910F91FF90EF90DF9088
:101B6000CF90BF90AF909F908F907F906F905F903D
:101B70004F90089589859A85AB85BC850196A11DF6
:101B8000B11D84179507A607B70710F3CB88DC882B
:101B9000ED88FE888F89803109F042C0BB27A72FCE
:101BA000962F852F480159012A013B01C80ED91EE5
:101BB000EA1EFB1E8091650290916602A091670269
:101BC000B0916802C816D906EA06FB0699F58F8916
:101BD0008031C1F5B301A201552766277727440F4D
:101BE000551F4B585F4EFA01918280828091160FEB
:101BF00081608093160F8A89823080F08D819E816A
:101C0000AF81B8858C0D9D1DAE1DBF1D8093170F34
:101C10009093180FA093190FB0931A0F81E099CFEA
:101C2000DB01CA01E7E0B695A79597958795EA95F8
:101C3000D1F7B8CF40E0C701B6010E94060C811170
:101C4000C6CF86CFB301A2014F77552766277727E6
:101C5000440F551F440F551F4B585F4EFA018082A9
:101C60009182A282B382C2CF8F929F92AF92BF9293
:101C7000CF92DF92EF92FF920F931F93CF93DF9358
:101C8000FC0181859285A385B4850196A11DB11DB6
:101C900084179507A607B70770F480E0DF91CF910E
:101CA0001F910F91FF90EF90DF90CF90BF90AF907A
:101CB0009F908F90089583889488A588B688878997
:101CC000803189F5BB27A72F962F852FE9016A015F
:101CD0007B018F01BC01CD01680D791D8A1D9B1D03
:101CE0008090650290906602A0906702B0906802B2
:101CF00086169706A806B90601F5F801878980318E
:101D000011F5DD24EE24FF24F601EE0FFF1FEB5842
:101D1000FF4E80819181B0E0A0E088839983AA83FF
:101D2000BB8381E0BBCFDB01CA01C7E0B695A795B5
:101D300097958795CA95D1F7C9CF40E00E94060CC8
:101D40008111DBCFAACFE894C7F8DD24EE24FF246D
:101D5000F601EE0FFF1FEE0FFF1FEB58FF4E8081C5
:101D60009181A281B381BF70D8CF4F925F926F9261
:101D70007F92AF92BF92CF92DF92EF92FF920F933A
:101D80001F93CF93DF9300D01F92CDB7DEB78C01A6
:101D900049835A836B837C835901C12CD12C7601F2
:101DA000412C82E0582E612C712C49815A816B8123
:101DB0007C819E012F5F3F4FC8010E94340E882313
:101DC00039F1F8018585A301920104C0220F331F68
:101DD000441F551F8A95D2F7DA01C901C80ED91ED2
:101DE000EA1EFB1E49815A816B817C818789803183
:101DF00011F188EF9FEFAFEFBFE0481759076A076F
:101E00007B0798F2F501C082D182E282F38281E001
:101E10000F900F900F900F90DF91CF911F910F9126
:101E2000FF90EF90DF90CF90BF90AF907F906F903A
:101E30005F904F90089588EF9FEFA0E0B0E0DDCF76
:101E4000CF93DF93FC012581222321F080E0DF91F5
:101E5000CF910895EC0180917913803159F582E09A
:101E60008583178A108E118E128E80917A1390912D
:101E70007B13B0E0A0E025E0880F991FAA1FBB1FCD
:101E80002A95D1F7838B948BA58BB68B82E693E151
:101E90009C8F8B8F81E08C831E821F82188619860F
:101EA0001A861B861C861D861E861F86188A198A1E
:101EB0001A8ACDCF803251F683E0858340917C131E
:101EC00050917D1360917E1370917F13478B508FDB
:101ED000618F728F9F012D5E3F4F82E693E10E94DA
:101EE000B50E8111D3CFB2CF8F929F92AF92BF9296
:101EF000CF92DF92EF92FF920F931F93CF93DF93D6
:101F0000EC018D8181110EC080E0DF91CF911F9196
:101F10000F91FF90EF90DF90CF90BF90AF909F9088
:101F20008F9008950B891C892D893E890417150708
:101F30002607370748F34A015B01823031F48A866D
:101F40009B86AC86BD8681E0E0CF81149104A1041C
:101F5000B10449F41E821F82188619861A861B86D0
:101F60001C861D86F0CF0A851B852C853D85EB8D53
:101F7000FC8D858590E00996B901A8014150510971
:101F800061097109082E04C07695679557954795A4
:101F90000A94D2F775016401E1E0CE1AD108E10894
:101FA000F10804C0F694E794D794C7948A95D2F7C1
:101FB000C416D506E606F70620F0012B022B032BEC
:101FC00011F58F89988DA98DBA8D8E839F83A887EF
:101FD000B9878E010A5F1F4FC114D104E104F104D7
:101FE00009F4ADCF4E815F816885798598018B8D2D
:101FF0009C8D0E94340E91E0C91AD108E108F108C5
:102000008111EACF81CFC41AD50AE60AF70AE1CFD7
:102010003F924F925F926F927F928F929F92AF9278
:10202000BF92CF92DF92EF92FF920F931F93CF93C5
:10203000DF93CDB7DEB72C970FB6F894DEBF0FBE97
:10204000CDBF5C01DC015B968D909C905C971696F1
:102050004D905D906D907C901997411451046104EE
:10206000710409F468C0BFEF4B1A5B0A6B0A7B0A64
:10207000312CF40181859285A385B4859C01AD0145
:102080002F5F3F4F4F4F5F4F29873A874B875C87C2
:10209000730162011D821E821F821886F4018185F0
:1020A0009285A385B4852D813E814F81588528175F
:1020B00039074A075B0708F056C089859A85AB85C2
:1020C000BC858C159D05AE05BF0550F482E0C82E79
:1020D000D12CE12CF12C92E0492E512C612C712C49
:1020E0009E012F5F3F4FB701A601C4010E94340E2D
:1020F0008823C9F189819A81AB81BC81892B8A2B84
:102100008B2B09F1260137019FEF491A590A690AF9
:10211000790A2D813E814F8158852F5F3F4F4F4F68
:102120005F4F2D833E834F8358873FEFC31AD30AF7
:10213000E30AF30AB3CFF4014080518062807380D8
:102140003324339496CFC414D504E604F70409F776
:102150000FEF1FEF2FEF3FE0B701A601C4010E9470
:10216000920D811119C080E02C960FB6F894DEBF55
:102170000FBECDBFDF91CF911F910F91FF90EF90D8
:10218000DF90CF90BF90AF909F908F907F906F9097
:102190005F904F903F900895D50116964D915D91B7
:1021A0006D917C911997411551056105710539F0C3
:1021B00097018601C4010E94920D8823A1F2D501E6
:1021C0001696CD92DD92ED92FC921997332051F044
:1021D000D701C6010196A11DB11DF4018083918331
:1021E000A283B383F5018789908DA18DB28D892B50
:1021F0008A2B8B2B39F48481C78AD08EE18EF28EA4
:1022000080688483F50184818062848381E0ACCF1F
:102210002F923F924F925F926F927F928F929F92F6
:10222000AF92BF92CF92DF92EF92FF920F931F93E4
:10223000CF93DF93EC015B012A018D81811115C0E1
:102240008FEF9FEFDF91CF911F910F91FF90EF9054
:10225000DF90CF90BF90AF909F908F907F906F90C6
:102260005F904F903F902F9008958C8180FFE8CF32
:102270000B891C892D893E894A855B856C857D8506
:10228000C201B0E0A0E068017901C41AD50AE60AEB
:10229000F70AC816D906EA06FB0618F42801441AFC
:1022A000550A42011E0126E0220E311C81149104C0
:1022B00009F4B3C04A855B856C857D856A0181E040
:1022C000D8228B8D9C8D8A019B01E9E0369527955C
:1022D00017950795EA95D1F7ED81E230E1F5FC011C
:1022E000628D738D848D958D600F711F821F931F7A
:1022F000612C22E0722E6C187D088614970408F475
:1023000034012C8126FD04C06114F2E07F0671F4D3
:102310000091650210916602209167023091680277
:10232000061717072807390709F053C040E00E9435
:10233000060C882309F484CFC6018B589F4ED50123
:102340009C01260D371DFC012E173F0709F460C0C4
:1023500041914D93F9CFFC0174807A947022C1149D
:10236000D10471F471100CC0452B462B472B39F565
:102370008F89988DA98DBA8D8E839F83A887B98701
:10238000EB8DFC8D6E817F81888599856250710906
:1023900081099109258504C0660F771F881F991F41
:1023A0002A95D2F70685178520893189600F711F1C
:1023B000821F931F670D711D811D911D99CF4E8145
:1023C0005F816885798591010E94340E8111D8CF93
:1023D00037CF750183019601AB01BC0180916D106F
:1023E00090916E100E94A70A882309F429CFA60CA9
:1023F000B71C8A859B85AC85BD85860D971DA11D63
:10240000B11D8A879B87AC87BD87861897084ECFFA
:10241000281B390BA20EB31EECCFC20113CF1F93A2
:10242000CF93DF93FC012581222371F1162FEC015C
:10243000848187FF1EC0CF010E94500CFC01892BB4
:1024400019F18D81823040F48B899C89AD89BE89D8
:10245000848F958FA68FB78F8F89988D938F828F5A
:102460008F89988DA98DBA8DB58BA48B8C818F7730
:102470008C83111103C08C818F7E8C83812FDF911F
:10248000CF911F910C94DB0B80E0DF91CF911F91D6
:102490000895FF920F931F93CF93DF93EC018D81EB
:1024A000813041F090E080E0DF91CF911F910F915A
:1024B000FF9008958C8181FFF5CF82FD1BC00091B4
:1024C0006D1010916E10C8010E94340A0E94DC0940
:1024D000F82EC8010E94AF088FEFF812E3CF8C816D
:1024E00085FF1BC060E0CE010E940F128C818F7DA2
:1024F0008C83D8CF4B895C896D897E898A859B8541
:10250000AC85BD8584179507A607B707C1F2CE0134
:102510000E94740F8111D3CFC5CF4091170F5091F6
:10252000180F6091190F70911A0F452B462B472BEE
:1025300021F080E00E94B70BB5CF80618C832A85A3
:102540003B85317080E092E0821B930BADCFCF933F
:10255000DF93EC0161E00E940F12882311F01D82CD
:1025600081E0DF91CF9108952F923F924F925F9239
:102570006F927F928F929F92AF92BF92CF92DF9293
:10258000EF92FF920F931F93CF93DF9300D01F9290
:102590001F92CDB7DEB77C015B01342E5D83DC0179
:1025A00015968C911597813009F0CEC014962C9019
:1025B00021FECAC022FCB4C0C32CDD8022947FE07F
:1025C00027222094B22DB1702B2ED7011A964D914F
:1025D0005D916D917C911D97C114D10409F428C1BE
:1025E0005B968D919C915C97FC0174807A948A0132
:1025F0009B0169E036952795179507956A95D1F760
:1026000070228A011170711020C001151105E9F4C2
:1026100016964D915D916D917C91199741155105DB
:102620006105710509F099C057968D919D910D90A6
:10263000BC91A02D0097A105B10509F0B0C0C7015C
:102640000E940810882309F47FC080E092E0801B7C
:10265000910B46018C159D0508F44C01D7015B9642
:102660004D915C915C9716968D919D910D90BC91CA
:10267000A02D0297A109B109FA01258504C0880F90
:10268000991FAA1FBB1F2A95D2F7468557856089D7
:102690007189840F951FA61FB71F9C01AD01270DDF
:1026A000311D411D511D29013A01811432E093066B
:1026B00009F07BC08091650290916602A09167024B
:1026C000B091680284159505A605B70559F48FEFFA
:1026D0009FEFDC018093650290936602A0936702EE
:1026E000B0936802022D9501B301A20180916D1093
:1026F00090916E100E94490B882331F19EEFB91A18
:10270000C818D908F70182859385A485B585880DF9
:10271000991DA11DB11D82879387A487B58755CFC9
:10272000F701438954896589768982859385A485D3
:10273000B585481759076A077B0709F43DCFC701DC
:102740000E94740F811138CF81E090E0D701139679
:102750009C938E93129780E007C09E012F5F3F4F9E
:102760000E94340E811102C090E079C089819A8163
:10277000AB81BC81F701238D348DF901278948EFA6
:102780005FEF60E070E0203121F048EF5FEF6FEF26
:102790007FE084179507A607B70708F050CFF70129
:1027A00086839783A087B18750CF0115110599F5CE
:1027B000D7011A964D915D916D917C911D9753961D
:1027C0008D919D910D90BC91A02D481759076A07D6
:1027D0007B0708F181E00E94DB0B882309F4B4CF6A
:1027E000409265025092660260926702709268029F
:1027F0008091160F81608093160FC8018B589F4EF1
:10280000D5019C01280D391DFC012E173F0759F0F9
:102810004D914193FACF41E0C301B2010E94060CF1
:102820008111EBCF91CF281B390BA20EB31E68CFBD
:10283000F70183899489A589B68984179507A60726
:10284000B70738F48481438B548B658B768B806813
:102850008483F701848183FD1AC0832D9D810F90AD
:102860000F900F900F900F90DF91CF911F910F91CC
:10287000FF90EF90DF90CF90BF90AF909F908F90A0
:102880007F906F905F904F903F902F90089561E000
:10289000C7010E940F12882309F456CFDECFCF93D1
:1028A000DF931F92CDB7DEB7698341E050E0BE01F0
:1028B0006F5F7F4F0E94B4120F90DF91CF91089508
:1028C000FC01DB0112968D919C9113979383828377
:1028D00083E693E09183808314968C91149784838C
:1028E00015968C911597858316964D915D916D91F6
:1028F0007C91199746835783608771871A964D910B
:102900005D916D917C911D97428753876487758790
:102910001E964D915D916D917C9151974687578799
:10292000608B718B52968C915297828B53964D91FE
:102930005D916D917C915697438B548B658B768B13
:1029400057964D915D916D917C915A97478B508F21
:10295000618F728F5B968D919C91948F838F089578
:10296000DC015996ED91FC91309721F081E0958141
:10297000911101C080E00895FC01818D928D009736
:1029800019F061E00C940F120895DC015996ED9155
:10299000FC913097B9F083899489A589B6894285DD
:1029A000538564857585841B950BA60BB70B811524
:1029B00020E89207A105B10538F08FEF9FE7A0E06E
:1029C000B0E0089590E080E00895DC0159968D9183
:1029D0009C91009739F0DC01ED91FC910480F58128
:1029E000E02D199490E080E00895CF93DF93EC01FF
:1029F000E98DFA8D309749F481E090E09B838A83DA
:102A000090E080E0DF91CF91089513821282898D4A
:102A10009A8D0E94B412E98DFA8D22813381232B85
:102A200059F7F0CFCF93DF931F92CDB7DEB769830D
:102A3000DC01ED91FC910280F381E02D41E050E05A
:102A4000BE016F5F7F4F19950F90DF91CF91089571
:102A5000CF93DF931F92CDB7DEB741E050E0BE01C8
:102A60006F5F7F4F0E940811019731F4898190E0D8
:102A70000F90DF91CF9108958FEF9FEFF9CFFC0179
:102A8000818D928D009711F00C9428158FEF9FEF98
:102A900008950F931F93CF93DF93EC01898D9A8D47
:102AA00010E000E0009799F00E9428158C010F3F7C
:102AB000100769F0898D9A8DFC01428553856485E4
:102AC000758541505109610971090E94740FC8014F
:102AD000DF91CF911F910F910895CF93CFB7F894C5
:102AE0008091140F811127C0EAE1F4E08491EAEBB0
:102AF000F3E09491E82FF0E0EE0FFF1FE55FFC4F4D
:102B0000A591B491EC91E92321F461E085E30E9461
:102B1000790461E085E30E94A7048CB580618CBDD7
:102B20008CB580648CBD61E084E30E94A70461E001
:102B300083E30E94A7048091140F8F5F8093140F8A
:102B4000CFBFCF910895CF93DF93C3E0D3E08881C7
:102B5000229660E00E94790483E0C331D807B9F778
:102B6000C3E1D3E08881229670E060E00E94D8043F
:102B700083E0C732D807B1F760E08FE1DF91CF91F2
:102B80000C947904CF93DF938AE10E945004892B3F
:102B900061F06EE571E080E090E00E94D405D0E045
:102BA000C0E0CE01DF91CF91089588E10E945004EA
:102BB000892B49F06EE571E080E090E00E94D40539
:102BC000C1E0D0E0EECF86E10E945004892B49F0AD
:102BD0006EE571E080E090E00E94D405C2E0D0E0B4
:102BE000E0CF8CE10E945004892B49F06EE571E042
:102BF00080E090E00E94D405C3E0D0E0D2CF8EE127
:102C00000E945004892B69F26EE571E080E090E04B
:102C10000E94D405C6CFFC01DB0112968D919C91D8
:102C200013979383828314964D915D916D917C915E
:102C30001797448355836683778318964D915D91EA
:102C40006D917C911B9740875187628773878FE6D0
:102C500093E0918380831C968C911C9784871D96AA
:102C60008D919C91968785870895FC01768765876D
:102C70000895DC01ED91FC91068CF78DE02D1995FE
:102C800091E089270895862F089581E08627089589
:102C900021E0FC018485883008F020E0822F08952F
:102CA00090E080E008958F929F92AF92BF92CF9272
:102CB000DF92EF92FF920F931F93CF93DF9300D099
:102CC0001F92CDB7DEB7FC018581813091F080E0A5
:102CD0000F900F900F900F90DF91CF911F910F9158
:102CE000FF90EF90DF90CF90BF90AF909F908F902C
:102CF0000895848181FFEBCF83899489A589B68962
:102D0000892B8A2B8B2B09F45FC07F0140E050E0B8
:102D1000BA01CF010E94740F8823C9F2F701C38C56
:102D2000D48C8788908CA18CB28C82E090E0A0E05B
:102D3000B0E0F60180839183A283B3839E012F5F6D
:102D40003F4FB501A401C6010E94340E882309F447
:102D5000BECF00E010E09801B501A401C6010E94B9
:102D6000920D882309F4B3CF89809A80AB80BC8010
:102D7000F6018789803119F188EF9FEFAFEFBFE04F
:102D800088169906AA06BB06C8F2F701178A108EA4
:102D9000118E128E138A148A158A168A848180688D
:102DA000848361E0C7010E940F12882309F48FCF4A
:102DB00040E050E0BA01C7010E94740F89CF88EF4C
:102DC0009FEFA0E0B0E0DCCF81E082CFCF92DF9236
:102DD000EF92FF921F93CF93DF93EC0180E2689F05
:102DE000F0011124EB58FF4E9385917161F0842F0F
:102DF000827449F080E0DF91CF911F91FF90EF90B6
:102E0000DF90CF900895142F6A8B80916502909186
:102E10006602A0916702B09168028E879F87A88B97
:102E2000B98BC488D588F12CE12C7601DD24CC2423
:102E3000CF8AD88EE98EFA8E828D938DB0E0A0E095
:102E4000AC01BD014C295D296E297F294F8B588F1C
:102E5000698F7A8F83858871B1F4848D958DA68D65
:102E6000B78D8B8B9C8BAD8BBE8B81E08D831F7060
:102E70001C831E821F82188619861A861B861C8652
:102E80001D8681E0B8CF803109F0B4CF9E012D5E60
:102E90003F4F8B8D9C8D0E94B50E882309F4AACFDD
:102EA00084E0E4CF0F931F93CF938C01C62F0E9431
:102EB000C7076C2F6460C8010E94C7076C2F6B7F27
:102EC000C8010E94C70783EC90E00197F1F7CF910A
:102ED0001F910F9108950F931F93CF93DF938C0150
:102EE000D62FC42F607F642B0E94521780E1D89F99
:102EF000B00111246C2BC801DF91CF911F910F916C
:102F00000C945217CF93DF9300D000D01F921F92E2
:102F1000CDB7DEB798E0EFE8F2E0DE011196019060
:102F20000D929A95E1F79091E313961710F46FEFD5
:102F3000690F262F30E0220F331F41E050E04C0F85
:102F40005D1F240F351FF9016081680F606840E044
:102F50008BED93E128960FB6F894DEBF0FBECDBF80
:102F6000DF91CF910C946B1740E061E08BED93E122
:102F70000E946B178BE39FE10197F1F7089541E001
:102F80000E946B1781E090E00895FC01808191819F
:102F9000009711F00C94744F0895CF93DF93EC01D8
:102FA000898D9A8D009741F00E94A712898D9A8D84
:102FB0000E94744F1A8E198EDF91CF910895CF938E
:102FC000DF932091BE133091BF13232B89F0FC01B6
:102FD000C091BA13D091BB1360817181CE010E9460
:102FE0002151009729F08C1B9D0BDF91CF91089503
:102FF0008FEF9FEFFACF0E94DE50FB01019000207F
:10300000E9F73197AF01461B570BDC01ED91FC91BD
:103010000280F381E02D19948F929F92AF92BF921C
:10302000EF92FF920F931F93CF93DF93CDB7DEB74D
:10303000A1970FB6F894DEBF0FBECDBF7C01FA0199
:10304000CB0119A2223008F42AE08E010F5D1F4F38
:10305000822E912CB12CA12CBF01A50194010E94BC
:10306000EB4DF901CA016A300CF5605DD8016E9331
:103070008D01232B242B252B79F790E080E01097EE
:1030800021F0BD01C7010E94FD17A1960FB6F8946B
:10309000DEBF0FBECDBFDF91CF911F910F91FF908B
:1030A000EF90BF90AF909F908F900895695CDECFB6
:1030B000CF92DF92EF92FF920F931F93CF93DF9304
:1030C0006B01770FEE08FF08F7FE1BC0EC016DE205
:1030D0000E94A0028C0144275527BA014C195D09B2
:1030E0006E097F092AE0CE010E940C18800F911F03
:1030F000DF91CF911F910F91FF90EF90DF90CF90D4
:1031000008952AE0B701A601DF91CF911F910F9199
:10311000FF90EF90DF90CF900C940C188F929F92BD
:10312000AF92BF92CF92DF92EF92FF920F931F93D5
:10313000CF93DF937C018B016C0182E0C80ED11C20
:103140004701E5E08E0E911CD0E0C0E0F601419110
:103150006F0150E070E060E02AE0C8010E940C18A6
:103160005C016EE2C8010E94A0028A0D9B1DC80F7F
:10317000D91FC814D90451F7F701458150E070E018
:1031800060E02AE0C8010E940C188C0F9D1FDF919F
:10319000CF911F910F91FF90EF90DF90CF90BF9054
:1031A000AF909F908F9008956DEC73E00C94FD1795
:1031B000CF93DF93BC0185E792E10E945818EC01A0
:1031C00085E792E10E94D4188C0F9D1FDF91CF916B
:1031D0000895CF93DF93AB01BC012AE085E792E12C
:1031E0000E940C18EC0185E792E10E94D4188C0F24
:1031F0009D1FDF91CF910895CF93DF93BC0185E7A9
:1032000092E10E94A702EC0185E792E10E94D418A6
:103210008C0F9D1FDF91CF9108950F931F93CF9334
:10322000DF93EC010E94FD178C01CE010E94D4189F
:10323000800F911FDF91CF911F910F9108950C94F2
:10324000FD178091091063E0882349F080E00E9417
:10325000821760ED73E08BED93E10C941F1980E011
:103260000E94821768ED73E0F6CF4F925F926F92E3
:103270007F928F929F92AF92BF92CF92DF92EF9206
:10328000FF920E9421190E9407064B015C0161E038
:1032900084E20E9479040E940706681979098A0964
:1032A0009B0960367A4E8105910528F486E20E94DA
:1032B0005004019781F30E9407066B017C010E9474
:1032C00007062B013C01481859086A087B0860E092
:1032D00084E20E94790480E648168AEE580661046A
:1032E000710400F162E080E00E94821760EE73E0FA
:1032F0008BED93E10E941F1962E080E00E9482172B
:1033000065EF73E08BED93E1FF90EF90DF90CF904E
:10331000BF90AF909F908F907F906F905F904F90F5
:103320000C941F19C818D908EA08FB0862E080E06D
:103330000E94821761E074E08BED93E10E941F19F7
:1033400062E089E00E9482172AE0B701A601F7FE39
:103350000DC06DE28BED93E10E94A002442755273A
:10336000BA014C195D096E097F092AE08BED93E1E2
:103370000E940C1868EA74E0C5CF0E94B41766E199
:1033800074E08BED93E10E941F198091FF0F60E0C4
:10339000882349F081E10E94821761E274E08BED9D
:1033A00093E10C941F1982E10E94821765E274E098
:1033B000F6CFCF93DF93EC01662341F00E94B41760
:1033C00068E274E08BED93E10E941F1961E080E0F8
:1033D0000E948217BE018BED93E10E945818C83EEF
:1033E000D34044F463EF73E08BED93E1DF91CF9131
:1033F0000C941F19DF91CF910895CF93DF93EC01C7
:103400000E94B4176BE374E08BED93E10E941F19E7
:1034100061E080E00E948217BE018BED93E1DF91B5
:10342000CF910C945818CF93DF93EC010E94B417FE
:103430006EE774E08BED93E10E941F19209751F421
:1034400060E083E10E9482176AE474E08BED93E10F
:103450000E941F1961E080E00E94821763EC74E013
:103460008BED93E10E941F19C130D10551F461E049
:1034700083E10E9482176AE474E08BED93E10E947D
:103480001F1962E080E00E94821760ED74E08BED0E
:1034900093E10E941F19C230D10551F462E083E12B
:1034A0000E9482176AE474E08BED93E10E941F1979
:1034B00063E080E00E94821764EF74E08BED93E19B
:1034C0000E941F19239761F463E083E10E94821731
:1034D0006AE474E08BED93E1DF91CF910C941F19B6
:1034E000DF91CF910895CF93DF93EC010E94B41741
:1034F0006CE474E08BED93E10E941F19209751F466
:1035000060E083E10E9482176AE474E08BED93E14E
:103510000E941F198091221090912310892B09F08D
:1035200046C061E080E00E94821768E574E08BEDA0
:1035300093E10E941F19C130D10551F461E083E18C
:103540000E9482176AE474E08BED93E10E941F19D8
:1035500062E080E00E94821768E274E08BED93E104
:103560000E941F19C230D10551F462E083E10E942C
:1035700082176AE474E08BED93E10E941F1963E007
:1035800080E00E94821767E674E08BED93E10E9471
:103590001F19239761F463E083E10E9482176AE4B4
:1035A00074E08BED93E1DF91CF910C941F19DF91C3
:1035B000CF91089580912210909123108130910530
:1035C00009F480C01CF4892B49F0089582309105DC
:1035D00009F47DC0039709F48EC008950E94B417C2
:1035E00061E774E08BED93E10E941F1961E080E0D8
:1035F0000E94821766E874E08BED93E10E941F1928
:103600008091F50F9091F60F0A9734F463EF73E011
:103610008BED93E10E941F196091F50F7091F60FE9
:103620008BED93E10E94581862E080E00E948217BF
:1036300069E974E08BED93E10E941F198091790292
:1036400090917A02A0917B02B0917C02883E9340D7
:10365000A105B10530F463EF73E08BED93E10E94B7
:103660001F194091790250917A0260917B0270910A
:103670007C022AE08BED93E10E940C1867EA74E06B
:103680008BED93E10E941F1963E080E00E94821796
:103690006BEA74E08BED93E10E941F198091FF0F9C
:1036A00063E0882349F081E10E94821761E274E0BF
:1036B0008BED93E10C941F1982E10E9482176AEB53
:1036C00074E0F6CF0E94B4176DEB74E0F1CF0E9466
:1036D000B4176AEC74E08BED93E10E941F1961E06E
:1036E00080E00E9482176FED74E08BED93E10E9401
:1036F0001F190C9421190E94B4176EEE74E0EBCFE1
:103700000F931F93CF93DF938C01EB01FC0180811A
:1037100091810097E1F06881798161157105A9F0C7
:10372000428153812C813D814217530770F00E94E2
:103730000B518C819D81F801958384831D821C82AD
:10374000DF91CF911F910F9108950E94744F88814E
:103750009981F801918380838A819B8193838283FD
:103760008C819D8195838483198218821B821A82A1
:10377000E5CF0F931F93CF93DF93EC01888199815D
:10378000009759F02A813B812617370730F081E0F6
:10379000DF91CF911F910F9108958B016F5F7F4F44
:1037A0000E94FD4F009759F0998388831B830A83F9
:1037B0002C813D81232B59F7FC011082E8CF80E05A
:1037C000E7CFEF92FF920F931F93CF93DF931F9258
:1037D0001F92CDB7DEB78C0169831A82FC01E480A9
:1037E000F580FFEFEF1AFF0AB7010E94B91B88238B
:1037F00081F0F8012081318184819581BE016F5F64
:103800007F4F820F931F0E940B51F801F582E482D3
:1038100081E00F900F90DF91CF911F910F91FF905A
:10382000EF900895EF92FF920F931F93CF93DF9342
:10383000EC017B018A01BA010E94B91B2881398100
:10384000811114C02115310519F0C9010E94744F6E
:10385000198218821D821C821B821A82CE01DF917E
:10386000CF911F910F91FF90EF9008951D830C83CE
:10387000B701C9010E940B51F1CFFB01019000205B
:10388000E9F73197AF01461B570B0C94121C0F93AD
:103890001F93CF93DF93CDB7DEB762970FB6F8943F
:1038A000DEBF0FBECDBF8C01CB01F80111821082AB
:1038B00013821282158214824AE0BE016F5F7F4F2D
:1038C0000E94C14ABE016F5F7F4FC8010E943D1C2C
:1038D00062960FB6F894DEBF0FBECDBFDF91CF91D9
:1038E0001F910F910895FC011182108213821282A0
:1038F00015821482FB0101900020E9F73197AF0196
:10390000461B570B0C94121CCF92DF92EF92FF9242
:103910000F931F93CF93DF93EC016B017A0146174E
:10392000570720F48D2D6A01E62EF82E6FEC73E018
:10393000CE010E94731C0091BE131091BF13C016DC
:10394000D10600F5E016F10608F48701E091BA13FC
:10395000F091BB13E00FF11FF08010826091BA1359
:103960007091BB136C0D7D1D61157105A9F0CE0121
:103970000E943D1C8091BA139091BB13080F191F30
:10398000F801F082CE01DF91CF911F910F91FF904E
:10399000EF90DF90CF90089588819981009711F082
:1039A0000E94744F198218821D821C821B821A8207
:1039B000E1CFAF92BF92CF92DF92EF92FF920F933F
:1039C0001F93CF93DF9300D01F92CDB7DEB78C014A
:1039D0006B017A01809172108333E9F45B01680115
:1039E000C40ED51EC016D106A9F10E9438068FE07C
:1039F0000E94BA08812F0E94BA08802F0E94BA083C
:103A00000F5F1F4F80E00E94BA08F50181935F01AC
:103A10000E942E06E7CF843369F50E943806198389
:103A20000A838F2D8F778B83EC8264E070E0CE0168
:103A300001960E941406A70170E060E0C6010E9492
:103A4000F950E114F10421F0B701C6010E941406F7
:103A50000E942E06C7010F900F900F900F90DF91DC
:103A6000CF911F910F91FF90EF90DF90CF90BF907B
:103A7000AF9008950E9438060F3F110509F030F409
:103A800019820A831B8263E070E0D1CF17FD0BC05F
:103A900019820A8333E0169507953A95E1F7007E7F
:103AA00008600B83F0CFC80126E0969587952A958C
:103AB000E1F7807E19830A830115104C18F48061A8
:103AC0008B83E1CF8861FCCFCF93DF931F92CDB77B
:103AD000DEB72091731030E0322F2227260F371FD8
:103AE00090E0982F882741E050E0BE016F5F7F4F44
:103AF000820F931F0E94D91C89810F90DF91CF9173
:103B00000895CF93C82F462F61E070E00E94BF094F
:103B100061E070E08C2F0E94641D8111F9CFCF917C
:103B20000895CF93C82F80E591E00E94FA0968E0DC
:103B300070E08C2FCF910C94811DCF93C82F80E51E
:103B400091E00E94FA0960E170E08C2FCF910C9413
:103B5000811DCF93DF93EC01888D883020F40E9483
:103B60009D1D88E0888FDF91CF91089563E070E01C
:103B70000C94641DCF93C82F80E591E00E94FA0950
:103B80008C2FCF910C94B61DEF92FF920F931F9341
:103B9000CF93DF937C0180917210D4E0833309F0DE
:103BA000D8E00DE510E1C0E0F801219131918F01DD
:103BB000F701848195812817390729F0CF5FDC133D
:103BC000F3CF80E006C08C2F0E94BA1D8431B1F77C
:103BD00081E0DF91CF911F910F91FF90EF900895B9
:103BE000CF93DF93EC018C858830D0F40E94BA1D0E
:103BF000843189F0882379F0883169F021E08C31B3
:103C000059F4E881F9810084F185E02DCE01199500
:103C100021E0892B09F420E0822FDF91CF910895D4
:103C200080E0FBCFCF92DF92EF92FF92CF93DF93B2
:103C3000EC018C85883068F40E94911D0E94070673
:103C40006B017C018C850E94BA1D811109C088E03E
:103C50008C87DF91CF91FF90EF90DF90CF90089508
:103C600061E070E080E090E00E94D4050E940706C9
:103C7000AB01BC014C195D096E097F098D859E85DC
:103C8000B0E0A0E0481759076A077B07D8F28C8597
:103C90000E949D1DDCCFCF93FC01C08D80E591E09B
:103CA0000E94FA0960E270E08C2F0E94811D62E0A0
:103CB00070E08C2F0E94641D84FD16C062E070E0ED
:103CC0008C2F0E94641D83FF0AC048E162E070E00F
:103CD0008C2F0E94BF0980E090E0CF91089580E58D
:103CE00091E00E94FA09E3CF40E162E070E08C2F9E
:103CF0000E94BF0981E0F0CFCF93DF931F92CDB731
:103D0000DEB741E050E0BE016F5F7F4F90E080E0A2
:103D10000E94D91C89810F90DF91CF910895CF9394
:103D2000DF93C4E1D0E00E947C1E882361F061E053
:103D300070E080E090E00E94D4052197A1F780E038
:103D4000DF91CF91089581E0FBCFCF92DF92EF9288
:103D5000FF921F93CF93DF93CDB7DEB7C454D10941
:103D60000FB6F894DEBF0FBECDBFFC014281538178
:103D70006481758123964CAF5DAF6EAF7FAF2397A3
:103D800081E023968FAF23972396CCACDDACEEACCD
:103D9000FFAC2397CBAADCAAEDAAFEAA4DA75EA78B
:103DA0006FA778AB88ABCDA4DEA4EFA4F8A8CFA210
:103DB000D8A6E9A6FAA68EABCBA8DCA8EDA8FEA8EB
:103DC000C9A2DAA2EBA2FCA22BEB33E03C8B2B8B3B
:103DD0009FEF9D8B9E8B9F8B188E3E872D878AA78A
:103DE000CFA0D8A4E9A4FAA4CF86D88AE98AFA8A0F
:103DF0008CA389A19AA1ABA1BCA189879A87AB8723
:103E0000BC873A8329834B835C836D837E83809157
:103E1000741081116CC060E372E080E090E00E9459
:103E2000D4050E946D15EFEEF3E0E491F0E0EE0FA3
:103E3000FF1FE553FC4F85919491909371108093EF
:103E40007010EFE8F3E0E491E0936F1061E08AE036
:103E50000E94A7040E942E0680E591E00E94FA09C4
:103E600084E38093721080E80E946F090E948F1E85
:103E7000882309F472C088E00E946F090E947C1EAA
:103E8000883009F06AC080E10E946F090E947C1EA0
:103E9000803109F062C080E00E946F090E947C1EA0
:103EA000182F81115AC041E050E0BE016D5B7F4F79
:103EB0008FE190E00E94D91C24968FAD2497833027
:103EC00009F04BC080E48093731042E06EE170E033
:103ED000812F0E94BF0942E06FE170E0812F0E94B4
:103EE000BF091F5F183089F781E08093741080E567
:103EF00091E00E94FA0946E050E06FE772E089E045
:103F000090E00E94C10844E050E0BE016D5F7F4F29
:103F10008FE090E00E94C10844E050E0BE01615F84
:103F20007F4F81E090E00E94C10844E050E0BE0174
:103F30006B5E7F4F85E090E00E94C10881E08C8736
:103F400089859A85AB85BC85809332139093331312
:103F5000A0933413B09335136FC087E3809372102E
:103F600080E80E946F090E948F1E882339F188E043
:103F70000E946F090E947C1E883001F580E10E943A
:103F80006F090E947C1E182F8031C1F480E00E94CE
:103F90006F090E947C1E811111C041E050E0BE01FA
:103FA0006D5B7F4F89E390E00E94D91C24968FAD12
:103FB0002497843019F41093731096CF83E3809381
:103FC000721080E80E946F090E948F1E882391F171
:103FD00080E10E946F090E947C1E803159F582E1C8
:103FE0000E946F090E947C1E823121F580E00E94B0
:103FF0006F090E947C1E81111DC084E080937310A4
:1040000015E525961FAF259741E050E0BE016C5B9A
:104010007F4F8BE190E00E94C10824961FAF249748
:1040200041E050E0BE016D5B7F4F8AE190E00E946D
:10403000C1085ACF10927210CC5BDF4F0FB6F894C4
:10404000DEBF0FBECDBFDF91CF911F91FF90EF90EC
:10405000DF90CF9008951F93CF93DF931F92CDB73A
:10406000DEB7182F80E591E00E94FA09812F0E94A7
:10407000430627E0129FF0011124EB5DFF4E2281E1
:104080003381377041E050E0BE016F5F7F4F820F98
:10409000931F0E94D91C89810F90DF91CF911F91AE
:1040A0000895FC01808D883040F4218D328D232BC2
:1040B00021F00E942B2090E008958FEF9FEF08954C
:1040C000CF93DF93FC012485283028F08FEF9FEFFA
:1040D000DF91CF910895EC010190F081E02D0084F3
:1040E000F185E02D1995892B89F38C850E942B2071
:1040F00090E0EECFDA01E0917310F0E0FE2FEE27B2
:10410000E60FF71F90E0982F8827A901BD018E0FB9
:104110009F1F0C94D91C8F929F92AF92BF92CF9207
:10412000DF92EF92FF920F931F93CF93DF93CDB760
:10413000DEB760970FB6F894DEBF0FBECDBF7C012F
:1041400090917210911115C018E0812F60960FB6F2
:10415000F894DEBF0FBECDBFDF91CF911F910F91BD
:10416000FF90EF90DF90CF90BF90AF909F908F9097
:10417000089508E0933309F404E06B0180E591E0D1
:104180000E94FA099E012F5F3F4F5901490110E03B
:10419000812F0E94B61DF40181934F018823C1F045
:1041A0001F5F0113F5CF00E0F50181915F018D31B3
:1041B00049F0883139F08A51823020F00F5F1013B6
:1041C000F3CFC2CF60E170E0802F0E94811D102FDD
:1041D000A12EB12CF501EE0FFF1FE35AFF4E118205
:1041E000108283EE93E00197F1F742E870E060E01F
:1041F000812F0E94BF094FEF62E070E0812F0E9483
:10420000BF09B601C114D10491F480917D0290914F
:104210007E0201968115F0EC9F0708F45CC0909334
:104220007E0280937D0260917D0270917E02812FDB
:104230000E94A90986E0E7E9F2E0DE011996019003
:104240000D928A95E1F7F70183818F778C878481BE
:104250008D8785818E87A7014E5F5F4F24E030E018
:104260006CE070E0812F0E948209B601812F0E94CC
:10427000930926E030E0AE01475F5F4F66E070E0F3
:10428000812F0E94820961E070E0812F0E94811DD0
:1042900027E02A9DC0012B9D900D11249C012B5DD0
:1042A0003F4E7901F9011182108222E030E0AE0127
:1042B000415F5F4F68E270E0812F0E947A208F8516
:1042C0009889982789279827F701938382831682F4
:1042D000158214823ACF80E090ECA1CFCF92DF928A
:1042E000EF92FF920F931F93CF93DF9300D000D0F4
:1042F000CDB7DEB78C016B017A01FC01808D88306F
:1043000010F40E949D1D8BEB93E09A838983F60144
:1043100082819381A481B5818B839C83AD83BE838D
:10432000B701CE0101960E948B20F801808F883062
:10433000A0F4F586E486128E118E81E026960FB6E3
:10434000F894DEBF0FBECDBFDF91CF911F910F91CB
:10435000FF90EF90DF90CF90089580E0EFCF7F92B5
:104360008F929F92AF92BF92CF92DF92EF92FF9285
:104370000F931F93CF93DF931F921F92CDB7DEB79A
:10438000782E8B014A01590122E030E0AE014F5FE7
:104390005F4F64E270E00E947A20E980FA80FE2498
:1043A000EF24FE24E00EF11E970137704091721049
:1043B000072D10E0433309F042C0085F1F4F102F54
:1043C0000027110F110F110FC901800F911F4733E3
:1043D000C9F1A9014A0D5B1D4130584098F160E0D8
:1043E00078E06B01C21AD30AA601B4010E94C10889
:1043F000A5014C195D09B4016C0D7D1DC8010E9419
:10440000C108EA0CFB1CF982EA8222E030E0AE012E
:104410004F5F5F4F64E270E0872D0E9482090F902A
:104420000F90DF91CF911F910F91FF90EF90DF9050
:10443000CF90BF90AF909F908F907F900895005F36
:104440001F4FBDCFA501B401DACFEF92FF921F93AA
:10445000CF93DF931F921F92CDB7DEB7182F22E0C4
:1044600030E0AE014F5F5F4F60E270E00E947A2063
:10447000E980FA80FE24EF24FE2422E030E0AE0141
:104480004F5F5F4F60E270E0812F0E947A20898148
:104490009A81982789279827E816F90689F487E0F2
:1044A000189FF0011124EB5DFF4EF582E482C701F5
:1044B0000F900F90DF91CF911F91FF90EF90089593
:1044C0007C01DBCF1F93CF93DF93182F80E591E022
:1044D0000E94FA09812F0E942522EC01812F0E945F
:1044E000B61D873121F08C3111F0D0E0C0E0CE0153
:1044F000DF91CF911F910895CF93DF93EC018C85CD
:10450000883060F40E94BA1D873111F08C3131F48B
:104510008C850E9462228115984088F3DF91CF91AB
:104520000895FC018485883010F40C94622290E098
:1045300080E00895CF92DF92EF92FF921F93CF9386
:10454000DF93182F7B01EA014130584010F0C0E0A2
:10455000D8E080E591E00E94FA09812F0E9425228F
:104560006C01812F0E94B61D873111F08C3121F52D
:10457000CC16DD0670F380E591E00E94FA099E01F9
:10458000A70170E060E0812F0E94AF2160E270E03F
:10459000812F0E94811D62E070E0812F0E94641DC6
:1045A00084FD0DC0812F0E94B61D8823B9F080E5DF
:1045B00091E00E94FA09EFCFD0E0C0E0DCCF40E10B
:1045C00062E070E0812F0E94BF09CE01DF91CF91A0
:1045D0001F91FF90EF90DF90CF900895D0E0C0E062
:1045E000F4CF0F931F93CF93DF938C01EA01FC016B
:1045F0008485883048F40E949A22892B39F481E01E
:1046000090E0F80193838283D0E0C0E0CE01DF9197
:10461000CF911F910F9108959F92AF92BF92CF9229
:10462000DF92EF92FF920F931F93CF93DF938C0152
:104630005B01942EE52EFC01C688D788F08C80E5BE
:1046400091E00E94FA098F2D0E942522C92DDE2DAE
:104650008C179D0708F4EC019E01A501B6018F2D72
:104660000E94AF21F801868997898C0F9D1F978B37
:10467000868BCE01DF91CF911F910F91FF90EF902C
:10468000DF90CF90BF90AF909F900895FF920F93CF
:104690001F93CF93DF931F921F92CDB7DEB7F82EF3
:1046A00022E030E0AE014F5F5F4F66E270E00E94B3
:1046B0007A2009811A8110270127102722E030E093
:1046C000AE014F5F5F4F66E270E08F2D0E947A204F
:1046D00089819A819827892798270817190749F40B
:1046E000C8010F900F90DF91CF911F910F91FF9014
:1046F00008958C01E3CF1F93CF93DF93182F87E0AA
:10470000189FE0011124CB5DDF4E888199810097CD
:1047100061F480E591E00E94FA09812F0E9446230E
:104720002E81821B910999838883DF91CF911F91FC
:1047300008959F92AF92BF92CF92DF92EF92FF9235
:104740000F931F93CF93DF93EC017B018091721045
:10475000811121C01B821A8288EE93E0A0E0B0E0B4
:104760008C839D83AE83BF838FE693E09983888398
:1047700088E08C8788EE93E09E878D87CE01DF915D
:10478000CF911F910F91FF90EF90DF90CF90BF904E
:10479000AF909F90089534E0932E833311F028E07A
:1047A000922E8DE5C82E80E1D82E10E098E0B92E2B
:1047B000A12CD6012D913D916D01F7018481958148
:1047C0002817390791F4812F0E94BA1D082F8731CD
:1047D00011F08C3139F5812F0E947B23892B59F5FB
:1047E0000C3119F4812F0E94911D1F5F9112E1CFAE
:1047F000A11008C0D701ED91FC910084F185E02D56
:10480000C70119951B821A8288EE93E0A0E0B0E000
:104810008C839D83AE83BF838FE693E099838883E7
:10482000BC86A8CF843149F08111DFCFF6013297E1
:1048300011821082DACFB12ED8CFAA24A394D5CF7B
:104840008F929F92AF92BF92CF92DF92EF92FF92A0
:104850000F931F93CF93DF93CDB7DEB72F970FB68C
:10486000F894DEBF0FBECDBF5C014B017A01809191
:1048700072108823C9F104E0833309F008E0B50120
:10488000CE0101960E9499238DE5C82E80E1D82E95
:1048900010E0F601219131916F01F501848195813C
:1048A0002817390751F4812F0E94BA1D873129F446
:1048B000A701B401812F0E949A221F5F0113E9CF43
:1048C000C7012F960FB6F894DEBF0FBECDBFDF91A4
:1048D000CF911F910F91FF90EF90DF90CF90BF90FD
:1048E000AF909F908F900895F12CE12CE9CFFC01BF
:1048F0008485883010F40C947B2390E080E0089548
:104900004F925F927F928F929F92AF92BF92CF927F
:10491000DF92EF92FF920F931F93CF93DF931F923B
:104920001F92CDB7DEB7782E6B014A01A82EB12CAD
:1049300027E0829FC0011124FC01EB5DFF4E7F0147
:104940000081118180E591E00E94FA09081519059E
:1049500054F4872D0E944623F70126818C01021B07
:104960001109118300830115110519F5872D0E9486
:10497000B61D843159F0882349F001E010E08C31F4
:1049800011F410E000E0119501951109C8010F9094
:104990000F90DF91CF911F910F91FF90EF90DF90DB
:1049A000CF90BF90AF909F908F907F905F904F90EF
:1049B0000895801691060CF4840187E08A9DF00129
:1049C0008B9DF00D1124EB5DFF4EE280F380C1144E
:1049D000D10451F12701F7E05F22872D0E944306A1
:1049E000840D951D20917210273309F453C098014E
:1049F000240D351D2130384008F44CC020E038E04B
:104A0000490184189508A401B6010E94D91C260109
:104A1000480C591C6801C818D908872D0E94430604
:104A2000A601B2010E94D91CE00EF11E87E08A9D0A
:104A3000F0018B9DF00D1124EB5DFF4EF382E282BD
:104A400020813181201B310B318320838681800FAF
:104A5000912F911D8A3F910510F4232BF1F487E0EB
:104A60008A9DF0018B9DF00D1124EB5DFF4E1682A7
:104A7000F982EA8222E030E0AE014F5F5F4F68E2E8
:104A800070E0872D0E94820960E470E0872D0E940B
:104A9000811D7CCFA801B601C5CF868377CFCF9388
:104AA000DF93FC01218D328D2115310529F48FEF23
:104AB0009FEFDF91CF910895EC01808D421753074E
:104AC00008F0A9010E9480241816190684F7298D80
:104AD0003A8D281B390B3A8F298FEBCF0F931F93F9
:104AE000CF93DF931F92CDB7DEB7FC01218D328DBE
:104AF000232B41F48FEF9FEF0F90DF91CF911F9108
:104B00000F9108958C0141E050E0BE016F5F7F4F2F
:104B1000FC01808D0E948024181619065CF7F801AC
:104B2000818D928D0197928F818F898190E0E4CF62
:104B3000CF93DF931F92CDB7DEB741E050E0BE01C7
:104B40006F5F7F4FFC0184850E9480241816190630
:104B500034F4898190E00F90DF91CF9108958FEF29
:104B60009FEFF9CFFC018485883010F40C948024E9
:104B700090E080E008958F929F92AF92BF92CF9283
:104B8000DF92EF92FF920F931F93CF93DF9300D0AA
:104B900000D000D01F92CDB7DEB790917210911166
:104BA00015C018E0812F2A960FB6F894DEBF0FBE0D
:104BB000CDBFDF91CF911F910F91FF90EF90DF90CC
:104BC000CF90BF90AF909F908F90089528E0F22EE5
:104BD000933311F494E0F92E6B01082F80E591E0F6
:104BE0000E94FA099E012F5F3F4F5901490110E0D1
:104BF000812F0E94B61DF40181934F018823C1F0DB
:104C00001F5FF112F5CFF12CF50191915F019D31FC
:104C100049F0983139F09A51923020F0F3941F11F5
:104C2000F3CFBFCF60E170E08F2D0E94811D1F2D5B
:104C3000E12EF12CF701EE0FFF1FE35AFF4E118218
:104C4000108283EE93E00197F1F7402F70E060E06F
:104C5000812F0E94BF094FEF62E070E0812F0E9418
:104C6000BF09B601CD2889F480917D0290917E0222
:104C700001968115F0EC9F0798F190937E02809346
:104C80007D0260917D0270917E02812F0E94A909B0
:104C900061E070E0812F0E94811D27E02E9DC00100
:104CA0002F9D900D11249C012B5D3F4E7901F90140
:104CB0001182108222E030E0AE01475F5F4F68E270
:104CC00070E0812F0E947A2089859A85982789270C
:104CD0009827F7019383828316821582148262CF0C
:104CE00080E090ECCACF0F931F93CF93DF93EC013A
:104CF0008B01888D883010F40E949D1DB80182E0E0
:104D00000E94BB25888F883050F41D870C871A8E2F
:104D1000198E81E0DF91CF911F910F91089580E06E
:104D2000F9CF0F931F93CF938C01FC0164817581A0
:104D300081E20E94BB25C82F8830F8F480E591E01D
:104D40000E94FA098C2F0E94B61D833131F08C2FFE
:104D5000CF911F910F910C94911D62E070E08C2F08
:104D60000E94811DF80184819581EC2FF0E0EE0F07
:104D7000FF1FE35AFF4E91838083CF911F910F91C4
:104D80000895CF92DF92EF92FF921F93CF93DF931C
:104D9000EC017B016A018C85883048F40E94BA1DC1
:104DA000882319F08C850E94911D88E08C87F7017B
:104DB00082819381A481B5810097A105B10551F449
:104DC00090E080E0DF91CF911F91FF90EF90DF9016
:104DD000CF9008958F3F9F4FAF4FBF4F89F370E043
:104DE00060E081E20E94BB25182F8C87883040F755
:104DF00080E591E00E94FA09A7014E5F5F4F24E031
:104E000030E06CE070E0812F0E948209B601812FB2
:104E10000E94930964E070E0812F0E94811D0E942E
:104E200007066B017C018C850E94BA1D873111F148
:104E30008C3101F1882321F20E940706AB01BC01ED
:104E40004C195D096E097F098D859E85B0E0A0E053
:104E500084179507A607B70738F061E070E080E097
:104E600090E00E94D405DFCF8C850E949D1D88E0D4
:104E70008C87A6CF81E090E0A5CF0F931F93CF93AF
:104E8000DF931F921F92CDB7DEB7FC012485283037
:104E9000E0F48C0180E591E00E94FA0922E030E024
:104EA000AE014F5F5F4F60E170E0F80184850E94C2
:104EB0007A2089819A819827892798270F900F90C7
:104EC000DF91CF911F910F91089590E080E0F6CF90
:104ED0000F931F93CF93DF931F921F92CDB7DEB72F
:104EE000FC0124852830E0F48C0180E591E00E94EB
:104EF000FA0922E030E0AE014F5F5F4F64E070E0FE
:104F0000F80184850E947A2089819A8198278927CF
:104F100098270F900F90DF91CF911F910F910895D7
:104F200090E080E0F6CF0F931F93CF93DF9300D0F4
:104F300000D01F921F92CDB7DEB78C01D8015996D1
:104F40004D915C915A974115510551F0ED91FC91AD
:104F5000048CF58DE02D70E060E0C8011995EECF6E
:104F6000F801808D0E947B23892BB1F148E050E04D
:104F7000BE016F5F7F4FD80158968C910E948024AC
:104F800018161906F4F4D801509684E0FE01319603
:104F900001900D928A95E1F78D8190E0982F8827F6
:104FA0002E81820F911DF801958B848B8F81282F84
:104FB00030E0322F22278885820F932F911D928F08
:104FC000818F28960FB6F894DEBF0FBECDBFDF915C
:104FD000CF911F910F91089590E080E0F2CF4F9212
:104FE0005F926F927F928F929F92AF92BF92CF9279
:104FF000DF92EF92FF920F931F93CF93DF93CDB782
:10500000DEB763970FB6F894DEBF0FBECDBF7C014D
:105010006B013A01FB0120E090E080E06AE0319111
:10502000332309F461C040ED430F4A3008F04DC00E
:10503000689FA001699F500D1124CA01C097830F7A
:10504000911D37FD9A958F3F910549F340F3F70184
:10505000428153816481758180913E1390913F1309
:10506000A0914013B0914113481759076A077B0775
:1050700009F40DC28701085F1F4F0E9407066F7079
:1050800077277C5FC8010E947326813009F004C233
:105090008BEB93E09A838983F70182819381A481CA
:1050A000B5818B839C83AD83BE8345E350E0BE0115
:1050B0006F5F7F4FC8010E94FD09892BA9F5D12C94
:1050C000C12CC8010E94A91D17C03E3209F0BFCFF4
:1050D000233009F4BCCFD301A20FB11D12968C93DB
:1050E0002F5F90E080E09BCF233009F0B0CFF30139
:1050F0008583CC24C394D12CC60163960FB6F89453
:10510000DEBF0FBECDBFDF91CF911F910F91FF90FA
:10511000EF90DF90CF90BF90AF909F908F907F9057
:105120006F905F904F9008950E940706F701778374
:10513000668342E050E0B7016A5F7F4FC8010E947A
:105140000C2381E090E09A83898342E050E0BE0125
:105150006F5F7F4FC8010E940C2380E091E09A832B
:10516000898342E050E0BE016F5F7F4FC8010E941B
:105170000C231A82198242E050E0BE016F5F7F4F1C
:10518000C8010E940C2342E050E0BE016F5F7F4FD8
:10519000C8010E940C2342E050E0BE016F5F7F4FC8
:1051A000C8010E940C235601F6018081882301F179
:1051B0006501F60181912F01882311F08E32B1F43F
:1051C00046018A189B081814190474F48D8641E06E
:1051D00050E0BE01635F7F4FC8010E940C23A40111
:1051E000B501C8010E940C235201DECF6201E1CF5C
:1051F0001D8641E050E0BE01635F7F4FC8010E9401
:105200000C23C12CDD24D394DA82C98242E050E021
:10521000BE016F5F7F4FC8010E940C23DA82C982F2
:1052200042E050E0BE016F5F7F4FC8010E940C2337
:10523000C8010E944B1E892B09F441CFF3E0AF2E29
:10524000B12C230122E0420E511CD4C0F70142814F
:10525000538164817581808D918DA28DB38D4817A6
:1052600059076A077B0709F008C1848D958DC5979A
:1052700009F003C181A192A15DEFC52EDD24DA946E
:105280000C970CF4ADC04CE050E0BE016F5F7F4F57
:10529000C8010E944F258B819C81982789279827D8
:1052A0009A8B898BF7014681578129813A81421770
:1052B000530709F0E7C097FFE5C08F7092703BEF8E
:1052C000C32EDD24DA94892B09F08AC06F8078849C
:1052D0007624672476242AEFC22EDD24DA94611422
:1052E000710409F47DC0D12CC12C8D819E81982739
:1052F00089279827C816D906F8F441E050E0BE0186
:10530000635F7F4FC8010E944F254D85442331F0D4
:1053100050E070E060E0C8010E944F258D8581114A
:10532000ECCF44E050E070E060E0C8010E944F25FF
:10533000FFEFCF1ADF0AD9CF912C812C41E050E04A
:10534000BE016D5E7F4FC8010E944F254B89842F9F
:10535000807C09F06CC0442331F050E070E060E0E4
:10536000C8010E944F258B898111E8CF42E050E0AF
:10537000BE01615F7F4FC8010E944F2542E050E0AF
:10538000BE01635F7F4FC8010E944F2544E050E09B
:1053900070E060E0C8010E944F2542E050E0BE018D
:1053A0006F5E7F4FC8010E944F258F85988949897C
:1053B0005A898115914009F043C0CD84DE84DC24F4
:1053C000CD24DC2481E0C816D104D1F54115544028
:1053D00009F04AC044E050E0B201C8010E944F25E4
:1053E00021E0A21AB10809F46CCEFFEFCF16DF0658
:1053F00009F067CE0E9407063B014C01C8010E94DC
:105400009327181619060CF421CF0E940706661977
:10541000770988099909693873418105910548F52B
:1054200062E370E080E090E00E94D405E7CF41E0C5
:1054300050E070E060E0C8010E944F251B8A93CFC6
:1054400054274527542770E060E0C8010E944F258B
:10545000FFEF8F1A9F0A6814790409F06FCF96EF57
:10546000C92EDD24DA94BCCFE7EFCE2EDD24DA940A
:10547000B7CFCC24CA94DC2CB3CF6EEFC62EDD247C
:10548000DA94AECF4CEFC42EDD24DA94A9CF8EEFA0
:10549000C82EDD24DA9430CED12CC12C2DCECF9263
:1054A000DF92EF92FF920F931F93CF93DF93CDB7CD
:1054B000DEB7AF970FB6F894DEBF0FBECDBF7C014D
:1054C0006A010BEB13E01A8309831C861B8688EEA6
:1054D00093E0A0E0B0E08D879E87AF87B88B84EA29
:1054E00092E09A878987188F0F8B198E1A8E1B8EE0
:1054F0001C8E88E089A31BA70AA71CA61DA61EA6B2
:105500001FA68091321390913313A0913413B09160
:1055100035138EA39FA3A8A7B9A78B839C83AD83C4
:10552000BE8318861F82AE01465D5F4FCE01019695
:105530000E94EF2781309105B1F4D701ED91FC91E4
:105540000488F589E02D1DA30CA38CA59DA5AEA50F
:10555000BFA58EA39FA3A8A7B9A7A601BE016C5D96
:105560007F4FC7011995AF960FB6F894DEBF0FBEF7
:10557000CDBFDF91CF911F910F91FF90EF90DF9002
:10558000CF900895CF92DF92EF92FF920F931F93E7
:10559000CF93DF93CDB7DEB7AF970FB6F894DEBFEA
:1055A0000FBECDBF8C016B017A018BEB93E09A8328
:1055B00089831B821C821D821E821C861B8648EEEC
:1055C00053E060E070E04D875E876F87788B24EA58
:1055D00032E03A872987988F8F8B198E1A8E1B8E0F
:1055E0001C8E28E029A39BA78AA71CA61DA61EA681
:1055F0001FA6D8011C968C91883060F40E94BA1DB9
:10560000882321F0F80184850E94911D88E0D8014B
:105610001C968C938091321390913313A091341384
:10562000B09135138EA39FA3A8A7B9A78B839C83A2
:10563000AD83BE8318861F82AE01465D5F4FB60103
:10564000CE0101960E94EF270097C1F0D801ED919D
:10565000FC910684F785E02D8BEB93E09DA38CA352
:105660008CA59DA5AEA5BFA58EA39FA3A8A7B9A7EE
:10567000A701BE016C5D7F4FC8011995AF960FB6AB
:10568000F894DEBF0FBECDBFDF91CF911F910F9178
:10569000FF90EF90DF90CF900895EF92FF920F93DD
:1056A0001F93CF93DF9300D01F92CDB7DEB78C014D
:1056B0007B01FB0184858830A8F08BEB93E0F80137
:1056C000918380831282138214821582C8010F9005
:1056D0000F900F900F90DF91CF911F910F91FF903E
:1056E000EF90089580E591E00E94FA0924E030E00F
:1056F000AE014F5F5F4F6CE070E0F70184850E9460
:105700007A208BEB93E0F8019183808389819A81E1
:10571000AB81BC8182839383A483B583D7CF85ED8E
:105720008093BC008091A70F9091A80FA091A90F22
:10573000B091AA0F0796A11DB11D23E0B695A795BC
:10574000979587952A95D1F72091BC0024FD03C039
:105750001092A50F08954091A70F5091A80F609146
:10576000A90F7091AA0F452B462B472B69F3009781
:10577000A105B10541F025E32A95F1F70000019755
:10578000A109B109E1CF8091A60F0C9421073F92A6
:105790004F925F926F927F928F929F92AF92BF9241
:1057A000CF92DF92EF92FF920F931F93CF93DF93ED
:1057B00000D000D000D01F921F92CDB7DEB77C0181
:1057C000DC0115968C91811115C0FE013196CE0138
:1057D0000C966F0130E23193E817F907E1F7DA012F
:1057E00030E087E09D91B92E992329F19E3239F45A
:1057F0008A3011F480E0DAC038E08AE0F3CFEBEFD2
:10580000F2E04491442321F031969413FACFF2CF81
:10581000831780F34FED490F4E3560F74FE9490F7D
:105820004A3118F440EEB42EB90EF601E30FF11D23
:10583000B0823F5FD7CF89818032E1F2322E8B0177
:10584000FB01838D948DD7015C969C938E935B971F
:105850001682178210861186128613861486158684
:10586000F80182859385A485B58543895489658926
:10587000768984179507A607B70708F04DC025E07D
:10588000B695A795979587952A95D1F7F82FFF702C
:10589000AF2ED80115968C91823008F4ABCFC80199
:1058A0000E94281597FDA6CFF80182859385A485CF
:1058B000B5854F96A11DB11D82879387A487B587B3
:1058C000F0E2AF9EB00111246B587F4E6115710557
:1058D00009F490CFDB018C91882341F0853E09F0DB
:1058E00058C0BB2029F0BB24B394BACFB1100EC06E
:1058F000F701A28A8091650290916602A0916702E9
:10590000B091680286879787A08BB18BDB018C9161
:105910008111E9CFBB24B394832D8271823109F0C8
:1059200069CFBB2009F45AC0C7010E94500C0097F0
:1059300009F460CF20E2FC0111922A95E9F72BE0EF
:10594000F601DC0101900D922A95E1F721E238E29F
:10595000DC0151963C932E93509740E058E01F96FF
:105960005C934E931E9753963C932E935297599661
:105970003C932E93589757965C934E93569781E09D
:105980000E94DB0B882309F435CF432DF701628990
:105990000AC04BE050E0C6010E94E350892B09F099
:1059A0005FCF432D6A2DC7010E94E6162B960FB6D6
:1059B000F894DEBF0FBECDBFDF91CF911F910F9145
:1059C000FF90EF90DF90CF90BF90AF909F908F901F
:1059D0007F906F905F904F903F900895F801858180
:1059E000823009F407CFC8010E940810882309F407
:1059F00001CFD8015B96ED91FC915C9716968D9046
:105A00009D90AD90BC901997B2E08B1A9108A108B7
:105A1000B108858504C0880C991CAA1CBB1C8A95FA
:105A2000D2F786859785A089B189880E991EAA1E0E
:105A3000BB1E848124013501480E511C611C711C60
:105A400084149504A604B70409F1E1E04E1A510844
:105A50006108710881E00E94DB0B882309F4CACE3B
:105A6000E5E7F0E1119285E792E18E179F07D1F704
:105A700040926502509266026092670270926802DC
:105A80008091160F81608093160FDACFD8015B9654
:105A9000ED91FC91258580E092E0A0E0B0E004C0AB
:105AA000880F991FAA1FBB1F2A95D2F7F8014389B7
:105AB000548965897689840F951FA61FB71F838B2C
:105AC000948BA58BB68BD70152961C9285E790E1FB
:105AD00031CFCF93DF93CDB7DEB76D970FB6F89484
