:100000000C94FA010C94F03E0C94C53E0C949A3E6C
:100010000C946F3E0C94443E0C94193E0C94EE3DAF
:100020000C94C33D0C942B020C942B020C942B02C9
:100030000C942B020C942B020C942B020C942B028C
:100040000C942B020C942B020C942B020C942B027C
:100050000C942B020C942B020C942B020C94793DE3
:100060000C942B020C94433D0C94193D0C942B02E0
:100070000C942B020C942B020C942B020C942B024C
:100080000C942B020C942B020C942B020C942B023C
:100090000C942B020C942B020C942B020C941B3FFF
:1000A0000C942B020C942B020C942B020C942B021C
:1000B0000C942B020C942B020C942B020C942B020C
:1000C0000C942B020C942B020C942B020C942B02FC
:1000D0000C942B020C942B020C942B020C942B02EC
:1000E0000C942B020C9420040C94F7030C941D1E0A
:1000F0000C9412040C9424070C94B7060C94160468
:100100000C941A160C9463260C94DF090C944D077A
:100110000C94D7140C946E020C9440250C94452634
:100120000C94F5050C9463220C94F4140C942404A0
:100130000C946E050C942B120C9460180C942E04E5
:100140000C9408040C9431140C942D050C949E14FA
:100150000C949F060C9423200C942B150C942D03C7
:100160000C9468020C9446070C9441050C946405A9
:100170000C940B160C9465270C944B050C946A2573
:100180000C9449060C9421150C9407160C944E22DD
:100190000C9432200C9415160C941F2B0C941D05F6
:1001A0000C942A040C94E41D0C9409050C940F275C
:1001B0000C94C21D0C94F5020C947A070C94942AAA
:1001C0000C9478050C9433060C9417160C94C714F1
:1001D0000C94F2040C94E9030C94E7020C9482054D
:1001E0000C9440210C9437050C94D3020C94A30674
:1001F0000C94961D0C94BF490C9425050C948C0509
:100200000C94C3220C946A060C94212A0C94F303D8
:100210000C94F2230C947B1D0C945A050C946402EC
:100220000C94FF040C9491170C94A7140C943F4069
:100230000C9481020C94C4020C9497020C9429042F
:100240000C943A270C947A030C94FE030C94040447
:100250000C9413050C9421250C946D020C940E043F
:100260000C945F060C9493260C9469020C948425DC
:100270000C94A7060C9449240C9422160C941C048C
:100280000C94FA040C9433070C94FB030C94EF03C6
:100290000C94DE223C2F6C6162656C3E3C2F6469DD
:1002A000763E003C2F6C6162656C3E3C6C61626521
:1002B0006C3E003C6469763E3C6C6162656C3E005D
:1002C0007C3C3E5E2B3D3F2F5B5D3B2C2A225C003D
:1002D00000002100240027002A002D0030003300F8
:1002E00001010000040107010A01000020002300B1
:1002F000260029002C002F0032000001000003011D
:100300000601090100000A0B02090C0D0E08070383
:1003100004010000000000000000000000000000D8
:1003200000000000000000000000000000000000CD
:10033000121110000000000000000000000000008A
:100340000000000000000000000001021020200852
:100350000810204010204080020102010804020120
:10036000010204081020408080402010080402018F
:1003700080040201804020100804020108040201E8
:10038000010204081020408001020408102040806F
:1003900000002200250028002B002E003100340030
:1003A00002010000050108010B010505050507050F
:1003B00008080808020202020A0A080804040404E1
:1003C000010101010101010103030303030303030D
:1003D000040707070C0C0C0C0C0C0C0C020202029C
:1003E00006060606060606060B0B0B0B0B0B0B0B85
:1003F0003F40BF4911241FBECFEFD1E2DEBFCDBFCA
:1004000000E00CBF1CE0A0E0B2E0E2EDFBE900E0A0
:100410000BBF02C007900D92A23DB107D9F724E1AE
:10042000A2EDBCE001C01D92AD3AB207E1F711E0C8
:10043000C9EFD1E000E006C021970109802FFE013D
:100440000E94654BC83FD10780E00807A9F70E94CA
:1004500046410C94D74D0C940000CF93DF93FC01E0
:10046000828193819093791480937814848195810B
:10047000A681B78180937A1490937B14A0937C1407
:10048000B0937D1480859185A285B38580937E1479
:1004900090937F14A0938014B0938114DF011C9675
:1004A000CF014996C2E8D4E12D912993A817B90745
:1004B000D9F7818D928D9093901480938F1486E755
:1004C00094E1DF91CF910895FC01818D928D089583
:1004D000089581E08093DA10089508950895FC014D
:1004E000248135816217730720F480819181009700
:1004F00029F410928C108CE890E10895860F971FD4
:1005000008950895DC01ED91FC910190F081E02DBA
:100510001994DB0114964D915C9115976D917C9126
:10052000DC01ED91FC910280F381E02D1994AF92F2
:10053000BF92CF92DF92EF92FF920F931F93CF93D0
:10054000DF936C017B018B01040F151FEB015E0132
:10055000AE18BF08C017D10759F06991D601ED91C7
:10056000FC910190F081E02DC6011995892B79F756
:10057000C501DF91CF911F910F91FF90EF90DF9018
:10058000CF90BF90AF900895FC01538D448D252FDF
:1005900030E0842F90E0821B930B541710F0CF961D
:1005A000089501970895FC01918D828D981761F04F
:1005B000A28DAE0FBF2FB11D5D968C91928D9F5F66
:1005C0009F73928F90E008958FEF9FEF0895FC0145
:1005D000918D828D981731F0828DE80FF11D858DF8
:1005E00090E008958FEF9FEF0895FC01918D228D8B
:1005F000892F90E0805C9F4F821B91098F73992710
:1006000008958BE293E10E94F50221E0892B09F421
:1006100020E0822F0895FC01A48DA80FB92FB11DF1
:10062000A35ABF4F2C91848D90E001968F73992728
:10063000848FA689B7892C93A089B1898C91837006
:1006400080648C93938D848D981306C00288F389FF
:10065000E02D80818F7D80830895EF92FF920F932C
:100660001F93CF93DF93EC0181E0888F9B8D8C8D5E
:1006700098131AC0E889F989808185FF15C09FB752
:10068000F894EE89FF896083E889F9898081837015
:10069000806480839FBF81E090E0DF91CF911F91C4
:1006A0000F91FF90EF900895F62E0B8D10E00F5FE5
:1006B0001F4F0F731127E02E8C8D8E110CC00FB6BB
:1006C00007FCFACFE889F989808185FFF5CFCE0153
:1006D0000E940B03F1CFEB8DEC0FFD2FF11DE35AC0
:1006E000FF4FF0829FB7F8940B8FEA89FB898081D6
:1006F0008062CFCFCF93DF93EC01888D8823B9F050
:10070000AA89BB89E889F9898C9185FD03C080811C
:1007100086FD0DC00FB607FCF7CF8C9185FFF2CF99
:10072000808185FFEDCFCE010E940B03E9CFDF91E1
:10073000CF91089580E090E0892B29F00E94010379
:1007400081110E94000080E090E0892B49F080E058
:1007500090E0892B29F00E94000081110E94000086
:1007600080E090E0892B49F080E090E0892B29F02F
:100770000E94000081110E94000080E090E0892B1F
:1007800049F080E090E0892B29F00E94000081115F
:100790000C94000008958150823108F05AC0E82F6F
:1007A000F0E08827E952FC4F8F4F0C94654BF7031C
:1007B000FB03E903EF03F3032904FE030404080425
:1007C0000E04120416041C042004290424042A0420
:1007D0002E04809180008F7780938000089580910F
:1007E00080008F7DF9CF80918000877FF5CF84B521
:1007F0008F7784BD089584B58F7DFBCF8091B00045
:100800008F778093B00008958091B0008F7DF9CFED
:10081000809190008F778093900008958091900050
:100820008F7DF9CF80919000877FF5CF8091A000D8
:100830008F778093A00008958091A0008F7DF9CFDD
:100840008091A000877FF5CF809120018F778093E2
:1008500020010895809120018F7DF9CF80912001A2
:10086000877FF5CFCF93DF93282F30E0F901EC5F3E
:10087000FC4F8491F901E65BFC4FD491F901E655F8
:10088000FC4FC491CC23A1F081110E94CB03EC2F2B
:10089000F0E0EE0FFF1FE651FD4FA591B491EC91F2
:1008A000ED2381E090E009F480E0DF91CF9108959D
:1008B00080E090E0FACF1F93CF93DF93282F30E0B2
:1008C000F901EC5FFC4F8491F901E65BFC4FD49198
:1008D000F901E655FC4FC491CC23A9F0162F8111E4
:1008E0000E94CB03EC2FF0E0EE0FFF1FE057FC4F10
:1008F000A591B4918FB7F894EC91111108C0D095DF
:10090000DE23DC938FBFDF91CF911F910895DE2B03
:10091000F8CFCF93DF9390E0FC01E65BFC4F24918E
:1009200086559C4FFC0184918823D1F090E0880F7C
:10093000991FFC01E053FD4FA591B491FC01E057D4
:10094000FC4FC591D49161110EC09FB7F8948C9162
:10095000E22FE0958E238C932881E223E8839FBFCA
:10096000DF91CF9108958FB7F894EC91E22BEC933F
:100970008FBFF6CF1F93CF93DF93182FEB0161E06A
:100980000E948904209739F460E0812FDF91CF9194
:100990001F910C945B04CF3FD10511F461E0F5CFBA
:1009A000E12FF0E0EC5FFC4FE491E150E23108F020
:1009B000B3C0F0E08827E052FB4F8F4F0C94654B9B
:1009C000F204FA04FF04090513058C051D0525052D
:1009D0002D05370541054B055A0564058C056E0547
:1009E0007805820584B5806884BDC7BDDF91CF914D
:1009F0001F91089584B5806284BDC8BDF7CF8091F2
:100A00008000806880938000D0938900C093880024
:100A1000EDCF80918000806280938000D0938B0026
:100A2000C0938A00E3CF809180008860809380002B
:100A3000D0938D00C0938C00D9CF8091B000806896
:100A40008093B000C093B300D1CF8091B00080629A
:100A50008093B000C093B400C9CF809190008068AB
:100A600080939000D0939900C0939800BFCF80915D
:100A70009000806280939000D0939B00C0939A0076
:100A8000B5CF80919000886080939000D0939D00B6
:100A9000C0939C00ABCF8091A00080688093A000A1
:100AA0008091A0008F7B8093A000D093A900C09379
:100AB000A8009CCF8091A00080628093A000D0937A
:100AC000AB00C093AA0092CF8091A0008860809371
:100AD000A000D093AD00C093AC0088CF80912001DE
:100AE000806880932001D0932901C09328017ECF94
:100AF00080912001806280932001D0932B01C093CC
:100B00002A0174CF80912001886080932001D093C6
:100B10002D01C0932C016ACFC038D1050CF03ECF17
:100B200033CF3FB7F8948091881090918910A091AD
:100B30008A10B0918B1026B5A89B05C02F3F19F0E5
:100B40000196A11DB11D3FBFBA2FA92F982F88274D
:100B5000BC01CD01620F711D811D911D42E0660F28
:100B6000771F881F991F4A95D1F708958F929F92FA
:100B7000AF92BF92CF92DF92EF92FF926B017C0116
:100B80000E9491054B015C01C114D104E104F10400
:100B9000B9F00E949105681979098A099B09683E94
:100BA00073408105910580F321E0C21AD108E10864
:100BB000F10888EE880E83E0981EA11CB11CE4CFDA
:100BC000FF90EF90DF90CF90BF90AF909F908F906D
:100BD00008952FB7F89460918410709185108091DA
:100BE0008610909187102FBF08950895FC012081F1
:100BF0002EBD9B012150310941F051810DB407FEFA
:100C0000FDCF4EB55EBD4193F5CF61507109860FA2
:100C1000971F0DB407FEFDCF2EB5FC01208308956C
:100C2000E0912611F0912711808190912511892B57
:100C300080830895E0912611F09127119081809191
:100C40002511809589238083089590E020912811B3
:100C5000233339F40C96982F990F990F990F80E050
:100C600008954896F8CFCF93DF931F92CDB7DEB7A4
:100C70006983DC01ED91FC910280F381E02D41E07C
:100C800050E0BE016F5F7F4F19950F90DF91CF91BC
:100C90000895CF93DF931F92CDB7DEB76983DC0150
:100CA000ED91FC910280F381E02D41E050E0BE0126
:100CB0006F5F7F4F19950F90DF91CF910895FC01E1
:100CC0009485FB018485981303C081E0983008F077
:100CD00080E00895CF93DF931F92CDB7DEB769838D
:100CE000DC01ED91FC910280F381E02D41E050E0C8
:100CF000BE016F5F7F4F19950F90DF91CF910895DF
:100D0000EF92FF920F931F93CF93DF938C017B01A0
:100D1000D0E0C0E0F701EC0FFD1F6491662339F0CD
:100D2000C8010E946A06892B11F02196F3CFCE01EB
:100D3000DF91CF911F910F91FF90EF900895FC01EB
:100D4000848595850895FC018489958908952BEB08
:100D500033E0FC0131832083FB01408951896289A2
:100D60007389FC0142835383648375830895DC0196
:100D7000ED91FC91048CF58DE02D199420911210C9
:100D8000260F3327331F21323105ECF420915B10FD
:100D9000FC0190E080E0243069F082E00895A091A9
:100DA00012102191AC014E50504FA40FB52FB11D20
:100DB0002C930196861798F380911210680F609318
:100DC000121080E0089581E0089510925B1081E098
:100DD00080935A101092351061E084E10E945B0408
:100DE00061E085E10E945B04E9EBF0E080818E7FA9
:100DF000808380818D7F808388E48093B80085E440
:100E00008093BC000895CF93DF9391E09093F10F0E
:100E10008823B9F0C091B800D091BA008091BC008D
:100E20008A7B8093BC0060E084E10E945B0460E008
:100E300085E10E945B040E94E506D093BA00C0934E
:100E4000B800DF91CF910895E091941080919310B4
:100E5000E81730F4F0E0EF52F04F808190E0089511
:100E60008FEF9FEF089590919410809193102FEF42
:100E70003FEF981748F4E92FF0E0EF52F04F208150
:100E800030E09F5F90939410C90108958091931072
:100E900090919410891B990B0895CF92DF92EF9255
:100EA000FF920F931F93CF93DF937C01CB018A01B5
:100EB00020916110222389F0EB016B01C40ED51E35
:100EC000CC15DD0569F06991D701ED91FC91019098
:100ED000F081E02DC7011995F3CF642F0E94BE0663
:100EE000C801DF91CF911F910F91FF90EF90DF909C
:100EF000CF900895CF93DF931F92CDB7DEB769836C
:100F0000209161102223F9F020919110203258F0A5
:100F100021E030E0FC013383228390E080E00F90F9
:100F2000DF91CF91089580919210E82FF0E0EE5973
:100F3000FF4E998190838F5F8093921080939110E0
:100F400081E090E0ECCF61E0CE0101960E94BE0608
:100F5000F7CFCF92DF92EF92FF920F931F93CF9331
:100F6000DF93FC01C48121E020936110C0938210C3
:100F700010929210109291108385682B8EEF93E15E
:100F80000E947A07D0919110D13208F092C00E944D
:100F900091056B017C0180915B10811165C082E03D
:100FA00080935B1081E080935A108FEF80935910EB
:100FB00010925810D0935710A2E6B0E1E7E3F0E1A9
:100FC00080E0D81385C01092361080913610CC0F77
:100FD000C82BC093361080913510813009F07CC049
:100FE000109235100E9491056B017C0180913610A2
:100FF0008093BB0080915D1090915E10A0915F1076
:10100000B0916010892B8A2B8B2B99F00E9491054F
:1010100000915D1010915E1020915F103091601072
:101020006C197D098E099F090617170728073907CC
:10103000E0F18091BC0083FDD9CF85EC8093BC00AA
:101040000E9491056B017C0180915B10823009F454
:1010500045C0809159108F3F61F1809159108032C5
:1010600041F18091591025C080915D1090915E10E2
:10107000A0915F10B0916010892B8A2B8B2B09F403
:101080008ACF0E94910500915D1010915E10209111
:101090005F10309160106C197D098E099F09061749
:1010A00017072807390708F076CF80915C100E9457
:1010B0000307109292101092911010926110DF911C
:1010C000CF911F910F91FF90EF90DF90CF900895F7
:1010D0009D9191938F5F75CF85EEB0CF80915D101C
:1010E00090915E10A0915F10B0916010892B8A2BB7
:1010F0008B2B09F4A9CF0E94910500915D101091EE
:101100005E1020915F10309160106C197D098E097E
:101110009F09061717072807390708F095CFC5CF8D
:10112000089561E0FC0184810E945B048091CB0FF3
:1011300081111092CB0F08958EBD00000DB407FEF3
:10114000FDCF8EB50895AF92BF92CF92DF92EF920E
:10115000FF920F931F93CF93DF9300D000D01F9285
:101160001F92CDB7DEB78C017B016A0180912811F7
:101170008333E1F45801A40EB51EA016B10609F49C
:101180006FC00E941A0680EF0E949C08812F0E9467
:101190009C08802F0E949C080F5F1F4FF7018191D0
:1011A0007F010E949C080E941006E7CF5B01A40EFD
:1011B000B51E8433C1F40E941A0619830A838D2D4B
:1011C00080688B83CC8264E070E0CE0101960E943F
:1011D000F605AE14BF0409F441C0F70181917F0107
:1011E0000E949C08F6CF0E941A060F3F110509F0D5
:1011F00028F419820A8384E08B830CC017FD17C082
:1012000019820A8333E0169507953A95E1F7007E37
:101210000C600B8386E0C816D104A0F5F701DE014F
:101220001496EA15FB0599F081918D93FACFC801C8
:1012300026E0969587952A95E1F7807E19830A83A3
:101240000115104C10F48461D7CF8C61D5CFB60155
:101250006D5F7F4FCE0101960E94F6050E94100639
:10126000C60128960FB6F894DEBF0FBECDBFDF9142
:10127000CF911F910F91FF90EF90DF90CF90BF9093
:10128000AF90089563E070E0CE0101960E94F605EC
:10129000F70181917F010E949C08AE14BF04C1F741
:1012A000DDCFCF93DF931F92CDB7DEB7898341E0C7
:1012B00050E0BE016F5F7F4F90E080E00E94A30886
:1012C0000F90DF91CF910895DA01E0912911F0E0BC
:1012D000FE2FEE27E60FF71F90E0982F8827A90131
:1012E000BD018E0F9F1F0C94A308CF93DF931F9215
:1012F0001F92CDB7DEB779836A8322E030E0AE017A
:101300004F5F5F4F60E170E00E9464090F900F90A3
:10131000DF91CF910895CF93DF931F921F92CDB7A6
:10132000DEB779836A8322E030E0AE014F5F5F4F22
:1013300064E070E00E9464090F900F90DF91CF91FC
:101340000895CF93DF931F92CDB7DEB72091291177
:1013500030E0322F2227260F371F90E0982F882762
:10136000498341E050E0BE016F5F7F4F820F931FC2
:101370000E94A3080F90DF91CF9108958FEF0C94F6
:101380009C080F931F93CF93DF93EC010E94E90514
:101390008B010E94BE098F3F69F00E94E905601B26
:1013A000710B6C177D07A8F380E0DF91CF911F913F
:1013B0000F91089581E0F9CF8CBD9DBD0895FF92F6
:1013C0000F931F93CF93DF93EB01FC01178A168ACB
:1013D0002A81211109C02B81211106C02C812111E4
:1013E00003C02D81222301F141155105E9F08A0145
:1013F000FC01F08C80E591E00E94DC09AE014E5FBB
:101400005F4F24E030E06CE070E08F2D0E946409B3
:10141000B8018F2D0E94750981E090E0DF91CF9196
:101420001F910F91FF90089580E0F7CFCF93DF9346
:10143000EC018091CB0F811109C081E08093CB0F2B
:1014400080910A1490910B140E94DC0960E08C8159
:10145000DF91CF910C945B048F929F92AF92BF92D9
:10146000FF920F931F93CF93DF93EC01F62E490168
:101470005A018E81882389F08F8198859C012F5F86
:101480003F4F38872F838230924018F40E94BE0964
:10149000F3CFCE010E9491081E82CE010E94160A4F
:1014A0008CE291E00E94C1098F2D80640E949C080B
:1014B00008E110E0D501C401002E04C0B695A7953F
:1014C000979587950A94D2F70E949C0808501109B5
:1014D000083F8FEF180771F785E9FF2021F028E01A
:1014E00087E8F2128FEF0E949C0810E00E94BE096C
:1014F0008A8787FF04C01F3F11F01F5FF7CFDF917E
:10150000CF911F910F91FF90BF90AF909F908F90C0
:101510000895AF92BF92CF92DF92EF92FF920F9316
:101520001F93CF93DF93EC016901C801820F931FD2
:101530008130924050F58E81882379F0888199819D
:10154000AA81BB8184179507A607B70731F48F815D
:101550009885C816D90608F042C0488359836A8323
:101560007B838B85833039F089E0440F551F661FDC
:10157000771F8A95D1F79A01AB0161E1CE010E94F4
:101580002C0A882389F083E08D83CE010E94910884
:1015900080E0DF91CF911F910F91FF90EF90DF904E
:1015A000CF90BF90AF9008950E94E9055B010E9423
:1015B000BE098A878F3F69F40E94E9056A197B0991
:1015C0006D327140A0F38FE08D83CE010E949108AF
:1015D000DCCF8E3F89F418861F8281E08E838F8155
:1015E00098858C159D0550F40E94BE098F819885C1
:1015F000019698878F83F3CF8DE0E6CF6701E00EE9
:10160000F11E0E94BE09F60181936F01EE15FF05E0
:10161000C1F78F819885080F191F18870F83898557
:10162000882319F001151240A0F08E81882389F0DB
:101630008F8198859C012F5F3F4F38872F838230A1
:10164000924018F40E94BE09F3CFCE010E94910887
:101650001E8281E09ECFCF92DF92EF92FF920F9396
:10166000CF93DF93EC01690182E1411551056105DA
:10167000710599F08B85833039F089E0440F551F4F
:10168000661F771F8A95D1F79A01AB0168E1CE01F9
:101690000E942C0A882319F084E08D832DC08EEFE0
:1016A0000E949C0876018EEFD81AF70181917F0184
:1016B0000E949C08EC14FD04C1F78FEF0E949C0867
:1016C0008FEF0E949C080E94BE098A878F71853027
:1016D00071F4011116C0CE010E94910881E0DF91E2
:1016E000CF910F91FF90EF90DF90CF90089581E11F
:1016F0008D83CE010E949108CE010E94910880E066
:10170000EECF88E592E00E94C109811102C085E117
:10171000C4CF20E030E0A9016DE0CE010E942C0A88
:10172000882311F084E1B9CF0E94BE098111FACF5C
:10173000D2CF0F934091CD0F5091CE0F6091CF0F2C
:101740007091D00F411551056105710599F0082F71
:101750002BE231E180912311909124110E942B0BF7
:10176000882349F01092CD0F1092CE0F1092CF0F18
:101770001092D00F81E00F9108950F93CF93C82F4F
:101780008091CC0F811105C0C1E08C2FCF910F91BA
:1017900008954091650250916602609167027091D0
:1017A00068020C2F2BE231E18091231190912411DA
:1017B0000E942B0B811102C0C0E0E7CFCC2321F3A4
:1017C00081E00E94990B8823B9F31092CC0FDDCFF2
:1017D0008F929F92AF92BF92EF92FF920F931F93BF
:1017E000CF934B015C01C42F8091650290916602FA
:1017F000A0916702B091680288159905AA05BB05FA
:1018000051F181E00E94BD0B81110BC080E0CF91AE
:101810001F910F91FF90EF90BF90AF909F908F908E
:1018200008958BE2E82E81E1F82E00E012E030E02E
:1018300020E0B501A40180912311909124110E9410
:10184000890A882319F38092650290926602A09219
:101850006702B09268024091CC0F4C2B4093CC0FA2
:1018600081E0D5CFCF93DF93EC016E857F858889AA
:10187000998941E00E94E80B882351F08A8920E28F
:10188000829FC0011124855D9E4EDF91CF91089506
:1018900090E080E0FACF8F929F92AF92BF92CF926A
:1018A000DF92EF92FF92CF932CE034E1309324113A
:1018B00020932311882309F46DC040E060E070E0BC
:1018C000CB010E94E80B81110BC080E0CF91FF900B
:1018D000EF90DF90CF90BF90AF909F908F90089542
:1018E0008091E9128F7789F78091F5129091F61225
:1018F000A091F712B091F81284369105A105B105B7
:1019000020F3C090F112D090F212E090F312F09018
:10191000F412C114D104E104F104B9F240E0C701AA
:10192000B6010E94E80B882381F2809136119091D4
:1019300037118115924049F6A0913B11AA2329F253
:101940006091391170913A116115710509F4BDCF9B
:1019500020913811222309F4B8CFA0932A142093A0
:101960001C1490E080E030E0E1E0F0E0C82FAF012F
:10197000082E02C0440F551F0A94E2F724173507BA
:1019800069F041E0480F01968930910579F740935D
:1019900025149BCFC12CD12C7601C0CF8093251468
:1019A000209141113091421150E040E02115310564
:1019B00041F420914F1130915011409151115091AB
:1019C000521120931D1430931E1440931F145093F2
:1019D000201446015701860E971EA11CB11C80924F
:1019E0002B1490922C14A0922D14B0922E14E091EE
:1019F0003C11F0913D11F0933114E0933014B0E0BC
:101A00000E94214BDC01CB01880D991DAA1DBB1D35
:101A10008093321490933314A0933414B0933514FC
:101A200025E0EE0FFF1F2A95E1F7E150FE4FEF2F63
:101A3000FF27E6958E0F9F1FA11DB11D80932614D1
:101A400090932714A0932814B093291480903E11EA
:101A500090903F11B12CA12C8114910441F48090FD
:101A60004B1190904C11A0904D11B0904E11C81A8E
:101A7000D90AEA0AFB0AC80CD91CEA1CFB1C04C0E0
:101A8000F694E794D794C794CA95D2F7C0922114DC
:101A9000D0922214E0922314F092241485EFC816F9
:101AA0008FE0D806E104F10428F48CE080932F1431
:101AB00081E00CCF80E125EFC2162FEFD206E104C2
:101AC000F104A0F38091571190915811A0915911F0
:101AD000B0915A118093321490933314A09334141C
:101AE000B093351480E2E2CF4F925F926F927F9273
:101AF0008F929F92AF92BF92CF92DF92EF92FF921E
:101B00000F931F93CF93DF93EC0142305105610592
:101B1000710590F480E0DF91CF911F910F91FF90BC
:101B2000EF90DF90CF90BF90AF909F908F907F907D
:101B30006F905F904F90089589859A85AB85BC859D
:101B40000196A11DB11D84179507A607B70710F3CD
:101B5000CB88DC88ED88FE888F89803109F042C00F
:101B6000BB27A72F962F852F480159012A013B013A
:101B7000C80ED91EEA1EFB1E809165029091660276
:101B8000A0916702B0916802C816D906EA06FB0662
:101B900099F58F898031C1F5B301A20155276627D8
:101BA0007727440F551F455D5E4EFA019182808272
:101BB0008091CC0F81608093CC0F8A89823080F035
:101BC0008D819E81AF81B8858C0D9D1DAE1DBF1D81
:101BD0008093CD0F9093CE0FA093CF0FB093D00FE3
:101BE00081E099CFDB01CA01E7E0B695A79597950B
:101BF0008795EA95D1F7B8CF40E0C701B6010E94BA
:101C0000E80B8111C6CF86CFB301A2014F775527CC
:101C100066277727440F551F440F551F455D5E4EBD
:101C2000FA0180829182A282B382C2CF8F929F9268
:101C3000AF92BF92CF92DF92EF92FF920F931F93DA
:101C4000CF93DF93FC0181859285A385B4850196AE
:101C5000A11DB11D84179507A607B70770F480E092
:101C6000DF91CF911F910F91FF90EF90DF90CF9078
:101C7000BF90AF909F908F90089583889488A58897
:101C8000B6888789803189F5BB27A72F962F852FA6
:101C9000E9016A017B018F01BC01CD01680D791D4D
:101CA0008A1D9B1D8090650290906602A09067023D
:101CB000B090680286169706A806B90601F5F801E5
:101CC0008789803111F5DD24EE24FF24F601EE0F23
:101CD000FF1FE55DFE4E80819181B0E0A0E088832A
:101CE0009983AA83BB8381E0BBCFDB01CA01C7E034
:101CF000B695A79597958795CA95D1F7C9CF40E036
:101D00000E94E80B8111DBCFAACFE894C7F8DD244D
:101D1000EE24FF24F601EE0FFF1FEE0FFF1FE55D1F
:101D2000FE4E80819181A281B381BF70D8CF4F9246
:101D30005F926F927F92AF92BF92CF92DF92EF92BB
:101D4000FF920F931F93CF93DF9300D01F92CDB7D5
:101D5000DEB78C0149835A836B837C835901C12C84
:101D6000D12C7601412C82E0582E612C712C4981B6
:101D70005A816B817C819E012F5F3F4FC8010E9479
:101D8000160E882339F1F8018585A301920104C05C
:101D9000220F331F441F551F8A95D2F7DA01C9015C
:101DA000C80ED91EEA1EFB1E49815A816B817C81B7
:101DB0008789803111F188EF9FEFAFEFBFE04817BF
:101DC00059076A077B0798F2F501C082D182E28247
:101DD000F38281E00F900F900F900F90DF91CF91E1
:101DE0001F910F91FF90EF90DF90CF90BF90AF9039
:101DF0007F906F905F904F90089588EF9FEFA0E0E5
:101E0000B0E0DDCFCF93DF93FC012581222321F0C9
:101E100080E0DF91CF910895EC0180912F14803103
:101E200059F582E08583178A108E118E128E80916B
:101E3000301490913114B0E0A0E025E0880F991F94
:101E4000AA1FBB1F2A95D1F7838B948BA58BB68BCA
:101E500088E194E19C8F8B8F81E08C831E821F82AE
:101E6000188619861A861B861C861D861E861F8666
:101E7000188A198A1A8ACDCF803251F683E0858379
:101E80004091321450913314609134147091351490
:101E9000478B508F618F728F9F012D5E3F4F88E17E
:101EA00094E10E94970E8111D3CFB2CF8F929F926F
:101EB000AF92BF92CF92DF92EF92FF920F931F9358
:101EC000CF93DF93EC018D8181110EC080E0DF9113
:101ED000CF911F910F91FF90EF90DF90CF90BF9027
:101EE000AF909F908F9008950B891C892D893E8912
:101EF000041715072607370748F34A015B018230AC
:101F000031F48A869B86AC86BD8681E0E0CF811461
:101F10009104A104B10449F41E821F821886198617
:101F20001A861B861C861D86F0CF0A851B852C858C
:101F30003D85EB8DFC8D858590E00996B901A80162
:101F40004150510961097109082E04C076956795C1
:101F5000579547950A94D2F775016401E1E0CE1ACE
:101F6000D108E108F10804C0F694E794D794C79427
:101F70008A95D2F7C416D506E606F70620F0012B9F
:101F8000022B032B11F58F89988DA98DBA8D8E8325
:101F90009F83A887B9878E010A5F1F4FC114D104A0
:101FA000E104F10409F4ADCF4E815F816885798544
:101FB00098018B8D9C8D0E94160E91E0C91AD10854
:101FC000E108F1088111EACF81CFC41AD50AE60AE7
:101FD000F70AE1CF3F924F925F926F927F928F927A
:101FE0009F92AF92BF92CF92DF92EF92FF920F93A8
:101FF0001F93CF93DF93CDB7DEB72C970FB6F8942E
:10200000DEBF0FBECDBF5C01DC015B968D909C9066
:102010005C9716964D905D906D907C901997411449
:1020200051046104710409F468C0BFEF4B1A5B0AE4
:102030006B0A7B0A312CF40181859285A385B485D6
:102040009C01AD012F5F3F4F4F4F5F4F29873A876C
:102050004B875C87730162011D821E821F82188676
:10206000F40181859285A385B4852D813E814F81C0
:102070005885281739074A075B0708F056C0898535
:102080009A85AB85BC858C159D05AE05BF0550F4C2
:1020900082E0C82ED12CE12CF12C92E0492E512C5B
:1020A000612C712C9E012F5F3F4FB701A601C40127
:1020B0000E94160E8823C9F189819A81AB81BC8167
:1020C000892B8A2B8B2B09F1260137019FEF491AA7
:1020D000590A690A790A2D813E814F8158852F5FFF
:1020E0003F4F4F4F5F4F2D833E834F8358873FEFC6
:1020F000C31AD30AE30AF30AB3CFF4014080518034
:10210000628073803324339496CFC414D504E604DC
:10211000F70409F70FEF1FEF2FEF3FE0B701A6011C
:10212000C4010E94740D811119C080E02C960FB675
:10213000F894DEBF0FBECDBFDF91CF911F910F91FD
:10214000FF90EF90DF90CF90BF90AF909F908F90D7
:102150007F906F905F904F903F900895D5011696B5
:102160004D915D916D917C911997411551056105D6
:10217000710539F097018601C4010E94740D88230E
:10218000A1F2D5011696CD92DD92ED92FC921997AF
:10219000332051F0D701C6010196A11DB11DF401F4
:1021A00080839183A283B383F5018789908DA18D6C
:1021B000B28D892B8A2B8B2B39F48481C78AD08EE0
:1021C000E18EF28E80688483F5018481806284834D
:1021D00081E0ACCF2F923F924F925F926F927F92AD
:1021E0008F929F92AF92BF92CF92DF92EF92FF9227
:1021F0000F931F93CF93DF93EC015B012A018D8135
:10220000811115C08FEF9FEFDF91CF911F910F913B
:10221000FF90EF90DF90CF90BF90AF909F908F9006
:102220007F906F905F904F903F902F9008958C819A
:1022300080FFE8CF0B891C892D893E894A855B8503
:102240006C857D85C201B0E0A0E068017901C41A07
:10225000D50AE60AF70AC816D906EA06FB0618F4F4
:102260002801441A550A42011E0126E0220E311CA3
:102270008114910409F4B3C04A855B856C857D8522
:102280006A0181E0D8228B8D9C8D8A019B01E9E057
:102290003695279517950795EA95D1F7ED81E230A8
:1022A000E1F5FC01628D738D848D958D600F711F3A
:1022B000821F931F612C22E0722E6C187D088614F9
:1022C000970408F434012C8126FD04C06114F2E067
:1022D0007F0671F4009165021091660220916702F9
:1022E00030916802061717072807390709F053C00D
:1022F00040E00E94E80B882309F484CFC601855D85
:102300009E4ED5019C01260D371DFC012E173F075F
:1023100009F460C041914D93F9CFFC0174807A9427
:102320007022C114D10471F471100CC0452B462BDE
:10233000472B39F58F89988DA98DBA8D8E839F8310
:10234000A887B987EB8DFC8D6E817F818885998503
:102350006250710981099109258504C0660F771FB4
:10236000881F991F2A95D2F70685178520893189FC
:10237000600F711F821F931F670D711D811D911DBD
:1023800099CF4E815F816885798591010E94160EF3
:102390008111D8CF37CF750183019601AB01BC0104
:1023A00080912311909124110E94890A882309F4B5
:1023B00029CFA60CB71C8A859B85AC85BD85860D6B
:1023C000971DA11DB11D8A879B87AC87BD87861885
:1023D00097084ECF281B390BA20EB31EECCFC201BB
:1023E00013CF1F93CF93DF93FC012581222371F13B
:1023F000162FEC01848187FF1EC0CF010E94320C92
:10240000FC01892B19F18D81823040F48B899C89E4
:10241000AD89BE89848F958FA68FB78F8F89988D50
:10242000938F828F8F89988DA98DBA8DB58BA48B50
:102430008C818F778C83111103C08C818F7E8C836C
:10244000812FDF91CF911F910C94BD0B80E0DF9124
:10245000CF911F910895FF920F931F93CF93DF9316
:10246000EC018D81813041F090E080E0DF91CF91EF
:102470001F910F91FF9008958C8181FFF5CF82FD10
:102480001BC00091231110912411C8010E94160A4B
:102490000E94BE09F82EC8010E9491088FEFF81221
:1024A000E3CF8C8185FF1BC060E0CE010E94F1115B
:1024B0008C818F7D8C83D8CF4B895C896D897E8997
:1024C0008A859B85AC85BD8584179507A607B707C8
:1024D000C1F2CE010E94560F8111D3CFC5CF4091DA
:1024E000CD0F5091CE0F6091CF0F7091D00F452B33
:1024F000462B472B21F080E00E94990BB5CF8061DD
:102500008C832A853B85317080E092E0821B930B9F
:10251000ADCFCF93DF93EC0161E00E94F1118823EE
:1025200011F01D8281E0DF91CF9108952F923F92AB
:102530004F925F926F927F928F929F92AF92BF92D3
:10254000CF92DF92EF92FF920F931F93CF93DF937F
:1025500000D01F921F92CDB7DEB77C015B01342EF5
:102560005D83DC0115968C911597813009F0CEC002
:1025700014962C9021FECAC022FCB4C0C32CDD806E
:1025800022947FE027222094B22DB1702B2ED70108
:102590001A964D915D916D917C911D97C114D10456
:1025A00009F428C15B968D919C915C97FC01748025
:1025B0007A948A019B0169E03695279517950795CE
:1025C0006A95D1F770228A011170711020C001152F
:1025D0001105E9F416964D915D916D917C911997D5
:1025E000411551056105710509F099C057968D9106
:1025F0009D910D90BC91A02D0097A105B10509F00A
:10260000B0C0C7010E94EA0F882309F47FC080E0B0
:1026100092E0801B910B46018C159D0508F44C013E
:10262000D7015B964D915C915C9716968D919D912B
:102630000D90BC91A02D0297A109B109FA01258541
:1026400004C0880F991FAA1FBB1F2A95D2F7468581
:10265000578560897189840F951FA61FB71F9C013C
:10266000AD01270D311D411D511D29013A01811474
:1026700032E0930609F07BC080916502909166027A
:10268000A0916702B091680284159505A605B7056B
:1026900059F48FEF9FEFDC018093650290936602FF
:1026A000A0936702B0936802022D9501B301A201C5
:1026B00080912311909124110E942B0B882331F1DA
:1026C0009EEFB91AC818D908F70182859385A485A9
:1026D000B585880D991DA11DB11D82879387A4879B
:1026E000B58755CFF70143895489658976898285F5
:1026F0009385A485B585481759076A077B0709F4B0
:102700003DCFC7010E94560F811138CF81E090E084
:10271000D70113969C938E93129780E007C09E0179
:102720002F5F3F4F0E94160E811102C090E079C0CA
:1027300089819A81AB81BC81F701238D348DF901A8
:10274000278948EF5FEF60E070E0203121F048EF2B
:102750005FEF6FEF7FE084179507A607B70708F0D4
:1027600050CFF70186839783A087B18750CF01159B
:10277000110599F5D7011A964D915D916D917C9156
:102780001D9753968D919D910D90BC91A02D48174A
:1027900059076A077B0708F181E00E94BD0B882377
:1027A00009F4B4CF409265025092660260926702CB
:1027B000709268028091CC0F81608093CC0FC80129
:1027C000855D9E4ED5019C01280D391DFC012E17FB
:1027D0003F0759F04D914193FACF41E0C301B20157
:1027E0000E94E80B8111EBCF91CF281B390BA20E71
:1027F000B31E68CFF70183899489A589B6898417A8
:102800009507A607B70738F48481438B548B658BF3
:10281000768B80688483F701848183FD1AC0832DC1
:102820009D810F900F900F900F900F90DF91CF919F
:102830001F910F91FF90EF90DF90CF90BF90AF90DE
:102840009F908F907F906F905F904F903F902F90D0
:10285000089561E0C7010E94F111882309F456CF61
:10286000DECFCF93DF931F92CDB7DEB7698341E010
:1028700050E0BE016F5F7F4F0E9496120F90DF9174
:10288000CF910895FC01DB0112968D919C911397D5
:102890009383828383E693E09183808314968C9163
:1028A0001497848315968C911597858316964D9170
:1028B0005D916D917C9119974683578360877187ED
:1028C0001A964D915D916D917C911D97428753872A
:1028D000648775871E964D915D916D917C9151979E
:1028E00046875787608B718B52968C915297828B5B
:1028F00053964D915D916D917C915697438B548B7E
:10290000658B768B57964D915D916D917C915A9721
:10291000478B508F618F728F5B968D919C91948FB6
:10292000838F0895DC015996ED91FC91309721F049
:1029300081E09581911101C080E00895FC01818DB5
:10294000928D009719F061E00C94F1110895DC016B
:102950005996ED91FC913097B9F083899489A589B6
:10296000B6894285538564857585841B950BA60BB6
:10297000B70B811520E89207A105B10538F08FEF5C
:102980009FE7A0E0B0E0089590E080E00895DC01CA
:1029900059968D919C91009739F0DC01ED91FC9155
:1029A0000480F581E02D199490E080E00895CF93A4
:1029B000DF93EC01E98DFA8D309749F481E090E0E6
:1029C0009B838A8390E080E0DF91CF91089513820A
:1029D0001282898D9A8D0E949612E98DFA8D22813C
:1029E0003381232B59F7F0CFCF93DF931F92CDB7CD
:1029F000DEB76983DC01ED91FC910280F381E02D6B
:102A000041E050E0BE016F5F7F4F19950F90DF915D
:102A1000CF910895CF93DF931F92CDB7DEB741E0FA
:102A200050E0BE016F5F7F4F0E94EA10019731F4C2
:102A3000898190E00F90DF91CF9108958FEF9FEF04
:102A4000F9CFFC01818D928D009711F00C940A153D
:102A50008FEF9FEF08950F931F93CF93DF93EC01B8
:102A6000898D9A8D10E000E0009799F00E940A1578
:102A70008C010F3F100769F0898D9A8DFC0142850A
:102A800053856485758541505109610971090E941A
:102A9000560FC801DF91CF911F910F910895CF93E9
:102AA000CFB7F8948091CA0F811127C0EFEDF3E002
:102AB0008491EFE7F3E09491E82FF0E0EE0FFF1F31
:102AC000E053FD4FA591B491EC91E92321F461E02D
:102AD00085E30E945B0461E085E30E9489048CB574
:102AE00080618CBD8CB580648CBD61E084E30E9404
:102AF000890461E083E30E9489048091CA0F8F5F9B
:102B00008093CA0FCFBFCF910895CF93DF93C3E0D7
:102B1000D3E08881229660E00E945B0483E0C331A9
:102B2000D807B9F7C3E1D3E08881229670E060E06E
:102B30000E94BA0483E0C732D807B1F760E08FE1A2
:102B4000DF91CF910C945B048AE10E943204892BBF
:102B500049F06CE271E080E090E00E94B60590E000
:102B600080E0089588E10E943204892B49F06CE2EC
:102B700071E080E090E00E94B60581E090E0089569
:102B800086E10E943204892B49F06CE271E080E01A
:102B900090E00E94B60582E090E008958CE10E94EA
:102BA0003204892B49F06CE271E080E090E00E94F1
:102BB000B60583E090E008950895FC01DB011296CC
:102BC0008D919C9113979383828314964D915D917F
:102BD0006D917C911797448355836683778318960C
:102BE0004D915D916D917C911B97408751876287D4
:102BF00073878FE693E0918380831C968C911C975A
:102C000084871D968D919C91968785870895FC01F8
:102C1000768765870895DC01ED91FC91068CF78D30
:102C2000E02D199591E089270895862F089581E078
:102C30008627089521E0FC018485883008F020E093
:102C4000822F089590E080E008958F929F92AF9236
:102C5000BF92CF92DF92EF92FF920F931F93CF9389
:102C6000DF9300D01F92CDB7DEB7FC0185818130A4
:102C700091F080E00F900F900F900F90DF91CF9127
:102C80001F910F91FF90EF90DF90CF90BF90AF908A
:102C90009F908F900895848181FFEBCF83899489E1
:102CA000A589B689892B8A2B8B2B09F45FC07F01FC
:102CB00040E050E0BA01CF010E94560F8823C9F2CC
:102CC000F701C38CD48C8788908CA18CB28C82E065
:102CD00090E0A0E0B0E0F60180839183A283B3830B
:102CE0009E012F5F3F4FB501A401C6010E94160E41
:102CF000882309F4BECF00E010E09801B501A401DB
:102D0000C6010E94740D882309F4B3CF89809A808C
:102D1000AB80BC80F6018789803119F188EF9FEF85
:102D2000AFEFBFE088169906AA06BB06C8F2F70106
:102D3000178A108E118E128E138A148A158A168A9B
:102D400084818068848361E0C7010E94F111882337
:102D500009F48FCF40E050E0BA01C7010E94560F3E
:102D600089CF88EF9FEFA0E0B0E0DCCF81E082CF99
:102D7000CF92DF92EF92FF921F93CF93DF93EC01FC
:102D800080E2689FF0011124E55DFE4E938591710C
:102D900061F0842F827449F080E0DF91CF911F9120
:102DA000FF90EF90DF90CF900895142F6A8B809161
:102DB000650290916602A0916702B09168028E87C9
:102DC0009F87A88BB98BC488D588F12CE12C76011C
:102DD000DD24CC24CF8AD88EE98EFA8E828D938D15
:102DE000B0E0A0E0AC01BD014C295D296E297F292E
:102DF0004F8B588F698F7A8F83858871B1F4848D5A
:102E0000958DA68DB78D8B8B9C8BAD8BBE8B81E00A
:102E10008D831F701C831E821F82188619861A8656
:102E20001B861C861D8681E0B8CF803109F0B4CFA7
:102E30009E012D5E3F4F8B8D9C8D0E94970E8823A7
:102E400009F4AACF84E0E4CF0F931F93CF938C01B2
:102E5000C62F0E94A9076C2F6460C8010E94A907B1
:102E60006C2F6B7FC8010E94A90783EC90E001974B
:102E7000F1F7CF911F910F9108950F931F93CF9367
:102E8000DF938C01D62FC42F607F642B0E94241700
:102E900080E1D89FB00111246C2BC801DF91CF9144
:102EA0001F910F910C942417CF93DF9300D000D083
:102EB0001F921F92CDB7DEB798E0EFE8F2E0DE0197
:102EC000119601900D929A95E1F7909199149617A9
:102ED00010F46FEF690F262F30E0220F331F41E00F
:102EE00050E04C0F5D1F240F351FF9016081680F02
:102EF000606840E081E994E128960FB6F894DEBF5F
:102F00000FBECDBFDF91CF910C943D1740E061E043
:102F100081E994E10E943D178BE39FE10197F1F76E
:102F2000089541E00E943D1781E090E00895FC0182
:102F300080819181009711F00C94104C0895CF93EB
:102F4000DF93EC01898D9A8D009741F00E948912E0
:102F5000898D9A8D0E94104C1A8E198EDF91CF9117
:102F60000895CF93DF932091741430917514232B1F
:102F700089F0FC01C0917014D0917114608171814D
:102F8000CE010E94BD4D009729F08C1B9D0BDF9157
:102F9000CF9108958FEF9FEFFACF0E947A4DFB01FA
:102FA00001900020E9F73197AF01461B570BDC0178
:102FB000ED91FC910280F381E02D19948F929F9204
:102FC000AF92BF92EF92FF920F931F93CF93DF9335
:102FD000CDB7DEB7A1970FB6F894DEBF0FBECDBF59
:102FE0007C01FA01CB0119A2223008F42AE08E01FB
:102FF0000F5D1F4F822E912CB12CA12CBF01A5017A
:1030000094010E94344BF901CA016A300CF5605DED
:10301000D8016E938D01232B242B252B79F790E07B
:1030200080E0109721F0BD01C7010E94CF17A19643
:103030000FB6F894DEBF0FBECDBFDF91CF911F91C9
:103040000F91FF90EF90BF90AF909F908F90089559
:10305000695CDECFCF92DF92EF92FF920F931F93C6
:10306000CF93DF936B01770FEE08FF08F7FE1BC0CD
:10307000EC016DE20E9482028C0144275527BA01BF
:103080004C195D096E097F092AE0CE010E94DE1706
:10309000800F911FDF91CF911F910F91FF90EF90C3
:1030A000DF90CF9008952AE0B701A601DF91CF917C
:1030B0001F910F91FF90EF90DF90CF900C94DE174F
:1030C0008F929F92AF92BF92CF92DF92EF92FF9238
:1030D0000F931F93CF93DF937C018B016C0182E0F0
:1030E000C80ED11C4701E5E08E0E911CD0E0C0E077
:1030F000F60141916F0150E070E060E02AE0C80104
:103100000E94DE175C016EE2C8010E9482028A0DF5
:103110009B1DC80FD91FC814D90451F7F701458169
:1031200050E070E060E02AE0C8010E94DE178C0FDA
:103130009D1FDF91CF911F910F91FF90EF90DF9036
:10314000CF90BF90AF909F908F9008956DEC73E0FB
:103150000C94CF17CF93DF93BC018BE293E10E94D5
:103160002A18EC018BE293E10E94A6188C0F9D1F98
:10317000DF91CF910895CF93DF93AB01BC012AE09B
:103180008BE293E10E94DE17EC018BE293E10E9457
:10319000A6188C0F9D1FDF91CF910895CF93DF93D9
:1031A000BC018BE293E10E948902EC018BE293E186
:1031B0000E94A6188C0F9D1FDF91CF9108950F9349
:1031C0001F93CF93DF93EC010E94CF178C01CE01A8
:1031D0000E94A618800F911FDF91CF911F910F9130
:1031E00008950C94CF178091BF1063E0882349F0B5
:1031F00080E00E94541760ED73E081E994E10C9443
:10320000F11880E00E94541768ED73E0F6CF4F92FA
:103210005F926F927F928F929F92AF92BF92CF9266
:10322000DF92EF92FF920E94F3180E94E9054B0192
:103230005C0161E084E20E945B040E94E905681978
:1032400079098A099B0960367A4E8105910528F42F
:1032500086E20E943204019781F30E94E9056B0126
:103260007C010E94E9052B013C01481859086A08B5
:103270007B0860E084E20E945B0480E648168AEEE8
:1032800058066104710400F162E080E00E94541766
:1032900060EE73E081E994E10E94F11862E080E061
:1032A0000E94541765EF73E081E994E1FF90EF907D
:1032B000DF90CF90BF90AF909F908F907F906F9056
:1032C0005F904F900C94F118C818D908EA08FB08D1
:1032D00062E080E00E94541761E074E081E994E1CB
:1032E0000E94F11862E089E00E9454172AE0B701B9
:1032F000A601F7FE0DC06DE281E994E10E94820211
:1033000044275527BA014C195D096E097F092AE047
:1033100081E994E10E94DE1768EA74E0C5CF0E945B
:10332000861766E174E081E994E10E94F1188091CA
:10333000B51060E0882349F081E10E94541761E2F2
:1033400074E081E994E10C94F11882E10E94541731
:1033500065E274E0F6CFCF93DF93EC01662341F092
:103360000E94861768E274E081E994E10E94F118F6
:1033700061E080E00E945417BE0181E994E10E945F
:103380002A18C83ED34044F463EF73E081E994E126
:10339000DF91CF910C94F118DF91CF910895CF93E5
:1033A000DF93EC010E9486176BE374E081E994E1FE
:1033B0000E94F11861E080E00E945417BE0181E98B
:1033C00094E1DF91CF910C942A18CF93DF93EC0115
:1033D0000E9486176EE774E081E994E10E94F1187B
:1033E000209751F460E083E10E9454176AE474E08E
:1033F00081E994E10E94F11861E080E00E94541795
:1034000063EC74E081E994E10E94F118C130D105C8
:1034100051F461E083E10E9454176AE474E081E9A9
:1034200094E10E94F11862E080E00E94541760ED80
:1034300074E081E994E10E94F118C230D10551F4A1
:1034400062E083E10E9454176AE474E081E994E148
:103450000E94F11863E080E00E94541764EF74E06A
:1034600081E994E10E94F118239761F463E083E11C
:103470000E9454176AE474E081E994E1DF91CF91EE
:103480000C94F118DF91CF910895CF93DF93EC0165
:103490000E9486176CE474E081E994E10E94F118BF
:1034A000209751F460E083E10E9454176AE474E0CD
:1034B00081E994E10E94F1188091D8109091D9107F
:1034C000892B09F046C061E080E00E94541768E54E
:1034D00074E081E994E10E94F118C130D10551F402
:1034E00061E083E10E9454176AE474E081E994E1A9
:1034F0000E94F11862E080E00E94541768E274E0D4
:1035000081E994E10E94F118C230D10551F462E0E2
:1035100083E10E9454176AE474E081E994E10E9417
:10352000F11863E080E00E94541767E674E081E9D7
:1035300094E10E94F118239761F463E083E10E9413
:1035400054176AE474E081E994E1DF91CF910C941F
:10355000F118DF91CF9108958091D8109091D910F2
:103560008130910509F480C01CF4892B49F008953D
:103570008230910509F47DC0039709F48EC0089547
:103580000E94861761E774E081E994E10E94F118D6
:1035900061E080E00E94541766E874E081E994E1FC
:1035A0000E94F1188091AB109091AC100A9734F4FE
:1035B00063EF73E081E994E10E94F1186091AB1030
:1035C0007091AC1081E994E10E942A1862E080E0D9
:1035D0000E94541769E974E081E994E10E94F118AE
:1035E0008091790290917A02A0917B02B0917C0245
:1035F000883E9340A105B10530F463EF73E081E9A3
:1036000094E10E94F1184091790250917A02609100
:103610007B0270917C022AE081E994E10E94DE172E
:1036200067EA74E081E994E10E94F11863E080E0C8
:103630000E9454176BEA74E081E994E10E94F1184A
:103640008091B51063E0882349F081E10E9454170E
:1036500061E274E081E994E10C94F11882E10E9446
:1036600054176AEB74E0F6CF0E9486176DEB74E096
:10367000F1CF0E9486176AEC74E081E994E10E9420
:10368000F11861E080E00E9454176FED74E081E969
:1036900094E10E94F1180C94F3180E9486176EEEC4
:1036A00074E0EBCF0F931F93CF93DF938C01EB016B
:1036B000FC01808191810097E1F068817981611539
:1036C0007105A9F0428153812C813D814217530736
:1036D00070F00E94A74D8C819D81F80195838483B1
:1036E0001D821C82DF91CF911F910F9108950E943E
:1036F000104C88819981F801918380838A819B8114
:10370000938382838C819D8195838483198218821F
:103710001B821A82E5CF0F931F93CF93DF93EC01A7
:1037200088819981009759F02A813B8126173707B4
:1037300030F081E0DF91CF911F910F9108958B01BF
:103740006F5F7F4F0E94994C009759F0998388834F
:103750001B830A832C813D81232B59F7FC011082A6
:10376000E8CF80E0E7CFEF92FF920F931F93CF93C4
:10377000DF931F921F92CDB7DEB78C0169831A8247
:10378000FC01E480F580FFEFEF1AFF0AB7010E9409
:103790008B1B882381F0F801208131818481958100
:1037A000BE016F5F7F4F820F931F0E94A74DF801EC
:1037B000F582E48281E00F900F90DF91CF911F910D
:1037C0000F91FF90EF900895EF92FF920F931F9348
:1037D000CF93DF93EC017B018A01BA010E948B1B1E
:1037E00028813981811114C02115310519F0C901D1
:1037F0000E94104C198218821D821C821B821A8220
:10380000CE01DF91CF911F910F91FF90EF9008951E
:103810001D830C83B701C9010E94A74DF1CFFB01A5
:1038200001900020E9F73197AF01461B570B0C942C
:10383000E41B0F931F93CF93DF93CDB7DEB762974F
:103840000FB6F894DEBF0FBECDBF8C01CB01F801DF
:103850001182108213821282158214824AE0BE0104
:103860006F5F7F4F0E94B04ABE016F5F7F4FC801FC
:103870000E940F1C62960FB6F894DEBF0FBECDBF3C
:10388000DF91CF911F910F910895FC011182108259
:103890001382128215821482FB0101900020E9F745
:1038A0003197AF01461B570B0C94E41BCF92DF926C
:1038B000EF92FF920F931F93CF93DF93EC016B0175
:1038C0007A014617570720F48D2D6A01E62EF82E4F
:1038D0006FEC73E0CE010E94451C009174141091AE
:1038E0007514C016D10600F5E016F10608F487013C
:1038F000E0917014F0917114E00FF11FF0801082CC
:1039000060917014709171146C0D7D1D61157105BD
:10391000A9F0CE010E940F1C809170149091711437
:10392000080F191FF801F082CE01DF91CF911F918E
:103930000F91FF90EF90DF90CF900895888199814B
:10394000009711F00E94104C198218821D821C826F
:103950001B821A82E1CFAF92BF92CF92DF92EF9299
:10396000FF920F931F93CF93DF9300D01F92CDB799
:10397000DEB78C016B017A01809128118333E9F461
:103980005B016801C40ED51EC016D106A9F10E94C4
:103990001A068FE00E949C08812F0E949C08802FAD
:1039A0000E949C080F5F1F4F80E00E949C08F50159
:1039B00081935F010E941006E7CF843369F50E946E
:1039C0001A0619830A838F2D8F778B83EC8264E02C
:1039D00070E0CE0101960E94F605A70170E060E05C
:1039E000C6010E94954DE114F10421F0B701C60112
:1039F0000E94F6050E941006C7010F900F900F90CD
:103A00000F90DF91CF911F910F91FF90EF90DF907A
:103A1000CF90BF90AF9008950E941A060F3F1105F6
:103A200009F030F419820A831B8263E070E0D1CF81
:103A300017FD0BC019820A8333E0169507953A9556
:103A4000E1F7007E08600B83F0CFC80126E0969571
:103A500087952A95E1F7807E19830A830115104C1A
:103A600018F480618B83E1CF8861FCCFCF93DF9323
:103A70001F92CDB7DEB72091291130E0322F2227D7
:103A8000260F371F90E0982F882741E050E0BE01B5
:103A90006F5F7F4F820F931F0E94AB1C89810F9035
:103AA000DF91CF910895CF93C82F462F61E070E04A
:103AB0000E94A10961E070E08C2F0E94361D8111E7
:103AC000F9CFCF910895CF93C82F80E591E00E9460
:103AD000DC0968E070E08C2FCF910C94531DCF93DC
:103AE000C82F80E591E00E94DC0960E170E08C2F36
:103AF000CF910C94531DCF93DF93EC01888D8830C8
:103B000020F40E946F1D88E0888FDF91CF91089587
:103B100063E070E00C94361DCF93C82F80E591E0F0
:103B20000E94DC098C2FCF910C94881DEF92FF929C
:103B30000F931F93CF93DF937C0180912811D4E0E2
:103B4000833309F0D8E003E111E1C0E0F8012191ED
:103B500031918F01F701848195812817390729F068
:103B6000CF5FDC13F3CF80E006C08C2F0E948C1D4A
:103B70008431B1F781E0DF91CF911F910F91FF90D8
:103B8000EF900895CF93DF93EC018C858830D0F4CB
:103B90000E948C1D843189F0882379F0883169F086
:103BA00021E08C3159F4E881F9810084F185E02D20
:103BB000CE01199521E0892B09F420E0822FDF91B5
:103BC000CF91089580E0FBCFCF92DF92EF92FF92EA
:103BD000CF93DF93EC018C85883068F40E94631DDD
:103BE0000E94E9056B017C018C850E948C1D81116E
:103BF00009C088E08C87DF91CF91FF90EF90DF9034
:103C0000CF90089561E070E080E090E00E94B605FA
:103C10000E94E905AB01BC014C195D096E097F09E1
:103C20008D859E85B0E0A0E0481759076A077B079D
:103C3000D8F28C850E946F1DDCCFCF93FC01C08D24
:103C400080E591E00E94DC0960E270E08C2F0E9428
:103C5000531D62E070E08C2F0E94361D84FD16C05B
:103C600062E070E08C2F0E94361D83FF0AC048E19D
:103C700062E070E08C2F0E94A10980E090E0CF917B
:103C8000089580E591E00E94DC09E3CF40E162E025
:103C900070E08C2F0E94A10981E0F0CFCF93DF93D9
:103CA0001F92CDB7DEB741E050E0BE016F5F7F4F9E
:103CB00090E080E00E94AB1C89810F90DF91CF9152
:103CC0000895CF93DF93C4E1D0E00E944E1E882375
:103CD00061F061E070E080E090E00E94B60521971D
:103CE000A1F780E0DF91CF91089581E0FBCFCF92E3
:103CF000DF92EF92FF921F93CF93DF93CDB7DEB7A2
:103D0000C454D1090FB6F894DEBF0FBECDBFFC017D
:103D1000428153816481758123964CAF5DAF6EAF54
:103D20007FAF239781E023968FAF23972396CCAC68
:103D3000DDACEEACFFAC2397CBAADCAAEDAAFEAAC1
:103D40004DA75EA76FA778AB88ABCDA4DEA4EFA488
:103D5000F8A8CFA2D8A6E9A6FAA68EABCBA8DCA875
:103D6000EDA8FEA8C9A2DAA2EBA2FCA22BEB33E0DD
:103D70003C8B2B8B9FEF9D8B9E8B9F8B188E3E8752
:103D80002D878AA7CFA0D8A4E9A4FAA4CF86D88A81
:103D9000E98AFA8A8CA389A19AA1ABA1BCA18987DF
:103DA0009A87AB87BC873A8329834B835C836D8377
:103DB0007E8380912A1181116CC060E372E080E003
:103DC00090E00E94B6050E944F15E4EBF3E0E49109
:103DD000F0E0EE0FFF1FE057FC4F85919491909318
:103DE000271180932611E4E5F3E0E491E093251197
:103DF00061E08AE00E9489040E94100680E591E05B
:103E00000E94DC0984E38093281180E80E94510914
:103E10000E94611E882309F472C088E00E94510943
:103E20000E944E1E883009F06AC080E10E9451094C
:103E30000E944E1E803109F062C080E00E9451094C
:103E40000E944E1E182F81115AC041E050E0BE0161
:103E50006D5B7F4F8FE190E00E94AB1C24968FAD8D
:103E60002497833009F04BC080E48093291142E00D
:103E70006EE170E0812F0E94A10942E06FE170E0E5
:103E8000812F0E94A1091F5F183089F781E080937C
:103E90002A1180E591E00E94DC0946E050E06FE7DE
:103EA00072E089E090E00E94A30844E050E0BE0187
:103EB0006D5F7F4F8FE090E00E94A30844E050E0E8
:103EC000BE01615F7F4F81E090E00E94A30844E063
:103ED00050E0BE016B5E7F4F85E090E00E94A3083A
:103EE00081E08C8789859A85AB85BC858093E813B2
:103EF0009093E913A093EA13B093EB136FC087E399
:103F00008093281180E80E9451090E94611E882335
:103F100039F188E00E9451090E944E1E883001F557
:103F200080E10E9451090E944E1E182F8031C1F479
:103F300080E00E9451090E944E1E811111C041E093
:103F400050E0BE016D5B7F4F89E390E00E94AB1CA7
:103F500024968FAD2497843019F41093291196CFAD
:103F600083E38093281180E80E9451090E94611E1A
:103F7000882391F180E10E9451090E944E1E8031F8
:103F800059F582E10E9451090E944E1E823121F5AD
:103F900080E00E9451090E944E1E81111DC084E0E4
:103FA0008093291115E525961FAF259741E050E034
:103FB000BE016C5B7F4F8BE190E00E94A3082496CA
:103FC0001FAF249741E050E0BE016D5B7F4F8AE157
:103FD00090E00E94A3085ACF10922811CC5BDF4FCB
:103FE0000FB6F894DEBF0FBECDBFDF91CF911F910A
:103FF000FF90EF90DF90CF9008951F93CF93DF93C2
:104000001F92CDB7DEB7182F80E591E00E94DC0942
:10401000812F0E94250627E0129FF0011124E5520E
:10402000FF4E22813381377041E050E0BE016F5F67
:104030007F4F820F931F0E94AB1C89810F90DF91ED
:10404000CF911F910895FC01808D883040F4218D1F
:10405000328D232B21F00E94FD1F90E008958FEFF9
:104060009FEF0895CF93DF93FC012485283028F03B
:104070008FEF9FEFDF91CF910895EC010190F081D8
:10408000E02D0084F185E02D1995892B89F38C852D
:104090000E94FD1F90E0EECFDA01E0912911F0E0DF
:1040A000FE2FEE27E60FF71F90E0982F8827A90133
:1040B000BD018E0F9F1F0C94AB1C8F929F92AF92ED
:1040C000BF92CF92DF92EF92FF920F931F93CF9305
:1040D000DF93CDB7DEB760970FB6F894DEBF0FBEA3
:1040E000CDBF7C0190912811911115C018E0812F4E
:1040F00060960FB6F894DEBF0FBECDBFDF91CF91B3
:104100001F910F91FF90EF90DF90CF90BF90AF90F5
:104110009F908F90089508E0933309F404E06B01B9
:1041200080E591E00E94DC099E012F5F3F4F59011D
:10413000490110E0812F0E94881DF40181934F01F5
:104140008823C1F01F5F0113F5CF00E0F5018191D5
:104150005F018D3149F0883139F08A51823020F089
:104160000F5F1013F3CFC2CF60E170E0802F0E9489
:10417000531D102FA12EB12CF501EE0FFF1FED5E88
:10418000FE4E1182108283EE93E00197F1F742E830
:1041900070E060E0812F0E94A1094FEF62E070E0C3
:1041A000812F0E94A109B601C114D10491F480911C
:1041B0007D0290917E0201968115F0EC9F0708F434
:1041C0005CC090937E0280937D0260917D0270912D
:1041D0007E02812F0E948B0986E0E7E9F2E0DE0192
:1041E000199601900D928A95E1F7F70183818F77F7
:1041F0008C8784818D8785818E87A7014E5F5F4F75
:1042000024E030E06CE070E0812F0E946409B60188
:10421000812F0E94750926E030E0AE01475F5F4FB5
:1042200066E070E0812F0E94640961E070E0812FF8
:104230000E94531D27E02A9DC0012B9D900D112443
:104240009C0125523F4E7901F9011182108222E032
:1042500030E0AE01415F5F4F68E270E0812F0E9465
:104260004C208F859889982789279827F701938371
:1042700082831682158214823ACF80E090ECA1CF1F
:10428000CF92DF92EF92FF920F931F93CF93DF9322
:1042900000D000D0CDB7DEB78C016B017A01FC01F4
:1042A000808D883010F40E946F1D8BEB93E09A8311
:1042B0008983F60182819381A481B5818B839C835C
:1042C000AD83BE83B701CE0101960E945D20F80147
:1042D000808F8830A0F4F586E486128E118E81E0FE
:1042E00026960FB6F894DEBF0FBECDBFDF91CF91FB
:1042F0001F910F91FF90EF90DF90CF90089580E095
:10430000EFCF7F928F929F92AF92BF92CF92DF9228
:10431000EF92FF920F931F93CF93DF931F921F9201
:10432000CDB7DEB7782E8B014A01590122E030E08B
:10433000AE014F5F5F4F64E270E00E944C20E98065
:10434000FA80FE24EF24FE24E00EF11E9701377060
:1043500040912811072D10E0433309F042C0085F57
:104360001F4F102F0027110F110F110FC901800FC0
:10437000911F4733C9F1A9014A0D5B1D41305840D7
:1043800098F160E078E06B01C21AD30AA601B4018B
:104390000E94A308A5014C195D09B4016C0D7D1D97
:1043A000C8010E94A308EA0CFB1CF982EA8222E001
:1043B00030E0AE014F5F5F4F64E270E0872D0E94F6
:1043C00064090F900F90DF91CF911F910F91FF9093
:1043D000EF90DF90CF90BF90AF909F908F907F90A5
:1043E0000895005F1F4FBDCFA501B401DACFEF9252
:1043F000FF921F93CF93DF931F921F92CDB7DEB72B
:10440000182F22E030E0AE014F5F5F4F60E270E0B6
:104410000E944C20E980FA80FE24EF24FE2422E052
:1044200030E0AE014F5F5F4F60E270E0812F0E948D
:104430004C2089819A81982789279827E816F906C0
:1044400089F487E0189FF0011124E552FF4EF582B0
:10445000E482C7010F900F90DF91CF911F91FF90E1
:10446000EF9008957C01DBCF1F93CF93DF93182F3C
:1044700080E591E00E94DC09812F0E94F721EC0188
:10448000812F0E94881D873121F08C3111F0D0E0FE
:10449000C0E0CE01DF91CF911F910895CF93DF93BC
:1044A000EC018C85883060F40E948C1D873111F0FE
:1044B0008C3131F48C850E9434228115984088F328
:1044C000DF91CF910895FC018485883010F40C941D
:1044D000342290E080E00895CF92DF92EF92FF9235
:1044E0001F93CF93DF93182F7B01EA01413058408F
:1044F00010F0C0E0D8E080E591E00E94DC09812F57
:104500000E94F7216C01812F0E94881D873111F0D4
:104510008C3121F5CC16DD0670F380E591E00E9428
:10452000DC099E01A70170E060E0812F0E948121DB
:1045300060E270E0812F0E94531D62E070E0812FE5
:104540000E94361D84FD0DC0812F0E94881D882386
:10455000B9F080E591E00E94DC09EFCFD0E0C0E047
:10456000DCCF40E162E070E0812F0E94A109CE0122
:10457000DF91CF911F91FF90EF90DF90CF90089542
:10458000D0E0C0E0F4CF0F931F93CF93DF938C0163
:10459000EA01FC018485883048F40E946C22892B52
:1045A00039F481E090E0F80193838283D0E0C0E0A9
:1045B000CE01DF91CF911F910F9108959F92AF92FD
:1045C000BF92CF92DF92EF92FF920F931F93CF9300
:1045D000DF938C015B01942EE52EFC01C688D78801
:1045E000F08C80E591E00E94DC098F2D0E94F7217C
:1045F000C92DDE2D8C179D0708F4EC019E01A50145
:10460000B6018F2D0E948121F801868997898C0F30
:104610009D1F978B868BCE01DF91CF911F910F91BC
:10462000FF90EF90DF90CF90BF90AF909F90089554
:10463000FF920F931F93CF93DF931F921F92CDB7DB
:10464000DEB7F82E22E030E0AE014F5F5F4F66E24A
:1046500070E00E944C2009811A8110270127102741
:1046600022E030E0AE014F5F5F4F66E270E08F2DD9
:104670000E944C2089819A819827892798270817BA
:10468000190749F4C8010F900F90DF91CF911F9146
:104690000F91FF9008958C01E3CF1F93CF93DF9389
:1046A000182F87E0189FE0011124C552DF4E888142
:1046B0009981009761F480E591E00E94DC09812FE7
:1046C0000E9418232E81821B910999838883DF9190
:1046D000CF911F9108959F92AF92BF92CF92DF9298
:1046E000EF92FF920F931F93CF93DF93EC017B0127
:1046F00080912811811121C01B821A8288EE93E0DB
:10470000A0E0B0E08C839D83AE83BF838FE693E00F
:104710009983888388E08C8788EE93E09E878D87D5
:10472000CE01DF91CF911F910F91FF90EF90DF901D
:10473000CF90BF90AF909F90089534E0932E833335
:1047400011F028E0922E83E1C82E81E1D82E10E0EE
:1047500098E0B92EA12CD6012D913D916D01F70164
:10476000848195812817390791F4812F0E948C1D2F
:10477000082F873111F08C3139F5812F0E944D239C
:10478000892B59F50C3119F4812F0E94631D1F5F8D
:104790009112E1CFA11008C0D701ED91FC910084E6
:1047A000F185E02DC70119951B821A8288EE93E0EE
:1047B000A0E0B0E08C839D83AE83BF838FE693E05F
:1047C00099838883BC86A8CF843149F08111DFCFDB
:1047D000F601329711821082DACFB12ED8CFAA24F7
:1047E000A394D5CF8F929F92AF92BF92CF92DF9238
:1047F000EF92FF920F931F93CF93DF93CDB7DEB766
:104800002F970FB6F894DEBF0FBECDBF5C014B01F2
:104810007A01809128118823C9F104E0833309F0DB
:1048200008E0B501CE0101960E946B2383E1C82EFA
:1048300081E1D82E10E0F601219131916F01F5014F
:10484000848195812817390751F4812F0E948C1D8E
:10485000873129F4A701B401812F0E946C221F5FC8
:104860000113E9CFC7012F960FB6F894DEBF0FBE34
:10487000CDBFDF91CF911F910F91FF90EF90DF900F
:10488000CF90BF90AF909F908F900895F12CE12C26
:10489000E9CFFC018485883010F40C944D2390E01E
:1048A00080E008954F925F927F928F929F92AF9295
:1048B000BF92CF92DF92EF92FF920F931F93CF930D
:1048C000DF931F921F92CDB7DEB7782E6B014A019E
:1048D000A82EB12C27E0829FC0011124FC01E552D3
:1048E000FF4E7F010081118180E591E00E94DC098B
:1048F0000815190554F4872D0E941823F701268105
:104900008C01021B1109118300830115110519F592
:10491000872D0E94881D843159F0882349F001E0D9
:1049200010E08C3111F410E000E0119501951109AF
:10493000C8010F900F90DF91CF911F910F91FF90C1
:10494000EF90DF90CF90BF90AF909F908F907F902F
:104950005F904F900895801691060CF4840187E0D3
:104960008A9DF0018B9DF00D1124E552FF4EE280EF
:10497000F380C114D10451F12701F7E05F22872DA4
:104980000E942506840D951D20912811273309F4D6
:1049900053C09801240D351D2130384008F44CC017
:1049A00020E038E0490184189508A401B6010E946E
:1049B000AB1C2601480C591C6801C818D908872D62
:1049C0000E942506A601B2010E94AB1CE00EF11E5A
:1049D00087E08A9DF0018B9DF00D1124E552FF4E7A
:1049E000F382E28220813181201B310B31832083CD
:1049F0008681800F912F911D8A3F910510F4232B02
:104A0000F1F487E08A9DF0018B9DF00D1124E552B1
:104A1000FF4E1682F982EA8222E030E0AE014F5F5B
:104A20005F4F68E270E0872D0E94640960E470E0E7
:104A3000872D0E94531D7CCFA801B601C5CF868368
:104A400077CFCF93DF93FC01218D328D2115310576
:104A500029F48FEF9FEFDF91CF910895EC01808DC6
:104A60004217530708F0A9010E945224181619068C
:104A700084F7298D3A8D281B390B3A8F298FEBCF7C
:104A80000F931F93CF93DF931F92CDB7DEB7FC0137
:104A9000218D328D232B41F48FEF9FEF0F90DF910B
:104AA000CF911F910F9108958C0141E050E0BE011C
:104AB0006F5F7F4FFC01808D0E94522418161906EB
:104AC0005CF7F801818D928D0197928F818F89819A
:104AD00090E0E4CFCF93DF931F92CDB7DEB741E0F4
:104AE00050E0BE016F5F7F4FFC0184850E9452241D
:104AF0001816190634F4898190E00F90DF91CF9158
:104B000008958FEF9FEFF9CFFC018485883010F472
:104B10000C94522490E080E008958F929F92AF927F
:104B2000BF92CF92DF92EF92FF920F931F93CF939A
:104B3000DF9300D000D000D01F92CDB7DEB79091A8
:104B40002811911115C018E0812F2A960FB6F894FC
:104B5000DEBF0FBECDBFDF91CF911F910F91FF90B0
:104B6000EF90DF90CF90BF90AF909F908F9008957F
:104B700028E0F22E933311F494E0F92E6B01082F04
:104B800080E591E00E94DC099E012F5F3F4F5901B3
:104B9000490110E0812F0E94881DF40181934F018B
:104BA0008823C1F01F5FF112F5CFF12CF50191912F
:104BB0005F019D3149F0983139F09A51923020F0DF
:104BC000F3941F11F3CFBFCF60E170E08F2D0E94EF
:104BD000531D1F2DE12EF12CF701EE0FFF1FED5E8F
:104BE000FE4E1182108283EE93E00197F1F7402F81
:104BF00070E060E0812F0E94A1094FEF62E070E059
:104C0000812F0E94A109B601CD2889F480917D02EF
:104C100090917E0201968115F0EC9F0798F1909398
:104C20007E0280937D0260917D0270917E02812FD1
:104C30000E948B0961E070E0812F0E94531D27E0E4
:104C40002E9DC0012F9D900D11249C0125523F4E99
:104C50007901F9011182108222E030E0AE01475F54
:104C60005F4F68E270E0812F0E944C2089859A8511
:104C7000982789279827F7019383828316821582C4
:104C8000148262CF80E090ECCACF0F931F93CF9332
:104C9000DF93EC018B01888D883010F40E946F1D2A
:104CA000B80182E00E948D25888F883050F41D87DE
:104CB0000C871A8E198E81E0DF91CF911F910F9191
:104CC000089580E0F9CF0F931F93CF938C01FC01DF
:104CD0006481758181E20E948D25C82F8830F8F4A7
:104CE00080E591E00E94DC098C2F0E94881D8331B1
:104CF00031F08C2FCF911F910F910C94631D62E0C6
:104D000070E08C2F0E94531DF80184819581EC2F57
:104D1000F0E0EE0FFF1FED5EFE4E91838083CF919A
:104D20001F910F910895CF92DF92EF92FF921F9300
:104D3000CF93DF93EC017B016A018C85883048F4C6
:104D40000E948C1D882319F08C850E94631D88E0C9
:104D50008C87F70182819381A481B5810097A10599
:104D6000B10551F490E080E0DF91CF911F91FF9069
:104D7000EF90DF90CF9008958F3F9F4FAF4FBF4F81
:104D800089F370E060E081E20E948D25182F8C8706
:104D9000883040F780E591E00E94DC09A7014E5F72
:104DA0005F4F24E030E06CE070E0812F0E946409E6
:104DB000B601812F0E94750964E070E0812F0E9486
:104DC000531D0E94E9056B017C018C850E948C1D9E
:104DD000873111F18C3101F1882321F20E94E9051C
:104DE000AB01BC014C195D096E097F098D859E855B
:104DF000B0E0A0E084179507A607B70738F061E098
:104E000070E080E090E00E94B605DFCF8C850E94C4
:104E10006F1D88E08C87A6CF81E090E0A5CF0F932F
:104E20001F93CF93DF931F921F92CDB7DEB7FC0184
:104E300024852830E0F48C0180E591E00E94DC09B3
:104E400022E030E0AE014F5F5F4F60E170E0F801BB
:104E500084850E944C2089819A81982789279827E8
:104E60000F900F90DF91CF911F910F91089590E0D7
:104E700080E0F6CF0F931F93CF93DF931F921F9283
:104E8000CDB7DEB7FC0124852830E0F48C0180E545
:104E900091E00E94DC0922E030E0AE014F5F5F4FFD
:104EA00064E070E0F80184850E944C2089819A8139
:104EB0009827892798270F900F90DF91CF911F9106
:104EC0000F91089590E080E0F6CF0F931F93CF935A
:104ED000DF9300D000D01F921F92CDB7DEB78C01B8
:104EE000D80159964D915C915A974115510551F051
:104EF000ED91FC91048CF58DE02D70E060E0C8012F
:104F00001995EECFF801808D0E944D23892BB1F1C8
:104F100048E050E0BE016F5F7F4FD80158968C91FA
:104F20000E94522418161906F4F4D801509684E011
:104F3000FE01319601900D928A95E1F78D8190E006
:104F4000982F88272E81820F911DF801958B848BD5
:104F50008F81282F30E0322F22278885820F932FD0
:104F6000911D928F818F28960FB6F894DEBF0FBEE9
:104F7000CDBFDF91CF911F910F91089590E080E018
:104F8000F2CF4F925F926F927F928F929F92AF92E9
:104F9000BF92CF92DF92EF92FF920F931F93CF9326
:104FA000DF93CDB7DEB763970FB6F894DEBF0FBEC1
:104FB000CDBF7C016B013A01FB0120E090E080E075
:104FC0006AE03191332309F461C040ED430F4A3068
:104FD00008F04DC0689FA001699F500D1124CA01BF
:104FE000C097830F911D37FD9A958F3F910549F327
:104FF00040F3F70142815381648175818091F413FC
:105000009091F513A091F613B091F7134817590733
:105010006A077B0709F40DC28701085F1F4F0E94D2
:10502000E9056F7077277C5FC8010E9445268130B3
:1050300009F004C28BEB93E09A838983F7018281A4
:105040009381A481B5818B839C83AD83BE8345E32B
:1050500050E0BE016F5F7F4FC8010E94DF09892BBE
:10506000A9F5D12CC12CC8010E947B1D17C03E326E
:1050700009F0BFCF233009F4BCCFD301A20FB11D7B
:1050800012968C932F5F90E080E09BCF233009F045
:10509000B0CFF3018583CC24C394D12CC601639691
:1050A0000FB6F894DEBF0FBECDBFDF91CF911F9139
:1050B0000F91FF90EF90DF90CF90BF90AF909F90B7
:1050C0008F907F906F905F904F9008950E94E905B8
:1050D000F7017783668342E050E0B7016A5F7F4F54
:1050E000C8010E94DE2281E090E09A83898342E039
:1050F00050E0BE016F5F7F4FC8010E94DE2280E05A
:1051000091E09A83898342E050E0BE016F5F7F4F58
:10511000C8010E94DE221A82198242E050E0BE01DC
:105120006F5F7F4FC8010E94DE2242E050E0BE0167
:105130006F5F7F4FC8010E94DE2242E050E0BE0157
:105140006F5F7F4FC8010E94DE225601F601808109
:10515000882301F16501F60181912F01882311F067
:105160008E32B1F446018A189B081814190474F49D
:105170008D8641E050E0BE01635F7F4FC8010E9411
:10518000DE22A401B501C8010E94DE225201DECF59
:105190006201E1CF1D8641E050E0BE01635F7F4FB9
:1051A000C8010E94DE22C12CDD24D394DA82C98298
:1051B00042E050E0BE016F5F7F4FC8010E94DE22D7
:1051C000DA82C98242E050E0BE016F5F7F4FC801C2
:1051D0000E94DE22C8010E941D1E892B09F441CFC6
:1051E000F3E0AF2EB12C230122E0420E511CD4C0BB
:1051F000F7014281538164817581808D918DA28DEB
:10520000B38D481759076A077B0709F008C1848DD9
:10521000958DC59709F003C181A192A15DEFC52EBF
:10522000DD24DA940C970CF4ADC04CE050E0BE01E4
:105230006F5F7F4FC8010E9421258B819C81982739
:10524000892798279A8B898BF70146815781298175
:105250003A814217530709F0E7C097FFE5C08F7006
:1052600092703BEFC32EDD24DA94892B09F08AC0BB
:105270006F8078847624672476242AEFC22EDD247A
:10528000DA946114710409F47DC0D12CC12C8D8194
:105290009E81982789279827C816D906F8F441E0F7
:1052A00050E0BE01635F7F4FC8010E9421254D85FC
:1052B000442331F050E070E060E0C8010E942125F5
:1052C0008D858111ECCF44E050E070E060E0C801D2
:1052D0000E942125FFEFCF1ADF0AD9CF912C812C14
:1052E00041E050E0BE016D5E7F4FC8010E94212564
:1052F0004B89842F807C09F06CC0442331F050E04E
:1053000070E060E0C8010E9421258B898111E8CFFF
:1053100042E050E0BE01615F7F4FC8010E9421253D
:1053200042E050E0BE01635F7F4FC8010E9421252B
:1053300044E050E070E060E0C8010E94212542E0B6
:1053400050E0BE016F5E7F4FC8010E9421258F850E
:10535000988949895A898115914009F043C0CD84C3
:10536000DE84DC24CD24DC2481E0C816D104D1F510
:105370004115544009F04AC044E050E0B201C80170
:105380000E94212521E0A21AB10809F46CCEFFEF9A
:10539000CF16DF0609F067CE0E94E9053B014C01FC
:1053A000C8010E946527181619060CF421CF0E9427
:1053B000E9056619770988099909693873418105F2
:1053C000910548F562E370E080E090E00E94B60548
:1053D000E7CF41E050E070E060E0C8010E94212585
:1053E0001B8A93CF54274527542770E060E0C801FB
:1053F0000E942125FFEF8F1A9F0A6814790409F093
:105400006FCF96EFC92EDD24DA94BCCFE7EFCE2E16
:10541000DD24DA94B7CFCC24CA94DC2CB3CF6EEF62
:10542000C62EDD24DA94AECF4CEFC42EDD24DA9400
:10543000A9CF8EEFC82EDD24DA9430CED12CC12C2A
:105440002DCECF92DF92EF92FF920F931F93CF93C7
:10545000DF93CDB7DEB7AF970FB6F894DEBF0FBEC0
:10546000CDBF7C016A010BEB13E01A8309831C8614
:105470001B8688EE93E0A0E0B0E08D879E87AF8723
:10548000B88B84EA92E09A878987188F0F8B198EE0
:105490001A8E1B8E1C8E88E089A31BA70AA71CA648
:1054A0001DA61EA61FA68091E8139091E913A09156
:1054B000EA13B091EB138EA39FA3A8A7B9A78B8380
:1054C0009C83AD83BE8318861F82AE01465D5F4F0D
:1054D000CE0101960E94C12781309105B1F4D70118
:1054E000ED91FC910488F589E02D1DA30CA38CA5FA
:1054F0009DA5AEA5BFA58EA39FA3A8A7B9A7A601EA
:10550000BE016C5D7F4FC7011995AF960FB6F89439
:10551000DEBF0FBECDBFDF91CF911F910F91FF90E6
:10552000EF90DF90CF900895CF92DF92EF92FF92AD
:105530000F931F93CF93DF93CDB7DEB7AF970FB61F
:10554000F894DEBF0FBECDBF8C016B017A018BEBEF
:1055500093E09A8389831B821C821D821E821C8693
:105560001B8648EE53E060E070E04D875E876F87F2
:10557000788B24EA32E03A872987988F8F8B198EAF
:105580001A8E1B8E1C8E28E029A39BA78AA71CA617
:105590001DA61EA61FA6D8011C968C91883060F40B
:1055A0000E948C1D882321F0F80184850E94631DD0
:1055B00088E0D8011C968C938091E8139091E913B0
:1055C000A091EA13B091EB138EA39FA3A8A7B9A74C
:1055D0008B839C83AD83BE8318861F82AE01465D9C
:1055E0005F4FB601CE0101960E94C1270097C1F01E
:1055F000D801ED91FC910684F785E02D8BEB93E0CB
:105600009DA38CA38CA59DA5AEA5BFA58EA39FA38E
:10561000A8A7B9A7A701BE016C5D7F4FC801199566
:10562000AF960FB6F894DEBF0FBECDBFDF91CF911E
:105630001F910F91FF90EF90DF90CF900895EF9220
:10564000FF920F931F93CF93DF9300D01F92CDB79C
:10565000DEB78C017B01FB0184858830A8F08BEBE1
:1056600093E0F80191838083128213821482158261
:10567000C8010F900F900F900F90DF91CF911F9165
:105680000F91FF90EF90089580E591E00E94DC0972
:1056900024E030E0AE014F5F5F4F6CE070E0F70157
:1056A00084850E944C208BEB93E0F80191838083EA
:1056B00089819A81AB81BC8182839383A483B583E2
:1056C000D7CF85ED8093BC0080915D1090915E10E6
:1056D000A0915F10B09160100796A11DB11D23E04D
:1056E000B695A795979587952A95D1F72091BC00F7
:1056F00024FD03C010925B10089540915D105091FD
:105700005E1060915F1070916010452B462B472B07
:1057100069F30097A105B10541F025E32A95F1F75A
:1057200000000197A109B109E1CF80915C100C94B0
:1057300003073F924F925F926F927F928F929F9258
:10574000AF92BF92CF92DF92EF92FF920F931F938F
:10575000CF93DF9300D000D000D01F921F92CDB71F
:10576000DEB77C01DC0115968C91811115C0FE011C
:105770003196CE010C966F0130E23193E817F907AC
:10578000E1F7DA0130E087E09D91B92E992329F104
:105790009E3239F48A3011F480E0DAC038E08AE0D1
:1057A000F3CFE0ECF2E04491442321F031969413DE
:1057B000FACFF2CF831780F34FED490F4E3560F7E4
:1057C0004FE9490F4A3118F440EEB42EB90EF601F4
:1057D000E30FF11DB0823F5FD7CF89818032E1F2C4
:1057E000322E8B01FB01838D948DD7015C969C93A7
:1057F0008E935B9716821782108611861286138607
:1058000014861586F80182859385A485B58543891C
:1058100054896589768984179507A607B70708F024
:105820004DC025E0B695A795979587952A95D1F710
:10583000F82FFF70AF2ED80115968C91823008F4A6
:10584000ABCFC8010E940A1597FDA6CFF80182854B
:105850009385A485B5854F96A11DB11D8287938739
:10586000A487B587F0E2AF9EB0011124655D7E4E3E
:105870006115710509F490CFDB018C91882341F00B
:10588000853E09F058C0BB2029F0BB24B394BACFA1
:10589000B1100EC0F701A28A809165029091660254
:1058A000A0916702B091680286879787A08BB18B21
:1058B000DB018C918111E9CFBB24B394832D8271DC
:1058C000823109F069CFBB2009F45AC0C7010E9498
:1058D000320C009709F460CF20E2FC0111922A9566
:1058E000E9F72BE0F601DC0101900D922A95E1F732
:1058F00021E238E2DC0151963C932E93509740E030
:1059000058E01F965C934E931E9753963C932E93AC
:10591000529759963C932E93589757965C934E9373
:10592000569781E00E94BD0B882309F435CF432DA3
:10593000F70162890AC04BE050E0C6010E947F4D2A
:10594000892B09F05FCF432D6A2DC7010E94B8163D
:105950002B960FB6F894DEBF0FBECDBFDF91CF916F
:105960001F910F91FF90EF90DF90CF90BF90AF907D
:105970009F908F907F906F905F904F903F90089591
:10598000F8018581823009F407CFC8010E94EA0F2F
:10599000882309F401CFD8015B96ED91FC915C97C7
:1059A00016968D909D90AD90BC901997B2E08B1A91
:1059B0009108A108B108858504C0880C991CAA1C0F
:1059C000BB1C8A95D2F786859785A089B189880EF8
:1059D000991EAA1EBB1E848124013501480E511C4C
:1059E000611C711C84149504A604B70409F1E1E05C
:1059F0004E1A51086108710881E00E94BD0B88238E
:105A000009F4CACEEBE2F1E111928BE293E18E1739
:105A10009F07D1F74092650250926602609267023A
:105A2000709268028091CC0F81608093CC0FDACFA6
:105A3000D8015B96ED91FC91258580E092E0A0E095
:105A4000B0E004C0880F991FAA1FBB1F2A95D2F788
:105A5000F8014389548965897689840F951FA61FAB
:105A6000B71F838B948BA58BB68BD70152961C9254
:105A70008BE291E131CFCF93DF93CDB7DEB76D9756
:105A80000FB6F894DEBF0FBECDBFAB011C821B82E8
:105A900023E633E03A8329831E8222E0BC01CE0153
:105AA00001960E94992B81110AC080E06D960FB675
:105AB000F894DEBF0FBECDBFDF91CF910895CE0128
:105AC00001960E942516882381F3CE0101960E943B
:105AD000320C009751F325EEFC0120831E8281E0F9
