:020000040000FA
:100000000C948B010C94B91C0C948E1C0C94631CE6
:100010000C94381C0C940D1C0C94E21B0C94B71B14
:100020000C948C1B0C94BC010C94BC010C94BC0172
:100030000C94BC010C94BC010C94BC010C94BC014C
:100040000C94BC010C94BC010C94BC010C94BC013C
:100050000C94BC010C94BC010C94BC010C94421B8C
:100060000C94BC010C940C1B0C94E21A0C94BC0173
:100070000C94BC010C94BC010C94BC010C94BC010C
:100080000C94BC010C94BC010C94BC010C94BC01FC
:100090000C94BC010C94BC010C94BC010C94E41CA9
:1000A0000C94BC010C94BC010C94BC010C94BC01DC
:1000B0000C94BC010C94BC010C94BC010C94BC01CC
:1000C0000C94BC010C94BC010C94BC010C94BC01BC
:1000D0000C94BC010C94BC010C94BC010C94BC01AC
:1000E0000C94BC010C9423050C943A100C942C0332
:1000F0000C9452030C9429030C94081E0C943203A4
:100100000C94C5010C94A8020C94F2010C94C41038
:100110000C941D030C945C030C949C040C945803E5
:100120000C944A030C94A4100C945B020C940102EE
:100130000C9488040C9444030C9417030C9423022D
:100140000C9421030C9428040C9492040C94A6049F
:100150000C94AD050C94340E0C949A050C94650423
:100160000C948B050C94BA040C94B4050C944003C5
:100170000C94C4010C94BE010C9436030C948A05B3
:100180000C9426120C945B040C9420040C947513AC
:100190000C946F040C9457030C9430120C943C0391
:1001A0000C94F1100C9441040C9479040C943704D1
:1001B0000C944B040C9425030C94C3010C9415026D
:1001C0000C944E030C942D040C94D4100C94E10563
:1001D0000C949B100C9453040C94F7060C94C201DD
:1001E0000C94B00400002200250028002B002E00F3
:1001F0003100340002010000050108010B0100007C
:1002000020002300260029002C002F0032000001CE
:10021000000003010601090100000A0B02090C0D90
:100220000E080703040100000000000000000000A9
:1002300000000000000000000000000000000000BE
:10024000000000001211100000000000000000007B
:10025000000000000000000000000000000000009E
:100260002100240027002A002D0030003300010166
:100270000000040107010A010102102020080810F3
:100280002040102040800201020108040201010206
:1002900004081020408080402010080402018004DF
:1002A000020180402010080402010804020101023A
:1002B0000408102040800102040810204080050539
:1002C0000505070508080808020202020A0A0808CC
:1002D00004040404010101010101010103030303FA
:1002E00003030303040707070C0C0C0C0C0C0C0C89
:1002F0000202020206060606060606060B0B0B0B9A
:100300000B0B0B0B7C3C3E5E2B3D3F2F5B5D3B2C78
:100310002A225C00081E11241FBECFEFD1E2DEBFEF
:10032000CDBF00E00CBF15E0A0E0B2E0ECE7F4E5E3
:1003300000E00BBF02C007900D92A837B107D9F7B4
:100340002CE0A8E7B5E001C01D92A33AB207E1F79F
:1003500011E0CBE8D1E000E006C021970109802F31
:10036000FE010E94F027CA38D10780E00807A9F7EC
:100370000E947A1E0C943C2A0C94000081E0809329
:1003800080090895089508950895AF92BF92CF927D
:10039000DF92EF92FF920F931F93CF93DF936C0145
:1003A0007B018B01040F151FEB015E01AE18BF0826
:1003B000C017D10759F06991D601ED91FC910190D8
:1003C000F081E02DC6011995892B79F7C501DF91E0
:1003D000CF911F910F91FF90EF90DF90CF90BF9042
:1003E000AF900895FC01538D448D252F30E0842F6C
:1003F00090E0821B930B541710F0CF96089501974D
:100400000895FC01918D828D981761F0A28DAE0F39
:10041000BF2FB11D5D968C91928D9F5F9F73928FC0
:1004200090E008958FEF9FEF0895FC01918D828DEC
:10043000981731F0828DE80FF11D858D90E00895B9
:100440008FEF9FEF0895FC01918D228D892F90E011
:10045000805C9F4F821B91098F739927089584E8D0
:100460009BE00E94230221E0892B09F420E0822FE7
:100470000895FC01A48DA80FB92FB11DA35ABF4F39
:100480002C91848D90E001968F739927848FA68993
:10049000B7892C93A089B1898C91837080648C93E7
:1004A000938D848D981306C00288F389E02D808196
:1004B0008F7D80830895EF92FF920F931F93CF93C8
:1004C000DF93EC0181E0888F9B8D8C8D98131AC08F
:1004D000E889F989808185FF15C09FB7F894EE8976
:1004E000FF896083E889F9898081837080648083D3
:1004F0009FBF81E090E0DF91CF911F910F91FF901E
:10050000EF900895F62E0B8D10E00F5F1F4F0F73C5
:100510001127E02E8C8D8E110CC00FB607FCFACF80
:10052000E889F989808185FFF5CFCE010E943902E3
:10053000F1CFEB8DEC0FFD2FF11DE35AFF4FF08251
:100540009FB7F8940B8FEA89FB8980818062CFCFB7
:10055000CF93DF93EC01888D8823B9F0AA89BB89FA
:10056000E889F9898C9185FD03C0808186FD0DC0E5
:100570000FB607FCF7CF8C9185FFF2CF808185FF06
:10058000EDCFCE010E943902E9CFDF91CF910895DE
:1005900080E090E0892B29F00E942F0281110E94B7
:1005A000000080E090E0892B49F080E090E0892B0A
:1005B00029F00E94000081110E94000080E090E07C
:1005C000892B49F080E090E0892B29F00E940000FF
:1005D00081110E94000080E090E0892B49F080E0CA
:1005E00090E0892B29F00E94000081110C940000FA
:1005F00008958150823108F05AC0E82FF0E0882732
:10060000EB5FFC4F8F4F0C94F02725032903170352
:100610001D03210357032C03320336033C0340031D
:1006200044034A034E035703520358035C0380916B
:1006300080008F77809380000895809180008F7D67
:10064000F9CF80918000877FF5CF84B58F7784BD07
:10065000089584B58F7DFBCF8091B0008F77809314
:10066000B00008958091B0008F7DF9CF8091900007
:100670008F77809390000895809190008F7DF9CFBF
:1006800080919000877FF5CF8091A0008F77809335
:10069000A00008958091A0008F7DF9CF8091A000E7
:1006A000877FF5CF809120018F7780932001089577
:1006B000809120018F7DF9CF80912001877FF5CF38
:1006C000CF93DF93282F30E0F901E85EFD4F84914E
:1006D000F901E858FD4FD491F901E254FD4FC4915E
:1006E000CC23A1F081110E94F902EC2FF0E0EE0F73
:1006F000FF1FE250FE4FA591B491EC91ED2381E0F4
:1007000090E009F480E0DF91CF91089580E090E0DF
:10071000FACF1F93CF93DF93282F30E0F901E85EE3
:10072000FD4F8491F901E858FD4FD491F901E2544D
:10073000FD4FC491CC23A9F0162F81110E94F9021C
:10074000EC2FF0E0EE0FFF1FEC51FE4FA591B4919E
:100750008FB7F894EC91111108C0D095DE23DC938B
:100760008FBFDF91CF911F910895DE2BF8CFCF93EC
:10077000DF9390E0FC01E858FD4F249182549D4F97
:10078000FC0184918823D1F090E0880F991FFC012F
:10079000E25AFD4FA591B491FC01EC51FE4FC59179
:1007A000D49161110EC09FB7F8948C91E22FE0951F
:1007B0008E238C932881E223E8839FBFDF91CF9122
:1007C00008958FB7F894EC91E22BEC938FBFF6CF9E
:1007D0001F93CF93DF93182FEB0161E00E94B703C3
:1007E000209739F460E0812FDF91CF911F910C9415
:1007F0008903CF3FD10511F461E0F5CFE12FF0E09F
:10080000E85EFD4FE491E150E23108F0B3C0F0E062
:100810008827E25FFB4F8F4F0C94F02720042804B9
:100820002D0437044104BA044B0453045B046504EB
:100830006F04790488049204BA049C04A604B004EA
:1008400084B5806884BDC7BDDF91CF911F910895A5
:1008500084B5806284BDC8BDF7CF80918000806878
:1008600080938000D0938900C0938800EDCF809161
:100870008000806280938000D0938B00C0938A00B8
:10088000E3CF80918000886080938000D0938D00BA
:10089000C0938C00D9CF8091B00080688093B00065
:1008A000C093B300D1CF8091B00080628093B0003C
:1008B000C093B400C9CF809190008068809390006D
:1008C000D0939900C0939800BFCF80919000806230
:1008D00080939000D0939B00C0939A00B5CF8091F5
:1008E0009000886080939000D0939D00C0939C00FE
:1008F000ABCF8091A00080688093A0008091A00081
:100900008F7B8093A000D093A900C093A8009CCFB8
:100910008091A00080628093A000D093AB00C09330
:10092000AA0092CF8091A00088608093A000D0930D
:10093000AD00C093AC0088CF809120018068809387
:100940002001D0932901C09328017ECF80912001FE
:10095000806280932001D0932B01C0932A0174CF31
:1009600080912001886080932001D0932D01C09355
:100970002C016ACFC038D1050CF03ECF33CF3FB742
:10098000F89480912E0990912F09A0913009B0918F
:10099000310926B5A89B05C02F3F19F00196A11D6E
:1009A000B11D3FBFBA2FA92F982F8827BC01CD01B9
:1009B000620F711D811D911D42E0660F771F881F18
:1009C000991F4A95D1F708958F929F92AF92BF9247
:1009D000CF92DF92EF92FF926B017C010E94BF04E5
:1009E0004B015C01C114D104E104F104B9F00E948F
:1009F000BF04681979098A099B09683E734081051B
:100A0000910580F321E0C21AD108E108F10888EECF
:100A1000880E83E0981EA11CB11CE4CFFF90EF90DC
:100A2000DF90CF90BF90AF909F908F9008952FB799
:100A3000F89460912A0970912B0980912C0990916A
:100A40002D092FBF089508952091B808260F332748
:100A5000331F21323105ECF420910109FC0190E0B3
:100A600080E0243069F082E00895A091B8082191D7
:100A7000AC014856574FA40FB52FB11D2C930196CA
:100A8000861798F38091B808680F6093B80880E0E3
:100A9000089581E008951092010981E08093000992
:100AA0001092DB0861E084E10E94890361E085E146
:100AB0000E948903E9EBF0E080818E7F8083808152
:100AC0008D7F808388E48093B80085E48093BC00A8
:100AD0000895CF93DF9391E0909397088823B9F01E
:100AE000C091B800D091BA008091BC008A7B8093FD
:100AF000BC0060E084E10E94890360E085E10E941F
:100B000089030E944B05D093BA00C093B800DF91CF
:100B1000CF9108950895E091390980913809E81737
:100B200030F4F0E0E958F74F808190E008958FEFBE
:100B30009FEF089590913909809138092FEF3FEF89
:100B4000981748F4E92FF0E0E958F74F208130E09A
:100B50009F5F90933909C901089580913809909158
:100B60003909891B990B0895CF92DF92EF92FF927A
:100B70000F931F93CF93DF937C01CB018A012091C8
:100B80000709222389F0EB016B01C40ED51ECC1599
:100B9000DD0569F06991D701ED91FC910190F0813B
:100BA000E02DC7011995F3CF642F0E942405C801D9
:100BB000DF91CF911F910F91FF90EF90DF90CF9039
:100BC0000895CF93DF931F92CDB7DEB7698320914D
:100BD00007092223F9F020913609203258F021E04C
:100BE00030E0FC013383228390E080E00F90DF91BE
:100BF000CF91089580913709E82FF0E0E85FF64F34
:100C0000998190838F5F809337098093360981E0C3
:100C100090E0ECCF61E0CE0101960E942405F7CF71
:100C2000CF92DF92EF92FF920F931F93CF93DF93B8
:100C3000FC01C48121E020930709C0932809109288
:100C40003709109236098385682B81E29CE00E9467
:100C5000E105D0913609D13208F092C00E94BF045C
:100C60006B017C0180910109811165C082E0809354
:100C7000010981E0809300098FEF8093FF081092B3
:100C8000FE08D093FD08A8E0B9E0EDEDF8E080E0C3
:100C9000D81385C01092DC088091DC08CC0FC82BDB
:100CA000C093DC088091DB08813009F07CC0109291
:100CB000DB080E94BF046B017C018091DC088093FB
:100CC000BB008091030990910409A0910509B0919E
:100CD0000609892B8A2B8B2B99F00E94BF04009167
:100CE00003091091040920910509309106096C1936
:100CF0007D098E099F090617170728073907E0F1B4
:100D00008091BC0083FDD9CF85EC8093BC000E940C
:100D1000BF046B017C0180910109823009F445C058
:100D20008091FF088F3F61F18091FF08803241F18F
:100D30008091FF0825C08091030990910409A0913A
:100D40000509B0910609892B8A2B8B2B09F48ACFD0
:100D50000E94BF0400910309109104092091050924
:100D6000309106096C197D098E099F09061717072E
:100D70002807390708F076CF809102090E9469059B
:100D8000109237091092360910920709DF91CF911E
:100D90001F910F91FF90EF90DF90CF9008959D915C
:100DA00091938F5F75CF85EEB0CF809103099091BD
:100DB0000409A0910509B0910609892B8A2B8B2B78
:100DC00009F4A9CF0E94BF040091030910910409FE
:100DD00020910509309106096C197D098E099F093A
:100DE000061717072807390708F095CFC5CF90E0F9
:100DF00080E008958FB7F894809172088FBF0895AE
:100E000061E0FC0184810E94890380917108811155
:100E10001092710808958EBD00000DB407FEFDCF3D
:100E20008EB508958FEF0C940B070F931F93CF93FC
:100E3000DF93EC010E9417058B010E9412078F3F80
:100E400069F00E941705601B710B6C177D07A8F3F2
:100E500080E0DF91CF911F910F91089581E0F9CF4C
:100E60008CBD9DBD0895CF93DF93EC0180917108F7
:100E7000811109C081E08093710880912D0C9091BF
:100E80002E0C0E94300760E08C81DF91CF910C9492
:100E900089038F929F92AF92BF92FF920F931F93FD
:100EA000CF93DF93EC01F62E49015A018E818823FE
:100EB00089F08F8198859C012F5F3F4F38872F8362
:100EC0008230924018F40E941207F3CFCE010E94A4
:100ED00000071E82CE010E9433078CE291E00E943F
:100EE00015078F2D80640E940B0708E110E0D501E3
:100EF000C401002E04C0B695A795979587950A94CE
:100F0000D2F70E940B0708501109083F8FEF18070E
:100F100071F785E9FF2021F028E087E8F2128FEFD2
:100F20000E940B0710E00E9412078A8787FF04C007
:100F30001F3F11F01F5FF7CFDF91CF911F910F91EE
:100F4000FF90BF90AF909F908F900895AF92BF9207
:100F5000CF92DF92EF92FF920F931F93CF93DF9385
:100F6000EC016901C801820F931F8130924050F556
:100F70008E81882379F088819981AA81BB81841729
:100F80009507A607B70731F48F819885C816D9064B
:100F900008F042C0488359836A837B838B85833002
:100FA00039F089E0440F551F661F771F8A95D1F7E6
:100FB0009A01AB0161E1CE010E944907882389F0C3
:100FC00083E08D83CE010E94000780E0DF91CF9106
:100FD0001F910F91FF90EF90DF90CF90BF90AF9057
:100FE00008950E9417055B010E9412078A878F3FB0
:100FF00069F40E9417056A197B096D327140A0F3EC
:101000008FE08D83CE010E940007DCCF8E3F89F4F4
:1010100018861F8281E08E838F8198858C159D05AF
:1010200050F40E9412078F819885019698878F83CC
:10103000F3CF8DE0E6CF6701E00EF11E0E941207AC
:10104000F60181936F01EE15FF05C1F78F81988539
:10105000080F191F18870F838985882319F0011538
:101060001240A0F08E81882389F08F8198859C01A1
:101070002F5F3F4F38872F838230924018F40E94B1
:101080001207F3CFCE010E9400071E8281E09ECF9F
:10109000CF92DF92EF92FF920F93CF93DF93EC0109
:1010A000690182E1411551056105710599F08B8552
:1010B000833039F089E0440F551F661F771F8A95EA
:1010C000D1F79A01AB0168E1CE010E94490788235C
:1010D00019F084E08D832DC08EEF0E940B077601FE
:1010E0008EEFD81AF70181917F010E940B07EC1453
:1010F000FD04C1F78FEF0E940B078FEF0E940B07D3
:101100000E9412078A878F71853071F4011116C011
:10111000CE010E94000781E0DF91CF910F91FF90F7
:10112000EF90DF90CF90089581E18D83CE010E94F2
:101130000007CE010E94000780E0EECF88E592E034
:101140000E941507811102C085E1C4CF20E030E084
:10115000A9016DE0CE010E944907882311F084E1C6
:10116000B9CF0E9412078111FACFD2CF0F934091CD
:101170007308509174086091750870917608411554
:1011800051056105710599F0082F24E839E0809137
:101190008109909182090E944808882349F01092A1
:1011A000730810927408109275081092760881E006
:1011B0000F9108950F93CF93C82F809183098111C8
:1011C00005C0C1E08C2FCF910F910895409114027A
:1011D0005091150260911602709117020C2F24E8AD
:1011E00039E080918109909182090E94480881111B
:1011F00002C0C0E0E7CFCC2321F381E00E94B60813
:101200008823B9F310928309DDCF8F929F92AF921A
:10121000BF92EF92FF920F931F93CF934B015C010C
:10122000C42F8091140290911502A0911602B091E2
:10123000170288159905AA05BB0551F181E00E94A6
:10124000DA0881110BC080E0CF911F910F91FF90C0
:10125000EF90BF90AF909F908F90089584E8E82E14
:1012600089E0F82E00E012E030E020E0B501A401B2
:1012700080918109909182090E94A607882319F321
:101280008092140290921502A0921602B092170258
:10129000409183094C2B4093830981E0D5CF8F92F5
:1012A0009F92AF92BF92CF92DF92EF92FF92CF9335
:1012B0002FE23CE03093820920938109882309F4CE
:1012C0006DC040E060E070E0CB010E940509811133
:1012D0000BC080E0CF91FF90EF90DF90CF90BF9058
:1012E000AF909F908F9008958091420B8F7789F7F0
:1012F00080914E0B90914F0BA091500BB091510BE0
:1013000084369105A105B10520F3C0904A0BD09019
:101310004B0BE0904C0BF0904D0BC114D104E10449
:10132000F104B9F240E0C701B6010E940509882323
:1013300081F280918F09909190098115924049F630
:10134000A0919409AA2329F26091920970919309BE
:101350006115710509F4BDCF20919109222309F48B
:10136000B8CFA0934D0C20933F0C90E080E030E08C
:10137000E1E0F0E0C82FAF01082E02C0440F551F76
:101380000A94E2F72417350769F041E0480F019607
:101390008930910579F74093480C9BCFC12CD12C13
:1013A0007601C0CF8093480C20919A0930919B0917
:1013B00050E040E02115310541F42091A809309119
:1013C000A9094091AA095091AB092093400C309390
:1013D000410C4093420C5093430C46015701860E3A
:1013E000971EA11CB11C80924E0C90924F0CA092A3
:1013F000500CB092510CE0919509F0919609F09340
:10140000540CE093530CB0E00E94AC27DC01CB01FC
:10141000880D991DAA1DBB1D8093550C9093560CE9
:10142000A093570CB093580C25E0EE0FFF1F2A95A0
:10143000E1F7E150FE4FEF2FFF27E6958E0F9F1F3C
:10144000A11DB11D8093490C90934A0CA0934B0CA5
:10145000B0934C0C8090970990909809B12CA12CD6
:101460008114910441F48090A4099090A509A09062
:10147000A609B090A709C81AD90AEA0AFB0AC80C3B
:10148000D91CEA1CFB1C04C0F694E794D794C794BB
:10149000CA95D2F7C092440CD092450CE092460C0B
:1014A000F092470C85EFC8168FE0D806E104F104EE
:1014B00028F48CE08093520C81E00CCF80E125EF82
:1014C000C2162FEFD206E104F104A0F38091B00917
:1014D0009091B109A091B209B091B3098093550CD4
:1014E0009093560CA093570CB093580C80E2E2CF27
:1014F0004F925F926F927F928F929F92AF92BF9224
:10150000CF92DF92EF92FF920F931F93CF93DF93CF
:10151000EC01423051056105710590F480E0DF91E6
:10152000CF911F910F91FF90EF90DF90CF90BF90E0
:10153000AF909F908F907F906F905F904F900895A5
:1015400089859A85AB85BC850196A11DB11D84173F
:101550009507A607B70710F3CB88DC88ED88FE88CF
:101560008F89803109F042C0BB27A72F962F852F86
:10157000480159012A013B01C80ED91EEA1EFB1E73
:101580008091140290911502A0911602B091170259
:10159000C816D906EA06FB0699F58F898031C1F590
:1015A000B301A201552766277727440F551F4C57D3
:1015B000564FFA01918280828091830981608093E5
:1015C00083098A89823080F08D819E81AF81B885C0
:1015D0008C0D9D1DAE1DBF1D8093730890937408E4
:1015E000A0937508B093760881E099CFDB01CA011A
:1015F000E7E0B695A79597958795EA95D1F7B8CF87
:1016000040E0C701B6010E9405098111C6CF86CF0F
:10161000B301A2014F77552766277727440F551F3F
:10162000440F551F4C57564FFA0180829182A28277
:10163000B382C2CF8F929F92AF92BF92CF92DF922E
:10164000EF92FF920F931F93CF93DF93FC0181855D
:101650009285A385B4850196A11DB11D84179507B8
:10166000A607B70770F480E0DF91CF911F910F912B
:10167000FF90EF90DF90CF90BF90AF909F908F90B2
:10168000089583889488A588B6888789803189F5EC
:10169000BB27A72F962F852FE9016A017B018F01B8
:1016A000BC01CD01680D791D8A1D9B1D809014021F
:1016B00090901502A0901602B09017028616970619
:1016C000A806B90601F5F8018789803111F5DD24F6
:1016D000EE24FF24F601EE0FFF1FEC57F64F80813A
:1016E0009181B0E0A0E088839983AA83BB8381E0E5
:1016F000BBCFDB01CA01C7E0B695A7959795879543
:10170000CA95D1F7C9CF40E00E9405098111DBCF0E
:10171000AACFE894C7F8DD24EE24FF24F601EE0FEB
:10172000FF1FEE0FFF1FEC57F64F80819181A281C2
:10173000B381BF70D8CF4F925F926F927F92AF927A
:10174000BF92CF92DF92EF92FF920F931F93CF93AE
:10175000DF9300D01F92CDB7DEB78C0149835A8347
:101760006B837C835901C12CD12C7601412C82E002
:10177000582E612C712C49815A816B817C819E018C
:101780002F5F3F4FC8010E941A0B882339F1F801DF
:101790008585A301920104C0220F331F441F551FEA
:1017A0008A95D2F7DA01C901C80ED91EEA1EFB1EBE
:1017B00049815A816B817C818789803111F188EF61
:1017C0009FEFAFEFBFE0481759076A077B0798F212
:1017D000F501C082D182E282F38281E00F900F9006
:1017E0000F900F90DF91CF911F910F91FF90EF908D
:1017F000DF90CF90BF90AF907F906F905F904F90B1
:10180000089588EF9FEFA0E0B0E0DDCFCF93DF93A6
:10181000FC012581222321F080E0DF91CF91089502
:10182000EC018091520C803159F582E08583178A52
:10183000108E118E128E8091530C9091540CB0E04A
:10184000A0E025E0880F991FAA1FBB1F2A95D1F79A
:10185000838B948BA58BB68B8BE39CE09C8F8B8FBB
:1018600081E08C831E821F82188619861A861B8649
:101870001C861D861E861F86188A198A1A8ACDCF55
:10188000803251F683E085834091550C5091560C7F
:101890006091570C7091580C478B508F618F728FED
:1018A0009F012D5E3F4F8BE39CE00E949B0B8111BB
:1018B000D3CFB2CF8F929F92AF92BF92CF92DF924F
:1018C000EF92FF920F931F93CF93DF93EC018D81E3
:1018D00081110EC080E0DF91CF911F910F91FF9099
:1018E000EF90DF90CF90BF90AF909F908F90089532
:1018F0000B891C892D893E89041715072607370790
:1019000048F34A015B01823031F48A869B86AC86BB
:10191000BD8681E0E0CF81149104A104B10449F4B3
:101920001E821F82188619861A861B861C861D86B3
:10193000F0CF0A851B852C853D85EB8DFC8D85853B
:1019400090E00996B901A801415051096109710956
:10195000082E04C076956795579547950A94D2F757
:1019600075016401E1E0CE1AD108E108F10804C074
:10197000F694E794D794C7948A95D2F7C416D506FF
:10198000E606F70620F0012B022B032B11F58F89B9
:10199000988DA98DBA8D8E839F83A887B9878E0174
:1019A0000A5F1F4FC114D104E104F10409F4ADCF63
:1019B0004E815F816885798598018B8D9C8D0E9411
:1019C0001A0B91E0C91AD108E108F1088111EACF98
:1019D00081CFC41AD50AE60AF70AE1CF3F924F92A7
:1019E0005F926F927F928F929F92AF92BF92CF92AF
:1019F000DF92EF92FF920F931F93CF93DF93CDB7B8
:101A0000DEB72C970FB6F894DEBF0FBECDBF5C01DA
:101A1000DC015B968D909C905C9716964D905D9046
:101A20006D907C901997411451046104710409F47C
:101A300068C0BFEF4B1A5B0A6B0A7B0A312CF401BA
:101A400081859285A385B4859C01AD012F5F3F4FB1
:101A50004F4F5F4F29873A874B875C87730162013D
:101A60001D821E821F821886F40181859285A385BE
:101A7000B4852D813E814F815885281739074A0743
:101A80005B0708F056C089859A85AB85BC858C15A7
:101A90009D05AE05BF0550F482E0C82ED12CE12C87
:101AA000F12C92E0492E512C612C712C9E012F5F5C
:101AB0003F4FB701A601C4010E941A0B8823C9F148
:101AC00089819A81AB81BC81892B8A2B8B2B09F16F
:101AD000260137019FEF491A590A690A790A2D81AF
:101AE0003E814F8158852F5F3F4F4F4F5F4F2D8372
:101AF0003E834F8358873FEFC31AD30AE30AF30AA2
:101B0000B3CFF401408051806280738033243394DA
:101B100096CFC414D504E604F70409F70FEF1FEFBE
:101B20002FEF3FE0B701A601C4010E94780A81119E
:101B300019C080E02C960FB6F894DEBF0FBECDBF63
:101B4000DF91CF911F910F91FF90EF90DF90CF9099
:101B5000BF90AF909F908F907F906F905F904F90CD
:101B60003F900895D50116964D915D916D917C91B0
:101B70001997411551056105710539F097018601E5
:101B8000C4010E94780A8823A1F2D5011696CD924D
:101B9000DD92ED92FC921997332051F0D701C601E6
:101BA0000196A11DB11DF40180839183A283B383AB
:101BB000F5018789908DA18DB28D892B8A2B8B2B76
:101BC00039F48481C78AD08EE18EF28E8068848356
:101BD000F50184818062848381E0ACCF1F93CF9331
:101BE000DF93FC0125812223D1F1162FEC018481A2
:101BF00087FF2AC0668577858089918941E00E94A8
:101C00000509882361F1EA8980E2E89FF001112447
:101C1000EC57F64F309719F18D81823040F48B8963
:101C20009C89AD89BE89848F958FA68FB78F8F8948
:101C3000988D938F828F8F89988DA98DBA8DB58B52
:101C4000A48B8C818F778C83111103C08C818F7E44
:101C50008C83812FDF91CF911F910C94DA0880E063
:101C6000DF91CF911F910895FF920F931F93CF9310
:101C7000DF93EC018D81813041F090E080E0DF91D5
:101C8000CF911F910F91FF9008958C8181FFF5CF27
:101C900082FD1BC00091810910918209C8010E9438
:101CA00033070E941207F82EC8010E9400078FEF29
:101CB000F812E3CF8C8185FF1BC060E0CE010E944B
:101CC000EE0D8C818F7D8C83D8CF4B895C896D899B
:101CD0007E898A859B85AC85BD8584179507A60777
:101CE000B707C1F2CE010E945A0C8111D3CFC5CFE4
:101CF000409173085091740860917508709176084E
:101D0000452B462B472B21F080E00E94B608B5CF2B
:101D100080618C832A853B85317080E092E0821B54
:101D2000930BADCFCF93DF93EC0161E00E94EE0DFA
:101D3000882311F01D8281E0DF91CF9108952F92C9
:101D40003F924F925F926F927F928F929F92AF924B
:101D5000BF92CF92DF92EF92FF920F931F93CF9398
:101D6000DF9300D01F921F92CDB7DEB77C015B01DD
:101D7000342E5D83DC0115968C911597813009F026
:101D8000CEC014962C9021FECAC022FCB4C0C32C35
:101D9000DD8022947FE027222094B22DB1702B2E7B
:101DA000D7011A964D915D916D917C911D97C1144B
:101DB000D10409F428C15B968D919C915C97FC013C
:101DC00074807A948A019B0169E03695279517956E
:101DD00007956A95D1F770228A011170711020C0A1
:101DE00001151105E9F416964D915D916D917C9167
:101DF0001997411551056105710509F099C057966C
:101E00008D919D910D90BC91A02D0097A105B105DC
:101E100009F0B0C0C7010E94EE0C882309F47FC00E
:101E200080E092E0801B910B46018C159D0508F423
:101E30004C01D7015B964D915C915C9716968D9104
:101E40009D910D90BC91A02D0297A109B109FA01B5
:101E5000258504C0880F991FAA1FBB1F2A95D2F79A
:101E60004685578560897189840F951FA61FB71F06
:101E70009C01AD01270D311D411D511D29013A0164
:101E8000811432E0930609F07BC080911402909196
:101E90001502A0911602B091170284159505A605AA
:101EA000B70559F48FEF9FEFDC01809314029093F4
:101EB0001502A0931602B0931702022D9501B301EB
:101EC000A20180918109909182090E94480888238B
:101ED00031F19EEFB91AC818D908F70182859385A8
:101EE000A485B585880D991DA11DB11D8287938795
:101EF000A487B58755CFF7014389548965897689C9
:101F000082859385A485B585481759076A077B079D
:101F100009F43DCFC7010E945A0C811138CF81E0EE
:101F200090E0D70113969C938E93129780E007C0A0
:101F30009E012F5F3F4F0E941A0B811102C090E05B
:101F400079C089819A81AB81BC81F701238D348D61
:101F5000F901278948EF5FEF60E070E0203121F060
:101F600048EF5FEF6FEF7FE084179507A607B7078D
:101F700008F050CFF70186839783A087B18750CFB1
:101F80000115110599F5D7011A964D915D916D9145
:101F90007C911D9753968D919D910D90BC91A02D94
:101FA000481759076A077B0708F181E00E94DA08A1
:101FB000882309F4B4CF4092140250921502609223
:101FC00016027092170280918309816080938309C1
:101FD000C8018C57964FD5019C01280D391DFC0175
:101FE0002E173F0759F04D914193FACF41E0C301BD
:101FF000B2010E9405098111EBCF91CF281B390B4B
:10200000A20EB31E68CFF70183899489A589B6898A
:1020100084179507A607B70738F48481438B548B40
:10202000658B768B80688483F701848183FD1AC079
:10203000832D9D810F900F900F900F900F90DF9147
:10204000CF911F910F91FF90EF90DF90CF90BF90B5
:10205000AF909F908F907F906F905F904F903F9048
:102060002F90089561E0C7010E94EE0D882309F4C6
:1020700056CFDECFCF93DF931F92CDB7DEB7698304
:1020800041E050E0BE016F5F7F4F0E949F0E0F90B6
:10209000DF91CF910895FC01DB0112968D919C9107
:1020A00013979383828381EC92E0918380831496CB
:1020B0008C911497848315968C9115978583169629
:1020C0004D915D916D917C911997468357836087FF
:1020D00071871A964D915D916D917C911D97428704
:1020E0005387648775871E964D915D916D917C91A4
:1020F000519746875787608B718B52968C91529778
:10210000828B53964D915D916D917C915697438B47
:10211000548B658B768B57964D915D916D917C912B
:102120005A97478B508F618F728F5B968D919C91E0
:10213000948F838F0895FC01818D928D009719F003
:1021400061E00C94EE0D0895DC015996ED91FC913F
:102150003097B9F083899489A589B68942855385DA
:1021600064857585841B950BA60BB70B811520E83C
:102170009207A105B10538F08FEF9FE7A0E0B0E02E
:10218000089590E080E00895DC0159968D919C912E
:10219000009739F0DC01ED91FC910480F581E02D90
:1021A000199490E080E00895CF93DF93EC01E98DDE
:1021B000FA8D309749F481E090E09B838A8390E028
:1021C00080E0DF91CF91089513821282898D9A8DDC
:1021D0000E949F0EE98DFA8D22813381232B59F7BE
:1021E000F0CFCF93DF931F92CDB7DEB76983DC01C9
:1021F000ED91FC910280F381E02D41E050E0BE01C1
:102200006F5F7F4F19950F90DF91CF9108952F92B7
:102210003F924F925F926F927F928F929F92AF9276
:10222000BF92CF92DF92EF92FF920F931F93CF93C3
:10223000DF9300D0CDB7DEB7FC018581811118C0D6
:102240008FEF9FEF0F900F900F90DF91CF911F9125
:102250000F91FF90EF90DF90CF90BF90AF909F9045
:102260008F907F906F905F904F903F902F90089548
:10227000848180FFE5CF4389548965897689828589
:102280009385A485B585312C212C481759076A07F9
:102290007B0719F022242394312C6F012101CE01F8
:1022A00001963C01DF011696BB83AA8341145104B9
:1022B00009F4C5C0F60142855385648575854A01D8
:1022C000F1E09F22D6015B968D919C915C978A01EB
:1022D0009B01E9E03695279517950795EA95D1F783
:1022E0001596EC91E230E9F5FC01628D738D848DD9
:1022F000958D600F711F821F931FA12C22E0B22EBB
:10230000A818B9084A145B0408F45201F6012481A4
:1023100026FD04C0A114F2E0BF0671F4009114027E
:102320001091150220911602309117020617170717
:102330002807390709F05EC040E00E94050988239C
:1023400009F47ECFC4018C57964FD3019C012A0D0E
:102350003B1DFC012E173F0709F46CC041914D93C2
:10236000F9CFDC011496BC90BA94B0228114910488
:1023700079F4B1100DC0452B462B472B69F5F601BA
:102380008789908DA18DB28D86839783A087B18731
:10239000D6015B96ED91FC915C9716966D917D91BF
:1023A0008D919C9119976250710981099109258538
:1023B00004C0660F771F881F991F2A95D2F70685DC
:1023C000178520893189600F711F821F931F6B0D44
:1023D000711D811D911D91CFD60116964D915D9174
:1023E0006D917C9119972A813B810E941A0B811172
:1023F000CFCF26CF730185019401AB01BC01809141
:102400008109909182090E94A607882309F418CFB8
:102410006A0C7B1CF60182859385A485B5858A0D9F
:102420009B1DA11DB11D82879387A487B5874A187C
:102430005B083CCF281B390B620E731EEBCF2A942E
:10244000232809F0FDCE898190E0FCCEFC01818D2E
:10245000928D009711F00C9407118FEF9FEF089564
:102460000F931F93CF93DF93EC01898D9A8D10E02A
:1024700000E0009799F00E9407118C010F3F1007B0
:1024800069F0898D9A8DFC01428553856485758537
:1024900041505109610971090E945A0CC801DF912C
:1024A000CF911F910F910895CF93DF93C1E6D2E0B2
:1024B0008881229660E00E94890382E0C137D807B4
:1024C000B9F7C1E7D2E08881229670E060E00E940F
:1024D000E80382E0C538D807B1F760E08FE1DF910B
:1024E000CF910C9489038AE10E946003892B49F003
:1024F0006CE271E080E090E00E94E40490E080E013
:10250000089588E10E946003892B49F06CE271E034
:1025100080E090E00E94E40481E090E0089586E18C
:102520000E946003892B49F06CE271E080E090E04A
:102530000E94E40482E090E008958CE10E94600330
:10254000892B49F06CE271E080E090E00E94E404A5
:1025500083E090E0089508950F931F93CF93DF9346
:10256000EC0180E2689FF0011124EC57F64F6A8B72
:102570008091140290911502A0911602B091170259
:102580008E879F87A88BB98B0489158930E020E05E
:102590009801112700270F8B188F298F3A8F828D72
:1025A000938DB0E0A0E0AC01BD01402B512B622B1C
:1025B000732B4F8B588F698F7A8F83858871A9F41D
:1025C000848D958DA68DB78D8B8B9C8BAD8BBE8BA3
:1025D00081E08D8381E08C831E821F82188619869C
:1025E0001A861B861C861D8603C0803131F080E070
:1025F000DF91CF911F910F9108959E012D5E3F4F66
:102600008B8D9C8D0E949B0B882389F384E0E1CF06
:102610000F931F93CF938C01C62F0E9410066C2F2F
:102620006460C8010E9410066C2F6B7FC8010E9475
:10263000100683EC90E00197F1F7CF911F910F9175
:1026400008950F931F93CF93DF938C01D62FC42F40
:10265000607F642B0E94081380E1D89FB001112491
:102660006C2BC801DF91CF911F910F910C9408132F
:10267000CF93DF9300D000D01F921F92CDB7DEB76B
:1026800098E0E2E2F2E0DE01119601900D929A9557
:10269000E1F790919B0C961710F46FEF690F262FBE
:1026A00030E0220F331F41E050E04C0F5D1F240F3C
:1026B000351FF9016081680F606840E083E99CE0A4
:1026C00028960FB6F894DEBF0FBECDBFDF91CF9135
:1026D0000C94211340E061E083E99CE00E94211307
:1026E0008BE39FE10197F1F7089541E00E942113E8
:1026F00081E090E00895AF92BF92CF92DF92EF9287
:10270000FF920F931F93CF93DF9300D000D000D0A0
:102710001F921F92CDB7DEB76C01FE013196CE013C
:102720000C967F0120E22193E817F907E1F7DA011F
:1027300020E037E09D91B92E9923A9F19E32B9F49A
:102740003A3091F480E02B960FB6F894DEBF0FBEBE
:10275000CDBFDF91CF911F910F91FF90EF90DF9050
:10276000CF90BF90AF90089528E03AE0E3CFE4E047
:10277000F3E08491882321F031969813FACFE2CFC9
:10278000321700F38FED890F8E35E0F68FE9890F50
:102790008A3118F440EEB42EB90EF701E20FF11DA4
:1027A000B0822F5FC7CF8981803261F28B01FB013C
:1027B000838D948DF601948F838FFB01168217828F
:1027C000108611861286138614861586F801828576
:1027D0009385A485B585438954896589768984174D
:1027E0009507A607B70708F0ADCF25E0B695A795E2
:1027F000979587952A95D1F7F82FFF70AF2EF8019E
:102800008581823008F49ECFC8010E94071197FD90
:1028100099CFF80182859385A485B5854F96A11D32
:10282000B11D82879387A487B587F0E2AF9EB00180
:1028300011246C57764F6115710509F483CFFB01A4
:102840008081882309F1853E19F4B11032C01EC081
:102850004BE050E0C7010E94052A892B09F0B6CF52
:102860006A2DC6012B960FB6F894DEBF0FBECDBF02
:10287000DF91CF911F910F91FF90EF90DF90CF905C
:10288000BF90AF900C94AC12B1105CCFF601A28A4D
:102890008091140290911502A0911602B091170236
:1028A00086879787A08BB18BFB018081882309F4F1
:1028B00049CFBB24B3948ACFEF92FF920F931F931B
:1028C000CF93DF93EC017B018A0188819981009786
:1028D00029F02A813B812417350788F4B8016F5FFE
:1028E0007F4F0E942429009791F0998388831B834E
:1028F0000A832C813D81232B11F4FC0110821D835E
:102900000C83B701888199810E94262A0CC0888196
:102910009981009711F00E949B28198218821D82CC
:102920001C821B821A82CE01DF91CF911F910F91E1
:10293000FF90EF900895FB0101900020E9F7319797
:10294000AF01461B570BDC01ED91FC910280F38136
:10295000E02D19948F929F92AF92BF92EF92FF92C7
:102960000F931F93CF93DF93CDB7DEB7A1970FB629
:10297000F894DEBF0FBECDBF7C01FA01CB0119A2D6
:10298000223008F42AE08E010F5D1F4F822E912C19
:10299000B12CA12CBF01A50194010E94BF27F90110
:1029A000CA016A300CF5605DD8016E938D01232B4E
:1029B000242B252B79F790E080E0109721F0BD01C2
:1029C000C7010E949B14A1960FB6F894DEBF0FBEFC
:1029D000CDBFDF91CF911F910F91FF90EF90BF90EE
:1029E000AF909F908F900895695CDECFCF93DF9377
:1029F000AB01BC012AE084E89BE00E94AA14EC0130
:102A000067EE72E084E89BE00E949B148C0F9D1F90
:102A1000DF91CF910895CF92DF92EF92FF920F93C3
:102A20001F93CF93DF93EC016A017B01E881F98169
:102A30000190F081E02D6DE219958C014427552716
:102A4000BA014C195D096E097F092AE0CE010E9486
:102A5000AA14800F911FDF91CF911F910F91FF90CA
:102A6000EF90DF90CF900895AB01770F660B770B57
:102A700077FD0C940B152AE00C94AA14CF93DF93E6
:102A8000BC0184E89BE00E943415EC0167EE72E023
:102A900084E89BE00E949B148C0F9D1FDF91CF91D7
:102AA0000895CF93DF93BC0184E89BE00E949B14C0
:102AB000EC0167EE72E084E89BE00E949B148C0FAF
:102AC0009D1FDF91CF9108950C949B14809165090F
:102AD00063E0882349F080E00E9438136AEE72E0D8
:102AE00083E99CE00C94641580E00E94381362EF47
:102AF00072E0F6CF4F925F926F927F928F929F9289
:102B0000AF92BF92CF92DF92EF92FF920E94661532
:102B10000E9417054B015C0161E084E20E94890379
:102B20000E941705681979098A099B09683E734054
:102B30008105910528F486E20E946003019781F3E4
:102B40000E9417056B017C010E9417052B013C01B7
:102B5000481859086A087B0860E084E20E948903EB
:102B600088EE481683E058066104710400F162E0C3
:102B700080E00E9438136AEF72E083E99CE00E94D3
:102B8000641562E080E00E9438136FE073E083E92F
:102B90009CE0FF90EF90DF90CF90BF90AF909F9020
:102BA0008F907F906F905F904F900C946415C81831
:102BB000D908EA08FB0862E080E00E9438136BE164
:102BC00073E083E99CE00E94641562E089E00E9462
:102BD0003813F7FE09C0B701A60183E99CE00E9403
:102BE0000B1562EC73E0D3CF2AE0B701A60183E9AD
:102BF0009CE00E94AA14F5CF0E946A1360E373E080
:102C000083E99CE00E94641580915B0960E0882361
:102C100049F081E10E9438136BE373E083E99CE0A3
:102C20000C94641582E10E9438136FE373E0F6CFD1
:102C3000CF93DF93EC01662341F00E946A1362E4B4
:102C400073E083E99CE00E94641561E080E00E94EB
:102C50003813BE0183E99CE00E943415C83ED3407E
:102C600044F46DE073E083E99CE0DF91CF910C9434
:102C70006415DF91CF910895CF93DF93EC010E940B
:102C80006A1365E573E083E99CE00E94641561E0E6
:102C900080E00E943813BE0183E99CE0DF91CF9170
:102CA0000C943415CF93DF93EC010E946A1368E90A
:102CB00073E083E99CE00E946415209751F460E082
:102CC00083E10E94381364E673E083E99CE00E948C
:102CD000641561E080E00E9438136DED73E083E9D4
:102CE0009CE00E946415C130D10551F461E083E19C
:102CF0000E94381364E673E083E99CE00E94641547
:102D000062E080E00E9438136AEE73E083E99CE0A1
:102D10000E946415C230D10551F462E083E10E9443
:102D2000381364E673E083E99CE00E94641563E075
:102D300080E00E9438136EE074E083E99CE00E941A
:102D40006415239761F463E083E10E94381364E61D
:102D500073E083E99CE0DF91CF910C946415DF91DF
:102D6000CF910895CF93DF93EC010E946A1366E63A
:102D700073E083E99CE00E946415209751F460E0C1
:102D800083E10E94381364E673E083E99CE00E94CB
:102D9000641580917E0990917F09892B09F046C0C6
:102DA00061E080E00E94381362E773E083E99CE011
:102DB0000E946415C130D10551F461E083E10E94A5
:102DC000381364E673E083E99CE00E94641562E0D6
:102DD00080E00E94381362E473E083E99CE00E9483
:102DE0006415C230D10551F462E083E10E943813CA
:102DF00064E673E083E99CE00E94641563E080E090
:102E00000E94381361E873E083E99CE00E94641536
:102E1000239761F463E083E10E94381364E673E072
:102E200083E99CE0DF91CF910C946415DF91CF9101
:102E3000089580917E0990917F098130910509F470
:102E400080C01CF4892B49F008958230910509F463
:102E50007DC0039709F48EC008950E946A136BE841
:102E600073E083E99CE00E94641561E080E00E94C9
:102E7000381360EA73E083E99CE00E946415809156
:102E80005109909152090A9734F46DE073E083E997
:102E90009CE00E946415609151097091520983E988
:102EA0009CE00E94341562E080E00E94381363EBDE
:102EB00073E083E99CE00E94641580911002909178
:102EC0001102A0911202B0911302883E9340A10515
:102ED000B10530F46DE073E083E99CE00E94641575
:102EE00040911002509111026091120270911302F0
:102EF0002AE083E99CE00E94AA1461EC73E083E974
:102F00009CE00E94641563E080E00E94381365EC49
:102F100073E083E99CE00E94641580915B0963E0A3
:102F2000882349F081E10E9438136BE373E083E961
:102F30009CE00C94641582E10E94381364ED73E008
:102F4000F6CF0E946A1367ED73E0F1CF0E946A1317
:102F500064EE73E083E99CE00E94641561E080E028
:102F60000E94381369EF73E083E99CE00E946415C6
:102F70000C9466150E946A1368E074E0EBCF85ED4F
:102F80008093BC008091030990910409A0910509E8
:102F9000B09106090796A11DB11D23E0B695A7952E
:102FA000979587952A95D1F72091BC0024FD03C001
:102FB000109201090895409103095091040960910C
:102FC000050970910609452B462B472B69F300979D
:102FD000A105B10541F025E32A95F1F7000001971D
:102FE000A109B109E1CF809102090C946905EF9222
:102FF000FF920F931F93CF93DF93EC017B018A0124
:103000001B821A8288EE93E0A0E0B0E08C839D835F
:10301000AE83BF838DEC92E0998388838DE190E04D
:103020000E94FF279A8F898F009779F02DE1F70191
:10303000DC0101900D922A95E1F74CE050E0B801D7
:10304000CE010C960E942D2A188EDF91CF911F91F0
:103050000F91FF90EF9008952F923F924F925F92C1
:103060006F927F928F929F92AF92BF92CF92DF9298
:10307000EF92FF920F931F93CF93DF93CDB7DEB7FD
:10308000CF57D1090FB6F894DEBF0FBECDBF8C016C
:103090007E0183E7E80EF11C87E0ECE4F4E0D70161
:1030A00001900D928A95E1F7EC961FAE1EAEEC975B
:1030B000EE961FAE1EAEEE97C258DF4F19821882F1
:1030C000CE57D04050E040E069EE72E0CE01865825
:1030D0009F4F0E945C141F8E1E8E19A218A21BA265
:1030E0001AA24AE0FE0131966F01BF01C8010E9499
:1030F0005027F60101900020E9F73197AF014C19F4
:103100005D094E01FEE18F0E911CB601C4010E94C3
:103110005C14EC968EAD9FADEC97009709F46DC0F2
:103120006E8D7F8D6115710509F465C0EE964EAD0B
:103130005FADEE972AA13BA14217530708F45BC08D
:103140000E94262A8AA19BA1C258DF4F99838883B7
:10315000CE57D0401BA21AA28E8D9F8D009711F0E2
:103160000E949B28C258DF4F88819981CE57D0405A
:103170000A3011050CF05AC0892B31F0EC96EEADF7
:10318000FFADEC97309721F410927008E0E7F8E07B
:103190008081F7018183C7010E94511519A218A2ED
:1031A00081EC92E09F8F8E8F1BA21C821B829A83E0
:1031B00089831E82C4010E94060C860114015701F6
:1031C0006FE270E0C5010E941B2A009709F491C0CC
:1031D000F50120812F3209F044C0FFEFAF1ABF0A7A
:1031E000902F812F8101292E382E922D832D1801A9
:1031F000092F182FE5CF0E949B288E8D9F8DEC966E
:103200009FAF8EAFEC9788A199A1EE969FAF8EAF3E
:10321000EE978AA19BA1C258DF4F99838883CE572E
:10322000D0401F8E1E8E19A218A294CF009731F0A5
:10323000EC96EEADFFADEC97309721F4109270084C
:10324000E0E7F8E02081F7012083029708F49CCFA3
:10325000EC96EEADFFADEC97309709F495CF319633
:1032600097CF8A198D3008F08CE0682E712CA3015D
:10327000B501CE01885A9F4F0E942D2AE8E5F0E063
:10328000EC0FFD1FE60DF71D1082C8010E94920E83
:10329000F80185818823F1F01EAE1DAE81EC92E02D
:1032A0009CAF8BAF21961FAE2197E40CF51CF70164
:1032B0008081811127C0BE01655C7F4FC6010E94DD
:1032C0004B104BE154E0B601CE01885A9F4F0E944B
:1032D000F7173FC0AE01485A5F4FB101C8010E94C5
:1032E0007B138823C9F2A60CB71CC1010E94920E61
:1032F0007CCF25014E185F08B101CE01CB960E940C
:103300004B10D3CF19A218A281EC92E09F8F8E8F21
:103310001BA221968FAD2197811187C06C961FAE9D
:103320001EAE6C9788EE93E0A0E0B0E0A0968CAF64
:103330009DAFAEAFBFAFA0978DEC92E06A969FAF06
:103340008EAF6A97E3961FAE1EAEE397A5961FAEAB
:10335000A5976C968EAD9FAD6C9790937B0C8093E8
:103360007A0CA0968CAD9DADAEADBFADA09780930D
:103370007C0C90937D0CA0937E0CB0937F0CA49654
:103380008CAD9DADAEADBFADA4978093800C9093F6
:10339000810CA093820CB093830CA8E5B0E0AC0F35
:1033A000BD1F1C96E4E8FCE08D9181938CE0E1392F
:1033B000F807D1F7E396EEADFFADE397F093920CEB
:1033C000E093910C309709F4EEC08581882309F4CD
:1033D000EAC010925D0910925C091F8E1E8E198240
:1033E0001A821B821C8210E000E0F12CE12C88E79D
:1033F0009CE00E94A410892B09F493C088E79CE00C
:103400000E9426128A3099F198012F5F3F4FF401F4
:10341000E114F10429F091E0E916F104D1F4F60188
:10342000E00FF11F80838901E2CFA701BE01655C37
:103430007F4FC4010E947B13882309F46FCFCE0114
:10344000CB960E94920EB401C6010E944B10A701B8
:103450003ACFE0915C09F0915D09EE0FFF1FE75C48
:10346000FD4F40815181040F151FF801DBCFB701DB
:1034700084E89BE00E9434156CE073E084E89BE0F4
:103480000E946415E114F10479F4C4010E9432270A
:1034900090935209809351090E943E158FEFE81ACC
:1034A000F80A30E020E0BFCF10E000E0F1E0EF16D6
:1034B000F10491F4C6010E943227BC01990F880BD8
:1034C000990B6093100270931102809312029093F3
:1034D00013020E94F614E2CFE0915C09F0915D09BD
:1034E000EE0FFF1FE75CFD4F0190F081E02DE00F34
:1034F000F11F608184E89BE00E945B020F5F1F4F19
:103500000632110549F78DE093E00E945115809134
:103510005C0990915D09019690935D0980935C0927
:10352000BDCF8091910C9091920C009761F00E9418
:10353000920E8091910C9091920C0E949B28109277
:10354000920C1092910C6DE174E084E89BE00E9473
:10355000641580915C0990915D090E943E150E945E
:103560001917EC968EAD9FADEC97009711F00E9465
:103570009B28C158DF4F0FB6F894DEBF0FBECDBFFA
:10358000DF91CF911F910F91FF90EF90DF90CF903F
:10359000BF90AF909F908F907F906F905F904F9073
:1035A0003F902F9008950E946A136AE374E083E9C4
:1035B0009CE00E94641568E873E180E090E00E945E
:1035C000E404CDCF1F920F920FB60F9211240BB6C9
:1035D0000F922F933F934F935F936F937F938F93AC
:1035E0009F93AF93BF93EF93FF9384E89BE00E9478
:1035F0003902FF91EF91BF91AF919F918F917F9190
:103600006F915F914F913F912F910F900BBE0F9053
:103610000FBE0F901F9018951F920F920FB60F922A
:1036200011240BB60F922F938F939F93EF93FF93D9
:10363000E091940BF091950B8081E0919A0BF091C1
:103640009B0B82FD1DC0908180919D0B8F5F8F73BE
:1036500020919E0B821741F0E0919D0BF0E0EC571A
:10366000F44F958F80939D0BFF91EF919F918F91D8
:103670002F910F900BBE0F900FBE0F901F901895BB
:103680008081F2CF1F920F920FB60F9211242F93C9
:103690003F938F939F93AF93BF9380912A0990910B
:1036A0002B09A0912C09B0912D093091290923E013
:1036B000230F2D3758F50196A11DB11D209329091F
:1036C00080932A0990932B09A0932C09B0932D097C
:1036D00080912E0990912F09A0913009B091310964
:1036E0000196A11DB11D80932E0990932F09A093DF
:1036F0003009B0933109BF91AF919F918F913F9164
:103700002F910F900FBE0F901F90189526E8230F52
:103710000296A11DB11DD2CF1F920F920FB60F922C
:1037200011240BB60F922F933F934F935F936F9398
:103730007F938F939F93AF93BF93EF93FF93E0910A
:103740000E02F0910F021995FF91EF91BF91AF9189
:103750009F918F917F916F915F914F913F912F91A9
:103760000F900BBE0F900FBE0F901F9018951F92D9
:103770000F920FB60F9211240BB60F922F933F9317
:103780004F935F936F937F938F939F93AF93BF9369
:10379000EF93FF93E0910C02F0910D021995FF91C8
:1037A000EF91BF91AF919F918F917F916F915F91B9
:1037B0004F913F912F910F900BBE0F900FBE0F9026
:1037C0001F9018951F920F920FB60F9211240BB6EF
:1037D0000F922F933F934F935F936F937F938F93AA
:1037E0009F93AF93BF93EF93FF93E0910202F09109
:1037F00003021995FF91EF91BF91AF919F918F9126
:103800007F916F915F914F913F912F910F900BBEE0
:103810000F900FBE0F901F9018951F920F920FB62A
:103820000F9211240BB60F922F933F934F935F93F8
:103830006F937F938F939F93AF93BF93EF93FF9378
:10384000E0910002F09101021995FF91EF91BF9173
:10385000AF919F918F917F916F915F914F913F9128
:103860002F910F900BBE0F900FBE0F901F901895C9
:103870001F920F920FB60F9211240BB60F922F9337
:103880003F934F935F936F937F938F939F93AF93E8
:10389000BF93EF93FF93E0910A02F0910B02199509
:1038A000FF91EF91BF91AF919F918F917F916F9118
:1038B0005F914F913F912F910F900BBE0F900FBED4
:1038C0000F901F9018951F920F920FB60F92112410
:1038D0000BB60F922F933F934F935F936F937F930A
:1038E0008F939F93AF93BF93EF93FF93E091080261
:1038F000F09109021995FF91EF91BF91AF919F91BE
:103900008F917F916F915F914F913F912F910F9088
:103910000BBE0F900FBE0F901F9018951F920F9225
:103920000FB60F9211240BB60F922F933F934F9324
:103930005F936F937F938F939F93AF93BF93EF9317
:10394000FF93E0910602F09107021995FF91EF9124
:10395000BF91AF919F918F917F916F915F914F91A7
:103960003F912F910F900BBE0F900FBE0F901F90A5
:1039700018951F920F920FB60F9211240BB60F924B
:103980002F933F934F935F936F937F938F939F9367
:10399000AF93BF93EF93FF93E0910402F091050280
:1039A0001995FF91EF91BF91AF919F918F917F9169
:1039B0006F915F914F913F912F910F900BBE0F90A0
:1039C0000FBE0F901F9018951F920F920FB60F9277
:1039D00011240BB60F922F933F934F935F936F93E6
:1039E0007F938F939F93AF93BF93EF93FF938091B8
:1039F000B900887F803609F44DC008F040C0883295
:103A000009F4A9C028F5803109F49DC0C8F48823C1
:103A100009F4FBC0883009F496C0FF91EF91BF9183
:103A2000AF919F918F917F916F915F914F913F9156
:103A30002F910F900BBE0F900FBE0F901F901895F7
:103A4000883109F488C0803241F78093FF0814C0A0
:103A5000803409F49DC040F48033B9F38833E9F62B
:103A60008093FF0885ECB0C0803509F485C08835A7
:103A700009F496C0883489F60E94BF17CECF8839E2
:103A800009F48CC038F5883729F050F4883611F0E5
:103A9000803719F683E0809301091092DA0857C045
:103AA000883809F47BC0803919F0803809F0B5CF27
:103AB0008091DA08803208F071C0E091DA0881E084
:103AC0008E0F8093DA088091BB00F0E0E654F74F48
:103AD00080833DC0803B39F0E0F4803A09F479C03E
:103AE000883A09F09ACF84E0809301091092B908CE
:103AF0001092B808E0913409F09135091995809138
:103B0000B80881110FC081E08093B808109298081E
:103B100009C0803C09F4A6CF883C09F4A3CF883BB8
:103B200009F07BCFE091B90881E08E0F8093B9084E
:103B3000F0E0E856F74F80818093BB009091B90880
:103B40008091B80829C08091DC088093BB0085EC87
:103B50008093BC0062CF9091FE088091FD08981779
:103B600058F5E091FE0881E08E0F8093FE08F0E0AA
:103B7000E352F74F8081E9CFE091FE0881E08E0F9C
:103B80008093FE088091BB00F0E0E352F74F808302
:103B90009091FE088091FD089817C8F285E8D8CF6B
:103BA000E091FE0881E08E0F8093FE088091BB00BB
:103BB000F0E0E352F74F80838091000981115CCFE0
:103BC00081E08093DB0884EA8093BC0010920109B5
:103BD00024CF85EC8093BC00109201098091DA0813
:103BE000803230F4E091DA08F0E0E654F74F1082CA
:103BF0006091DA0870E0E0913209F09133098AEBC4
:103C000098E019951092DA0808CF1092FF0834CF87
:103C1000E4E8FBE01382128288EE93E0A0E0B0E0DB
:103C200084839583A683B7832DE932E03183208393
:103C300025EC30E03587248724EC30E03787268771
:103C400020EC30E0318B208B21EC30E0338B228B69
:103C500022EC30E0358B248B26EC30E0378B268B42
:103C6000118E128E138E148EE1E2FCE0138212820A
:103C700084839583A683B7832FEA32E03183208340
:103C8000EDE2FCE020E520831182EFE2FCE015820A
:103C900016821186138642E050E060E070E04487AF
:103CA00055876687778713A215A614A621EC32E004
:103CB00033A722A717A6E3E9FCE0138212822FEDB7
:103CC00032E0318320832FE3248324E1218724E021
:103CD00022871386E8E7FCE01382128284839583AF
:103CE000A683B7838DEC92E091838083128E118E30
:103CF00014860895CF93DF9300D01F921F92CDB703
:103D0000DEB7789484B5826084BD84B5816084BD5B
:103D100085B5826085BD85B5816085BD80916E0069
:103D2000816080936E00109281008091810082609A
:103D300080938100809181008160809381008091D7
:103D400080008160809380008091B10084608093C6
:103D5000B1008091B00081608093B00080919100AB
:103D600082608093910080919100816080939100A6
:103D7000809190008160809390008091A10082608A
:103D80008093A1008091A10081608093A100809127
:103D9000A00081608093A0008091210182608093C7
:103DA0002101809121018160809321018091200176
:103DB00081608093200180917A00846080937A00F2
:103DC00080917A00826080937A0080917A0081608D
:103DD00080937A0080917A00806880937A001092B4
:103DE000C100E091940BF091950B82E08083E0910B
:103DF000900BF091910B1082E091920BF091930B4C
:103E00008FEC808310929C0BE091980BF091990BB2
:103E100086E08083E091960BF091970B8081806122
:103E20008083E091960BF091970B8081886080836E
:103E3000E091960BF091970B808180688083E091F0
:103E4000960BF091970B80818F7D808364EF71E0FA
:103E500080E090E00E94E404109239091092380941
:103E600010923709109236090E944B0582EC91E0BE
:103E7000909335098093340983EC91E09093330952
:103E8000809332091092980C80919D0C823018F02A
:103E900098E09093980C80939B0C62E370E080E034
:103EA00090E00E94E40460919E0C83E99CE00E94F3
:103EB000100668EE73E080E090E00E94E40460E3A6
:103EC00083E99CE00E9408130BE416E4C801019703
:103ED000F1F760E383E99CE00E940813C8010197B1
:103EE000F1F760E383E99CE00E94081383E592E028
:103EF0000197F1F760E283E99CE00E94081360916A
:103F0000980C606240E083E99CE00E94211384E009
:103F10008093990C40E06CE083E99CE00E942113BF
:103F20000E946A1382E080939A0C40E066E083E985
:103F30009CE00E94211340E062E083E99CE00E9443
:103F400021138BE39FE10197F1F788E080939E0CAA
:103F500060E083E99CE00E94100661E080E20E943C
:103F6000890361E082E20E94890360E08FE10E94A0
:103F7000890360E084E20E94890380915E0C8823BB
:103F800021F089E59CE00E94920E10923A0C10926A
:103F9000380C1092350C1092340C84E08093330C62
:103FA0000E9417058B0161E08091330C0E94B703DA
:103FB00061E08091330C0E948903FFB6F8948091F0
:103FC0003A09811127C0E3EFF2E08491EDEAF2E0D3
:103FD0009491E82FF0E0EE0FFF1FE25AFD4FA591FC
:103FE000B491EC91E92321F461E085E30E94890317
:103FF00061E085E30E94B7038CB580618CBD8CB510
:1040000080648CBD61E084E30E94B70361E083E3D8
:104010000E94B70380913A098F5F80933A09FFBEEF
:1040200082E580932D0C10922E0C80912D0C909196
:104030002E0C0E9430078AE0F82E8FEF0E940B07AB
:10404000FA94F110FACF8FE29CE00E94330720E04F
:1040500030E0A90160E08FE29CE00E944907F82E61
:104060008093390C21E0821719F10E941705601B1B
:10407000710B613D774058F381E08093340C8FE2FF
:104080009CE00E94000763E574E083E99CE00E94E5
:10409000641561E080E00E94381365E674E083E90E
:1040A0009CE00E94641588E794E00E945115FFCFC0
:1040B0002AEA31E040E050E068E08FE29CE00E94B4
:1040C000490782FF2AC0F0923A0C80913A0CC12C29
:1040D000D12CE12CA0E4FA2E823019F0C12CD12C85
:1040E000760120E030E0A90167E38FE29CE00E94C6
:1040F0004907A701960169E28FE29CE00E94490707
:104100008093390C8823D1F00E941705601B710B36
:10411000613D774030F388E0B0CFB4E0FB2E0E94E1
:1041200012078093390CFA94F110F9CF8A3A11F002
:1041300082E0A3CF82E080933A0CC7CF80913A0C03
:104140008230D1F420E030E0A9016AE38FE29CE004
:104150000E944907882311F086E08FCF0E94120742
:10416000807C803C19F483E080933A0C0E94120713
:104170000E9412070E9412078FE29CE00E94000733
:1041800080E580932D0C10922E0C81E00E944F0947
:10419000882339F189E59CE00E94060C882309F404
:1041A00072CF90E080E00E942C180E941917F5E869
:1041B000EF2EF2E0FF2E01E612E0E016F106C1F468
:1041C0000DE212E0E9E3EE2EE2E0FE2EE016F1064B
:1041D000B9F0F80180810E5F1F4F60E00E94B703C5
:1041E000F5CF80E00E944F09882309F44CCFD2CF4D
:1041F000F80180810E5F1F4F61E00E94B703DDCFA1
:1042000061E08FE10E94B7030E9454128EEB91E0AF
:1042100090930B0280930A0280916900806C8093D6
:104220006900EB9A78E8272E73E1372E412C512C48
:1042300060902A0270902B0280902C02CE0104968E
:104240009D838C83F0908009FF2009F443C0809106
:10425000530981110BC0809151099091520990939B
:10426000500980934F0981E0809353098091470959
:1042700081110BC080911002909111029093460918
:104280008093450981E0809347098EE10E94600395
:104290008C01892B09F4F7C080917E0990917F09E8
:1042A0008230910509F4E2C08330910509F4E2C03F
:1042B000892B71F482E894E00E9451158091640981
:1042C00091E0892780936409811102C00E945412F1
:1042D0001092800900917E0910917F090115110546
:1042E00009F035C480916409882309F4B2C00E94A2
:1042F0001705C0906009D0906109E0906209F090C4
:1043000063096C197D098E099F09C0901002D09035
:104310001102E0901202F09013026C157D058E05DB
:104320009F0508F496C069827A828B8261E6E62E48
:1043300062E0F62EE0915E09F0915F09EE0FFF1F3B
:10434000E75CFD4F0190F081E02DE00FF11F8081CF
:104350008B83CE0101960E943227D82E682F792FA9
:1043600084E89BE00E9434156DE073E084E89BE0F4
:104370000E946415F7018081F2E0EF0EF11C6D2DB3
:104380000E9489030F5F1F4F0830110599F689EECF
:1043900092E00E94511531E7C32E32E0D32E48E05F
:1043A000E42EF12C00915E0910915F09F801EE0FE7
:1043B000FF1FE75CFD4F0190F081E02DEE0DFF1D2A
:1043C000DE01119681918D938C819D818A179B07C7
:1043D000C9F7CE0101960E943227BC01F601808107
:1043E000F2E0CF0ED11C0E94E80323E0E20EF11CA4
:1043F00086E2E816F104B1F60F5F1F4F10935F09D4
:1044000000935E0980915C0990915D090817190776
:10441000B1F410925F0910925E0980915B098111DD
:104420000EC0109264096091100270911102809187
:104430001202909113020E94E4040E9454120E94FE
:1044400017056093600970936109809362099093E6
:10445000630984E89BE00E942302892B21F082E615
:1044600095E00E9451150E94C802ECCE81E0809335
:1044700065092ECF8091650991E0892780936509B0
:104480000E94661525CF809143099091440981309F
:10449000910571F18230910509F4F2C0892B09F080
:1044A00017CFE1E0F0E0F0934409E093430986E69A
:1044B00093E00E9451151092420910924109109206
:1044C000400910923F0980915109909152099093AF
:1044D000500980934F09809110029091110290939E
:1044E00046098093450990E080E00E94B216F0CE24
:1044F0000E9473128130910509F448C0B4F4892BED
:1045000009F0E6CE109244091092430967E974E07D
:1045100084E89BE00E94641580917E0990917F0958
:104520000E943E150E941917D3CE8230910509F4DE
:104530004AC0039709F0CCCE82E090E09093440902
:1045400080934309809141099091420981309105FE
:1045500009F477C00CF055C0892B09F0B9CE009151
:104560007E0910917F090115110509F053C082EEF3
:1045700094E00E9451151092400910923F098091D9
:104580003F09909140090E945216A2CE80914109A4
:1045900090914209181619063CF420917E09309139
:1045A0007F090197232BE9F08091410990914209FD
:1045B0000097E1F482EB94E00E945115809141094B
:1045C0009091420992CF80914109909142098330A4
:1045D000910554F720917E0930917F09232B21F713
:1045E00001969093420980934109DECF8130910575
:1045F00019F48EEB94E0E0CF029701F78DEC94E094
:10460000DBCF8230910551F1039709F061CE0E9412
:10461000FC155ECE8FEE94E00130110559F08BEF62
:1046200094E00230110531F00330110509F0A7CFF5
:104630008FE095E00E9451151093400900933F09C7
:104640009ECF80915109909152090E943E15809110
:104650004F09909150090E943C163ACE6091100289
:104660007091110280911202909113020E94F6142F
:1046700061E080914509909146090E94181628CE64
:104680000E94731281309105E1F114F5892B09F034
:104690001FCEE1E0F0E0F0934409E09343098091FC
:1046A000410990914209892B21F482EB94E00E9408
:1046B000511580917E0990917F09892B09F07ECF59
:1046C0008091410990914209019709F097CF91CFCC
:1046D0008230910509F4FFC0039709F0F9CD80916C
:1046E0004109909142098130910509F4FAC10CF019
:1046F000B6C1892B09F4BDC1109244091092430937
:10470000E7CD80914109909142098130910509F4EA
:104710004DC004F5892B09F0DBCD80913F099091C4
:104720004009181619062CF40197909340098093BC
:104730003F0900913F09109140090130110581F1B5
:10474000BCF4012B21F180913F09909140090E9416
:104750003E1515CF82309105D1F1039709F0B8CD00
:1047600080915B09811153CF81E080935B094FCF2A
:1047700002301105C1F08FE095E00330110519F703
:104780000E9451151093400900933F09DCCF82EE3F
:1047900094E00E9451151092400910923F09D3CF26
:1047A0008FEE94E0EDCF8BEF94E0EACF80914F094C
:1047B00090915009833691052CF4019690935009FD
:1047C00080934F0980914F09909150093ECF0E94EC
:1047D000170560933B0970933C0980933D099093C2
:1047E0003E09E12C88E10E946003892B09F462C034
:1047F000A0903B09B0903C09C0903D09D0903E0983
:1048000005311105CCF40E9417056A197B098C0942
:104810009D09643671058105910520F38091450954
:10482000909146098F30F7E29F07ECF40196909340
:1048300046098093450917C0053F21E0120744F55A
:104840000E9417056A197B098C099D096A30710558
:104850008105910538F280914509909146098F3084
:10486000E7E29E071CF30E94170560933B097093D3
:104870003C0980933D0990933E0960E08091450991
:10488000909146090E9418160F5F1F4FEF2CAACF78
:104890000E9417056A157B058C059D0509F4A2CFBA
:1048A00080914509909146098F30F7E29F07DCF629
:1048B0000A96BDCFE1100CCD809145099091460933
:1048C0008F3027E292072CF401969093460980934B
:1048D000450960E0CECE8091410990914209813036
:1048E0009105E9F1FCF4892B09F0F2CC80913F09A4
:1048F00090914009833091052CF4019690934009E2
:1049000080933F0980913F09909140098130910542
:1049100001F1B4F4892B09F032CE82EE94E00E94CA
:1049200051152DCE8230910521F1039709F0D0CC9D
:1049300080915B09882309F46ACE10925B0967CEE7
:104940008230910549F0039709F019CE8FE095E088
:10495000E6CF8FEE94E0E3CF8BEF94E0E0CF809151
:104960004F0990915009181619060CF02BCF01979A
:1049700025CF0E94170560933B0970933C098093F3
:104980003D0990933E09E12C86E10E946003892B4A
:1049900009F459C0A0903B09B0903C09C0903D0972
:1049A000D0903E090531110564F50E9417056A197A
:1049B0007B098C099D09643671058105910520F3F9
:1049C0008091450990914609181619062CF4019713
:1049D00090934609809345090E94170560933B090F
:1049E00070933C0980933D0990933E0960E080916B
:1049F0004509909146090E9418160F5F1F4FEF2C32
:104A0000C3CF053F81E018076CF40E9417056A19AF
:104A10007B098C099D096A3071058105910508F4AF
:104A2000B3CFCECF0E9417056A157B058C059D0577
:104A300009F4AACF809145099091460918161906E4
:104A40005CF60A97C5CFE11043CC8091450990915F
:104A50004609181619060CF03CCF019736CF823064
:104A6000910509F453C0039709F046CE0E94191727
:104A700043CE80913F099091400990937F098093A4
:104A80007E0966E275E084E89BE00E9464158091EF
:104A90007E0990917F090E943E150E94191780910E
:104AA0007E0990917F09009759F40E945412109248
:104AB000640980915109909152090E942C181CCED2
:104AC0008130910539F40E94541261E08FE10E9417
:104AD000890312CE0297029708F00ECE0E9454125C
:104AE0000BCE80914F099091500990935209809379
:104AF000510961E475E084E89BE00E9464158091AF
:104B00005109909152090E943E15B0CF80914509FC
:104B100090914609092E000CAA0BBB0B8093100242
:104B200090931102A0931202B093130262E575E014
:104B300084E89BE00E94641560911002709111025C
:104B400080911202909113020E94F6148FCF0130CF
:104B5000110509F068C00E941705643671058105CA
:104B6000910508F476CC85E8C82E82E0D82E91E72E
:104B7000A92E92E0B92EF12CE12CF6018081F2E011
:104B8000CF0ED11C863308F0865320917B00982FDE
:104B90009870277F922B90937B008770806480931E
:104BA0007C0080917A00806480937A0080917A0002
:104BB00086FDFCCF80917800A0917900BA2FA82FB4
:104BC0002CED30E00E94F8272FEF33E040E050E07A
:104BD0000E948D2789019A010D5D1F4F2F4F3F4F76
:104BE0000A321105ECF0033F110514F002EF10E05A
:104BF000F5018081F2E0AF0EB11CB8010E94E8031C
:104C000028E0E216F10419F4C8010E943E158FEF66
:104C1000E81AF80A9AE0E916F10409F0AECF19CCC7
:104C200010E000E0E5CF0230110561F480916509E4
:104C3000882309F40ECC0E947A15109265090E940F
:104C4000661507CC0330110509F003CC8091760975
:104C5000811111C00E94DA26A20191010E948D27C4
:104C60006093720970937309809374099093750926
:104C700081E08093760980916A0981110DC00E94BC
:104C8000170560936609709367098093680990938C
:104C9000690981E080936A0980916509882309F494
:104CA000D8CB0E94170500916609109167092091E1
:104CB000680930916909AB01BC01401B510B620BC3
:104CC000730B8091720990917309A0917409B0914E
:104CD000750988579C4EAF4FBF4F84179507A6079D
:104CE000B70708F0B6CB0E947A150E94DA26A20117
:104CF00091010E948D2760937209709373098093CC
:104D00007409909375090E94170560936609709362
:104D1000670980936809909369099BCB8F929F9252
:104D2000AF92BF92CF92DF92EF92FF92CF93DF9339
:104D3000EC01688179818A819B816115710581050A
:104D4000910521F464E279ED8BE597E02DE133EFF5
:104D500041E050E00E948D2749015A019B01AC01BE
:104D6000A7EAB1E40E94AC276B017C01ACEEB4EF82
:104D7000A50194010E94BA27C60ED71EE81EF91E8F
:104D8000F7FE06C081E0C81AD108E10880E8F80AF9
:104D9000C882D982EA82FB82C701B6019F77DF9180
:104DA000CF91FF90EF90DF90CF90BF90AF909F900A
:104DB0008F9008958F929F92AF92BF92CF92DF9281
:104DC000EF92FF92609118027091190280911A027D
:104DD00090911B02611571058105910521F464E232
:104DE00079ED8BE597E02DE133EF41E050E00E9453
:104DF0008D2749015A019B01AC01A7EAB1E40E9449
:104E0000AC276B017C01ACEEB4EFA50194010E94CC
:104E1000BA27C60ED71EE81EF91EF7FE06C081E0AF
:104E2000C81AD108E10880E8F80AC0921802D092A6
:104E30001902E0921A02F0921B02C701B6019F7795
:104E4000FF90EF90DF90CF90BF90AF909F908F90AA
:104E50000895609318027093190280931A02909338
:104E60001B020895FC0188279927E894219120329C
:104E7000E9F3293010F02E30C8F32B3241F02D32F7
:104E800039F4689404C00E945B27820F911D219120
:104E900020532A30C0F31EF4909581959F4F0895BA
:104EA000BB274A3031F4992322F4BDE290958195D5
:104EB0009F4F0C9464277AE0979F902D879F802DB9
:104EC000910D11240895BB27FB015527AA27880FB0
:104ED000991FAA1FA41710F0A41B83955051B9F76E
:104EE000A05DAA3308F0A95DA193009779F7B111ED
:104EF000B1931192CB010C947D27DC01FC01672F4B
:104F000071917723E1F7329704C07C916D937083A0
:104F10006291AE17BF07C8F30895052E97FB1EF4E4
:104F200000940E94A42757FD07D00E94BF2707FCCA
:104F300003D04EF40C94A4275095409530952195BC
:104F40003F4F4F4F5F4F08959095809570956195B5
:104F50007F4F8F4F9F4F08950E94E127A59F900D8F
:104F6000B49F900DA49F800D911D11240895B7FF4B
:104F70000C94AC270E94AC27821B930B0895A1E2EE
:104F80001A2EAA1BBB1BFD010DC0AA1FBB1FEE1FC3
:104F9000FF1FA217B307E407F50720F0A21BB30B0E
:104FA000E40BF50B661F771F881F991F1A9469F78A
:104FB00060957095809590959B01AC01BD01CF01E6
:104FC0000895A29FB001B39FC001A39F700D811DE2
:104FD0001124911DB29F700D811D1124911D089502
:104FE000EE0FFF1F881F8BBF0790F691E02D1994DD
:104FF0000E94E127B7FF0895821B930B08950F933A
:105000001F93CF93DF938230910510F482E090E0FC
:10501000E091A10CF091A20C30E020E0B0E0A0E023
:10502000309799F42115310509F44AC0281B390B32
:1050300024303105D8F58A819B816115710589F18C
:10504000FB0193838283FE0111C040815181028163
:10505000138148175907E0F04817590799F410973A
:1050600061F012960C93129713961C933296CF010F
:10507000DF91CF911F910F9108950093A10C109390
:10508000A20CF4CF2115310551F04217530738F027
:10509000A901DB019A01BD01DF01F801C1CFEF01D8
:1050A000F9CF9093A20C8093A10CCDCFFE01E20F1B
:1050B000F31F819391932250310939832883D7CFED
:1050C00020919F0C3091A00C232B41F420911E02C3
:1050D00030911F023093A00C20939F0C20911C0252
:1050E00030911D022115310541F42DB73EB7409195
:1050F000200250912102241B350BE0919F0CF0916E
:10510000A00CE217F307A0F42E1B3F0B281739075A
:1051100078F0AC014E5F5F4F2417350748F04E0F13
:105120005F1F5093A00C40939F0C819391939FCF4E
:10513000F0E0E0E09CCFCF93DF930097E9F0FC0133
:10514000329713821282A091A10CB091A20CED01B2
:1051500030E020E01097A1F420813181820F931F6D
:1051600020919F0C3091A00C2817390709F061C0DD
:10517000F093A00CE0939F0CDF91CF910895EA018A
:10518000CE17DF07E8F54A815B819E014115510585
:10519000B1F7E901FB83EA8349915991C40FD51F07
:1051A000EC17FD0761F4808191810296840F951FB1
:1051B000E90199838883828193819B838A83F0E0CC
:1051C000E0E012968D919C9113970097B9F52D917F
:1051D0003C911197CD010296820F931F20919F0C55
:1051E0003091A00C2817390739F6309751F51092F5
:1051F000A20C1092A10CB093A00CA0939F0CBCCF5A
:10520000D383C28340815181840F951FC817D9076A
:1052100061F44E5F5F4F88819981480F591F518318
:1052200040838A819B81938382832115310509F014
:10523000B0CFF093A20CE093A10C9ECFFD01DC0156
:10524000C0CF13821282D7CF4F925F926F927F921C
:105250008F929F92AF92BF92CF92DF92EF92FF9286
:105260000F931F93CF93DF938C01009799F4CB0199
:10527000DF91CF911F910F91FF90EF90DF90CF9032
:10528000BF90AF909F908F907F906F905F904F9066
:105290000C94FF27FC01E60FF71F9C0122503109F7
:1052A000E217F30708F4AEC0D901CD91DC91119754
:1052B000C617D70720F1C530D10578F0CE01049785
:1052C0008617970750F0C61BD70B2297C193D1932F
:1052D0006D937C93CF010E949B28C801DF91CF91F1
:1052E0001F910F91FF90EF90DF90CF90BF90AF9004
:1052F0009F908F907F906F905F904F9008955B018B
:10530000AC1ABD0A4C018C0E9D1EA091A10CB0914F
:10531000A20C512C412CF12CE12C109731F58091ED
:105320009F0C9091A00C8815990509F05CC0461659
:10533000570608F058C080911C0290911D020097FA
:1053400041F48DB79EB74091200250912102841BF9
:10535000950BE817F90708F055C0F093A00CE093FF
:105360009F0CF90171836083B8CF8D919C91119747
:1053700012966C90129713967C901397A815B90506
:1053800059F56C0142E0C40ED11CCA14DB0420F1B3
:10539000AC014A195B09DA011296159780F0628216
:1053A000738251834083D9016D937C93E114F1049E
:1053B00071F0D7011396FC93EE9312978ECF22963D
:1053C0008C0F9D1FF90191838083F301EFCFF09340
:1053D000A20CE093A10C81CF4816590608F42C01C9
:1053E0007D01D3019ACFCB010E94FF277C0100975A
:1053F00049F0AE01B8010E94122AC8010E949B2800
:1054000087016BCF10E000E068CFFB01DC0104C036
:105410008D910190801921F441505040C8F7881BAC
:10542000990B0895FB01DC0102C001900D924150DF
:105430005040D8F70895FC018191861721F0882308
:10544000D9F7992708953197CF010895FB01DC0121
:1054500001900D920020E1F70895FB01DC0141501D
:10546000504048F001900D920020C9F701C01D92F4
:1054700041505040E0F70895F894FFCF23052305ED
:10548000230523052305230523052305E803000041
:10549000FFFFFFFF010000000000A30C80000000E0
:1054A0004000140054003030301A00180016001C60
:1054B000001E0026004A082408FE07D807B2078C01
:1054C00007660740071A07F406CE06A80682065CA0
:1054D0000636061006EA05C4059E0578051700196C
:1054E000001B001D002100230025002700020003EF
:1054F00000050006000700080009000B000C000D65
:10550000003E003F0040004100420043004400458F
:10551000003A003B00000000005B02C501F201A858
:105520000223020102150200000000E105B405F7A4
:10553000068A05AD059A058B05000000003A10C5E6
:1055400001340EC40100000000F110D410C4109BFF
:1055500010A41026123012000000007513C501F7C8
:1055600006C4010D0A0052554E4E494E47005041A7
:10557000555345442000202020202020202020209A
:1055800020202020202020202020004E4F20524587
:1055900053504F4E5345004C6174656E63793A2009
:1055A0002020202020202020202020004C6F6F7001
:1055B000204D6F64653A00594553004E4F004564D5
:1055C00069742050726F6772616D205370656564F5
:1055D0000043686F6F73652050726F6772616D0072
:1055E0002A004368616E6765204D6F6465004368FB
:1055F000616E67652050726F6772616D004C6F6FEE
:1056000070204D6F6465004D6F64653A2020202046
:105610002020202050524F4752414D0050726F675A
:1056200072616D20233A2020202020202020004974
:105630006E74657276616C3A2020202000206D73B4
:10564000004C6F6F70204D6F64653A202020200061
:105650004E6F004D6F64653A204D414E55414C00F0
:105660004D6F64653A204C4154454E4359204D419D
:105670004E55414C004144414D2036303530204498
:105680004F2030004D6F64653A204C4154454E43E5
:1056900059204155544F002F004E756D62657220A0
:1056A0006F6620737465707320696E2070726F6707
:1056B00072616D3A200050726F6772616D204E6F9B
:1056C0007420466F756E640030302E747874005309
:1056D0004420496E697469616C697A6174696F6E9E
:1056E000004661696C65642E2054727920526562AF
:1056F0006F6F74005344206661696C656400537475
:10570000617274202F2053746F702050726F677213
:10571000616D004261636B20746F2072756E6E69FB
:105720006E672055492C204D6F64653A2000434830
:10573000414E4745204D4F4445004348414E474563
:105740002050524F4752414D004348414E4745205B
:1057500050524F4752414D205350454544005072DE
:105760006F6772616D204D6F6465004D616E75618C
:105770006C204D6F6465004C6174656E6379204DDB
:105780006F6465204D616E75616C004C6174656E6F
:105790006379204D6F6465204175746F6D61746924
:1057A00063004261636B20746F2072756E6E696E68
:1057B000672055492C206D6F64653A200050726F48
:1057C0006772616D206E756D6265723A200050726D
:1057D0006F6772616D2073706565643A2000736550
:1057E0007269616C206461746120617661696C61C9
:0457F000626C650082
:020000040003F7
:10E000000D9489F10D94B2F10D94B2F10D94B2F129
:10E010000D94B2F10D94B2F10D94B2F10D94B2F1F0
:10E020000D94B2F10D94B2F10D94B2F10D94B2F1E0
:10E030000D94B2F10D94B2F10D94B2F10D94B2F1D0
:10E040000D94B2F10D94B2F10D94B2F10D94B2F1C0
:10E050000D94B2F10D94B2F10D94B2F10D94B2F1B0
:10E060000D94B2F10D94B2F10D94B2F10D94B2F1A0
:10E070000D94B2F10D94B2F10D94B2F10D94B2F190
:10E080000D94B2F10D94B2F10D94B2F10D94B2F180
:10E090000D94B2F10D94B2F10D94B2F10D94B2F170
:10E0A0000D94B2F10D94B2F10D94B2F10D94B2F160
:10E0B0000D94B2F10D94B2F10D94B2F10D94B2F150
:10E0C0000D94B2F10D94B2F10D94B2F10D94B2F140
:10E0D0000D94B2F10D94B2F10D94B2F10D94B2F130
:10E0E0000D94B2F141546D656761323536300041AF
:10E0F000726475696E6F206578706C6F72657220DE
:10E1000073746B3530305632206279204D4C530099
:10E11000426F6F746C6F616465723E004875683F52
:10E1200000436F6D70696C6564206F6E203D200048
:10E130004350552054797065202020203D20005FF9
:10E140005F4156525F415243485F5F3D2000415658
:10E1500052204C696243205665723D20004743437C
:10E160002056657273696F6E203D20004350552024
:10E1700049442020202020203D20004C6F7720663D
:10E18000757365202020203D20004869676820665F
:10E190007573652020203D200045787420667573D6
:10E1A00065202020203D20004C6F636B2066757336
:10E1B000652020203D20004D617220203720323024
:10E1C000313300312E362E3800342E332E350056A2
:10E1D00023202020414444522020206F7020636F70
:10E1E00064652020202020696E73747275637469E1
:10E1F0006F6E2061646472202020496E74657272B3
:10E20000757074006E6F20766563746F7200726A49
:10E210006D702020006A6D70200057686174207056
:10E220006F72743A00506F7274206E6F7420737541
:10E2300070706F72746564004D7573742062652030
:10E2400061206C6574746572002000577269747483
:10E25000696E672045450052656164696E672045B7
:10E26000450045452065727220636E743D00504F35
:10E27000525400303D5A65726F2061646472003FF1
:10E280003D43505520737461747300403D454550C3
:10E29000524F4D207465737400423D426C696E6B41
:10E2A000204C454400453D44756D70204545505215
:10E2B0004F4D00463D44756D7020464C415348001B
:10E2C000483D48656C70004C3D4C69737420492F83
:10E2D0004F20506F72747300513D51756974005234
