:020000040000FA
:100000000C9471020C9451410C9426410C94FB40C9
:100010000C94D0400C94A5400C947A400C944F4022
:100020000C9424400C94A2020C94A2020C94A20200
:100030000C94A2020C94A2020C94A2020C94A202B0
:100040000C94A2020C94A2020C94A2020C94A202A0
:100050000C94A2020C94A2020C94A2020C94DA3F1B
:100060000C94A2020C94A43F0C947A3F0C94A2022C
:100070000C94A2020C94A2020C94A2020C94A20270
:100080000C94A2020C94A2020C94A2020C94A20260
:100090000C94A2020C94A2020C94A2020C947C4137
:1000A0000C94A2020C94A2020C94A2020C94A20240
:1000B0000C94A2020C94A2020C94A2020C94A20230
:1000C0000C94A2020C94A2020C94A2020C94A20220
:1000D0000C94A2020C94A2020C94A2020C94A20210
:1000E0000C94A2020C945D4E0C9494050C94AE05F5
:1000F0000C94DB050C94C4070C943F270C946E04FD
:100100000C947B040C94A0420C947D160C94B805BE
:100110000C949B070C9469050C941E070C949C0589
:100120000C94A4030C949B040C94E1060C946F2390
:100130000C948C160C94C2050C94CF200C94C91E00
:100140000C94A2150C9479160C94F1260C948A0543
:100150000C94DB020C94E0020C94901E0C94F802B8
:100160000C9430260C941A070C9476050C94560ABD
:100170000C9485040C946E1E0C94421E0C948716ED
:100180000C94F9050C9489160C94CD2A0C948D04CA
:100190000C94E5050C94A5040C9466040C943B03A4
:1001A0000C9480050C94A4050C944E150C946A04D0
:1001B0000C94A0040C9415150C9403060C9498153B
:1001C0000C94DE200C94C0060C9489040C944A0311
:1001D0000C9460040C94EC210C94F1030C946C03CB
:1001E0000C94BB270C9416260C94D1050C94CD25A9
:1001F0000C94CB2B0C94271E0C94F5240C94DF024A
:100200000C94E5020C9497040C94A1040C947204D1
:100210000C941E150C94E6270C9475040C949416FB
:100220000C948A230C94EC250C94BD070C94F107D4
:100230000C94A8140C94A2120C940E030C946B153D
:100240000C9403180C94402B0C9493040C940F27DB
:100250000C94FA220C947F040C942E070C945E03E9
:100260000C9411280C9471050C94B8180C94D606B3
:100270000C94AA060C949E240C946C060C94AA0769
:100280000C9416070C943E150C940F230C94E40266
:100290000C94EF054E414E494E495459494E46CDB6
:1002A000CCCC3D0AD7233C17B7D13877CC2B32952D
:1002B00095E6241FB14F0A000020410000C842000B
:1002C000401C4620BCBE4CCA1B0E5AAEC59D7427AE
:1002D000206E616D653D2770726F6772616D5F6C36
:1002E0006F6164273E3C2F666F726D3E003C2F6C41
:1002F0006162656C3E3C696E70757420636C6173FD
:10030000733D2768696464656E2720747970653D64
:100310002774657874272076616C75653D27003CED
:100320002F6C6162656C3E3C6C6162656C3E003CAA
:10033000666F726D3E3C696E70757420747970657D
:100340003D277375626D6974272076616C75653D14
:10035000274C6F6164273E3C696E70757420747918
:1003600070653D27627574746F6E272076616C75B9
:10037000653D2744656C65746527206F6E636C6905
:10038000636B3D2764656C6574655F70726F67723F
:10039000616D28746869732E706172656E744E6F3A
:1003A00064652927273E3C6C6162656C3E007C3C9D
:1003B0003E5E2B3D3F2F5B5D3B2C2A225C00000004
:1003C0002100240027002A002D0030003300010105
:1003D0000000040107010A0100002000230026009C
:1003E00029002C002F00320000010000030106014B
:1003F000090100000A0B02090C0D0E080703040195
:1004000000000000000000000000000000000000EC
:1004100000000000000000000000000000001211B9
:1004200010000000000000000000000000000000BC
:100430000000000000000000010210202008081049
:100440002040102040800201020108040201010244
:10045000040810204080804020100804020180041D
:100460000201804020100804020108040201010278
:100470000408102040800102040810204080000081
:100480002200250028002B002E003100340002013C
:100490000000050108010B01050505050705080811
:1004A0000808020202020A0A0808040404040101FE
:1004B0000101010101010303030303030303040713
:1004C00007070C0C0C0C0C0C0C0C020202020606AA
:1004D0000606060606060B0B0B0B0B0B0B0BA042BE
:1004E0005D4E11241FBECFEFD1E2DEBFCDBF00E0D5
:1004F0000CBF1DE0A0E0B2E0E6EDFCEA00E00BBFBF
:1005000002C007900D92A836B107D9F725E1A8E6F9
:10051000BDE001C01D92A335B207E1F712E0C0E7CC
:10052000D2E000E006C021970109802FFE010E9461
:10053000E753CF36D10780E00807A9F70E94A74309
:100540000C9459560C940000CF93DF93FC018281E8
:10055000938190931D1580931C1584819581A681AC
:10056000B78180931E1590931F15A0932015B0930B
:10057000211580859185A285B3858093221590935E
:100580002315A0932415B0932515DF011C96CF01E8
:100590004996C6E2D5E12D912993A817B907D9F755
:1005A000818D928D90933415809333158AE195E176
:1005B000DF91CF910895FC01818D928D089508956A
:1005C00081E080937E11089508950895FC012481AF
:1005D00035816217730720F480819181009729F497
:1005E0001092221182E291E10895860F971F0895DB
:1005F0000895DC01ED91FC910190F081E02D1994BA
:10060000DB0114964D915C9115976D917C91DC0105
:10061000ED91FC910280F381E02D1994AF92BF928D
:10062000CF92DF92EF92FF920F931F93CF93DF93BE
:100630006C017B018B01040F151FEB015E01AE18ED
:10064000BF08C017D10759F06991D601ED91FC910F
:100650000190F081E02DC6011995892B79F7C5012C
:10066000DF91CF911F910F91FF90EF90DF90CF908E
:10067000BF90AF900895FC01538D448D252F30E03D
:10068000842F90E0821B930B541710F0CF9608959F
:1006900001970895FC01918D828D981761F0A28DCC
:1006A000AE0FBF2FB11D5D968C91928D9F5F9F7392
:1006B000928F90E008958FEF9FEF0895FC01918D48
:1006C000828D981731F0828DE80FF11D858D90E0B5
:1006D00008958FEF9FEF0895FC01918D228D892F52
:1006E00090E0805C9F4F821B91098F73992708953A
:1006F0008FEC93E10E946C0321E0892B09F420E048
:10070000822F0895FC01A48DA80FB92FB11DA35A03
:10071000BF4F2C91848D90E001968F739927848F21
:10072000A689B7892C93A089B1898C918370806444
:100730008C93938D848D981306C00288F389E02DE5
:1007400080818F7D80830895EF92FF920F931F9396
:10075000CF93DF93EC0181E0888F9B8D8C8D981374
:100760001AC0E889F989808185FF15C09FB7F89480
:10077000EE89FF896083E889F989808183708064CC
:1007800080839FBF81E090E0DF91CF911F910F9117
:10079000FF90EF900895F62E0B8D10E00F5F1F4F26
:1007A0000F731127E02E8C8D8E110CC00FB607FC35
:1007B000FACFE889F989808185FFF5CFCE010E94C3
:1007C0008203F1CFEB8DEC0FFD2FF11DE35AFF4FAC
:1007D000F0829FB7F8940B8FEA89FB898081806251
:1007E000CFCFCF93DF93EC01888D8823B9F0AA890E
:1007F000BB89E889F9898C9185FD03C0808186FDDC
:100800000DC00FB607FCF7CF8C9185FFF2CF80812A
:1008100085FFEDCFCE010E948203E9CFDF91CF911A
:10082000089580E090E0892B29F00E9478038111DF
:100830000E94000080E090E0892B49F080E090E089
:10084000892B29F00E94000081110E94000080E0A5
:1008500090E0892B49F080E090E0892B29F00E94FC
:10086000000081110E94000080E090E0892B49F097
:1008700080E090E0892B29F00E94000081110C9407
:10088000000008958150823108F05AC0E82FF0E04E
:100890008827E25BFB4F8F4F0C94E7536E04720482
:1008A000600466046A04A00475047B047F04850464
:1008B00089048D0493049704A0049B04A104A50457
:1008C000809180008F7780938000089580918000D0
:1008D0008F7DF9CF80918000877FF5CF84B58F77AA
:1008E00084BD089584B58F7DFBCF8091B0008F7754
:1008F0008093B00008958091B0008F7DF9CF8091F2
:1009000090008F77809390000895809190008F7D64
:10091000F9CF80919000877FF5CF8091A0008F77ED
:100920008093A00008958091A0008F7DF9CF8091E1
:10093000A000877FF5CF809120018F7780932001E1
:100940000895809120018F7DF9CF80912001877FCC
:10095000F5CFCF93DF93282F30E0F901EE50FC4F15
:100960008491F901E85CFB4FD491F901E856FB4F03
:10097000C491CC23A1F081110E944204EC2FF0E03D
:10098000EE0FFF1FE852FC4FA591B491EC91ED23BF
:1009900081E090E009F480E0DF91CF91089580E05C
:1009A00090E0FACF1F93CF93DF93282F30E0F90127
:1009B000EE50FC4F8491F901E85CFB4FD491F901B2
:1009C000E856FB4FC491CC23A9F0162F81110E9449
:1009D0004204EC2FF0E0EE0FFF1FE258FB4FA59111
:1009E000B4918FB7F894EC91111108C0D095DE2323
:1009F000DC938FBFDF91CF911F910895DE2BF8CF4D
:100A0000CF93DF9390E0FC01E85CFB4F2491885684
:100A10009B4FFC0184918823D1F090E0880F991FAF
:100A2000FC01E254FC4FA591B491FC01E258FB4F4C
:100A3000C591D49161110EC09FB7F8948C91E22FAB
:100A4000E0958E238C932881E223E8839FBFDF917A
:100A5000CF9108958FB7F894EC91E22BEC938FBF70
:100A6000F6CF1F93CF93DF93182FEB0161E00E9425
:100A70000005209739F460E0812FDF91CF911F911D
:100A80000C94D204CF3FD10511F461E0F5CFE12FF2
:100A9000F0E0EE50FC4FE491E150E23108F0B3C0D9
:100AA000F0E08827E95AFA4F8F4F0C94E753690515
:100AB0007105760580058A05030694059C05A40545
:100AC000AE05B805C205D105DB050306E505EF0552
:100AD000F90584B5806884BDC7BDDF91CF911F91B2
:100AE000089584B5806284BDC8BDF7CF8091800031
:100AF000806880938000D0938900C0938800EDCFF8
:100B000080918000806280938000D0938B00C0939E
:100B10008A00E3CF80918000886080938000D0932A
:100B20008D00C0938C00D9CF8091B00080688093F5
:100B3000B000C093B300D1CF8091B00080628093A9
:100B4000B000C093B400C9CF8091900080688093BA
:100B50009000D0939900C0939800BFCF80919000EF
:100B6000806280939000D0939B00C0939A00B5CF91
:100B700080919000886080939000D0939D00C093F6
:100B80009C00ABCF8091A00080688093A0008091F2
:100B9000A0008F7B8093A000D093A900C093A800F1
:100BA0009CCF8091A00080628093A000D093AB0086
:100BB000C093AA0092CF8091A00088608093A0008B
:100BC000D093AD00C093AC0088CF809120018068A5
:100BD00080932001D0932901C09328017ECF80917A
:100BE0002001806280932001D0932B01C0932A01C1
:100BF00074CF80912001886080932001D0932D01D3
:100C0000C0932C016ACFC038D1050CF03ECF33CF52
:100C10003FB7F89480911E1190911F11A09120115F
:100C2000B091211126B5A89B05C02F3F19F0019660
:100C3000A11DB11D3FBFBA2FA92F982F8827BC0136
:100C4000CD01620F711D811D911D42E0660F771F5E
:100C5000881F991F4A95D1F708958F929F92AF925E
:100C6000BF92CF92DF92EF92FF926B017C010E94C4
:100C700008064B015C01C114D104E104F104B9F090
:100C80000E940806681979098A099B09683E734021
:100C90008105910580F321E0C21AD108E108F1082D
:100CA00088EE880E83E0981EA11CB11CE4CFFF9053
:100CB000EF90DF90CF90BF90AF909F908F9008956E
:100CC0002FB7F89460911A1170911B1180911C112B
:100CD00090911D112FBF08950895FC0120812EBD14
:100CE0009B012150310941F051810DB407FEFDCF28
:100CF0004EB55EBD4193F5CF61507109860F971FC8
:100D00000DB407FEFDCF2EB5FC0120830895E091C0
:100D1000CA11F091CB1180819091C911892B8083E8
:100D20000895E091CA11F091CB1190818091C91181
:100D3000809589238083089590E02091CC112333FE
:100D400039F40C96982F990F990F990F80E0089518
:100D50004896F8CFCF93DF931F92CDB7DEB7698364
:100D6000DC01ED91FC910280F381E02D41E050E047
:100D7000BE016F5F7F4F19950F90DF91CF9108955E
:100D8000CF93DF931F92CDB7DEB76983DC01ED917E
:100D9000FC910280F381E02D41E050E0BE016F5FE5
:100DA0007F4F19950F90DF91CF910895FC019485A5
:100DB000FB018485981303C081E0983008F080E03F
:100DC0000895CF93DF931F92CDB7DEB76983DC011F
:100DD000ED91FC910280F381E02D41E050E0BE01F5
:100DE0006F5F7F4F19950F90DF91CF910895EF922C
:100DF000FF920F931F93CF93DF938C017B01D0E081
:100E0000C0E0F701EC0FFD1F6491662339F0C801C3
:100E10000E94E106892B11F02196F3CFCE01DF91DC
:100E2000CF911F910F91FF90EF900895FC01848561
:100E300095850895FC0184899589089524EF33E010
:100E4000FC0131832083FB014089518962897389C8
:100E5000FC0142835383648375830895DC01ED9123
:100E6000FC91048CF58DE02D19942091A810260F8B
:100E70003327331F21323105ECF42091F110FC01AE
:100E800090E080E0243069F082E00895A091A810FD
:100E90002191AC0148575F4EA40FB52FB11D2C9383
:100EA0000196861798F38091A810680F6093A81098
:100EB00080E0089581E008951092F11081E0809320
:100EC000F0101092CB1061E084E10E94D20461E046
:100ED00085E10E94D204E9EBF0E080818E7F80837F
:100EE00080818D7F808388E48093B80085E480933F
:100EF000BC000895CF93DF9391E0909387108823EF
:100F0000B9F0C091B800D091BA008091BC008A7B42
:100F10008093BC0060E084E10E94D20460E085E13F
:100F20000E94D2040E945C07D093BA00C093B8001C
:100F3000DF91CF910895E0912A1180912911E8174E
:100F400030F4F0E0E959FF4E808190E008958FEF92
:100F50009FEF089590912A11809129112FEF3FEF73
:100F6000981748F4E92FF0E0E959FF4E208130E06E
:100F70009F5F90932A11C901089580912911909142
:100F80002A11891B990B0895CF92DF92EF92FF925D
:100F90000F931F93CF93DF937C01CB018A012091A4
:100FA000F710222389F0EB016B01C40ED51ECC157E
:100FB000DD0569F06991D701ED91FC910190F08117
:100FC000E02DC7011995F3CF642F0E943507C801A2
:100FD000DF91CF911F910F91FF90EF90DF90CF9015
:100FE0000895CF93DF931F92CDB7DEB76983209129
:100FF000F7102223F9F020912711203258F021E038
:1010000030E0FC013383228390E080E00F90DF9199
:10101000CF91089580912811E82FF0E0E850FF4E1D
:10102000998190838F5F809328118093271181E0AD
:1010300090E0ECCF61E0CE0101960E943507F7CF3A
:10104000CF92DF92EF92FF920F931F93CF93DF9394
:10105000FC01C48121E02093F710C0931811109275
:101060002811109227118385682B82EA94E10E944F
:10107000F107D0912711D13208F092C00E940806E2
:101080006B017C018091F110811165C082E0809339
:10109000F11081E08093F0108FEF8093EF101092A9
:1010A000EE10D093ED10A8EFB0E1EDECF0E180E0B0
:1010B000D81385C01092CC108091CC10CC0FC82BC7
:1010C000C093CC108091CB10813009F07CC010927D
:1010D000CB100E9408066B017C018091CC1080939C
:1010E000BB008091F3109091F410A091F510B09195
:1010F000F610892B8A2B8B2B99F00E940806009101
:10110000F3101091F4102091F5103091F6106C1935
:101110007D098E099F090617170728073907E0F18F
:101120008091BC0083FDD9CF85EC8093BC000E94E8
:1011300008066B017C018091F110823009F445C0F2
:101140008091EF108F3F61F18091EF10803241F17B
:101150008091EF1025C08091F3109091F410A09130
:10116000F510B091F610892B8A2B8B2B09F48ACFBE
:101170000E9408060091F3101091F4102091F510D0
:101180003091F6106C197D098E099F090617170713
:101190002807390708F076CF8091F2100E947A076D
:1011A00010922811109227111092F710DF91CF9111
:1011B0001F910F91FF90EF90DF90CF9008959D9138
:1011C00091938F5F75CF85EEB0CF8091F3109091A2
:1011D000F410A091F510B091F610892B8A2B8B2B6F
:1011E00009F4A9CF0E9408060091F3101091F410A1
:1011F0002091F5103091F6106C197D098E099F0928
:10120000061717072807390708F095CFC5CF0895A7
:1012100061E0FC0184810E94D204809161108111FF
:101220001092611008958EBD00000DB407FEFDCF31
:101230008EB50895AF92BF92CF92DF92EF92FF9258
:101240000F931F93CF93DF9300D000D01F921F9274
:10125000CDB7DEB78C017B016A018091CC1183335D
:10126000E1F45801A40EB51EA016B10609F46FC032
:101270000E94910680EF0E941309812F0E9413099A
:10128000802F0E9413090F5F1F4FF70181917F018B
:101290000E9413090E948706E7CF5B01A40EB51ECA
:1012A0008433C1F40E94910619830A838D2D8068CE
:1012B0008B83CC8264E070E0CE0101960E946D06C3
:1012C000AE14BF0409F441C0F70181917F010E946F
:1012D0001309F6CF0E9491060F3F110509F028F47B
:1012E00019820A8384E08B830CC017FD17C0198212
:1012F0000A8333E0169507953A95E1F7007E0C6076
:101300000B8386E0C816D104A0F5F701DE01149620
:10131000EA15FB0599F081918D93FACFC80126E07B
:10132000969587952A95E1F7807E19830A830115A2
:10133000104C10F48461D7CF8C61D5CFB6016D5FAE
:101340007F4FCE0101960E946D060E948706C6015E
:1013500028960FB6F894DEBF0FBECDBFDF91CF91B8
:101360001F910F91FF90EF90DF90CF90BF90AF90C3
:10137000089563E070E0CE0101960E946D06F701CA
:1013800081917F010E941309AE14BF04C1F7DDCF24
:10139000CF93DF931F92CDB7DEB7898341E050E052
:1013A000BE016F5F7F4F90E080E00E941A090F90AE
:1013B000DF91CF910895DA01E091CD11F0E0FE2F99
:1013C000EE27E60FF71F90E0982F8827A901BD01AF
:1013D0008E0F9F1F0C941A09CF93DF931F921F92B9
:1013E000CDB7DEB779836A8322E030E0AE014F5F8C
:1013F0005F4F60E170E00E94DB090F900F90DF917A
:10140000CF910895CF93DF931F921F92CDB7DEB790
:1014100079836A8322E030E0AE014F5F5F4F64E082
:1014200070E00E94DB090F900F90DF91CF9108953B
:10143000CF93DF931F92CDB7DEB72091CD1130E06F
:10144000322F2227260F371F90E0982F88274983B5
:1014500041E050E0BE016F5F7F4F820F931F0E94FB
:101460001A090F90DF91CF9108958FEF0C94130913
:101470000F931F93CF93DF93EC010E9460068B01C3
:101480000E94350A8F3F69F00E946006601B710B55
:101490006C177D07A8F380E0DF91CF911F910F912A
:1014A000089581E0F9CF8CBD9DBD0895FF920F9303
:1014B0001F93CF93DF93EB01FC01178A168A2A81D1
:1014C000211109C02B81211106C02C81211103C0DB
:1014D0002D81222301F141155105E9F08A01FC011A
:1014E000F08C80E591E00E94530AAE014E5F5F4FA1
:1014F00024E030E06CE070E08F2D0E94DB09B80141
:101500008F2D0E94EC0981E090E0DF91CF911F9137
:101510000F91FF90089580E0F7CFCF93DF93EC0118
:1015200080916110811109C081E0809361108091E8
:10153000AE149091AF140E94530A60E08C81DF9149
:10154000CF910C94D2048F929F92AF92BF92FF9250
:101550000F931F93CF93DF93EC01F62E49015A01AD
:101560008E81882389F08F8198859C012F5F3F4F62
:1015700038872F838230924018F40E94350AF3CFC7
:10158000CE010E9408091E82CE010E948D0A8CE2C3
:1015900091E00E94380A8F2D80640E94130908E1AF
:1015A00010E0D501C401002E04C0B695A79597950B
:1015B00087950A94D2F70E94130908501109083F31
:1015C0008FEF180771F785E9FF2021F028E087E801
:1015D000F2128FEF0E94130910E00E94350A8A87E9
:1015E00087FF04C01F3F11F01F5FF7CFDF91CF913E
:1015F0001F910F91FF90BF90AF909F908F90089593
:10160000AF92BF92CF92DF92EF92FF920F931F9310
:10161000CF93DF93EC016901C801820F931F8130E2
:10162000924050F58E81882379F088819981AA8132
:10163000BB8184179507A607B70731F48F8198857A
:10164000C816D90608F042C0488359836A837B8351
:101650008B85833039F089E0440F551F661F771F53
:101660008A95D1F79A01AB0161E1CE010E94A30AEC
:10167000882389F083E08D83CE010E94080980E0F1
:10168000DF91CF911F910F91FF90EF90DF90CF905E
:10169000BF90AF9008950E9460065B010E94350ADA
:1016A0008A878F3F69F40E9460066A197B096D3250
:1016B0007140A0F38FE08D83CE010E940809DCCF3A
:1016C0008E3F89F418861F8281E08E838F819885F2
:1016D0008C159D0550F40E94350A8F8198850196DE
:1016E00098878F83F3CF8DE0E6CF6701E00EF11E80
:1016F0000E94350AF60181936F01EE15FF05C1F7CF
:101700008F819885080F191F18870F838985882373
:1017100019F001151240A0F08E81882389F08F8185
:1017200098859C012F5F3F4F38872F8382309240EE
:1017300018F40E94350AF3CFCE010E9408091E82D8
:1017400081E09ECFCF92DF92EF92FF920F93CF93E3
:10175000DF93EC01690182E14115510561057105D5
:1017600099F08B85833039F089E0440F551F661F4F
:10177000771F8A95D1F79A01AB0168E1CE010E94EB
:10178000A30A882319F084E08D832DC08EEF0E9478
:10179000130976018EEFD81AF70181917F010E941B
:1017A0001309EC14FD04C1F78FEF0E9413098FEFAA
:1017B0000E9413090E94350A8A878F71853071F45F
:1017C000011116C0CE010E94080981E0DF91CF917E
:1017D0000F91FF90EF90DF90CF90089581E18D837E
:1017E000CE010E940809CE010E94080980E0EECFD8
:1017F00088E592E00E94380A811102C085E1C4CFD9
:1018000020E030E0A9016DE0CE010E94A30A882308
:1018100011F084E1B9CF0E94350A8111FACFD2CFFD
:101820000F93409163105091641060916510709116
:101830006610411551056105710599F0082F2FECCF
:1018400031E18091C7119091C8110E94A20B8823A9
:1018500049F010926310109264101092651010926B
:10186000661081E00F9108950F93CF93C82F809158
:101870006210811105C0C1E08C2FCF910F910895A6
:101880004091650250916602609167027091680212
:101890000C2F2FEC31E18091C7119091C8110E945B
:1018A000A20B811102C0C0E0E7CFCC2321F381E07D
:1018B0000E94100C8823B9F310926210DDCF8F9232
:1018C0009F92AF92BF92EF92FF920F931F93CF938D
:1018D0004B015C01C42F8091650290916602A0913A
:1018E0006702B091680288159905AA05BB0551F1F8
:1018F00081E00E94340C81110BC080E0CF911F91D8
:101900000F91FF90EF90BF90AF909F908F900895B0
:101910008FECE82E81E1F82E00E012E030E020E0CC
:10192000B501A4018091C7119091C8110E94000BCC
:10193000882319F38092650290926602A092670252
:10194000B0926802409162104C2B4093621081E08B
:10195000D5CFCF93DF93EC016E857F8588899989F8
:1019600041E00E945F0C882351F08A8920E2829F27
:10197000C001112481539E4EDF91CF91089590E0D4
:1019800080E0FACF8F929F92AF92BF92CF92DF9278
:10199000EF92FF92CF9320EB34E13093C811209364
:1019A000C711882309F46DC040E060E070E0CB010E
:1019B0000E945F0C81110BC080E0CF91FF90EF90EF
:1019C000DF90CF90BF90AF909F908F9008958091BF
:1019D0008D138F7789F78091991390919A13A09125
:1019E0009B13B0919C1384369105A105B10520F39A
:1019F000C0909513D0909613E0909713F0909813A1
:101A0000C114D104E104F104B9F240E0C701B60108
:101A10000E945F0C882381F28091DA119091DB1192
:101A20008115924049F6A091DF11AA2329F2609115
:101A3000DD117091DE116115710509F4BDCF2091A2
:101A4000DC11222309F4B8CFA093CE142093C01444
:101A500090E080E030E0E1E0F0E0C82FAF01082E38
:101A600002C0440F551F0A94E2F72417350769F0A6
:101A700041E0480F01968930910579F74093C914E8
:101A80009BCFC12CD12C7601C0CF8093C91420915B
:101A9000E5113091E61150E040E02115310541F4A7
:101AA0002091F3113091F4114091F5115091F611FC
:101AB0002093C1143093C2144093C3145093C414A0
:101AC00046015701860E971EA11CB11C8092CF14AF
:101AD0009092D014A092D114B092D214E091E0115F
:101AE000F091E111F093D514E093D414B0E00E948A
:101AF0008B52DC01CB01880D991DAA1DBB1D809363
:101B0000D6149093D714A093D814B093D91425E089
:101B1000EE0FFF1F2A95E1F7E150FE4FEF2FFF2751
:101B2000E6958E0F9F1FA11DB11D8093CA1490933F
:101B3000CB14A093CC14B093CD148090E21190906C
:101B4000E311B12CA12C8114910441F48090EF1188
:101B50009090F011A090F111B090F211C81AD90A2A
:101B6000EA0AFB0AC80CD91CEA1CFB1C04C0F69448
:101B7000E794D794C794CA95D2F7C092C514D0926F
:101B8000C614E092C714F092C81485EFC8168FE00F
:101B9000D806E104F10428F48CE08093D31481E0AA
:101BA0000CCF80E125EFC2162FEFD206E104F1043D
:101BB000A0F38091FB119091FC11A091FD11B091C7
:101BC000FE118093D6149093D714A093D814B09399
:101BD000D91480E2E2CF4F925F926F927F928F9200
:101BE0009F92AF92BF92CF92DF92EF92FF920F93AC
:101BF0001F93CF93DF93EC014230510561057105CE
:101C000090F480E0DF91CF911F910F91FF90EF90C2
:101C1000DF90CF90BF90AF909F908F907F906F900C
:101C20005F904F90089589859A85AB85BC85019614
:101C3000A11DB11D84179507A607B70710F3CB8820
:101C4000DC88ED88FE888F89803109F042C0BB278F
:101C5000A72F962F852F480159012A013B01C80E55
:101C6000D91EEA1EFB1E8091650290916602A0912A
:101C70006702B0916802C816D906EA06FB0699F514
:101C80008F898031C1F5B301A201552766277727D7
:101C9000440F551F41535E4EFA019182808280911C
:101CA00062108160809362108A89823080F08D8119
:101CB0009E81AF81B8858C0D9D1DAE1DBF1D80938B
:101CC000631090936410A0936510B093661081E048
:101CD00099CFDB01CA01E7E0B695A795979587955F
:101CE000EA95D1F7B8CF40E0C701B6010E945F0C7A
:101CF0008111C6CF86CFB301A2014F775527662742
:101D00007727440F551F440F551F41535E4EFA016C
:101D100080829182A282B382C2CF8F929F92AF9231
:101D2000BF92CF92DF92EF92FF920F931F93CF93C8
:101D3000DF93FC0181859285A385B4850196A11D61
:101D4000B11D84179507A607B70770F480E0DF91EF
:101D5000CF911F910F91FF90EF90DF90CF90BF90A8
:101D6000AF909F908F90089583889488A588B688B7
:101D70008789803189F5BB27A72F962F852FE90109
:101D80006A017B018F01BC01CD01680D791D8A1D9F
:101D90009B1D8090650290906602A0906702B090B3
:101DA000680286169706A806B90601F5F801878924
:101DB000803111F5DD24EE24FF24F601EE0FFF1F24
:101DC000E153FE4E80819181B0E0A0E08883998349
:101DD000AA83BB8381E0BBCFDB01CA01C7E0B69514
:101DE000A79597958795CA95D1F7C9CF40E00E94EE
:101DF0005F0C8111DBCFAACFE894C7F8DD24EE2475
:101E0000FF24F601EE0FFF1FEE0FFF1FE153FE4E02
:101E100080819181A281B381BF70D8CF4F925F92B0
:101E20006F927F92AF92BF92CF92DF92EF92FF922A
:101E30000F931F93CF93DF9300D01F92CDB7DEB7E0
:101E40008C0149835A836B837C835901C12CD12C2B
:101E50007601412C82E0582E612C712C49815A81E7
:101E60006B817C819E012F5F3F4FC8010E948D0EC8
:101E7000882339F1F8018585A301920104C0220F5E
:101E8000331F441F551F8A95D2F7DA01C901C80EC6
:101E9000D91EEA1EFB1E49815A816B817C8187898C
:101EA000803111F188EF9FEFAFEFBFE0481759077E
:101EB0006A077B0798F2F501C082D182E282F38241
:101EC00081E00F900F900F900F90DF91CF911F91B5
:101ED0000F91FF90EF90DF90CF90BF90AF907F90E9
:101EE0006F905F904F90089588EF9FEFA0E0B0E073
:101EF000DDCFCF93DF93FC012581222321F080E009
:101F0000DF91CF910895EC018091D314803159F580
:101F100082E08583178A108E118E128E8091D414E0
:101F20009091D514B0E0A0E025E0880F991FAA1F7A
:101F3000BB1F2A95D1F7838B948BA58BB68B8CEB2B
:101F400094E19C8F8B8F81E08C831E821F82188688
:101F500019861A861B861C861D861E861F86188A71
:101F6000198A1A8ACDCF803251F683E08583409159
:101F7000D6145091D7146091D8147091D914478B0E
:101F8000508F618F728F9F012D5E3F4F8CEB94E1DC
:101F90000E940E0F8111D3CFB2CF8F929F92AF923A
:101FA000BF92CF92DF92EF92FF920F931F93CF9346
:101FB000DF93EC018D8181110EC080E0DF91CF9124
:101FC0001F910F91FF90EF90DF90CF90BF90AF9057
:101FD0009F908F9008950B891C892D893E89041745
:101FE00015072607370748F34A015B01823031F4B1
:101FF0008A869B86AC86BD8681E0E0CF8114910401
:10200000A104B10449F41E821F82188619861A861B
:102010001B861C861D86F0CF0A851B852C853D8579
:10202000EB8DFC8D858590E00996B901A8014150A2
:10203000510961097109082E04C076956795579575
:1020400047950A94D2F775016401E1E0CE1AD108F0
:10205000E108F10804C0F694E794D794C7948A95F0
:10206000D2F7C416D506E606F70620F0012B022BA0
:10207000032B11F58F89988DA98DBA8D8E839F833F
:10208000A887B9878E010A5F1F4FC114D104E104EC
:10209000F10409F4ADCF4E815F816885798598019F
:1020A0008B8D9C8D0E948D0E91E0C91AD108E1089C
:1020B000F1088111EACF81CFC41AD50AE60AF70ADE
:1020C000E1CF3F924F925F926F927F928F929F9259
:1020D000AF92BF92CF92DF92EF92FF920F931F9336
:1020E000CF93DF93CDB7DEB72C970FB6F894DEBF52
:1020F0000FBECDBF5C01DC015B968D909C905C9720
:1021000016964D905D906D907C90199741145104F6
:102110006104710409F468C0BFEF4B1A5B0A6B0AD3
:102120007B0A312CF40181859285A385B4859C01BD
:10213000AD012F5F3F4F4F4F5F4F29873A874B8746
:102140005C87730162011D821E821F821886F40162
:1021500081859285A385B4852D813E814F815885E7
:10216000281739074A075B0708F056C089859A8502
:10217000AB85BC858C159D05AE05BF0550F482E08E
:10218000C82ED12CE12CF12C92E0492E512C612C3F
:10219000712C9E012F5F3F4FB701A601C4010E9421
:1021A0008D0E8823C9F189819A81AB81BC81892BED
:1021B0008A2B8B2B09F1260137019FEF491A590A07
:1021C000690A790A2D813E814F8158852F5F3F4FE3
:1021D0004F4F5F4F2D833E834F8358873FEFC31A86
:1021E000D30AE30AF30AB3CFF4014080518062803E
:1021F00073803324339496CFC414D504E604F704D3
:1022000009F70FEF1FEF2FEF3FE0B701A601C40161
:102210000E94EB0D811119C080E02C960FB6F89446
:10222000DEBF0FBECDBFDF91CF911F910F91FF9009
:10223000EF90DF90CF90BF90AF909F908F907F9066
:102240006F905F904F903F900895D50116964D91F5
:102250005D916D917C91199741155105610571054D
:1022600039F097018601C4010E94EB0D8823A1F289
:10227000D5011696CD92DD92ED92FC9219973320FE
:1022800051F0D701C6010196A11DB11DF401808353
:102290009183A283B383F5018789908DA18DB28D3F
:1022A000892B8A2B8B2B39F48481C78AD08EE18EBF
:1022B000F28E80688483F50184818062848381E06A
:1022C000ACCF2F923F924F925F926F927F928F92FC
:1022D0009F92AF92BF92CF92DF92EF92FF920F93B5
:1022E0001F93CF93DF93EC015B012A018D81811154
:1022F00015C08FEF9FEFDF91CF911F910F91FF904E
:10230000EF90DF90CF90BF90AF909F908F907F9095
:102310006F905F904F903F902F9008958C8180FF39
:10232000E8CF0B891C892D893E894A855B856C85A0
:102330007D85C201B0E0A0E068017901C41AD50A28
:10234000E60AF70AC816D906EA06FB0618F42801B9
:10235000441A550A42011E0126E0220E311C811446
:10236000910409F4B3C04A855B856C857D856A015B
:1023700081E0D8228B8D9C8D8A019B01E9E0369506
:10238000279517950795EA95D1F7ED81E230E1F5AC
:10239000FC01628D738D848D958D600F711F821F7E
:1023A000931F612C22E0722E6C187D08861497040E
:1023B00008F434012C8126FD04C06114F2E07F068C
:1023C00071F40091650210916602209167023091CC
:1023D0006802061717072807390709F053C040E0BD
:1023E0000E945F0C882309F484CFC60181539E4E5E
:1023F000D5019C01260D371DFC012E173F0709F45E
:1024000060C041914D93F9CFFC0174807A947022A1
:10241000C114D10471F471100CC0452B462B472B0D
:1024200039F58F89988DA98DBA8D8E839F83A88762
:10243000B987EB8DFC8D6E817F818885998562508F
:10244000710981099109258504C0660F771F881FCE
:10245000991F2A95D2F70685178520893189600F43
:10246000711F821F931F670D711D811D911D99CFD3
:102470004E815F816885798591010E948D0E811161
:10248000D8CF37CF750183019601AB01BC01809194
:10249000C7119091C8110E94000B882309F429CF1D
:1024A000A60CB71C8A859B85AC85BD85860D971DBE
:1024B000A11DB11D8A879B87AC87BD8786189708A9
:1024C0004ECF281B390BA20EB31EECCFC20113CF87
:1024D0001F93CF93DF93FC012581222371F1162FE7
:1024E000EC01848187FF1EC0CF010E94A90CFC0172
:1024F000892B19F18D81823040F48B899C89AD89BB
:10250000BE89848F958FA68FB78F8F89988D938F73
:10251000828F8F89988DA98DBA8DB58BA48B8C8174
:102520008F778C83111103C08C818F7E8C83812FD8
:10253000DF91CF911F910C94340C80E0DF91CF910B
:102540001F910895FF920F931F93CF93DF93EC0198
:102550008D81813041F090E080E0DF91CF911F913B
:102560000F91FF9008958C8181FFF5CF82FD1BC0F4
:102570000091C7111091C811C8010E948D0A0E94D4
:10258000350AF82EC8010E9408098FEFF812E3CF30
:102590008C8185FF1BC060E0CE010E9468128C8197
:1025A0008F7D8C83D8CF4B895C896D897E898A85A4
:1025B0009B85AC85BD8584179507A607B707C1F233
:1025C000CE010E94CD0F8111D3CFC5CF40916310B2
:1025D000509164106091651070916610452B462BE8
:1025E000472B21F080E00E94100CB5CF80618C83D6
:1025F0002A853B85317080E092E0821B930BADCF42
:10260000CF93DF93EC0161E00E946812882311F000
:102610001D8281E0DF91CF9108952F923F924F92DA
:102620005F926F927F928F929F92AF92BF92CF9262
:10263000DF92EF92FF920F931F93CF93DF9300D01F
:102640001F921F92CDB7DEB77C015B01342E5D83F4
:10265000DC0115968C911597813009F0CEC0149647
:102660002C9021FECAC022FCB4C0C32CDD80229471
:102670007FE027222094B22DB1702B2ED7011A961D
:102680004D915D916D917C911D97C114D10409F418
:1026900028C15B968D919C915C97FC0174807A9423
:1026A0008A019B0169E036952795179507956A95EC
:1026B000D1F770228A011170711020C00115110527
:1026C000E9F416964D915D916D917C9119974115A4
:1026D00051056105710509F099C057968D919D913D
:1026E0000D90BC91A02D0097A105B10509F0B0C0D7
:1026F000C7010E946110882309F47FC080E092E046
:10270000801B910B46018C159D0508F44C01D701E7
:102710005B964D915C915C9716968D919D910D9075
:10272000BC91A02D0297A109B109FA01258504C029
:10273000880F991FAA1FBB1F2A95D2F74685578578
:1027400060897189840F951FA61FB71F9C01AD0179
:10275000270D311D411D511D29013A01811432E01F
:10276000930609F07BC08091650290916602A0916A
:102770006702B091680284159505A605B70559F45E
:102780008FEF9FEFDC018093650290936602A09328
:102790006702B0936802022D9501B301A2018091F6
:1027A000C7119091C8110E94A20B882331F19EEFAE
:1027B000B91AC818D908F70182859385A485B5850B
:1027C000880D991DA11DB11D82879387A487B587A8
:1027D00055CFF70143895489658976898285938528
:1027E000A485B585481759076A077B0709F43DCFCB
:1027F000C7010E94CD0F811138CF81E090E0D70151
:1028000013969C938E93129780E007C09E012F5FD2
:102810003F4F0E948D0E811102C090E079C08981E6
:102820009A81AB81BC81F701238D348DF901278911
:1028300048EF5FEF60E070E0203121F048EF5FEF9C
:102840006FEF7FE084179507A607B70708F050CF12
:10285000F70186839783A087B18750CF01151105B3
:1028600099F5D7011A964D915D916D917C911D97C7
:1028700053968D919D910D90BC91A02D48175907AD
:102880006A077B0708F181E00E94340C882309F471
:10289000B4CF4092650250926602609267027092D5
:1028A000680280916210816080936210C801815338
:1028B0009E4ED5019C01280D391DFC012E173F07A6
:1028C00059F04D914193FACF41E0C301B2010E940A
:1028D0005F0C8111EBCF91CF281B390BA20EB31ED9
:1028E00068CFF70183899489A589B68984179507EC
:1028F000A607B70738F48481438B548B658B768B9E
:1029000080688483F701848183FD1AC0832D9D81B3
:102910000F900F900F900F900F90DF91CF911F911C
:102920000F91FF90EF90DF90CF90BF90AF909F906E
:102930008F907F906F905F904F903F902F90089571
:1029400061E0C7010E946812882309F456CFDECFE8
:10295000CF93DF931F92CDB7DEB7698341E050E09C
:10296000BE016F5F7F4F0E940D130F90DF91CF91DB
:102970000895FC01DB0112968D919C91139793832E
:1029800082838CE993E09183808314968C911497D1
:10299000848315968C911597858316964D915D913C
:1029A0006D917C91199746835783608771871A963A
:1029B0004D915D916D917C911D97428753876487FE
:1029C00075871E964D915D916D917C9151974687CB
:1029D0005787608B718B52968C915297828B53964E
:1029E0004D915D916D917C915697438B548B658B86
:1029F000768B57964D915D916D917C915A97478B4F
:102A0000508F618F728F5B968D919C91948F838F85
:102A10000895DC015996ED91FC91309721F081E009
:102A20009581911101C080E00895FC01818D928D06
:102A3000009719F061E00C9468120895DC01599632
:102A4000ED91FC913097B9F083899489A589B68975
:102A50004285538564857585841B950BA60BB70B42
:102A6000811520E89207A105B10538F08FEF9FE7A7
:102A7000A0E0B0E0089590E080E00895DC01599670
:102A80008D919C91009739F0DC01ED91FC910480CF
:102A9000F581E02D199490E080E00895CF93DF93C5
:102AA000EC01E98DFA8D309749F481E090E09B8349
:102AB0008A8390E080E0DF91CF91089513821282A3
:102AC000898D9A8D0E940D13E98DFA8D22813381B3
:102AD000232B59F7F0CFCF93DF931F92CDB7DEB7FB
:102AE0006983DC01ED91FC910280F381E02D41E0EE
:102AF00050E0BE016F5F7F4F19950F90DF91CF912E
:102B00000895CF93DF931F92CDB7DEB741E050E039
:102B1000BE016F5F7F4F0E946111019731F489817F
:102B200090E00F90DF91CF9108958FEF9FEFF9CF55
:102B3000FC01818D928D009711F00C9481158FEF1F
:102B40009FEF08950F931F93CF93DF93EC01898D2F
:102B50009A8D10E000E0009799F00E9481158C0199
:102B60000F3F100769F0898D9A8DFC0142855385CE
:102B70006485758541505109610971090E94CD0F25
:102B8000C801DF91CF911F910F910895CF93CFB7D7
:102B9000F89480916010811127C0EDECF4E08491ED
:102BA000EDE6F4E09491E82FF0E0EE0FFF1FE25421
:102BB000FC4FA591B491EC91E92321F461E085E308
:102BC0000E94D20461E085E30E9400058CB580611B
:102BD0008CBD8CB580648CBD61E084E30E940005EF
:102BE00061E083E30E940005809160108F5F809315
:102BF0006010CFBFCF910895CF93DF93CCE3D3E0A4
:102C00008881229660E00E94D20483E0CC34D80709
:102C1000B9F7CCE4D3E08881229670E060E00E94AE
:102C2000310583E0C036D807B1F760E08FE10E943C
:102C3000D20460E084E2DF91CF910C94D204CF9370
:102C4000DF938AE10E94A904892BE9F488E10E94BC
:102C5000A904892BD9F486E10E94A904892BC9F41F
:102C60008CE10E94A904892BB9F48EE10E94A90489
:102C7000892B29F060E070E0CB010E942D06CE0187
:102C8000DF91CF910895D0E0C0E0F9CFC1E0D0E06E
:102C9000F6CFC2E0D0E0F3CFC3E0D0E0F0CFFC014C
:102CA000DB0112968D919C911397938382831496E6
:102CB0004D915D916D917C91179744835583668307
:102CC000778318964D915D916D917C911B9740870C
:102CD00051876287738788EA93E0918380831C968B
:102CE0008C911C9784871D968D919C9196878587E2
:102CF0000895FC01768765870895DC01ED91FC91CC
:102D0000068CF78DE02D199591E089270895862F7F
:102D1000089581E08627089521E0FC0184858830AC
:102D200008F020E0822F089590E080E008958F92CF
:102D30009F92AF92BF92CF92DF92EF92FF920F934A
:102D40001F93CF93DF9300D01F92CDB7DEB7FC0166
:102D50008581813091F080E00F900F900F900F905F
:102D6000DF91CF911F910F91FF90EF90DF90CF9067
:102D7000BF90AF909F908F900895848181FFEBCF9B
:102D800083899489A589B689892B8A2B8B2B09F491
:102D90005FC07F0140E050E0BA01CF010E94CD0F3B
:102DA0008823C9F2F701C38CD48C8788908CA18CBE
:102DB000B28C82E090E0A0E0B0E0F60180839183E5
:102DC000A283B3839E012F5F3F4FB501A401C601CB
:102DD0000E948D0E882309F4BECF00E010E0980118
:102DE000B501A401C6010E94EB0D882309F4B3CFFD
:102DF00089809A80AB80BC80F6018789803119F187
:102E000088EF9FEFAFEFBFE088169906AA06BB06D2
:102E1000C8F2F701178A108E118E128E138A148A47
:102E2000158A168A84818068848361E0C7010E94C4
:102E30006812882309F48FCF40E050E0BA01C7013F
:102E40000E94CD0F89CF88EF9FEFA0E0B0E0DCCFEC
:102E500081E082CFCF92DF92EF92FF921F93CF93C8
:102E6000DF93EC0180E2689FF0011124E153FE4EF4
:102E70009385917161F0842F827449F080E0DF9135
:102E8000CF911F91FF90EF90DF90CF900895142F76
:102E90006A8B8091650290916602A0916702B09161
:102EA00068028E879F87A88BB98BC488D588F12C40
:102EB000E12C7601DD24CC24CF8AD88EE98EFA8EDF
:102EC000828D938DB0E0A0E0AC01BD014C295D295D
:102ED0006E297F294F8B588F698F7A8F83858871F0
:102EE000B1F4848D958DA68DB78D8B8B9C8BAD8B1E
:102EF000BE8B81E08D831F701C831E821F8218860B
:102F000019861A861B861C861D8681E0B8CF803103
:102F100009F0B4CF9E012D5E3F4F8B8D9C8D0E949A
:102F20000E0F882309F4AACF84E0E4CF0F931F93F8
:102F3000CF938C01C62F0E9420086C2F6460C801BB
:102F40000E9420086C2F6B7FC8010E94200883EC30
:102F500090E00197F1F7CF911F910F9108950F9392
:102F60001F93CF93DF938C01D62FC42F607F642BE8
:102F70000E94961780E1D89FB00111246C2BC801E4
:102F8000DF91CF911F910F910C949617CF93DF9300
:102F900000D000D01F921F92CDB7DEB798E0E0E9D5
:102FA000F2E0DE01119601900D929A95E1F7909171
:102FB0003D15961710F46FEF690F262F30E0220FA2
:102FC000331F41E050E04C0F5D1F240F351FF90106
:102FD0006081680F606840E085E395E128960FB650
:102FE000F894DEBF0FBECDBFDF91CF910C94AF1729
:102FF00040E061E085E395E10E94AF178BE39FE13C
:103000000197F1F7089541E00E94AF1781E090E049
:103010000895CF93DF932091181530911915232B24
:1030200089F0FC01C0911415D09115156081718152
:10303000CE010E943F56009729F08C1B9D0BDF911B
:10304000CF9108958FEF9FEFFACF0E94FC55FB01BF
:1030500001900020E9F73197AF01461B570BDC01C7
:10306000ED91FC910280F381E02D19948F929F9253
:10307000AF92BF92EF92FF920F931F93CF93DF9384
:10308000CDB7DEB7A1970FB6F894DEBF0FBECDBFA8
:103090007C01FA01CB0119A2223008F42AE08E014A
:1030A0000F5D1F4F822E912CB12CA12CBF01A501C9
:1030B00094010E949E52F901CA016A300CF5605DCC
:1030C000D8016E938D01232B242B252B79F790E0CB
:1030D00080E0109721F0BD01C7010E942718A1963A
:1030E0000FB6F894DEBF0FBECDBFDF91CF911F9119
:1030F0000F91FF90EF90BF90AF909F908F900895A9
:10310000695CDECFCF92DF92EF92FF920F931F9315
:10311000CF93DF936B01770FEE08FF08F7FE1BC01C
:10312000EC016DE20E94F9028C0144275527BA0197
:103130004C195D096E097F092AE0CE010E943618FC
:10314000800F911FDF91CF911F910F91FF90EF9012
:10315000DF90CF9008952AE0B701A601DF91CF91CB
:103160001F910F91FF90EF90DF90CF900C94361845
:103170008F929F92AF92BF92CF92DF92EF92FF9287
:103180000F931F93CF93DF937C018B016C0182E03F
:10319000C80ED11C4701E5E08E0E911CD0E0C0E0C6
:1031A000F60141916F0150E070E060E02AE0C80153
:1031B0000E9436185C016EE2C8010E94F9028A0D75
:1031C0009B1DC80FD91FC814D90451F7F7014581B9
:1031D00050E070E060E02AE0C8010E9436188C0FD1
:1031E0009D1FDF91CF911F910F91FF90EF90DF9086
:1031F000CF90BF90AF909F908F90089566E074E05D
:103200000C942718CF93DF93BC018FEC93E10E94BD
:103210000003EC018FEC93E10E94FE188C0F9D1FC0
:10322000DF91CF910895CF93DF93BC018FEC93E1B1
:103230000E948218EC018FEC93E10E94FE188C0F23
:103240009D1FDF91CF910895CF93DF93AB01BC0118
:103250002AE08FEC93E10E943618EC018FEC93E1A9
:103260000E94FE188C0F9D1FDF91CF9108950F9340
:103270001F93CF93DF93EC010E9427188C01CE019E
:103280000E94FE18800F911FDF91CF911F910F9127
:1032900008950C9427188091631163E0882349F006
:1032A00080E00E94C61769E074E085E395E10C9424
:1032B000491980E00E94C61761E174E0F6CF4F9291
:1032C0005F926F927F928F929F92AF92BF92CF92B6
:1032D000DF92EF92FF920E944B190E9460064B0111
:1032E0005C0161E084E20E94D2040E9460066819D9
:1032F00079098A099B0960367A4E8105910528F47F
:1033000086E20E94A904019781F30E9460066B0186
:103310007C010E9460062B013C01481859086A088C
:103320007B0860E084E20E94D20480E648168AEEC0
:1033300058066104710400F162E080E00E94C61743
:1033400069E174E085E395E10E94491962E080E05B
:103350000E94C6176EE274E085E395E1FF90EF905E
:10336000DF90CF90BF90AF909F908F907F906F90A5
:103370005F904F900C944919C818D908EA08FB08C7
:1033800062E080E00E94C6176AE374E085E395E19D
:103390000E94491962E089E00E94C6172AE0B7013D
:1033A000A601F7FE0DC06DE285E395E10E94F902EA
:1033B00044275527BA014C195D096E097F092AE097
:1033C00085E395E10E94361861EE74E0C5CF0E9456
:1033D000F8176FE474E085E395E10E944919809144
:1033E0004B1160E0882349F081E10E94C6176AE52D
:1033F00074E085E395E10C94491982E10E94C617B7
:103400006EE574E0F6CFCF93DF93EC01662341F0D5
:103410000E94F81761E674E085E395E10E9449197E
:1034200061E080E00E94C617BE0185E395E10E943D
:103430008218C83ED34044F46CE274E085E395E121
:10344000DF91CF910C944919DF91CF910895CF93DB
:10345000DF93EC010E94F81764E774E085E395E1DF
:103460000E94491961E080E00E94C617BE0185E311
:1034700095E1DF91CF910C948218CF93DF93EC010B
:103480000E94F81767EB74E085E395E10E94491903
:10349000209751F460E083E10E94C61763E874E06E
:1034A00085E395E10E94491961E080E00E94C6171A
:1034B0006CEF74E085E395E10E944919C130D105B4
:1034C00051F461E083E10E94C61763E874E085E38C
:1034D00095E10E94491962E080E00E94C61769E008
:1034E00075E085E395E10E944919C230D10551F498
:1034F00062E083E10E94C61763E874E085E395E12A
:103500000E94491963E080E00E94C6176DE275E0F1
:1035100085E395E10E944919239761F463E083E113
:103520000E94C61763E874E085E395E1DF91CF91CF
:103530000C944919DF91CF910895CF93DF93EC015B
:103540000E94F81765E874E085E395E10E94491947
:10355000209751F460E083E10E94C61763E874E0AD
:1035600085E395E10E94491980917C1190917D112C
:10357000892B09F046C061E080E00E94C61761E92E
:1035800074E085E395E10E944919C130D10551F4F9
:1035900061E083E10E94C61763E874E085E395E18A
:1035A0000E94491962E080E00E94C61761E674E05B
:1035B00085E395E10E944919C230D10551F462E0DA
:1035C00083E10E94C61763E874E085E395E10E94F9
:1035D000491963E080E00E94C61760EA74E085E361
:1035E00095E10E944919239761F463E083E10E9409
:1035F000C61763E874E085E395E1DF91CF910C9401
:103600004919DF91CF91089580917C1190917D119E
:103610008130910509F480C01CF4892B49F008958C
:103620008230910509F47DC0039709F48EC0089596
:103630000E94F8176AEA74E085E395E10E9449194F
:1036400061E080E00E94C6176FEB74E085E395E1CE
:103650000E94491980914111909142110A9734F4C6
:103660006CE274E085E395E10E9449196091411193
:103670007091421185E395E10E94821862E080E03A
:103680000E94C61762ED74E085E395E10E94491936
:103690008091790290917A02A0917B02B0917C0294
:1036A000883E9340A105B10530F46CE274E085E3F7
:1036B00095E10E9449194091790250917A026091F6
:1036C0007B0270917C022AE085E395E10E94361826
:1036D00060EE74E085E395E10E94491963E080E0C3
:1036E0000E94C61764EE74E085E395E10E944919D3
:1036F00080914B1163E0882349F081E10E94C61755
:103700006AE574E085E395E10C94491982E10E9431
:10371000C61763EF74E0F6CF0E94F81766EF74E007
:10372000F1CF0E94F81763E075E085E395E10E9410
:10373000491961E080E00E94C61768E175E085E301
:1037400095E10E9449190C944B190E94F81767E201
:1037500075E0EBCFFC0180819181009711F00C9412
:103760002B4F60E070E0CB0108950F931F93CF9330
:10377000DF938C01EB01FC01808191810097E1F0E6
:103780006881798161157105A9F0428153812C818D
:103790003D814217530770F00E9429568C819D810C
:1037A000F801958384831D821C82DF91CF911F9144
:1037B0000F9108950E94925488819981F801918314
:1037C00080838A819B81938382838C819D81958371
:1037D0008483198218821B821A82E5CFCF93DF93EC
:1037E000EC0188819981009711F00E94925419820E
:1037F00018821D821C821B821A82DF91CF9108954C
:10380000FC0180819181009711F00C9492540895ED
:10381000CF93DF93EC01898D9A8D009741F00E9440
:103820000013898D9A8D0E9492541A8E198EDF9101
:10383000CF9108950F931F93CF93DF93EC0188816D
:103840009981009759F02A813B812617370730F07C
:1038500081E0DF91CF911F910F9108958B016F5FF0
:103860007F4F0E941B55009759F0998388831B83D3
:103870000A832C813D81232B59F7FC011082E8CF6C
:1038800080E0E7CFEF92FF920F931F93CF93DF93E8
:10389000FB0101900020E9F73197E61BF70BE1F0FF
:1038A0007B018C01DC011496CD91DC91CE0FDF1FE2
:1038B000BE010E941A1C882381F0F8012081318109
:1038C00084819581B701820F931F0E942956D801E8
:1038D0001596DC93CE93149781E0DF91CF911F91E1
:1038E0000F91FF90EF900895EF92FF920F931F9327
:1038F000CF93DF931F921F92CDB7DEB78C01698300
:103900001A82FC01E480F580FFEFEF1AFF0AB7018D
:103910000E941A1C882381F0F80120813181848162
:103920009581BE016F5F7F4F820F931F0E942956C2
:10393000F801F582E48281E00F900F90DF91CF9142
:103940001F910F91FF90EF900895EF92FF920F93C8
:103950001F93CF93DF93EC017B018A01BA010E9490
:103960001A1C81110BC0CE010E94EE1BCE01DF910B
:10397000CF911F910F91FF90EF9008951D830C83BD
:10398000B701888199810E942956F0CFFB010190EF
:103990000020E9F73197AF01461B570B0C94A51C8B
:1039A0000F931F93CF93DF93CDB7DEB762970FB618
:1039B000F894DEBF0FBECDBF8C01CB01F8011182A0
:1039C000108213821282158214824AE0BE016F5F58
:1039D0007F4F0E94524FBE016F5F7F4FC8010E9410
:1039E000C61C62960FB6F894DEBF0FBECDBFDF9146
:1039F000CF911F910F910895FC01118210821382C3
:103A0000128215821482FB0101900020E9F73197A0
:103A1000AF01461B570B0C94A51CCF92DF92EF927F
:103A2000FF920F931F93CF93DF936C017B018A0169
:103A30004617570720F48F2D7A01062F182F68E0BC
:103A400074E0C6010E94FC1CC0911815D091191594
:103A5000EC16FD06F8F40C171D0708F4E801E091D8
:103A60001415F0911515EC0FFD1F10811082609157
:103A70001415709115156E0D7F1DC6016115710528
:103A800099F00E94C61C8091141590911515C80FCD
:103A9000D91F1883C601DF91CF911F910F91FF901D
:103AA000EF90DF90CF9008950E94EE1BECCFAF9285
:103AB000BF92CF92DF92EF92FF920F931F93CF931B
:103AC000DF9300D01F92CDB7DEB78C016B017A0176
:103AD0008091CC118333E9F45B016801C40ED51EDB
:103AE000C016D106A9F10E9491068FE00E94130929
:103AF000812F0E941309802F0E9413090F5F1F4F0F
:103B000080E00E941309F50181935F010E948706FE
:103B1000E7CF843369F50E94910619830A838F2DBC
:103B20008F778B83EC8264E070E0CE0101960E9477
:103B30006D06A70170E060E0C6010E941756E1140F
:103B4000F10421F0B701C6010E946D060E948706AC
:103B5000C7010F900F900F900F90DF91CF911F91A1
:103B60000F91FF90EF90DF90CF90BF90AF900895AE
:103B70000E9491060F3F110509F030F419820A8363
:103B80001B8263E070E0D1CF17FD0BC019820A835E
:103B900033E0169507953A95E1F7007E08600B83B0
:103BA000F0CFC80126E0969587952A95E1F7807EAB
:103BB00019830A830115104C18F480618B83E1CFBF
:103BC0008861FCCFCF93DF931F92CDB7DEB72091F2
:103BD000CD1130E0322F2227260F371F90E0982F8B
:103BE000882741E050E0BE016F5F7F4F820F931F37
:103BF0000E94571D89810F90DF91CF910895CF9337
:103C0000C82F462F61E070E00E94180A61E070E062
:103C10008C2F0E94E21D8111F9CFCF910895CF938F
:103C2000C82F80E591E00E94530A68E070E08C2F75
:103C3000CF910C94FF1DCF93C82F80E591E00E9497
:103C4000530A60E170E08C2FCF910C94FF1DCF934D
:103C5000DF93EC01888D883020F40E941B1E88E0E1
:103C6000888FDF91CF91089563E070E00C94E21D9E
:103C7000CF93C82F80E591E00E94530A8C2FCF91FB
:103C80000C94341EEF92FF920F931F93CF93DF9308
:103C90007C018091CC11D4E0833309F0D8E007EBAC
:103CA00011E1C0E0F801219131918F01F701848188
:103CB00095812817390729F0CF5FDC13F3CF80E017
:103CC00006C08C2F0E94381E8431B1F781E0DF914D
:103CD000CF911F910F91FF90EF900895CF93DF93B5
:103CE000EC018C858830D0F40E94381E843189F034
:103CF000882379F0883169F021E08C3159F4E8812A
:103D0000F9810084F185E02DCE01199521E0892B00
:103D100009F420E0822FDF91CF91089580E0FBCF5E
:103D2000CF92DF92EF92FF92CF93DF93EC018C85DD
:103D3000883068F40E940F1E0E9460066B017C01AF
:103D40008C850E94381E811109C088E08C87DF9124
:103D5000CF91FF90EF90DF90CF90089561E070E0F9
:103D600080E090E00E942D060E946006AB01BC013D
:103D70004C195D096E097F098D859E85B0E0A0E034
:103D8000481759076A077B07D8F28C850E941B1ECB
:103D9000DCCFCF93FC01C08D80E591E00E94530AF7
:103DA00060E270E08C2F0E94FF1D62E070E08C2FBB
:103DB0000E94E21D84FD16C062E070E08C2F0E941C
:103DC000E21D83FF0AC048E162E070E08C2F0E9490
:103DD000180A80E090E0CF91089580E591E00E947C
:103DE000530AE3CF40E162E070E08C2F0E94180A92
:103DF00081E0F0CFCF93DF931F92CDB7DEB741E0E4
:103E000050E0BE016F5F7F4F90E080E00E94571D41
:103E100089810F90DF91CF910895CF93DF93C4E113
:103E2000D0E00E94FA1E882361F061E070E080E03B
:103E300090E00E942D062197A1F780E0DF91CF91BD
:103E4000089581E0FBCFCF92DF92EF92FF921F9314
:103E5000CF93DF93CDB7DEB7C454D1090FB6F89432
:103E6000DEBF0FBECDBFFC014281538164817581ED
:103E700023964CAF5DAF6EAF7FAF239781E0239663
:103E80008FAF23972396CCACDDACEEACFFAC239781
:103E9000CBAADCAAEDAAFEAA4DA75EA76FA778ABB6
:103EA00088ABCDA4DEA4EFA4F8A8CFA2D8A6E9A63B
:103EB000FAA68EABCBA8DCA8EDA8FEA8C9A2DAA210
:103EC000EBA2FCA224EF33E03C8B2B8B9FEF9D8B6E
:103ED0009E8B9F8B188E3E872D878AA7CFA0D8A454
:103EE000E9A4FAA4CF86D88AE98AFA8A8CA389A1A0
:103EF0009AA1ABA1BCA189879A87AB87BC873A837B
:103F000029834B835C836D837E838091CE118111E5
:103F10006CC060E372E080E090E00E942D060E9499
:103F2000C615E2EAF4E0E491F0E0EE0FFF1FE2587C
:103F3000FB4F859194919093CB118093CA11E2E449
:103F4000F4E0E491E093C91161E08AE00E94000589
:103F50000E94870680E591E00E94530A84E38093E3
:103F6000CC1180E80E94C8090E940D1F882309F423
:103F700072C088E00E94C8090E94FA1E883009F0C9
:103F80006AC080E10E94C8090E94FA1E803109F0CF
:103F900062C080E00E94C8090E94FA1E182F811199
:103FA0005AC041E050E0BE016D5B7F4F8FE190E071
:103FB0000E94571D24968FAD2497833009F04BC083
:103FC00080E48093CD1142E06EE170E0812F0E9489
:103FD000180A42E06FE170E0812F0E94180A1F5F0B
:103FE000183089F781E08093CE1180E591E00E943E
:103FF000530A46E050E060E872E089E090E00E94F9
:104000001A0944E050E0BE016D5F7F4F8FE090E001
:104010000E941A0944E050E0BE01615F7F4F81E0D9
:1040200090E00E941A0944E050E0BE016B5E7F4FB1
:1040300085E090E00E941A0981E08C8789859A8545
:10404000AB85BC8580938C1490938D14A0938E14B3
:10405000B0938F146FC087E38093CC1180E80E94E7
:10406000C8090E940D1F882339F188E00E94C80901
:104070000E94FA1E883001F580E10E94C8090E9462
:10408000FA1E182F8031C1F480E00E94C8090E94F6
:10409000FA1E811111C041E050E0BE016D5B7F4FFF
:1040A00089E390E00E94571D24968FAD24978430B9
:1040B00019F41093CD1196CF83E38093CC1180E84F
:1040C0000E94C8090E940D1F882391F180E10E947F
:1040D000C8090E94FA1E803159F582E10E94C80980
:1040E0000E94FA1E823121F580E00E94C8090E94D8
:1040F000FA1E81111DC084E08093CD1115E525962F
:104100001FAF259741E050E0BE016C5B7F4F8BE114
:1041100090E00E941A0924961FAF249741E050E0D6
:10412000BE016D5B7F4F8AE190E00E941A095ACF71
:104130001092CC11CC5BDF4F0FB6F894DEBF0FBEF0
:10414000CDBFDF91CF911F91FF90EF90DF90CF9087
:1041500008951F93CF93DF931F92CDB7DEB7182F2B
:1041600080E591E00E94530A812F0E949C0627E07F
:10417000129FF0011124E158FE4E228133813770E5
:1041800041E050E0BE016F5F7F4F820F931F0E949E
:10419000571D89810F90DF91CF911F910895FC01E8
:1041A000808D883040F4218D328D232B21F00E94A8
:1041B000A92090E008958FEF9FEF0895CF93DF93AC
:1041C000FC012485283028F08FEF9FEFDF91CF91FD
:1041D0000895EC010190F081E02D0084F185E02D3F
:1041E0001995892B89F38C850E94A92090E0EECF48
:1041F000DA01E091CD11F0E0FE2FEE27E60FF71F78
:1042000090E0982F8827A901BD018E0F9F1F0C9465
:10421000571D8F929F92AF92BF92CF92DF92EF92F3
:10422000FF920F931F93CF93DF93CDB7DEB76097C5
:104230000FB6F894DEBF0FBECDBF7C019091CC11BC
:10424000911115C018E0812F60960FB6F894DEBF6B
:104250000FBECDBFDF91CF911F910F91FF90EF90D7
:10426000DF90CF90BF90AF909F908F90089508E01F
:10427000933309F404E06B0180E591E00E94530A56
:104280009E012F5F3F4F5901490110E0812F0E948D
:10429000341EF40181934F018823C1F01F5F011385
:1042A000F5CF00E0F50181915F018D3149F0883152
:1042B00039F08A51823020F00F5F1013F3CFC2CF54
:1042C00060E170E0802F0E94FF1D102FA12EB12C05
:1042D000F501EE0FFF1FE954FE4E1182108283EEAE
:1042E00093E00197F1F742E870E060E0812F0E94CF
:1042F000180A4FEF62E070E0812F0E94180AB601A1
:10430000C114D10491F480917E0290917F020196B4
:104310008115F0EC9F0708F45CC090937F028093B6
:104320007E0260917E0270917F02812F0E94020ABC
:1043300086E0E8E9F2E0DE01199601900D928A9597
:10434000E1F7F70183818F778C8784818D87858161
:104350008E87A7014E5F5F4F24E030E06CE070E095
:10436000812F0E94DB09B601812F0E94EC0926E013
:1043700030E0AE01475F5F4F66E070E0812F0E9442
:10438000DB0961E070E0812F0E94FF1D27E02A9D7C
:10439000C0012B9D900D11249C0121583E4E7901A6
:1043A000F9011182108222E030E0AE01415F5F4FDF
:1043B00068E270E0812F0E94F8208F859889982705
:1043C00089279827F70193838283168215821482A6
:1043D0003ACF80E090ECA1CFCF92DF92EF92FF92A4
:1043E0000F931F93CF93DF9300D000D0CDB7DEB7EC
:1043F0008C016B017A01FC01808D883010F40E94E1
:104400001B1E84EF93E09A838983F6018281938156
:10441000A481B5818B839C83AD83BE83B701CE011C
:1044200001960E940921F801808F8830A0F4F5865A
:10443000E486128E118E81E026960FB6F894DEBFC8
:104440000FBECDBFDF91CF911F910F91FF90EF90E5
:10445000DF90CF90089580E0EFCF7F928F929F9270
:10446000AF92BF92CF92DF92EF92FF920F931F9382
:10447000CF93DF931F921F92CDB7DEB7782E8B01BB
:104480004A01590122E030E0AE014F5F5F4F64E224
:1044900070E00E94F820E980FA80FE24EF24FE24D8
:1044A000E00EF11E970137704091CC11072D10E0FE
:1044B000433309F042C0085F1F4F102F0027110F30
:1044C000110F110FC901800F911F4733C9F1A901C5
:1044D0004A0D5B1D4130584098F160E078E06B0177
:1044E000C21AD30AA601B4010E941A09A5014C19E7
:1044F0005D09B4016C0D7D1DC8010E941A09EA0C0A
:10450000FB1CF982EA8222E030E0AE014F5F5F4F90
:1045100064E270E0872D0E94DB090F900F90DF911D
:10452000CF911F910F91FF90EF90DF90CF90BF90B0
:10453000AF909F908F907F900895005F1F4FBDCFE9
:10454000A501B401DACFEF92FF921F93CF93DF93CF
:104550001F921F92CDB7DEB7182F22E030E0AE01D8
:104560004F5F5F4F60E270E00E94F820E980FA80C0
:10457000FE24EF24FE2422E030E0AE014F5F5F4FC7
:1045800060E270E0812F0E94F82089819A8198274B
:1045900089279827E816F90689F487E0189FF00123
:1045A0001124E158FE4EF582E482C7010F900F906E
:1045B000DF91CF911F91FF90EF9008957C01DBCFA9
:1045C0001F93CF93DF93182F80E591E00E94530A49
:1045D000812F0E94A322EC01812F0E94341E87317B
:1045E00021F08C3111F0D0E0C0E0CE01DF91CF910D
:1045F0001F910895CF93DF93EC018C85883060F490
:104600000E94381E873111F08C3131F48C850E9464
:10461000E0228115984088F3DF91CF910895FC0145
:104620008485883010F40C94E02290E080E00895B6
:10463000CF92DF92EF92FF921F93CF93DF93182FC9
:104640007B01EA014130584010F0C0E0D8E080E53D
:1046500091E00E94530A812F0E94A3226C01812FB6
:104660000E94341E873111F08C3121F5CC16DD0605
:1046700070F380E591E00E94530A9E01A70170E06B
:1046800060E0812F0E942D2260E270E0812F0E9465
:10469000FF1D62E070E0812F0E94E21D84FD0DC0CD
:1046A000812F0E94341E8823B9F080E591E00E949A
:1046B000530AEFCFD0E0C0E0DCCF40E162E070E031
:1046C000812F0E94180ACE01DF91CF911F91FF9098
:1046D000EF90DF90CF900895D0E0C0E0F4CF0F933B
:1046E0001F93CF93DF938C01EA01FC01848588300E
:1046F00048F40E941823892B39F481E090E0F801F6
:1047000093838283D0E0C0E0CE01DF91CF911F91EF
:104710000F9108959F92AF92BF92CF92DF92EF9246
:10472000FF920F931F93CF93DF938C015B01942E25
:10473000E52EFC01C688D788F08C80E591E00E94C8
:10474000530A8F2D0E94A322C92DDE2D8C179D07A1
:1047500008F4EC019E01A501B6018F2D0E942D22C7
:10476000F801868997898C0F9D1F978B868BCE01C8
:10477000DF91CF911F910F91FF90EF90DF90CF903D
:10478000BF90AF909F900895FF920F931F93CF9388
:10479000DF931F921F92CDB7DEB7F82E22E030E0F4
:1047A000AE014F5F5F4F66E270E00E94F820098122
:1047B0001A8110270127102722E030E0AE014F5F59
:1047C0005F4F66E270E08F2D0E94F82089819A8108
:1047D0009827892798270817190749F4C8010F90C7
:1047E0000F90DF91CF911F910F91FF9008958C0151
:1047F000E3CF1F93CF93DF93182F87E0189FE0013B
:104800001124C158DE4E88819981009761F480E5BA
:1048100091E00E94530A812F0E94C4232E81821BA3
:10482000910999838883DF91CF911F9108959F9279
:10483000AF92BF92CF92DF92EF92FF920F931F93AE
:10484000CF93DF93EC017B018091CC11811121C0CA
:104850001B821A8288EE93E0A0E0B0E08C839D83F7
:10486000AE83BF8388EA93E09983888388E08C874E
:1048700088EE93E09E878D87CE01DF91CF911F91C7
:104880000F91FF90EF90DF90CF90BF90AF909F90EF
:10489000089534E0932E833311F028E0922E87EBB5
:1048A000C82E81E1D82E10E098E0B92EA12CD601B7
:1048B0002D913D916D01F70184819581281739076C
:1048C00091F4812F0E94381E082F873111F08C310E
:1048D00039F5812F0E94F923892B59F50C3119F4F0
:1048E000812F0E940F1E1F5F9112E1CFA11008C0FF
:1048F000D701ED91FC910084F185E02DC701199558
:104900001B821A8288EE93E0A0E0B0E08C839D8346
:10491000AE83BF8388EA93E099838883BC86A8CF5F
:10492000843149F08111DFCFF60132971182108274
:10493000DACFB12ED8CFAA24A394D5CF8F929F924D
:10494000AF92BF92CF92DF92EF92FF920F931F939D
:10495000CF93DF93CDB7DEB72F970FB6F894DEBFB6
:104960000FBECDBF5C014B017A018091CC11882331
:10497000C9F104E0833309F008E0B501CE010196E6
:104980000E94172487EBC82E81E1D82E10E0F60193
:10499000219131916F01F5018481958128173907A3
:1049A00051F4812F0E94381E873129F4A701B401E8
:1049B000812F0E9418231F5F0113E9CFC7012F9693
:1049C0000FB6F894DEBF0FBECDBFDF91CF911F9120
:1049D0000F91FF90EF90DF90CF90BF90AF909F909E
:1049E0008F900895F12CE12CE9CFFC01848588306B
:1049F00010F40C94F92390E080E008954F925F92B8
:104A00007F928F929F92AF92BF92CF92DF92EF925E
:104A1000FF920F931F93CF93DF931F921F92CDB7F7
:104A2000DEB7782E6B014A01A82EB12C27E0829FB9
:104A3000C0011124FC01E158FE4E7F01008111816B
:104A400080E591E00E94530A0815190554F4872D5A
:104A50000E94C423F70126818C01021B11091183D6
:104A600000830115110519F5872D0E94341E84312C
:104A700059F0882349F001E010E08C3111F410E086
:104A800000E0119501951109C8010F900F90DF9179
:104A9000CF911F910F91FF90EF90DF90CF90BF903B
:104AA000AF909F908F907F905F904F900895801669
:104AB00091060CF4840187E08A9DF0018B9DF00D36
:104AC0001124E158FE4EE280F380C114D10451F16B
:104AD0002701F7E05F22872D0E949C06840D951D1B
:104AE0002091CC11273309F453C09801240D351DB2
:104AF0002130384008F44CC020E038E049018418E7
:104B00009508A401B6010E94571D2601480C591CA6
:104B10006801C818D908872D0E949C06A601B20119
:104B20000E94571DE00EF11E87E08A9DF0018B9DCB
:104B3000F00D1124E158FE4EF382E2822081318192
:104B4000201B310B318320838681800F912F911D93
:104B50008A3F910510F4232BF1F487E08A9DF00140
:104B60008B9DF00D1124E158FE4E1682F982EA82E7
:104B700022E030E0AE014F5F5F4F68E270E0872DCA
:104B80000E94DB0960E470E0872D0E94FF1D7CCF4E
:104B9000A801B601C5CF868377CFCF93DF93FC0101
:104BA000218D328D2115310529F48FEF9FEFDF9193
:104BB000CF910895EC01808D4217530708F0A901A9
:104BC0000E94FE241816190684F7298D3A8D281B99
:104BD000390B3A8F298FEBCF0F931F93CF93DF932E
:104BE0001F92CDB7DEB7FC01218D328D232B41F40E
:104BF0008FEF9FEF0F90DF91CF911F910F9108954D
:104C00008C0141E050E0BE016F5F7F4FFC01808D61
:104C10000E94FE24181619065CF7F801818D928D0A
:104C20000197928F818F898190E0E4CFCF93DF93BA
:104C30001F92CDB7DEB741E050E0BE016F5F7F4FFE
:104C4000FC0184850E94FE241816190634F489811B
:104C500090E00F90DF91CF9108958FEF9FEFF9CF04
:104C6000FC018485883010F40C94FE2490E080E0F0
:104C700008958F929F92AF92BF92CF92DF92EF9260
:104C8000FF920F931F93CF93DF9300D000D000D0FB
:104C90001F92CDB7DEB79091CC11911115C018E0DD
:104CA000812F2A960FB6F894DEBF0FBECDBFDF91DD
:104CB000CF911F910F91FF90EF90DF90CF90BF9019
:104CC000AF909F908F90089528E0F22E933311F4C7
:104CD00094E0F92E6B01082F80E591E00E94530AC1
:104CE0009E012F5F3F4F5901490110E0812F0E9423
:104CF000341EF40181934F018823C1F01F5FF1122C
:104D0000F5CFF12CF50191915F019D3149F098317A
:104D100039F09A51923020F0F3941F11F3CFBFCFA6
:104D200060E170E08F2D0E94FF1D1F2DE12EF12C00
:104D3000F701EE0FFF1FE954FE4E1182108283EE41
:104D400093E00197F1F7402F70E060E0812F0E941F
:104D5000180A4FEF62E070E0812F0E94180AB60136
:104D6000CD2889F480917E0290917F020196811571
:104D7000F0EC9F0798F190937F0280937E02609100
:104D80007E0270917F02812F0E94020A61E070E032
:104D9000812F0E94FF1D27E02E9DC0012F9D900DA9
:104DA00011249C0121583E4E7901F9011182108293
:104DB00022E030E0AE01475F5F4F68E270E0812F94
:104DC0000E94F82089859A85982789279827F701D6
:104DD0009383828316821582148262CF80E090ECE6
:104DE000CACF0F931F93CF93DF93EC018B01888D74
:104DF000883010F40E941B1EB80182E00E94392600
:104E0000888F883050F41D870C871A8E198E81E0A8
:104E1000DF91CF911F910F91089580E0F9CF0F930B
:104E20001F93CF938C01FC016481758181E20E9404
:104E30003926C82F8830F8F480E591E00E94530AA3
:104E40008C2F0E94341E833131F08C2FCF911F9113
:104E50000F910C940F1E62E070E08C2F0E94FF1DDA
:104E6000F80184819581EC2FF0E0EE0FFF1FE954EB
:104E7000FE4E91838083CF911F910F910895CF9221
:104E8000DF92EF92FF921F93CF93DF93EC017B01B0
:104E90006A018C85883048F40E94381E882319F0F6
:104EA0008C850E940F1E88E08C87F7018281938198
:104EB000A481B5810097A105B10551F490E080E08F
:104EC000DF91CF911F91FF90EF90DF90CF900895E9
:104ED0008F3F9F4FAF4FBF4F89F370E060E081E29B
:104EE0000E943926182F8C87883040F780E591E0A2
:104EF0000E94530AA7014E5F5F4F24E030E06CE050
:104F000070E0812F0E94DB09B601812F0E94EC091D
:104F100064E070E0812F0E94FF1D0E9460066B011B
:104F20007C018C850E94381E873111F18C3101F192
:104F3000882321F20E946006AB01BC014C195D0977
:104F40006E097F098D859E85B0E0A0E084179507E6
:104F5000A607B70738F061E070E080E090E00E94BB
:104F60002D06DFCF8C850E941B1E88E08C87A6CF84
:104F700081E090E0A5CF0F931F93CF93DF931F9213
:104F80001F92CDB7DEB7FC0124852830E0F48C01F8
:104F900080E591E00E94530A22E030E0AE014F5FCD
:104FA0005F4F60E170E0F80184850E94F8208981FC
:104FB0009A819827892798270F900F90DF91CF919A
:104FC0001F910F91089590E080E0F6CF0F931F930B
:104FD000CF93DF931F921F92CDB7DEB7FC012485DC
:104FE0002830E0F48C0180E591E00E94530A22E031
:104FF00030E0AE014F5F5F4F64E070E0F801848500
:105000000E94F82089819A819827892798270F90F4
:105010000F90DF91CF911F910F91089590E080E064
:10502000F6CF0F931F93CF93DF9300D000D01F9242
:105030001F92CDB7DEB78C01D80159964D915C9186
:105040005A974115510551F0ED91FC91048CF58D65
:10505000E02D70E060E0C8011995EECFF801808D79
:105060000E94F923892BB1F148E050E0BE016F5F47
:105070007F4FD80158968C910E94FE24181619066D
:10508000F4F4D801509684E0FE01319601900D921F
:105090008A95E1F78D8190E0982F88272E81820FE5
:1050A000911DF801958B848B8F81282F30E0322F52
:1050B00022278885820F932F911D928F818F2896AA
:1050C0000FB6F894DEBF0FBECDBFDF91CF911F9119
:1050D0000F91089590E080E0F2CF4F925F926F922F
:1050E0007F928F929F92AF92BF92CF92DF92EF9278
:1050F000FF920F931F93CF93DF93CDB7DEB76397E4
:105100000FB6F894DEBF0FBECDBF7C016B013A0134
:10511000FB0120E090E080E06AE03191332309F464
:1051200061C040ED430F4A3008F04DC0689FA001B8
:10513000699F500D1124CA01C097830F911D37FD3F
:105140009A958F3F910549F340F3F70142815381CE
:10515000648175818091981490919914A0919A140A
:10516000B0919B14481759076A077B0709F40DC2D1
:105170008701085F1F4F0E9460066F7077277C5F72
:10518000C8010E94F126813009F004C284EF93E047
:105190009A838983F70182819381A481B5818B836E
:1051A0009C83AD83BE8345E350E0BE016F5F7F4FBC
:1051B000C8010E94560A892BA9F5D12CC12CC8011F
:1051C0000E94271E17C03E3209F0BFCF233009F4DA
:1051D000BCCFD301A20FB11D12968C932F5F90E02C
:1051E00080E09BCF233009F0B0CFF3018583CC243E
:1051F000C394D12CC60163960FB6F894DEBF0FBEE0
:10520000CDBFDF91CF911F910F91FF90EF90DF9075
:10521000CF90BF90AF909F908F907F906F905F9056
:105220004F9008950E946006F7017783668342E0FD
:1052300050E0B7016A5F7F4FC8010E948A2381E076
:1052400090E09A83898342E050E0BE016F5F7F4F18
:10525000C8010E948A2380E091E09A83898342E01A
:1052600050E0BE016F5F7F4FC8010E948A231A82FF
:10527000198242E050E0BE016F5F7F4FC8010E947B
:105280008A2342E050E0BE016F5F7F4FC8010E9459
:105290008A2342E050E0BE016F5F7F4FC8010E9449
:1052A0008A235601F6018081882301F16501F60108
:1052B00081912F01882311F08E32B1F446018A18B2
:1052C0009B081814190474F48D8641E050E0BE0167
:1052D000635F7F4FC8010E948A23A401B501C80102
:1052E0000E948A235201DECF6201E1CF1D8641E098
:1052F00050E0BE01635F7F4FC8010E948A23C12C2A
:10530000DD24D394DA82C98242E050E0BE016F5FAF
:105310007F4FC8010E948A23DA82C98242E050E0AE
:10532000BE016F5F7F4FC8010E948A23C8010E949F
:10533000C91E892B09F441CFF3E0AF2EB12C230114
:1053400022E0420E511CD4C0F70142815381648196
:105350007581808D918DA28DB38D481759076A078D
:105360007B0709F008C1848D958DC59709F003C1AD
:1053700081A192A15DEFC52EDD24DA940C970CF487
:10538000ADC04CE050E0BE016F5F7F4FC8010E948E
:10539000CD258B819C819827892798279A8B898B8B
:1053A000F7014681578129813A814217530709F055
:1053B000E7C097FFE5C08F7092703BEFC32EDD24EE
:1053C000DA94892B09F08AC06F8078847624672468
:1053D00076242AEFC22EDD24DA946114710409F4D4
:1053E0007DC0D12CC12C8D819E819827892798273B
:1053F000C816D906F8F441E050E0BE01635F7F4F64
:10540000C8010E94CD254D85442331F050E070E065
:1054100060E0C8010E94CD258D858111ECCF44E06C
:1054200050E070E060E0C8010E94CD25FFEFCF1A88
:10543000DF0AD9CF912C812C41E050E0BE016D5E96
:105440007F4FC8010E94CD254B89842F807C09F0B5
:105450006CC0442331F050E070E060E0C8010E946D
:10546000CD258B898111E8CF42E050E0BE01615F1C
:105470007F4FC8010E94CD2542E050E0BE01635F2E
:105480007F4FC8010E94CD2544E050E070E060E00D
:10549000C8010E94CD2542E050E0BE016F5E7F4F03
:1054A000C8010E94CD258F85988949895A8981151F
:1054B000914009F043C0CD84DE84DC24CD24DC247B
:1054C00081E0C816D104D1F54115544009F04AC015
:1054D00044E050E0B201C8010E94CD2521E0A21AAB
:1054E000B10809F46CCEFFEFCF16DF0609F067CEE6
:1054F0000E9460063B014C01C8010E941128181649
:1055000019060CF421CF0E946006661977098809F4
:105510009909693873418105910548F562E370E0A6
:1055200080E090E00E942D06E7CF41E050E070E07F
:1055300060E0C8010E94CD251B8A93CF54274527E0
:10554000542770E060E0C8010E94CD25FFEF8F1A5C
:105550009F0A6814790409F06FCF96EFC92EDD24F5
:10556000DA94BCCFE7EFCE2EDD24DA94B7CFCC248B
:10557000CA94DC2CB3CF6EEFC62EDD24DA94AECF06
:105580004CEFC42EDD24DA94A9CF8EEFC82EDD2493
:10559000DA9430CED12CC12C2DCECF92DF92EF9267
:1055A000FF920F931F93CF93DF93CDB7DEB7AF97E3
:1055B0000FB6F894DEBF0FBECDBF7C016A0104EFC9
:1055C00013E01A8309831C861B8688EE93E0A0E013
:1055D000B0E08D879E87AF87B88B8DED92E09A877C
:1055E0008987188F0F8B198E1A8E1B8E1C8E88E060
:1055F00089A31BA70AA71CA61DA61EA61FA68091ED
:105600008C1490918D14A0918E14B0918F148EA350
:105610009FA3A8A7B9A78B839C83AD83BE8318865D
:105620001F82AE01465D5F4FCE0101960E946D283C
:1056300081309105B1F4D701ED91FC910488F58991
:10564000E02D1DA30CA38CA59DA5AEA5BFA58EA383
:105650009FA3A8A7B9A7A601BE016C5D7F4FC70194
:105660001995AF960FB6F894DEBF0FBECDBFDF9190
:10567000CF911F910F91FF90EF90DF90CF90089501
:10568000CF92DF92EF92FF920F931F93CF93DF930E
:10569000CDB7DEB7AF970FB6F894DEBF0FBECDBF64
:1056A0008C016B017A0184EF93E09A8389831B82DA
:1056B0001C821D821E821C861B8648EE53E060E021
:1056C00070E04D875E876F87788B2DED32E03A87EB
:1056D0002987988F8F8B198E1A8E1B8E1C8E28E02F
:1056E00029A39BA78AA71CA61DA61EA61FA6D80194
:1056F0001C968C91883060F40E94381E882321F01B
:10570000F80184850E940F1E88E0D8011C968C93B6
:1057100080918C1490918D14A0918E14B0918F145F
:105720008EA39FA3A8A7B9A78B839C83AD83BE83B9
:1057300018861F82AE01465D5F4FB601CE0101960D
:105740000E946D280097C1F0D801ED91FC9106846C
:10575000F785E02D84EF93E09DA38CA38CA59DA5F8
:10576000AEA5BFA58EA39FA3A8A7B9A7A701BE01F9
:105770006C5D7F4FC8011995AF960FB6F894DEBFE8
:105780000FBECDBFDF91CF911F910F91FF90EF9092
:10579000DF90CF900895EF92FF920F931F93CF93D6
:1057A000DF9300D01F92CDB7DEB78C017B01FB01E8
:1057B00084858830A8F084EF93E0F801918380839A
:1057C0001282138214821582C8010F900F900F90DD
:1057D0000F90DF91CF911F910F91FF90EF9008955F
:1057E00080E591E00E94530A24E030E0AE014F5F73
:1057F0005F4F6CE070E0F70184850E94F82084EF31
:1058000093E0F8019183808389819A81AB81BC8187
:1058100082839383A483B583D7CF85ED8093BC0027
:105820008091F3109091F410A091F510B091F610C2
:105830000796A11DB11D23E0B695A795979587956D
:105840002A95D1F72091BC0024FD03C01092F110DD
:1058500008954091F3105091F4106091F5107091FB
:10586000F610452B462B472B69F30097A105B10590
:1058700041F025E32A95F1F700000197A109B1094C
:10588000E1CF8091F2100C947A073F924F925F9291
:105890006F927F928F929F92AF92BF92CF92DF9240
:1058A000EF92FF920F931F93CF93DF9300D000D01E
:1058B00000D01F921F92CDB7DEB77C01DC01159698
:1058C0008C91811115C0FE013196CE010C966F01AD
:1058D00030E23193E817F907E1F7DA0130E087E0C9
:1058E0009D91B92E992329F19E3239F48A3011F411
:1058F00080E0DAC038E08AE0F3CFEEEAF3E04491EA
:10590000442321F031969413FACFF2CF831780F31A
:105910004FED490F4E3560F74FE9490F4A3118F402
:1059200040EEB42EB90EF601E30FF11DB0823F5FD9
:10593000D7CF89818032E1F2322E8B01FB01838D3A
:10594000948DD7015C969C938E935B9716821782F9
:10595000108611861286138614861586F8018285B4
:105960009385A485B585438954896589768984178B
:105970009507A607B70708F04DC025E0B695A7958F
:10598000979587952A95D1F7F82FFF70AF2ED801FC
:1059900015968C91823008F4ABCFC8010E94811516
:1059A00097FDA6CFF80182859385A485B5854F968E
:1059B000A11DB11D82879387A487B587F0E2AF9EB2
:1059C000B001112461537E4E6115710509F490CF29
:1059D000DB018C91882341F0853E09F058C0BB2043
:1059E00029F0BB24B394BACFB1100EC0F701A28A3C
:1059F0008091650290916602A0916702B091680261
:105A000086879787A08BB18BDB018C918111E9CFC1
:105A1000BB24B394832D8271823109F069CFBB20FE
:105A200009F45AC0C7010E94A90C009709F460CF7D
:105A300020E2FC0111922A95E9F72BE0F601DC0146
:105A400001900D922A95E1F721E238E2DC015196AE
:105A50003C932E93509740E058E01F965C934E93F2
:105A60001E9753963C932E93529759963C932E93A0
:105A7000589757965C934E93569781E00E94340C4A
:105A8000882309F435CF432DF70162890AC04BE022
:105A900050E0C6010E940156892B09F05FCF432DCB
:105AA0006A2DC7010E942A172B960FB6F894DEBF05
:105AB0000FBECDBFDF91CF911F910F91FF90EF905F
:105AC000DF90CF90BF90AF909F908F907F906F901E
:105AD0005F904F903F900895F8018581823009F4DE
