:020000040000FA
:100000000C94FB010C94093A0C94DE390C94B3392E
:100010000C9488390C945D390C9432390C9407395E
:100020000C94DC380C942C020C942C020C942C02B2
:100030000C942C020C942C020C942C020C942C0288
:100040000C942C020C942C020C942C020C942C0278
:100050000C942C020C942C020C942C020C949238CC
:100060000C942C020C945C380C9432380C942C02B6
:100070000C942C020C942C020C942C020C942C0248
:100080000C942C020C942C020C942C020C942C0238
:100090000C942C020C942C020C942C020C94343AE8
:1000A0000C942C020C942C020C942C020C942C0218
:1000B0000C942C020C942C020C942C020C942C0208
:1000C0000C942C020C942C020C942C020C942C02F8
:1000D0000C942C020C942C020C942C020C942C02E8
:1000E0000C942C020C942A050C94F1030C941E150C
:1000F0000C9409040C9426060C94C6020C94FC047F
:100100000C941E120C94E6030C943C060C94060509
:100110000C94EB1D0C9439070C945D060C94622A28
:100120000C943E050C94DA020C94641D0C9491140A
:100130000C9426070C94DD260C94E2030C94200505
:100140000C94CA440C9408270C9415160C9433276D
:100150000C94EE030C9434050C94FA150C94F204F0
:100160000C940A160C94ED2A0C940F040C94F703CB
:100170000C94CA140C9410050C94901D0C945225E8
:100180000C94E5040C9413040C94B7020C946B05C6
:100190000C94491D0C94F11F0C944D050C942104F2
:1001A0000C9418050C9440070C94FE150C94EA036B
:1001B0000C9492060C949A060C946F020C940D16F3
:1001C0000C946D030C9408160C949A140C948202EF
:1001D0000C9461050C9413260C9438250C940E2174
:1001E0000C94ED040C946E020C948A020C9431224F
:1001F0000C94E7140C9469020C94EF290C940104FC
:100200000C94583B0C9405040C9424140C948417FF
:100210000C941C220C946D070C94D2090C94570575
:100220000C941D040C94AC220C94FB030C94CA187F
:100230000C9496060C9491220C9461260C94E8057B
:100240000C94E8020C94AA060C9417240C94520601
:100250000C9417040C940E250C9465020C94002049
:100260000C9417070C9420030C94BA140C946A0293
:100270000C941C040C94EF240C9475050C94B21D82
:100280000C94DC030C9414150C947F050C9431260B
:100290000C94C023273E3C2F696E7075743E3C2F32
:1002A000703E003C696E70757420747970653D27EE
:1002B00074657874272076616C75653D27003C7005
:1002C0003E007C3C3E5E2B3D3F2F5B5D3B2C2A225B
:1002D0005C0000002100240027002A002D003000CF
:1002E000330001010000040107010A0100002000A1
:1002F0002300260029002C002F00320000010000FE
:1003000003010601090100000A0B02090C0D0E0889
:1003100007030401000000000000000000000000CE
:1003200000000000000000000000000000000000CD
:10033000000012111000000000000000000000008A
:10034000000000000000000000000000010210207A
:1003500020080810204010204080020102010804FB
:10036000020101020408102040808040201008048F
:1003700002018004020180402010080402010804E8
:10038000020101020408102040800102040810202C
:10039000408000002200250028002B002E003100A4
:1003A000340002010000050108010B0105050505E7
:1003B000070508080808020202020A0A08080404DD
:1003C000040401010101010101010303030303030B
:1003D0000303040707070C0C0C0C0C0C0C0C02029A
:1003E000020206060606060606060B0B0B0B0B0B97
:1003F0000B0B583BCA4411241FBECFEFD1E2DEBF26
:10040000CDBF00E00CBF1AE0A0E0B2E0E0EEF1E901
:1004100000E00BBF02C007900D92AA31B107D9F7D7
:1004200021E1AAE1BAE001C01D92A03EB207E1F7C6
:1004300011E0CAEFD1E000E006C021970109802F4A
:10044000FE010E946C46C93FD10780E00807A9F76A
:100450000E943D3C0C94DE480C940000CF93DF9347
:10046000FC01828193819093B2118093B1118481B8
:100470009581A681B7818093B3119093B411A09315
:10048000B511B093B61180859185A285B38580930F
:10049000B7119093B811A093B911B093BA11DF01BD
:1004A0001C96CF014996CBEBD1E12D912993A8174A
:1004B000B907D9F7818D928D9093C9118093C81196
:1004C0008FEA91E1DF91CF910895FC01818D928DAA
:1004D0000895089581E08093220E08950895089567
:1004E000FC01248135816217730720F4808191819A
:1004F000009729F41092D40D84ED9DE00895860FA5
:10050000971F08950895DC01ED91FC910190F08111
:10051000E02D1994AF92BF92CF92DF92EF92FF92AB
:100520000F931F93CF93DF936C017B018B01040F1B
:10053000151FEB015E01AE18BF08C017D10759F0B7
:100540006991D601ED91FC910190F081E02DC601F9
:100550001995892B79F7C501DF91CF911F910F91E3
:10056000FF90EF90DF90CF90BF90AF900895FC0187
:10057000538D448D252F30E0842F90E0821B930B08
:10058000541710F0CF96089501970895FC01918DAE
:10059000828D981761F0A28DAE0FBF2FB11D5D96B1
:1005A0008C91928D9F5F9F73928F90E008958FEF53
:1005B0009FEF0895FC01918D828D981731F0828D07
:1005C000E80FF11D858D90E008958FEF9FEF08955E
:1005D000FC01918D228D892F90E0805C9F4F821BC2
:1005E00091098F739927089583E790E10E94E802AB
:1005F00021E0892B09F420E0822F0895FC01A48DCD
:10060000A80FB92FB11DA35ABF4F2C91848D90E034
:1006100001968F739927848FA689B7892C93A08917
:10062000B1898C91837080648C93938D848D9813A1
:1006300006C00288F389E02D80818F7D8083089534
:10064000EF92FF920F931F93CF93DF93EC0181E022
:10065000888F9B8D8C8D98131AC0E889F9898081C9
:1006600085FF15C09FB7F894EE89FF896083E889FC
:10067000F98980818370806480839FBF81E090E0EE
:10068000DF91CF911F910F91FF90EF900895F62E7B
:100690000B8D10E00F5F1F4F0F731127E02E8C8D15
:1006A0008E110CC00FB607FCFACFE889F98980815A
:1006B00085FFF5CFCE010E94FE02F1CFEB8DEC0F4E
:1006C000FD2FF11DE35AFF4FF0829FB7F8940B8F77
:1006D000EA89FB8980818062CFCFCF93DF93EC01E1
:1006E000888D8823B9F0AA89BB89E889F9898C911A
:1006F00085FD03C0808186FD0DC00FB607FCF7CFD6
:100700008C9185FFF2CF808185FFEDCFCE010E94D5
:10071000FE02E9CFDF91CF91089580E090E0892B30
:1007200029F00E94F40281110E94000080E090E014
:10073000892B49F080E090E0892B29F00E9400008D
:1007400081110E94000080E090E0892B49F080E058
:1007500090E0892B29F00E94000081110E94000086
:1007600080E090E0892B49F080E090E0892B29F02F
:100770000E94000081110C94000008958150823184
:1007800008F05AC0E82FF0E08827E653FC4F8F4F5F
:100790000C946C46EA03EE03DC03E203E6031C045C
:1007A000F103F703FB030104050409040F04130418
:1007B0001C0417041D042104809180008F7780930E
:1007C00080000895809180008F7DF9CF8091800016
:1007D000877FF5CF84B58F7784BD089584B58F7DED
:1007E000FBCF8091B0008F778093B0000895809107
:1007F000B0008F7DF9CF809190008F77809390002B
:100800000895809190008F7DF9CF80919000877F2F
:10081000F5CF8091A0008F778093A00008958091FC
:10082000A0008F7DF9CF8091A000877FF5CF8091C8
:1008300020018F77809320010895809120018F7D82
:10084000F9CF80912001877FF5CFCF93DF93282FB9
:1008500030E0F901EA5FFC4F8491F901E45BFC4F61
:10086000D491F901E455FC4FC491CC23A1F081113E
:100870000E94BE03EC2FF0E0EE0FFF1FE451FD4F8E
:10088000A591B491EC91ED2381E090E009F480E032
:10089000DF91CF91089580E090E0FACF1F93CF933E
:1008A000DF93282F30E0F901EA5FFC4F8491F901D2
:1008B000E45BFC4FD491F901E455FC4FC491CC2387
:1008C000A9F0162F81110E94BE03EC2FF0E0EE0F6D
:1008D000FF1FEE56FC4FA591B4918FB7F894EC91A1
:1008E000111108C0D095DE23DC938FBFDF91CF912B
:1008F0001F910895DE2BF8CFCF93DF9390E0FC019A
:10090000E45BFC4F249184559C4FFC018491882327
:10091000D1F090E0880F991FFC01EE52FD4FA59198
:10092000B491FC01EE56FC4FC591D49161110EC0FB
:100930009FB7F8948C91E22FE0958E238C932881B9
:10094000E223E8839FBFDF91CF9108958FB7F8949A
:10095000EC91E22BEC938FBFF6CF1F93CF93DF93F5
:10096000182FEB0161E00E947C04209739F460E0CD
:10097000812FDF91CF911F910C944E04CF3FD10571
:1009800011F461E0F5CFE12FF0E0EA5FFC4FE49174
:10099000E150E23108F0B3C0F0E08827ED52FB4FA0
:1009A0008F4F0C946C46E504ED04F204FC0406053C
:1009B0007F051005180520052A0534053E054D055F
:1009C00057057F0561056B05750584B5806884BD95
:1009D000C7BDDF91CF911F91089584B5806284BD1A
:1009E000C8BDF7CF80918000806880938000D0934D
:1009F0008900C0938800EDCF809180008062809351
:100A00008000D0938B00C0938A00E3CF8091800058
:100A1000886080938000D0938D00C0938C00D9CFE4
:100A20008091B00080688093B000C093B300D1CFB4
:100A30008091B00080628093B000C093B400C9CFB1
:100A400080919000806880939000D0939900C0932B
:100A50009800BFCF80919000806280939000D093E7
:100A60009B00C0939A00B5CF8091900088608093DE
:100A70009000D0939D00C0939C00ABCF8091A000CC
:100A800080688093A0008091A0008F7B8093A0005D
:100A9000D093A900C093A8009CCF8091A000806251
:100AA0008093A000D093AB00C093AA0092CF809116
:100AB000A00088608093A000D093AD00C093AC00EC
:100AC00088CF80912001806880932001D0932901F4
:100AD000C09328017ECF8091200180628093200105
:100AE000D0932B01C0932A0174CF8091200188609C
:100AF00080932001D0932D01C0932C016ACFC03880
:100B0000D1050CF03ECF33CF3FB7F8948091D00D94
:100B10009091D10DA091D20DB091D30D26B5A89B87
:100B200005C02F3F19F00196A11DB11D3FBFBA2F7F
:100B3000A92F982F8827BC01CD01620F711D811D3F
:100B4000911D42E0660F771F881F991F4A95D1F7C4
:100B500008958F929F92AF92BF92CF92DF92EF92C1
:100B6000FF926B017C010E9484054B015C01C11462
:100B7000D104E104F104B9F00E94840568197909EF
:100B80008A099B09683E73408105910580F321E045
:100B9000C21AD108E108F10888EE880E83E0981E99
:100BA000A11CB11CE4CFFF90EF90DF90CF90BF90DD
:100BB000AF909F908F9008952FB7F8946091CC0DCF
:100BC0007091CD0D8091CE0D9091CF0D2FBF0895D6
:100BD0000895FC0120812EBD9B012150310941F077
:100BE00051810DB407FEFDCF4EB55EBD4193F5CFEB
:100BF00061507109860F971F0DB407FEFDCF2EB50A
:100C0000FC0120830895E0916E0EF0916F0E8081BB
:100C100090916D0E892B80830895E0916E0EF09176
:100C20006F0E908180916D0E809589238083089549
:100C300090E02091700E233339F40C96982F990F81
:100C4000990F990F80E008954896F8CFCF93DF93DE
:100C50001F92CDB7DEB76983DC01ED91FC91028074
:100C6000F381E02D41E050E0BE016F5F7F4F1995A9
:100C70000F90DF91CF910895CF93DF931F92CDB75F
:100C8000DEB76983DC01ED91FC910280F381E02DF8
:100C900041E050E0BE016F5F7F4F19950F90DF91EB
:100CA000CF910895FC019485FB018485981303C0BE
:100CB00081E0983008F080E00895CF93DF931F9291
:100CC000CDB7DEB76983DC01ED91FC910280F38141
:100CD000E02D41E050E0BE016F5F7F4F19950F900E
:100CE000DF91CF910895EF92FF920F931F93CF93CF
:100CF000DF938C017B01D0E0C0E0F701EC0FFD1F1A
:100D00006491662339F0C8010E945D06892B11F0B9
:100D10002196F3CFCE01DF91CF911F910F91FF90DC
:100D2000EF900895FC01848595850895FC018489E0
:100D3000958908952BEB33E0FC0131832083FB017F
:100D40004089518962897389FC014283538364839A
:100D500075830895DC01ED91FC91048CF58DE02DF7
:100D6000199420915A0D260F3327331F2132310554
:100D7000ECF42091A30DFC0190E080E0243069F0B8
:100D800082E00895A0915A0D2191AC01465C524F2A
:100D9000A40FB52FB11D2C930196861798F380915F
:100DA0005A0D680F60935A0D80E0089581E0089510
:100DB0001092A30D81E08093A20D10927D0D61E051
:100DC00084E10E944E0461E085E10E944E04E9EB5B
:100DD000F0E080818E7F808380818D7F808388E4B6
:100DE0008093B80085E48093BC000895CF93DF938F
:100DF00091E09093390D8823B9F0C091B800D0915B
:100E0000BA008091BC008A7B8093BC0060E084E1E2
:100E10000E944E0460E085E10E944E040E94D806C4
:100E2000D093BA00C093B800DF91CF910895E091BC
:100E3000DC0D8091DB0DE81730F4F0E0E75EF24F57
:100E4000808190E008958FEF9FEF08959091DC0DE1
:100E50008091DB0D2FEF3FEF981748F4E92FF0E07A
:100E6000E75EF24F208130E09F5F9093DC0DC90177
:100E700008958091DB0D9091DC0D891B990B0895ED
:100E8000CF92DF92EF92FF920F931F93CF93DF9356
:100E90007C01CB018A012091A90D222389F0EB016D
:100EA0006B01C40ED51ECC15DD0569F06991D70123
:100EB000ED91FC910190F081E02DC7011995F3CFE0
:100EC000642F0E94B106C801DF91CF911F910F914D
:100ED000FF90EF90DF90CF900895CF93DF931F9214
:100EE000CDB7DEB769832091A90D2223F9F02091B7
:100EF000D90D203258F021E030E0FC013383228309
:100F000090E080E00F90DF91CF9108958091DA0D0D
:100F1000E82FF0E0E655F24F998190838F5F809340
:100F2000DA0D8093D90D81E090E0ECCF61E0CE0145
:100F300001960E94B106F7CFCF92DF92EF92FF9217
:100F40000F931F93CF93DF93FC01C48121E0209383
:100F5000A90DC093CA0D1092DA0D1092D90D838598
:100F6000682B86E491E10E946D07D091D90DD132B2
:100F700008F092C00E9484056B017C018091A30D52
:100F8000811165C082E08093A30D81E08093A20D62
:100F90008FEF8093A10D1092A00DD0939F0DAAEA20
:100FA000BDE0EFE7FDE080E0D81385C010927E0D34
:100FB00080917E0DCC0FC82BC0937E0D80917D0D4E
:100FC000813009F07CC010927D0D0E9484056B0178
:100FD0007C0180917E0D8093BB008091A50D909146
:100FE000A60DA091A70DB091A80D892B8A2B8B2B54
:100FF00099F00E9484050091A50D1091A60D2091F5
:10100000A70D3091A80D6C197D098E099F0906174F
:10101000170728073907E0F18091BC0083FDD9CF7D
:1010200085EC8093BC000E9484056B017C0180915B
:10103000A30D823009F445C08091A10D8F3F61F16D
:101040008091A10D803241F18091A10D25C0809148
:10105000A50D9091A60DA091A70DB091A80D892B7B
:101060008A2B8B2B09F48ACF0E9484050091A50D51
:101070001091A60D2091A70D3091A80D6C197D0936
:101080008E099F09061717072807390708F076CF3A
:101090008091A40D0E94F6061092DA0D1092D90DDF
:1010A0001092A90DDF91CF911F910F91FF90EF90BA
:1010B000DF90CF9008959D9191938F5F75CF85EECE
:1010C000B0CF8091A50D9091A60DA091A70DB091E4
:1010D000A80D892B8A2B8B2B09F4A9CF0E9484059C
:1010E0000091A50D1091A60D2091A70D3091A80D8E
:1010F0006C197D098E099F090617170728073907FC
:1011000008F095CFC5CF089561E0FC0184810E946D
:101110004E048091130D81111092130D08958EBD10
:1011200000000DB407FEFDCF8EB50895AF92BF92BB
:10113000CF92DF92EF92FF920F931F93CF93DF93A3
:1011400000D000D01F921F92CDB7DEB78C017B017B
:101150006A018091700E8333E1F45801A40EB51E2C
:10116000A016B10609F46FC00E940D0680EF0E9420
:101170008F08812F0E948F08802F0E948F080F5F99
:101180001F4FF70181917F010E948F080E94030683
:10119000E7CF5B01A40EB51E8433C1F40E940D0697
:1011A00019830A838D2D80688B83CC8264E070E084
:1011B000CE0101960E94E905AE14BF0409F441C0B6
:1011C000F70181917F010E948F08F6CF0E940D06E2
:1011D0000F3F110509F028F419820A8384E08B83FC
:1011E0000CC017FD17C019820A8333E016950795C6
:1011F0003A95E1F7007E0C600B8386E0C816D104B7
:10120000A0F5F701DE011496EA15FB0599F081912E
:101210008D93FACFC80126E0969587952A95E1F738
:10122000807E19830A830115104C10F48461D7CF96
:101230008C61D5CFB6016D5F7F4FCE0101960E94C4
:10124000E9050E940306C60128960FB6F894DEBF92
:101250000FBECDBFDF91CF911F910F91FF90EF9007
:10126000DF90CF90BF90AF90089563E070E0CE0123
:1012700001960E94E905F70181917F010E948F0884
:10128000AE14BF04C1F7DDCFCF93DF931F92CDB76C
:10129000DEB7898341E050E0BE016F5F7F4F90E091
:1012A00080E00E9496080F90DF91CF910895DA01B7
:1012B000E091710EF0E0FE2FEE27E60FF71F90E0B1
:1012C000982F8827A901BD018E0F9F1F0C949608A7
:1012D000CF93DF931F921F92CDB7DEB779836A83D6
:1012E00022E030E0AE014F5F5F4F60E170E00E94AE
:1012F00057090F900F90DF91CF910895CF93DF930F
:101300001F921F92CDB7DEB779836A8322E030E067
:10131000AE014F5F5F4F64E070E00E9457090F908D
:101320000F90DF91CF910895CF93DF931F92CDB7A8
:10133000DEB72091710E30E0322F2227260F371FA3
:1013400090E0982F8827498341E050E0BE016F5F0D
:101350007F4F820F931F0E9496080F90DF91CF91CD
:1013600008958FEF0C948F080F931F93CF93DF9303
:10137000EC010E94DC058B010E94B1098F3F69F0EE
:101380000E94DC05601B710B6C177D07A8F380E0E1
:10139000DF91CF911F910F91089581E0F9CF8CBD1E
:1013A0009DBD0895FF920F931F93CF93DF93EB01A1
:1013B000FC01178A168A2A81211109C02B8121116B
:1013C00006C02C81211103C02D81222301F141157A
:1013D0005105E9F08A01FC01F08C80E591E00E9462
:1013E000CF09AE014E5F5F4F24E030E06CE070E06B
:1013F0008F2D0E945709B8018F2D0E94680981E046
:1014000090E0DF91CF911F910F91FF90089580E0C0
:10141000F7CFCF93DF93EC018091130D811109C0B9
:1014200081E08093130D80915211909153110E948D
:10143000CF0960E08C81DF91CF910C944E048F92A4
:101440009F92AF92BF92FF920F931F93CF93DF9320
:10145000EC01F62E49015A018E81882389F08F8193
:1014600098859C012F5F3F4F38872F8382309240B1
:1014700018F40E94B109F3CFCE010E9484081E82A5
:10148000CE010E94090A8CE291E00E94B4098F2DDE
:1014900080640E948F0808E110E0D501C401002E8D
:1014A00004C0B695A795979587950A94D2F70E94A0
:1014B0008F0808501109083F8FEF180771F785E969
:1014C000FF2021F028E087E8F2128FEF0E948F08BA
:1014D00010E00E94B1098A8787FF04C01F3F11F006
:1014E0001F5FF7CFDF91CF911F910F91FF90BF90BA
:1014F000AF909F908F900895AF92BF92CF92DF925E
:10150000EF92FF920F931F93CF93DF93EC0169014A
:10151000C801820F931F8130924050F58E8188233D
:1015200079F088819981AA81BB8184179507A607E4
:10153000B70731F48F819885C816D90608F042C0E4
:10154000488359836A837B838B85833039F089E0B4
:10155000440F551F661F771F8A95D1F79A01AB017B
:1015600061E1CE010E941F0A882389F083E08D8308
:10157000CE010E94840880E0DF91CF911F910F91EE
:10158000FF90EF90DF90CF90BF90AF9008950E94B2
:10159000DC055B010E94B1098A878F3F69F40E94D4
:1015A000DC056A197B096D327140A0F38FE08D83F1
:1015B000CE010E948408DCCF8E3F89F418861F82FA
:1015C00081E08E838F8198858C159D0550F40E9453
:1015D000B1098F819885019698878F83F3CF8DE02D
:1015E000E6CF6701E00EF11E0E94B109F60181937A
:1015F0006F01EE15FF05C1F78F819885080F191F40
:1016000018870F838985882319F001151240A0F0EF
:101610008E81882389F08F8198859C012F5F3F4FB1
:1016200038872F838230924018F40E94B109F3CF9B
:10163000CE010E9484081E8281E09ECFCF92DF926D
:10164000EF92FF920F93CF93DF93EC01690182E158
:10165000411551056105710599F08B85833039F08D
:1016600089E0440F551F661F771F8A95D1F79A01AD
:10167000AB0168E1CE010E941F0A882319F084E0C3
:101680008D832DC08EEF0E948F0876018EEFD81AC1
:10169000F70181917F010E948F08EC14FD04C1F7CE
:1016A0008FEF0E948F088FEF0E948F080E94B10970
:1016B0008A878F71853071F4011116C0CE010E94A6
:1016C000840881E0DF91CF910F91FF90EF90DF9040
:1016D000CF90089581E18D83CE010E948408CE01D0
:1016E0000E94840880E0EECF88E592E00E94B40971
:1016F000811102C085E1C4CF20E030E0A9016DE096
:10170000CE010E941F0A882311F084E1B9CF0E9404
:10171000B1098111FACFD2CF0F934091150D50919D
:10172000160D6091170D7091180D41155105610549
:10173000710599F0082F23E73EE080916B0E9091A0
:101740006C0E0E941E0B882349F01092150D10920A
:10175000160D1092170D1092180D81E00F9108953B
:101760000F93CF93C82F8091140D811105C0C1E054
:101770008C2FCF910F910895409165025091660290
:1017800060916702709168020C2F23E73EE0809120
:101790006B0E90916C0E0E941E0B811102C0C0E076
:1017A000E7CFCC2321F381E00E948C0B8823B9F38F
:1017B0001092140DDDCF8F929F92AF92BF92EF9255
:1017C000FF920F931F93CF934B015C01C42F809125
:1017D000650290916602A0916702B0916802881537
:1017E0009905AA05BB0551F181E00E94B00B81115A
:1017F0000BC080E0CF911F910F91FF90EF90BF90B1
:10180000AF909F908F90089583E7E82E8EE0F82E9A
:1018100000E012E030E020E0B501A40180916B0E01
:1018200090916C0E0E947C0A882319F380926502C5
:1018300090926602A0926702B09268024091140DE5
:101840004C2B4093140D81E0D5CFCF93DF93EC0167
:101850006E857F858889998941E00E94DB0B88230A
:1018600051F08A8920E2829FC00111248D58914F46
:10187000DF91CF91089590E080E0FACF8F929F9210
:10188000AF92BF92CF92DF92EF92FF92CF9324E577
:1018900031E130936C0E20936B0E882309F46DC0F8
:1018A00040E060E070E0CB010E94DB0B81110BC0D7
:1018B00080E0CF91FF90EF90DF90CF90BF90AF90FE
:1018C0009F908F900895809131108F7789F7809144
:1018D0003D1090913E10A0913F10B0914010843681
:1018E0009105A105B10520F3C0903910D0903A10B0
:1018F000E0903B10F0903C10C114D104E104F104DD
:10190000B9F240E0C701B6010E94DB0B882381F2E7
:1019100080917E0E90917F0E8115924049F6A091A4
:10192000830EAA2329F26091810E7091820E6115B7
:10193000710509F4BDCF2091800E222309F4B8CFA0
:10194000A09372112093641190E080E030E0E1E018
:10195000F0E0C82FAF01082E02C0440F551F0A94B3
:10196000E2F72417350769F041E0480F0196893006
:10197000910579F740936D119BCFC12CD12C760145
:10198000C0CF80936D112091890E30918A0E50E066
:1019900040E02115310541F42091970E3091980EC9
:1019A0004091990E50919A0E2093651130936611D3
:1019B000409367115093681146015701860E971E98
:1019C000A11CB11C8092731190927411A092751198
:1019D000B0927611E091840EF091850EF09379111A
:1019E000E0937811B0E00E942846DC01CB01880D1D
:1019F000991DAA1DBB1D80937A1190937B11A09312
:101A00007C11B0937D1125E0EE0FFF1F2A95E1F7C1
:101A1000E150FE4FEF2FFF27E6958E0F9F1FA11D70
:101A2000B11D80936E1190936F11A0937011B093BC
:101A300071118090860E9090870EB12CA12C81148C
:101A4000910441F48090930E9090940EA090950E86
:101A5000B090960EC81AD90AEA0AFB0AC80CD91C1B
:101A6000EA1CFB1C04C0F694E794D794C794CA956B
:101A7000D2F7C0926911D0926A11E0926B11F09284
:101A80006C1185EFC8168FE0D806E104F10428F444
:101A90008CE08093771181E00CCF80E125EFC216B6
:101AA0002FEFD206E104F104A0F380919F0E9091F4
:101AB000A00EA091A10EB091A20E80937A119093E6
:101AC0007B11A0937C11B0937D1180E2E2CF4F9205
:101AD0005F926F927F928F929F92AF92BF92CF92BE
:101AE000DF92EF92FF920F931F93CF93DF93EC015E
:101AF000423051056105710590F480E0DF91CF918E
:101B00001F910F91FF90EF90DF90CF90BF90AF901B
:101B10009F908F907F906F905F904F9008958985F0
:101B20009A85AB85BC850196A11DB11D84179507CB
:101B3000A607B70710F3CB88DC88ED88FE888F896D
:101B4000803109F042C0BB27A72F962F852F48016F
:101B500059012A013B01C80ED91EEA1EFB1E8091C5
:101B6000650290916602A0916702B0916802C81662
:101B7000D906EA06FB0699F58F898031C1F5B301D4
:101B8000A201552766277727440F551F4D58514FFF
:101B9000FA01918280828091140D81608093140DEE
:101BA0008A89823080F08D819E81AF81B8858C0DCD
:101BB0009D1DAE1DBF1D8093150D9093160DA09316
:101BC000170DB093180D81E099CFDB01CA01E7E052
:101BD000B695A79597958795EA95D1F7B8CF40E048
:101BE000C701B6010E94DB0B8111C6CF86CFB301BE
:101BF000A2014F77552766277727440F551F440FBB
:101C0000551F4D58514FFA0180829182A282B382B2
:101C1000C2CF8F929F92AF92BF92CF92DF92EF92FC
:101C2000FF920F931F93CF93DF93FC0181859285E1
:101C3000A385B4850196A11DB11D84179507A6073C
:101C4000B70770F480E0DF91CF911F910F91FF9063
:101C5000EF90DF90CF90BF90AF909F908F900895BE
:101C600083889488A588B6888789803189F5BB27C1
:101C7000A72F962F852FE9016A017B018F01BC01F7
:101C8000CD01680D791D8A1D9B1D80906502909085
:101C90006602A0906702B090680286169706A806B2
:101CA000B90601F5F8018789803111F5DD24EE24AC
:101CB000FF24F601EE0FFF1FED58F14F8081918157
:101CC000B0E0A0E088839983AA83BB8381E0BBCF87
:101CD000DB01CA01C7E0B695A79597958795CA9588
:101CE000D1F7C9CF40E00E94DB0B8111DBCFAACF37
:101CF000E894C7F8DD24EE24FF24F601EE0FFF1F61
:101D0000EE0FFF1FED58F14F80819181A281B381C9
:101D1000BF70D8CF4F925F926F927F92AF92BF9277
:101D2000CF92DF92EF92FF920F931F93CF93DF93A7
:101D300000D01F92CDB7DEB78C0149835A836B83E5
:101D40007C835901C12CD12C7601412C82E0582E84
:101D5000612C712C49815A816B817C819E012F5F9E
:101D60003F4FC8010E94090E882339F1F80185858B
:101D7000A301920104C0220F331F441F551F8A95EF
:101D8000D2F7DA01C901C80ED91EEA1EFB1E49812D
:101D90005A816B817C818789803111F188EF9FEFB7
:101DA000AFEFBFE0481759076A077B0798F2F501C4
:101DB000C082D182E282F38281E00F900F900F9077
:101DC0000F90DF91CF911F910F91FF90EF90DF90D7
:101DD000CF90BF90AF907F906F905F904F9008959D
:101DE00088EF9FEFA0E0B0E0DDCFCF93DF93FC0161
:101DF0002581222321F080E0DF91CF910895EC012D
:101E000080917711803159F582E08583178A108E91
:101E1000118E128E8091781190917911B0E0A0E02E
:101E200025E0880F991FAA1FBB1F2A95D1F7838B26
:101E3000948BA58BB68B80E691E19C8F8B8F81E094
:101E40008C831E821F82188619861A861B861C8622
:101E50001D861E861F86188A198A1A8ACDCF80325F
:101E600051F683E0858340917A1150917B11609106
:101E70007C1170917D11478B508F618F728F9F0104
:101E80002D5E3F4F80E691E10E948A0E8111D3CFF3
:101E9000B2CF8F929F92AF92BF92CF92DF92EF928A
:101EA000FF920F931F93CF93DF93EC018D818111EC
:101EB0000EC080E0DF91CF911F910F91FF90EF90C6
:101EC000DF90CF90BF90AF909F908F9008950B8937
:101ED0001C892D893E89041715072607370748F303
:101EE0004A015B01823031F48A869B86AC86BD86CE
:101EF00081E0E0CF81149104A104B10449F41E8271
:101F00001F82188619861A861B861C861D86F0CFAE
:101F10000A851B852C853D85EB8DFC8D858590E0A4
:101F20000996B901A8014150510961097109082EAA
:101F300004C076956795579547950A94D2F7750131
:101F40006401E1E0CE1AD108E108F10804C0F6947A
:101F5000E794D794C7948A95D2F7C416D506E606B7
:101F6000F70620F0012B022B032B11F58F89988D9A
:101F7000A98DBA8D8E839F83A887B9878E010A5F4A
:101F80001F4FC114D104E104F10409F4ADCF4E8117
:101F90005F816885798598018B8D9C8D0E94090EE3
:101FA00091E0C91AD108E108F1088111EACF81CF87
:101FB000C41AD50AE60AF70AE1CF3F924F925F9220
:101FC0006F927F928F929F92AF92BF92CF92DF9249
:101FD000EF92FF920F931F93CF93DF93CDB7DEB7AE
:101FE0002C970FB6F894DEBF0FBECDBF5C01DC01AD
:101FF0005B968D909C905C9716964D905D906D9041
:102000007C901997411451046104710409F468C06B
:10201000BFEF4B1A5B0A6B0A7B0A312CF4018185F6
:102020009285A385B4859C01AD012F5F3F4F4F4F33
:102030005F4F29873A874B875C87730162011D8256
:102040001E821F821886F40181859285A385B4853E
:102050002D813E814F815885281739074A075B0734
:1020600008F056C089859A85AB85BC858C159D0581
:10207000AE05BF0550F482E0C82ED12CE12CF12C26
:1020800092E0492E512C612C712C9E012F5F3F4F05
:10209000B701A601C4010E94090E8823C9F18981F4
:1020A0009A81AB81BC81892B8A2B8B2B09F126016C
:1020B00037019FEF491A590A690A790A2D813E8131
:1020C0004F8158852F5F3F4F4F4F5F4F2D833E838A
:1020D0004F8358873FEFC31AD30AE30AF30AB3CFFB
:1020E000F40140805180628073803324339496CF12
:1020F000C414D504E604F70409F70FEF1FEF2FEF20
:102100003FE0B701A601C4010E94670D811119C00B
:1021100080E02C960FB6F894DEBF0FBECDBFDF91E6
:10212000CF911F910F91FF90EF90DF90CF90BF90D4
:10213000AF909F908F907F906F905F904F903F9067
:102140000895D50116964D915D916D917C911997E9
:10215000411551056105710539F097018601C401EA
:102160000E94670D8823A1F2D5011696CD92DD92CB
:10217000ED92FC921997332051F0D701C6010196D8
:10218000A11DB11DF40180839183A283B383F50166
:102190008789908DA18DB28D892B8A2B8B2B39F459
:1021A0008481C78AD08EE18EF28E80688483F501A7
:1021B00084818062848381E0ACCF2F923F924F92E2
:1021C0005F926F927F928F929F92AF92BF92CF92C7
:1021D000DF92EF92FF920F931F93CF93DF93EC0167
:1021E0005B012A018D81811115C08FEF9FEFDF9177
:1021F000CF911F910F91FF90EF90DF90CF90BF9004
:10220000AF909F908F907F906F905F904F903F9096
:102210002F9008958C8180FFE8CF0B891C892D8930
:102220003E894A855B856C857D85C201B0E0A0E072
:1022300068017901C41AD50AE60AF70AC816D90650
:10224000EA06FB0618F42801441A550A42011E0149
:1022500026E0220E311C8114910409F4B3C04A8592
:102260005B856C857D856A0181E0D8228B8D9C8D94
:102270008A019B01E9E03695279517950795EA9520
:10228000D1F7ED81E230E1F5FC01628D738D848D33
:10229000958D600F711F821F931F612C22E0722E9B
:1022A0006C187D088614970408F434012C8126FDEF
:1022B00004C06114F2E07F0671F400916502109190
:1022C00066022091670230916802061717072807F7
:1022D000390709F053C040E00E94DB0B882309F462
:1022E00084CFC6018D58914FD5019C01260D371D15
:1022F000FC012E173F0709F460C041914D93F9CFBF
:10230000FC0174807A947022C114D10471F47110AC
:102310000CC0452B462B472B39F58F89988DA98DFD
:10232000BA8D8E839F83A887B987EB8DFC8D6E81D4
:102330007F81888599856250710981099109258578
:1023400004C0660F771F881F991F2A95D2F706854C
:10235000178520893189600F711F821F931F670DB8
:10236000711D811D911D99CF4E815F816885798591
:1023700091010E94090E8111D8CF37CF75018301D9
:102380009601AB01BC0180916B0E90916C0E0E9486
:102390007C0A882309F429CFA60CB71C8A859B8563
:1023A000AC85BD85860D971DA11DB11D8A879B87B4
:1023B000AC87BD87861897084ECF281B390BA20E15
:1023C000B31EECCFC20113CF1F93CF93DF93FC0159
:1023D0002581222371F1162FEC01848187FF1EC015
:1023E000CF010E94250CFC01892B19F18D818230CF
:1023F00040F48B899C89AD89BE89848F958FA68F87
:10240000B78F8F89988D938F828F8F89988DA98DA3
:10241000BA8DB58BA48B8C818F778C83111103C0FF
:102420008C818F7E8C83812FDF91CF911F910C94B3
:10243000B00B80E0DF91CF911F910895FF920F9331
:102440001F93CF93DF93EC018D81813041F090E0B9
:1024500080E0DF91CF911F910F91FF9008958C81C3
:1024600081FFF5CF82FD1BC000916B0E10916C0EA9
:10247000C8010E94090A0E94B109F82EC8010E94F1
:1024800084088FEFF812E3CF8C8185FF1BC060E0DA
:10249000CE010E94E4118C818F7D8C83D8CF4B8933
:1024A0005C896D897E898A859B85AC85BD8584170D
:1024B0009507A607B707C1F2CE010E94490F811107
:1024C000D3CFC5CF4091150D5091160D6091170DCA
:1024D0007091180D452B462B472B21F080E00E9470
:1024E0008C0BB5CF80618C832A853B85317080E071
:1024F00092E0821B930BADCFCF93DF93EC0161E0B1
:102500000E94E411882311F01D8281E0DF91CF91B8
:1025100008952F923F924F925F926F927F928F9287
:102520009F92AF92BF92CF92DF92EF92FF920F9362
:102530001F93CF93DF9300D01F921F92CDB7DEB7CA
:102540007C015B01342E5D83DC0115968C9115971F
:10255000813009F0CEC014962C9021FECAC022FC16
:10256000B4C0C32CDD8022947FE027222094B22DBA
:10257000B1702B2ED7011A964D915D916D917C9182
:102580001D97C114D10409F428C15B968D919C91CB
:102590005C97FC0174807A948A019B0169E036950E
:1025A0002795179507956A95D1F770228A011170C2
:1025B000711020C001151105E9F416964D915D9139
:1025C0006D917C911997411551056105710509F0CF
:1025D00099C057968D919D910D90BC91A02D00971B
:1025E000A105B10509F0B0C0C7010E94DD0F882325
:1025F00009F47FC080E092E0801B910B46018C15AE
:102600009D0508F44C01D7015B964D915C915C9758
:1026100016968D919D910D90BC91A02D0297A109C8
:10262000B109FA01258504C0880F991FAA1FBB1F95
:102630002A95D2F74685578560897189840F951F41
:10264000A61FB71F9C01AD01270D311D411D511D56
:1026500029013A01811432E0930609F07BC0809190
:10266000650290916602A0916702B091680284159C
:102670009505A605B70559F48FEF9FEFDC01809310
:10268000650290936602A0936702B0936802022DE0
:102690009501B301A20180916B0E90916C0E0E9486
:1026A0001E0B882331F19EEFB91AC818D908F7011B
:1026B00082859385A485B585880D991DA11DB11DC1
:1026C00082879387A487B58755CFF70143895489BB
:1026D0006589768982859385A485B58548175907CC
:1026E0006A077B0709F43DCFC7010E94490F81119A
:1026F00038CF81E090E0D70113969C938E93129788
:1027000080E007C09E012F5F3F4F0E94090E81119C
:1027100002C090E079C089819A81AB81BC81F701C8
:10272000238D348DF901278948EF5FEF60E070E079
:10273000203121F048EF5FEF6FEF7FE084179507BE
:10274000A607B70708F050CFF70186839783A087C5
:10275000B18750CF0115110599F5D7011A964D9102
:102760005D916D917C911D9753968D919D910D90EA
:10277000BC91A02D481759076A077B0708F181E033
:102780000E94B00B882309F4B4CF409265025092A6
:10279000660260926702709268028091140D8160F7
:1027A0008093140DC8018D58914FD5019C01280DBF
:1027B000391DFC012E173F0759F04D914193FACF77
:1027C00041E0C301B2010E94DB0B8111EBCF91CF3D
:1027D000281B390BA20EB31E68CFF7018389948999
:1027E000A589B68984179507A607B70738F48481A9
:1027F000438B548B658B768B80688483F70184814F
:1028000083FD1AC0832D9D810F900F900F900F9024
:102810000F90DF91CF911F910F91FF90EF90DF907C
:10282000CF90BF90AF909F908F907F906F905F9070
:102830004F903F902F90089561E0C7010E94E411EE
:10284000882309F456CFDECFCF93DF931F92CDB705
:10285000DEB7698341E050E0BE016F5F7F4F0E94A9
:1028600089120F90DF91CF910895FC01DB01129640
:102870008D919C9113979383828381E993E0918357
:10288000808314968C911497848315968C91159758
:10289000858316964D915D916D917C911997468334
:1028A0005783608771871A964D915D916D917C91E8
:1028B0001D9742875387648775871E964D915D915A
:1028C0006D917C91519746875787608B718B52969B
:1028D0008C915297828B53964D915D916D917C9125
:1028E0005697438B548B658B768B57964D915D91A4
:1028F0006D917C915A97478B508F618F728F5B9649
:102900008D919C91948F838F0895DC015996ED9160
:10291000FC91309721F081E09581911101C080E018
:102920000895FC01818D928D009719F061E00C945F
:10293000E4110895DC015996ED91FC913097B9F0BE
:1029400083899489A589B68942855385648575856F
:10295000841B950BA60BB70B811520E89207A105E8
:10296000B10538F08FEF9FE7A0E0B0E0089590E068
:1029700080E00895DC0159968D919C91009739F083
:10298000DC01ED91FC910480F581E02D199490E03B
:1029900080E00895CF93DF93EC01E98DFA8D3097B5
:1029A00049F481E090E09B838A8390E080E0DF91AE
:1029B000CF91089513821282898D9A8D0E94891277
:1029C000E98DFA8D22813381232B59F7F0CFCF93F4
:1029D000DF931F92CDB7DEB76983DC01ED91FC91E7
:1029E0000280F381E02D41E050E0BE016F5F7F4F38
:1029F00019950F90DF91CF910895CF93DF931F9298
:102A0000CDB7DEB741E050E0BE016F5F7F4F0E945F
:102A1000DD10019731F4898190E00F90DF91CF9123
:102A200008958FEF9FEFF9CFFC01818D928D009774
:102A300011F00C94FD148FEF9FEF08950F931F93E7
:102A4000CF93DF93EC01898D9A8D10E000E0009721
:102A500099F00E94FD148C010F3F100769F0898DD9
:102A60009A8DFC01428553856485758541505109D5
:102A7000610971090E94490FC801DF91CF911F912F
:102A80000F910895CF93CFB7F8948091120D8111D3
:102A900027C0E1EEF3E08491E1E8F3E09491E82FC0
:102AA000F0E0EE0FFF1FEE52FD4FA591B491EC91B7
:102AB000E92321F461E085E30E944E0461E085E3AF
:102AC0000E947C048CB580618CBD8CB580648CBD0B
:102AD00061E084E30E947C0461E083E30E947C0463
:102AE0008091120D8F5F8093120DCFBFCF9108950B
:102AF000FC01DB0112968D919C9113979383828345
:102B000014964D915D916D917C91179744835583F7
:102B10006683778318964D915D916D917C911B979B
:102B2000408751876287738784EA92E0918380832C
:102B30001C968C911C9784871D968D919C919687ED
:102B400085870895CF93DF93C1E3D3E088812296F0
:102B500060E00E944E0483E0C134D807B9F7C1E4B5
:102B6000D3E08881229670E060E00E94AD0483E0AB
:102B7000C535D807B1F760E08FE1DF91CF910C94B4
:102B80004E048AE10E942504892B49F06CE271E031
:102B900080E090E00E94A90590E080E0089588E13F
:102BA0000E942504892B49F06CE271E080E090E0FE
:102BB0000E94A90581E090E0089586E10E94250425
:102BC000892B49F06CE271E080E090E00E94A90559
:102BD00082E090E008958CE10E942504892B49F061
:102BE0006CE271E080E090E00E94A90583E090E053
:102BF00008950895FC01768765870895DC01ED91BD
:102C0000FC91068CF78DE02D199591E089270895A8
:102C1000862F089581E08627089521E0FC018485B0
:102C2000883008F020E0822F089590E080E0089539
:102C30008F929F92AF92BF92CF92DF92EF92FF92CC
:102C40000F931F93CF93DF9300D01F92CDB7DEB7C2
:102C5000FC018581813091F080E00F900F900F9002
:102C60000F90DF91CF911F910F91FF90EF90DF9028
:102C7000CF90BF90AF909F908F900895848181FFF7
:102C8000EBCF83899489A589B689892B8A2B8B2BD5
:102C900009F45FC07F0140E050E0BA01CF010E941B
:102CA000490F8823C9F2F701C38CD48C8788908C94
:102CB000A18CB28C82E090E0A0E0B0E0F6018083CD
:102CC0009183A283B3839E012F5F3F4FB501A4017F
:102CD000C6010E94090E882309F4BECF00E010E06F
:102CE0009801B501A401C6010E94670D882309F46B
:102CF000B3CF89809A80AB80BC80F6018789803110
:102D000019F188EF9FEFAFEFBFE088169906AA068A
:102D1000BB06C8F2F701178A108E118E128E138A25
:102D2000148A158A168A84818068848361E0C701C9
:102D30000E94E411882309F48FCF40E050E0BA01EB
:102D4000C7010E94490F89CF88EF9FEFA0E0B0E054
:102D5000DCCF81E082CFCF92DF92EF92FF921F9380
:102D6000CF93DF93EC0180E2689FF0011124ED58CE
:102D7000F14F9385917161F0842F827449F080E066
:102D8000DF91CF911F91FF90EF90DF90CF9008954A
:102D9000142F6A8B8091650290916602A091670260
:102DA000B09168028E879F87A88BB98BC488D5881D
:102DB000F12CE12C7601DD24CC24CF8AD88EE98E4B
:102DC000FA8E828D938DB0E0A0E0AC01BD014C295C
:102DD0005D296E297F294F8B588F698F7A8F838564
:102DE0008871B1F4848D958DA68DB78D8B8B9C8B5E
:102DF000AD8BBE8B81E08D831F701C831E821F8272
:102E0000188619861A861B861C861D8681E0B8CF17
:102E1000803109F0B4CF9E012D5E3F4F8B8D9C8D8C
:102E20000E948A0E882309F4AACF84E0E4CF0F938E
:102E30001F93CF938C01C62F0E949C076C2F646058
:102E4000C8010E949C076C2F6B7FC8010E949C07E1
:102E500083EC90E00197F1F7CF911F910F910895C6
:102E60000F931F93CF93DF938C01D62FC42F607FD6
:102E7000642B0E94171780E1D89FB00111246C2B9E
:102E8000C801DF91CF911F910F910C941717CF9329
:102E9000DF9300D000D01F921F92CDB7DEB798E02D
:102EA000EFE8F2E0DE01119601900D929A95E1F7BC
:102EB0009091D211961710F46FEF690F262F30E022
:102EC000220F331F41E050E04C0F5D1F240F351FD0
:102ED000F9016081680F606840E08AEC91E1289612
:102EE0000FB6F894DEBF0FBECDBFDF91CF910C942B
:102EF000301740E061E08AEC91E10E9430178BE3EB
:102F00009FE10197F1F7089541E00E94301781E0B9
:102F100090E00895CF93DF932091AD113091AE11E1
:102F2000232B89F0FC01C091A911D091AA116081D5
:102F30007181CE010E94C448009729F08C1B9D0B23
:102F4000DF91CF9108958FEF9FEFFACFFC01808141
:102F50009181009711F00C9417470895CF93DF9358
:102F6000EC01898D9A8D009741F00E947C12898D29
:102F70009A8D0E9417471A8E198EDF91CF9108956E
:102F80000F931F93CF93DF938C01EB01FC018081A2
:102F900091810097E1F06881798161157105A9F04F
:102FA000428153812C813D814217530770F00E946A
:102FB000AE488C819D81F801958384831D821C829B
:102FC000DF91CF911F910F9108950E94174788813B
:102FD0009981F801918380838A819B819383828385
:102FE0008C819D8195838483198218821B821A8229
:102FF000E5CF0E948148FB0101900020E9F731975D
:10300000AF01461B570BDC01ED91FC910280F3816F
:10301000E02D1994CF93DF93FC01448155816081A9
:10302000718183E790E10E948A02EC016DEC73E00C
:1030300083E790E10E94FB178C0F9D1FDF91CF91DA
:1030400008958F929F92AF92BF92EF92FF920F934B
:103050001F93CF93DF93CDB7DEB7A1970FB6F89448
:10306000DEBF0FBECDBF7C01FA01CB0119A2223019
:1030700008F42AE08E010F5D1F4F822E912CB12C97
:10308000A12CBF01A50194010E943B46F901CA0190
:103090006A300CF5605DD8016E938D01232B242BD3
:1030A000252B79F790E080E0109721F0BD01C70152
:1030B0000E94FB17A1960FB6F894DEBF0FBECDBFDE
:1030C000DF91CF911F910F91FF90EF90BF90AF9044
:1030D0009F908F900895695CDECFCF92DF92EF9240
:1030E000FF920F931F93CF93DF9377FF1DC06A0169
:1030F0007B01EC016DE20E9483028C01442755277D
:10310000BA014C195D096E097F092AE0CE010E94BF
:103110002118800F911FDF91CF911F910F91FF9088
:10312000EF90DF90CF9008952AE0DF91CF911F912B
:103130000F91FF90EF90DF90CF900C942118CF93D8
:10314000DF93AC01990F660B770B83E790E10E9448
:103150006D18EC016DEC73E083E790E10E94FB17C2
:103160008C0F9D1FDF91CF910895CF93DF93AB011B
:10317000BC012AE083E790E10E942118EC016DEC8C
:1031800073E083E790E10E94FB178C0F9D1FDF9196
:10319000CF9108958F929F92AF92BF92CF92DF927C
:1031A000EF92FF920F931F93CF93DF937C018B01DC
:1031B0006C0182E0C80ED11C4701E5E08E0E911C27
:1031C000D0E0C0E0F60141916F0150E070E060E0B6
:1031D0002AE0C8010E9421185C016EE2C8010E9429
:1031E00083028A0D9B1DC80FD91FC814D90451F73B
:1031F000F701458150E070E060E02AE0C8010E94DC
:1032000021188C0F9D1FDF91CF911F910F91FF907F
:10321000EF90DF90CF90BF90AF909F908F900895E8
:103220000F931F93CF93DF938C01D0E0C0E0611523
:10323000710519F00E94FB17EC016DEC73E0C801F9
:103240000E94FB178C0F9D1FDF91CF911F910F9153
:1032500008956115710511F00C94FB1790E080E062
:1032600008958091070E63E0882349F080E00E9472
:10327000471760ED73E08AEC91E10C94291980E026
:103280000E94471768ED73E0F6CF4F925F926F92FE
:103290007F928F929F92AF92BF92CF92DF92EF92E6
:1032A000FF920E9431190E94DC054B015C0161E034
:1032B00084E20E944E040E94DC05681979098A099B
:1032C0009B0960367A4E8105910528F486E20E94BA
:1032D0002504019781F30E94DC056B017C010E94AB
:1032E000DC052B013C01481859086A087B0860E09E
:1032F00084E20E944E0462E080E648168AEE580698
:1033000061047104F8F080E00E94471760EE73E0FA
:103310008AEC91E10E94291962E080E00E9447173F
:1033200065EF73E08AEC91E1FF90EF90DF90CF9032
:10333000BF90AF909F908F907F906F905F904F90D5
:103340000C94291980E00E94471761E074E08AEC30
:1033500091E10E94291962E089E00E944717B701B4
:10336000A601481959096A097B098AEC91E10E9472
:103370006D1868EA74E0D6CF0E94791766E174E0B0
:103380008AEC91E10E9429198091FD0D60E088236B
:1033900049F081E10E94471761E274E08AEC91E113
:1033A0000C94291982E10E94471765E274E0F6CF78
:1033B000CF93DF93EC01662341F00E94791768E216
:1033C00074E08AEC91E10E94291961E080E00E949A
:1033D0004717AE010D2E000C660B770B8AEC91E1BE
:1033E0000E946D18C83ED34044F463EF73E08AEC4A
:1033F00091E1DF91CF910C942919DF91CF9108953C
:10340000CF93DF93EC010E9479176BE374E08AECB1
:1034100091E10E94291961E080E00E944717AE0106
:10342000DD0F660B770B8AEC91E1DF91CF910C9465
:103430006D18CF93DF93EC010E9479176EE774E06B
:103440008AEC91E10E942919209751F460E083E110
:103450000E9447176AE474E08AEC91E10E942919FE
:1034600061E080E00E94471763EC74E08AEC91E130
:103470000E942919C130D10551F461E083E10E9415
:1034800047176AE474E08AEC91E10E94291962E02E
:1034900080E00E94471760ED74E08AEC91E10E94A1
:1034A0002919C230D10551F462E083E10E94471727
:1034B0006AE474E08AEC91E10E94291963E080E0FB
:1034C0000E94471764EF74E08AEC91E10E94291989
:1034D000239761F463E083E10E9447176AE474E094
:1034E0008AEC91E1DF91CF910C942919DF91CF9172
:1034F0000895CF93DF93EC010E9479176CE474E098
:103500008AEC91E10E942919209751F460E083E14F
:103510000E9447176AE474E08AEC91E10E9429193D
:103520008091200E9091210E892B09F046C061E018
:1035300080E00E94471768E574E08AEC91E10E9400
:103540002919C130D10551F461E083E10E94471788
:103550006AE474E08AEC91E10E94291962E080E05B
:103560000E94471768E274E08AEC91E10E942919F1
:10357000C230D10551F462E083E10E9447176AE44A
:1035800074E08AEC91E10E94291963E080E00E94D6
:10359000471767E674E08AEC91E10E9429192397A6
:1035A00061F463E083E10E9447176AE474E08AEC07
:1035B00091E1DF91CF910C942919DF91CF9108957A
:1035C0008091200E9091210E8130910509F484C0E4
:1035D0001CF4892B49F008958230910509F481C0CB
:1035E000039709F492C008950E94791761E774E087
:1035F0008AEC91E10E94291961E080E00E9447175E
:1036000066E874E08AEC91E10E9429198091F30D3B
:103610009091F40D0A9734F463EF73E08AEC91E132
:103620000E9429194091F30D5091F40D052E000CC4
:10363000660B770B8AEC91E10E946D1862E080E0E6
:103640000E94471769E974E08AEC91E10E94291908
:103650008091790290917A02A0917B02B0917C02D4
:10366000883E9340A105B10530F463EF73E08AEC26
:1036700091E10E9429194091790250917A0260915A
:103680007B0270917C022AE08AEC91E10E94211871
:1036900067EA74E08AEC91E10E94291963E080E016
:1036A0000E9447176BEA74E08AEC91E10E942919A5
:1036B0008091FD0D63E0882349F081E10E94471766
:1036C00061E274E08AEC91E10C94291982E10E9494
:1036D00047176AEB74E0F6CF0E9479176DEB74E040
:1036E000F1CF0E9479176AEC74E08AEC91E10E94B4
:1036F000291961E080E00E9447176FED74E08AECC1
:1037000091E10E9429190C9431190E9479176EEEEB
:1037100074E0EBCF0F931F93CF93DF93EC0188817D
:103720009981009759F02A813B812617370730F09D
:1037300081E0DF91CF911F910F9108958B016F5F11
:103740007F4F0E94A047009759F0998388831B837D
:103750000A832C813D81232B59F7FC011082E8CF8D
:1037600080E0E7CFEF92FF920F931F93CF93DF9309
:10377000EC017B018A01BA010E948A1B28813981F0
:10378000811114C02115310519F0C9010E94174794
:10379000198218821D821C821B821A82CE01DF913F
:1037A000CF911F910F91FF90EF9008951D830C838F
:1037B000B701C9010E94AE48F1CFFB010190002082
:1037C000E9F73197AF01461B570B0C94B21B0F93CF
:1037D0001F93CF93DF93CDB7DEB762970FB6F89400
:1037E000DEBF0FBECDBF8C01CB01F801118210826C
:1037F00013821282158214824AE0BE016F5F7F4FEE
:103800000E94B745BE016F5F7F4FC8010E94DD1B5C
:1038100062960FB6F894DEBF0FBECDBFDF91CF9199
:103820001F910F910895FC01118210821382128260
:1038300015821482FB0101900020E9F73197AF0156
:10384000461B570B0C94B21BCF92DF92EF92FF9264
:103850000F931F93CF93DF93EC016B017A0146170F
:10386000570720F48D2D6A01E62EF82E6FEC73E0D9
:10387000CE010E94131C0091AD111091AE11C01623
:10388000D10600F5E016F10608F48701E091A911D0
:10389000F091AA11E00FF11FF08010826091A91140
:1038A0007091AA116C0D7D1D61157105A9F0CE01F5
:1038B0000E94DD1B8091A9119091AA11080F191F78
:1038C000F801F082CE01DF91CF911F910F91FF900F
:1038D000EF90DF90CF90089588819981009711F043
:1038E0000E941747198218821D821C821B821A822D
:1038F000E1CFAF92BF92CF92DF92EF92FF920F9300
:103900001F93CF93DF9300D01F92CDB7DEB78C010A
:103910006B017A018091700E8333E9F45B016801D9
:10392000C40ED51EC016D106A9F10E940D068FE067
:103930000E948F08812F0E948F08802F0E948F087D
:103940000F5F1F4F80E00E948F08F50181935F0198
:103950000E940306E7CF843369F50E940D061983A0
:103960000A838F2D8F778B83EC8264E070E0CE0129
:1039700001960E94E905A70170E060E0C6010E947F
:103980009C48E114F10421F0B701C6010E94E90549
:103990000E940306C7010F900F900F900F90DF91C8
:1039A000CF911F910F91FF90EF90DF90CF90BF903C
:1039B000AF9008950E940D060F3F110509F030F4F5
:1039C00019820A831B8263E070E0D1CF17FD0BC020
:1039D00019820A8333E0169507953A95E1F7007E40
:1039E00008600B83F0CFC80126E0969587952A954D
:1039F000E1F7807E19830A830115104C18F4806169
:103A00008B83E1CF8861FCCFCF93DF931F92CDB73B
:103A1000DEB72091710E30E0322F2227260F371F9C
:103A200090E0982F882741E050E0BE016F5F7F4F04
:103A3000820F931F0E94791C89810F90DF91CF9193
:103A40000895CF93C82F462F61E070E00E9494093B
:103A500061E070E08C2F0E94041D8111F9CFCF919D
:103A60000895CF93C82F80E591E00E94CF0968E0C8
:103A700070E08C2FCF910C94211DCF93C82F80E53F
:103A800091E00E94CF0960E170E08C2FCF910C94FF
:103A9000211DCF93DF93EC01888D883020F40E94A4
:103AA0003D1D88E0888FDF91CF91089563E070E03D
:103AB0000C94041DCF93C82F80E591E00E94CF099C
:103AC0008C2FCF910C94561DEF92FF920F931F9362
:103AD000CF93DF937C018091700ED4E0833309F0A3
:103AE000D8E00BE51EE0C0E0F801219131918F0193
:103AF000F701848195812817390729F0CF5FDC13FE
:103B0000F3CF80E006C08C2F0E945A1D8431B1F79C
:103B100081E0DF91CF911F910F91FF90EF90089579
:103B2000CF93DF93EC018C858830D0F40E945A1D2E
:103B3000843189F0882379F0883169F021E08C3173
:103B400059F4E881F9810084F185E02DCE011995C1
:103B500021E0892B09F420E0822FDF91CF91089595
:103B600080E0FBCFCF92DF92EF92FF92CF93DF9373
:103B7000EC018C85883068F40E94311D0E94DC05C0
:103B80006B017C018C850E945A1D811109C088E05F
:103B90008C87DF91CF91FF90EF90DF90CF900895C9
:103BA00061E070E080E090E00E94A9050E94DC05E1
:103BB000AB01BC014C195D096E097F098D859E859D
:103BC000B0E0A0E0481759076A077B07D8F28C8558
:103BD0000E943D1DDCCFCF93FC01C08D80E591E0BC
:103BE0000E94CF0960E270E08C2F0E94211D62E0EC
:103BF00070E08C2F0E94041D84FD16C062E070E00E
:103C00008C2F0E94041D83FF0AC048E162E070E02F
:103C10008C2F0E94940980E090E0CF91089580E578
:103C200091E00E94CF09E3CF40E162E070E08C2F89
:103C30000E94940981E0F0CFCF93DF931F92CDB71C
:103C4000DEB741E050E0BE016F5F7F4F90E080E063
:103C50000E94791C89810F90DF91CF910895CF93B5
:103C6000DF93C4E1D0E00E941C1E882361F061E074
:103C700070E080E090E00E94A9052197A1F780E024
:103C8000DF91CF91089581E0FBCFCF92DF92EF9249
:103C9000FF921F93CF93DF93CDB7DEB7C454D10902
:103CA0000FB6F894DEBF0FBECDBFFC014281538139
:103CB0006481758123964CAF5DAF6EAF7FAF239764
:103CC00081E023968FAF23972396CCACDDACEEAC8E
:103CD000FFAC2397CBAADCAAEDAAFEAA4DA75EA74C
:103CE0006FA778AB88ABCDA4DEA4EFA4F8A8CFA2D1
:103CF000D8A6E9A6FAA68EABCBA8DCA8EDA8FEA8AC
:103D0000C9A2DAA2EBA2FCA22BEB33E03C8B2B8BFB
:103D10009FEF9D8B9E8B9F8B188E3E872D878AA74A
:103D2000CFA0D8A4E9A4FAA4CF86D88AE98AFA8ACF
:103D30008CA389A19AA1ABA1BCA189879A87AB87E3
:103D4000BC873A8329834B835C836D837E83809118
:103D5000720E81116CC060E372E080E090E00E941E
:103D6000A9050E944215E6EBF3E0E491F0E0EE0FC6
:103D7000FF1FEE56FC4F8591949190936F0E8093A8
:103D80006E0EE6E5F3E0E491E0936D0E61E08AE00B
:103D90000E947C040E94030680E591E00E94CF0906
:103DA00084E38093700E80E80E9444090E942F1ED5
:103DB000882309F472C088E00E9444090E941C1EF6
:103DC000883009F06AC080E10E9444090E941C1EEC
:103DD000803109F062C080E00E9444090E941C1EEC
:103DE000182F81115AC041E050E0BE016D5B7F4F3A
:103DF0008FE190E00E94791C24968FAD2497833048
:103E000009F04BC080E48093710E42E06EE170E0F7
:103E1000812F0E94940942E06FE170E0812F0E949F
:103E200094091F5F183089F781E08093720E80E556
:103E300091E00E94CF0946E050E06FE772E089E030
:103E400090E00E94960844E050E0BE016D5F7F4F15
:103E50008FE090E00E94960844E050E0BE01615F70
:103E60007F4F81E090E00E94960844E050E0BE0160
:103E70006B5E7F4F85E090E00E94960881E08C8722
:103E800089859A85AB85BC858093301190933111DB
:103E9000A0933211B09333116FC087E38093700EFB
:103EA00080E80E9444090E942F1E882339F188E08F
:103EB0000E9444090E941C1E883001F580E10E9486
:103EC00044090E941C1E182F8031C1F480E00E941A
:103ED00044090E941C1E811111C041E050E0BE0146
:103EE0006D5B7F4F89E390E00E94791C24968FAD33
:103EF0002497843019F41093710E96CF83E3809346
:103F0000700E80E80E9444090E942F1E882391F1C0
:103F100080E10E9444090E941C1E803159F582E113
:103F20000E9444090E941C1E823121F580E00E94FB
:103F300044090E941C1E81111DC084E08093710EF3
:103F400015E525961FAF259741E050E0BE016C5B5B
:103F50007F4F8BE190E00E94960824961FAF249734
:103F600041E050E0BE016D5B7F4F8AE190E00E942E
:103F700096085ACF1092700ECC5BDF4F0FB6F894B4
:103F8000DEBF0FBECDBFDF91CF911F91FF90EF90AD
:103F9000DF90CF9008951F93CF93DF931F92CDB7FB
:103FA000DEB7182F80E591E00E94CF09812F0E9493
:103FB000180627E0129FF0011124ED5DF14F2281D8
:103FC0003381377041E050E0BE016F5F7F4F820F59
:103FD000931F0E94791C89810F90DF91CF911F91CF
:103FE0000895FC01808D883040F4218D328D232B83
:103FF00021F00E94CB1F90E008958FEF9FEF08956E
:10400000CF93DF93FC012485283028F08FEF9FEFBA
:10401000DF91CF910895EC010190F081E02D0084B3
:10402000F185E02D1995892B89F38C850E94CB1F92
:1040300090E0EECFDA01E091710EF0E0FE2FEE2776
:10404000E60FF71F90E0982F8827A901BD018E0F7A
:104050009F1F0C94791C8F929F92AF92BF92CF9228
:10406000DF92EF92FF920F931F93CF93DF93CDB721
:10407000DEB760970FB6F894DEBF0FBECDBF7C01F0
:104080009091700E911115C018E0812F60960FB6B7
:10409000F894DEBF0FBECDBFDF91CF911F910F917E
:1040A000FF90EF90DF90CF90BF90AF909F908F9058
:1040B000089508E0933309F404E06B0180E591E092
:1040C0000E94CF099E012F5F3F4F5901490110E027
:1040D000812F0E94561DF40181934F018823C1F066
:1040E0001F5F0113F5CF00E0F50181915F018D3174
:1040F00049F0883139F08A51823020F00F5F101377
:10410000F3CFC2CF60E170E0802F0E94211D102FFD
:10411000A12EB12CF501EE0FFF1FE55AF14F1182D0
:10412000108283EE93E00197F1F742E870E060E0DF
:10413000812F0E9494094FEF62E070E0812F0E946E
:104140009409B601C114D10491F480917D0290913B
:104150007E0201968115F0EC9F0708F45CC09093F5
:104160007E0280937D0260917D0270917E02812F9C
:104170000E947E0986E0E7E9F2E0DE0119960190EF
:104180000D928A95E1F7F70183818F778C8784817F
:104190008D8785818E87A7014E5F5F4F24E030E0D9
:1041A0006CE070E0812F0E945709B601812F0E94B8
:1041B000680926E030E0AE01475F5F4F66E070E0DF
:1041C000812F0E94570961E070E0812F0E94211D1C
:1041D00027E02A9DC0012B9D900D11249C012D5D8F
:1041E000314F7901F9011182108222E030E0AE01F5
:1041F000415F5F4F68E270E0812F0E941A208F8537
:104200009889982789279827F701938382831682B4
:10421000158214823ACF80E090ECA1CFCF92DF924A
:10422000EF92FF920F931F93CF93DF9300D000D0B4
:10423000CDB7DEB78C016B017A01FC01808D88302F
:1042400010F40E943D1D8BEB93E09A838983F60165
:1042500082819381A481B5818B839C83AD83BE834E
:10426000B701CE0101960E942B20F801808F883083
:10427000A0F4F586E486128E118E81E026960FB6A4
:10428000F894DEBF0FBECDBFDF91CF911F910F918C
:10429000FF90EF90DF90CF90089580E0EFCF7F9276
:1042A0008F929F92AF92BF92CF92DF92EF92FF9246
:1042B0000F931F93CF93DF931F921F92CDB7DEB75B
:1042C000782E8B014A01590122E030E0AE014F5FA8
:1042D0005F4F64E270E00E941A20E980FA80FE24B9
:1042E000EF24FE24E00EF11E970137704091700E0E
:1042F000072D10E0433309F042C0085F1F4F102F15
:104300000027110F110F110FC901800F911F4733A3
:10431000C9F1A9014A0D5B1D4130584098F160E098
:1043200078E06B01C21AD30AA601B4010E94960874
:10433000A5014C195D09B4016C0D7D1DC8010E94D9
:104340009608EA0CFB1CF982EA8222E030E0AE011A
:104350004F5F5F4F64E270E0872D0E9457090F9016
:104360000F90DF91CF911F910F91FF90EF90DF9011
:10437000CF90BF90AF909F908F907F900895005FF7
:104380001F4FBDCFA501B401DACFEF92FF921F936B
:10439000CF93DF931F921F92CDB7DEB7182F22E085
:1043A00030E0AE014F5F5F4F60E270E00E941A2084
:1043B000E980FA80FE24EF24FE2422E030E0AE0102
:1043C0004F5F5F4F60E270E0812F0E941A20898169
:1043D0009A81982789279827E816F90689F487E0B3
:1043E000189FF0011124ED5DF14FF582E482C701C1
:1043F0000F900F90DF91CF911F91FF90EF90089554
:104400007C01DBCF1F93CF93DF93182F80E591E0E2
:104410000E94CF09812F0E94C521EC01812F0E94AB
:10442000561D873121F08C3111F0D0E0C0E0CE0173
:10443000DF91CF911F910895CF93DF93EC018C858D
:10444000883060F40E945A1D873111F08C3131F4AC
:104450008C850E9402228115984088F3DF91CF91CC
:104460000895FC018485883010F40C94022290E0B9
:1044700080E00895CF92DF92EF92FF921F93CF9347
:10448000DF93182F7B01EA014130584010F0C0E063
:10449000D8E080E591E00E94CF09812F0E94C521DC
:1044A0006C01812F0E94561D873111F08C3121F54E
:1044B000CC16DD0670F380E591E00E94CF099E01E5
:1044C000A70170E060E0812F0E944F2160E270E060
:1044D000812F0E94211D62E070E0812F0E94041D47
:1044E00084FD0DC0812F0E94561D8823B9F080E500
:1044F00091E00E94CF09EFCFD0E0C0E0DCCF40E1F7
:1045000062E070E0812F0E949409CE01DF91CF918B
:104510001F91FF90EF90DF90CF900895D0E0C0E022
:10452000F4CF0F931F93CF93DF938C01EA01FC012B
:104530008485883048F40E943A22892B39F481E03E
:1045400090E0F80193838283D0E0C0E0CE01DF9158
:10455000CF911F910F9108959F92AF92BF92CF92EA
:10456000DF92EF92FF920F931F93CF93DF938C0113
:104570005B01942EE52EFC01C688D788F08C80E57F
:1045800091E00E94CF098F2D0E94C521C92DDE2DFB
:104590008C179D0708F4EC019E01A501B6018F2D33
:1045A0000E944F21F801868997898C0F9D1F978B58
:1045B000868BCE01DF91CF911F910F91FF90EF90ED
:1045C000DF90CF90BF90AF909F900895FF920F9390
:1045D0001F93CF93DF931F921F92CDB7DEB7F82EB4
:1045E00022E030E0AE014F5F5F4F66E270E00E9474
:1045F0001A2009811A8110270127102722E030E0B4
:10460000AE014F5F5F4F66E270E08F2D0E941A206F
:1046100089819A819827892798270817190749F4CB
:10462000C8010F900F90DF91CF911F910F91FF90D4
:1046300008958C01E3CF1F93CF93DF93182F87E06A
:10464000189FE0011124CD5DD14F88819981009799
:1046500061F480E591E00E94CF09812F0E94E6225B
:104660002E81821B910999838883DF91CF911F91BD
:1046700008959F92AF92BF92CF92DF92EF92FF92F6
:104680000F931F93CF93DF93EC017B018091700E0A
:10469000811121C01B821A8288EE93E0A0E0B0E075
:1046A0008C839D83AE83BF8384EA92E09983888361
:1046B00088E08C8788EE93E09E878D87CE01DF911E
:1046C000CF911F910F91FF90EF90DF90CF90BF900F
:1046D000AF909F90089534E0932E833311F028E03B
:1046E000922E8BE5C82E8EE0D82E10E098E0B92EE1
:1046F000A12CD6012D913D916D01F7018481958109
:104700002817390791F4812F0E945A1D082F8731ED
:1047100011F08C3139F5812F0E941B23892B59F51B
:104720000C3119F4812F0E94311D1F5F9112E1CFCE
:10473000A11008C0D701ED91FC910084F185E02D16
:10474000C70119951B821A8288EE93E0A0E0B0E0C1
:104750008C839D83AE83BF8384EA92E099838883B0
:10476000BC86A8CF843149F08111DFCFF6013297A2
:1047700011821082DACFB12ED8CFAA24A394D5CF3C
:104780008F929F92AF92BF92CF92DF92EF92FF9261
:104790000F931F93CF93DF93CDB7DEB72F970FB64D
:1047A000F894DEBF0FBECDBF5C014B017A01809152
:1047B000700E8823C9F104E0833309F008E0B501E5
:1047C000CE0101960E9439238BE5C82E8EE0D82EAB
:1047D00010E0F601219131916F01F50184819581FD
:1047E0002817390751F4812F0E945A1D873129F467
:1047F000A701B401812F0E943A221F5F0113E9CF64
:10480000C7012F960FB6F894DEBF0FBECDBFDF9164
:10481000CF911F910F91FF90EF90DF90CF90BF90BD
:10482000AF909F908F900895F12CE12CE9CFFC017F
:104830008485883010F40C941B2390E080E0089568
:104840004F925F927F928F929F92AF92BF92CF9240
:10485000DF92EF92FF920F931F93CF93DF931F92FC
:104860001F92CDB7DEB7782E6B014A01A82EB12C6E
:1048700027E0829FC0011124FC01ED5DF14F7F0113
:104880000081118180E591E00E94CF09081519058A
:1048900054F4872D0E94E622F70126818C01021B29
:1048A0001109118300830115110519F5872D0E9447
:1048B000561D843159F0882349F001E010E08C3115
:1048C00011F410E000E0119501951109C8010F9055
:1048D0000F90DF91CF911F910F91FF90EF90DF909C
:1048E000CF90BF90AF909F908F907F905F904F90B0
:1048F0000895801691060CF4840187E08A9DF001EA
:104900008B9DF00D1124ED5DF14FE280F380C11419
:10491000D10451F12701F7E05F22872D0E9418068C
:10492000840D951D2091700E273309F453C0980112
:10493000240D351D2130384008F44CC020E038E00B
:10494000490184189508A401B6010E94791C26012A
:10495000480C591C6801C818D908872D0E941806F0
:10496000A601B2010E94791CE00EF11E87E08A9D2B
:10497000F0018B9DF00D1124ED5DF14FF382E28289
:1049800020813181201B310B318320838681800F70
:10499000912F911D8A3F910510F4232BF1F487E0AC
:1049A0008A9DF0018B9DF00D1124ED5DF14F168273
:1049B000F982EA8222E030E0AE014F5F5F4F68E2A9
:1049C00070E0872D0E94570960E470E0872D0E94F7
:1049D000211D7CCFA801B601C5CF868377CFCF93A9
:1049E000DF93FC01218D328D2115310529F48FEFE4
:1049F0009FEFDF91CF910895EC01808D421753070F
:104A000008F0A9010E9420241816190684F7298DA0
:104A10003A8D281B390B3A8F298FEBCF0F931F93B9
:104A2000CF93DF931F92CDB7DEB7FC01218D328D7E
:104A3000232B41F48FEF9FEF0F90DF91CF911F91C8
:104A40000F9108958C0141E050E0BE016F5F7F4FF0
:104A5000FC01808D0E942024181619065CF7F801CD
:104A6000818D928D0197928F818F898190E0E4CF23
:104A7000CF93DF931F92CDB7DEB741E050E0BE0188
:104A80006F5F7F4FFC0184850E9420241816190651
:104A900034F4898190E00F90DF91CF9108958FEFEA
:104AA0009FEFF9CFFC018485883010F40C9420240A
:104AB00090E080E008958F929F92AF92BF92CF9244
:104AC000DF92EF92FF920F931F93CF93DF9300D06B
:104AD00000D000D01F92CDB7DEB79091700E91112B
:104AE00015C018E0812F2A960FB6F894DEBF0FBECE
:104AF000CDBFDF91CF911F910F91FF90EF90DF908D
:104B0000CF90BF90AF909F908F90089528E0F22EA5
:104B1000933311F494E0F92E6B01082F80E591E0B6
:104B20000E94CF099E012F5F3F4F5901490110E0BC
:104B3000812F0E94561DF40181934F018823C1F0FB
:104B40001F5FF112F5CFF12CF50191915F019D31BD
:104B500049F0983139F09A51923020F0F3941F11B6
:104B6000F3CFBFCF60E170E08F2D0E94211D1F2D7C
:104B7000E12EF12CF701EE0FFF1FE55AF14F1182E4
:104B8000108283EE93E00197F1F7402F70E060E030
:104B9000812F0E9494094FEF62E070E0812F0E9404
:104BA0009409B601CD2889F480917D0290917E020E
:104BB00001968115F0EC9F0798F190937E02809307
:104BC0007D0260917D0270917E02812F0E947E099C
:104BD00061E070E0812F0E94211D27E02E9DC00121
:104BE0002F9D900D11249C012D5D314F7901F9010C
:104BF0001182108222E030E0AE01475F5F4F68E231
:104C000070E0812F0E941A2089859A85982789272C
:104C10009827F7019383828316821582148262CFCC
:104C200080E090ECCACF0F931F93CF93DF93EC01FA
:104C30008B01888D883010F40E943D1DB80182E000
:104C40000E945B25888F883050F41D870C871A8E50
:104C5000198E81E0DF91CF911F910F91089580E02F
:104C6000F9CF0F931F93CF938C01FC016481758161
:104C700081E20E945B25C82F8830F8F480E591E03E
:104C80000E94CF098C2F0E94561D833131F08C2F4A
:104C9000CF911F910F910C94311D62E070E08C2F29
:104CA0000E94211DF80184819581EC2FF0E0EE0F28
:104CB000FF1FE55AF14F91838083CF911F910F9190
:104CC0000895CF92DF92EF92FF921F93CF93DF93DD
:104CD000EC017B016A018C85883048F40E945A1DE2
:104CE000882319F08C850E94311D88E08C87F7019C
:104CF00082819381A481B5810097A105B10551F40A
:104D000090E080E0DF91CF911F91FF90EF90DF90D6
:104D1000CF9008958F3F9F4FAF4FBF4F89F370E003
:104D200060E081E20E945B25182F8C87883040F775
:104D300080E591E00E94CF09A7014E5F5F4F24E01C
:104D400030E06CE070E0812F0E945709B601812F9E
:104D50000E94680964E070E0812F0E94211D0E947A
:104D6000DC056B017C018C850E945A1D873111F195
:104D70008C3101F1882321F20E94DC05AB01BC01DA
:104D80004C195D096E097F098D859E85B0E0A0E014
:104D900084179507A607B70738F061E070E080E058
:104DA00090E00E94A905DFCF8C850E943D1D88E020
:104DB0008C87A6CF81E090E0A5CF0F931F93CF9370
:104DC000DF931F921F92CDB7DEB7FC0124852830F8
:104DD000E0F48C0180E591E00E94CF0922E030E010
:104DE000AE014F5F5F4F60E170E0F80184850E9483
:104DF0001A2089819A819827892798270F900F90E8
:104E0000DF91CF911F910F91089590E080E0F6CF50
:104E10000F931F93CF93DF931F921F92CDB7DEB7EF
:104E2000FC0124852830E0F48C0180E591E00E94AB
:104E3000CF0922E030E0AE014F5F5F4F64E070E0E9
:104E4000F80184850E941A2089819A8198278927F0
:104E500098270F900F90DF91CF911F910F91089598
:104E600090E080E0F6CF0F931F93CF93DF9300D0B5
:104E700000D01F921F92CDB7DEB78C01D801599692
:104E80004D915C915A974115510551F0ED91FC916E
:104E9000048CF58DE02D70E060E0C8011995EECF2F
:104EA000F801808D0E941B23892BB1F148E050E06E
:104EB000BE016F5F7F4FD80158968C910E942024CD
:104EC00018161906F4F4D801509684E0FE013196C4
:104ED00001900D928A95E1F78D8190E0982F8827B7
:104EE0002E81820F911DF801958B848B8F81282F45
:104EF00030E0322F22278885820F932F911D928FC9
:104F0000818F28960FB6F894DEBF0FBECDBFDF911C
:104F1000CF911F910F91089590E080E0F2CF4F92D2
:104F20005F926F927F928F929F92AF92BF92CF9239
:104F3000DF92EF92FF920F931F93CF93DF93CDB742
:104F4000DEB763970FB6F894DEBF0FBECDBF7C010E
:104F50006B013A01FB0120E090E080E06AE03191D2
:104F6000332309F461C040ED430F4A3008F04DC0CF
:104F7000689FA001699F500D1124CA01C097830F3B
:104F8000911D37FD9A958F3F910549F340F3F70145
:104F9000428153816481758180913C1190913D11D2
:104FA000A0913E11B0913F11481759076A077B073E
:104FB00009F40DC28701085F1F4F0E94DC056F7066
:104FC00077277C5FC8010E941326813009F004C254
:104FD0008BEB93E09A838983F70182819381A4818B
:104FE000B5818B839C83AD83BE8345E350E0BE01D6
:104FF0006F5F7F4FC8010E94D209892BA9F5D12C80
:10500000C12CC8010E94491D17C03E3209F0BFCF14
:10501000233009F4BCCFD301A20FB11D12968C939B
:105020002F5F90E080E09BCF233009F0B0CFF301F9
:105030008583CC24C394D12CC60163960FB6F89413
:10504000DEBF0FBECDBFDF91CF911F910F91FF90BB
:10505000EF90DF90CF90BF90AF909F908F907F9018
:105060006F905F904F9008950E94DC05F701778361
:10507000668342E050E0B7016A5F7F4FC8010E943B
:10508000AC2281E090E09A83898342E050E0BE0147
:105090006F5F7F4FC8010E94AC2280E091E09A834D
:1050A000898342E050E0BE016F5F7F4FC8010E94DC
:1050B000AC221A82198242E050E0BE016F5F7F4F3E
:1050C000C8010E94AC2242E050E0BE016F5F7F4FFA
:1050D000C8010E94AC2242E050E0BE016F5F7F4FEA
:1050E000C8010E94AC225601F6018081882301F19B
:1050F0006501F60181912F01882311F08E32B1F400
:1051000046018A189B081814190474F48D8641E02E
:1051100050E0BE01635F7F4FC8010E94AC22A40132
:10512000B501C8010E94AC225201DECF6201E1CF7D
:105130001D8641E050E0BE01635F7F4FC8010E94C1
:10514000AC22C12CDD24D394DA82C98242E050E043
:10515000BE016F5F7F4FC8010E94AC22DA82C98214
:1051600042E050E0BE016F5F7F4FC8010E94AC2259
:10517000C8010E94EB1D892B09F441CFF3E0AF2E4B
:10518000B12C230122E0420E511CD4C0F701428110
:10519000538164817581808D918DA28DB38D481767
:1051A00059076A077B0709F008C1848D958DC5975B
:1051B00009F003C181A192A15DEFC52EDD24DA942F
:1051C0000C970CF4ADC04CE050E0BE016F5F7F4F18
:1051D000C8010E94EF248B819C81982789279827FA
:1051E0009A8B898BF7014681578129813A81421731
:1051F000530709F0E7C097FFE5C08F7092703BEF4F
:10520000C32EDD24DA94892B09F08AC06F8078845C
:105210007624672476242AEFC22EDD24DA946114E2
:10522000710409F47DC0D12CC12C8D819E819827F9
:1052300089279827C816D906F8F441E050E0BE0146
:10524000635F7F4FC8010E94EF244D85442331F0F6
:1052500050E070E060E0C8010E94EF248D8581116C
:10526000ECCF44E050E070E060E0C8010E94EF2421
:10527000FFEFCF1ADF0AD9CF912C812C41E050E00B
:10528000BE016D5E7F4FC8010E94EF244B89842FC1
:10529000807C09F06CC0442331F050E070E060E0A5
:1052A000C8010E94EF248B898111E8CF42E050E0D1
:1052B000BE01615F7F4FC8010E94EF2442E050E0D1
:1052C000BE01635F7F4FC8010E94EF2444E050E0BD
:1052D00070E060E0C8010E94EF2442E050E0BE01AF
:1052E0006F5E7F4FC8010E94EF248F85988949899E
:1052F0005A898115914009F043C0CD84DE84DC24B5
:10530000CD24DC2481E0C816D104D1F541155440E8
:1053100009F04AC044E050E0B201C8010E94EF2405
:1053200021E0A21AB10809F46CCEFFEFCF16DF0618
:1053300009F067CE0E94DC053B014C01C8010E94C8
:105340003327181619060CF421CF0E94DC056619C4
:10535000770988099909693873418105910548F5EC
:1053600062E370E080E090E00E94A905E7CF41E0B1
:1053700050E070E060E0C8010E94EF241B8A93CFE8
:1053800054274527542770E060E0C8010E94EF24AD
:10539000FFEF8F1A9F0A6814790409F06FCF96EF18
:1053A000C92EDD24DA94BCCFE7EFCE2EDD24DA94CB
:1053B000B7CFCC24CA94DC2CB3CF6EEFC62EDD243D
:1053C000DA94AECF4CEFC42EDD24DA94A9CF8EEF61
:1053D000C82EDD24DA9430CED12CC12C2DCECF9224
:1053E000DF92EF92FF920F931F93CF93DF93CDB78E
:1053F000DEB7AF970FB6F894DEBF0FBECDBF7C010E
:105400006A010BEB13E01A8309831C861B8688EE66
:1054100093E0A0E0B0E08D879E87AF87B88B82EDE8
:1054200092E09A878987188F0F8B198E1A8E1B8EA0
:105430001C8E88E089A31BA70AA71CA61DA61EA672
:105440001FA68091301190913111A0913211B0912D
:1054500033118EA39FA3A8A7B9A78B839C83AD8389
:10546000BE8318861F82AE01465D5F4FCE01019656
:105470000E948F2781309105B1F4D701ED91FC9105
:105480000488F589E02D1DA30CA38CA59DA5AEA5D0
:10549000BFA58EA39FA3A8A7B9A7A601BE016C5D57
:1054A0007F4FC7011995AF960FB6F894DEBF0FBEB8
:1054B000CDBFDF91CF911F910F91FF90EF90DF90C3
:1054C000CF900895CF92DF92EF92FF920F931F93A8
:1054D000CF93DF93CDB7DEB7AF970FB6F894DEBFAB
:1054E0000FBECDBF8C016B017A018BEB93E09A83E9
:1054F00089831B821C821D821E821C861B8648EEAD
:1055000053E060E070E04D875E876F87788B22ED17
:1055100032E03A872987988F8F8B198E1A8E1B8ECF
:105520001C8E28E029A39BA78AA71CA61DA61EA641
:105530001FA6D8011C968C91883060F40E945A1DD9
:10554000882321F0F80184850E94311D88E0D8016C
:105550001C968C938091301190913111A091321151
:10556000B09133118EA39FA3A8A7B9A78B839C8367
:10557000AD83BE8318861F82AE01465D5F4FB601C4
:10558000CE0101960E948F270097C1F0D801ED91BE
:10559000FC910684F785E02D8BEB93E09DA38CA313
:1055A0008CA59DA5AEA5BFA58EA39FA3A8A7B9A7AF
:1055B000A701BE016C5D7F4FC8011995AF960FB66C
:1055C000F894DEBF0FBECDBFDF91CF911F910F9139
:1055D000FF90EF90DF90CF900895EF92FF920F939E
:1055E0001F93CF93DF9300D01F92CDB7DEB78C010E
:1055F0007B01FB0184858830A8F08BEB93E0F801F8
:10560000918380831282138214821582C8010F90C5
:105610000F900F900F90DF91CF911F910F91FF90FE
:10562000EF90089580E591E00E94CF0924E030E0FA
:10563000AE014F5F5F4F6CE070E0F70184850E9420
:105640001A208BEB93E0F8019183808389819A8102
:10565000AB81BC8182839383A483B583D7CF85ED4F
:105660008093BC008091A50D9091A60DA091A70DEF
:10567000B091A80D0796A11DB11D23E0B695A79581
:10568000979587952A95D1F72091BC0024FD03C0FA
:105690001092A30D08954091A50D5091A60D609113
:1056A000A70D7091A80D452B462B472B69F300974A
:1056B000A105B10541F025E32A95F1F70000019716
:1056C000A109B109E1CF8091A40D0C94F6063F9297
:1056D0004F925F926F927F928F929F92AF92BF9202
:1056E000CF92DF92EF92FF920F931F93CF93DF93AE
:1056F00000D000D000D01F921F92CDB7DEB77C0142
:10570000DC0115968C91811115C0FE013196CE01F8
:105710000C966F0130E23193E817F907E1F7DA01EF
:1057200030E087E09D91B92E992329F19E3239F41A
:105730008A3011F480E0DAC038E08AE0F3CFE2EC9E
:10574000F2E04491442321F031969413FACFF2CF42
:10575000831780F34FED490F4E3560F74FE9490F3E
:105760004A3118F440EEB42EB90EF601E30FF11DE4
:10577000B0823F5FD7CF89818032E1F2322E8B0138
:10578000FB01838D948DD7015C969C938E935B97E0
:105790001682178210861186128613861486158645
:1057A000F80182859385A485B585438954896589E7
:1057B000768984179507A607B70708F04DC025E03E
:1057C000B695A795979587952A95D1F7F82FFF70ED
:1057D000AF2ED80115968C91823008F4ABCFC8015A
:1057E0000E94FD1497FDA6CFF80182859385A485BC
:1057F000B5854F96A11DB11D82879387A487B58774
:10580000F0E2AF9EB00111246D58714F6115710522
:1058100009F490CFDB018C91882341F0853E09F09B
:1058200058C0BB2029F0BB24B394BACFB1100EC02E
:10583000F701A28A8091650290916602A0916702A9
:10584000B091680286879787A08BB18BDB018C9122
:105850008111E9CFBB24B394832D8271823109F089
:1058600069CFBB2009F45AC0C7010E94250C0097DC
:1058700009F460CF20E2FC0111922A95E9F72BE0B0
:10588000F601DC0101900D922A95E1F721E238E260
:10589000DC0151963C932E93509740E058E01F96C0
:1058A0005C934E931E9753963C932E935297599622
:1058B0003C932E93589757965C934E93569781E05E
:1058C0000E94B00B882309F435CF432DF70162897C
:1058D0000AC04BE050E0C6010E948648892B09F0BF
:1058E0005FCF432D6A2DC7010E94AB162B960FB6D2
:1058F000F894DEBF0FBECDBFDF91CF911F910F9106
:10590000FF90EF90DF90CF90BF90AF909F908F90DF
:105910007F906F905F904F903F900895F801858140
:10592000823009F407CFC8010E94DD0F882309F4F3
:1059300001CFD8015B96ED91FC915C9716968D9006
:105940009D90AD90BC901997B2E08B1A9108A10878
:10595000B108858504C0880C991CAA1CBB1C8A95BB
:10596000D2F786859785A089B189880E991EAA1ECF
:10597000BB1E848124013501480E511C611C711C21
:1059800084149504A604B70409F1E1E04E1A510805
:105990006108710881E00E94B00B882309F4CACE27
:1059A000E3E7FEE0119283E790E18E179F07D1F7BE
:1059B000409265025092660260926702709268029D
:1059C0008091140D81608093140DDACFD8015B961D
:1059D000ED91FC91258580E092E0A0E0B0E004C06C
:1059E000880F991FAA1FBB1F2A95D2F7F801438978
:1059F000548965897689840F951FA61FB71F838BED
:105A0000948BA58BB68BD70152961C9283E79EE0B0
:105A100031CFEF92FF920F931F93CF93DF93EC015F
:105A20007B018A011B821A8288EE93E0A0E0B0E03D
:105A30008C839D83AE83BF838DE993E099838883B4
:105A40008DE190E00E947B469A8F898F009779F0D4
:105A50002DE1F701DC0101900D922A95E1F74CE070
:105A600050E0B801CE010C960E94B548188EDF9127
:105A7000CF911F910F91FF90EF9008952F923F9239
:105A80004F925F926F927F928F929F92AF92BF924E
:105A9000CF92DF92EF92FF920F931F93CF93DF93FA
:105AA000CDB7DEB7C756D1090FB6F894DEBF0FBE2B
:105AB000CDBF5C013B01A6964FAFA69719A218A2D5
:105AC00081E993E09F8F8E8F1BA21C821B829A8399
:105AD00089831E824E018EE1880E911CC4010E94B2
