:100000000C9403020C94413A0C94163A0C94EB397C
:100010000C94C0390C9495390C946A390C943F397E
:100020000C9414390C9434020C9434020C94340261
:100030000C9434020C9434020C9434020C94340268
:100040000C9434020C9434020C9434020C94340258
:100050000C9434020C9434020C9434020C94CA387C
:100060000C9434020C9494380C946A380C94340236
:100070000C9434020C9434020C9434020C94340228
:100080000C9434020C9434020C9434020C94340218
:100090000C9434020C9434020C9434020C946C3A98
:1000A0000C9434020C9434020C9434020C943402F8
:1000B0000C9434020C9434020C9434020C943402E8
:1000C0000C9434020C9434020C9434020C943402D8
:1000D0000C9434020C9434020C9434020C943402C8
:1000E0000C9434020C9432050C94F9030C942615EC
:1000F0000C9411040C942E060C94CE020C9404055E
:100100000C9426120C94EE030C9444060C940E05E9
:100110000C94F31D0C9441070C9465060C946A2A08
:100120000C9446050C94E2020C946C1D0C949914EA
:100130000C942E070C94E5260C94EA030C942805E5
:100140000C9402450C9410270C941D160C943B271C
:100150000C94F6030C943C050C9402160C94FA04CF
:100160000C9412160C94F52A0C9417040C94FF03AB
:100170000C94D2140C9418050C94981D0C945A25C8
:100180000C94ED040C941B040C94BF020C947305A6
:100190000C94511D0C94F91F0C9455050C942904D2
:1001A0000C9420050C9448070C9406160C94F2034A
:1001B0000C949A060C94A2060C9477020C941516D3
:1001C0000C9475030C9410160C94A2140C948A02CF
:1001D0000C9469050C941B260C9440250C94162154
:1001E0000C94F5040C9476020C9492020C9439222F
:1001F0000C94EF140C9471020C94F7290C940904DC
:100200000C94903B0C940D040C942C140C948C17AF
:100210000C9424220C9475070C94DA090C945F0555
:100220000C9425040C94B4220C9403040C94D2185E
:100230000C949E060C9499220C9469260C94F0055B
:100240000C94F0020C94B2060C941F240C945A06E1
:100250000C941F040C9416250C946D020C94082029
:100260000C941F070C9428030C94C2140C94720273
:100270000C9424040C94F7240C947D050C94BA1D62
:100280000C94E4030C941C150C9487050C943926EB
:100290000C94C823273E3C2F696E7075743E3C2F2A
:1002A000703E003C2F6C6162656C3E3C696E7075FF
:1002B0007420747970653D277465787427207661A1
:1002C0006C75653D27003C703E3C6C6162656C3E20
:1002D000007C3C3E5E2B3D3F2F5B5D3B2C2A225C2D
:1002E0000000002100240027002A002D00300033E8
:1002F0000001010000040107010A010000200023A1
:1003000000260029002C002F00320000010000030D
:10031000010601090100000A0B02090C0D0E080775
:1003200003040100000000000000000000000000C5
:1003300000000000000000000000000000000000BD
:10034000001211100000000000000000000000007A
:10035000000000000000000000000001021020204A
:100360000808102040102040800201020108040209
:10037000010102040810204080804020100804027F
:1003800001800402018040201008040201080402D8
:1003900001010204081020408001020408102040DE
:1003A0008000002200250028002B002E00310034A0
:1003B0000002010000050108010B01050505050704
:1003C0000508080808020202020A0A0808040404D0
:1003D00004010101010101010103030303030303FC
:1003E00003040707070C0C0C0C0C0C0C0C0202028B
:1003F0000206060606060606060B0B0B0B0B0B0B7E
:100400000B00903B024511241FBECFEFD1E2DEBFAF
:10041000CDBF00E00CBF1AE0A0E0B2E0E0E5F2E9F9
:1004200000E00BBF02C007900D92AA31B107D9F7C7
:1004300021E1AAE1BAE001C01D92A03EB207E1F7B6
:1004400012E0C2E0D2E000E006C021970109802F4F
:10045000FE010E94A446C130D10780E00807A9F739
:100460000E94753C0C9416490C940000CF93DF93C6
:10047000FC01828193819093B2118093B1118481A8
:100480009581A681B7818093B3119093B411A09305
:10049000B511B093B61180859185A285B3858093FF
:1004A000B7119093B811A093B911B093BA11DF01AD
:1004B0001C96CF014996CBEBD1E12D912993A8173A
:1004C000B907D9F7818D928D9093C9118093C81186
:1004D0008FEA91E1DF91CF910895FC01818D928D9A
:1004E0000895089581E08093220E08950895089557
:1004F000FC01248135816217730720F4808191818A
:10050000009729F41092D40D84ED9DE00895860F94
:10051000971F08950895DC01ED91FC910190F08101
:10052000E02D1994AF92BF92CF92DF92EF92FF929B
:100530000F931F93CF93DF936C017B018B01040F0B
:10054000151FEB015E01AE18BF08C017D10759F0A7
:100550006991D601ED91FC910190F081E02DC601E9
:100560001995892B79F7C501DF91CF911F910F91D3
:10057000FF90EF90DF90CF90BF90AF900895FC0177
:10058000538D448D252F30E0842F90E0821B930BF8
:10059000541710F0CF96089501970895FC01918D9E
:1005A000828D981761F0A28DAE0FBF2FB11D5D96A1
:1005B0008C91928D9F5F9F73928F90E008958FEF43
:1005C0009FEF0895FC01918D828D981731F0828DF7
:1005D000E80FF11D858D90E008958FEF9FEF08954E
:1005E000FC01918D228D892F90E0805C9F4F821BB2
:1005F00091098F739927089583E790E10E94F00293
:1006000021E0892B09F420E0822F0895FC01A48DBC
:10061000A80FB92FB11DA35ABF4F2C91848D90E024
:1006200001968F739927848FA689B7892C93A08907
:10063000B1898C91837080648C93938D848D981391
:1006400006C00288F389E02D80818F7D8083089524
:10065000EF92FF920F931F93CF93DF93EC0181E012
:10066000888F9B8D8C8D98131AC0E889F9898081B9
:1006700085FF15C09FB7F894EE89FF896083E889EC
:10068000F98980818370806480839FBF81E090E0DE
:10069000DF91CF911F910F91FF90EF900895F62E6B
:1006A0000B8D10E00F5F1F4F0F731127E02E8C8D05
:1006B0008E110CC00FB607FCFACFE889F98980814A
:1006C00085FFF5CFCE010E940603F1CFEB8DEC0F35
:1006D000FD2FF11DE35AFF4FF0829FB7F8940B8F67
:1006E000EA89FB8980818062CFCFCF93DF93EC01D1
:1006F000888D8823B9F0AA89BB89E889F9898C910A
:1007000085FD03C0808186FD0DC00FB607FCF7CFC5
:100710008C9185FFF2CF808185FFEDCFCE010E94C5
:100720000603E9CFDF91CF91089580E090E0892B17
:1007300029F00E94FC0281110E94000080E090E0FC
:10074000892B49F080E090E0892B29F00E9400007D
:1007500081110E94000080E090E0892B49F080E048
:1007600090E0892B29F00E94000081110E94000076
:1007700080E090E0892B49F080E090E0892B29F01F
:100780000E94000081110C94000008958150823174
:1007900008F05AC0E82FF0E08827EE52FC4F8F4F48
:1007A0000C94A446F203F603E403EA03EE032404E4
:1007B000F903FF03030409040D04110417041B04C7
:1007C00024041F0425042904809180008F778093DE
:1007D00080000895809180008F7DF9CF8091800006
:1007E000877FF5CF84B58F7784BD089584B58F7DDD
:1007F000FBCF8091B0008F778093B00008958091F7
:10080000B0008F7DF9CF809190008F77809390001A
:100810000895809190008F7DF9CF80919000877F1F
:10082000F5CF8091A0008F778093A00008958091EC
:10083000A0008F7DF9CF8091A000877FF5CF8091B8
:1008400020018F77809320010895809120018F7D72
:10085000F9CF80912001877FF5CFCF93DF93282FA9
:1008600030E0F901EB5EFC4F8491F901E55AFC4F51
:10087000D491F901E554FC4FC491CC23A1F081112E
:100880000E94C603EC2FF0E0EE0FFF1FE550FD4F76
:10089000A591B491EC91ED2381E090E009F480E022
:1008A000DF91CF91089580E090E0FACF1F93CF932E
:1008B000DF93282F30E0F901EB5EFC4F8491F901C2
:1008C000E55AFC4FD491F901E554FC4FC491CC2377
:1008D000A9F0162F81110E94C603EC2FF0E0EE0F55
:1008E000FF1FEF55FC4FA591B4918FB7F894EC9191
:1008F000111108C0D095DE23DC938FBFDF91CF911B
:100900001F910895DE2BF8CFCF93DF9390E0FC0189
:10091000E55AFC4F249185549C4FFC018491882317
:10092000D1F090E0880F991FFC01EF51FD4FA59188
:10093000B491FC01EF55FC4FC591D49161110EC0EB
:100940009FB7F8948C91E22FE0958E238C932881A9
:10095000E223E8839FBFDF91CF9108958FB7F8948A
:10096000EC91E22BEC938FBFF6CF1F93CF93DF93E5
:10097000182FEB0161E00E948404209739F460E0B5
:10098000812FDF91CF911F910C945604CF3FD10559
:1009900011F461E0F5CFE12FF0E0EB5EFC4FE49164
:1009A000E150E23108F0B3C0F0E08827E552FB4F98
:1009B0008F4F0C94A446ED04F504FA0404050E05CB
:1009C000870518052005280532053C05460555050F
:1009D0005F058705690573057D0584B5806884BD5D
:1009E000C7BDDF91CF911F91089584B5806284BD0A
:1009F000C8BDF7CF80918000806880938000D0933D
:100A00008900C0938800EDCF809180008062809340
:100A10008000D0938B00C0938A00E3CF8091800048
:100A2000886080938000D0938D00C0938C00D9CFD4
:100A30008091B00080688093B000C093B300D1CFA4
:100A40008091B00080628093B000C093B400C9CFA1
:100A500080919000806880939000D0939900C0931B
:100A60009800BFCF80919000806280939000D093D7
:100A70009B00C0939A00B5CF8091900088608093CE
:100A80009000D0939D00C0939C00ABCF8091A000BC
:100A900080688093A0008091A0008F7B8093A0004D
:100AA000D093A900C093A8009CCF8091A000806241
:100AB0008093A000D093AB00C093AA0092CF809106
:100AC000A00088608093A000D093AD00C093AC00DC
:100AD00088CF80912001806880932001D0932901E4
:100AE000C09328017ECF80912001806280932001F5
:100AF000D0932B01C0932A0174CF8091200188608C
:100B000080932001D0932D01C0932C016ACFC0386F
:100B1000D1050CF03ECF33CF3FB7F8948091D00D84
:100B20009091D10DA091D20DB091D30D26B5A89B77
:100B300005C02F3F19F00196A11DB11D3FBFBA2F6F
:100B4000A92F982F8827BC01CD01620F711D811D2F
:100B5000911D42E0660F771F881F991F4A95D1F7B4
:100B600008958F929F92AF92BF92CF92DF92EF92B1
:100B7000FF926B017C010E948C054B015C01C1144A
:100B8000D104E104F104B9F00E948C0568197909D7
:100B90008A099B09683E73408105910580F321E035
:100BA000C21AD108E108F10888EE880E83E0981E89
:100BB000A11CB11CE4CFFF90EF90DF90CF90BF90CD
:100BC000AF909F908F9008952FB7F8946091CC0DBF
:100BD0007091CD0D8091CE0D9091CF0D2FBF0895C6
:100BE0000895FC0120812EBD9B012150310941F067
:100BF00051810DB407FEFDCF4EB55EBD4193F5CFDB
:100C000061507109860F971F0DB407FEFDCF2EB5F9
:100C1000FC0120830895E0916E0EF0916F0E8081AB
:100C200090916D0E892B80830895E0916E0EF09166
:100C30006F0E908180916D0E809589238083089539
:100C400090E02091700E233339F40C96982F990F71
:100C5000990F990F80E008954896F8CFCF93DF93CE
:100C60001F92CDB7DEB76983DC01ED91FC91028064
:100C7000F381E02D41E050E0BE016F5F7F4F199599
:100C80000F90DF91CF910895CF93DF931F92CDB74F
:100C9000DEB76983DC01ED91FC910280F381E02DE8
:100CA00041E050E0BE016F5F7F4F19950F90DF91DB
:100CB000CF910895FC019485FB018485981303C0AE
:100CC00081E0983008F080E00895CF93DF931F9281
:100CD000CDB7DEB76983DC01ED91FC910280F38131
:100CE000E02D41E050E0BE016F5F7F4F19950F90FE
:100CF000DF91CF910895EF92FF920F931F93CF93BF
:100D0000DF938C017B01D0E0C0E0F701EC0FFD1F09
:100D10006491662339F0C8010E946506892B11F0A1
:100D20002196F3CFCE01DF91CF911F910F91FF90CC
:100D3000EF900895FC01848595850895FC018489D0
:100D4000958908952BEB33E0FC0131832083FB016F
:100D50004089518962897389FC014283538364838A
:100D600075830895DC01ED91FC91048CF58DE02DE7
:100D7000199420915A0D260F3327331F2132310544
:100D8000ECF42091A30DFC0190E080E0243069F0A8
:100D900082E00895A0915A0D2191AC01465C524F1A
:100DA000A40FB52FB11D2C930196861798F380914F
:100DB0005A0D680F60935A0D80E0089581E0089500
:100DC0001092A30D81E08093A20D10927D0D61E041
:100DD00084E10E94560461E085E10E945604E9EB3B
:100DE000F0E080818E7F808380818D7F808388E4A6
:100DF0008093B80085E48093BC000895CF93DF937F
:100E000091E09093390D8823B9F0C091B800D0914A
:100E1000BA008091BC008A7B8093BC0060E084E1D2
:100E20000E94560460E085E10E9456040E94E0069C
:100E3000D093BA00C093B800DF91CF910895E091AC
:100E4000DC0D8091DB0DE81730F4F0E0E75EF24F47
:100E5000808190E008958FEF9FEF08959091DC0DD1
:100E60008091DB0D2FEF3FEF981748F4E92FF0E06A
:100E7000E75EF24F208130E09F5F9093DC0DC90167
:100E800008958091DB0D9091DC0D891B990B0895DD
:100E9000CF92DF92EF92FF920F931F93CF93DF9346
:100EA0007C01CB018A012091A90D222389F0EB015D
:100EB0006B01C40ED51ECC15DD0569F06991D70113
:100EC000ED91FC910190F081E02DC7011995F3CFD0
:100ED000642F0E94B906C801DF91CF911F910F9135
:100EE000FF90EF90DF90CF900895CF93DF931F9204
:100EF000CDB7DEB769832091A90D2223F9F02091A7
:100F0000D90D203258F021E030E0FC0133832283F8
:100F100090E080E00F90DF91CF9108958091DA0DFD
:100F2000E82FF0E0E655F24F998190838F5F809330
:100F3000DA0D8093D90D81E090E0ECCF61E0CE0135
:100F400001960E94B906F7CFCF92DF92EF92FF92FF
:100F50000F931F93CF93DF93FC01C48121E0209373
:100F6000A90DC093CA0D1092DA0D1092D90D838588
:100F7000682B86E491E10E947507D091D90DD1329A
:100F800008F092C00E948C056B017C018091A30D3A
:100F9000811165C082E08093A30D81E08093A20D52
:100FA0008FEF8093A10D1092A00DD0939F0DAAEA10
:100FB000BDE0EFE7FDE080E0D81385C010927E0D24
:100FC00080917E0DCC0FC82BC0937E0D80917D0D3E
:100FD000813009F07CC010927D0D0E948C056B0160
:100FE0007C0180917E0D8093BB008091A50D909136
:100FF000A60DA091A70DB091A80D892B8A2B8B2B44
:1010000099F00E948C050091A50D1091A60D2091DC
:10101000A70D3091A80D6C197D098E099F0906173F
:10102000170728073907E0F18091BC0083FDD9CF6D
:1010300085EC8093BC000E948C056B017C01809143
:10104000A30D823009F445C08091A10D8F3F61F15D
:101050008091A10D803241F18091A10D25C0809138
:10106000A50D9091A60DA091A70DB091A80D892B6B
:101070008A2B8B2B09F48ACF0E948C050091A50D39
:101080001091A60D2091A70D3091A80D6C197D0926
:101090008E099F09061717072807390708F076CF2A
:1010A0008091A40D0E94FE061092DA0D1092D90DC7
:1010B0001092A90DDF91CF911F910F91FF90EF90AA
:1010C000DF90CF9008959D9191938F5F75CF85EEBE
:1010D000B0CF8091A50D9091A60DA091A70DB091D4
:1010E000A80D892B8A2B8B2B09F4A9CF0E948C0584
:1010F0000091A50D1091A60D2091A70D3091A80D7E
:101100006C197D098E099F090617170728073907EB
:1011100008F095CFC5CF089561E0FC0184810E945D
:1011200056048091130D81111092130D08958EBDF8
:1011300000000DB407FEFDCF8EB50895AF92BF92AB
:10114000CF92DF92EF92FF920F931F93CF93DF9393
:1011500000D000D01F921F92CDB7DEB78C017B016B
:101160006A018091700E8333E1F45801A40EB51E1C
:10117000A016B10609F46FC00E94150680EF0E9408
:101180009708812F0E949708802F0E9497080F5F71
:101190001F4FF70181917F010E9497080E940B0663
:1011A000E7CF5B01A40EB51E8433C1F40E9415067F
:1011B00019830A838D2D80688B83CC8264E070E074
:1011C000CE0101960E94F105AE14BF0409F441C09E
:1011D000F70181917F010E949708F6CF0E941506C2
:1011E0000F3F110509F028F419820A8384E08B83EC
:1011F0000CC017FD17C019820A8333E016950795B6
:101200003A95E1F7007E0C600B8386E0C816D104A6
:10121000A0F5F701DE011496EA15FB0599F081911E
:101220008D93FACFC80126E0969587952A95E1F728
:10123000807E19830A830115104C10F48461D7CF86
:101240008C61D5CFB6016D5F7F4FCE0101960E94B4
:10125000F1050E940B06C60128960FB6F894DEBF72
:101260000FBECDBFDF91CF911F910F91FF90EF90F7
:10127000DF90CF90BF90AF90089563E070E0CE0113
:1012800001960E94F105F70181917F010E94970864
:10129000AE14BF04C1F7DDCFCF93DF931F92CDB75C
:1012A000DEB7898341E050E0BE016F5F7F4F90E081
:1012B00080E00E949E080F90DF91CF910895DA019F
:1012C000E091710EF0E0FE2FEE27E60FF71F90E0A1
:1012D000982F8827A901BD018E0F9F1F0C949E088F
:1012E000CF93DF931F921F92CDB7DEB779836A83C6
:1012F00022E030E0AE014F5F5F4F60E170E00E949E
:101300005F090F900F90DF91CF910895CF93DF93F6
:101310001F921F92CDB7DEB779836A8322E030E057
:10132000AE014F5F5F4F64E070E00E945F090F9075
:101330000F90DF91CF910895CF93DF931F92CDB798
:10134000DEB72091710E30E0322F2227260F371F93
:1013500090E0982F8827498341E050E0BE016F5FFD
:101360007F4F820F931F0E949E080F90DF91CF91B5
:1013700008958FEF0C9497080F931F93CF93DF93EB
:10138000EC010E94E4058B010E94B9098F3F69F0CE
:101390000E94E405601B710B6C177D07A8F380E0C9
:1013A000DF91CF911F910F91089581E0F9CF8CBD0E
:1013B0009DBD0895FF920F931F93CF93DF93EB0191
:1013C000FC01178A168A2A81211109C02B8121115B
:1013D00006C02C81211103C02D81222301F141156A
:1013E0005105E9F08A01FC01F08C80E591E00E9452
:1013F000D709AE014E5F5F4F24E030E06CE070E053
:101400008F2D0E945F09B8018F2D0E94700981E025
:1014100090E0DF91CF911F910F91FF90089580E0B0
:10142000F7CFCF93DF93EC018091130D811109C0A9
:1014300081E08093130D80915211909153110E947D
:10144000D70960E08C81DF91CF910C9456048F9284
:101450009F92AF92BF92FF920F931F93CF93DF9310
:10146000EC01F62E49015A018E81882389F08F8183
:1014700098859C012F5F3F4F38872F8382309240A1
:1014800018F40E94B909F3CFCE010E948C081E8285
:10149000CE010E94110A8CE291E00E94BC098F2DBE
:1014A00080640E94970808E110E0D501C401002E75
:1014B00004C0B695A795979587950A94D2F70E9490
:1014C000970808501109083F8FEF180771F785E951
:1014D000FF2021F028E087E8F2128FEF0E949708A2
:1014E00010E00E94B9098A8787FF04C01F3F11F0EE
:1014F0001F5FF7CFDF91CF911F910F91FF90BF90AA
:10150000AF909F908F900895AF92BF92CF92DF924D
:10151000EF92FF920F931F93CF93DF93EC0169013A
:10152000C801820F931F8130924050F58E8188232D
:1015300079F088819981AA81BB8184179507A607D4
:10154000B70731F48F819885C816D90608F042C0D4
:10155000488359836A837B838B85833039F089E0A4
:10156000440F551F661F771F8A95D1F79A01AB016B
:1015700061E1CE010E94270A882389F083E08D83F0
:10158000CE010E948C0880E0DF91CF911F910F91D6
:10159000FF90EF90DF90CF90BF90AF9008950E94A2
:1015A000E4055B010E94B9098A878F3F69F40E94B4
:1015B000E4056A197B096D327140A0F38FE08D83D9
:1015C000CE010E948C08DCCF8E3F89F418861F82E2
:1015D00081E08E838F8198858C159D0550F40E9443
:1015E000B9098F819885019698878F83F3CF8DE015
:1015F000E6CF6701E00EF11E0E94B909F601819362
:101600006F01EE15FF05C1F78F819885080F191F2F
:1016100018870F838985882319F001151240A0F0DF
:101620008E81882389F08F8198859C012F5F3F4FA1
:1016300038872F838230924018F40E94B909F3CF83
:10164000CE010E948C081E8281E09ECFCF92DF9255
:10165000EF92FF920F93CF93DF93EC01690182E148
:10166000411551056105710599F08B85833039F07D
:1016700089E0440F551F661F771F8A95D1F79A019D
:10168000AB0168E1CE010E94270A882319F084E0AB
:101690008D832DC08EEF0E94970876018EEFD81AA9
:1016A000F70181917F010E949708EC14FD04C1F7B6
:1016B0008FEF0E9497088FEF0E9497080E94B90948
:1016C0008A878F71853071F4011116C0CE010E9496
:1016D0008C0881E0DF91CF910F91FF90EF90DF9028
:1016E000CF90089581E18D83CE010E948C08CE01B8
:1016F0000E948C0880E0EECF88E592E00E94BC0951
:10170000811102C085E1C4CF20E030E0A9016DE085
:10171000CE010E94270A882311F084E1B9CF0E94EC
:10172000B9098111FACFD2CF0F934091150D509185
:10173000160D6091170D7091180D41155105610539
:10174000710599F0082F23E73EE080916B0E909190
:101750006C0E0E94260B882349F01092150D1092F2
:10176000160D1092170D1092180D81E00F9108952B
:101770000F93CF93C82F8091140D811105C0C1E044
:101780008C2FCF910F910895409165025091660280
:1017900060916702709168020C2F23E73EE0809110
:1017A0006B0E90916C0E0E94260B811102C0C0E05E
:1017B000E7CFCC2321F381E00E94940B8823B9F377
:1017C0001092140DDDCF8F929F92AF92BF92EF9245
:1017D000FF920F931F93CF934B015C01C42F809115
:1017E000650290916602A0916702B0916802881527
:1017F0009905AA05BB0551F181E00E94B80B811142
:101800000BC080E0CF911F910F91FF90EF90BF90A0
:10181000AF909F908F90089583E7E82E8EE0F82E8A
:1018200000E012E030E020E0B501A40180916B0EF1
:1018300090916C0E0E94840A882319F380926502AD
:1018400090926602A0926702B09268024091140DD5
:101850004C2B4093140D81E0D5CFCF93DF93EC0157
:101860006E857F858889998941E00E94E30B8823F2
:1018700051F08A8920E2829FC00111248D58914F36
:10188000DF91CF91089590E080E0FACF8F929F9200
:10189000AF92BF92CF92DF92EF92FF92CF9324E567
:1018A00031E130936C0E20936B0E882309F46DC0E8
:1018B00040E060E070E0CB010E94E30B81110BC0BF
:1018C00080E0CF91FF90EF90DF90CF90BF90AF90EE
:1018D0009F908F900895809131108F7789F7809134
:1018E0003D1090913E10A0913F10B0914010843671
:1018F0009105A105B10520F3C0903910D0903A10A0
:10190000E0903B10F0903C10C114D104E104F104CC
:10191000B9F240E0C701B6010E94E30B882381F2CF
:1019200080917E0E90917F0E8115924049F6A09194
:10193000830EAA2329F26091810E7091820E6115A7
:10194000710509F4BDCF2091800E222309F4B8CF90
:10195000A09372112093641190E080E030E0E1E008
:10196000F0E0C82FAF01082E02C0440F551F0A94A3
:10197000E2F72417350769F041E0480F01968930F6
:10198000910579F740936D119BCFC12CD12C760135
:10199000C0CF80936D112091890E30918A0E50E056
:1019A00040E02115310541F42091970E3091980EB9
:1019B0004091990E50919A0E2093651130936611C3
:1019C000409367115093681146015701860E971E88
:1019D000A11CB11C8092731190927411A092751188
:1019E000B0927611E091840EF091850EF09379110A
:1019F000E0937811B0E00E946046DC01CB01880DD5
:101A0000991DAA1DBB1D80937A1190937B11A09301
:101A10007C11B0937D1125E0EE0FFF1F2A95E1F7B1
:101A2000E150FE4FEF2FFF27E6958E0F9F1FA11D60
:101A3000B11D80936E1190936F11A0937011B093AC
:101A400071118090860E9090870EB12CA12C81147C
:101A5000910441F48090930E9090940EA090950E76
:101A6000B090960EC81AD90AEA0AFB0AC80CD91C0B
:101A7000EA1CFB1C04C0F694E794D794C794CA955B
:101A8000D2F7C0926911D0926A11E0926B11F09274
:101A90006C1185EFC8168FE0D806E104F10428F434
:101AA0008CE08093771181E00CCF80E125EFC216A6
:101AB0002FEFD206E104F104A0F380919F0E9091E4
:101AC000A00EA091A10EB091A20E80937A119093D6
:101AD0007B11A0937C11B0937D1180E2E2CF4F92F5
:101AE0005F926F927F928F929F92AF92BF92CF92AE
:101AF000DF92EF92FF920F931F93CF93DF93EC014E
:101B0000423051056105710590F480E0DF91CF917D
:101B10001F910F91FF90EF90DF90CF90BF90AF900B
:101B20009F908F907F906F905F904F9008958985E0
:101B30009A85AB85BC850196A11DB11D84179507BB
:101B4000A607B70710F3CB88DC88ED88FE888F895D
:101B5000803109F042C0BB27A72F962F852F48015F
:101B600059012A013B01C80ED91EEA1EFB1E8091B5
:101B7000650290916602A0916702B0916802C81652
:101B8000D906EA06FB0699F58F898031C1F5B301C4
:101B9000A201552766277727440F551F4D58514FEF
:101BA000FA01918280828091140D81608093140DDE
:101BB0008A89823080F08D819E81AF81B8858C0DBD
:101BC0009D1DAE1DBF1D8093150D9093160DA09306
:101BD000170DB093180D81E099CFDB01CA01E7E042
:101BE000B695A79597958795EA95D1F7B8CF40E038
:101BF000C701B6010E94E30B8111C6CF86CFB301A6
:101C0000A2014F77552766277727440F551F440FAA
:101C1000551F4D58514FFA0180829182A282B382A2
:101C2000C2CF8F929F92AF92BF92CF92DF92EF92EC
:101C3000FF920F931F93CF93DF93FC0181859285D1
:101C4000A385B4850196A11DB11D84179507A6072C
:101C5000B70770F480E0DF91CF911F910F91FF9053
:101C6000EF90DF90CF90BF90AF909F908F900895AE
:101C700083889488A588B6888789803189F5BB27B1
:101C8000A72F962F852FE9016A017B018F01BC01E7
:101C9000CD01680D791D8A1D9B1D80906502909075
:101CA0006602A0906702B090680286169706A806A2
:101CB000B90601F5F8018789803111F5DD24EE249C
:101CC000FF24F601EE0FFF1FED58F14F8081918147
:101CD000B0E0A0E088839983AA83BB8381E0BBCF77
:101CE000DB01CA01C7E0B695A79597958795CA9578
:101CF000D1F7C9CF40E00E94E30B8111DBCFAACF1F
:101D0000E894C7F8DD24EE24FF24F601EE0FFF1F50
:101D1000EE0FFF1FED58F14F80819181A281B381B9
:101D2000BF70D8CF4F925F926F927F92AF92BF9267
:101D3000CF92DF92EF92FF920F931F93CF93DF9397
:101D400000D01F92CDB7DEB78C0149835A836B83D5
:101D50007C835901C12CD12C7601412C82E0582E74
:101D6000612C712C49815A816B817C819E012F5F8E
:101D70003F4FC8010E94110E882339F1F801858573
:101D8000A301920104C0220F331F441F551F8A95DF
:101D9000D2F7DA01C901C80ED91EEA1EFB1E49811D
:101DA0005A816B817C818789803111F188EF9FEFA7
:101DB000AFEFBFE0481759076A077B0798F2F501B4
:101DC000C082D182E282F38281E00F900F900F9067
:101DD0000F90DF91CF911F910F91FF90EF90DF90C7
:101DE000CF90BF90AF907F906F905F904F9008958D
:101DF00088EF9FEFA0E0B0E0DDCFCF93DF93FC0151
:101E00002581222321F080E0DF91CF910895EC011C
:101E100080917711803159F582E08583178A108E81
:101E2000118E128E8091781190917911B0E0A0E01E
:101E300025E0880F991FAA1FBB1F2A95D1F7838B16
:101E4000948BA58BB68B80E691E19C8F8B8F81E084
:101E50008C831E821F82188619861A861B861C8612
:101E60001D861E861F86188A198A1A8ACDCF80324F
:101E700051F683E0858340917A1150917B116091F6
:101E80007C1170917D11478B508F618F728F9F01F4
:101E90002D5E3F4F80E691E10E94920E8111D3CFDB
:101EA000B2CF8F929F92AF92BF92CF92DF92EF927A
:101EB000FF920F931F93CF93DF93EC018D818111DC
:101EC0000EC080E0DF91CF911F910F91FF90EF90B6
:101ED000DF90CF90BF90AF909F908F9008950B8927
:101EE0001C892D893E89041715072607370748F3F3
:101EF0004A015B01823031F48A869B86AC86BD86BE
:101F000081E0E0CF81149104A104B10449F41E8260
:101F10001F82188619861A861B861C861D86F0CF9E
:101F20000A851B852C853D85EB8DFC8D858590E094
:101F30000996B901A8014150510961097109082E9A
:101F400004C076956795579547950A94D2F7750121
:101F50006401E1E0CE1AD108E108F10804C0F6946A
:101F6000E794D794C7948A95D2F7C416D506E606A7
:101F7000F70620F0012B022B032B11F58F89988D8A
:101F8000A98DBA8D8E839F83A887B9878E010A5F3A
:101F90001F4FC114D104E104F10409F4ADCF4E8107
:101FA0005F816885798598018B8D9C8D0E94110ECB
:101FB00091E0C91AD108E108F1088111EACF81CF77
:101FC000C41AD50AE60AF70AE1CF3F924F925F9210
:101FD0006F927F928F929F92AF92BF92CF92DF9239
:101FE000EF92FF920F931F93CF93DF93CDB7DEB79E
:101FF0002C970FB6F894DEBF0FBECDBF5C01DC019D
:102000005B968D909C905C9716964D905D906D9030
:102010007C901997411451046104710409F468C05B
:10202000BFEF4B1A5B0A6B0A7B0A312CF4018185E6
:102030009285A385B4859C01AD012F5F3F4F4F4F23
:102040005F4F29873A874B875C87730162011D8246
:102050001E821F821886F40181859285A385B4852E
:102060002D813E814F815885281739074A075B0724
:1020700008F056C089859A85AB85BC858C159D0571
:10208000AE05BF0550F482E0C82ED12CE12CF12C16
:1020900092E0492E512C612C712C9E012F5F3F4FF5
:1020A000B701A601C4010E94110E8823C9F18981DC
:1020B0009A81AB81BC81892B8A2B8B2B09F126015C
:1020C00037019FEF491A590A690A790A2D813E8121
:1020D0004F8158852F5F3F4F4F4F5F4F2D833E837A
:1020E0004F8358873FEFC31AD30AE30AF30AB3CFEB
:1020F000F40140805180628073803324339496CF02
:10210000C414D504E604F70409F70FEF1FEF2FEF0F
:102110003FE0B701A601C4010E946F0D811119C0F3
:1021200080E02C960FB6F894DEBF0FBECDBFDF91D6
:10213000CF911F910F91FF90EF90DF90CF90BF90C4
:10214000AF909F908F907F906F905F904F903F9057
:102150000895D50116964D915D916D917C911997D9
:10216000411551056105710539F097018601C401DA
:102170000E946F0D8823A1F2D5011696CD92DD92B3
:10218000ED92FC921997332051F0D701C6010196C8
:10219000A11DB11DF40180839183A283B383F50156
:1021A0008789908DA18DB28D892B8A2B8B2B39F449
:1021B0008481C78AD08EE18EF28E80688483F50197
:1021C00084818062848381E0ACCF2F923F924F92D2
:1021D0005F926F927F928F929F92AF92BF92CF92B7
:1021E000DF92EF92FF920F931F93CF93DF93EC0157
:1021F0005B012A018D81811115C08FEF9FEFDF9167
:10220000CF911F910F91FF90EF90DF90CF90BF90F3
:10221000AF909F908F907F906F905F904F903F9086
:102220002F9008958C8180FFE8CF0B891C892D8920
:102230003E894A855B856C857D85C201B0E0A0E062
:1022400068017901C41AD50AE60AF70AC816D90640
:10225000EA06FB0618F42801441A550A42011E0139
:1022600026E0220E311C8114910409F4B3C04A8582
:102270005B856C857D856A0181E0D8228B8D9C8D84
:102280008A019B01E9E03695279517950795EA9510
:10229000D1F7ED81E230E1F5FC01628D738D848D23
:1022A000958D600F711F821F931F612C22E0722E8B
:1022B0006C187D088614970408F434012C8126FDDF
:1022C00004C06114F2E07F0671F400916502109180
:1022D00066022091670230916802061717072807E7
:1022E000390709F053C040E00E94E30B882309F44A
:1022F00084CFC6018D58914FD5019C01260D371D05
:10230000FC012E173F0709F460C041914D93F9CFAE
:10231000FC0174807A947022C114D10471F471109C
:102320000CC0452B462B472B39F58F89988DA98DED
:10233000BA8D8E839F83A887B987EB8DFC8D6E81C4
:102340007F81888599856250710981099109258568
:1023500004C0660F771F881F991F2A95D2F706853C
:10236000178520893189600F711F821F931F670DA8
:10237000711D811D911D99CF4E815F816885798581
:1023800091010E94110E8111D8CF37CF75018301C1
:102390009601AB01BC0180916B0E90916C0E0E9476
:1023A000840A882309F429CFA60CB71C8A859B854B
:1023B000AC85BD85860D971DA11DB11D8A879B87A4
:1023C000AC87BD87861897084ECF281B390BA20E05
:1023D000B31EECCFC20113CF1F93CF93DF93FC0149
:1023E0002581222371F1162FEC01848187FF1EC005
:1023F000CF010E942D0CFC01892B19F18D818230B7
:1024000040F48B899C89AD89BE89848F958FA68F76
:10241000B78F8F89988D938F828F8F89988DA98D93
:10242000BA8DB58BA48B8C818F778C83111103C0EF
:102430008C818F7E8C83812FDF91CF911F910C94A3
:10244000B80B80E0DF91CF911F910895FF920F9319
:102450001F93CF93DF93EC018D81813041F090E0A9
:1024600080E0DF91CF911F910F91FF9008958C81B3
:1024700081FFF5CF82FD1BC000916B0E10916C0E99
:10248000C8010E94110A0E94B909F82EC8010E94D1
:102490008C088FEFF812E3CF8C8185FF1BC060E0C2
:1024A000CE010E94EC118C818F7D8C83D8CF4B891B
:1024B0005C896D897E898A859B85AC85BD858417FD
:1024C0009507A607B707C1F2CE010E94510F8111EF
:1024D000D3CFC5CF4091150D5091160D6091170DBA
:1024E0007091180D452B462B472B21F080E00E9460
:1024F000940BB5CF80618C832A853B85317080E059
:1025000092E0821B930BADCFCF93DF93EC0161E0A0
:102510000E94EC11882311F01D8281E0DF91CF91A0
:1025200008952F923F924F925F926F927F928F9277
:102530009F92AF92BF92CF92DF92EF92FF920F9352
:102540001F93CF93DF9300D01F921F92CDB7DEB7BA
:102550007C015B01342E5D83DC0115968C9115970F
:10256000813009F0CEC014962C9021FECAC022FC06
:10257000B4C0C32CDD8022947FE027222094B22DAA
:10258000B1702B2ED7011A964D915D916D917C9172
:102590001D97C114D10409F428C15B968D919C91BB
:1025A0005C97FC0174807A948A019B0169E03695FE
:1025B0002795179507956A95D1F770228A011170B2
:1025C000711020C001151105E9F416964D915D9129
:1025D0006D917C911997411551056105710509F0BF
:1025E00099C057968D919D910D90BC91A02D00970B
:1025F000A105B10509F0B0C0C7010E94E50F88230D
:1026000009F47FC080E092E0801B910B46018C159D
:102610009D0508F44C01D7015B964D915C915C9748
:1026200016968D919D910D90BC91A02D0297A109B8
:10263000B109FA01258504C0880F991FAA1FBB1F85
:102640002A95D2F74685578560897189840F951F31
:10265000A61FB71F9C01AD01270D311D411D511D46
:1026600029013A01811432E0930609F07BC0809180
:10267000650290916602A0916702B091680284158C
:102680009505A605B70559F48FEF9FEFDC01809300
:10269000650290936602A0936702B0936802022DD0
:1026A0009501B301A20180916B0E90916C0E0E9476
:1026B000260B882331F19EEFB91AC818D908F70103
:1026C00082859385A485B585880D991DA11DB11DB1
:1026D00082879387A487B58755CFF70143895489AB
:1026E0006589768982859385A485B58548175907BC
:1026F0006A077B0709F43DCFC7010E94510F811182
:1027000038CF81E090E0D70113969C938E93129777
:1027100080E007C09E012F5F3F4F0E94110E811184
:1027200002C090E079C089819A81AB81BC81F701B8
:10273000238D348DF901278948EF5FEF60E070E069
:10274000203121F048EF5FEF6FEF7FE084179507AE
:10275000A607B70708F050CFF70186839783A087B5
:10276000B18750CF0115110599F5D7011A964D91F2
:102770005D916D917C911D9753968D919D910D90DA
:10278000BC91A02D481759076A077B0708F181E023
:102790000E94B80B882309F4B4CF4092650250928E
:1027A000660260926702709268028091140D8160E7
:1027B0008093140DC8018D58914FD5019C01280DAF
:1027C000391DFC012E173F0759F04D914193FACF67
:1027D00041E0C301B2010E94E30B8111EBCF91CF25
:1027E000281B390BA20EB31E68CFF7018389948989
:1027F000A589B68984179507A607B70738F4848199
:10280000438B548B658B768B80688483F70184813E
:1028100083FD1AC0832D9D810F900F900F900F9014
:102820000F90DF91CF911F910F91FF90EF90DF906C
:10283000CF90BF90AF909F908F907F906F905F9060
:102840004F903F902F90089561E0C7010E94EC11D6
:10285000882309F456CFDECFCF93DF931F92CDB7F5
:10286000DEB7698341E050E0BE016F5F7F4F0E9499
:1028700091120F90DF91CF910895FC01DB01129628
:102880008D919C9113979383828381E993E0918347
:10289000808314968C911497848315968C91159748
:1028A000858316964D915D916D917C911997468324
:1028B0005783608771871A964D915D916D917C91D8
:1028C0001D9742875387648775871E964D915D914A
:1028D0006D917C91519746875787608B718B52968B
:1028E0008C915297828B53964D915D916D917C9115
:1028F0005697438B548B658B768B57964D915D9194
:102900006D917C915A97478B508F618F728F5B9638
:102910008D919C91948F838F0895DC015996ED9150
:10292000FC91309721F081E09581911101C080E008
:102930000895FC01818D928D009719F061E00C944F
:10294000EC110895DC015996ED91FC913097B9F0A6
:1029500083899489A589B68942855385648575855F
:10296000841B950BA60BB70B811520E89207A105D8
:10297000B10538F08FEF9FE7A0E0B0E0089590E058
:1029800080E00895DC0159968D919C91009739F073
:10299000DC01ED91FC910480F581E02D199490E02B
:1029A00080E00895CF93DF93EC01E98DFA8D3097A5
:1029B00049F481E090E09B838A8390E080E0DF919E
:1029C000CF91089513821282898D9A8D0E9491125F
:1029D000E98DFA8D22813381232B59F7F0CFCF93E4
:1029E000DF931F92CDB7DEB76983DC01ED91FC91D7
:1029F0000280F381E02D41E050E0BE016F5F7F4F28
:102A000019950F90DF91CF910895CF93DF931F9287
:102A1000CDB7DEB741E050E0BE016F5F7F4F0E944F
:102A2000E510019731F4898190E00F90DF91CF910B
:102A300008958FEF9FEFF9CFFC01818D928D009764
:102A400011F00C9405158FEF9FEF08950F931F93CE
:102A5000CF93DF93EC01898D9A8D10E000E0009711
:102A600099F00E9405158C010F3F100769F0898DC0
:102A70009A8DFC01428553856485758541505109C5
:102A8000610971090E94510FC801DF91CF911F9117
:102A90000F910895CF93CFB7F8948091120D8111C3
:102AA00027C0E0EFF3E08491E0E9F3E09491E82FB0
:102AB000F0E0EE0FFF1FEF51FD4FA591B491EC91A7
:102AC000E92321F461E085E30E94560461E085E397
:102AD0000E9484048CB580618CBD8CB580648CBDF3
:102AE00061E084E30E94840461E083E30E94840443
:102AF0008091120D8F5F8093120DCFBFCF910895FB
:102B0000FC01DB0112968D919C9113979383828334
:102B100014964D915D916D917C91179744835583E7
:102B20006683778318964D915D916D917C911B978B
:102B3000408751876287738784EA92E0918380831C
:102B40001C968C911C9784871D968D919C919687DD
:102B500085870895CF93DF93C1E3D3E088812296E0
:102B600060E00E94560483E0C134D807B9F7C1E49D
:102B7000D3E08881229670E060E00E94B50483E093
:102B8000C535D807B1F760E08FE1DF91CF910C94A4
:102B900056048AE10E942D04892B49F06CE271E011
:102BA00080E090E00E94B10590E080E0089588E127
:102BB0000E942D04892B49F06CE271E080E090E0E6
:102BC0000E94B10581E090E0089586E10E942D0405
:102BD000892B49F06CE271E080E090E00E94B10541
:102BE00082E090E008958CE10E942D04892B49F049
:102BF0006CE271E080E090E00E94B10583E090E03B
:102C000008950895FC01768765870895DC01ED91AC
:102C1000FC91068CF78DE02D199591E08927089598
:102C2000862F089581E08627089521E0FC018485A0
:102C3000883008F020E0822F089590E080E0089529
:102C40008F929F92AF92BF92CF92DF92EF92FF92BC
:102C50000F931F93CF93DF9300D01F92CDB7DEB7B2
:102C6000FC018581813091F080E00F900F900F90F2
:102C70000F90DF91CF911F910F91FF90EF90DF9018
:102C8000CF90BF90AF909F908F900895848181FFE7
:102C9000EBCF83899489A589B689892B8A2B8B2BC5
:102CA00009F45FC07F0140E050E0BA01CF010E940B
:102CB000510F8823C9F2F701C38CD48C8788908C7C
:102CC000A18CB28C82E090E0A0E0B0E0F6018083BD
:102CD0009183A283B3839E012F5F3F4FB501A4016F
:102CE000C6010E94110E882309F4BECF00E010E057
:102CF0009801B501A401C6010E946F0D882309F453
:102D0000B3CF89809A80AB80BC80F60187898031FF
:102D100019F188EF9FEFAFEFBFE088169906AA067A
:102D2000BB06C8F2F701178A108E118E128E138A15
:102D3000148A158A168A84818068848361E0C701B9
:102D40000E94EC11882309F48FCF40E050E0BA01D3
:102D5000C7010E94510F89CF88EF9FEFA0E0B0E03C
:102D6000DCCF81E082CFCF92DF92EF92FF921F9370
:102D7000CF93DF93EC0180E2689FF0011124ED58BE
:102D8000F14F9385917161F0842F827449F080E056
:102D9000DF91CF911F91FF90EF90DF90CF9008953A
:102DA000142F6A8B8091650290916602A091670250
:102DB000B09168028E879F87A88BB98BC488D5880D
:102DC000F12CE12C7601DD24CC24CF8AD88EE98E3B
:102DD000FA8E828D938DB0E0A0E0AC01BD014C294C
:102DE0005D296E297F294F8B588F698F7A8F838554
:102DF0008871B1F4848D958DA68DB78D8B8B9C8B4E
:102E0000AD8BBE8B81E08D831F701C831E821F8261
:102E1000188619861A861B861C861D8681E0B8CF07
:102E2000803109F0B4CF9E012D5E3F4F8B8D9C8D7C
:102E30000E94920E882309F4AACF84E0E4CF0F9376
:102E40001F93CF938C01C62F0E94A4076C2F646040
:102E5000C8010E94A4076C2F6B7FC8010E94A407C1
:102E600083EC90E00197F1F7CF911F910F910895B6
:102E70000F931F93CF93DF938C01D62FC42F607FC6
:102E8000642B0E941F1780E1D89FB00111246C2B86
:102E9000C801DF91CF911F910F910C941F17CF9311
:102EA000DF9300D000D01F921F92CDB7DEB798E01D
:102EB000EFE8F2E0DE01119601900D929A95E1F7AC
:102EC0009091D211961710F46FEF690F262F30E012
:102ED000220F331F41E050E04C0F5D1F240F351FC0
:102EE000F9016081680F606840E08AEC91E1289602
:102EF0000FB6F894DEBF0FBECDBFDF91CF910C941B
:102F0000381740E061E08AEC91E10E9438178BE3CA
:102F10009FE10197F1F7089541E00E94381781E0A1
:102F200090E00895CF93DF932091AD113091AE11D1
:102F3000232B89F0FC01C091A911D091AA116081C5
:102F40007181CE010E94FC48009729F08C1B9D0BDB
:102F5000DF91CF9108958FEF9FEFFACFFC01808131
:102F60009181009711F00C944F470895CF93DF9310
:102F7000EC01898D9A8D009741F00E948412898D11
:102F80009A8D0E944F471A8E198EDF91CF91089526
:102F90000F931F93CF93DF938C01EB01FC01808192
:102FA00091810097E1F06881798161157105A9F03F
:102FB000428153812C813D814217530770F00E945A
:102FC000E6488C819D81F801958384831D821C8253
:102FD000DF91CF911F910F9108950E944F478881F3
:102FE0009981F801918380838A819B819383828375
:102FF0008C819D8195838483198218821B821A8219
:10300000E5CF0E94B948FB0101900020E9F7319714
:10301000AF01461B570BDC01ED91FC910280F3815F
:10302000E02D1994CF93DF93FC0144815581608199
:10303000718183E790E10E949202EC016DEC73E0F4
:1030400083E790E10E9403188C0F9D1FDF91CF91C1
:1030500008958F929F92AF92BF92EF92FF920F933B
:103060001F93CF93DF93CDB7DEB7A1970FB6F89438
:10307000DEBF0FBECDBF7C01FA01CB0119A2223009
:1030800008F42AE08E010F5D1F4F822E912CB12C87
:10309000A12CBF01A50194010E947346F901CA0148
:1030A0006A300CF5605DD8016E938D01232B242BC3
:1030B000252B79F790E080E0109721F0BD01C70142
:1030C0000E940318A1960FB6F894DEBF0FBECDBFC5
:1030D000DF91CF911F910F91FF90EF90BF90AF9034
:1030E0009F908F900895695CDECFCF92DF92EF9230
:1030F000FF920F931F93CF93DF9377FF1DC06A0159
:103100007B01EC016DE20E948B028C014427552764
:10311000BA014C195D096E097F092AE0CE010E94AF
:103120002918800F911FDF91CF911F910F91FF9070
:10313000EF90DF90CF9008952AE0DF91CF911F911B
:103140000F91FF90EF90DF90CF900C942918CF93C0
:10315000DF93AC01990F660B770B83E790E10E9438
:103160007518EC016DEC73E083E790E10E940318A1
:103170008C0F9D1FDF91CF910895CF93DF93AB010B
:10318000BC012AE083E790E10E942918EC016DEC74
:1031900073E083E790E10E9403188C0F9D1FDF917D
:1031A000CF9108958F929F92AF92BF92CF92DF926C
:1031B000EF92FF920F931F93CF93DF937C018B01CC
:1031C0006C0182E0C80ED11C4701E5E08E0E911C17
:1031D000D0E0C0E0F60141916F0150E070E060E0A6
:1031E0002AE0C8010E9429185C016EE2C8010E9411
:1031F0008B028A0D9B1DC80FD91FC814D90451F723
:10320000F701458150E070E060E02AE0C8010E94CB
:1032100029188C0F9D1FDF91CF911F910F91FF9067
:10322000EF90DF90CF90BF90AF909F908F900895D8
:103230000F931F93CF93DF938C01D0E0C0E0611513
:10324000710519F00E940318EC016DEC73E0C801E0
:103250000E9403188C0F9D1FDF91CF911F910F913A
:1032600008956115710511F00C94031890E080E049
:1032700008958091070E63E0882349F080E00E9462
:103280004F1760ED73E08AEC91E10C94311980E006
:103290000E944F1768ED73E0F6CF4F925F926F92E6
:1032A0007F928F929F92AF92BF92CF92DF92EF92D6
:1032B000FF920E9439190E94E4054B015C0161E014
:1032C00084E20E9456040E94E405681979098A097B
:1032D0009B0960367A4E8105910528F486E20E94AA
:1032E0002D04019781F30E94E4056B017C010E948B
:1032F000E4052B013C01481859086A087B0860E086
:1033000084E20E94560462E080E648168AEE58067F
:1033100061047104F8F080E00E944F1760EE73E0E2
:103320008AEC91E10E94311962E080E00E944F171F
:1033300065EF73E08AEC91E1FF90EF90DF90CF9022
:10334000BF90AF909F908F907F906F905F904F90C5
:103350000C94311980E00E944F1761E074E08AEC10
:1033600091E10E94311962E089E00E944F17B70194
:10337000A601481959096A097B098AEC91E10E9462
:10338000751868EA74E0D6CF0E94811766E174E090
:103390008AEC91E10E9431198091FD0D60E0882353
:1033A00049F081E10E944F1761E274E08AEC91E1FB
:1033B0000C94311982E10E944F1765E274E0F6CF58
:1033C000CF93DF93EC01662341F00E94811768E2FE
:1033D00074E08AEC91E10E94311961E080E00E9482
:1033E0004F17AE010D2E000C660B770B8AEC91E1A6
:1033F0000E947518C83ED34044F463EF73E08AEC32
:1034000091E1DF91CF910C943119DF91CF91089523
:10341000CF93DF93EC010E9481176BE374E08AEC99
:1034200091E10E94311961E080E00E944F17AE01E6
:10343000DD0F660B770B8AEC91E1DF91CF910C9455
:103440007518CF93DF93EC010E9481176EE774E04B
:103450008AEC91E10E943119209751F460E083E1F8
:103460000E944F176AE474E08AEC91E10E943119DE
:1034700061E080E00E944F1763EC74E08AEC91E118
:103480000E943119C130D10551F461E083E10E94FD
:103490004F176AE474E08AEC91E10E94311962E00E
:1034A00080E00E944F1760ED74E08AEC91E10E9489
:1034B0003119C230D10551F462E083E10E944F1707
:1034C0006AE474E08AEC91E10E94311963E080E0E3
:1034D0000E944F1764EF74E08AEC91E10E94311969
:1034E000239761F463E083E10E944F176AE474E07C
:1034F0008AEC91E1DF91CF910C943119DF91CF915A
:103500000895CF93DF93EC010E9481176CE474E07F
:103510008AEC91E10E943119209751F460E083E137
:103520000E944F176AE474E08AEC91E10E9431191D
:103530008091200E9091210E892B09F046C061E008
:1035400080E00E944F1768E574E08AEC91E10E94E8
:103550003119C130D10551F461E083E10E944F1768
:103560006AE474E08AEC91E10E94311962E080E043
:103570000E944F1768E274E08AEC91E10E943119D1
:10358000C230D10551F462E083E10E944F176AE432
:1035900074E08AEC91E10E94311963E080E00E94BE
:1035A0004F1767E674E08AEC91E10E943119239786
:1035B00061F463E083E10E944F176AE474E08AECEF
:1035C00091E1DF91CF910C943119DF91CF91089562
:1035D0008091200E9091210E8130910509F484C0D4
:1035E0001CF4892B49F008958230910509F481C0BB
:1035F000039709F492C008950E94811761E774E06F
:103600008AEC91E10E94311961E080E00E944F173D
:1036100066E874E08AEC91E10E9431198091F30D23
:103620009091F40D0A9734F463EF73E08AEC91E122
:103630000E9431194091F30D5091F40D052E000CAC
:10364000660B770B8AEC91E10E94751862E080E0CE
:103650000E944F1769E974E08AEC91E10E943119E8
:103660008091790290917A02A0917B02B0917C02C4
:10367000883E9340A105B10530F463EF73E08AEC16
:1036800091E10E9431194091790250917A02609142
:103690007B0270917C022AE08AEC91E10E94291859
:1036A00067EA74E08AEC91E10E94311963E080E0FE
:1036B0000E944F176BEA74E08AEC91E10E94311985
:1036C0008091FD0D63E0882349F081E10E944F174E
:1036D00061E274E08AEC91E10C94311982E10E947C
:1036E0004F176AEB74E0F6CF0E9481176DEB74E020
:1036F000F1CF0E9481176AEC74E08AEC91E10E949C
:10370000311961E080E00E944F176FED74E08AECA0
:1037100091E10E9431190C9439190E9481176EEEC3
:1037200074E0EBCF0F931F93CF93DF93EC0188816D
:103730009981009759F02A813B812617370730F08D
:1037400081E0DF91CF911F910F9108958B016F5F01
:103750007F4F0E94D847009759F0998388831B8335
:103760000A832C813D81232B59F7FC011082E8CF7D
:1037700080E0E7CFEF92FF920F931F93CF93DF93F9
:10378000EC017B018A01BA010E94921B28813981D8
:10379000811114C02115310519F0C9010E944F474C
:1037A000198218821D821C821B821A82CE01DF912F
:1037B000CF911F910F91FF90EF9008951D830C837F
:1037C000B701C9010E94E648F1CFFB01019000203A
:1037D000E9F73197AF01461B570B0C94BA1B0F93B7
:1037E0001F93CF93DF93CDB7DEB762970FB6F894F0
:1037F000DEBF0FBECDBF8C01CB01F801118210825C
:1038000013821282158214824AE0BE016F5F7F4FDD
:103810000E94EF45BE016F5F7F4FC8010E94E51B0C
:1038200062960FB6F894DEBF0FBECDBFDF91CF9189
:103830001F910F910895FC01118210821382128250
:1038400015821482FB0101900020E9F73197AF0146
:10385000461B570B0C94BA1BCF92DF92EF92FF924C
:103860000F931F93CF93DF93EC016B017A014617FF
:10387000570720F48D2D6A01E62EF82E6FEC73E0C9
:10388000CE010E941B1C0091AD111091AE11C0160B
:10389000D10600F5E016F10608F48701E091A911C0
:1038A000F091AA11E00FF11FF08010826091A91130
:1038B0007091AA116C0D7D1D61157105A9F0CE01E5
:1038C0000E94E51B8091A9119091AA11080F191F60
:1038D000F801F082CE01DF91CF911F910F91FF90FF
:1038E000EF90DF90CF90089588819981009711F033
:1038F0000E944F47198218821D821C821B821A82E5
:10390000E1CFAF92BF92CF92DF92EF92FF920F93EF
:103910001F93CF93DF9300D01F92CDB7DEB78C01FA
:103920006B017A018091700E8333E9F45B016801C9
:10393000C40ED51EC016D106A9F10E9415068FE04F
:103940000E949708812F0E949708802F0E94970855
:103950000F5F1F4F80E00E949708F50181935F0180
:103960000E940B06E7CF843369F50E941506198380
:103970000A838F2D8F778B83EC8264E070E0CE0119
:1039800001960E94F105A70170E060E0C6010E9467
:10399000D448E114F10421F0B701C6010E94F105F9
:1039A0000E940B06C7010F900F900F900F90DF91B0
:1039B000CF911F910F91FF90EF90DF90CF90BF902C
:1039C000AF9008950E9415060F3F110509F030F4DD
:1039D00019820A831B8263E070E0D1CF17FD0BC010
:1039E00019820A8333E0169507953A95E1F7007E30
:1039F00008600B83F0CFC80126E0969587952A953D
:103A0000E1F7807E19830A830115104C18F4806158
:103A10008B83E1CF8861FCCFCF93DF931F92CDB72B
:103A2000DEB72091710E30E0322F2227260F371F8C
:103A300090E0982F882741E050E0BE016F5F7F4FF4
:103A4000820F931F0E94811C89810F90DF91CF917B
:103A50000895CF93C82F462F61E070E00E949C0923
:103A600061E070E08C2F0E940C1D8111F9CFCF9185
:103A70000895CF93C82F80E591E00E94D70968E0B0
:103A800070E08C2FCF910C94291DCF93C82F80E527
:103A900091E00E94D70960E170E08C2FCF910C94E7
:103AA000291DCF93DF93EC01888D883020F40E948C
:103AB000451D88E0888FDF91CF91089563E070E025
:103AC0000C940C1DCF93C82F80E591E00E94D7097C
:103AD0008C2FCF910C945E1DEF92FF920F931F934A
:103AE000CF93DF937C018091700ED4E0833309F093
:103AF000D8E00BE51EE0C0E0F801219131918F0183
:103B0000F701848195812817390729F0CF5FDC13ED
:103B1000F3CF80E006C08C2F0E94621D8431B1F784
:103B200081E0DF91CF911F910F91FF90EF90089569
:103B3000CF93DF93EC018C858830D0F40E94621D16
:103B4000843189F0882379F0883169F021E08C3163
:103B500059F4E881F9810084F185E02DCE011995B1
:103B600021E0892B09F420E0822FDF91CF91089585
:103B700080E0FBCFCF92DF92EF92FF92CF93DF9363
:103B8000EC018C85883068F40E94391D0E94E405A0
:103B90006B017C018C850E94621D811109C088E047
:103BA0008C87DF91CF91FF90EF90DF90CF900895B9
:103BB00061E070E080E090E00E94B1050E94E405C1
:103BC000AB01BC014C195D096E097F098D859E858D
:103BD000B0E0A0E0481759076A077B07D8F28C8548
:103BE0000E94451DDCCFCF93FC01C08D80E591E0A4
:103BF0000E94D70960E270E08C2F0E94291D62E0CC
:103C000070E08C2F0E940C1D84FD16C062E070E0F5
:103C10008C2F0E940C1D83FF0AC048E162E070E017
:103C20008C2F0E949C0980E090E0CF91089580E560
:103C300091E00E94D709E3CF40E162E070E08C2F71
:103C40000E949C0981E0F0CFCF93DF931F92CDB704
:103C5000DEB741E050E0BE016F5F7F4F90E080E053
:103C60000E94811C89810F90DF91CF910895CF939D
:103C7000DF93C4E1D0E00E94241E882361F061E05C
:103C800070E080E090E00E94B1052197A1F780E00C
:103C9000DF91CF91089581E0FBCFCF92DF92EF9239
:103CA000FF921F93CF93DF93CDB7DEB7C454D109F2
:103CB0000FB6F894DEBF0FBECDBFFC014281538129
:103CC0006481758123964CAF5DAF6EAF7FAF239754
:103CD00081E023968FAF23972396CCACDDACEEAC7E
:103CE000FFAC2397CBAADCAAEDAAFEAA4DA75EA73C
:103CF0006FA778AB88ABCDA4DEA4EFA4F8A8CFA2C1
:103D0000D8A6E9A6FAA68EABCBA8DCA8EDA8FEA89B
:103D1000C9A2DAA2EBA2FCA22BEB33E03C8B2B8BEB
:103D20009FEF9D8B9E8B9F8B188E3E872D878AA73A
:103D3000CFA0D8A4E9A4FAA4CF86D88AE98AFA8ABF
:103D40008CA389A19AA1ABA1BCA189879A87AB87D3
:103D5000BC873A8329834B835C836D837E83809108
:103D6000720E81116CC060E372E080E090E00E940E
:103D7000B1050E944A15E5ECF3E0E491F0E0EE0FA6
:103D8000FF1FEF55FC4F8591949190936F0E809398
:103D90006E0EE5E6F3E0E491E0936D0E61E08AE0FB
:103DA0000E9484040E940B0680E591E00E94D709DE
:103DB00084E38093700E80E80E944C090E94371EB5
:103DC000882309F472C088E00E944C090E94241ED6
:103DD000883009F06AC080E10E944C090E94241ECC
:103DE000803109F062C080E00E944C090E94241ECC
:103DF000182F81115AC041E050E0BE016D5B7F4F2A
:103E00008FE190E00E94811C24968FAD249783302F
:103E100009F04BC080E48093710E42E06EE170E0E7
:103E2000812F0E949C0942E06FE170E0812F0E9487
:103E30009C091F5F183089F781E08093720E80E53E
:103E400091E00E94D70946E050E06FE772E089E018
:103E500090E00E949E0844E050E0BE016D5F7F4FFD
:103E60008FE090E00E949E0844E050E0BE01615F58
:103E70007F4F81E090E00E949E0844E050E0BE0148
:103E80006B5E7F4F85E090E00E949E0881E08C870A
:103E900089859A85AB85BC858093301190933111CB
:103EA000A0933211B09333116FC087E38093700EEB
:103EB00080E80E944C090E94371E882339F188E06F
:103EC0000E944C090E94241E883001F580E10E9466
:103ED0004C090E94241E182F8031C1F480E00E94FA
:103EE0004C090E94241E811111C041E050E0BE0126
:103EF0006D5B7F4F89E390E00E94811C24968FAD1B
:103F00002497843019F41093710E96CF83E3809335
:103F1000700E80E80E944C090E94371E882391F1A0
:103F200080E10E944C090E94241E803159F582E1F3
:103F30000E944C090E94241E823121F580E00E94DB
:103F40004C090E94241E81111DC084E08093710ED3
:103F500015E525961FAF259741E050E0BE016C5B4B
:103F60007F4F8BE190E00E949E0824961FAF24971C
:103F700041E050E0BE016D5B7F4F8AE190E00E941E
:103F80009E085ACF1092700ECC5BDF4F0FB6F8949C
:103F9000DEBF0FBECDBFDF91CF911F91FF90EF909D
:103FA000DF90CF9008951F93CF93DF931F92CDB7EB
:103FB000DEB7182F80E591E00E94D709812F0E947B
:103FC000200627E0129FF0011124ED5DF14F2281C0
:103FD0003381377041E050E0BE016F5F7F4F820F49
:103FE000931F0E94811C89810F90DF91CF911F91B7
:103FF0000895FC01808D883040F4218D328D232B73
:1040000021F00E94D31F90E008958FEF9FEF089555
:10401000CF93DF93FC012485283028F08FEF9FEFAA
:10402000DF91CF910895EC010190F081E02D0084A3
:10403000F185E02D1995892B89F38C850E94D31F7A
:1040400090E0EECFDA01E091710EF0E0FE2FEE2766
:10405000E60FF71F90E0982F8827A901BD018E0F6A
:104060009F1F0C94811C8F929F92AF92BF92CF9210
:10407000DF92EF92FF920F931F93CF93DF93CDB711
:10408000DEB760970FB6F894DEBF0FBECDBF7C01E0
:104090009091700E911115C018E0812F60960FB6A7
:1040A000F894DEBF0FBECDBFDF91CF911F910F916E
:1040B000FF90EF90DF90CF90BF90AF909F908F9048
:1040C000089508E0933309F404E06B0180E591E082
:1040D0000E94D7099E012F5F3F4F5901490110E00F
:1040E000812F0E945E1DF40181934F018823C1F04E
:1040F0001F5F0113F5CF00E0F50181915F018D3164
:1041000049F0883139F08A51823020F00F5F101366
:10411000F3CFC2CF60E170E0802F0E94291D102FE5
:10412000A12EB12CF501EE0FFF1FE55AF14F1182C0
:10413000108283EE93E00197F1F742E870E060E0CF
:10414000812F0E949C094FEF62E070E0812F0E9456
:104150009C09B601C114D10491F480917D02909123
:104160007E0201968115F0EC9F0708F45CC09093E5
:104170007E0280937D0260917D0270917E02812F8C
:104180000E94860986E0E7E9F2E0DE0119960190D7
:104190000D928A95E1F7F70183818F778C8784816F
:1041A0008D8785818E87A7014E5F5F4F24E030E0C9
:1041B0006CE070E0812F0E945F09B601812F0E94A0
:1041C000700926E030E0AE01475F5F4F66E070E0C7
:1041D000812F0E945F0961E070E0812F0E94291DFC
:1041E00027E02A9DC0012B9D900D11249C012D5D7F
:1041F000314F7901F9011182108222E030E0AE01E5
:10420000415F5F4F68E270E0812F0E9422208F851E
:104210009889982789279827F701938382831682A4
:10422000158214823ACF80E090ECA1CFCF92DF923A
:10423000EF92FF920F931F93CF93DF9300D000D0A4
:10424000CDB7DEB78C016B017A01FC01808D88301F
:1042500010F40E94451D8BEB93E09A838983F6014D
:1042600082819381A481B5818B839C83AD83BE833E
:10427000B701CE0101960E943320F801808F88306B
:10428000A0F4F586E486128E118E81E026960FB694
:10429000F894DEBF0FBECDBFDF91CF911F910F917C
:1042A000FF90EF90DF90CF90089580E0EFCF7F9266
:1042B0008F929F92AF92BF92CF92DF92EF92FF9236
:1042C0000F931F93CF93DF931F921F92CDB7DEB74B
:1042D000782E8B014A01590122E030E0AE014F5F98
:1042E0005F4F64E270E00E942220E980FA80FE24A1
:1042F000EF24FE24E00EF11E970137704091700EFE
:10430000072D10E0433309F042C0085F1F4F102F04
:104310000027110F110F110FC901800F911F473393
:10432000C9F1A9014A0D5B1D4130584098F160E088
:1043300078E06B01C21AD30AA601B4010E949E085C
:10434000A5014C195D09B4016C0D7D1DC8010E94C9
:104350009E08EA0CFB1CF982EA8222E030E0AE0102
:104360004F5F5F4F64E270E0872D0E945F090F90FE
:104370000F90DF91CF911F910F91FF90EF90DF9001
:10438000CF90BF90AF909F908F907F900895005FE7
:104390001F4FBDCFA501B401DACFEF92FF921F935B
:1043A000CF93DF931F921F92CDB7DEB7182F22E075
:1043B00030E0AE014F5F5F4F60E270E00E9422206C
:1043C000E980FA80FE24EF24FE2422E030E0AE01F2
:1043D0004F5F5F4F60E270E0812F0E942220898151
:1043E0009A81982789279827E816F90689F487E0A3
:1043F000189FF0011124ED5DF14FF582E482C701B1
:104400000F900F90DF91CF911F91FF90EF90089543
:104410007C01DBCF1F93CF93DF93182F80E591E0D2
:104420000E94D709812F0E94CD21EC01812F0E948B
:104430005E1D873121F08C3111F0D0E0C0E0CE015B
:10444000DF91CF911F910895CF93DF93EC018C857D
:10445000883060F40E94621D873111F08C3131F494
:104460008C850E940A228115984088F3DF91CF91B4
:104470000895FC018485883010F40C940A2290E0A1
:1044800080E00895CF92DF92EF92FF921F93CF9337
:10449000DF93182F7B01EA014130584010F0C0E053
:1044A000D8E080E591E00E94D709812F0E94CD21BC
:1044B0006C01812F0E945E1D873111F08C3121F536
:1044C000CC16DD0670F380E591E00E94D7099E01CD
:1044D000A70170E060E0812F0E94572160E270E048
:1044E000812F0E94291D62E070E0812F0E940C1D27
:1044F00084FD0DC0812F0E945E1D8823B9F080E5E8
:1045000091E00E94D709EFCFD0E0C0E0DCCF40E1DE
:1045100062E070E0812F0E949C09CE01DF91CF9173
:104520001F91FF90EF90DF90CF900895D0E0C0E012
:10453000F4CF0F931F93CF93DF938C01EA01FC011B
:104540008485883048F40E944222892B39F481E026
:1045500090E0F80193838283D0E0C0E0CE01DF9148
:10456000CF911F910F9108959F92AF92BF92CF92DA
:10457000DF92EF92FF920F931F93CF93DF938C0103
:104580005B01942EE52EFC01C688D788F08C80E56F
:1045900091E00E94D7098F2D0E94CD21C92DDE2DDB
:1045A0008C179D0708F4EC019E01A501B6018F2D23
:1045B0000E945721F801868997898C0F9D1F978B40
:1045C000868BCE01DF91CF911F910F91FF90EF90DD
:1045D000DF90CF90BF90AF909F900895FF920F9380
:1045E0001F93CF93DF931F921F92CDB7DEB7F82EA4
:1045F00022E030E0AE014F5F5F4F66E270E00E9464
:10460000222009811A8110270127102722E030E09B
:10461000AE014F5F5F4F66E270E08F2D0E94222057
:1046200089819A819827892798270817190749F4BB
:10463000C8010F900F90DF91CF911F910F91FF90C4
:1046400008958C01E3CF1F93CF93DF93182F87E05A
:10465000189FE0011124CD5DD14F88819981009789
:1046600061F480E591E00E94D709812F0E94EE223B
:104670002E81821B910999838883DF91CF911F91AD
:1046800008959F92AF92BF92CF92DF92EF92FF92E6
:104690000F931F93CF93DF93EC017B018091700EFA
:1046A000811121C01B821A8288EE93E0A0E0B0E065
:1046B0008C839D83AE83BF8384EA92E09983888351
:1046C00088E08C8788EE93E09E878D87CE01DF910E
:1046D000CF911F910F91FF90EF90DF90CF90BF90FF
:1046E000AF909F90089534E0932E833311F028E02B
:1046F000922E8BE5C82E8EE0D82E10E098E0B92ED1
:10470000A12CD6012D913D916D01F70184819581F8
:104710002817390791F4812F0E94621D082F8731D5
:1047200011F08C3139F5812F0E942323892B59F503
:104730000C3119F4812F0E94391D1F5F9112E1CFB6
:10474000A11008C0D701ED91FC910084F185E02D06
:10475000C70119951B821A8288EE93E0A0E0B0E0B1
:104760008C839D83AE83BF8384EA92E099838883A0
:10477000BC86A8CF843149F08111DFCFF601329792
:1047800011821082DACFB12ED8CFAA24A394D5CF2C
:104790008F929F92AF92BF92CF92DF92EF92FF9251
:1047A0000F931F93CF93DF93CDB7DEB72F970FB63D
:1047B000F894DEBF0FBECDBF5C014B017A01809142
:1047C000700E8823C9F104E0833309F008E0B501D5
:1047D000CE0101960E9441238BE5C82E8EE0D82E93
:1047E00010E0F601219131916F01F50184819581ED
:1047F0002817390751F4812F0E94621D873129F44F
:10480000A701B401812F0E9442221F5F0113E9CF4B
:10481000C7012F960FB6F894DEBF0FBECDBFDF9154
:10482000CF911F910F91FF90EF90DF90CF90BF90AD
:10483000AF909F908F900895F12CE12CE9CFFC016F
:104840008485883010F40C94232390E080E0089550
:104850004F925F927F928F929F92AF92BF92CF9230
:10486000DF92EF92FF920F931F93CF93DF931F92EC
:104870001F92CDB7DEB7782E6B014A01A82EB12C5E
:1048800027E0829FC0011124FC01ED5DF14F7F0103
:104890000081118180E591E00E94D7090815190572
:1048A00054F4872D0E94EE22F70126818C01021B11
:1048B0001109118300830115110519F5872D0E9437
:1048C0005E1D843159F0882349F001E010E08C31FD
:1048D00011F410E000E0119501951109C8010F9045
:1048E0000F90DF91CF911F910F91FF90EF90DF908C
:1048F000CF90BF90AF909F908F907F905F904F90A0
:104900000895801691060CF4840187E08A9DF001D9
:104910008B9DF00D1124ED5DF14FE280F380C11409
:10492000D10451F12701F7E05F22872D0E94200674
:10493000840D951D2091700E273309F453C0980102
:10494000240D351D2130384008F44CC020E038E0FB
:10495000490184189508A401B6010E94811C260112
:10496000480C591C6801C818D908872D0E942006D8
:10497000A601B2010E94811CE00EF11E87E08A9D13
:10498000F0018B9DF00D1124ED5DF14FF382E28279
:1049900020813181201B310B318320838681800F60
:1049A000912F911D8A3F910510F4232BF1F487E09C
:1049B0008A9DF0018B9DF00D1124ED5DF14F168263
:1049C000F982EA8222E030E0AE014F5F5F4F68E299
:1049D00070E0872D0E945F0960E470E0872D0E94DF
:1049E000291D7CCFA801B601C5CF868377CFCF9391
:1049F000DF93FC01218D328D2115310529F48FEFD4
:104A00009FEFDF91CF910895EC01808D42175307FE
:104A100008F0A9010E9428241816190684F7298D88
:104A20003A8D281B390B3A8F298FEBCF0F931F93A9
:104A3000CF93DF931F92CDB7DEB7FC01218D328D6E
:104A4000232B41F48FEF9FEF0F90DF91CF911F91B8
:104A50000F9108958C0141E050E0BE016F5F7F4FE0
:104A6000FC01808D0E942824181619065CF7F801B5
:104A7000818D928D0197928F818F898190E0E4CF13
:104A8000CF93DF931F92CDB7DEB741E050E0BE0178
:104A90006F5F7F4FFC0184850E9428241816190639
:104AA00034F4898190E00F90DF91CF9108958FEFDA
:104AB0009FEFF9CFFC018485883010F40C942824F2
:104AC00090E080E008958F929F92AF92BF92CF9234
:104AD000DF92EF92FF920F931F93CF93DF9300D05B
:104AE00000D000D01F92CDB7DEB79091700E91111B
:104AF00015C018E0812F2A960FB6F894DEBF0FBEBE
:104B0000CDBFDF91CF911F910F91FF90EF90DF907C
:104B1000CF90BF90AF909F908F90089528E0F22E95
:104B2000933311F494E0F92E6B01082F80E591E0A6
:104B30000E94D7099E012F5F3F4F5901490110E0A4
:104B4000812F0E945E1DF40181934F018823C1F0E3
:104B50001F5FF112F5CFF12CF50191915F019D31AD
:104B600049F0983139F09A51923020F0F3941F11A6
:104B7000F3CFBFCF60E170E08F2D0E94291D1F2D64
:104B8000E12EF12CF701EE0FFF1FE55AF14F1182D4
:104B9000108283EE93E00197F1F7402F70E060E020
:104BA000812F0E949C094FEF62E070E0812F0E94EC
:104BB0009C09B601CD2889F480917D0290917E02F6
:104BC00001968115F0EC9F0798F190937E028093F7
:104BD0007D0260917D0270917E02812F0E94860984
:104BE00061E070E0812F0E94291D27E02E9DC00109
:104BF0002F9D900D11249C012D5D314F7901F901FC
:104C00001182108222E030E0AE01475F5F4F68E220
:104C100070E0812F0E94222089859A859827892714
:104C20009827F7019383828316821582148262CFBC
:104C300080E090ECCACF0F931F93CF93DF93EC01EA
:104C40008B01888D883010F40E94451DB80182E0E8
:104C50000E946325888F883050F41D870C871A8E38
:104C6000198E81E0DF91CF911F910F91089580E01F
:104C7000F9CF0F931F93CF938C01FC016481758151
:104C800081E20E946325C82F8830F8F480E591E026
:104C90000E94D7098C2F0E945E1D833131F08C2F2A
:104CA000CF911F910F910C94391D62E070E08C2F11
:104CB0000E94291DF80184819581EC2FF0E0EE0F10
:104CC000FF1FE55AF14F91838083CF911F910F9180
:104CD0000895CF92DF92EF92FF921F93CF93DF93CD
:104CE000EC017B016A018C85883048F40E94621DCA
:104CF000882319F08C850E94391D88E08C87F70184
:104D000082819381A481B5810097A105B10551F4F9
:104D100090E080E0DF91CF911F91FF90EF90DF90C6
:104D2000CF9008958F3F9F4FAF4FBF4F89F370E0F3
:104D300060E081E20E946325182F8C87883040F75D
:104D400080E591E00E94D709A7014E5F5F4F24E004
:104D500030E06CE070E0812F0E945F09B601812F86
:104D60000E94700964E070E0812F0E94291D0E945A
:104D7000E4056B017C018C850E94621D873111F175
:104D80008C3101F1882321F20E94E405AB01BC01C2
:104D90004C195D096E097F098D859E85B0E0A0E004
:104DA00084179507A607B70738F061E070E080E048
:104DB00090E00E94B105DFCF8C850E94451D88E000
:104DC0008C87A6CF81E090E0A5CF0F931F93CF9360
:104DD000DF931F921F92CDB7DEB7FC0124852830E8
:104DE000E0F48C0180E591E00E94D70922E030E0F8
:104DF000AE014F5F5F4F60E170E0F80184850E9473
:104E0000222089819A819827892798270F900F90CF
:104E1000DF91CF911F910F91089590E080E0F6CF40
:104E20000F931F93CF93DF931F921F92CDB7DEB7DF
:104E3000FC0124852830E0F48C0180E591E00E949B
:104E4000D70922E030E0AE014F5F5F4F64E070E0D1
:104E5000F80184850E94222089819A8198278927D8
:104E600098270F900F90DF91CF911F910F91089588
:104E700090E080E0F6CF0F931F93CF93DF9300D0A5
:104E800000D01F921F92CDB7DEB78C01D801599682
:104E90004D915C915A974115510551F0ED91FC915E
:104EA000048CF58DE02D70E060E0C8011995EECF1F
:104EB000F801808D0E942323892BB1F148E050E056
:104EC000BE016F5F7F4FD80158968C910E942824B5
:104ED00018161906F4F4D801509684E0FE013196B4
:104EE00001900D928A95E1F78D8190E0982F8827A7
:104EF0002E81820F911DF801958B848B8F81282F35
:104F000030E0322F22278885820F932F911D928FB8
:104F1000818F28960FB6F894DEBF0FBECDBFDF910C
:104F2000CF911F910F91089590E080E0F2CF4F92C2
:104F30005F926F927F928F929F92AF92BF92CF9229
:104F4000DF92EF92FF920F931F93CF93DF93CDB732
:104F5000DEB763970FB6F894DEBF0FBECDBF7C01FE
:104F60006B013A01FB0120E090E080E06AE03191C2
:104F7000332309F461C040ED430F4A3008F04DC0BF
:104F8000689FA001699F500D1124CA01C097830F2B
:104F9000911D37FD9A958F3F910549F340F3F70135
:104FA000428153816481758180913C1190913D11C2
:104FB000A0913E11B0913F11481759076A077B072E
:104FC00009F40DC28701085F1F4F0E94E4056F704E
:104FD00077277C5FC8010E941B26813009F004C23C
:104FE0008BEB93E09A838983F70182819381A4817B
:104FF000B5818B839C83AD83BE8345E350E0BE01C6
:105000006F5F7F4FC8010E94DA09892BA9F5D12C67
:10501000C12CC8010E94511D17C03E3209F0BFCFFC
:10502000233009F4BCCFD301A20FB11D12968C938B
:105030002F5F90E080E09BCF233009F0B0CFF301E9
:105040008583CC24C394D12CC60163960FB6F89403
:10505000DEBF0FBECDBFDF91CF911F910F91FF90AB
:10506000EF90DF90CF90BF90AF909F908F907F9008
:105070006F905F904F9008950E94E405F701778349
:10508000668342E050E0B7016A5F7F4FC8010E942B
:10509000B42281E090E09A83898342E050E0BE012F
:1050A0006F5F7F4FC8010E94B42280E091E09A8335
:1050B000898342E050E0BE016F5F7F4FC8010E94CC
:1050C000B4221A82198242E050E0BE016F5F7F4F26
:1050D000C8010E94B42242E050E0BE016F5F7F4FE2
:1050E000C8010E94B42242E050E0BE016F5F7F4FD2
:1050F000C8010E94B4225601F6018081882301F183
:105100006501F60181912F01882311F08E32B1F4EF
:1051100046018A189B081814190474F48D8641E01E
:1051200050E0BE01635F7F4FC8010E94B422A4011A
:10513000B501C8010E94B4225201DECF6201E1CF65
:105140001D8641E050E0BE01635F7F4FC8010E94B1
:10515000B422C12CDD24D394DA82C98242E050E02B
:10516000BE016F5F7F4FC8010E94B422DA82C982FC
:1051700042E050E0BE016F5F7F4FC8010E94B42241
:10518000C8010E94F31D892B09F441CFF3E0AF2E33
:10519000B12C230122E0420E511CD4C0F701428100
:1051A000538164817581808D918DA28DB38D481757
:1051B00059076A077B0709F008C1848D958DC5974B
:1051C00009F003C181A192A15DEFC52EDD24DA941F
:1051D0000C970CF4ADC04CE050E0BE016F5F7F4F08
:1051E000C8010E94F7248B819C81982789279827E2
:1051F0009A8B898BF7014681578129813A81421721
:10520000530709F0E7C097FFE5C08F7092703BEF3E
:10521000C32EDD24DA94892B09F08AC06F8078844C
:105220007624672476242AEFC22EDD24DA946114D2
:10523000710409F47DC0D12CC12C8D819E819827E9
:1052400089279827C816D906F8F441E050E0BE0136
:10525000635F7F4FC8010E94F7244D85442331F0DE
:1052600050E070E060E0C8010E94F7248D85811154
:10527000ECCF44E050E070E060E0C8010E94F72409
:10528000FFEFCF1ADF0AD9CF912C812C41E050E0FB
:10529000BE016D5E7F4FC8010E94F7244B89842FA9
:1052A000807C09F06CC0442331F050E070E060E095
:1052B000C8010E94F7248B898111E8CF42E050E0B9
:1052C000BE01615F7F4FC8010E94F72442E050E0B9
:1052D000BE01635F7F4FC8010E94F72444E050E0A5
:1052E00070E060E0C8010E94F72442E050E0BE0197
:1052F0006F5E7F4FC8010E94F7248F859889498986
:105300005A898115914009F043C0CD84DE84DC24A4
:10531000CD24DC2481E0C816D104D1F541155440D8
:1053200009F04AC044E050E0B201C8010E94F724ED
:1053300021E0A21AB10809F46CCEFFEFCF16DF0608
:1053400009F067CE0E94E4053B014C01C8010E94B0
:105350003B27181619060CF421CF0E94E4056619A4
:10536000770988099909693873418105910548F5DC
:1053700062E370E080E090E00E94B105E7CF41E099
:1053800050E070E060E0C8010E94F7241B8A93CFD0
:1053900054274527542770E060E0C8010E94F72495
:1053A000FFEF8F1A9F0A6814790409F06FCF96EF08
:1053B000C92EDD24DA94BCCFE7EFCE2EDD24DA94BB
:1053C000B7CFCC24CA94DC2CB3CF6EEFC62EDD242D
:1053D000DA94AECF4CEFC42EDD24DA94A9CF8EEF51
:1053E000C82EDD24DA9430CED12CC12C2DCECF9214
:1053F000DF92EF92FF920F931F93CF93DF93CDB77E
:10540000DEB7AF970FB6F894DEBF0FBECDBF7C01FD
:105410006A010BEB13E01A8309831C861B8688EE56
:1054200093E0A0E0B0E08D879E87AF87B88B82EDD8
:1054300092E09A878987188F0F8B198E1A8E1B8E90
:105440001C8E88E089A31BA70AA71CA61DA61EA662
:105450001FA68091301190913111A0913211B0911D
:1054600033118EA39FA3A8A7B9A78B839C83AD8379
:10547000BE8318861F82AE01465D5F4FCE01019646
:105480000E94972781309105B1F4D701ED91FC91ED
:105490000488F589E02D1DA30CA38CA59DA5AEA5C0
:1054A000BFA58EA39FA3A8A7B9A7A601BE016C5D47
:1054B0007F4FC7011995AF960FB6F894DEBF0FBEA8
:1054C000CDBFDF91CF911F910F91FF90EF90DF90B3
:1054D000CF900895CF92DF92EF92FF920F931F9398
:1054E000CF93DF93CDB7DEB7AF970FB6F894DEBF9B
:1054F0000FBECDBF8C016B017A018BEB93E09A83D9
:1055000089831B821C821D821E821C861B8648EE9C
:1055100053E060E070E04D875E876F87788B22ED07
:1055200032E03A872987988F8F8B198E1A8E1B8EBF
:105530001C8E28E029A39BA78AA71CA61DA61EA631
:105540001FA6D8011C968C91883060F40E94621DC1
:10555000882321F0F80184850E94391D88E0D80154
:105560001C968C938091301190913111A091321141
:10557000B09133118EA39FA3A8A7B9A78B839C8357
:10558000AD83BE8318861F82AE01465D5F4FB601B4
:10559000CE0101960E9497270097C1F0D801ED91A6
:1055A000FC910684F785E02D8BEB93E09DA38CA303
:1055B0008CA59DA5AEA5BFA58EA39FA3A8A7B9A79F
:1055C000A701BE016C5D7F4FC8011995AF960FB65C
:1055D000F894DEBF0FBECDBFDF91CF911F910F9129
:1055E000FF90EF90DF90CF900895EF92FF920F938E
:1055F0001F93CF93DF9300D01F92CDB7DEB78C01FE
:105600007B01FB0184858830A8F08BEB93E0F801E7
:10561000918380831282138214821582C8010F90B5
:105620000F900F900F90DF91CF911F910F91FF90EE
:10563000EF90089580E591E00E94D70924E030E0E2
:10564000AE014F5F5F4F6CE070E0F70184850E9410
:1056500022208BEB93E0F8019183808389819A81EA
:10566000AB81BC8182839383A483B583D7CF85ED3F
:105670008093BC008091A50D9091A60DA091A70DDF
:10568000B091A80D0796A11DB11D23E0B695A79571
:10569000979587952A95D1F72091BC0024FD03C0EA
:1056A0001092A30D08954091A50D5091A60D609103
:1056B000A70D7091A80D452B462B472B69F300973A
:1056C000A105B10541F025E32A95F1F70000019706
:1056D000A109B109E1CF8091A40D0C94FE063F927F
:1056E0004F925F926F927F928F929F92AF92BF92F2
:1056F000CF92DF92EF92FF920F931F93CF93DF939E
:1057000000D000D000D01F921F92CDB7DEB77C0131
:10571000DC0115968C91811115C0FE013196CE01E8
:105720000C966F0130E23193E817F907E1F7DA01DF
:1057300030E087E09D91B92E992329F19E3239F40A
:105740008A3011F480E0DAC038E08AE0F3CFE1ED8E
:10575000F2E04491442321F031969413FACFF2CF32
:10576000831780F34FED490F4E3560F74FE9490F2E
:105770004A3118F440EEB42EB90EF601E30FF11DD4
:10578000B0823F5FD7CF89818032E1F2322E8B0128
:10579000FB01838D948DD7015C969C938E935B97D0
:1057A0001682178210861186128613861486158635
:1057B000F80182859385A485B585438954896589D7
:1057C000768984179507A607B70708F04DC025E02E
:1057D000B695A795979587952A95D1F7F82FFF70DD
:1057E000AF2ED80115968C91823008F4ABCFC8014A
:1057F0000E94051597FDA6CFF80182859385A485A3
:10580000B5854F96A11DB11D82879387A487B58763
:10581000F0E2AF9EB00111246D58714F6115710512
:1058200009F490CFDB018C91882341F0853E09F08B
:1058300058C0BB2029F0BB24B394BACFB1100EC01E
:10584000F701A28A8091650290916602A091670299
:10585000B091680286879787A08BB18BDB018C9112
:105860008111E9CFBB24B394832D8271823109F079
:1058700069CFBB2009F45AC0C7010E942D0C0097C4
:1058800009F460CF20E2FC0111922A95E9F72BE0A0
:10589000F601DC0101900D922A95E1F721E238E250
:1058A000DC0151963C932E93509740E058E01F96B0
:1058B0005C934E931E9753963C932E935297599612
:1058C0003C932E93589757965C934E93569781E04E
:1058D0000E94B80B882309F435CF432DF701628964
:1058E0000AC04BE050E0C6010E94BE48892B09F077
:1058F0005FCF432D6A2DC7010E94B3162B960FB6BA
:10590000F894DEBF0FBECDBFDF91CF911F910F91F5
:10591000FF90EF90DF90CF90BF90AF909F908F90CF
:105920007F906F905F904F903F900895F801858130
:10593000823009F407CFC8010E94E50F882309F4DB
:1059400001CFD8015B96ED91FC915C9716968D90F6
:105950009D90AD90BC901997B2E08B1A9108A10868
:10596000B108858504C0880C991CAA1CBB1C8A95AB
:10597000D2F786859785A089B189880E991EAA1EBF
:10598000BB1E848124013501480E511C611C711C11
:1059900084149504A604B70409F1E1E04E1A5108F5
:1059A0006108710881E00E94B80B882309F4CACE0F
:1059B000E3E7FEE0119283E790E18E179F07D1F7AE
:1059C000409265025092660260926702709268028D
:1059D0008091140D81608093140DDACFD8015B960D
:1059E000ED91FC91258580E092E0A0E0B0E004C05C
:1059F000880F991FAA1FBB1F2A95D2F7F801438968
:105A0000548965897689840F951FA61FB71F838BDC
:105A1000948BA58BB68BD70152961C9283E79EE0A0
:105A200031CFEF92FF920F931F93CF93DF93EC014F
:105A30007B018A011B821A8288EE93E0A0E0B0E02D
:105A40008C839D83AE83BF838DE993E099838883A4
:105A50008DE190E00E94B3469A8F898F009779F08C
:105A60002DE1F701DC0101900D922A95E1F74CE060
:105A700050E0B801CE010C960E94ED48188EDF91DF
:105A8000CF911F910F91FF90EF9008952F923F9229
:105A90004F925F926F927F928F929F92AF92BF923E
:105AA000CF92DF92EF92FF920F931F93CF93DF93EA
:105AB000CDB7DEB7C756D1090FB6F894DEBF0FBE1B
:105AC000CDBF5C013B01A6964FAFA69719A218A2C5
:105AD00081E993E09F8F8E8F1BA21C821B829A8389
